:10000000581F0010F196000051970000599700000A
:1000100061970000699700007197000000000000E0
:1000200000000000000000000000000079970000C0
:100030008197000000000000899700009197000060
:100040009997000075120000999700009997000099
:1000500099970000999700009997000099970000E0
:1000600099970000999700009997000099970000D0
:1000700099970000999700009997000099970000C0
:1000800099970000999700009997000099970000B0
:1000900099970000999700009997000099970000A0
:1000A0009997000089120000999700009997000025
:1000B0009997000099970000999700009997000080
:1000C0009997000099970000999700005374617206
:1000D000742043414E6F70656E20492F4F20657824
:1000E000616D706C652E2E2E0A00000050414E4945
:1000F000433A20496E76616C696420434F5F4F44F8
:100100005F52414D20616C69676E6D656E74210AA6
:100110000000000050414E49433A20496E76616C20
:10012000696420434F5F4F445F454550524F4D2017
:10013000616C69676E6D656E74210A0050414E49AD
:10014000433A20496E76616C696420434F5F4F44A7
:100150005F524F4D20616C69676E6D656E74210A48
:100160000000000050414E49433A204661696C65E9
:100170006420746F20696E69742043414E6F70650E
:100180006E20737461636B210A0000005265736511
:1001900074206E6F6465210A0000000043414E2008
:1001A000495251210A000000980100100500010089
:1001B0009C01001085000400A001001085000400CF
:1001C000A401001085000400A801001085000400AF
:1001D000B401001005000100B80100108500040002
:1001E000BC01001085000400C001001005000100E2
:1001F000C40100108D000400C80100100D000100B2
:10020000CC01001005000100D00100108D00040099
:10021000D40100100D000100D801001005000100FC
:10022000DC0100108D000400E00100100D00010051
:10023000E401001005000100E80100108D00040039
:10024000EC0100100D000100F00100100D00010094
:10025000F40100108D000400F80100108D0004006E
:10026000FC0100108D000400000200108D0004004D
:10027000040200108D000400080200108D0004002C
:100280000C0200108D000400100200108D0004000C
:10029000140200100D000100180200108D0004006F
:1002A0001C0200108D000400200200108D000400CC
:1002B000240200108D000400280200108D000400AC
:1002C0002C0200108D000400300200108D0004008C
:1002D000340200108D000400380200100D000100EF
:1002E0003C0200108D000400400200108D0004004C
:1002F000440200108D000400480200108D0004002C
:100300004C0200108D000400500200108D0004000B
:10031000540200108D000400580200108D000400EB
:100320005C0200100D000100600200108D0004004E
:10033000640200108D000400680200108D000400AB
:100340006C0200108D000400700200108D0004008B
:10035000740200108D000400780200108D0004006B
:100360007C0200108D0004008002001005000100D6
:10037000840200108D000400880200100D000100AE
:100380008A0200108D0002008C0200100D00010096
:100390008E0200108D000200900200100D0001007E
:1003A0009402001005000100980200108D00040066
:1003B0009C0200100D0001009E0200108D00020042
:1003C000A00200100D000100A20200108D0002002A
:1003D000A40200100D000100A80200100500010099
:1003E000AC0200108D000400B00200100D000100EE
:1003F000B20200108D000200B40200100D000100D6
:10040000B60200108D000200B80200100D000100BD
:10041000BC02001005000100C00200108D000400A5
:10042000C40200100D000100C60200108D00020081
:10043000C80200100D000100CA0200108D00020069
:10044000CC0200100D000100D00200100D000100D0
:10045000D40200108D000400D80200108D000400AA
:10046000DC0200108D000400E00200108D0004008A
:10047000E40200108D000400E80200108D0004006A
:10048000EC0200108D000400F00200108D0004004A
:10049000F40200100D000100F80200108D000400AD
:1004A000FC0200108D000400000300108D00040009
:1004B000040300108D000400080300108D000400E8
:1004C0000C0300108D000400100300108D000400C8
:1004D000140300108D000400180300100D0001002B
:1004E0001C0300108D000400200300108D00040088
:1004F000240300108D000400280300108D00040068
:100500002C0300108D000400300300108D00040047
:10051000340300108D000400380300108D00040027
:100520003C0300100D000100400300108D0004008A
:10053000440300108D000400480300108D000400E7
:100540004C0300108D000400500300108D000400C7
:10055000540300108D000400580300108D000400A7
:100560005C0300108D0004009000001006000100E4
:1005700098000010BE000800A0000010BE00080097
:10058000A8000010BE000400B0000010BE0008006B
:10059000000000000E0000000010000085000400B4
:1005A0005801001001100000360001000400001086
:1005B00002100000B600040008000010031008003C
:1005C0008E0004000C000010051000008D000400D7
:1005D0005C010010061000008D0004006001001096
:1005E000071000008D0004006401001008100000D6
:1005F00005000B0068010010091000000500040050
:10060000730100100A1000000500040077010010BB
:10061000101001008E0004002C00001011100100C9
:100620008E0004003000001014100000850004004B
:100630007C010010151000008D00020080010010E8
:10064000161004008D000400840100101710000033
:100650008D0002009401001018100400000000003A
:10066000A8010000191000000D000100AC010010ED
:10067000291006000D000100AD010010001202005B
:1006800000000000D0010000001402000000000083
:10069000E801000001140200000000000002000058
:1006A00002140200000000001802000003140200FF
:1006B00000000000300200000016080000000000EA
:1006C000480200000116080000000000900200002F
:1006D0000216080000000000D802000003160800FF
:1006E00000000000200300000018060000000000C9
:1006F000680300000118060000000000A0030000CD
:100700000218060000000000D803000003180600CD
:100710000000000010040000001A080000000000A3
:1007200048040000011A08000000000090040000C6
:10073000021A080000000000D8040000031A080094
:100740000000000020050000801F00008D00040054
:10075000600300100021000036000A003400001081
:10076000012100000D0001006403001002210000BF
:100770008D00020066030010032100008E000200BD
:100780003E0000100421000086000200400000101E
:1007900006210000870004000C010010072105005D
:1007A000BE0002004200001008210100B600020055
:1007B0004C00001009210100B60002004E0000109C
:1007C00010211000FE000400500000101121100044
:1007D000FD0004006803001012211000FF00040057
:1007E0001001001020210500000000006805000035
:1007F0000060080076000100C000001000620800E0
:100800003E000200C800001001640C00B6000200A7
:10081000D800001011640800BE000200F0000010B3
:1008200000002110422063308440A550C660E7706C
:10083000088129914AA16BB18CC1ADD1CEE1EFF114
:100840003112100273325222B5529442F772D662BC
:10085000399318837BB35AA3BDD39CC3FFF3DEE364
:100860006224433420040114E664C774A44485540C
:100870006AA54BB528850995EEE5CFF5ACC58DD5B4
:100880005336722611163006D776F6669556B4465C
:100890005BB77AA719973887DFF7FEE79DD7BCC704
:1008A000C448E5588668A7784008611802282338AC
:1008B000CCC9EDD98EE9AFF9488969990AA92BB954
:1008C000F55AD44AB77A966A711A500A333A122AFC
:1008D000FDDBDCCBBFFB9EEB799B588B3BBB1AABA4
:1008E000A66C877CE44CC55C222C033C600C411C4C
:1008F000AEED8FFDECCDCDDD2AAD0BBD688D499DF4
:10090000977EB66ED55EF44E133E322E511E700E9B
:100910009FFFBEEFDDDFFCCF1BBF3AAF599F788F43
:100920008891A981CAB1EBA10CD12DC14EF16FE123
:100930008010A100C230E32004502540467067605B
:10094000B9839893FBA3DAB33DC31CD37FE35EF373
:10095000B1029012F322D2323542145277625672AB
:10096000EAB5CBA5A89589856EF54FE52CD50DC5C3
:10097000E234C324A01481046674476424540544FB
:10098000DBA7FAB79987B8975FE77EF71DC73CD713
:10099000D326F2369106B01657667676154634564B
:1009A0004CD96DC90EF92FE9C899E9898AB9ABA963
:1009B0004458654806782768C018E1088238A3289B
:1009C0007DCB5CDB3FEB1EFBF98BD89BBBAB9ABBB3
:1009D000754A545A376A167AF10AD01AB32A923AEB
:1009E0002EFD0FED6CDD4DCDAABD8BADE89DC98D03
:1009F000267C076C645C454CA23C832CE01CC10C3B
:100A00001FEF3EFF5DCF7CDF9BAFBABFD98FF89F52
:100A1000176E367E554E745E932EB23ED10EF01E8A
:100A200080B483B000AF0346FB71084B97F90720F1
:100A30005209F97901F01F01012000FA01F143F890
:100A400022100C37BD465DF8047B704700E100E0E2
:100A500080B483B000AF0346FB71094B97F90720C0
:100A60005209F97901F01F01012000FA01F1203249
:100A700043F822100C37BD465DF8047B704700BF79
:100A800000E100E0B0B584B000AF0023FB733B464B
:100A9000184600F095FA0346002B00D0FEE7664AA0
:100AA000664B14461D460FCD0FC495E80F0007C4D2
:100AB00023806348604906F04FFC624B1A68614B23
:100AC000D3F8F8309A4211D05B4A5F4B14461D466A
:100AD0000FCD0FC40FCD0FC495E803002060043480
:100AE00021705748544906F037FCFEE7574B1A6807
:100AF000564B9B6C9A4210D04F4A554B14461D469C
:100B00000FCD0FC40FCD0FC495E8030084E8030098
:100B10004B48494906F020FCFEE74E4B1A684D4B06
:100B2000D3F854329A4211D0434A4B4B14461D46D7
:100B30000FCD0FC40FCD0FC495E80300206004341F
:100B400021703F483C4906F007FCFEE700F0C2F880
:100B50003E4B5B685A1C3D4B5A6058E00120FFF742
:100B600077FF1920FFF774FF3B46184600F0F2FBB1
:100B70000346FB7297F90B30002B11D02E4A374BEE
:100B800014461D460FCD0FC40FCD0FC495E80300CA
:100B90002060043421802A48274906F0DDFBFEE767
:100BA0002F4B1B88BB81274B0022A3F84A20254BE3
:100BB0000022A3F846200023FB7300F091F80120E7
:100BC000FFF72EFF1920FFF72BFF15E0244B1B88A2
:100BD0003B813A89BB89D31AFB803B89BB81FB8867
:100BE000184600F0A7F81F4B1A68FB8810461946F4
:100BF00000F074FE0346FB73FB7B002BE6D0012064
:100C0000FFF726FF1920FFF723FF00F05BFEFB7BB9
:100C1000022BA3D100F088F8074A134B14460FCBE0
:100C200007C423700648044906F096FB42F2107090
:100C300007F0E2FBFEE700BFF4050010CC00000067
:100C400000C0004000000010EC000000080100108F
:100C500014010000540100103C0100006401000078
:100C6000F0050010780600108C01000080B500AF80
:100C7000094B1B889BB201339AB2074B1A80074B72
:100C80001B68184600F094FE00F07EF8034B1B68CA
:100C9000184600F0BDFE80BDF0050010780600107B
:100CA00080B500AF074B084A07CA03C31A8007483C
:100CB000044906F051FB064B1B681B68184605F0FB
:100CC0006BFA80BDF40500109C01000000C00040DC
:100CD0007806001080B400AFBD465DF8047B704715
:100CE00080B582B002AF00F063FA03461A460B4BA0
:100CF00083F8C820094B002283F8C920084B1B68E1
:100D00005B680022009200220192184642F22011F4
:100D1000044A002303F0AAF8BD4680BD000000107D
:100D200078060010AD0D000080B400AFBD465DF840
:100D3000047B704780B483B000AF0346FB80114B47
:100D40001B689B681B6808331B78002B07D10D4B71
:100D50001B689B681B6809331B78002B0CD0094B60
:100D60001B68DB681B68074A1268D2681268127831
:100D700042F02002D2B21A700C37BD465DF8047BF7
:100D8000704700BF7806001080B500AF064B93F89F
:100D9000C830184600F0D4F900F03CFA03461A4671
:100DA000014B83F8C02080BD0000001080B489B0E2
:100DB00000AF78607B689B7D052B01D0002374E039
:100DC0007B68DB7D002B3ED04FF4A0637B617B68AA
:100DD0009B897B827B681B7E002B05D07B687A69B0
:100DE000DA61354B00221A600023FB8319E0FA8B8D
:100DF0007B8A9A4203D37B6800225A7616E07B688E
:100E00005A68FB8B13442C4A1268D2B20132D2B218
:100E10001A70FB8B0133FB83274B1B685A1C264B34
:100E20001A60254B1A687B699A42E0D3224B1A68F4
:100E30007B699A4205D17B6801225A767B68FA8BDE
:100E40009A81002331E000237B837B689B893B826E
:100E50007B681B7E002B02D0184B00221A600023F7
:100E6000BB8318E07B685A68BB8B13441B78FB7309
:100E7000124B1B68DBB20133DBB2FA7B9A4202D021
:100E80007B8B01337B83BB8B0133BB830B4B1B6899
:100E90005A1C0A4B1A60BA8B3B8A9A42E2D37B8B6C
:100EA000002B01D0064B00E0002318462437BD4636
:100EB0005DF8047B704700BF340600103806001050
:100EC0003000090680B483B000AF0346FB71084BC5
:100ED00097F907205209F97901F01F01012000FA62
:100EE00001F143F822100C37BD465DF8047B7047D2
:100EF00000E100E080B483B000AF03463960FB71CD
:100F000097F90730002B0BDA0D49FB7903F00F033B
:100F1000043B3A68D2B2D200D2B20B441A7609E04E
:100F2000084997F907303A68D2B2D200D2B20B44DE
:100F300083F800230C37BD465DF8047B704700BF83
:100F400000ED00E000E100E080B584B000AFF87192
:100F5000B9717A713B710023BB7200233B7300238C
:100F6000FB72BB797B72FB793B7207F10803184671
:100F700006F09CFBBB79012202FA03F31A46F979C9
:100F80007B79084611461A4606F09AFA3B79002BFF
:100F900009D0BB79012202FA03F3FA791046194607
:100FA00006F0A0FA08E0BB79012202FA03F3FA790D
:100FB0001046194606F0A4FA1037BD4680BD00BFA2
:100FC00080B58CB000AF78600120012107F0E8F90E
:100FD0007B68584A1A600123BB7300233B740023CB
:100FE000FB7302237B7300233B7307F10C0318464A
:100FF00006F05CFB03237B7307F10C03184606F035
:1010000055FB07F12803184607F04EF84FF4E1337B
:10101000BB6207F128034848194606F025FF4648F9
:10102000012107F0E3F807F120030020194606F03C
:1010300003FC07F120034FF0402000211A4606F080
:1010400017FC00233B7501237B750023BB7501232F
:10105000FB7500233B76022006F010F90246374B61
:10106000A3FB02139B09FB6107F114034FF040201F
:10107000194606F0B1FC4FF04020012106F090FC2B
:101080004FF40050012106F02BF94FF4804001216C
:1010900006F026F90223BB7300233B740023FB7385
:1010A00004237B7300233B7307F10C03184606F0FF
:1010B000FDFA05237B7307F10C03184606F0F6FAD8
:1010C0004FF40040012106F00BF904201D210122FC
:1010D0000023FFF739FF00201A2101220023FFF728
:1010E00033FF0020192101220023FFF72DFF0020EC
:1010F000182100220123FFF727FF002017210022DB
:101100000123FFF721FF01201F2100220123FFF708
:101110001BFF01200A21FFF7EDFE19200521FFF733
:10112000E9FE1920FFF7CEFE002318463037BD46F2
:1011300080BD00BF0080044000C00040D34D62105D
:1011400080B582B000AF0346FB71FB7903F0010369
:10115000002B05D004204FF0005106F0C3F904E045
:1011600004204FF0005106F0CBF9FB7903F00203A5
:10117000002B05D000204FF0806106F0B3F904E0A9
:1011800000204FF0806106F0BBF9FB7903F0040307
:10119000002B05D000204FF0007106F0A3F904E009
:1011A00000204FF0007106F0ABF90837BD4680BD56
:1011B00080B582B000AF0023FB71042006F0AEF9C9
:1011C00038603B6803F00053002B03D0FB7943F0F9
:1011D0000103FB71002006F0A1F938603B6803F0C1
:1011E0008063002B03D0FB7943F00203FB710020E6
:1011F00006F094F938603B6803F00073002B03D0CD
:10120000FB7943F00403FB71FB7918460837BD46B0
:1012100080BD00BF80B582B000AF0023FB7100200D
:1012200006F07CF938603B6803F08073002B03D034
:10123000FB7943F00103FB71002006F06FF9386081
:101240003B6803F40003002B03D0FB7943F0020357
:10125000FB71012006F062F938603B68002B03DA6D
:10126000FB7943F00403FB71FB7918460837BD4650
:1012700080BD00BF80B500AF4FF04020002106F0D8
:10128000C9FAFFF7F3FC80BD80B500AFFFF708FD9A
:1012900080BD00BF80B485B000AF78600023FB60E4
:1012A0007B685B681B78FB727B68DB7D002B0ED153
:1012B000FB7A002B02D1094BFB6008E0FB7A5BB2A2
:1012C000002B02DA064BFB6001E00023FB60FB68A9
:1012D00018461437BD465DF8047B70473200090696
:1012E0003100090680B584B000AF78600023FB6050
:1012F0007B685B68184602F0BFFB03467B817B6816
:10130000DB7D002B1ED17B897D2B1AD07D2B06DC4B
:10131000142B16D0322B14D00A2B12D00EE0B3F5BA
:10132000FA7F0ED0B3F5FA7F02DCFA2B09D005E084
:10133000B3F5487F05D0B3F57A7F02D0044BFB604C
:1013400000E000BFFB6818461037BD4680BD00BFF7
:10135000300009062DE9F04790B00AAF78608B4B5A
:101360008B4A1A60894B1B688A4A1A608A4B8B4ADF
:101370001A608B4B8B4A1A60844B1B688A4A5A60EE
:101380008A4B8B4A1A60814B1B688A4A9A607F4B52
:101390001B68894ADA607D4B1B68884A1A617B4B5F
:1013A0001B68874A5A610023FB8211E0774B19685A
:1013B000B7F91600B7F9162013469B0013441B011A
:1013C000804A1A44831D41F82320FB8A0133FB82A3
:1013D000B7F91630032BE9DD0023FB8210E06B4BDD
:1013E0001B68B7F91620B7F91610542000FB01F05E
:1013F000754901440A3243F82210FB8A0133FB820B
:10140000B7F91630032BEADD604B1B686F4A9A630D
:101410006F4B704A1A60704B93F810327B757B7D6E
:10142000002B03D07B7D5BB2002B01DA10237B7590
:10143000694BB3F812327B82544B1B681A68564BC7
:101440001B6857490968009108210191798A029126
:10145000104679681A460B2304F05CFB03467B7444
:1014600097F91130002B03D000F02CFA7B7C1CE2A2
:10147000464B1B6859687B7D9BB203F5C0639AB2EB
:101480007B7D9BB203F5B0639BB2484805683F483B
:10149000006804683D4800680068002600964F4ECA
:1014A00001963626029603957D7D049505940624C3
:1014B0000694079006200890084611461A464FF4F5
:1014C000905302F033FC03467B7497F91130002BE4
:1014D00003D000F0F7F97B7CE7E12C4B1B6899689F
:1014E0002A4B1B68DA68294B1B685B682748006831
:1014F0000468787D80B2803080B20A250095384D2E
:101500000195384D0295082503950494012405940E
:101510000690084611461A46334B00F01DFB034661
:101520007B7497F91130002B03D000F0CBF97B7C52
:10153000BBE1164B1B681969144B1B68DA68134B27
:101540001B681D68114B1B681C687B7D9BB203F5F3
:10155000E06398B27B7D00950025019500250295FA
:101560000394072404940590084611461A464FF444
:10157000FA7300F0B1FF03467B7497F91130002B2A
:1015800034D000F09FF97B7C8FE100BF780600101B
:101590003C0600108C0600107C060010B0060010FF
:1015A0008006001034070010A40700108406001005
:1015B00020080010A80A0010100B0010280B0010C3
:1015C000440B0010780B0010B80C0010080E00102F
:1015D00088060010200E001054010010980500002D
:1015E000040000100C000010340000109C4B1B681D
:1015F00058699B4B1B689968994B1B685A68984BB4
:101600001B681B69974CD4F808C0964CD4F80CE0C2
:10161000944C94F85860924C24682568904C246847
:101620002468CDF800C0CDF804E0029603950125AA
:10163000049505940024069404F0E6F803467B74B0
:1016400097F91130002B03D000F03CF97B7C2CE1A2
:101650000023FB8269E0824B1B681B68FB60FB8AEE
:1016600002339BB27B817E4B1B68B7F91620063292
:1016700053F822007A4B1B689E68794B1B685D68A3
:10168000774B1B681B691C46B7F91630032B06DC29
:10169000B7F9163002339BB21B029AB200E0002267
:1016A000B7F916100B465B000B449B0003F1680171
:1016B0006C4B0B4403F1040CB7F916100B46DB001E
:1016C0000B449B0003F19801664B0B4403F1040E9D
:1016D000FB8A03F5A0539BB299B2FB8A03F5B05382
:1016E0009BB29BB297F81580CDF800800192002242
:1016F0000292CDF80CC0CDF810E005910693FB687E
:1017000007937B89089331462A46234601F0A2FEBF
:1017100003467B7497F91130002B03D000F0D2F808
:101720007B7CC2E0FB8A0133FB82B7F91630032BC6
:1017300091DD0023FB826BE0494B1B68B7F9162053
:101740000A3253F82200464B1B689E68444B1B68C4
:101750005D68434B1B681B691C46B7F91630032BA9
:1017600007DCFB8A1B029BB203F5C0739BB29AB2E3
:1017700000E00022B7F916100B469B000B449B00BB
:1017800003F59471374B0B4403F10409B7F91610B4
:101790000B46DB000B449B0003F5BC71314B0B4443
:1017A00003F10408FB8A03F5C0539BB21FFA83FCC4
:1017B000FB8A03F5D0539BB21FFA83FE284B1B68AC
:1017C0001968FB8A02339BB29BB297F815A0CDF83B
:1017D00000A0019200220292CDF80C90CDF810806A
:1017E000CDF814C0CDF818E00791089331462A4689
:1017F000234601F085FE03467B7497F91130002BD8
:1018000003D000F05FF87B7C4FE0FB8A0133FB8262
:10181000B7F91630032B8FDD114B1B68996B104BFA
:101820001B689A680E4B1B685B680F4804680C487D
:10183000006800680094042401940290072003903B
:10184000084611461A46094B00F02AFD03467B74F0
:1018500097F91130002B0BD000F034F87B7C24E09A
:101860007806001054010010880600108401001052
:10187000114B1B685B6800220092002201921846FF
:1018800042F201110D4A002302F0F0FA0A4B1B68E4
:101890005B680022009200220192184642F2021177
:1018A000074A002302F0E2FA00235BB21846183719
:1018B000BD46BDE8F08700BF780600109512000015
:1018C000E512000080B500AF034B1B681B6818468B
:1018D00004F0B8F980BD00BF7806001090B587B05D
:1018E00002AF78600B467B800023FB730023BB7341
:1018F0007B681B691B787F2B04D07B681B691B7876
:10190000052B01D10123FB737B88DAB2244B1B78B2
:101910001344DAB2224B1A70214B1B78312B07D9B2
:101920001F4B00221A707B681B69184600F030FEBE
:101930007B685968FA7B7B88084611461A464FF443
:101940007A7302F021FE7B68D8687B881A46920081
:1019500013445B009AB2134B9B8DF97B00F082F924
:101960007B6818690F4BB3F840200E4BD3F80C324C
:101970000D490C79798800940C4C019400F0C0FE5C
:101980000346BB737B68996BFA7B7B8808461146DC
:101990001A4600F0CDFCBB7B18461437BD4690BDFF
:1019A000400E00105401001000000010AD010010A6
:1019B00080B584B000AF78607B685A69134B1B69AF
:1019C00010464FF47A711A4603F0C6FF03467B7344
:1019D0007B7B022B04D17B681B68184604F0C0FA9D
:1019E0000023FB810BE0B7F90E207B68063253F829
:1019F0002230184601F01CFFFB890133FB81B7F947
:101A00000E30032BEFDD1037BD4680BD54010010B2
:101A100090B585B000AF78600023FB812AE0B7F96C
:101A20000E207B680A3253F82230DB7E002B10D167
:101A3000B7F90E207B680A3253F82240B7F90E201E
:101A40007B680A3253F82230184601F0DBFD03466A
:101A5000E376B7F90E207B680A3253F822207B68C0
:101A60005B69104619460A22012301F015FFFB8924
:101A70000133FB81B7F90E30032BD0DD1437BD469F
:101A800090BD00BF80B487B000AF786000237B6159
:101A90007B681B683B617B685B681B78FB737B68BA
:101AA000DB7D002B17D03B695B7ABB737B689B7D2A
:101AB000002B04D17B685B68BA7B1A700AE07B68F4
:101AC0009B7DBA7B9A4202D20E4B7B6102E00023DF
:101AD0007B6110E00FE07B689B7D002B09D1FB7BD5
:101AE000002B03D13B6900225A7204E0064B7B6154
:101AF00001E0064B7B617B6918461C37BD465DF8EB
:101B0000047B70472400000830000906020001062B
:101B100080B586B000AF786000237B617B681B686E
:101B20003B617B685B68184601F0B8FFF8607B6832
:101B3000DB7D002B0AD07B685A683B691B7819460D
:101B4000FB680B441046194601F0C0FF7B6918463C
:101B50001837BD4680BD00BF80B588B002AFF860C1
:101B6000B9607A603B600023BB7597F82030052B85
:101B700001D8FF23BB75FB683A681A60FB6897F8C9
:101B800020201A71FB6803F15502FB689A65FB6817
:101B90005A1DFB68DA65FB685A1DFB681A66FB680C
:101BA000002283F86420FB68002283F86520BB686C
:101BB000FA68DA60BB687A6A1A60BB68BA6A5A6007
:101BC000BB6897F82C201A72BB6800225A72BB6857
:101BD00000225A810023FB7508E0FB681A68FB7D30
:101BE000134400221A70FB7D0133FB75FA7D97F8D0
:101BF00020309A42F1D300230093002301937868A8
:101C000041F20301154ABB6802F030F97B685C338E
:101C10000022009200220192786841F21401104AD9
:101C200002F024F9BB683A6B1A61BB681B69FA6859
:101C30001A62BA8E3B8F0821009100210191386B06
:101C400011461A46002304F07BF80246BB685A612D
:101C5000BB7D5BB218461837BD4680BD851A0000B3
:101C6000111B000080B588B000AFF860F9723A81AE
:101C7000FB80FB68DB68BB61FB681B69184604F0EE
:101C8000F1F9BB6993F86530002B0CD0BB6993F870
:101C90006530B86928214FF4C24200F0D3F8BB691F
:101CA000002283F865200023FB77BB691B6805339E
:101CB0001B78002B03D0FB7F43F00103FB77BB694C
:101CC0001B6802331B78002B05D1BB691B680333EB
:101CD0001B78002B03D0FB7F43F01003FB77FB68DE
:101CE0001B68FA681268127822F01102D1B2FA7FEA
:101CF0000A43D2B21A70FB685B89FA889A4206D905
:101D0000FB685A893B8913449AB2FB685A81FB7A73
:101D1000002B00F09280FB685B691B7BDBB2002B21
:101D200040F08B80FB685B89FA889A4200F28580DC
:101D3000BB691A6EBB69DB6D9A4204D1BB6993F82B
:101D40006430002B79D0BB691B6E0233FA681268CD
:101D500012781A70FB685B691A1DBB691B6E10460E
:101D60001946082201F06AFEBB691B6E07F11402D6
:101D700010461946042201F061FEBB691B6E03F197
:101D80000802BB691A66BB691A6EBB699B6D9A42F1
:101D900003D1BB695A1DBB691A66FB6800225A81D0
:101DA000BB6993F86430022B0BD1BB69002283F826
:101DB0006420B86920214FF48052002300F042F8DB
:101DC00003E0BB69002283F86420FB685B68002B9A
:101DD0002BD0FB685A7AFB681B7A9A4205D2FB68C3
:101DE0005B7A0133DAB2FB685A72FB685B7ADBB26A
:101DF000013BDBB2BB7711E0FB685A68BB7F9B00FD
:101E00001A44FB685968BB7F03F18043013B9B0088
:101E10000B441B681360BB7F013BBB77BB7F002B70
:101E2000EAD1FB685B687A691A60FB681A69FB682B
:101E30005B691046194603F0C3FF00BF2037BD465B
:101E400080BD00BF80B58AB000AFF8607B600B46F4
:101E5000FB7213463B81FB7ADB0887F82230FB7A62
:101E600003F00703012202FA03F387F8213000236D
:101E70007B62012387F82330FB68002B03D100230A
:101E800087F823301EE0FB681B7997F822209A42DE
:101E900007D3FB68FA7A83F86520002387F823309C
:101EA00010E0FB681A6897F8223013447B627B6A63
:101EB0001A7897F821301340DBB2002B02D00023B0
:101EC00087F8233097F82330002B51D0FB7A002B72
:101ED00007D07B6A1A7897F821301343DAB27B6A0D
:101EE0001A70FB6893F86430002B04D0FB68022260
:101EF00083F864203CE007F1140207F10803104660
:101F0000194601F0FFFD0023BB75FB7AFB7507F155
:101F100014031A1D3B1D1046194601F007FE04F07C
:101F2000E5FAF861FB68DA6D07F11403104619460B
:101F3000082201F083FDFB68DB6D03F10802FB68FA
:101F4000DA65FB68DA6DFB689B6D9A4203D1FB682A
:101F50005A1DFB68DA65FB68DA6DFB681B6E9A42F6
:101F600003D1FB68012283F86420F86904F0CEFAFB
:101F70002837BD4680BD00BF80B58AB000AFF8608D
:101F80000B467A60FB72FB7ADB0887F82230FB7A1B
:101F900003F00703012202FA03F387F8213000233C
:101FA0007B62012387F82330FB68002B03D10023D9
:101FB00087F823301EE0FB681B7997F822209A42AD
:101FC00007D3FB68FA7A83F86520002387F823306B
:101FD00010E0FB681A6897F8223013447B627B6A32
:101FE0001A7897F821301340DBB2002B02D100237E
:101FF00087F8233097F82330002B4ED07B6A1B786C
:10200000DAB297F82130DB43DBB21340DBB2DAB24D
:102010007B6A1A70FB6893F86430002B04D0FB686D
:10202000022283F8642038E000233B7500237B758F
:102030000023BB75FB7AFB7507F114031A1D3B1DCA
:102040001046194601F072FD04F050FAF861FB6881
:10205000DA6D07F1140310461946082201F0EEFC70
:10206000FB68DB6D03F10802FB68DA65FB68DA6D7B
:10207000FB689B6D9A4203D1FB685A1DFB68DA65C9
:10208000FB68DA6DFB681B6E9A4203D1FB68012284
:1020900083F86420F86904F039FA2837BD4680BD1A
:1020A00080B485B000AF78600B46FB70FB78DB082E
:1020B000BB73FB7803F00703012202FA03F37B737F
:1020C0000023FB737B681B79BA7B9A420BD27B6837
:1020D0001A68BB7B13441A787B7B1340DBB2002B5E
:1020E00001D00123FB73FB7B18461437BD465DF816
:1020F000047B704780B485B000AF786039607B683E
:10210000FB603B681B78012B0AD1FB689B79002B95
:1021100006D13B685A78FB681A70FB6801229A71F5
:102120001437BD465DF8047B704700BF90B58BB097
:1021300004AFF8600B467A60FB72FB681B7BFA7A8F
:102140009A4200D33FE07B681B0C9BB2DBB2BB82A0
:10215000FB689A68FB7ADB0013443B617B689AB2A8
:102160003B699A803B6900221A703B6900225A70D1
:10217000BB8A002B08D03B699B88002B04D0BB8A0C
:1021800003F5E063FB8204E00023FB823B6900224D
:102190009A80FB681969FB689A8AFB7A9BB21344A0
:1021A0009AB2FB689868FB7ADB001844FB8A00242B
:1021B0000094019005480290084611461A4640F2E4
:1021C000FF7303F053FD1C37BD4690BDF5200000A2
:1021D00080B58AB000AF786000237B627B681B68A3
:1021E000FB617B685B68184601F058FCB8617B684E
:1021F000DB7D002B4DD1BB691B0CFB75BB69BB8222
:10220000BB69DB0DDB05002B02D0244B7B6234E085
:10221000BB8A002B2FD0FB7D002B2CD0002387F80E
:10222000233021E0FB695A6897F823309B00134460
:102230001B683B613B691B0CFB733B69BB817B6883
:102240009B7D5A1E97F823309A4208D0BB89002BF9
:1022500005D0FA7DFB7B9A4201D1104B7B6297F847
:102260002330013387F82330FB691B7B97F8232049
:102270009A42D7D301E000237B627B6A002B08D10E
:102280007B689B7D013BDBB2F8691946BA69FFF7B1
:102290004DFF7B6A18462837BD4680BD43000406C3
:1022A00080B588B002AFF860B9607A603B60FB68C7
:1022B000BA681A60FB683A685A60FB683A6A9A60C2
:1022C000FB6897F824201A73FB6800225A73FB6896
:1022D000BA6A1A61FB68BA8D9A820023FB750EE018
:1022E000FB685A68FB7D9B0013441B68FA7DF86805
:1022F00011461A46FFF71AFFFB7D0133FB75FB6899
:102300001B7BFA7D9A42EBD30023009300230193B9
:10231000786841F21601054AFB6801F0A7FD002329
:102320001BB218461837BD4680BD00BFD121000042
:1023300080B584B000AF786013460A46FA703B80DF
:102340000523BB737B689B68BB60FB78002B5CD06C
:102350000023FB7353E0BB689B88002B49D0BB680C
:102360009B79002B0ED0BB681B78002B07D0BB6875
:1023700001225A70BB6800225A8000233B80BB6850
:1023800000229A71BB685A88BB689B889A4206D221
:10239000BB685A883B8813449AB2BB685A80BB68B2
:1023A0005B78002B1FD0BB685A88BB689B889A4219
:1023B0000CD37B681A68FB7B10461B2148F2301255
:1023C000FFF740FDBB6800221A700CE0BB681B7869
:1023D000002B08D17B681A68FB7B10461C2148F251
:1023E0003012FFF72FFDBB681B78052B01D00023AF
:1023F000BB73BB680833BB60FB7B0133FB737B683B
:102400001B7BFA7B9A42A6D318E00023FB730EE0F5
:10241000BB6800221A70BB6800229A71BB68002258
:102420005A70BB680833BB60FB7B0133FB737B686E
:102430001B7BFA7B9A42EBD30023BB737B68BA7B8E
:102440005A731037BD4680BD80B485B000AF786048
:1024500039607B68FB603B689B78FB723B681B784C
:10246000022B34D1FB7A002B04D0FB689B7AFA7ADA
:102470009A422CD13B685B78BB72BB7A802B1AD016
:10248000802B04DC012B07D0022B10D01FE0812B06
:1024900015D0822B17D01AE0FB681B691B681B78CC
:1024A000002B03D1FB6805221A7010E00FE0FB68D7
:1024B00004221A700BE0FB687F221A7007E0FB68A9
:1024C00002225A7203E0FB6801225A7200BF1437DD
:1024D000BD465DF8047B704780B588B004AFF860F6
:1024E000B960FA71BB80FB6800225A70FB68002259
:1024F0009A70FB680022DA70FB6800221A71FB6890
:1025000000225A71FB6800229A71FB6800221A703F
:10251000FB68FF22DA71FB6801221A72FB68FA7904
:102520009A72FB68BA88DA81FB6800225A72FB68EB
:102530004FF6FF729A81FB68BA681A61BA8B3B8CBE
:1025400000210091F968019110490291B869114682
:102550001A4640F2FF7303F089FBFB687A6A5A61FE
:102560003A8DBB8D0121009100210191786A1146BD
:102570001A46002303F0E4FB0246FB689A6100233D
:102580001BB218461037BD4680BD00BF492400006D
:1025900080B483B000AF78607B685B780133DAB2D7
:1025A0007B685A707B685B785BB2002B02DD7B68CE
:1025B000FF225A707B689B780133DAB27B689A708D
:1025C0007B689B785BB2032B02DD7B68FC229A70F0
:1025D0007B68DB780133DAB27B68DA707B68DB78A2
:1025E0005BB2032B02DD7B68EC22DA707B681B791F
:1025F0000133DAB27B681A717B681B795BB2042BFA
:1026000005D0682B0BD013F1640F04D00BE07B686E
:1026100098221A7107E07B6864221A7103E07B68D4
:10262000EC221A7100BF7B685B790133DAB27B68F8
:102630005A717B685B795BB2042B0DD0042B06DCEE
:1026400013F16E0F14D013F1640F09D018E0682B4A
:102650000AD0722B10D013E07B6898225A710FE0D9
:102660007B6864225A710BE07B688E225A7107E006
:102670007B686E225A7103E07B68EC225A7100BFBE
:102680007B689B790133DAB27B689A717B689B79AE
:102690005BB2042B12D0042B09DC13F16E0F19D09E
:1026A00013F1640F0ED013F1780F1BD022E0722BC0
:1026B00014D07C2B1AD0682B08D01BE07B689822A2
:1026C0009A7117E07B6864229A7113E07B688E220E
:1026D0009A710FE07B686E229A710BE07B6884220E
:1026E0009A7107E07B6878229A7103E07B68EC229C
:1026F0009A7100BF0C37BD465DF8047B704700BF80
:1027000080B586B000AFF8607B600B467B811346D6
:102710003B81FB689A897B8913449AB2FB689A8152
:102720003B89002B04D0FB689B893A899A4203D9E4
:10273000FB681B78002B2FD1FB689A893B89D31A41
:102740009AB2FB689A81FB689B69FA6812781A71E1
:10275000FB685A69FB689B691046194603F030FB19
:10276000FB681B78002B17D1FB68DB893A899A42FA
:1027700006D9FB68DB893A89D31A9AB2FB689A8139
:102780007B6803F00403002B03D1FB6805221A7059
:1027900002E0FB687F221A700023FB75FB681B694F
:1027A000DB6818460721FFF77BFC0346002B09D1A5
:1027B000FB681B69DB6818460621FFF771FC0346BE
:1027C000002B01D00123FB75FB681B78052B0DD076
:1027D0007F2B06D0042B0DD1FB68DA78FB68DA7109
:1027E00008E0FB689A78FB68DA7103E0FB68012275
:1027F000DA7100BFFB681B69DB6818461221FFF71E
:102800004FFC0346002B03D0FB6801221A724BE0F9
:10281000FB681B69DB6818461821FFF741FC03467B
:10282000002B04D0FB685A79FB681A723CE0FB6805
:102830001B69DB6818461B21FFF732FC0346002B9F
:1028400009D1FB681B69DB6818461C21FFF728FCCF
:102850000346002B04D0FB681A79FB681A7223E048
:10286000FB7D002B09D1FB681B69DB681846012141
:10287000FFF716FC0346002B04D0FB68DA78FB68F0
:102880001A7211E097F82030002B0AD0FB689B7871
:102890005BB2002B01DBFF2300E00123FA68137217
:1028A00002E0FB68FF221A727B6A002B00F0A9800D
:1028B000FB681B78052B40F0A4807B6A9B78BB7576
:1028C000FB7D002B0BD0BB7D002B02D0BB7D022BF0
:1028D00005D197F8203043F0100387F8203097F89F
:1028E0002030002B00F08D8097F8203003F010038B
:1028F000002B3ED07B6A5B78BB75BB7D002B03D180
:10290000FB687F221A7034E0BB7D022B03D1FB6889
:1029100004221A702DE0FB681B69DB68184612213F
:10292000FFF7BEFB0346002B13D1FB681B69DB6876
:1029300018461B21FFF7B4FB0346002B09D1FB68A7
:102940001B69DB6818461C21FFF7AAFB0346002B16
:102950000FD07B6A1B78BB75BB7D002B03D1FB6856
:102960007F221A7005E0BB7D022B02D1FB68042296
:102970001A7097F8203003F00103002B0FD07B6A08
:10298000DB78BB75BB7D002B03D1FB687F221A70FF
:1029900005E0BB7D022B02D1FB6804221A7097F878
:1029A000203003F02003002B0FD07B6A1B79BB750E
:1029B000BB7D002B03D1FB687F221A7005E0BB7D35
:1029C000022B02D1FB6804221A7097F820305BB208
:1029D000002B0FDA7B6A5B79BB75BB7D002B03D1C3
:1029E000FB687F221A7005E0BB7D022B02D1FB68D9
:1029F00004221A70FB681B78052B02D0FB683A8909
:102A00009A81FB685B7A18461837BD4680BD00BFC7
:102A100080B485B000AF786039607B68FB60FB688C
:102A20005B7E002B39D0FB681B691B78052B34D1EA
:102A30003B681A78FB689B7E9A422ED3FB689B8F7B
:102A4000002B2AD13B685A78FB6883F83E203B680C
:102A50009A78FB6883F83F203B68DA78FB6883F854
:102A600040203B681A79FB6883F841203B685A791B
:102A7000FB6883F842203B689A79FB6883F843201F
:102A80003B68DA79FB6883F844203B681A7AFB6874
:102A900083F84520FB6801229A871437BD465DF80C
:102AA000047B704780B588B004AF786039603B68BC
:102AB000FB813A68214B1340002B15D17B689B7E2C
:102AC000002B11D0FB89002B0ED07B68DB8AFA89A2
:102AD0009A4205D17B681B7D1A46FB891344FB8112
:102AE0007B6801225A7607E00023FB817B68002285
:102AF0005A767B6800229A877B68996C7B68B3F86A
:102B00004C20FB8900200090786801900C480290CE
:102B1000084611461A4640F2FF7303F0A7F8034631
:102B20007B7397F90D30002B05D07B6800225A7615
:102B30007B6800229A871037BD4680BD00F8FFBF32
:102B4000112A000080B588B002AFF860B960134662
:102B5000FB71BB689BB2FB82BA68214B1340002B10
:102B600019D1FB689B7E002B15D0FB8A9BB2002BF2
:102B700011D0FB68DA8AFB8A9BB29A4207D1FB68C4
:102B80001B7D1A46FB8A9BB213449BB2FB82FB68F7
:102B900001225A7604E00023FB82FB6800225A7669
:102BA000FB68996CFB68B3F85020FB8A9BB2F8680D
:102BB000807E0090F8790190084611461A4600235D
:102BC00003F0BEF80246FB68DA64FB68DB6C002B9E
:102BD00002D1FB6800225A761837BD4680BD00BF7F
:102BE00000F8FFBF80B588B000AFF860B9603B6007
:102BF0001346FB71BB681B0C7B83BB681B0A7B768F
:102C0000BB683B763B7E03F00703002B01D0664B8D
:102C1000C6E03B7EDB083B76BB6A1A783B7E1344FA
:102C2000DAB2BB6A1A70BB6A1B78082B01D95F4BFA
:102C3000B6E07B8B072B2DD87B7E002B2AD104237B
:102C4000FB777B8B012B02D80023FB7710E07B8B7B
:102C5000022B02D07B8B052B02D10123FB7707E0EF
:102C60007B8B032B02D07B8B062B01D10223FB77BE
:102C7000FA7F3B7E9A4201D24B4B91E0FB79002BCD
:102C800003D13B684A4A1A6002E03B68494A1A602D
:102C9000002385E07B8BF868194601F03BF9034679
:102CA000FB82FA8A4FF6FF739A420BD0FB68D96A0F
:102CB000FA8A13465B0013449B000B449B787A7E90
:102CC0009A4201D93C4B6BE0FA8A7B7EF868114648
:102CD0001A4601F0C3F903467B75FB79002B0BD133
:102CE0007B7D03F01003002B04D07B7D03F00803F1
:102CF000002B01D12C4B53E0FB79002B0BD07B7DBB
:102D000003F02003002B04D07B7D03F00403002B91
:102D100001D1254B44E0FA8A7B7EF86811461A46B9
:102D200001F04EF903463B753A7D3B7E9A4201D253
:102D30001D4B35E07B7DDB09DBB21A463B6B1A701D
:102D4000FA8A7B7EF86811461A4601F0C9F90246F4
:102D50003B681A607B7D03F04003002B1FD0BB6AE9
:102D60001B781A463B7E9BB2D31A9BB2BB8310E002
:102D7000FB6A1B78DAB2B7F91C30012101FA03F3C0
:102D8000DBB21343DBB2DAB2FB6A1A70BB8B0133DE
:102D9000BB83B7F91C20BB6A1B789A42E8DB00238F
:102DA00018462037BD4680BD410004064200040697
:102DB000440E0010480E00100000020680B58EB0D0
:102DC00004AF78600B46FB700023FB7400233B626A
:102DD0007B68DB680433FB61FB78FB8443E0002302
:102DE000FB72FB7C7B76FB691B687B61FB690433B0
:102DF000FB617B685A6807F10C0307F1130100912E
:102E000007F10B01019107F10A010291104679695E
:102E10000022FFF7E7FE38623B6A002B0BD000234D
:102E2000FB747B681B6818461A214FF402427B69C9
:102E3000FFF708F81BE07B7E7B830CE0B7F91A30C4
:102E4000FA68511CF960796806339B000B445A609C
:102E50007B8B01337B83B7F91A20FB7C9A42EDDB35
:102E6000FB8C013BFB84B7F92630002BB7DCFA7CE6
:102E70007B689A763B6A18462837BD4680BD00BFFE
:102E800080B58EB004AF78600B46FB700023FB74F6
:102E900000233B627B68DB680433FB617B680022B4
:102EA00083F83C20FB78FB8442E0FB7C7B76FB696B
:102EB0001B687B61FB690433FB617B685A687B6834
:102EC00003F13C0107F10C0307F11300009001919D
:102ED00007F10B010291104679690122FFF782FE8A
:102EE00038623B6A002B0BD00023FB747B681B68A5
:102EF00018461A214FF402427B69FEF7A3FF1BE03C
:102F00007B7E7B830CE0B7F91A30FA68511CF960BC
:102F1000796806339B000B445A607B8B01337B83BB
:102F2000B7F91A20FB7C9A42EDDBFB8C013BFB845A
:102F3000B7F92630002BB8DCFA7C7B689A763B6ABE
:102F400018462837BD4680BD80B586B000AF786092
:102F50007B681B687B617B68DB7D002B24D07B68F2
:102F60009B7D012B1ED17B685B683B613B691B68C5
:102F70009AB27B69DB8A9A420AD17B69DB8A002B91
:102F800006D03B691A687B691B7D1A443B691A604D
:102F90007B695B7E002B05D13B691B6843F00042D7
:102FA0003B691A60002364E07B691B7E03F0040325
:102FB000002B01D0314B5CE07B691B691B78052B32
:102FC00007D17B691B7E03F00103002B01D02C4B42
:102FD0004FE07B689B7D012B39D17B685B68FB6090
:102FE000FB681A68274B1340002B01D0264B40E0AA
:102FF000FB681B689AB27B69DB8A19467B691B7D7B
:103000000B449A420CD1FB681B6803F04042FB68FA
:103010001A60FB681A687B69DB8A1A44FB681A60CD
:103020007B695B7E002B0BD0FB681A687B699B6811
:103030005B68534023F04043002B01D0124B18E053
:10304000FB681B6878691946FFF72CFD10E07B6868
:103050009B7D022B0CD17B685B68BB60BB681B78D7
:10306000F02B05D9BB681B78FD2B01D8064B00E07F
:10307000002318461837BD4680BD00BF0200010678
:10308000220000080080FF3F3000090680B588B0AC
:1030900000AF78607B681B68FB617B689B7D042BBD
:1030A00001D16D4BD4E07B68DB7D002B24D07B68A5
:1030B0009B7D012B1ED17B685B68BB61BB691B6874
:1030C0009AB2FB69DB8A9A420AD1FB69DB8A002B40
:1030D00006D0BB691A68FB691B7D1A44BB691A607C
:1030E000FB695B7E002B05D1BB691B6843F0004286
:1030F000BB691A600023ABE0FB691B7E03F004038D
:10310000002B01D0554BA3E0FB691B691B78052BF5
:1031100007D1FB691B7E03F00103002B01D0504B4C
:1031200096E07B689B7D012B42D17B685B687B616D
:103130007B691A684B4B1340002B01D04A4B87E048
:103140007B691B689AB2FB69DB8A1946FB691B7DA8
:103150000B449A420CD17B691B6803F040427B69A7
:103160001A607B691A68FB69DB8A1A447B691A60FA
:10317000FB695B7E002B0BD07B691A68FB699B683F
:103180005B68534023F04043002B01D0364B5FE097
:103190007B691A68FB69DB6C5B7BDBB2F869114603
:1031A0001A46FFF7CFFCFB69FF2283F83D204EE073
:1031B0007B689B7D022B1BD17B685B683B613B6915
:1031C0001B78F02B05D93B691B78FD2B01D8264BCA
:1031D0003EE0FB69DB6C3A691278F02A8CBF002272
:1031E0000122D2B25A73FB69FF2283F83D202EE000
:1031F0007B689B7D032B0AD1FB695B7E002B01D092
:10320000194B25E0FB690022A3F844201FE07B68EE
:103210009B7D052B08D17B685B68FB60FB681A8887
:10322000FB69A3F8462012E07B689B7D062B0ED13C
:103230007B685B68BB60FB695B7E002B01D00A4B3F
:1032400006E0BB681B78F02B01D9074B00E0002398
:1032500018462037BD4680BD110009060200010650
:10326000220000080080FF3F3000090680B58CB0C6
:1032700004AF78607B681B68FB617B68DB7D002B9B
:103280000FD07B685B68BB617B689B7D002B06D1A0
:10329000FB699B7E002B02D1BB6900221A700023C0
:1032A00051E0FB691B7E03F00803002B01D0284B83
:1032B00049E0FB691B691B78052B07D1FB691B7E65
:1032C00003F00203002B01D0224B3CE0FB695B7E44
:1032D000002B01D0204B36E07B689B7D002B10D16A
:1032E0007B685B687B617B691B78082B01D91B4B72
:1032F00029E07B691B78F8691946FFF75FFD0346F3
:1033000021E07B685B683B610023FB720023BB729A
:10331000FB699B7E002B01D00F4B14E0FB695968C1
:103320003B691A6807F10C0307F10B00009007F1E5
:103330000A00019007F10900029008461146002298
:10334000FFF750FC034618462037BD4680BD00BF3E
:1033500002000106220000083000090631000906BB
:1033600080B58CB004AF78607B681B68FB617B68BC
:10337000DB7D002B0FD07B685B68BB617B689B7D2E
:10338000002B06D1FB699B7E002B02D1BB6900227A
:103390001A70002351E0FB691B7E03F00803002B29
:1033A00001D0284B49E0FB691B691B78052B07D12D
:1033B000FB691B7E03F00203002B01D0224B3CE093
:1033C000FB695B7E002B01D0204B36E07B689B7D48
:1033D000002B10D17B685B687B617B691B78082BB5
:1033E00001D91B4B29E07B691B78F8691946FFF767
:1033F00047FD034621E07B685B683B610023FB726D
:103400000023BB72FB699B7E002B01D00F4B14E0A5
:10341000FB6959683B691A6807F10C0307F10B0057
:10342000009007F10A00019007F109000290084698
:1034300011460122FFF7D6FB034618462037BD464A
:1034400080BD00BF0200010622000008300009060E
:103450003100090680B586B002AFF860B9607A60C5
:103460003B60FB68BA681A60FB687A685A60FB6860
:103470007A6A9A60FB68BA6ADA60FB683A681A612D
:10348000FB683A7E1A75FB68BA8BDA82FB6897F89C
:1034900020201A76BB8D00220092002201927868CB
:1034A0001946154AFB6800F0E1FC3B8E00220092B1
:1034B0000022019278681946104AFB6800F0D6FC99
:1034C000FB6800229A87FB687A6B9A64FB683A8FE4
:1034D000A3F84C20BB6A1B78F8681946FFF76EFC0E
:1034E0007B6A5B68F8681946FFF7DCFA00231BB2B9
:1034F00018461037BD4680BD492F00006D320000D0
:1035000080B588B002AFF860B9607A603B60FB6854
:10351000BA681A60FB687A685A60FB68FA6A9A604F
:10352000FB683A6BDA60FB683A681A61FB6897F8E7
:1035300020201A75FB68BA8CDA82FB6897F828207D
:103540001A76BB8E002200920022019278681946FA
:103550002A4AFB6800F08AFC3B8F0022009200227E
:10356000019278681946264AFB6800F07FFCFB68E8
:10357000FA6B9A64FB68B7F84020A3F85020FB6808
:10358000FF2283F83D20FB6800221A64FB680022BA
:10359000A3F84420FB6ADA89FB68A3F84620FB6A9B
:1035A0001B7AFB75FB7DFD2B02D9FB680122DA76C5
:1035B0003B6B1B78F8681946FFF762FCFB6A5A6898
:1035C000FB7DF02B8CBF00230123DBB2F868114692
:1035D0001A46FFF7B7FAFB7DF02B02D9FB7DFD2BD6
:1035E00003D9FB6A1B7CF02B02D9FB6800225A76B8
:1035F00000231BB218461837BD4680BD8D30000031
:103600006133000080B485B000AF78607B68DA6C0D
:103610007B689B7E13440433FB607B689B7E063390
:103620009B007A6813440433BB607B689B7E013B3C
:10363000072B00F2C38001A252F823F0913700005B
:1036400065370000393700000D370000E136000013
:10365000B5360000893600005D360000FB68013B8E
:10366000FB60FB681A78BB68043BBB60BB681B68E7
:103670001B789A4208D07B6893F83C30DBB25BB28F
:10368000002B01DA01239AE0FB68013BFB60FB6839
:103690001A78BB68043BBB60BB681B681B789A4206
:1036A00008D07B6893F83C3003F04003002B01D036
:1036B000012384E0FB68013BFB60FB681A78BB6870
:1036C000043BBB60BB681B681B789A4208D07B68D0
:1036D00093F83C3003F02003002B01D001236EE06F
:1036E000FB68013BFB60FB681A78BB68043BBB606E
:1036F000BB681B681B789A4208D07B6893F83C3003
:1037000003F01003002B01D0012358E0FB68013BBC
:10371000FB60FB681A78BB68043BBB60BB681B6836
:103720001B789A4208D07B6893F83C3003F008037A
:10373000002B01D0012342E0FB68013BFB60FB68EA
:103740001A78BB68043BBB60BB681B681B789A4255
:1037500008D07B6893F83C3003F00403002B01D0C1
:1037600001232CE0FB68013BFB60FB681A78BB6817
:10377000043BBB60BB681B681B789A4208D07B681F
:1037800093F83C3003F00203002B01D0012316E034
:10379000FB68013BFB60FB681A78BB68043BBB60BD
:1037A000BB681B681B789A4208D07B6893F83C3052
:1037B00003F00103002B01D0012300E00023184691
:1037C0001437BD465DF8047B704700BF80B586B0F6
:1037D00000AF78607B68DB6C04333B617B681C3333
:1037E000FB607B689B7EFB820BE03B695A1C3A6165
:1037F000FA68111DF960126812781A70FB8A013B91
:10380000FB82B7F91630002BEFDC7B680022DA76FA
:103810007B689A6C7B68DB6C1046194602F0D0FA24
:1038200003469BB21BB218461837BD4680BD00BF89
:1038300080B487B000AF78607B689B8F002B22D06C
:103840007B685B7E002B1ED07B681B691B78052B79
:1038500019D17B683E333B617B681C33FB607B681E
:103860009B7EFB820BE0FB681A1DFA601A683B69BD
:10387000591C39611B781370FB8A013BFB82B7F935
:103880001630002BEFDC7B6800229A871C37BD4680
:103890005DF8047B704700BF80B586B000AFF8606C
:1038A000B960FA80BB80FB689B681B7AFB75FB687C
:1038B0005B7E002B00F08C80FB681B691B78052B5E
:1038C00040F08680FB7DFC2B25D9FB68B3F84430A3
:1038D000002B7CD1FB68DB7E002B09D1FB689B6849
:1038E000DB89002B73D0FB68B3F84630002B6ED118
:1038F000F868FFF76BFF0346002B68D1FB689B68F5
:103900005A89FB68A3F84420FB689B68DA89FB6846
:10391000A3F8462066E0BB68002B58D0BB689B7DAF
:10392000002B54D0BB685B7D002B50D0BB689A69DC
:10393000FB681B6C9A424AD2FB7D002B07D1FB68C7
:10394000DB7E002B43D0F868FFF740FF4AE0FB68BE
:1039500093F83D30FF2B11D1BB681B7D002B09D0A4
:10396000FB689B681B7C002B04D0FB68FE2283F85D
:103970003D2003E0FB68FA7D83F83D20FB6893F867
:103980003D30FE2B0ED1BB68DA7DFB689B681B7C4B
:103990009A421CD1FB68FA7D83F83D20F868FFF756
:1039A00015FF1FE0FB6893F83D30013BDAB2FB687E
:1039B00083F83D20FB6893F83D30002B07D1FB686E
:1039C000FA7D83F83D20F868FFF700FF0AE009E080
:1039D000FB7DFD2B03D9FB680122DA7602E0FB6850
:1039E0000022DA76FB68B3F844303B61FB883A6921
:1039F000D31A3B613B69002B02DD3B699BB200E0BF
:103A00000023FA68A2F84430FB68B3F846303B6103
:103A1000BB883A69D31A3B613B69002B02DD3B69E5
:103A20009BB200E00023FA68A2F84630BB689A69AE
:103A3000FB681A641837BD4680BD00BF80B487B0EC
:103A400000AFF860B9601346FB800023FB820AE0F8
:103A5000FB8AFA681344FA8AB9680A4412781A7021
:103A6000FB8A0133FB82FA8AFB889A42F0D31C3727
:103A7000BD465DF8047B704780B485B000AF7860C8
:103A80007B681B783B727B685B787B723B8918464E
:103A90001437BD465DF8047B704700BF80B485B025
:103AA00000AF78607B681B783B727B685B787B72C9
:103AB0007B689B78BB727B68DB78FB72BB681846BF
:103AC0001437BD465DF8047B704700BF80B485B0F5
:103AD00000AF786039603B68BB603A7A7B681A70E7
:103AE0007B6801337A7A1A707B680233BA7A1A706B
:103AF0007B680333FA7A1A701437BD465DF8047B8D
:103B0000704700BF80B483B000AF786039603B6815
:103B10001A787B681A707B6801333A6852781A7099
:103B20000C37BD465DF8047B704700BF80B483B09E
:103B300000AF786039603B681A787B681A707B68E0
:103B400001333A6852781A707B6802333A68927887
:103B50001A707B6803333A68D2781A700C37BD4606
:103B60005DF8047B704700BF80B586B000AF786019
:103B700039607B683B613B681B78082B40F0AA806A
:103B80003B6993F86830002B40F0A4803B6993F8C0
:103B90005D30152B24D03B685A783B691A703B681E
:103BA0009A783B695A703B68DA783B699A703B684F
:103BB0001A793B69DA703B685A793B691A713B683C
:103BC0009A793B695A713B68DA793B699A713B682B
:103BD0001A7A3B69DA713B69012283F868206AE04E
:103BE0003B685A783B691A703B691B7803F07F0386
:103BF000FB733B690022A3F86020FA7B3B6993F8D2
:103C00005E3001339A4243D13B6993F85E30013311
:103C1000DAB23B6983F85E200123FB751DE03B6946
:103C20001A6C3B691B8F591C88B239690887134489
:103C3000FA7D39680A4452781A703B691B8F1F2B32
:103C400008D93B69162283F85D203B69012283F87D
:103C5000682005E0FB7D0133FB75FB7D072BDED97A
:103C60003B691B78DBB25BB2002B07DB3B6993F847
:103C70005E203B6993F862309A4208D33B69162272
:103C800083F85D203B69012283F8682013E012E08D
:103C90003B6993F85E30FA7B9A420CD03B6993F80B
:103CA0005E30002B07D03B69162283F85D203B690C
:103CB000012283F868203B6993F86830002B09D013
:103CC0003B69DB6E002B05D03B69DB6E3A69126FF6
:103CD000104698471837BD4680BD00BF80B586B0F6
:103CE00000AF786000237B617B681B683B617B6869
:103CF0005B681846FFF7D2FEF8607B68DB7D002B1F
:103D00000ED07B689B7D002B0AD07B685A683B698C
:103D10001B781946FB680B4410461946FFF7D6FE80
:103D20007B6918461837BD4680BD00BF80B58AB094
:103D300004AFF86079813A81FB803B6A002B35D172
:103D4000FB68012283F82820FB687A6ADA62FB6844
:103D50003A8D1A86FB68FA6A5A630023FB8220E0D8
:103D6000FB68596BFA8A13465B0013449B000B44B3
:103D700000221A60FB68596BFA8A13465B001344F1
:103D80009B000B4400225A60FB68596BFA8A134669
:103D90005B0013449B000B4400229A60FB8A0133B2
:103DA000FB82FA8A3B8D9A42DAD30FE0FB6800224D
:103DB00083F828203B6ADA6AFB68DA623B6A1A8E6B
:103DC000FB681A863B6A5A6BFB685A63FB6897F874
:103DD000302083F85C20FB68002283F85D20FB68BC
:103DE000002283F86820FB680022DA66FB68002264
:103DF0001A67FB88B3F5905F0BD1FB685C33FA88D8
:103E00000021009100210191F8681146154A00F047
:103E10002DF83A8F7B8900210091F96801911249B0
:103E20000291786B11461A4640F2FF7301F01EFFB3
:103E3000FB68FA6B5A67B7F840203B89082100916C
:103E400000210191F86B11461A46002301F078FF1A
:103E50000246FB689A6700231BB218461837BD4616
:103E600080BD00BFDD3C0000693B000080B588B02C
:103E700000AFF8607A603B600B467B817B89F86815
:103E8000194600F047F80346BB83BA8B4FF6FF7321
:103E90009A423CD0FB68596BBA8B13465B001344C3
:103EA0009B000B44BB61FB68D96ABA8B13465B006D
:103EB00013449B000B449B78FB75BB697A681A60BE
:103EC000BB693A685A60BB6A002B1DD097F82C304A
:103ED000002B19D097F82C20FB7D9A4214D1BB6996
:103EE000BA6A9A600023FB8308E0BB699A68FB8B7F
:103EF000134400221A70FB8B0133FB83FB7D9BB2C2
:103F0000FA8B9A42F1D902E0BB6900229A6020370D
:103F1000BD4680BD80B487B000AF78600B467B8023
:103F20000023FB827B681B8E013BBB8227E0FA8A61
:103F3000BB8A1344DA0F13445B107B827B68D96A17
:103F40007A8A13465B0013449B000B44FB60FB68BA
:103F50001B887A889A4201D17B8A2AE0FB681B88F9
:103F60007A889A4208D27B8ABB82BB8A002B06D011
:103F7000BB8A013BBB8202E07B8A0133FB82FA8A67
:103F8000BB8A9A42D3D3FA8ABB8A9A420FD17B6802
:103F9000D96AFA8A13465B0013449B000B44FB600A
:103FA000FB681B887A889A4201D1FB8A01E04FF6B0
:103FB000FF7318461C37BD465DF8047B704700BF91
:103FC00080B485B000AF786013460A467A807B7073
:103FD0007B68D96A7A8813465B0013449B000B44C4
:103FE000FB607A884FF6FF739A4201D100232FE0DD
:103FF000FB689B78002B08D1FB689B68002B01D1E4
:10400000202325E0FB68DB8822E0FB689B88002BEF
:104010000DD07B78002B01D1012319E0FB689B6850
:10402000002B01D1202313E0FB68DB8810E0FB6844
:104030009B68BB607B78DB00BA6813441B68002B6D
:1040400001D1202304E07B78DB00BA681344DB88CD
:1040500018461437BD465DF8047B704780B487B0BE
:1040600000AF786013460A467A807B707B68D96A15
:104070007A8813465B0013449B000B443B617A88AB
:104080004FF6FF739A4201D1002322E03B699B78EF
:10409000002B02D13B699B881BE03B699B88002B6E
:1040A0000FD03B699B88FB827B78002B07D1FB8A72
:1040B00023F01803FB82FB8A43F00403FB82FB8A94
:1040C00007E03B699B68FB607B78DB00FA68134480
:1040D0009B8818461C37BD465DF8047B704700BFBF
:1040E00080B485B000AF786013460A467A807B7052
:1040F0007B68D96A7A8813465B0013449B000B44A3
:10410000FB607A884FF6FF739A4201D1002328E0C2
:10411000FB689B78002B02D1FB689B6821E0FB6861
:104120009B88002B15D07B78002B02D1FB680233D3
:1041300017E0FB689B68002B01D1002311E0FB68AE
:104140009A687B78013BF968C98801FB03F3134443
:1041500007E0FB689B68BB607B78DB00BA681344B0
:104160001B6818461437BD465DF8047B704700BFD6
:1041700080B485B000AF786013460A467A807B70C1
:104180007A884FF6FF739A4203D07B685B6B002BF3
:1041900001D100230CE07B68596B7A8813465B00E1
:1041A00013449B000B44FB60FB689A687B781344C4
:1041B00018461437BD465DF8047B704780B584B05F
:1041C00000AF786013460A467A807B707B687A88F5
:1041D000A3F850207B687A7883F852207B8878682F
:1041E0001946FFF797FE03461A467B685A877B6895
:1041F0005A8F4FF6FF739A4201D13E4B75E07B68B0
:10420000D96A7B685B8F1A4613465B0013449B0098
:104210000B449B787A789A4201D9374B65E07B68EA
:104220005A8F7B78786811461A46FFF759FF024685
:104230007B685A647B680022DA637B685B6B002BC7
:104240000ED07B68596B7B685B8F1A4613465B0008
:1042500013449B000B44FB60FB685A687B68DA637D
:104260007B6803F108027B681A647B685A8F7B784D
:10427000786811461A46FFF7A3FE03461A467B6884
:10428000A3F848207B685A8F7B78786811461A46D5
:10429000FFF7E4FE03461A467B68A3F84A207B68D2
:1042A0005A8F7B78786811461A46FFF761FF0246FD
:1042B0007B68DA647B68012283F854207B680122E2
:1042C00083F855207B685B6C002B03D07B68B3F8C8
:1042D000483000E000237A6893657B68B3F8483083
:1042E000202B01D9054B00E0002318461037BD46AE
:1042F00080BD00BF00000206110009064700040649
:1043000080B588B000AF78600B467B807B681B6C03
:10431000FB617B685B6CBB617B68B3F84830FB82F8
:1043200000233B617B68B3F84A3003F00403002BA1
:1043300001D1374B68E07B685B6B002B0AD07B6850
:10434000596B7B685B8F1A4613465B0013449B00D6
:104350000B443B61BB69002B2AD002F0C7F8F86020
:104360001DE07B68B3F84A3003F00103002B0DD049
:104370007B68B3F84A3003F00203002B06D1FB69D7
:104380005A1CFA61BA6912781A7005E0FB695A1C66
:10439000FA61BA6912781A70BB690133BB61FB8A92
:1043A0005A1EFA82002BDCD1F86802F0AFF805E063
:1043B0003B691B68002B01D1164B25E07B6801226D
:1043C00083F853203B691B68002B18D03B691B689E
:1043D0007A683C3210469847B860BB68002B01D021
:1043E000BB6811E07B68B3F84830002B05D07B68D0
:1043F000B3F848307A889A4201D2064B04E07B68D1
:10440000002283F85420002318462037BD4680BD83
:10441000010001064700040680B588B000AF78604F
:104420000B467B807B681B6CFB617B685B6CBB61B4
:104430007B68B3F84A3003F00803002B01D1324BFC
:104440005EE07B68B3F84A3003F00103002B08D02C
:104450007B68B3F84A3003F00203002B01D12A4BEA
:104460004EE0BB69002B04D17B687A88A3F8482012
:1044700007E07B68B3F848307A889A4201D0234B32
:104480003EE07B68002283F853207B685B6B002B47
:104490001AD07B68596B7B685B8F1A4613465B00AA
:1044A00013449B000B447B617B691B68002B0BD082
:1044B0007B691B687A683C321046984738613B69D3
:1044C000002B01D03B691BE07B68002283F854205D
:1044D000BB69002B13D002F009F8F86007E0BB6954
:1044E0005A1CBA61FA69511CF96112781A707B88FA
:1044F0005A1E7A80002BF2D1F86802F007F80023E8
:1045000018462037BD4680BD020001061000070690
:1045100080B582B000AF786039607B689B6F802285
:104520001A717B689B6F7A68B2F85020D2B25A71C8
:104530007B689B6F7A68B2F85020120A92B2D2B2AE
:104540009A717B689B6F7A6892F85220DA717B6867
:104550009B6F03F108023B4610461946FFF7E6FA47
:104560007B68002283F85D207B68002283F8682046
:104570007B685A6F7B689B6F1046194601F020FCE0
:104580000837BD4680BD00BFB0B590B000AFF86041
:10459000F9723A81FB80002387F83F30002387F8C7
:1045A0003E30002387F83D30FB6893F85D30002BE8
:1045B00007D1FB6893F86830002B02D1002300F08C
:1045C000D6BFFB7A002B0AD1FB68002283F85D205E
:1045D000FB68002283F86820002300F0C8BFFB6856
:1045E0009B6F1B7BDBB2002B40F0CD80FB6893F808
:1045F0006830002B05D1FB6893F85D30262B40F026
:10460000C280FB681B785B0987F83530FB6893F83C
:104610005D30262B03D0FB680022A3F86020FB68E6
:10462000986FFB689B6FFA68926FF968896F002436
:10463000CC71C979917192795A715B790371FB6878
:10464000986FFB689B6FFA68926FF968896F002416
:10465000CC72C97A9172927A5A725B7A0372FB6851
:1046600093F86830002B0ED0FB681B78802B0AD1A2
:10467000FB68002283F85D20FB68002283F8682035
:10468000FF2300F074BFFB6893F85D30002B05D06A
:10469000FB6893F85D3087F83F3074E097F8353069
:1046A000012B12D097F83530022B0ED097F8353009
:1046B000062B0AD097F83530052B06D0F868B2499A
:1046C000FFF726FFFF2300F052BFFB689B781B0219
:1046D0009AB2FB685B7813439BB29AB2FB68DB78B3
:1046E000F86811461A46FFF769FD38633B6B002BEB
:1046F00006D0F868396BFFF70BFFFF2300F037BFD8
:1047000097F83530012B03D097F83530062B19D1A7
:10471000FB68B3F84A3003F00803002B06D1F868B1
:104720009A49FFF7F5FEFF2300F021BF97F83530D7
:10473000012B03D1112387F83F3024E0142387F89D
:104740003F3020E0F8682021FFF7DAFD38633B6B4B
:10475000002B06D0F868396BFFF7DAFEFF2300F074
:1047600006BF97F83530052B0AD1FB68B3F848200F
:10477000FB685B799A4203D9242387F83F3002E033
:10478000212387F83F30FB68B3F86030FA889A42FB
:1047900008D9FB68B3F860203B8913449AB2FB68E0
:1047A000A3F86020FB68B3F86030FA889A421DD8FD
:1047B000FB6893F85D30152B11D1FB6893F85E30E0
:1047C000002B0CD0FB689B6F1B7BDBB2002B06D150
:1047D000012387F83E30162387F83F3006E0F8685B
:1047E0006B49FFF795FEFF2300F0C1BE97F83F30FD
:1047F000002B02D1002300F0BABE97F83F30113BE6
:10480000162B00F2958601A151F823F069480000AB
:104810009949000031550000FB4A00003D55000059
:10482000D74B0000194D00003155000031550000F4
:104830003155000031550000315500003155000060
:10484000315500003155000031550000E54D0000A4
:10485000BB4E000031550000A7500000B5510000CC
:10486000F35100000F550000FB689B6F60221A7126
:10487000FB689B6FFA6852785A71FB689B6FFA6805
:1048800092789A71FB689B6FFA68D278DA71FB684C
:104890001B7803F00203002B42D0FB681B7803F067
:1048A0000103002B0AD0FB681B789B08DBB203F0E6
:1048B00003039BB2C3F104037B8701E004237B87DE
:1048C000FB681B6CFA6812791A70FB681B6C013369
:1048D000FA6852791A70FB681B6C0233FA68927995
:1048E0001A70FB681B6C0333FA68D2791A707B8FDD
:1048F000F8681946FFF790FDF862FB6A002B06D0B6
:10490000F868F96AFFF704FEFF2300F030BEFB6889
:10491000002283F85D20012387F83D3000F00FBEB0
:10492000FB681B7803F00103002B1CD0FB680433E9
:1049300007F1240210461946FFF7F8F87A6AFB6877
:104940009A65FB68B3F848301A467B6A9A420AD0E7
:10495000FB685B6C002B06D0F8680E49FFF7D8FDAA
:10496000FF2300F004BEFB6800221A87FB680022C8
:1049700083F85E20FB68122283F85D20012387F80C
:104980003D3000F0DCBD00BF01000405020001065F
:104990000000040510000706FB681B7803F0E00325
:1049A000002B06D0F8689249FFF7B2FDFF2300F014
:1049B000DEBDFB681B7803F01003002B01D0012340
:1049C00000E000233B87FB6893F85E303A8F9A4201
:1049D00006D0F8688749FFF79BFDFF2300F0C7BDAD
:1049E000FB681B785B08DBB2DB439BB203F0070379
:1049F0007B87FB681B8F1A467B8F1A44FB68B3F8D2
:104A000048309A4226DDFB685B6C002B06D0F868C4
:104A10007949FFF77DFDFF2300F0A9BDFB68002267
:104A200083F85520FB681B8FF8681946FFF7F4FCE4
:104A3000F862FB6A002B06D0F868F96AFFF768FD98
:104A4000FF2300F094BDFB682022A3F84820FB68F8
:104A500000221A8700233B8710E0FB681A6CFB6872
:104A60001B8F591C88B2F968088713443A8F0132AA
:104A7000F9688A5C1A703B8F01333B873A8F7B8FD2
:104A80009A42EAD3FB681B7803F00103002B18D08D
:104A9000FB68012283F85520FB681B8FF8681946D4
:104AA000FFF7BAFCF862FB6A002B06D0F868F96AD7
:104AB000FFF72EFDFF2300F05ABDFB68002283F8AC
:104AC0005D20FB689A6FFB6893F85E30002B01D085
:104AD000302300E020231371FB6893F85E30002B35
:104AE00014BF00230123DBB21A46FB6883F85E2063
:104AF000012387F83D3000F022BDFB681B7803F0EE
:104B0000E103C02B06D0F8683949FFF701FDFF2308
:104B100000F02DBDFB689B6FA4221A71FB689B6F90
:104B2000FA6852785A71FB689B6FFA6892789A71AA
:104B3000FB689B6FFA68D278DA71FB68042283F80D
:104B40006220FB689B6FFA6892F862201A72FB6819
:104B50001B7803F00403002B0CBF00230123DBB2FE
:104B60001A46FB6883F86320FB680022A3F86420E0
:104B7000FB681B7803F00203002B1CD0FB68043396
:104B800007F1200210461946FEF7D0FF3A6AFB688B
:104B90009A65FB68B3F848301A463B6A9A420AD0D5
:104BA000FB685B6C002B06D0F8681449FFF7B0FC7B
:104BB000FF2300F0DCBCFB6800221A87FB680022A0
:104BC00083F85E20FB68152283F85D20012387F8B7
:104BD0003D3000F0B4BC97F83E30002B10D1FB689C
:104BE0001B78DBB25BB2002B0ADA012309E000BFBD
:104BF0000100040500000305120007061000070667
:104C0000002387F82B30FB689B6FA2221A71FB6888
:104C10009B6FFA6892F85E205A71FB68002283F855
:104C20005E20FB685B6C002B3AD1FB681B8F002B6E
:104C300036D097F82B30002B32D1FB6893F86330D5
:104C4000002B11D0FB68196CFB681B8F1A46FB68A0
:104C5000B3F86430084611461A4600F02FFF0346A9
:104C60001A46FB68A3F86420FB68002283F85520ED
:104C7000FB681B8FF8681946FFF7CEFBF862FB6AEA
:104C8000002B06D0F868F96AFFF742FCFF2300F01A
:104C90006EBCFB682022A3F84820FB6800221A871C
:104CA000FB681B8FC3F120037B877A8F40F2793337
:104CB0009A420AD87A8F9F4BA3FB0213D21A52084A
:104CC00013449B089BB2DBB200E07F23FA6882F8B2
:104CD0006230FB689B6FFA6892F862209A7197F8CD
:104CE0002B30002B04D0FB68172283F85D200EE0E8
:104CF000FB681B8F1F2B06D9F8688F49FFF708FC4C
:104D0000FF2300F034BCFB68152283F85D200123EB
:104D100087F83D3000F013BCFB681B7803F0E1031B
:104D2000C12B06D0F8688549FFF7F2FBFF2300F09E
:104D30001EBCFB681B789B08DBB203F007037B8774
:104D4000FB681A8F7B8FD31A9AB2FB681A87FB68AD
:104D500093F86330002B25D0FB68196CFB681B8F20
:104D60001A46FB68B3F86430084611461A4600F04C
:104D7000A5FE03461A46FB68A3F86420FB680133CE
:104D800007F11E0210461946FEF7BCFEFB68B3F899
:104D90006420FB8B9A4205D0F8686949FFF7B8FB9D
:104DA000FF23E4E3FB68012283F85520FB681B8F97
:104DB000F8681946FFF730FBF862FB6A002B05D054
:104DC000F868F96AFFF7A4FBFF23D0E3FB689B6F49
:104DD000A1221A71FB68002283F85D20012387F865
:104DE0003D30ACE3FB689B6FFA6852785A71FB6800
:104DF0009B6FFA6892789A71FB689B6FFA68D27819
:104E0000DA71FB68B3F84830042B2DD800233B87B8
:104E10000DE0FB68996F3B8F0433FA68106C3A8F92
:104E2000024412780B441A713B8F01333B87FB68B5
:104E3000B3F848303A8F9A42EBD3FB689B6FFA681D
:104E4000B2F84820D2B2C2F10402D2B29200D2B279
:104E500042F04302D2B21A71FB68002283F85D204F
:104E6000012387F83D306AE3FB6800221A87FB685C
:104E7000002283F85E20FB68222283F85D20FB6815
:104E80009B6D002B11D0FB689B6DBB61FB689B6F1A
:104E900003F1080207F1180310461946FEF746FE13
:104EA000FB689B6F41221A7103E0FB689B6F4022F5
:104EB0001A71012387F83D3041E3FB681B7803F04A
:104EC000E003602B05D0F8681C49FFF721FBFF23A6
:104ED0004DE3FB681B7803F01003002B01D0012386
:104EE00000E000233B87FB6893F85E303A8F9A42DC
:104EF00005D0F8681349FFF70BFBFF2337E3FB6886
:104F0000B3F84820FB681B8FD31A7B877B8F072B56
:104F100001D907237B87FB685B6C002B6BD17B8FF0
:104F2000062B68D8FB6893F85530002B63D100231B
:104F30003B871AE025499224470004060100040536
:104F40000400040500000305FB681A6C3B8F134442
:104F5000FA68116CFA68128F10463A8F02440A44BC
:104F600012781A703B8F01333B873A8F7B8F9A42BE
:104F7000EAD3FB681A6C7B8F1A44FB681A64FB68DF
:104F80005A8FFB6893F85230F86811461A46FFF7BB
:104F900017F803461A467B8FD31A9AB2FB68A3F818
:104FA0004820F8682021FFF7ABF9F862FB6A002B74
:104FB00005D0F868F96AFFF7ABFAFF23D7E2FB6880
:104FC0001A6C7B8F5B421A44FB681A64FB68B3F867
:104FD00048207B8F13449AB2FB68A3F84820FB68F3
:104FE00000221A87FB68B3F848307B877B8F072B3A
:104FF00001D907237B8700233B8712E0FB68986F6A
:105000003B8F591CFB681A6CFB681B8F5C1CA5B29C
:10501000FC68258713441A7843181A713B8F0133B3
:105020003B873A8F7B8F9A42E8D3FB689A6FFB6885
:1050300093F85E30002B01D0102300E00023798F1D
:10504000C1F107014900C8B2194603460B43DBB260
:10505000DBB21371FB6893F85E30002B14BF0023A2
:105060000123DBB21A46FB6883F85E20FB681A8FC7
:10507000FB68B3F848309A4211D1FB6893F8553079
:10508000002B0CD0FB689B6FFA68926F127942F08C
:105090000102D2B21A71FB68002283F85D2001235D
:1050A00087F83D304BE2FB689B6FFA6852785A7183
:1050B000FB689B6FFA6892789A71FB689B6FFA683D
:1050C000D278DA71FB681B7803F00403002B13D04D
:1050D000FB68012283F86320FB681A6CFB68B3F855
:1050E000483010461946002200F0E8FC03461A46F4
:1050F000FB68A3F8642007E0FB68002283F86320C4
:10510000FB680022A3F86420FB681A79FB6883F827
:105110006220FB681B7803F00303002B0BD1FB68B4
:1051200093F86230002B06D0FB6893F86230DBB254
:105130005BB2002B05DAF8689149FFF7E9F9FF2324
:1051400015E2FB6893F862301A461346DB009A1AA0
:10515000FB68B3F848309A420AD9FB6893F8553097
:10516000002B05D1F8688749FFF7D2F9FF23FEE14C
:10517000FB689B6D002B11D0FB689B6D7B61FB680E
:105180009B6F03F1080207F1140310461946FEF75E
:10519000CDFCFB689B6FC6221A7103E0FB689B6F16
:1051A000C4221A71FB68252283F85D20012387F849
:1051B0003D30C4E1FB681B7803F0E303A32B05D06B
:1051C000F8686F49FFF7A4F9FF23D0E1FB680022DC
:1051D0001A87FB68002283F85E20FB68002283F8B0
:1051E0006720FB68002283F86820FB68262283F88A
:1051F0005D20FB6893F86830002B00F01381FB689A
:105200001B7803F0E303A22B05D0F8685C49FFF795
:105210007FF9FF23ABE1FB685B7887F82A30FB68F6
:1052200093F85E3097F82A209A4205D9F8685549D4
:10523000FFF76EF9FF239AE1FB6893F86730002BC4
:105240002AD0FB6893F8623097F82A209A4223D13B
:10525000FB689B6FFA6892F86620C2F10702920021
:10526000D2B262F03E02D2B2D2B21A71FB6893F8A7
:105270006330002B08D0FB689B6F5A1DFB686433BA
:1052800010461946FEF73EFCFB68272283F85D2096
:10529000012387F83D3052E197F82A309BB21A4635
:1052A000D200D31A3B870023FB860FE0FB681A6C01
:1052B000FB8E1344FA68116C3A8F0A4412781A7004
:1052C0003B8F01333B87FB8E0133FB86FB68B3F8D2
:1052D00048303A8F9A42E9D3FB68B3F8482097F8F0
:1052E0002A309BB21946C900CB1A9BB2D31A9AB284
:1052F000FB68A3F84820FB689A78FB6883F8622073
:10530000FB685B6C002B67D1FB68B3F8483019462B
:10531000FB6893F862301A461346DB009B1A9942E9
:105320005AD2FB6893F85530002B55D1FB68B3F87F
:1053300048307B87FB681A6C7B8F1A44FB681A64C1
:10534000FB685A8FFB6893F85230F86811461A468A
:10535000FEF736FE03461A467B8FD31A9AB2FB68D5
:10536000A3F84820F8682021FEF7CAFFF862FB6A1C
:10537000002B09D0F868F96AFFF7CAF8FF23F6E0B6
:105380000100040502000405FB6893F86330002B5C
:1053900012D0FB68196CFB68B3F848301A46FB68FA
:1053A000B3F86430084611461A4600F087FB0346FE
:1053B0001A46FB68A3F86420FB681A6C7B8F5B427B
:1053C0001A44FB681A64FB68B3F848207B8F1344C7
:1053D0009AB2FB68A3F84820FB6893F862301A463B
:1053E0001346DB009A1AFB68B3F848309A420AD990
:1053F000FB6893F85530002B05D1F8685E49FFF73C
:1054000087F8FF23B3E0FB6800221A87FB680022BD
:1054100083F85E20FB68002283F86720FB68002287
:1054200083F86820FB6893F85E20FB6893F862308D
:105430009A4204D0FB6893F86730002B01D0012317
:1054400095E0FB680022A3F86020FB68B3F84820D1
:10545000FB681B8FD31A7B877B8F072B01D9072310
:105460007B8700233B8712E0FB68986F3B8F591CBA
:10547000FB681A6CFB681B8F5C1CA5B2FC68258757
:1054800013441A7843181A713B8F01333B873A8FC4
:105490007B8F9A42E8D3FB689B6FFA6892F85E2094
:1054A0000132D1B2FA6882F85E10FA6892F85E2092
:1054B0001A71FB681A8FFB68B3F848309A421CD106
:1054C000FB6893F85530002B17D0FB689B6FFA6888
:1054D000926F127962F07F02D2B21A717B8FDAB2C8
:1054E000FB6883F86620FB6893F85E20FB6883F80E
:1054F0006220FB68012283F86720FB685A6FFB6813
:105500009B6F1046194600F05BFC01232FE0FB68FF
:105510001B7803F0E103A12B05D0F8681749FEF7CB
:10552000F7FFFF2323E0FB68002283F85D2006E0FD
:10553000F8681349FEF7ECFFFF2318E000BFFB6893
:10554000002283F8682097F83D30002B07D0FB68D5
:105550005A6FFB689B6F1046194600F031FCFB68E0
:1055600093F85D30002B01D0012300E000235BB2F3
:1055700018464037BD46B0BD0200040501000405D1
:105580004700040680B487B000AF7860396000231C
:10559000FB757B683B613B695B681B78FB73FB7B3E
:1055A000052B02D0FB7B7F2B2FD13B691B7D002B72
:1055B00012D03B681B78012B09D03B681B7843F461
:1055C00080739AB23B699A830123FB7511E03B68B3
:1055D0005A783B69DA750CE03B681B78002B08D0E1
:1055E0003B681B7843F400739AB23B699A830123AA
:1055F000FB75FB7D002B08D1FB7B052B02D13B69A2
:1056000001229A753B6900229A611C37BD465DF8FC
:10561000047B704780B58AB004AF786000237B615B
:105620007B681B68FB607B685B681846FEF736FA90
:10563000B8607B68DB7D002B62D10023FB74BB6804
:1056400003F00053002B02D0304B7B610DE0BB68B0
:1056500003F08043002B08D0FB681B7A002B02D09C
:105660002B4B7B6101E00123FB747B69002B47D14D
:10567000BB689BB2C3F30A039AB2FB685A81FB7CF6
:10568000002B27D00023BB74FB681B7D002B0AD0A6
:105690000123BB74FB680022DA75FB6800229A754F
:1056A000FB6800229A61FB68996AFB681A8EFB68A6
:1056B0005B89B87C009000200190084611461A468C
:1056C000002300F03DFB0246FB68DA62FB68012222
:1056D0001A7202E0FB6800221A72FB68196AFB6802
:1056E0009A8CFB685B8900200090F868019009485B
:1056F0000290084611461A4640F2FF7300F0B6FACF
:105700007B6918461837BD4680BD00BF30000906CA
:10571000220000088555000080B586B000AF786093
:1057200000237B617B681B683B617B685B68184674
:10573000FEF7B4F9F8607B68DB7D002B22D13B6972
:10574000DB68002B05D1FB68002B02D03B690022EF
:10575000DA753B69FA68DA60FB685A0813465B0041
:105760001A443B691A613B691A69FB689A4203D281
:105770003B694FF0FF321A613B6900229A753B6921
:1057800000229A617B6918461837BD4680BD00BF6C
:1057900080B588B002AF786000237B617B681B68AE
:1057A000FB607B685B681B78FB727B68DB7D002B92
:1057B00023D10023FB74FB68DB68002B02D0114B64
:1057C0007B611AE0FB68FA7A1A75FB7A002B01D02C
:1057D0000123FB74FB68996AFB681A8EFB685B897E
:1057E000F87C009000200190084611461A460023DC
:1057F00000F0A6FA0246FB68DA627B6918461837A1
:10580000BD4680BD2200000880B58AB004AFF860B4
:10581000B9607A603B600023FB753B6A03F080430C
:10582000002B0CBF00230123DBB21A46FB681A725F
:105830003B6A9BB2C3F30A039AB2FB685A81FB68C6
:105840007A6ADA607B6A5A0813465B001A44FB687E
:105850001A61FB681A697B6A9A4203D2FB684FF0AF
:10586000FF321A61FB6897F828201A7597F82830DC
:10587000002B01D00123FB75FB6801225A75FB68E0
:1058800000229A75FB6800229A61FB680022DA7593
:10589000FB6800229A83FB68BA681A60FB683A6862
:1058A0005A60FB68FA6A1A62FB683A8E9A8400238F
:1058B000009300230193786841F20501224AFB68B6
:1058C000FEF7D4FA0023009300230193786841F295
:1058D00006011E4AFB68FEF7C9FA00230093002365
:1058E0000193786841F21901194AFB68FEF7BEFA84
:1058F000FB685B893A8E00210091F9680191154996
:105900000291F86A11461A4640F2FF7300F0AEF9B0
:10591000FB687A6B9A62FB683A8F1A86FB685B8930
:105920003A8FF97D009100210191786B11461A465A
:10593000002300F005FA0246FB68DA6200231BB27E
:1059400018461837BD4680BD15560000195700008F
:10595000915700008555000080B588B000AFF86011
:10596000B9607A600023FB77FB685B681B78052BC6
:1059700005D0FB685B681B787F2B40F08180FB685B
:105980009B7D002B05D0FB689B69002B01D1012377
:10599000FB7700F0ABFDB861FB689A69BB68134404
:1059A0007B61FB689A697B699A4202D2FB687A69DB
:1059B0009A61B86900F0AAFDFB681B7A002B2DD014
:1059C000FB68DB68002B29D0FB689A69FB68DB6801
:1059D0009A4223D3FB68DB7D0133DAB2FB68DA75C8
:1059E000FB68DA7DFB681B7D9A4202D9FB680122C5
:1059F000DA75FB6801229A75FB6800229A61FB68E0
:105A0000DB6AFA68D27D1A71FB689A6AFB68DB6A06
:105A10001046194600F0D4F90123FB777B68002B70
:105A200012D0FB689A697B689A4209D9FB685B7D52
:105A3000002B01D00223FB77FB6800225A7506E099
:105A4000FB6801225A7502E0FB6801225A75FB6867
:105A5000DB68002B14D0FB689A69FB681B699A42CB
:105A60000ED9FB685B681B78052B09D1FB681A68A7
:105A7000FB689B69104618214FF40142FCF7E2F9DC
:105A8000FB685B681B78052B02D0FB6800229A75C7
:105A9000FB689B8B002B0CD0FB681A68FB689B8B08
:105AA0001046192148F24022FCF7CCF9FB6800228D
:105AB0009A83FB7F18462037BD4680BD80B487B0EF
:105AC00000AFF860B9601346FB8000237B6114E0EF
:105AD000FB881B0A9AB2F9687B690B441B78534018
:105AE0007B82FB881B029AB2798A094B33F811300A
:105AF0005340FB807B6901337B617A69BB689A42C2
:105B0000E6D3FB8818461C37BD465DF8047B70471A
:105B10002008000080B586B000AFF860B9607A60F8
:105B20007B80BB681A68FB681A60FB6800221A71E8
:105B3000FB687A689A60FB687A889A81FB683A6A9F
:105B40001A61FB68BA8C9A82FB6800229A75FB681E
:105B50000022DA75FB6801221A76FB6800225A835C
:105B6000FB680022DA61FB6800221A620023FB82D4
:105B700014E0FA8A13465B0013449B007A681344CE
:105B800000221A80FA8A13465B0013449B007A684D
:105B9000134400229A60FB8A0133FB82FA8A7B88D5
:105BA0009A42E6D30023FB820BE0FA8A1346DB001D
:105BB0009B1A5B003A6A134400221A73FB8A013372
:105BC000FB82FA8ABB8C9A42EFD3FB681A683B8D42
:105BD0004FF47A7101FB03F31046194600F012FDF1
:105BE000FB689B7DDBB2002B04D01548002101F03F
:105BF000DBF903E01248022101F0D6F9FB681B68CB
:105C000018460021012201F08FF9FB681B68184635
:105C10000121012201F088F9FB681B68184609215F
:105C2000012201F081F9FB681B6818460A21012254
:105C300001F07AF900235BB218461837BD4680BDE3
:105C400000C0034080B582B000AF78607B681B68FD
:105C500018460121012201F0D1F97B681B68184622
:105C600000F034FD0837BD4680BD00BF80B588B068
:105C700000AFF86079813A81FB800023FB77FB68F5
:105C8000002B53D0FB6A002B50D03B6B002B4DD028
:105C9000FB689B897A899A4248D2FB6899687A891D
:105CA00013465B0013449B000B44BB61BB69FA6A5B
:105CB0005A60BB693A6B9A603B89C3F30A039AB294
:105CC000BB691A8097F82830002B06D0BB691B8867
:105CD00043F400639AB2BB691A80FB88C3F30A03DA
:105CE0009BB243F400639AB2BB695A8000F0FEFB9A
:105CF0007861FB689B7DDBB2002B13D0FB681A68D0
:105D00003B89C3F30A0310461946002200F0F6FC53
:105D10000346012B06D0FB6800229A750748022132
:105D200001F042F9786900F0F1FB01E0FF23FB7715
:105D3000FB7F5BB218462037BD4680BD00C00340E4
:105D400080B487B000AFF86079813A81FB7100239D
:105D50007B61FB68002B2BD0FB689B8A7A899A4277
:105D600026D2FB6819697A891346DB009B1A5B000F
:105D70000B447B613B89C3F30A039AB27B691A80A7
:105D800097F82030082B28BF0823DAB27B699A7075
:105D9000FB79002B0CBF00230123DBB21A467B6981
:105DA000DA707B6900221A737B6997F824205A7392
:105DB0007B6918461C37BD465DF8047B704700BF01
:105DC00080B58AB000AF78603960002387F827304B
:105DD000002387F825303B681B7BDBB2002B11D0FA
:105DE0007B681B7EDBB2002B09D17B681A6A3B689B
:105DF0001B881046142148F21012FCF723F8F723F1
:105E000087F8273000F072FB38627B681B68184601
:105E1000032101F06BF8F861FB6903F0043323F010
:105E20008063002B00F083803B685B7BDAB27B6889
:105E3000DA753B681B88FB603B689B783B763B6868
:105E4000DB78BB7600237B76002387F8263010E0D2
:105E500097F8263097F8262039680A44127907F116
:105E600028010B4403F8182C97F82630013387F8E3
:105E700026303B7E97F826209A4203D297F82630A8
:105E8000032BE5D911E097F82630043B97F826203C
:105E900039680A44127907F128010B4403F8142CDD
:105EA00097F82630013387F826303B7E97F8262076
:105EB0009A42E8D37B681A6807F10C03104619462A
:105EC00000F06AFE034687F8253097F82530012B4D
:105ED0002DD13B685B7BDBB2002B28D0FB6903F044
:105EE0000403002B08D07B681B79DBB243F001036D
:105EF000DAB27B681A711AE0FB6903F48063002B45
:105F000008D07B681B79DBB243F00203DAB27B680E
:105F10001A710CE0FB6903F48023002B07D07B6827
:105F20001B79DBB243F00403DAB27B681A7197F88D
:105F30002530012B09D03B6801221A737B685B8BEB
:105F40009BB201339AB27B685A83386A00F0DEFA5A
:105F500097F827305BB218462837BD4680BD00BF92
:105F600080B586B000AF786000237B6100F0BEFA98
:105F7000B8607B681B79DBB203F00703002B33D0DA
:105F80007B68DB7DDBB2002B2ED07B681B79DBB21C
:105F900003F00103002B05D07B681B681846222103
:105FA00001F0E4F87B681B79DBB203F00203002BFD
:105FB00005D07B681B681846422101F0D7F87B6842
:105FC0001B79DBB203F00403002B05D07B681B6850
:105FD0001846822101F0CAF87B6800221A717B689A
:105FE0000022DA7501237B617B685B8B9BB2002BFF
:105FF00025D07B681B69FB607B689B8A7B821BE0EA
:10600000FB681B7BDBB2002B10D0FB685B7BDBB239
:10601000002B0BD0FB6800221A737B685B8B9BB252
:10602000013B9AB27B685A8302237B61FB680E3383
:10603000FB607B8A013B7B827B8A002BE0D1B868C6
:1060400000F064FA7B69002B08D07B681B6A184655
:1060500015214FF401427B69FBF7F4FE1837BD466A
:1060600080BD00BF80B588B000AF78607B681B6AD8
:10607000BB617B681B681846002100F037FF786120
:1060800000237B820023FB837B6903F08003002BCA
:1060900002D04FF48073FB837B6903F00203002B73
:1060A0000CBF00230123DBB23B82FB8B1A047B8AEB
:1060B0001B021A433B8A1343FB607B68DA69FB6867
:1060C0009A4266D07B68FA68DA61FB8BFF2B07D9AE
:1060D000B869122148F24012FB68FBF7B3FE4EE0AC
:1060E000B8691221FA68FBF747FF7B8A5F2B02D859
:1060F000FB8B5F2B05D9B86901210022FB68FBF7F8
:10610000A1FE7B8A7F2B07D9B869062148F22012AD
:10611000FB68FBF797FE04E0B8690621FA68FBF715
:106120002BFFFB8B7F2B0CD97B681B7EDBB2002BFC
:106130001AD1B869072148F22012FB68FBF782FEEA
:1061400012E0B8690721FBF7ABFF0346FB72FB7A4D
:10615000002B09D0B8690721FA68FBF70DFFB86971
:106160001421FA68FBF708FF7B8A5F2B07D8FB8BAB
:106170005F2B04D8B8690121FA68FBF7FDFE3B8A62
:10618000002B06D0B869132148F21012FB68FBF708
:1061900059FE2037BD4680BD80B596B000AF78600F
:1061A0007B681B68184600F0F1FFB863BB6B03F017
:1061B0000103002B00F093800023FB64002387F889
:1061C0004B307B689B7D7B681A6807F1280310467B
:1061D000194600F01DFE0346012B7FD1BB6A3B65CB
:1061E00097F83630012B03D13B6D43F400633B65D8
:1061F0007B689B68FB647B689B89A7F8563015E039
:10620000FB6C1B881A463B6D5A40FB6C5B88134045
:10621000002B03D1012387F84B300BE0FB6C0C33D0
:10622000FB64B7F85630013BA7F85630B7F8563044
:10623000002BE5D197F84B30002B4FD0FB6C002B97
:106240004CD0FB6C9B68002B48D097F834303B77E0
:10625000002387F84A3012E097F84A3097F84A202E
:1062600007F158010A4412F82C2C07F158010B448D
:1062700003F83B2C97F84A30013387F84A3097F8F7
:10628000343097F84A209A4203D297F84A30032BC9
:10629000E2D913E097F84A3097F84A20043A07F118
:1062A00058010A4412F8282C07F158010B4403F84E
:1062B0003B2C97F84A30013387F84A3097F834304E
:1062C00097F84A209A42E5D3FB6C9B68FA6C5168B8
:1062D00007F11C0208461146984703E102E1BA6B38
:1062E00040F202631340002B00F0FC80BB6B03F014
:1062F0000203002B08D07B681B79DBB223F001037B
:10630000DAB27B681A711AE0BB6B03F40073002BDE
:1063100008D07B681B79DBB223F00203DAB27B681A
:106320001A710CE0BB6B03F48063002B07D07B6811
:106330001B79DBB223F00403DAB27B681A717B6845
:1063400000221A767B680022DA757B685B8B9BB231
:10635000002B00F0C7807B681B693B647B689B8ACD
:10636000A7F84830B1E03B6C1B7BDBB2002B00F0A0
:10637000A4803B6C00221A737B685B8B9BB2013B51
:106380009AB27B685A833B6C5B7BDAB27B68DA75C6
:106390003B6C1B88FB603B6C9B783B763B6CDB78F3
:1063A000BB7600237B760023A7F8463010E0B7F8D1
:1063B0004630B7F84620396C0A44127907F1580183
:1063C0000B4403F8482CB7F846300133A7F84630A1
:1063D0003B7EB7F846209A4203D2B7F84630032BEB
:1063E000E5D911E0B7F84630043BB7F84620396CE0
:1063F0000A44127907F158010B4403F8442CB7F80A
:1064000046300133A7F846303B7EB7F846209A4223
:10641000E8D30023FB633B6C5B7BDBB2002B06D035
:106420007B681B681846032100F060FDF8637B68F9
:106430001A6807F10C031046194600F0ADFB03463D
:10644000012B0AD07B681A6A3B6C1B88104614210A
:1064500048F21012FBF7F6FC2EE03B6C5B7BDBB2E4
:10646000002B29D0FB6B03F00403002B08D07B68C2
:106470001B79DBB243F00103DAB27B681A711BE0CF
:10648000FB6B03F48063002B08D07B681B79DBB2C5
:1064900043F00203DAB27B681A710DE0FB6B03F480
:1064A0008023002B08D07B681B79DBB243F0040308
:1064B000DAB27B681A710DE00CE03B6C0E333B6482
:1064C000B7F84830013BA7F84830B7F84830002B00
:1064D0007FF449AFB7F84830002B03D17B68002226
:1064E0005A83FFE75837BD4680BD00BF90B482B0E5
:1064F00000AF4024EFF3118384F311887B607B6845
:1065000018460837BD4690BC704700BF80B483B0C2
:1065100000AF78607B6883F311880C37BD465DF867
:10652000047B704780B586B000AF78603960002387
:10653000BB6000233B617A68304B9A4204D11A2039
:1065400000F09CFE386103E01C2000F097FE3861EB
:106550003A693B68B2FBF3F3BB6001233B75182338
:10656000FB752FE0FA7DBB68B3FBF2F102FB01F291
:106570009B1A002B22D1FB7DBA68B2FBF3F3013BDF
:10658000FB60FB7D013BFB75FA7D1D4BA3FB0213FA
:106590005B08DBB2DBB2013BDBB27B75FA7D184BEB
:1065A000A3FB02135B08DBB2FA7DD31ADBB2DBB2CA
:1065B000013BDBB2BB7500233B7506E0FB7D023B74
:1065C000DBB2FB75FB7D002BCCD13B7D002B00D0DB
:1065D000FEE77B6801221A607B7D1A05BB7D1B04E8
:1065E00013431A46FB68134343F400027B685A6165
:1065F0007B6800221A601837BD4680BD0040044009
:10660000ABAAAAAA80B584B000AF786039607A6876
:106610002B4B9A4205D14FF40050012100F060FE4F
:1066200004E04FF48040012100F05AFE1A200221BC
:1066300000F0B8FD1C20022100F0B4FD1E20022154
:1066400000F0B0FD7B6801221A607B6800221A61AD
:106650007B6800229A607B680E225A607B68DB6848
:10666000BB607B6800221A60164B01221A6000236F
:10667000FB8107E0144BFA89002143F82210FB89C3
:106680000133FB81FB89B3F5007FF3D30D4B00226F
:106690005A600C4B00229A600A4B0022DA60094BC8
:1066A00000221A61074B00225A61064B00221A6031
:1066B00078683968FFF736FF1037BD4680BD00BFE8
:1066C0000040044000C003400080034080B582B019
:1066D00000AF78607A68084B9A4205D14FF40050B9
:1066E000002100F0FDFD04E04FF48040002100F0A7
:1066F000F7FD0837BD4680BD0040044080B48BB034
:1067000000AFF860B9601346FB7100237B62002381
:106710003B620023FB6100237B8300233B83002338
:10672000FB820023BB82FA68AB4B9A4202D1002362
:106730007B6205E0FA68A94B9A4201D101237B6292
:10674000A74B1B8801335B109AB2A54B1B889BB2E9
:10675000194649000B449BB213449AB2A14B1B88C3
:1067600001335B109BB213449AB29F4B1B889BB2C0
:1067700013449AB29D4B1B889BB213449AB29C4B14
:106780001B885B009BB21344BB82B7F91430B3F58E
:10679000007F01DB0223ECE1964B01221A60FB79BA
:1067A000002B40F07381BB68C3F30A03BB607B6AB4
:1067B0005B03BA681343BB608A4B1B8803F0010379
:1067C000002B2DD1864B1B8801335B109AB2854B71
:1067D0001B8801335B109BB213447B83BA8A7B8B8B
:1067E000D31AFB82844BB7F91A2053F822303B624C
:1067F00010E07B8B01337B837F4BB7F91A2053F872
:106800002230FB617C4BB7F91A20396A43F8221019
:10681000FB693B62FB8A1A46013AFA82002BE8D1F7
:10682000704B1B88002B10D16D4B1B8801335B1004
:106830003B83714AB7F91810BB681B046FEA134316
:106840006FEA034342F8213005E1664B1B88012BB8
:106850002ED1634B1B8801335B103B83664BB7F92A
:10686000182053F822301A0C4EF2FF731340BA6806
:1068700093420ED9604BB7F918205F49B7F9180059
:1068800051F82010080CB9680904014343F822109C
:10689000E1E0594AB7F91810574BB7F9180053F807
:1068A00020301B0C1B04B868034342F82130D2E0AF
:1068B0004B4B1B8801335B107B834A4B1B883B830C
:1068C000474B1B8801335B109AB2464B1B88013340
:1068D0005B109BB21344FB8223E0474BB7F91A20AD
:1068E00053F822301A0C4EF2FF731340BA689342E9
:1068F00003D97B8B5B003B8319E03F4BB7F91A2030
:1069000053F822204EF2FF731340BA68934205D920
:106910007B8B5B009BB201333B8308E07B8B0133B5
:106920007B83B7F91A20B7F916309A42D5DBB7F94D
:106930001A20B7F916309A4220D12A4B1B8803F04F
:106940000103002B0BD12C4AB7F91A10BB681B04AA
:106950006FEA13436FEA034342F821307BE0264A93
:10696000B7F91A10244BB7F91A0053F820301B0C52
:106970001B04B868034342F821306CE01E4BB7F9A2
:106980001A2053F822303B623B8B03F00103002BAB
:1069900006D1BB681A043B6A1B0C1343FB6105E07C
:1069A0003B6A1B0C1B04BA681343FB61124BB7F91B
:1069B0001A20F96943F82210094B1B8801335B1038
:1069C0009AB2084B1B8801335B109BB213449BB2F5
:1069D000013BFB8227E000BF0040044000800440F0
:1069E0004C0E00104E0E0010500E0010520E0010F3
:1069F000540E001000C00340008003407B8B013325
:106A00007B835F4BB7F91A2053F82230FB615C4B54
:106A1000B7F91A20F969080C396A0904014343F8E7
:106A20002210FB693B62B7F91A20B7F916309A4277
:106A3000E4DB544B1B8803F00103002B0BD1504ABD
:106A4000B7F91A30591C3B6A1B046FEA13436FEA0B
:106A5000034342F821304B4B1B8801339AB2494B18
:106A60001A80494B484A926804329A60464B464A1B
:106A7000D2680432DA60444B434A126904321A6124
:106A8000414B414A526904325A6166E07B6A5B07B6
:106A9000BA681343BB603D4B1B8801335B109AB24D
:106AA000384B1B8801335B1099B2394B1B889BB262
:106AB0000B449BB213447B8300233B830EE0304B9B
:106AC000B7F91A2053F82220BB689A4200D90BE08C
:106AD0007B8B01337B833B8B01333B83B7F91820DE
:106AE0002C4B1B889A42EADB254BB7F91A2053F846
:106AF00022303B62224BB7F91A20B96843F82210C2
:106B0000244B1B8801339AB2224B1A80BB8AFB822A
:106B100013E07B8B01337B833B8B01333B83184B2F
:106B2000B7F91A2053F82230FB61154BB7F91A2038
:106B3000396A43F82210FB693B62B7F91820B7F9AC
:106B400016309A42E5DB104B0F4A126904321A6183
:106B50000D4B0D4A526904325A610C4B1B88002BB5
:106B600003D1094B00221A6002E0074B04221A608D
:106B7000012318462C37BD465DF8047B704700BFE3
:106B8000008003404E0E001000C003404C0E001069
:106B9000500E0010520E001080B485B000AF786027
:106BA00039607B68DB6903F00403002B5ED07B68EF
:106BB0001B6B23F470227B681A637B681A6B3B683B
:106BC0001B7B1B041A437B681A633B689B7B012B6E
:106BD00006D17B681B6B43F080427B681A6305E03B
:106BE0007B681B6B23F080427B681A633B685B7B8E
:106BF000012B06D17B681B6B43F000427B681A6354
:106C000005E07B681B6B23F000427B681A633B68DE
:106C10001A687B685A633B681B791A463B685B7944
:106C20001B021A433B689B791B041A433B68DB79C0
:106C30001B061343FB607B68FA689A633B681B7A08
:106C40001A463B685B7A1B021A433B689B7A1B041B
:106C50001A433B68DB7A1B061343FB607B68FA68C8
:106C6000DA637B6821225A600123CAE07B68DB6912
:106C700003F48063002B5ED07B681B6C23F47022CE
:106C80007B681A647B681A6C3B681B7B1B041A4385
:106C90007B681A643B689B7B012B06D17B681B6C6D
:106CA00043F080427B681A6405E07B681B6C23F02C
:106CB00080427B681A643B685B7B012B06D17B6852
:106CC0001B6C43F000427B681A6405E07B681B6C18
:106CD00023F000427B681A643B681A687B685A6438
:106CE0003B681B791A463B685B791B021A433B6879
:106CF0009B791B041A433B68DB791B061343FB603B
:106D00007B68FA689A643B681B7A1A463B685B7A30
:106D10001B021A433B689B7A1B041A433B68DB7ACD
:106D20001B061343FB607B68FA68DA647B684122C8
:106D30005A60012365E07B68DB6903F48023002B44
:106D40005ED07B681B6D23F470227B681A657B68BC
:106D50001A6D3B681B7B1B041A437B681A653B68F2
:106D60009B7B012B06D17B681B6D43F080427B68C7
:106D70001A6505E07B681B6D23F080427B681A650D
:106D80003B685B7B012B06D17B681B6D43F00042A7
:106D90007B681A6505E07B681B6D23F000427B6809
:106DA0001A653B681A687B685A653B681B791A4606
:106DB0003B685B791B021A433B689B791B041A43AF
:106DC0003B68DB791B061343FB607B68FA689A65B6
:106DD0003B681B7A1A463B685B7A1B021A433B6886
:106DE0009B7A1B041A433B68DB7A1B061343FB6048
:106DF0007B68FA68DA657B6881225A60012300E0CB
:106E0000002318461437BD465DF8047B704700BF69
:106E100080B485B000AF786039607B68DB6903F0CF
:106E20000103002B5BD07B681B6ADB0FDAB23B6887
:106E30005A737B681B6A03F080439B0FDAB23B688E
:106E40009A737B681B6A03F470231B0CDAB23B68ED
:106E50001A737B685A6A3B681A603B689B7B002BFD
:106E600038D17B689B6AFB60FB68DAB23B681A71B9
:106E7000FB6803F47F431B0ADAB23B685A71FB6874
:106E800003F47F031B0CDAB23B689A71FB681B0E9C
:106E9000DAB23B68DA717B68DB6AFB60FB68DAB206
:106EA0003B681A72FB6803F47F431B0ADAB23B6843
:106EB0005A72FB6803F47F031B0CDAB23B689A72C8
:106EC000FB681B0EDAB23B68DA727B6804225A60F8
:106ED000012305E07B6804225A60012300E00023BF
:106EE00018461437BD465DF8047B704780B483B004
:106EF00000AF78600B46FB70FB78012B06D0022BAD
:106F000007D0002B08D17B689B6807E07B68DB68B3
:106F100004E07B689B6901E07B68DB6918460C37FD
:106F2000BD465DF8047B704780B483B000AF7860E5
:106F300013460A46FA70BB70BB78012B16D1FB785A
:106F40000B2B09D1174B01221A60164B01221A6232
:106F5000144B04221A6020E07B681A69FB78012137
:106F600001FA03F31A437B681A6116E0FB780B2BD6
:106F700009D10C4B01221A600A4B01221A62094BFB
:106F800000221A6009E07B681A69FB78012101FA86
:106F900003F3DB431A407B681A610C37BD465DF88A
:106FA000047B704700C0034080B483B000AF7860BA
:106FB0000B46FB70FB78032B1AD801A252F823F082
:106FC000D16F0000D96F0000E16F0000E96F000091
:106FD0007B6800221A600BE07B6801221A6007E0E0
:106FE0007B6802221A6003E07B6804221A6000BFFB
:106FF0000C37BD465DF8047B704700BF80B483B09A
:1070000000AF786013460A46FA70BB70FB78072B16
:1070100000F2A78001A252F823F000BF3D700000EB
:107020004570000067700000A1700000DB70000078
:10703000FD7000001F710000417100007B6800229C
:107040001A608EE0BB78012B06D17B681B6843F089
:1070500001027B681A6084E07B681B6823F00102F0
:107060007B681A607DE07B681B6843F001027B68E7
:107070001A60BB78012B06D17B681B6843F00202C3
:107080007B681A6005E07B681B6823F002027B685E
:107090001A607B681B6823F001027B681A6060E05D
:1070A0007B681B6843F001027B681A60BB78012B88
:1070B00006D17B681B6843F004027B681A6005E018
:1070C0007B681B6823F004027B681A607B681B687E
:1070D00023F001027B681A6043E0BB78012B06D1E4
:1070E0007B681B6843F008027B681A6039E07B68A4
:1070F0001B6823F008027B681A6032E0BB78012B22
:1071000006D17B681B6843F010027B681A6028E098
:107110007B681B6823F010027B681A6021E0BB7853
:10712000012B06D17B681B6843F020027B681A6044
:1071300017E07B681B6823F020027B681A6010E070
:10714000BB78012B06D17B681B6843F080027B680B
:107150001A6005E07B681B6823F080027B681A6078
:1071600000BF0C37BD465DF8047B704780B483B028
:1071700000AF786039607B685A683B681A437B6867
:107180005A600C37BD465DF8047B704780B483B00D
:1071900000AF78607B68DB6818460C37BD465DF849
:1071A000047B704780B485B000AF786039607B683D
:1071B0001F2B02D97B68203B00E07B68FB607B686B
:1071C0001F2B17D8194B194AD2F8A811FA680320B7
:1071D00000FA02F2D2430A40C3F8A821134B134A23
:1071E000D2F8A811FA68386800FA02F20A43C3F824
:1071F000A82116E00D4B0D4AD2F8AC11FA68032015
:1072000000FA02F2D2430A40C3F8AC21074B074A06
:10721000D2F8AC11FA68386800FA02F20A43C3F8EF
:10722000AC211437BD465DF8047B704700C00F40A9
:1072300080B485B000AF78607B681F2B06D87B6870
:10724000FB600D4BD3F8A831BB6006E07B68203BA8
:10725000FB60094BD3F8AC31BB60FB68BA6822FA1B
:1072600003F303F00303BB60BB6818461437BD4645
:107270005DF8047B704700BF00C00F4080B584B04C
:1072800000AF7860154B1B68BB607868FFF7D0FFD4
:10729000F860FB68032B17D801A252F823F000BF57
:1072A000B1720000B7720000BD720000C37200002E
:1072B0000423FB6008E00123FB6005E00223FB6080
:1072C00002E00823FB6000BFBA68FB68B2FBF3F37F
:1072D000BB60BB6818461037BD4680BDEC0500108A
:1072E00080B483B000AF78600B46FB70FB78012B55
:1072F0000AD10F4A0E4BD3F8C41078680D4B0340E7
:107300000B43C2F8C4300DE0FB78002B0AD1084AC9
:10731000074BD3F8C4107B68DB431940054B0B4087
:10732000C2F8C4300C37BD465DF8047B704700BF1F
:1073300000C00F40DEF7EFEF80B582B000AF78609D
:107340000B46FB70FB1C786819460122012300F0F4
:10735000D9FE0837BD4680BD80B584B000AF7860E7
:1073600039603B68FB6007E0FB685A1CFA601B78D9
:1073700078681946FFF7E0FFFB681B78002BF3D114
:107380001037BD4680BD00BF80B485B000AF034656
:10739000FB710023FB60FB79042B1CD801A252F87F
:1073A00023F000BFB9730000BF730000C573000075
:1073B000CB730000D17300000B4BFB600CE00B4B58
:1073C000FB6009E00A4BFB6006E00A4BFB6003E050
:1073D000094BFB6000E000BFFB6818461437BD4650
:1073E0005DF8047B704700BF00C0092020C0092061
:1073F00040C0092060C0092080C0092080B584B049
:1074000000AF396013460246FA71BB71FB7918462A
:10741000FFF7BAFFF860FB68002B10D0BB79002B98
:1074200006D0FB681A683B681A43FB681A6006E0DE
:10743000FB681A683B68DB431A40FB681A60103728
:10744000BD4680BD80B584B000AF03463960FB7196
:10745000FB791846FFF798FFF860FB68002B02D015
:10746000FB683A689A611037BD4680BD80B584B02C
:1074700000AF03463960FB71FB791846FFF784FFC4
:10748000F860FB68002B02D0FB683A68DA611037BD
:10749000BD4680BD80B584B000AF0346FB71FB796B
:1074A0001846FFF771FFF860FB68002B02D0FB68FD
:1074B0005B6900E0002318461037BD4680BD00BF61
:1074C00080B582B000AF396013460246FA71BB71D5
:1074D000FA79BB79104639681A46FFF78FFF0837EB
:1074E000BD4680BD80B582B000AF03463960FB71F8
:1074F000FB7918463968FFF7A5FF0837BD4680BD00
:1075000080B582B000AF03463960FB71FB79184645
:107510003968FFF7ABFF0837BD4680BD80B582B044
:1075200000AF0346FB71FB791846FFF7B3FF034634
:1075300018460837BD4680BD80B487B000AF1346FB
:107540000246FA710A46BA717B71BB797B61FB799D
:107550005B003B61184BFB607B690F2B05D97B6996
:10756000103B7B613B6901333B613B699B00FA68DF
:1075700013443A699200F9680A4411687A69520022
:10758000032000FA02F2D2430A401A603B699B00D2
:10759000FA6813443A699200F9680A4411687879E4
:1075A0007A69520000FA02F20A431A601C37BD469B
:1075B0005DF8047B704700BF00C0024080B487B014
:1075C00000AF13460246FA710A46BA717B71BB7965
:1075D0007B61FB795B003B61184BFB607B690F2B88
:1075E00005D97B69103B7B613B6901333B613B699A
:1075F0009B00FA6813443A699200F9680A441168DA
:107600007A695200032000FA02F2D2430A401A605B
:107610003B699B00FA6813443A699200F9680A448E
:10762000116878797A69520000FA02F20A431A6006
:107630001C37BD465DF8047B704700BF40C0024068
:1076400080B485B000AF13460246FA710A46BA719B
:107650007B71154BFB607B79012B0FD1FB799B0074
:10766000FA681344FA799200F9680A441168BA7901
:10767000012000FA02F20A431A600FE0FB799B0036
:10768000FA681344FA799200F9680A441168BA79E1
:10769000012000FA02F2D2430A401A601437BD46B4
:1076A0005DF8047B704700BF68C0024080B582B0BF
:1076B00000AF78607B6819787B685A787B689B7824
:1076C000084611461A46FFF737FF7B6819787B6832
:1076D0005A787B68DB78084611461A46FFF76EFF3A
:1076E0007B6819787B685A787B681B790846114655
:1076F0001A46FFF7A5FF0837BD4680BD80B584B0A8
:1077000000AF78607B68032B1ED801A252F823F0EB
:10771000217700002B770000357700003F770000CD
:107720000220FFF7ABFDF8600EE00420FFF7A6FD96
:10773000F86009E02C20FFF7A1FDF86004E02E209E
:10774000FFF79CFDF86000BFFB6818461037BD4688
:1077500080BD00BF80B584B000AF786039607868C4
:10776000FFF7CCFF03461A464FF00003C7E9022398
:107770003B681A464FF00003B96803FB01F0F96853
:1077800002FB01F10144B868A0FB022319440B4637
:1077900010461946064A4FF0000301F08BFC0246E2
:1077A0000B46C7E90223BB6818461037BD4680BDAB
:1077B00040420F0080B485B000AF78604FF0FF33D7
:1077C000FB607B68B3F1402F02D10023FB6013E024
:1077D0007A680D4B9A4202D10123FB600CE07A6873
:1077E0000A4B9A4202D10223FB6005E07A68084BFB
:1077F0009A4201D10323FB60FB6818461437BD464B
:107800005DF8047B704700BF008000400000094025
:107810000040094080B483B000AF78600B46FB7035
:10782000FB78012202FA03F31A467B681A600C37D0
:10783000BD465DF8047B704780B485B000AF034659
:107840003960FB71FB79002B08D13B68FB60FB685A
:1078500001221A70FB6801225A6004E03B68BB6099
:10786000BB6800225A701437BD465DF8047B704730
:1078700080B586B000AFF8600B467A60FB72FB689B
:10788000B3F1402F08D102200121FFF729FD02208A
:107890000021FFF787FC27E0FA683E4B9A4208D1A7
:1078A00004200121FFF71CFD04200021FFF77AFCD2
:1078B0001AE0FA68384B9A4209D14FF4800001214E
:1078C000FFF70EFD2C200021FFF76CFC0CE0FA689E
:1078D000324B9A4208D14FF400000121FFF700FD1E
:1078E0002E200021FFF75EFCFB689B6A23F0030259
:1078F000FB689A62FB689A6AFB689A62FB680022DE
:107900009A60FB6800221A61FB680022DA60FB685B
:107910005B6843F00202FB685A60FB685B6823F017
:107920000202FB685A60FB7A002B1AD17B687B61EC
:107930007B691B78002B05D17B695B685A1EFB684D
:10794000DA6020E0F868FFF735FF02467B695B6884
:1079500010461946FFF7FEFE03465A1EFB68DA6022
:1079600011E07B683B61FB689B6A23F00C02FB68BB
:107970009A623B695B78012B05D1FB689B6A43F0F7
:107980000402FB689A62FB684FF0FF321A601837F6
:10799000BD4680BD00800040000009400040094015
:1079A00080B483B000AF78600B46FB70FB78012B8E
:1079B00006D17B685B6843F001027B685A6005E092
:1079C0007B685B6823F001027B685A600C37BD4618
:1079D0005DF8047B704700BF80B483B000AF78606F
:1079E00039603B681B78032B1ED801A252F823F0A4
:1079F000017A00000B7A0000157A00001F7A00005F
:107A00003B689A687B689A610FE03B689A687B687C
:107A1000DA610AE03B689A687B681A6205E03B68B5
:107A20009A687B685A6200E0FEE77B6859693B68A8
:107A30001B781A4613465B001344072202FA03F32D
:107A4000DB4301EA03027B685A613B685B78002BE9
:107A50000ED07B6859693B681B781A4613465B0059
:107A60001344012202FA03F341EA03027B685A61DC
:107A70003B68DB78002B0FD07B6859693B681B782B
:107A80001A4613465B0013440133012202FA03F342
:107A900041EA03027B685A613B689B78002B0FD058
:107AA0007B6859693B681B781A4613465B00134490
:107AB0000233012202FA03F341EA03027B685A61AE
:107AC0007B68DA6B3B681B785B000433032101FAA7
:107AD00003F3DB431A407B68DA637B68DA6B3B684D
:107AE0001B7903F003013B681B785B00043301FA48
:107AF00003F31A437B68DA630C37BD465DF8047BF9
:107B0000704700BF0000000090B589B000AFF8607A
:107B1000B9607A603B604FF07F53FB61BB681A012C
:107B2000FB68B3FBF2F102FB01F29B1A002B0CD1B4
:107B30007B6801221A703B6800221A70BB681B0127
:107B4000FA68B2FBF3F39BB2E0E0F86801F074F876
:107B50000446BB681B01184601F06EF80346184640
:107B6000F96901F0C1F803462046194601F070F9A1
:107B70000346184601F07EFA0346FB82F86801F0DE
:107B80005BF80446FB8ABA6802FB03F31B01184644
:107B900001F052F803462046194601F059F9034610
:107BA0003B61386900F066FE02460B4610461946F6
:107BB00059A3D3E9002300F01BFF0346002B14D088
:107BC000F86900F057FE02460B461046194654A3CA
:107BD000D3E9002300F0F0FC02460B46104619469C
:107BE00000F024FF0346FB6129E0386900F042FE03
:107BF00002460B46104619464BA3D3E9002300F07A
:107C000001FF0346002B14D0F86900F033FE024652
:107C10000B461046194642A3D3E9002300F0CAFCE4
:107C200002460B461046194600F000FF0346FB6172
:107C300005E03B69FB6100BF0023BB615CE084E7BA
:107C40003B4BBA6953F832301846F96901F0FEF936
:107C50000346002B4DD0BB69002B0ED1344ABB69C3
:107C6000DB0013445A797B681A70314ABB69DB0028
:107C700013441A793B681A7039E02D4BBA6953F8EE
:107C800032301846F96900F025FF03461C46BB69EF
:107C90005A1E274B53F83230F869194600F01AFF84
:107CA00003462046194601F0C7F90346002B0ED0C3
:107CB0001F4ABB69DB0013445A797B681A701C4A5F
:107CC000BB69DB0013441A793B681A700FE0BB698B
:107CD000013B174ADB0013445A797B681A70BB6971
:107CE000013B134ADB0013441A793B681A70FB8A84
:107CF0000CE0BB690133BB61BB69472BA0D97B6832
:107D000000221A703B6800221A700023184624379C
:107D1000BD4690BDAFF300809A9999999999F13F2A
:107D20009A9999999999B93F666666666666FE3F23
:107D3000AC030010AFF3008080B586B000AF786070
:107D400039600023FB747A68434B9A4204D10620C1
:107D5000FFF794FA786119E07A68404B9A4204D1AF
:107D60000820FFF78BFA786110E07A683C4B9A4262
:107D700004D13020FFF782FA786107E07A68394B46
:107D80009A4203D13220FFF779FA786107F10F02A6
:107D900007F10E0378693968FFF7B6FE03463B82A8
:107DA0003B8A002B01D1FB7C51E07A682B4B9A4235
:107DB00024D17B681B7BDBB263F07F03DAB27B6884
:107DC0001A733B8A1B0A9BB2DAB27B681A713B8A30
:107DD000DAB27B681A707B681B7BDBB203F07F032F
:107DE000DAB27B681A73FB7B1B01DAB2BB7B03F050
:107DF0000F031343DAB27B689A6225E07B681B7B32
:107E0000DBB263F07F03DAB27B681A733B8A1B0A2A
:107E10009BB2DAB27B681A713B8ADAB27B681A705D
:107E20007B681B7BDBB203F07F03DAB27B681A73DB
:107E3000FB7B1B01DAB2BB7B03F00F03DBB2134306
:107E4000DAB27B6883F828200123FB74FB7C184698
:107E50001837BD4680BD00BF00C000400000014093
:107E60000080094000C0094080B584B000AF786050
:107E700039607A68884B9A4203D108200121FFF7C4
:107E80002FFA7A68854B9A4203D110200121FFF71F
:107E900027FA7A68824B9A4204D14FF08070012110
:107EA000FFF71EFA7A687F4B9A4204D14FF00070B8
:107EB0000121FFF715FA7A68784B9A4242D17B6824
:107EC00007221A727B6800221A7203E07B681B7813
:107ED000DBB2FB607B681B7DDBB203F00103002B90
:107EE000F4D17B68802283F8302000BF7B681B7D43
:107EF000DBB203F02003002BF8D07B68002283F86C
:107F000030207B6800225A607B6800221A737B68ED
:107F100000221A627B6800221A747B68002283F8B0
:107F20004C207B68002283F854207B68002283F871
:107F300050207B681B7EDBB2FB607B681B7DDBB265
:107F4000FB602EE07B6807221A727B6800221A729F
:107F500003E07B681B78DBB2FB607B681B7DDBB2D8
:107F600003F00103002BF4D17B68802283F83020DA
:107F700000BF7B681B7DDBB203F02003002BF8D031
:107F80007B68002283F830207B6800225A607B687F
:107F900000221A737B6800221A627B681B7DDBB2A9
:107FA000FB607A683F4B9A4203D17B68002283F8DA
:107FB00024203B681B6878681946FFF7BDFE7A6885
:107FC000364B9A4206D17B681B7BDBB203F0C003C1
:107FD000FB6005E07B681B7BDBB203F0C003FB604A
:107FE0003B685B79012B04D0022B07D0002B0FD00C
:107FF00009E0FB6843F00103FB600AE0FB6843F023
:108000000203FB6005E0FB6843F00303FB6000E054
:1080100000BF3B681B79002B24D0FB6843F00803AA
:10802000FB603B681B79013B032B1AD801A252F875
:1080300023F000BF63800000458000004F800000F7
:1080400059800000FB6843F01003FB600AE0FB6806
:1080500043F02003FB6005E0FB6843F03003FB6066
:1080600000E000BF3B689B79012B00D004E0FB6877
:1080700043F00403FB6000BF7A68084B9A4204D1C6
:10808000FB68DAB27B681A7303E0FB68DAB27B68DC
:108090001A731037BD4680BD00C00040000001408B
:1080A0000080094000C0094080B483B000AF786010
:1080B0007B684FF416521A607B6803225A717B6802
:1080C00000221A717B6800229A710C37BD465DF858
:1080D000047B704780B483B000AF78600B46FB70C0
:1080E0007A68074B9A4203D17B68FA781A7002E0EB
:1080F0007B68FA781A700C37BD465DF8047B7047D0
:108100000000014080B58AB000AFF860B9607A60C5
:10811000FB70BB687B617B687B62FB78012B37D18E
:1081200000233B6230E04FF0FF33FB6106E0FB6968
:10813000002B00D109E0FB69013BFB61FB681B7D63
:10814000DBB203F02003002BF1D0FB69002B01D13F
:1081500000BF45E01023BB6110E07B695A1C7A61C7
:108160001B78F8681946FFF7B5FFBB69013BBB6197
:108170007B6A013B7B623B6A01333B62BB69002B3C
:1081800002D07B6A002BE8D17B6A002BCBD127E0A1
:1081900000233B6221E0FB681B7DDBB203F0200380
:1081A000002B00D11CE01023BB6110E07B695A1C3E
:1081B0007A611B78F8681946FFF78CFF7B6A013BF0
:1081C0007B62BB69013BBB613B6A01333B62BB69BC
:1081D000002B02D07B6A002BE8D17B6A002BDAD11E
:1081E0003B6A18462837BD4680BD00BF80B483B0C7
:1081F00000AF78600B46FB70FB78012B19D17A68D1
:10820000184B9A420AD17B6893F83030DBB263F0A6
:108210007F03DAB27B6883F830201DE07B6893F837
:108220003030DBB263F07F03DAB27B6883F8302052
:1082300012E07A680B4B9A4207D17B6893F8303092
:108240007B68002283F8302006E07B6893F83030AA
:108250007B68002283F830200C37BD465DF8047B34
:10826000704700BF0000014080B584B000AF0346F6
:108270003960FB710023FB600023BB60FB79012B9D
:108280001AD0022B69D0002B00D07DE0414BFB605F
:10829000FA68414BA3FB02139B0C3A68920802FB5D
:1082A00003F3BB60BB68FE2B05D94FF08043BA686F
:1082B0005A60012369E067E0384B1B689B08FB604C
:1082C000FA68354BA3FB02139B0C3A68920802FB39
:1082D00003F3BB60BB68FE2B09D900200021FEF729
:1082E00061FF4FF08043BA685A6001234DE02B4B89
:1082F0001B685B08FB60FA68274BA3FB02139B0C0F
:108300003A68920802FB03F3BB60BB68FE2B09D9F5
:1083100000200221FEF746FF4FF08043BA685A6002
:10832000012332E01D4B1B68FB60FA681A4BA3FB6C
:1083300002139B0C3A68920802FB03F3BB60BB6814
:10834000FE2B09D900200121FEF72CFF4FF08043BE
:10835000BA685A60012318E016E04FF40043FB604E
:10836000FA680D4BA3FB02139B0C3A68920802FBC0
:1083700003F3BB60BB68FE2B05D94FF08043BA689E
:108380005A60012301E000BF002318461037BD46A4
:1083900080BD00BF00093D0083DE1B43EC050010DB
:1083A00080B582B000AF02460B46FA71BB71002067
:1083B0000021FEF7F7FE4FF080434FF08042126934
:1083C00022F003021A614FF080434FF0804211699E
:1083D000FA790A431A61BB79012B09D14FF0804326
:1083E0004FF080421278D2B242F00202D2B21A703A
:1083F0000837BD4680BD00BF80B584B000AF78604F
:108400004FF080431B69FB60FB6803F00303FB60D4
:10841000FB68DBB218467968FFF726FF4FF0804310
:108420004FF080421278D2B242F00102D2B21A70FA
:1084300000F004F81037BD4680BD00BF80B400AF27
:1084400072B64FF08043AA221A724FF08043552231
:108450001A7262B6BD465DF8047B704780B400AF07
:108460004E4B2022C3F8A0214C4BD3F8A03103F08F
:108470002003002B07D000BF484BD3F8A03103F0F6
:108480004003002BF8D0454B0322C3F80421434B93
:108490000022C3F8A821414B0022C3F8AC213F4B76
:1084A0000122C3F80C213D4B3D4AC3F884203B4BCD
:1084B000AA22C3F88C20394B5522C3F88C20374BA5
:1084C0000122C3F88020354BAA22C3F88C20334BFD
:1084D0005522C3F88C2000BF304BD3F8883003F00E
:1084E0008063002BF8D02D4B0322C3F880202B4B48
:1084F000AA22C3F88C20294B5522C3F88C2000BF38
:10850000264BD3F8883003F04073002BF8D0234B70
:108510002322C3F8A420214BAA22C3F8AC201F4B6E
:108520005522C3F8AC201D4B0122C3F8A0201B4BE1
:10853000AA22C3F8AC20194B5522C3F8AC2000BFC7
:10854000164BD3F8A83003F48063002BF8D0134BFC
:108550000322C3F8A020114BAA22C3F8AC200F4B72
:108560005522C3F8AC2000BF0C4BD3F8A83003F45D
:108570004073002BF8D0094B0A4AC3F8C420074BBC
:108580000022C3F8C821054B43F23A021A60064B99
:1085900000229A60BD465DF8047B704700C00F4022
:1085A00063000500DE87280400ED00E081F0004153
:1085B00002E000BF83F0004330B54FEA41044FEAC8
:1085C000430594EA050F08BF90EA020F1FBF54EA63
:1085D000000C55EA020C7FEA645C7FEA655C00F0FF
:1085E000E2804FEA5454D4EB5555B8BF6D420CDDD0
:1085F0002C4480EA020281EA030382EA000083EA53
:10860000010180EA020281EA0303362D88BF30BDF2
:1086100011F0004F4FEA01314FF4801C4CEA113148
:1086200002D0404261EB410113F0004F4FEA0333A7
:108630004CEA133302D0524263EB430394EA050F32
:1086400000F0A780A4F10104D5F1200E0DDB02FAA1
:108650000EFC22FA05F2801841F1000103FA0EF235
:10866000801843FA05F359410EE0A5F120050EF1FB
:10867000200E012A03FA0EFC28BF4CF0020C43FA2C
:1086800005F3C01851EBE37101F0004507D54FF039
:10869000000EDCF1000C7EEB00006EEB0101B1F589
:1086A000801F1BD3B1F5001F0CD349085FEA3000CF
:1086B0004FEA3C0C04F101044FEA445212F5800FDA
:1086C00080F09A80BCF1004F08BF5FEA500C50F177
:1086D000000041EB045141EA050130BD5FEA4C0C5A
:1086E000404141EB010111F4801FA4F10104E9D1E3
:1086F00091F0000F04BF01460020B1FA81F308BFDA
:108700002033A3F10B03B3F120020CDA0C3208DDA5
:1087100002F1140CC2F10C0201FA0CF021FA02F180
:108720000CE002F11402D8BFC2F1200C01FA02F1F0
:1087300020FA0CFCDCBF41EA0C019040E41AA2BF15
:1087400001EB0451294330BD6FEA04041F3C1CDADD
:108750000C340EDC04F11404C4F1200220FA04F0FD
:1087600001FA02F340EA030021FA04F345EA0301A7
:1087700030BDC4F10C04C4F1200220FA02F001FA69
:1087800004F340EA0300294630BD21FA04F02946EB
:1087900030BD94F0000F83F4801306BF81F4801184
:1087A0000134013D4EE77FEA645C18BF7FEA655CF7
:1087B00029D094EA050F08BF90EA020F05D054EAC9
:1087C000000C04BF1946104630BD91EA030F1EBFCE
:1087D0000021002030BD5FEA545C05D140004941D2
:1087E00028BF41F0004130BD14F580043CBF01F5C5
:1087F000801130BD01F0004545F0FE4141F47001AB
:108800004FF0000030BD7FEA645C1ABF1946104685
:108810007FEA655C1CBF0B46024650EA013406BF86
:1088200052EA033591EA030F41F4002130BD00BF45
:1088300090F0000F04BF0021704730B54FF4806402
:1088400004F132044FF000054FF0000150E700BF83
:1088500090F0000F04BF0021704730B54FF48064E2
:1088600004F1320410F0004548BF40424FF00001CF
:108870003EE700BF42004FEAE2014FEA31014FEA12
:1088800002701FBF12F07F4393F07F4F81F0605161
:10889000704792F0000F14BF93F07F4F704730B5D0
:1088A0004FF4607401F0004521F0004120E700BF63
:1088B00050EA010208BF704730B54FF000050AE0EA
:1088C00050EA010208BF704730B511F0004502D5EB
:1088D000404261EB41014FF4806404F132045FEAED
:1088E000915C3FF4DCAE4FF003025FEADC0C18BF92
:1088F00003325FEADC0C18BF033202EBDC02C2F188
:10890000200300FA03FC20FA02F001FA03FE40EA19
:108910000E0021FA02F11444C1E600BF4FF0FF3C03
:1089200006E000BF4FF0010C02E000BF4FF0010C69
:108930004DF804CD4FEA410C7FEA6C5C4FEA430CE2
:1089400018BF7FEA6C5C1BD001B050EA410C0CBF31
:1089500052EA430C91EA030F02BF90EA020F002093
:10896000704710F1000F91EA030F58BF994208BFFA
:1089700090422CBFD8176FEAE37040F001007047B7
:108980004FEA410C7FEA6C5C02D150EA013C07D10E
:108990004FEA430C7FEA6C5CD6D152EA033CD3D059
:1089A0005DF8040B704700BF8446104662468C4653
:1089B0001946634600E000BF01B5FFF7B7FF002886
:1089C00048BF10F1000F01BD4DF808EDFFF7F4FFAF
:1089D0000CBF012000205DF808FB00BF4DF808ED3A
:1089E000FFF7EAFF34BF012000205DF808FB00BF5D
:1089F0004DF808EDFFF7E0FF94BF012000205DF87F
:108A000008FB00BF4DF808EDFFF7CEFF94BF012033
:108A100000205DF808FB00BF4DF808EDFFF7C4FF2C
:108A200034BF012000205DF808FB00BF4FEA41027F
:108A3000B2F1E04324BFB3F5001CDCF1FE5C0DD9BC
:108A400001F0004C4FEAC0024CEA5070B2F1004F06
:108A500040EB830008BF20F00100704711F0804F09
:108A600021D113F13872BCBF01F00040704741F4CE
:108A700080114FEA5252C2F11802C2F1200C10FAD2
:108A80000CF320FA02F018BF40F001004FEAC123B6
:108A90004FEAD32303FA0CFC40EA0C0023FA02F35A
:108AA0004FEA4303CCE77FEA625307D150EA013330
:108AB0001EBF4FF0FE4040F44000704701F0004000
:108AC00040F0FE4040F40000704700BF80F00040DE
:108AD00002E000BF81F0004142001FBF5FEA410396
:108AE00092EA030F7FEA226C7FEA236C6AD04FEA96
:108AF0001262D2EB1363C1BFD218414048404140DB
:108B0000B8BF5B42192B88BF704710F0004F40F48C
:108B1000000020F07F4018BF404211F0004F41F4A8
:108B2000000121F07F4118BF494292EA030F3FD074
:108B3000A2F1010241FA03FC10EB0C00C3F1200387
:108B400001FA03F100F0004302D5494260EB400016
:108B5000B0F5000F13D3B0F1807F06D340084FEA81
:108B6000310102F10102FE2A51D2B1F1004F40EB76
:108B7000C25008BF20F0010040EA030070474900DE
:108B800040EB000010F4000FA2F10102EDD1B0FAA9
:108B900080FCACF1080CB2EB0C0200FA0CF0AABF9E
:108BA00000EBC25052421843BCBFD040184370473C
:108BB00092F0000F81F4000106BF80F40000013242
:108BC000013BB5E74FEA41037FEA226C18BF7FEA19
:108BD000236C21D092EA030F04D092F0000F08BF5B
:108BE0000846704790EA010F1CBF0020704712F042
:108BF0007F4F04D1400028BF40F00040704712F181
:108C000000723CBF00F50000704700F0004343F0E5
:108C1000FE4040F4000070477FEA226216BF08461B
:108C20007FEA23630146420206BF5FEA412390EADE
:108C3000010F40F4800070474FF0000304E000BFD4
:108C400010F0004348BF40425FEA000C08BF704785
:108C500043F0964301464FF000001CE050EA010249
:108C600008BF70474FF000030AE000BF50EA01025E
:108C700008BF704711F0004302D5404261EB41014B
:108C80005FEA010C02BF84460146002043F0B64370
:108C900008BFA3F18053A3F50003BCFA8CF2083A95
:108CA000A3EBC25310DB01FA02FC634400FA02FC9E
:108CB000C2F12002BCF1004F20FA02F243EB0200A5
:108CC00008BF20F00100704702F1200201FA02FC07
:108CD000C2F1200250EA4C0021FA02F243EB0200FA
:108CE00008BF20EADC7070474FF0FF0C1CEAD0523E
:108CF0001EBF1CEAD15392EA0C0F93EA0C0F6FD0FF
:108D00001A4480EA010C400218BF5FEA41211ED0DC
:108D10004FF0006343EA501043EA5111A0FB0131C8
:108D20000CF00040B1F5000F3EBF490041EAD3719D
:108D30005B0040EA010062F17F02FD2A1DD8B3F119
:108D4000004F40EBC25008BF20F00100704790F088
:108D5000000F0CF0004C08BF49024CEA502040EADA
:108D600051207F3AC2BFD2F1FF0340EAC2507047A0
:108D700040F400004FF00003013A5DDC12F1190FDE
:108D8000DCBF00F000407047C2F10002410021FA50
:108D900002F1C2F1200200FA02FC5FEA310040F168
:108DA000000053EA4C0308BF20EADC70704792F0E1
:108DB000000F00F0004C02BF400010F4000F013A19
:108DC000F9D040EA0C0093F0000F01F0004C02BF14
:108DD000490011F4000F013BF9D041EA0C018FE783
:108DE0000CEAD15392EA0C0F18BF93EA0C0F0AD089
:108DF00030F0004C18BF31F0004CD8D180EA0100AF
:108E000000F00040704790F0000F17BF90F0004F47
:108E1000084691F0000F91F0004F14D092EA0C0F29
:108E200001D142020FD193EA0C0F03D14B0218BFBC
:108E3000084608D180EA010000F0004040F0FE4002
:108E400040F40000704740F0FE4040F4400070479E
:108E50004FF0FF0C1CEAD0521EBF1CEAD15392EA1D
:108E60000C0F93EA0C0F69D0A2EB030280EA010C0D
:108E700049024FEA402037D04FF0805343EA1111A6
:108E800043EA10130CF000408B4238BF5B0042F104
:108E90007D024FF4000C8B4224BF5B1A40EA0C00A9
:108EA000B3EB510F24BFA3EB510340EA5C00B3EBDB
:108EB000910F24BFA3EB910340EA9C00B3EBD10FC9
:108EC00024BFA3EBD10340EADC001B0118BF5FEA1B
:108ED0001C1CE0D1FD2A3FF650AF8B4240EBC25044
:108EE00008BF20F0010070470CF0004C4CEA502005
:108EF0007F32C2BFD2F1FF0340EAC250704740F454
:108F000000004FF00003013A37E792F0000F00F045
:108F1000004C02BF400010F4000F013AF9D040EAC3
:108F20000C0093F0000F01F0004C02BF490011F457
:108F3000000F013BF9D041EA0C0195E70CEAD1534F
:108F400092EA0C0F08D142027FF47DAF93EA0C0F36
:108F50007FF470AF084676E793EA0C0F04D14B021A
:108F60003FF44CAF08466EE730F0004C18BF31F0CC
:108F7000004CCAD130F000427FF45CAF31F00043C6
:108F80007FF43CAF5FE700BF4FF0FF3C06E000BF5F
:108F90004FF0010C02E000BF4FF0010C4DF804CD82
:108FA0004FEA40024FEA41037FEA226C18BF7FEA92
:108FB000236C11D001B052EA530C18BF90EA010F94
:108FC00058BFB2EB030088BFC81738BF6FEAE17023
:108FD00018BF40F0010070477FEA226C02D15FEABF
:108FE000402C05D17FEA236CE4D15FEA412CE1D02B
:108FF0005DF8040B704700BF844608466146FFE7F2
:109000000FB5FFF7C9FF002848BF10F1000F0FBDD3
:109010004DF808EDFFF7F4FF0CBF012000205DF8CC
:1090200008FB00BF4DF808EDFFF7EAFF34BF012051
:1090300000205DF808FB00BF4DF808EDFFF7E0FFEA
:1090400094BF012000205DF808FB00BF4DF808ED3B
:10905000FFF7D2FF94BF012000205DF808FB00BF9E
:109060004DF808EDFFF7C8FF34BF012000205DF880
:1090700008FB00BF42000ED2B2F1FE4F0BD34FF0FF
:109080009E03B3EB126209D44FEA002343F000437E
:1090900023FA02F070474FF00000704712F1610FA1
:1090A00001D1420202D14FF0FF3070474FF0000073
:1090B000704700BF4BB942B9002908BF002802D051
:1090C0004FF0FF31084600F03BB882B0EC462DE986
:1090D000005000F01DF8DDF804E002B00CBC704751
:1090E0002DE9704F089E14461D468046894600F0C3
:1090F00029F804FB01F3A4FB00AB00FB0532934409
:10910000B8EB0A0869EB0B09C6E90089BDE8708F66
:109110002DE9704F089E14461D468046894600F092
:1091200061F900FB05F5A0FB04AB04FB0154A3446B
:10913000B8EB0A0869EB0B09C6E90089BDE8708F36
:10914000704700BF00292DE9F00FC0F2A180002474
:10915000002BC0F29880154606460F46002B3FD1E3
:109160008A4258D9B2FA82F34BB1C3F1200201FA14
:1091700003F720FA02F29D4000FA03F61743290C88
:10918000B7FBF1F201FB1277A8B200FB02F34FEA42
:10919000164C4CEA0747BB4209D97F1902F1FF3C44
:1091A00080F00581BB4240F20281023A2F44FF1A4F
:1091B000B7FBF1F301FB137100FB03F0B6B246EA13
:1091C0000141884208D9491903F1FF3780F0F18045
:1091D000884240F2EE80023B43EA0242002303E071
:1091E0008B420AD900231A461046194614B1404250
:1091F00061EB4101BDE8F00F7047B3FA83F8B8F1B5
:10920000000F40F088808B4202D3824200F2E2805D
:1092100000230122E8E712B90123B3FBF2F5B5FA06
:1092200085F2002A3AD17F1B280C1FFA85FC012306
:10923000B7FBF0F100FB11770CFB01F24FEA164887
:1092400048EA0747BA4207D97F1901F1FF3802D22D
:10925000BA4200F2C4804146BF1AB7FBF0F200FBED
:1092600012700CFB02FCB6B246EA0040844507D9F6
:10927000401902F1FF3702D2844500F2AE803A462F
:1092800042EA0142B0E7E443524263EB430362E740
:10929000404261EB41014FF0FF3459E79540C2F184
:1092A000200927FA09F126FA09F99740280CB1FBA1
:1092B000F0F800FB18111FFA85FC0CFB08F349EAD3
:1092C00007094FEA194747EA01418B4206FA02F6BD
:1092D00008D9491908F1FF327AD28B4278D9A8F11E
:1092E00002082944C91AB1FBF0F300FB13170CFB69
:1092F00003F21FFA89F949EA0747BA4207D97F19E9
:1093000003F1FF3160D2BA425ED9023B2F44BF1A4B
:1093100043EA08438CE7C8F1200225FA02F103FA78
:1093200008FC27FA02F320FA02F207FA08F741EAEA
:109330000C0C4FEA1C49B3FBF9F109FB11331FFA7E
:109340008CFA0AFB01FB17433A0C42EA03439B45A4
:1093500005FA08F008D913EB0C0301F1FF3235D2FE
:109360009B4533D902396344CBEB0303B3FBF9F2DA
:1093700009FB12330AFB02FABFB247EA0347BA45B8
:1093800008D917EB0C0702F1FF331BD2BA4519D9E4
:10939000023A674442EA0145A5FB0001CAEB070710
:1093A0008F424FF000030AD305D02A461CE76246DD
:1093B000FDE63B4610E706FA08F68642F5D26A1E3D
:1093C000002311E71A46E5E70B46A0E71146CBE775
:1093D000904687E74346424606E7023A50E702399D
:1093E0002F4439E72DE9F00F144605460E46002BB1
:1093F00043D18A4253D9B2FA82F757B1C7F1200656
:1094000020FA06F601FA07F302FA07F400FA07F564
:109410001E43210CB6FBF1F201FB1266A0B200FB69
:1094200002F32F0C47EA0646B34209D9361902F176
:10943000FF3780F0FD80B34240F2FA80023A2644C2
:10944000F61AB6FBF1F301FB136100FB03F0ADB2BA
:1094500045EA0141884208D9091903F1FF3680F035
:10946000E980884240F2E680023B43EA0242002360
:1094700010461946BDE8F00F70478B424CD8B3FA3E
:1094800083F6002E4FD18B4202D3824200F2DD8060
:10949000BDE8F00F0023012210461946704712B9AB
:1094A0000124B4FBF2F4B4FA84F2002A40F0828082
:1094B000091B260CA7B20123B1FBF6F006FB101125
:1094C00007FB00F24FEA154C4CEA01418A4207D9EA
:1094D000091900F1FF3C02D28A4200F2C8806046BE
:1094E000891AB1FBF6F206FB121107FB02F7ADB2C7
:1094F00045EA0145AF4208D92C1902F1FF3180F04D
:109500009B80A74240F29880023A42EA004210460D
:109510001946BDE8F00F704700231A461046194659
:10952000BDE8F00F7047C6F1200522FA05F703FAEF
:1095300006F421FA05F301FA06FB20FA05F53C438F
:109540004FEA1448B3FBF8FC08FB1C331FFA84F9FC
:1095500009FB0CFA45EA0B0B4FEA1B4545EA0343AE
:109560009A4502FA06F204D91B190CF1FF356FD3A4
:10957000AC46CAEB0303B3FBF8F508FB153309FB54
:1095800005F91FFA8BFB4BEA0347B94504D93F198C
:1095900005F1FF3362D31D4645EA0C4CACFB0223B8
:1095A000C9EB07079F424FF000054AD346D06246F9
:1095B0002B465DE79440C2F1200921FA09FC914055
:1095C00020FA09F9260CBCFBF6F806FB18CCA7B26A
:1095D00007FB08F349EA01094FEA194141EA0C4C3B
:1095E000634500FA02F509D91CEB040C08F1FF32BF
:1095F0003BD2634539D9A8F10208A444C3EB0C0C53
:10960000BCFBF6F306FB13C107FB03F21FFA89F953
:1096100049EA01418A4207D9091903F1FF3022D2F0
:109620008A4220D9023B2144891A43EA084343E78E
:109630003A4605E7334618E70A4666E7B0409042E7
:10964000B5D20CF1FF32002312E7334632460FE762
:109650009A458DD9ACF1020C23448AE7B9459AD9D1
:10966000023D274498E70346DEE79046C6E7023806
:04967000214435E775
:1096740080B489B000AFF860B9607A60BB68FB6100
:10968400FB68BB6100237B610AE0FB691A1DFA6178
:10969400BA69111DB96112681A607B6904337B6170
:1096A4007A697B689A42F0D32437BD465DF8047B1F
:1096B400704700BF80B485B000AF786039607B68C4
:1096C400FB600023BB6007E0FB681A1DFA60002200
:1096D4001A60BB680433BB60BA683B689A42F3D330
:1096E4001437BD465DF8047B704700BF80B584B075
:1096F40000AF114BFB60114BBB60114B7B607A6870
:10970400BB68D31A3B60FA68BB68104619463A68CE
:10971400FFF7AEFF0B4BBB600B4B7B607A68BB68FB
:10972400D31A3B60BB6818463968FFF7C3FFFEF7DE
:1097340093FEF7F7A5F9FEE7A897000000000010D4
:10974400F0050010F0050010580E001080B400AFB2
:10975400FEE700BF80B400AFFEE700BF80B400AFF7
:10976400FEE700BF80B400AFFEE700BF80B400AFE7
:10977400FEE700BF80B400AFFEE700BF80B400AFD7
:10978400FEE700BF80B400AFFEE700BF80B400AFC7
:0C979400FEE700BF80B400AFFEE700BF9E
:0897A000A4F9FF7F01000000A5
:1097A800550000000000000000000000000000005C
:1097B80000000000000000000000000000000000A1
:1097C800000000000000000000000000030000008E
:1097D8000100000000000000000000000000000080
:1097E8000000E80300000000000000000000000086
:1097F8000000000000000000000000000000000061
:109808000000000000000000000000000000000050
:109818000000000000000000000000000000000040
:109828000000000000000000000000000000000030
:109838000400000000000000EFCDAB907856341211
:10984800F1DEBC0A896745231F85454100000000F9
:10985800B4C876BE9F8C7C40000000000000000069
:1098680000000000000000000000000000000000F0
:1098780000000000000000000000000000000000E0
:1098880000000000000000000000000000000000D0
:1098980000000000000000000000000000000000C0
:1098A8005500000000000000550000000000000006
:1098B800010000000000000000000000000000009F
:1098C8000000000000000000000000000000000090
:1098D8000000000000000000000000000000000080
:1098E8000000000000000000000000000000000070
:1098F8005500000055000000000000008000000036
:10990800000000000000000043414E6F70656E4E7D
:109918006F6465332E3030332E3030008000000005
:1099280064000000000000000000000000000000CB
:1099380000000000E8030000040000000000000030
:10994800000000000000000000000000000000010E
:109958000000000002000000000600008005000072
:1099680002000000A0010000FF000000020000004B
:1099780000030000FE0000000200000000040000D8
:10998800FE0000000200000000050000FE000000CC
:1099980002000000080100620802006200000000E6
:1099A80000000000000000000000000000000000AF
:1099B800000000000000000000000000000000009F
:1099C800000000000000000000000000000000008F
:1099D800000000000000000000000000000000007F
:1099E800000000000000000000000000000000006F
:1099F800000000000000000000000000000000005F
:109A0800000000000000000000000000000000004E
:109A1800000000000000000000000000000000003E
:109A28000600000080010000FF0064000000000044
:109A3800000000000600000080020000FE00000098
:109A48000000000000000000060000008003000085
:109A5800FE000000000000000000000006000000FA
:109A680080040000FE00000000000000000000006C
:109A78000200000008010060080200600000000009
:109A880000000000000000000000000000000000CE
:109A980000000000000000000000000000000000BE
:109AA80000000000000000000000000000000000AE
:109AB800000000000000000000000000000000009E
:109AC800000000000000000000000000000000008E
:109AD800000000000000000000000000000000007E
:109AE800000000000000000000000000000000006E
:109AF800000000000000000000000000000000005E
:109B0800000000003000FA00010000000000000022
:109B1800000000000000000000000000000000003D
:109B2800000000000000000000000000000000002D
:109B3800000000000000000000000000000000001D
:109B48000000000000000000550000000000803FF9
:109B5800000100007593883F010F00008716893FB8
:109B6800010E000023DB893F010D0000BE9F8A3FE4
:109B7800010C0000E3A58B3F010B0000CDCC8C3F0E
:109B8800010A00003F358E3F010900000000903FA8
:109B9800010800002506913F020F0000D34D923FB7
:109BA8000107000046B6933F020D00004260953F52
:109BB80001060000C74B973F020B00009A99993F96
:109BC800010500005A649B3F030E00007F6A9C3F1A
:109BD8000209000068919D3F030D00000000A03FAE
:109BE800010400000E2DA23F040F0000AAF1A23FBD
:109BF800030B0000A69BA43F020700006666A63F71
:109C0800030A00008B6CA73F040D0000BE9FAA3F0B
:109C1800010300002DB2AD3F050E00008D97AE3F49
:109C2800040B00000000B03F03080000AE47B13F3E
:109C3800050D00003333B33F020500004260B53F15
:109C4800050C000079E9B63F03070000FED4B83FD1
:109C580004090000713DBA3F050B0000D122BB3F4B
:109C6800060D0000A8C6BB3F070F00000000C03F5C
:109C7800010200005839C43F080F00002FDDC43F1F
:109C8800070D00008FC2C53F060B0000022BC73F1F
:109C9800050900008716C93F04070000BE9FCA3F98
:109CA800070C0000CDCCCC3F0305000052B8CE3FD6
:109CB800080D00000000D03F050800007368D13F80
:109CC800070B0000D34DD23F090E00004260D53F7C
:109CD800020300007593D83F090D00009A99D93FF7
:109CE800070A00005A64DB3F05070000560EDD3FF7
:109CF800080B0000F2D2DD3F0B0F00000000E03F30
:109D080003040000986EE23F0A0D00008195E33FCE
:109D180007090000A69BE43F0B0E00006666E63FBD
:109D28000405000039B4E83F090B0000BE9FEA3F74
:109D380005060000BA49EC3F0B0D00002DB2ED3FBF
:109D480006070000DBF9EE3F0D0F00000000F03FB2
:109D580007080000C1CAF13F080900003333F33F88
:109D6800090A00001D5AF43F0A0B00004260F53F43
:109D78000B0C0000DD24F63F0C0D000079E9F63FDE
:109D88000D0E00008B6CF73F0E0F000000E1F5058B
:04000003000096F172
:00000001FF
