ARM GAS  C:\Users\Akil\AppData\Local\Temp\ccKhHrr3.s 			page 1


   1              		.syntax unified
   2              		.cpu cortex-m3
   3              		.fpu softvfp
   4              		.eabi_attribute 20, 1	@ Tag_ABI_FP_denormal
   5              		.eabi_attribute 21, 1	@ Tag_ABI_FP_exceptions
   6              		.eabi_attribute 23, 3	@ Tag_ABI_FP_number_model
   7              		.eabi_attribute 24, 1	@ Tag_ABI_align8_needed
   8              		.eabi_attribute 25, 1	@ Tag_ABI_align8_preserved
   9              		.eabi_attribute 26, 1	@ Tag_ABI_enum_size
  10              		.eabi_attribute 30, 6	@ Tag_ABI_optimization_goals
  11              		.eabi_attribute 34, 1	@ Tag_CPU_unaligned_access
  12              		.eabi_attribute 18, 4	@ Tag_ABI_PCS_wchar_t
  13              		.file	"crt.c"
  14              	@ GNU C (GNU Tools for ARM Embedded Processors) version 4.8.4 20140526 (release) [ARM/embedded-4_8-
  15              	@	compiled by GNU C version 4.6.4, GMP version 4.3.2, MPFR version 2.4.2, MPC version 0.8.1
  16              	@ GGC heuristics: --param ggc-min-expand=100 --param ggc-min-heapsize=131072
  17              	@ options passed:  -I . -I ./include -I ./cmsis/core -I ./cmsis/device
  18              	@ -I ./prime-framework -I ./prime-framework/include
  19              	@ -I ./prime-framework/arch/arm/cortex-m3/lpc1768/include
  20              	@ -I ./prime-framework/common/include -I ./prime-framework/utils/include
  21              	@ -I ./prime-framework/nativehardware/lpc1768/include
  22              	@ -I ./prime-framework/device/include
  23              	@ -I ./prime-framework/extensions/CANopenARM/include -imultilib armv7-m
  24              	@ -iprefix h:\arm-non-eabi\bin\../lib/gcc/arm-none-eabi/4.8.4/
  25              	@ -isysroot h:\arm-non-eabi\bin\../arm-none-eabi -MD src/crt.d
  26              	@ -MF .dep/crt.o.d -MP -MQ src/crt.o -D__USES_INITFINI__ -D CORE_FAMILY_arm
  27              	@ -D MCU_CHIP_lpc1768 -D PRIME_DEBUG -D RUN_FROM_FLASH=1 src/crt.c
  28              	@ -mcpu=cortex-m3 -mthumb -auxbase-strip src/crt.o -gdwarf-2 -O0 -Wall
  29              	@ -Wstrict-prototypes -fomit-frame-pointer -fverbose-asm
  30              	@ options enabled:  -faggressive-loop-optimizations -fauto-inc-dec
  31              	@ -fbranch-count-reg -fcommon -fdelete-null-pointer-checks -fdwarf2-cfi-asm
  32              	@ -fearly-inlining -feliminate-unused-debug-types -ffunction-cse -fgcse-lm
  33              	@ -fgnu-runtime -fident -finline-atomics -fira-hoist-pressure
  34              	@ -fira-share-save-slots -fira-share-spill-slots -fivopts
  35              	@ -fkeep-static-consts -fleading-underscore -fmath-errno
  36              	@ -fmerge-debug-strings -fmove-loop-invariants -fomit-frame-pointer
  37              	@ -fpeephole -fprefetch-loop-arrays -freg-struct-return
  38              	@ -fsched-critical-path-heuristic -fsched-dep-count-heuristic
  39              	@ -fsched-group-heuristic -fsched-interblock -fsched-last-insn-heuristic
  40              	@ -fsched-rank-heuristic -fsched-spec -fsched-spec-insn-heuristic
  41              	@ -fsched-stalled-insns-dep -fshow-column -fsigned-zeros
  42              	@ -fsplit-ivs-in-unroller -fstrict-volatile-bitfields -fsync-libcalls
  43              	@ -ftrapping-math -ftree-coalesce-vars -ftree-cselim -ftree-forwprop
  44              	@ -ftree-loop-if-convert -ftree-loop-im -ftree-loop-ivcanon
  45              	@ -ftree-loop-optimize -ftree-parallelize-loops= -ftree-phiprop -ftree-pta
  46              	@ -ftree-reassoc -ftree-scev-cprop -ftree-slp-vectorize
  47              	@ -ftree-vect-loop-version -funit-at-a-time -fverbose-asm
  48              	@ -fzero-initialized-in-bss -mfix-cortex-m3-ldrd -mlittle-endian
  49              	@ -mpic-data-is-text-relative -msched-prolog -mthumb -munaligned-access
  50              	@ -mvectorize-with-neon-quad
  51              	
  52              		.text
  53              	.Ltext0:
  54              		.cfi_sections	.debug_frame
  55              		.align	2
  56              		.weak	SystemInit
  57              		.thumb
ARM GAS  C:\Users\Akil\AppData\Local\Temp\ccKhHrr3.s 			page 2


  58              		.thumb_func
  59              		.type	SystemInit, %function
  60              	SystemInit:
  61              	.LFB0:
  62              		.file 1 "src/crt.c"
   1:src/crt.c     **** /****************************************************************************
   2:src/crt.c     **** *  Copyright (c) 2011 by Michael Fischer. All rights reserved.
   3:src/crt.c     **** *
   4:src/crt.c     **** *  Redistribution and use in source and binary forms, with or without 
   5:src/crt.c     **** *  modification, are permitted provided that the following conditions 
   6:src/crt.c     **** *  are met:
   7:src/crt.c     **** *  
   8:src/crt.c     **** *  1. Redistributions of source code must retain the above copyright 
   9:src/crt.c     **** *     notice, this list of conditions and the following disclaimer.
  10:src/crt.c     **** *  2. Redistributions in binary form must reproduce the above copyright
  11:src/crt.c     **** *     notice, this list of conditions and the following disclaimer in the 
  12:src/crt.c     **** *     documentation and/or other materials provided with the distribution.
  13:src/crt.c     **** *  3. Neither the name of the author nor the names of its contributors may 
  14:src/crt.c     **** *     be used to endorse or promote products derived from this software 
  15:src/crt.c     **** *     without specific prior written permission.
  16:src/crt.c     **** *
  17:src/crt.c     **** *  THIS SOFTWARE IS PROVIDED BY THE COPYRIGHT HOLDERS AND CONTRIBUTORS 
  18:src/crt.c     **** *  "AS IS" AND ANY EXPRESS OR IMPLIED WARRANTIES, INCLUDING, BUT NOT 
  19:src/crt.c     **** *  LIMITED TO, THE IMPLIED WARRANTIES OF MERCHANTABILITY AND FITNESS 
  20:src/crt.c     **** *  FOR A PARTICULAR PURPOSE ARE DISCLAIMED. IN NO EVENT SHALL 
  21:src/crt.c     **** *  THE COPYRIGHT OWNER OR CONTRIBUTORS BE LIABLE FOR ANY DIRECT, INDIRECT, 
  22:src/crt.c     **** *  INCIDENTAL, SPECIAL, EXEMPLARY, OR CONSEQUENTIAL DAMAGES (INCLUDING, 
  23:src/crt.c     **** *  BUT NOT LIMITED TO, PROCUREMENT OF SUBSTITUTE GOODS OR SERVICES; LOSS 
  24:src/crt.c     **** *  OF USE, DATA, OR PROFITS; OR BUSINESS INTERRUPTION) HOWEVER CAUSED 
  25:src/crt.c     **** *  AND ON ANY THEORY OF LIABILITY, WHETHER IN CONTRACT, STRICT LIABILITY, 
  26:src/crt.c     **** *  OR TORT (INCLUDING NEGLIGENCE OR OTHERWISE) ARISING IN ANY WAY OUT OF 
  27:src/crt.c     **** *  THE USE OF THIS SOFTWARE, EVEN IF ADVISED OF THE POSSIBILITY OF 
  28:src/crt.c     **** *  SUCH DAMAGE.
  29:src/crt.c     **** *
  30:src/crt.c     **** ****************************************************************************
  31:src/crt.c     **** *  History:
  32:src/crt.c     **** *
  33:src/crt.c     **** *  09.04.2011  mifi  First Version
  34:src/crt.c     **** *  29.04.2011  mifi  Call SystemInit, and set the Vector Table Offset
  35:src/crt.c     **** *                    before copy of data and bss segment.
  36:src/crt.c     **** ****************************************************************************/
  37:src/crt.c     **** #define __CRT_C__
  38:src/crt.c     **** 
  39:src/crt.c     **** #include <stdint.h>
  40:src/crt.c     **** 
  41:src/crt.c     **** /*=========================================================================*/
  42:src/crt.c     **** /*  DEFINE: All extern Data                                                */
  43:src/crt.c     **** /*=========================================================================*/
  44:src/crt.c     **** /*
  45:src/crt.c     ****  * The next data are defined by the linker script.
  46:src/crt.c     ****  */
  47:src/crt.c     **** extern unsigned long _stext;
  48:src/crt.c     **** extern unsigned long _etext;
  49:src/crt.c     **** extern unsigned long _sdata;
  50:src/crt.c     **** extern unsigned long _edata;
  51:src/crt.c     **** extern unsigned long _sbss;
  52:src/crt.c     **** extern unsigned long _ebss;
ARM GAS  C:\Users\Akil\AppData\Local\Temp\ccKhHrr3.s 			page 3


  53:src/crt.c     **** extern unsigned long _estack;
  54:src/crt.c     **** 
  55:src/crt.c     **** /* This is the main */
  56:src/crt.c     **** extern int main (void);
  57:src/crt.c     **** 
  58:src/crt.c     **** /*=========================================================================*/
  59:src/crt.c     **** /*  DEFINE: Prototypes                                                     */
  60:src/crt.c     **** /*=========================================================================*/
  61:src/crt.c     **** void SystemInit (void) __attribute__((weak));
  62:src/crt.c     **** 
  63:src/crt.c     **** /*=========================================================================*/
  64:src/crt.c     **** /*  DEFINE: All code exported                                              */
  65:src/crt.c     **** /*=========================================================================*/
  66:src/crt.c     **** 
  67:src/crt.c     **** /***************************************************************************/
  68:src/crt.c     **** /*  SystemInit                                                             */
  69:src/crt.c     **** /*                                                                         */
  70:src/crt.c     **** /*  SystemInit is a function which is provided by the CMSIS interface.     */
  71:src/crt.c     **** /*  If this function is not available, we need a function here to prevent  */
  72:src/crt.c     **** /*  an error of the linker. Therefore this function is declared as weak.   */
  73:src/crt.c     **** /***************************************************************************/
  74:src/crt.c     **** void SystemInit (void)
  75:src/crt.c     **** {
  63              		.loc 1 75 0
  64              		.cfi_startproc
  65              		@ args = 0, pretend = 0, frame = 0
  66              		@ frame_needed = 0, uses_anonymous_args = 0
  67              		@ link register save eliminated.
  76:src/crt.c     **** } /* SystemInit */
  68              		.loc 1 76 0
  69 0000 7047     		bx	lr	@
  70              		.cfi_endproc
  71              	.LFE0:
  72              		.size	SystemInit, .-SystemInit
  73 0002 00BF     		.align	2
  74              		.global	ResetHandler
  75              		.thumb
  76              		.thumb_func
  77              		.type	ResetHandler, %function
  78              	ResetHandler:
  79              	.LFB1:
  77:src/crt.c     **** 
  78:src/crt.c     **** /***************************************************************************/
  79:src/crt.c     **** /*  ResetHandler                                                           */
  80:src/crt.c     **** /*                                                                         */
  81:src/crt.c     **** /*  This function is used for the C runtime initialisation,                */
  82:src/crt.c     **** /*  for handling the .data and .bss segments.                              */
  83:src/crt.c     **** /***************************************************************************/
  84:src/crt.c     **** void ResetHandler (void)
  85:src/crt.c     **** {
  80              		.loc 1 85 0
  81              		.cfi_startproc
  82              		@ args = 0, pretend = 0, frame = 8
  83              		@ frame_needed = 0, uses_anonymous_args = 0
  84 0004 00B5     		push	{lr}	@
  85              	.LCFI0:
  86              		.cfi_def_cfa_offset 4
ARM GAS  C:\Users\Akil\AppData\Local\Temp\ccKhHrr3.s 			page 4


  87              		.cfi_offset 14, -4
  88 0006 83B0     		sub	sp, sp, #12	@,,
  89              	.LCFI1:
  90              		.cfi_def_cfa_offset 16
  86:src/crt.c     ****    uint32_t *pSrc;
  87:src/crt.c     ****    uint32_t *pDest;
  88:src/crt.c     ****    
  89:src/crt.c     ****    /*
  90:src/crt.c     ****     * Call the SystemInit code from CMSIS interface if available.
  91:src/crt.c     ****     * SystemInit is a week function which can be override
  92:src/crt.c     ****     * by an external function.
  93:src/crt.c     ****     */
  94:src/crt.c     ****    SystemInit();    
  91              		.loc 1 94 0
  92 0008 FFF7FEFF 		bl	SystemInit	@
  95:src/crt.c     ****    
  96:src/crt.c     ****    /*
  97:src/crt.c     ****     * Set the "Vector Table Offset Register". From the ARM
  98:src/crt.c     ****     * documentation, we got the following information:
  99:src/crt.c     ****     *
 100:src/crt.c     ****     * Use the Vector Table Offset Register to determine:
 101:src/crt.c     ****     *  - if the vector table is in RAM or code memory
 102:src/crt.c     ****     *  - the vector table offset.    
 103:src/crt.c     ****     */
 104:src/crt.c     ****    *((uint32_t*)0xE000ED08) = (uint32_t)&_stext;
  93              		.loc 1 104 0
  94 000c 114B     		ldr	r3, .L8	@ D.4143,
  95 000e 124A     		ldr	r2, .L8+4	@ _stext.0,
  96 0010 1A60     		str	r2, [r3]	@ _stext.0, *_4
 105:src/crt.c     ****    
 106:src/crt.c     ****    /*
 107:src/crt.c     ****     * Copy the initialized data of the ".data" segment
 108:src/crt.c     ****     * from the flash to the are in the ram.
 109:src/crt.c     ****     */
 110:src/crt.c     ****    pSrc  = &_etext;
  97              		.loc 1 110 0
  98 0012 124B     		ldr	r3, .L8+8	@ tmp116,
  99 0014 0193     		str	r3, [sp, #4]	@ tmp116, pSrc
 111:src/crt.c     ****    pDest = &_sdata;
 100              		.loc 1 111 0
 101 0016 124B     		ldr	r3, .L8+12	@ tmp117,
 102 0018 0093     		str	r3, [sp]	@ tmp117, pDest
 112:src/crt.c     ****    while(pDest < &_edata)
 103              		.loc 1 112 0
 104 001a 07E0     		b	.L3	@
 105              	.L4:
 113:src/crt.c     ****    {
 114:src/crt.c     ****       *pDest++ = *pSrc++;
 106              		.loc 1 114 0
 107 001c 009B     		ldr	r3, [sp]	@ pDest.1, pDest
 108 001e 1A1D     		adds	r2, r3, #4	@ tmp118, pDest.1,
 109 0020 0092     		str	r2, [sp]	@ tmp118, pDest
 110 0022 019A     		ldr	r2, [sp, #4]	@ pSrc.2, pSrc
 111 0024 111D     		adds	r1, r2, #4	@ tmp119, pSrc.2,
 112 0026 0191     		str	r1, [sp, #4]	@ tmp119, pSrc
 113 0028 1268     		ldr	r2, [r2]	@ D.4144, *pSrc.2_10
 114 002a 1A60     		str	r2, [r3]	@ D.4144, *pDest.1_8
ARM GAS  C:\Users\Akil\AppData\Local\Temp\ccKhHrr3.s 			page 5


 115              	.L3:
 112:src/crt.c     ****    while(pDest < &_edata)
 116              		.loc 1 112 0 discriminator 1
 117 002c 009A     		ldr	r2, [sp]	@ tmp120, pDest
 118 002e 0D4B     		ldr	r3, .L8+16	@ tmp121,
 119 0030 9A42     		cmp	r2, r3	@ tmp120, tmp121
 120 0032 F3D3     		bcc	.L4	@,
 115:src/crt.c     ****    }
 116:src/crt.c     ****    
 117:src/crt.c     ****    /*
 118:src/crt.c     ****     * Clear the ".bss" segment.
 119:src/crt.c     ****     */
 120:src/crt.c     ****    pDest = &_sbss;
 121              		.loc 1 120 0
 122 0034 0C4B     		ldr	r3, .L8+20	@ tmp122,
 123 0036 0093     		str	r3, [sp]	@ tmp122, pDest
 121:src/crt.c     ****    while(pDest < &_ebss)
 124              		.loc 1 121 0
 125 0038 04E0     		b	.L5	@
 126              	.L6:
 122:src/crt.c     ****    {
 123:src/crt.c     ****       *pDest++ = 0;
 127              		.loc 1 123 0
 128 003a 009B     		ldr	r3, [sp]	@ pDest.3, pDest
 129 003c 1A1D     		adds	r2, r3, #4	@ tmp123, pDest.3,
 130 003e 0092     		str	r2, [sp]	@ tmp123, pDest
 131 0040 0022     		movs	r2, #0	@ tmp124,
 132 0042 1A60     		str	r2, [r3]	@ tmp124, *pDest.3_14
 133              	.L5:
 121:src/crt.c     ****    while(pDest < &_ebss)
 134              		.loc 1 121 0 discriminator 1
 135 0044 009A     		ldr	r2, [sp]	@ tmp125, pDest
 136 0046 094B     		ldr	r3, .L8+24	@ tmp126,
 137 0048 9A42     		cmp	r2, r3	@ tmp125, tmp126
 138 004a F6D3     		bcc	.L6	@,
 124:src/crt.c     ****    }
 125:src/crt.c     ****    
 126:src/crt.c     ****    /*
 127:src/crt.c     ****     * And now the main function can be called.
 128:src/crt.c     ****     * Scotty, energie...
 129:src/crt.c     ****     */       
 130:src/crt.c     ****    main();    
 139              		.loc 1 130 0
 140 004c FFF7FEFF 		bl	main	@
 141              	.L7:
 131:src/crt.c     ****    
 132:src/crt.c     ****    /*
 133:src/crt.c     ****     * In case there are problems with the
 134:src/crt.c     ****     * "warp drive", stop here.
 135:src/crt.c     ****     */
 136:src/crt.c     ****    while(1) {};    
 142              		.loc 1 136 0 discriminator 1
 143 0050 FEE7     		b	.L7	@
 144              	.L9:
 145 0052 00BF     		.align	2
 146              	.L8:
 147 0054 08ED00E0 		.word	-536810232
ARM GAS  C:\Users\Akil\AppData\Local\Temp\ccKhHrr3.s 			page 6


 148 0058 00000000 		.word	_stext
 149 005c 00000000 		.word	_etext
 150 0060 00000000 		.word	_sdata
 151 0064 00000000 		.word	_edata
 152 0068 00000000 		.word	_sbss
 153 006c 00000000 		.word	_ebss
 154              		.cfi_endproc
 155              	.LFE1:
 156              		.size	ResetHandler, .-ResetHandler
 157              	.Letext0:
 158              		.file 2 "h:\\arm-non-eabi\\arm-none-eabi\\include\\machine\\_default_types.h"
 159              		.file 3 "h:\\arm-non-eabi\\arm-none-eabi\\include\\stdint.h"
