ARM GAS  C:\Users\Akil\AppData\Local\Temp\ccrFjqgU.s 			page 1


   1              		.syntax unified
   2              		.cpu cortex-m3
   3              		.fpu softvfp
   4              		.eabi_attribute 20, 1	@ Tag_ABI_FP_denormal
   5              		.eabi_attribute 21, 1	@ Tag_ABI_FP_exceptions
   6              		.eabi_attribute 23, 3	@ Tag_ABI_FP_number_model
   7              		.eabi_attribute 24, 1	@ Tag_ABI_align8_needed
   8              		.eabi_attribute 25, 1	@ Tag_ABI_align8_preserved
   9              		.eabi_attribute 26, 1	@ Tag_ABI_enum_size
  10              		.eabi_attribute 30, 6	@ Tag_ABI_optimization_goals
  11              		.eabi_attribute 34, 1	@ Tag_CPU_unaligned_access
  12              		.eabi_attribute 18, 4	@ Tag_ABI_PCS_wchar_t
  13              		.file	"Example_Master.c"
  14              	@ GNU C (GNU Tools for ARM Embedded Processors) version 4.8.4 20140526 (release) [ARM/embedded-4_8-
  15              	@	compiled by GNU C version 4.6.4, GMP version 4.3.2, MPFR version 2.4.2, MPC version 0.8.1
  16              	@ GGC heuristics: --param ggc-min-expand=100 --param ggc-min-heapsize=131072
  17              	@ options passed:  -I . -I ./include -I ./cmsis/core -I ./cmsis/device
  18              	@ -I ./prime-framework -I ./prime-framework/include
  19              	@ -I ./prime-framework/arch/arm/cortex-m3/lpc1768/include
  20              	@ -I ./prime-framework/common/include -I ./prime-framework/utils/include
  21              	@ -I ./prime-framework/nativehardware/lpc1768/include
  22              	@ -I ./prime-framework/device/include
  23              	@ -I ./prime-framework/extensions/CANopenARM/include -imultilib armv7-m
  24              	@ -iprefix h:\arm-non-eabi\bin\../lib/gcc/arm-none-eabi/4.8.4/
  25              	@ -isysroot h:\arm-non-eabi\bin\../arm-none-eabi -MD src/Example_Master.d
  26              	@ -MF .dep/Example_Master.o.d -MP -MQ src/Example_Master.o
  27              	@ -D__USES_INITFINI__ -D CORE_FAMILY_arm -D MCU_CHIP_lpc1768 -D PRIME_DEBUG
  28              	@ -D RUN_FROM_FLASH=1 src/Example_Master.c -mcpu=cortex-m3 -mthumb
  29              	@ -auxbase-strip src/Example_Master.o -gdwarf-2 -O0 -Wall
  30              	@ -Wstrict-prototypes -fomit-frame-pointer -fverbose-asm
  31              	@ options enabled:  -faggressive-loop-optimizations -fauto-inc-dec
  32              	@ -fbranch-count-reg -fcommon -fdelete-null-pointer-checks -fdwarf2-cfi-asm
  33              	@ -fearly-inlining -feliminate-unused-debug-types -ffunction-cse -fgcse-lm
  34              	@ -fgnu-runtime -fident -finline-atomics -fira-hoist-pressure
  35              	@ -fira-share-save-slots -fira-share-spill-slots -fivopts
  36              	@ -fkeep-static-consts -fleading-underscore -fmath-errno
  37              	@ -fmerge-debug-strings -fmove-loop-invariants -fomit-frame-pointer
  38              	@ -fpeephole -fprefetch-loop-arrays -freg-struct-return
  39              	@ -fsched-critical-path-heuristic -fsched-dep-count-heuristic
  40              	@ -fsched-group-heuristic -fsched-interblock -fsched-last-insn-heuristic
  41              	@ -fsched-rank-heuristic -fsched-spec -fsched-spec-insn-heuristic
  42              	@ -fsched-stalled-insns-dep -fshow-column -fsigned-zeros
  43              	@ -fsplit-ivs-in-unroller -fstrict-volatile-bitfields -fsync-libcalls
  44              	@ -ftrapping-math -ftree-coalesce-vars -ftree-cselim -ftree-forwprop
  45              	@ -ftree-loop-if-convert -ftree-loop-im -ftree-loop-ivcanon
  46              	@ -ftree-loop-optimize -ftree-parallelize-loops= -ftree-phiprop -ftree-pta
  47              	@ -ftree-reassoc -ftree-scev-cprop -ftree-slp-vectorize
  48              	@ -ftree-vect-loop-version -funit-at-a-time -fverbose-asm
  49              	@ -fzero-initialized-in-bss -mfix-cortex-m3-ldrd -mlittle-endian
  50              	@ -mpic-data-is-text-relative -msched-prolog -mthumb -munaligned-access
  51              	@ -mvectorize-with-neon-quad
  52              	
  53              		.text
  54              	.Ltext0:
  55              		.cfi_sections	.debug_frame
  56              		.align	2
  57              		.thumb
ARM GAS  C:\Users\Akil\AppData\Local\Temp\ccrFjqgU.s 			page 2


  58              		.thumb_func
  59              		.type	NVIC_EnableIRQ, %function
  60              	NVIC_EnableIRQ:
  61              	.LFB40:
  62              		.file 1 "./prime-framework/arch/arm/cortex-m3/lpc1768/include/core_cm3.h"
   1:./prime-framework/arch/arm/cortex-m3/lpc1768/include/core_cm3.h **** /**************************************************************************//**
   2:./prime-framework/arch/arm/cortex-m3/lpc1768/include/core_cm3.h ****  * @file     core_cm3.h
   3:./prime-framework/arch/arm/cortex-m3/lpc1768/include/core_cm3.h ****  * @brief    CMSIS Cortex-M3 Core Peripheral Access Layer Header File
   4:./prime-framework/arch/arm/cortex-m3/lpc1768/include/core_cm3.h ****  * @version  V2.01
   5:./prime-framework/arch/arm/cortex-m3/lpc1768/include/core_cm3.h ****  * @date     06. December 2010
   6:./prime-framework/arch/arm/cortex-m3/lpc1768/include/core_cm3.h ****  *
   7:./prime-framework/arch/arm/cortex-m3/lpc1768/include/core_cm3.h ****  * @note
   8:./prime-framework/arch/arm/cortex-m3/lpc1768/include/core_cm3.h ****  * Copyright (C) 2009-2010 ARM Limited. All rights reserved.
   9:./prime-framework/arch/arm/cortex-m3/lpc1768/include/core_cm3.h ****  *
  10:./prime-framework/arch/arm/cortex-m3/lpc1768/include/core_cm3.h ****  * @par
  11:./prime-framework/arch/arm/cortex-m3/lpc1768/include/core_cm3.h ****  * ARM Limited (ARM) is supplying this software for use with Cortex-M
  12:./prime-framework/arch/arm/cortex-m3/lpc1768/include/core_cm3.h ****  * processor based microcontrollers.  This file can be freely distributed
  13:./prime-framework/arch/arm/cortex-m3/lpc1768/include/core_cm3.h ****  * within development tools that are supporting such ARM based processors.
  14:./prime-framework/arch/arm/cortex-m3/lpc1768/include/core_cm3.h ****  *
  15:./prime-framework/arch/arm/cortex-m3/lpc1768/include/core_cm3.h ****  * @par
  16:./prime-framework/arch/arm/cortex-m3/lpc1768/include/core_cm3.h ****  * THIS SOFTWARE IS PROVIDED "AS IS".  NO WARRANTIES, WHETHER EXPRESS, IMPLIED
  17:./prime-framework/arch/arm/cortex-m3/lpc1768/include/core_cm3.h ****  * OR STATUTORY, INCLUDING, BUT NOT LIMITED TO, IMPLIED WARRANTIES OF
  18:./prime-framework/arch/arm/cortex-m3/lpc1768/include/core_cm3.h ****  * MERCHANTABILITY AND FITNESS FOR A PARTICULAR PURPOSE APPLY TO THIS SOFTWARE.
  19:./prime-framework/arch/arm/cortex-m3/lpc1768/include/core_cm3.h ****  * ARM SHALL NOT, IN ANY CIRCUMSTANCES, BE LIABLE FOR SPECIAL, INCIDENTAL, OR
  20:./prime-framework/arch/arm/cortex-m3/lpc1768/include/core_cm3.h ****  * CONSEQUENTIAL DAMAGES, FOR ANY REASON WHATSOEVER.
  21:./prime-framework/arch/arm/cortex-m3/lpc1768/include/core_cm3.h ****  *
  22:./prime-framework/arch/arm/cortex-m3/lpc1768/include/core_cm3.h ****  ******************************************************************************/
  23:./prime-framework/arch/arm/cortex-m3/lpc1768/include/core_cm3.h **** #if defined ( __ICCARM__ )
  24:./prime-framework/arch/arm/cortex-m3/lpc1768/include/core_cm3.h ****  #pragma system_include  /* treat file as system include file for MISRA check */
  25:./prime-framework/arch/arm/cortex-m3/lpc1768/include/core_cm3.h **** #endif
  26:./prime-framework/arch/arm/cortex-m3/lpc1768/include/core_cm3.h **** 
  27:./prime-framework/arch/arm/cortex-m3/lpc1768/include/core_cm3.h **** #ifdef __cplusplus
  28:./prime-framework/arch/arm/cortex-m3/lpc1768/include/core_cm3.h ****  extern "C" {
  29:./prime-framework/arch/arm/cortex-m3/lpc1768/include/core_cm3.h **** #endif
  30:./prime-framework/arch/arm/cortex-m3/lpc1768/include/core_cm3.h **** 
  31:./prime-framework/arch/arm/cortex-m3/lpc1768/include/core_cm3.h **** #ifndef __CORE_CM3_H_GENERIC
  32:./prime-framework/arch/arm/cortex-m3/lpc1768/include/core_cm3.h **** #define __CORE_CM3_H_GENERIC
  33:./prime-framework/arch/arm/cortex-m3/lpc1768/include/core_cm3.h **** 
  34:./prime-framework/arch/arm/cortex-m3/lpc1768/include/core_cm3.h **** /** @addtogroup CMSIS_core_LintCinfiguration CMSIS Core Lint Configuration
  35:./prime-framework/arch/arm/cortex-m3/lpc1768/include/core_cm3.h ****   List of Lint messages which will be suppressed and not shown:
  36:./prime-framework/arch/arm/cortex-m3/lpc1768/include/core_cm3.h ****     - not yet checked
  37:./prime-framework/arch/arm/cortex-m3/lpc1768/include/core_cm3.h ****   .
  38:./prime-framework/arch/arm/cortex-m3/lpc1768/include/core_cm3.h ****   Note:  To re-enable a Message, insert a space before 'lint' *
  39:./prime-framework/arch/arm/cortex-m3/lpc1768/include/core_cm3.h **** 
  40:./prime-framework/arch/arm/cortex-m3/lpc1768/include/core_cm3.h ****  */
  41:./prime-framework/arch/arm/cortex-m3/lpc1768/include/core_cm3.h **** 
  42:./prime-framework/arch/arm/cortex-m3/lpc1768/include/core_cm3.h **** 
  43:./prime-framework/arch/arm/cortex-m3/lpc1768/include/core_cm3.h **** /*******************************************************************************
  44:./prime-framework/arch/arm/cortex-m3/lpc1768/include/core_cm3.h ****  *                 CMSIS definitions
  45:./prime-framework/arch/arm/cortex-m3/lpc1768/include/core_cm3.h ****  ******************************************************************************/
  46:./prime-framework/arch/arm/cortex-m3/lpc1768/include/core_cm3.h **** /** @addtogroup CMSIS_core_definitions CMSIS Core Definitions
  47:./prime-framework/arch/arm/cortex-m3/lpc1768/include/core_cm3.h ****   This file defines all structures and symbols for CMSIS core:
  48:./prime-framework/arch/arm/cortex-m3/lpc1768/include/core_cm3.h ****    - CMSIS version number
  49:./prime-framework/arch/arm/cortex-m3/lpc1768/include/core_cm3.h ****    - Cortex-M core
  50:./prime-framework/arch/arm/cortex-m3/lpc1768/include/core_cm3.h ****    - Cortex-M core Revision Number
  51:./prime-framework/arch/arm/cortex-m3/lpc1768/include/core_cm3.h ****   @{
  52:./prime-framework/arch/arm/cortex-m3/lpc1768/include/core_cm3.h ****  */
ARM GAS  C:\Users\Akil\AppData\Local\Temp\ccrFjqgU.s 			page 3


  53:./prime-framework/arch/arm/cortex-m3/lpc1768/include/core_cm3.h **** 
  54:./prime-framework/arch/arm/cortex-m3/lpc1768/include/core_cm3.h **** /*  CMSIS CM3 definitions */
  55:./prime-framework/arch/arm/cortex-m3/lpc1768/include/core_cm3.h **** #define __CM3_CMSIS_VERSION_MAIN  (0x02)                                                       /*!<
  56:./prime-framework/arch/arm/cortex-m3/lpc1768/include/core_cm3.h **** #define __CM3_CMSIS_VERSION_SUB   (0x00)                                                       /*!<
  57:./prime-framework/arch/arm/cortex-m3/lpc1768/include/core_cm3.h **** #define __CM3_CMSIS_VERSION       ((__CM3_CMSIS_VERSION_MAIN << 16) | __CM3_CMSIS_VERSION_SUB) /*!<
  58:./prime-framework/arch/arm/cortex-m3/lpc1768/include/core_cm3.h **** 
  59:./prime-framework/arch/arm/cortex-m3/lpc1768/include/core_cm3.h **** #define __CORTEX_M                (0x03)                                                       /*!<
  60:./prime-framework/arch/arm/cortex-m3/lpc1768/include/core_cm3.h **** 
  61:./prime-framework/arch/arm/cortex-m3/lpc1768/include/core_cm3.h **** 
  62:./prime-framework/arch/arm/cortex-m3/lpc1768/include/core_cm3.h **** #if defined ( __CC_ARM   )
  63:./prime-framework/arch/arm/cortex-m3/lpc1768/include/core_cm3.h ****   #define __ASM            __asm                                      /*!< asm keyword for ARM Comp
  64:./prime-framework/arch/arm/cortex-m3/lpc1768/include/core_cm3.h ****   #define __INLINE         __inline                                   /*!< inline keyword for ARM C
  65:./prime-framework/arch/arm/cortex-m3/lpc1768/include/core_cm3.h **** 
  66:./prime-framework/arch/arm/cortex-m3/lpc1768/include/core_cm3.h **** #elif defined ( __ICCARM__ )
  67:./prime-framework/arch/arm/cortex-m3/lpc1768/include/core_cm3.h ****   #define __ASM           __asm                                       /*!< asm keyword for IAR Comp
  68:./prime-framework/arch/arm/cortex-m3/lpc1768/include/core_cm3.h ****   #define __INLINE        inline                                      /*!< inline keyword for IAR C
  69:./prime-framework/arch/arm/cortex-m3/lpc1768/include/core_cm3.h **** 
  70:./prime-framework/arch/arm/cortex-m3/lpc1768/include/core_cm3.h **** #elif defined   (  __GNUC__  )
  71:./prime-framework/arch/arm/cortex-m3/lpc1768/include/core_cm3.h ****   #define __ASM            __asm                                      /*!< asm keyword for GNU Comp
  72:./prime-framework/arch/arm/cortex-m3/lpc1768/include/core_cm3.h ****   #define __INLINE         inline                                     /*!< inline keyword for GNU C
  73:./prime-framework/arch/arm/cortex-m3/lpc1768/include/core_cm3.h **** 
  74:./prime-framework/arch/arm/cortex-m3/lpc1768/include/core_cm3.h **** #elif defined   (  __TASKING__  )
  75:./prime-framework/arch/arm/cortex-m3/lpc1768/include/core_cm3.h ****   #define __ASM            __asm                                      /*!< asm keyword for TASKING 
  76:./prime-framework/arch/arm/cortex-m3/lpc1768/include/core_cm3.h ****   #define __INLINE         inline                                     /*!< inline keyword for TASKI
  77:./prime-framework/arch/arm/cortex-m3/lpc1768/include/core_cm3.h **** 
  78:./prime-framework/arch/arm/cortex-m3/lpc1768/include/core_cm3.h **** #endif
  79:./prime-framework/arch/arm/cortex-m3/lpc1768/include/core_cm3.h **** 
  80:./prime-framework/arch/arm/cortex-m3/lpc1768/include/core_cm3.h **** #include <stdint.h>                      /*!< standard types definitions                      */
  81:./prime-framework/arch/arm/cortex-m3/lpc1768/include/core_cm3.h **** #include "core_cmInstr.h"                /*!< Core Instruction Access                         */
  82:./prime-framework/arch/arm/cortex-m3/lpc1768/include/core_cm3.h **** #include "core_cmFunc.h"                 /*!< Core Function Access                            */
  83:./prime-framework/arch/arm/cortex-m3/lpc1768/include/core_cm3.h **** 
  84:./prime-framework/arch/arm/cortex-m3/lpc1768/include/core_cm3.h **** #endif /* __CORE_CM3_H_GENERIC */
  85:./prime-framework/arch/arm/cortex-m3/lpc1768/include/core_cm3.h **** 
  86:./prime-framework/arch/arm/cortex-m3/lpc1768/include/core_cm3.h **** 
  87:./prime-framework/arch/arm/cortex-m3/lpc1768/include/core_cm3.h **** #ifndef __CMSIS_GENERIC
  88:./prime-framework/arch/arm/cortex-m3/lpc1768/include/core_cm3.h **** 
  89:./prime-framework/arch/arm/cortex-m3/lpc1768/include/core_cm3.h **** #ifndef __CORE_CM3_H_DEPENDANT
  90:./prime-framework/arch/arm/cortex-m3/lpc1768/include/core_cm3.h **** #define __CORE_CM3_H_DEPENDANT
  91:./prime-framework/arch/arm/cortex-m3/lpc1768/include/core_cm3.h **** 
  92:./prime-framework/arch/arm/cortex-m3/lpc1768/include/core_cm3.h **** /* IO definitions (access restrictions to peripheral registers) */
  93:./prime-framework/arch/arm/cortex-m3/lpc1768/include/core_cm3.h **** #ifdef __cplusplus
  94:./prime-framework/arch/arm/cortex-m3/lpc1768/include/core_cm3.h ****   #define     __I     volatile           /*!< defines 'read only' permissions                 */
  95:./prime-framework/arch/arm/cortex-m3/lpc1768/include/core_cm3.h **** #else
  96:./prime-framework/arch/arm/cortex-m3/lpc1768/include/core_cm3.h ****   #define     __I     volatile const     /*!< defines 'read only' permissions                 */
  97:./prime-framework/arch/arm/cortex-m3/lpc1768/include/core_cm3.h **** #endif
  98:./prime-framework/arch/arm/cortex-m3/lpc1768/include/core_cm3.h **** #define     __O     volatile             /*!< defines 'write only' permissions                */
  99:./prime-framework/arch/arm/cortex-m3/lpc1768/include/core_cm3.h **** #define     __IO    volatile             /*!< defines 'read / write' permissions              */
 100:./prime-framework/arch/arm/cortex-m3/lpc1768/include/core_cm3.h **** 
 101:./prime-framework/arch/arm/cortex-m3/lpc1768/include/core_cm3.h **** /*@} end of group CMSIS_core_definitions */
 102:./prime-framework/arch/arm/cortex-m3/lpc1768/include/core_cm3.h **** 
 103:./prime-framework/arch/arm/cortex-m3/lpc1768/include/core_cm3.h **** 
 104:./prime-framework/arch/arm/cortex-m3/lpc1768/include/core_cm3.h **** 
 105:./prime-framework/arch/arm/cortex-m3/lpc1768/include/core_cm3.h **** /*******************************************************************************
 106:./prime-framework/arch/arm/cortex-m3/lpc1768/include/core_cm3.h ****  *                 Register Abstraction
 107:./prime-framework/arch/arm/cortex-m3/lpc1768/include/core_cm3.h ****  ******************************************************************************/
 108:./prime-framework/arch/arm/cortex-m3/lpc1768/include/core_cm3.h **** /** @addtogroup CMSIS_core_register CMSIS Core Register
 109:./prime-framework/arch/arm/cortex-m3/lpc1768/include/core_cm3.h ****   Core Register contain:
ARM GAS  C:\Users\Akil\AppData\Local\Temp\ccrFjqgU.s 			page 4


 110:./prime-framework/arch/arm/cortex-m3/lpc1768/include/core_cm3.h ****   - Core Register
 111:./prime-framework/arch/arm/cortex-m3/lpc1768/include/core_cm3.h ****   - Core NVIC Register
 112:./prime-framework/arch/arm/cortex-m3/lpc1768/include/core_cm3.h ****   - Core SCB Register
 113:./prime-framework/arch/arm/cortex-m3/lpc1768/include/core_cm3.h ****   - Core SysTick Register
 114:./prime-framework/arch/arm/cortex-m3/lpc1768/include/core_cm3.h ****   - Core Debug Register
 115:./prime-framework/arch/arm/cortex-m3/lpc1768/include/core_cm3.h ****   - Core MPU Register
 116:./prime-framework/arch/arm/cortex-m3/lpc1768/include/core_cm3.h **** */
 117:./prime-framework/arch/arm/cortex-m3/lpc1768/include/core_cm3.h **** 
 118:./prime-framework/arch/arm/cortex-m3/lpc1768/include/core_cm3.h **** /** \ingroup  CMSIS_core_register
 119:./prime-framework/arch/arm/cortex-m3/lpc1768/include/core_cm3.h ****     \defgroup CMSIS_CORE CMSIS Core
 120:./prime-framework/arch/arm/cortex-m3/lpc1768/include/core_cm3.h ****   Type definitions for the Cortex-M Core Registers
 121:./prime-framework/arch/arm/cortex-m3/lpc1768/include/core_cm3.h ****   @{
 122:./prime-framework/arch/arm/cortex-m3/lpc1768/include/core_cm3.h ****  */
 123:./prime-framework/arch/arm/cortex-m3/lpc1768/include/core_cm3.h **** 
 124:./prime-framework/arch/arm/cortex-m3/lpc1768/include/core_cm3.h **** /** \brief  Union type to access the Application Program Status Register (APSR).
 125:./prime-framework/arch/arm/cortex-m3/lpc1768/include/core_cm3.h ****  */
 126:./prime-framework/arch/arm/cortex-m3/lpc1768/include/core_cm3.h **** typedef union
 127:./prime-framework/arch/arm/cortex-m3/lpc1768/include/core_cm3.h **** {
 128:./prime-framework/arch/arm/cortex-m3/lpc1768/include/core_cm3.h ****   struct
 129:./prime-framework/arch/arm/cortex-m3/lpc1768/include/core_cm3.h ****   {
 130:./prime-framework/arch/arm/cortex-m3/lpc1768/include/core_cm3.h **** #if (__CORTEX_M != 0x04)
 131:./prime-framework/arch/arm/cortex-m3/lpc1768/include/core_cm3.h ****     uint32_t _reserved0:27;              /*!< bit:  0..26  Reserved                           */
 132:./prime-framework/arch/arm/cortex-m3/lpc1768/include/core_cm3.h **** #else
 133:./prime-framework/arch/arm/cortex-m3/lpc1768/include/core_cm3.h ****     uint32_t _reserved0:16;              /*!< bit:  0..15  Reserved                           */
 134:./prime-framework/arch/arm/cortex-m3/lpc1768/include/core_cm3.h ****     uint32_t GE:4;                       /*!< bit: 16..19  Greater than or Equal flags        */
 135:./prime-framework/arch/arm/cortex-m3/lpc1768/include/core_cm3.h ****     uint32_t _reserved1:7;               /*!< bit: 20..26  Reserved                           */
 136:./prime-framework/arch/arm/cortex-m3/lpc1768/include/core_cm3.h **** #endif
 137:./prime-framework/arch/arm/cortex-m3/lpc1768/include/core_cm3.h ****     uint32_t Q:1;                        /*!< bit:     27  Saturation condition flag          */
 138:./prime-framework/arch/arm/cortex-m3/lpc1768/include/core_cm3.h ****     uint32_t V:1;                        /*!< bit:     28  Overflow condition code flag       */
 139:./prime-framework/arch/arm/cortex-m3/lpc1768/include/core_cm3.h ****     uint32_t C:1;                        /*!< bit:     29  Carry condition code flag          */
 140:./prime-framework/arch/arm/cortex-m3/lpc1768/include/core_cm3.h ****     uint32_t Z:1;                        /*!< bit:     30  Zero condition code flag           */
 141:./prime-framework/arch/arm/cortex-m3/lpc1768/include/core_cm3.h ****     uint32_t N:1;                        /*!< bit:     31  Negative condition code flag       */
 142:./prime-framework/arch/arm/cortex-m3/lpc1768/include/core_cm3.h ****   } b;                                   /*!< Structure used for bit  access                  */
 143:./prime-framework/arch/arm/cortex-m3/lpc1768/include/core_cm3.h ****   uint32_t w;                            /*!< Type      used for word access                  */
 144:./prime-framework/arch/arm/cortex-m3/lpc1768/include/core_cm3.h **** } APSR_Type;
 145:./prime-framework/arch/arm/cortex-m3/lpc1768/include/core_cm3.h **** 
 146:./prime-framework/arch/arm/cortex-m3/lpc1768/include/core_cm3.h **** 
 147:./prime-framework/arch/arm/cortex-m3/lpc1768/include/core_cm3.h **** /** \brief  Union type to access the Interrupt Program Status Register (IPSR).
 148:./prime-framework/arch/arm/cortex-m3/lpc1768/include/core_cm3.h ****  */
 149:./prime-framework/arch/arm/cortex-m3/lpc1768/include/core_cm3.h **** typedef union
 150:./prime-framework/arch/arm/cortex-m3/lpc1768/include/core_cm3.h **** {
 151:./prime-framework/arch/arm/cortex-m3/lpc1768/include/core_cm3.h ****   struct
 152:./prime-framework/arch/arm/cortex-m3/lpc1768/include/core_cm3.h ****   {
 153:./prime-framework/arch/arm/cortex-m3/lpc1768/include/core_cm3.h ****     uint32_t ISR:9;                      /*!< bit:  0.. 8  Exception number                   */
 154:./prime-framework/arch/arm/cortex-m3/lpc1768/include/core_cm3.h ****     uint32_t _reserved0:23;              /*!< bit:  9..31  Reserved                           */
 155:./prime-framework/arch/arm/cortex-m3/lpc1768/include/core_cm3.h ****   } b;                                   /*!< Structure used for bit  access                  */
 156:./prime-framework/arch/arm/cortex-m3/lpc1768/include/core_cm3.h ****   uint32_t w;                            /*!< Type      used for word access                  */
 157:./prime-framework/arch/arm/cortex-m3/lpc1768/include/core_cm3.h **** } IPSR_Type;
 158:./prime-framework/arch/arm/cortex-m3/lpc1768/include/core_cm3.h **** 
 159:./prime-framework/arch/arm/cortex-m3/lpc1768/include/core_cm3.h **** 
 160:./prime-framework/arch/arm/cortex-m3/lpc1768/include/core_cm3.h **** /** \brief  Union type to access the Special-Purpose Program Status Registers (xPSR).
 161:./prime-framework/arch/arm/cortex-m3/lpc1768/include/core_cm3.h ****  */
 162:./prime-framework/arch/arm/cortex-m3/lpc1768/include/core_cm3.h **** typedef union
 163:./prime-framework/arch/arm/cortex-m3/lpc1768/include/core_cm3.h **** {
 164:./prime-framework/arch/arm/cortex-m3/lpc1768/include/core_cm3.h ****   struct
 165:./prime-framework/arch/arm/cortex-m3/lpc1768/include/core_cm3.h ****   {
 166:./prime-framework/arch/arm/cortex-m3/lpc1768/include/core_cm3.h ****     uint32_t ISR:9;                      /*!< bit:  0.. 8  Exception number                   */
ARM GAS  C:\Users\Akil\AppData\Local\Temp\ccrFjqgU.s 			page 5


 167:./prime-framework/arch/arm/cortex-m3/lpc1768/include/core_cm3.h **** #if (__CORTEX_M != 0x04)
 168:./prime-framework/arch/arm/cortex-m3/lpc1768/include/core_cm3.h ****     uint32_t _reserved0:15;              /*!< bit:  9..23  Reserved                           */
 169:./prime-framework/arch/arm/cortex-m3/lpc1768/include/core_cm3.h **** #else
 170:./prime-framework/arch/arm/cortex-m3/lpc1768/include/core_cm3.h ****     uint32_t _reserved0:7;               /*!< bit:  9..15  Reserved                           */
 171:./prime-framework/arch/arm/cortex-m3/lpc1768/include/core_cm3.h ****     uint32_t GE:4;                       /*!< bit: 16..19  Greater than or Equal flags        */
 172:./prime-framework/arch/arm/cortex-m3/lpc1768/include/core_cm3.h ****     uint32_t _reserved1:4;               /*!< bit: 20..23  Reserved                           */
 173:./prime-framework/arch/arm/cortex-m3/lpc1768/include/core_cm3.h **** #endif
 174:./prime-framework/arch/arm/cortex-m3/lpc1768/include/core_cm3.h ****     uint32_t T:1;                        /*!< bit:     24  Thumb bit        (read 0)          */
 175:./prime-framework/arch/arm/cortex-m3/lpc1768/include/core_cm3.h ****     uint32_t IT:2;                       /*!< bit: 25..26  saved IT state   (read 0)          */
 176:./prime-framework/arch/arm/cortex-m3/lpc1768/include/core_cm3.h ****     uint32_t Q:1;                        /*!< bit:     27  Saturation condition flag          */
 177:./prime-framework/arch/arm/cortex-m3/lpc1768/include/core_cm3.h ****     uint32_t V:1;                        /*!< bit:     28  Overflow condition code flag       */
 178:./prime-framework/arch/arm/cortex-m3/lpc1768/include/core_cm3.h ****     uint32_t C:1;                        /*!< bit:     29  Carry condition code flag          */
 179:./prime-framework/arch/arm/cortex-m3/lpc1768/include/core_cm3.h ****     uint32_t Z:1;                        /*!< bit:     30  Zero condition code flag           */
 180:./prime-framework/arch/arm/cortex-m3/lpc1768/include/core_cm3.h ****     uint32_t N:1;                        /*!< bit:     31  Negative condition code flag       */
 181:./prime-framework/arch/arm/cortex-m3/lpc1768/include/core_cm3.h ****   } b;                                   /*!< Structure used for bit  access                  */
 182:./prime-framework/arch/arm/cortex-m3/lpc1768/include/core_cm3.h ****   uint32_t w;                            /*!< Type      used for word access                  */
 183:./prime-framework/arch/arm/cortex-m3/lpc1768/include/core_cm3.h **** } xPSR_Type;
 184:./prime-framework/arch/arm/cortex-m3/lpc1768/include/core_cm3.h **** 
 185:./prime-framework/arch/arm/cortex-m3/lpc1768/include/core_cm3.h **** 
 186:./prime-framework/arch/arm/cortex-m3/lpc1768/include/core_cm3.h **** /** \brief  Union type to access the Control Registers (CONTROL).
 187:./prime-framework/arch/arm/cortex-m3/lpc1768/include/core_cm3.h ****  */
 188:./prime-framework/arch/arm/cortex-m3/lpc1768/include/core_cm3.h **** typedef union
 189:./prime-framework/arch/arm/cortex-m3/lpc1768/include/core_cm3.h **** {
 190:./prime-framework/arch/arm/cortex-m3/lpc1768/include/core_cm3.h ****   struct
 191:./prime-framework/arch/arm/cortex-m3/lpc1768/include/core_cm3.h ****   {
 192:./prime-framework/arch/arm/cortex-m3/lpc1768/include/core_cm3.h ****     uint32_t nPRIV:1;                    /*!< bit:      0  Execution privilege in Thread mode */
 193:./prime-framework/arch/arm/cortex-m3/lpc1768/include/core_cm3.h ****     uint32_t SPSEL:1;                    /*!< bit:      1  Stack to be used                   */
 194:./prime-framework/arch/arm/cortex-m3/lpc1768/include/core_cm3.h ****     uint32_t FPCA:1;                     /*!< bit:      2  FP extension active flag           */
 195:./prime-framework/arch/arm/cortex-m3/lpc1768/include/core_cm3.h ****     uint32_t _reserved0:29;              /*!< bit:  3..31  Reserved                           */
 196:./prime-framework/arch/arm/cortex-m3/lpc1768/include/core_cm3.h ****   } b;                                   /*!< Structure used for bit  access                  */
 197:./prime-framework/arch/arm/cortex-m3/lpc1768/include/core_cm3.h ****   uint32_t w;                            /*!< Type      used for word access                  */
 198:./prime-framework/arch/arm/cortex-m3/lpc1768/include/core_cm3.h **** } CONTROL_Type;
 199:./prime-framework/arch/arm/cortex-m3/lpc1768/include/core_cm3.h **** 
 200:./prime-framework/arch/arm/cortex-m3/lpc1768/include/core_cm3.h **** /*@} end of group CMSIS_CORE */
 201:./prime-framework/arch/arm/cortex-m3/lpc1768/include/core_cm3.h **** 
 202:./prime-framework/arch/arm/cortex-m3/lpc1768/include/core_cm3.h **** 
 203:./prime-framework/arch/arm/cortex-m3/lpc1768/include/core_cm3.h **** /** \ingroup  CMSIS_core_register
 204:./prime-framework/arch/arm/cortex-m3/lpc1768/include/core_cm3.h ****     \defgroup CMSIS_NVIC CMSIS NVIC
 205:./prime-framework/arch/arm/cortex-m3/lpc1768/include/core_cm3.h ****   Type definitions for the Cortex-M NVIC Registers
 206:./prime-framework/arch/arm/cortex-m3/lpc1768/include/core_cm3.h ****   @{
 207:./prime-framework/arch/arm/cortex-m3/lpc1768/include/core_cm3.h ****  */
 208:./prime-framework/arch/arm/cortex-m3/lpc1768/include/core_cm3.h **** 
 209:./prime-framework/arch/arm/cortex-m3/lpc1768/include/core_cm3.h **** /** \brief  Structure type to access the Nested Vectored Interrupt Controller (NVIC).
 210:./prime-framework/arch/arm/cortex-m3/lpc1768/include/core_cm3.h ****  */
 211:./prime-framework/arch/arm/cortex-m3/lpc1768/include/core_cm3.h **** typedef struct
 212:./prime-framework/arch/arm/cortex-m3/lpc1768/include/core_cm3.h **** {
 213:./prime-framework/arch/arm/cortex-m3/lpc1768/include/core_cm3.h ****   __IO uint32_t ISER[8];                 /*!< Offset: 0x000 (R/W)  Interrupt Set Enable Register   
 214:./prime-framework/arch/arm/cortex-m3/lpc1768/include/core_cm3.h ****        uint32_t RESERVED0[24];
 215:./prime-framework/arch/arm/cortex-m3/lpc1768/include/core_cm3.h ****   __IO uint32_t ICER[8];                 /*!< Offset: 0x080 (R/W)  Interrupt Clear Enable Register 
 216:./prime-framework/arch/arm/cortex-m3/lpc1768/include/core_cm3.h ****        uint32_t RSERVED1[24];
 217:./prime-framework/arch/arm/cortex-m3/lpc1768/include/core_cm3.h ****   __IO uint32_t ISPR[8];                 /*!< Offset: 0x100 (R/W)  Interrupt Set Pending Register  
 218:./prime-framework/arch/arm/cortex-m3/lpc1768/include/core_cm3.h ****        uint32_t RESERVED2[24];
 219:./prime-framework/arch/arm/cortex-m3/lpc1768/include/core_cm3.h ****   __IO uint32_t ICPR[8];                 /*!< Offset: 0x180 (R/W)  Interrupt Clear Pending Register
 220:./prime-framework/arch/arm/cortex-m3/lpc1768/include/core_cm3.h ****        uint32_t RESERVED3[24];
 221:./prime-framework/arch/arm/cortex-m3/lpc1768/include/core_cm3.h ****   __IO uint32_t IABR[8];                 /*!< Offset: 0x200 (R/W)  Interrupt Active bit Register   
 222:./prime-framework/arch/arm/cortex-m3/lpc1768/include/core_cm3.h ****        uint32_t RESERVED4[56];
 223:./prime-framework/arch/arm/cortex-m3/lpc1768/include/core_cm3.h ****   __IO uint8_t  IP[240];                 /*!< Offset: 0x300 (R/W)  Interrupt Priority Register (8Bi
ARM GAS  C:\Users\Akil\AppData\Local\Temp\ccrFjqgU.s 			page 6


 224:./prime-framework/arch/arm/cortex-m3/lpc1768/include/core_cm3.h ****        uint32_t RESERVED5[644];
 225:./prime-framework/arch/arm/cortex-m3/lpc1768/include/core_cm3.h ****   __O  uint32_t STIR;                    /*!< Offset: 0xE00 ( /W)  Software Trigger Interrupt Regis
 226:./prime-framework/arch/arm/cortex-m3/lpc1768/include/core_cm3.h **** }  NVIC_Type;
 227:./prime-framework/arch/arm/cortex-m3/lpc1768/include/core_cm3.h **** 
 228:./prime-framework/arch/arm/cortex-m3/lpc1768/include/core_cm3.h **** /*@} end of group CMSIS_NVIC */
 229:./prime-framework/arch/arm/cortex-m3/lpc1768/include/core_cm3.h **** 
 230:./prime-framework/arch/arm/cortex-m3/lpc1768/include/core_cm3.h **** 
 231:./prime-framework/arch/arm/cortex-m3/lpc1768/include/core_cm3.h **** /** \ingroup  CMSIS_core_register
 232:./prime-framework/arch/arm/cortex-m3/lpc1768/include/core_cm3.h ****     \defgroup CMSIS_SCB CMSIS SCB
 233:./prime-framework/arch/arm/cortex-m3/lpc1768/include/core_cm3.h ****   Type definitions for the Cortex-M System Control Block Registers
 234:./prime-framework/arch/arm/cortex-m3/lpc1768/include/core_cm3.h ****   @{
 235:./prime-framework/arch/arm/cortex-m3/lpc1768/include/core_cm3.h ****  */
 236:./prime-framework/arch/arm/cortex-m3/lpc1768/include/core_cm3.h **** 
 237:./prime-framework/arch/arm/cortex-m3/lpc1768/include/core_cm3.h **** /** \brief  Structure type to access the System Control Block (SCB).
 238:./prime-framework/arch/arm/cortex-m3/lpc1768/include/core_cm3.h ****  */
 239:./prime-framework/arch/arm/cortex-m3/lpc1768/include/core_cm3.h **** typedef struct
 240:./prime-framework/arch/arm/cortex-m3/lpc1768/include/core_cm3.h **** {
 241:./prime-framework/arch/arm/cortex-m3/lpc1768/include/core_cm3.h ****   __I  uint32_t CPUID;                   /*!< Offset: 0x000 (R/ )  CPU ID Base Register            
 242:./prime-framework/arch/arm/cortex-m3/lpc1768/include/core_cm3.h ****   __IO uint32_t ICSR;                    /*!< Offset: 0x004 (R/W)  Interrupt Control State Register
 243:./prime-framework/arch/arm/cortex-m3/lpc1768/include/core_cm3.h ****   __IO uint32_t VTOR;                    /*!< Offset: 0x008 (R/W)  Vector Table Offset Register    
 244:./prime-framework/arch/arm/cortex-m3/lpc1768/include/core_cm3.h ****   __IO uint32_t AIRCR;                   /*!< Offset: 0x00C (R/W)  Application Interrupt / Reset Co
 245:./prime-framework/arch/arm/cortex-m3/lpc1768/include/core_cm3.h ****   __IO uint32_t SCR;                     /*!< Offset: 0x010 (R/W)  System Control Register         
 246:./prime-framework/arch/arm/cortex-m3/lpc1768/include/core_cm3.h ****   __IO uint32_t CCR;                     /*!< Offset: 0x014 (R/W)  Configuration Control Register  
 247:./prime-framework/arch/arm/cortex-m3/lpc1768/include/core_cm3.h ****   __IO uint8_t  SHP[12];                 /*!< Offset: 0x018 (R/W)  System Handlers Priority Registe
 248:./prime-framework/arch/arm/cortex-m3/lpc1768/include/core_cm3.h ****   __IO uint32_t SHCSR;                   /*!< Offset: 0x024 (R/W)  System Handler Control and State
 249:./prime-framework/arch/arm/cortex-m3/lpc1768/include/core_cm3.h ****   __IO uint32_t CFSR;                    /*!< Offset: 0x028 (R/W)  Configurable Fault Status Regist
 250:./prime-framework/arch/arm/cortex-m3/lpc1768/include/core_cm3.h ****   __IO uint32_t HFSR;                    /*!< Offset: 0x02C (R/W)  Hard Fault Status Register      
 251:./prime-framework/arch/arm/cortex-m3/lpc1768/include/core_cm3.h ****   __IO uint32_t DFSR;                    /*!< Offset: 0x030 (R/W)  Debug Fault Status Register     
 252:./prime-framework/arch/arm/cortex-m3/lpc1768/include/core_cm3.h ****   __IO uint32_t MMFAR;                   /*!< Offset: 0x034 (R/W)  Mem Manage Address Register     
 253:./prime-framework/arch/arm/cortex-m3/lpc1768/include/core_cm3.h ****   __IO uint32_t BFAR;                    /*!< Offset: 0x038 (R/W)  Bus Fault Address Register      
 254:./prime-framework/arch/arm/cortex-m3/lpc1768/include/core_cm3.h ****   __IO uint32_t AFSR;                    /*!< Offset: 0x03C (R/W)  Auxiliary Fault Status Register 
 255:./prime-framework/arch/arm/cortex-m3/lpc1768/include/core_cm3.h ****   __I  uint32_t PFR[2];                  /*!< Offset: 0x040 (R/ )  Processor Feature Register      
 256:./prime-framework/arch/arm/cortex-m3/lpc1768/include/core_cm3.h ****   __I  uint32_t DFR;                     /*!< Offset: 0x048 (R/ )  Debug Feature Register          
 257:./prime-framework/arch/arm/cortex-m3/lpc1768/include/core_cm3.h ****   __I  uint32_t ADR;                     /*!< Offset: 0x04C (R/ )  Auxiliary Feature Register      
 258:./prime-framework/arch/arm/cortex-m3/lpc1768/include/core_cm3.h ****   __I  uint32_t MMFR[4];                 /*!< Offset: 0x050 (R/ )  Memory Model Feature Register   
 259:./prime-framework/arch/arm/cortex-m3/lpc1768/include/core_cm3.h ****   __I  uint32_t ISAR[5];                 /*!< Offset: 0x060 (R/ )  ISA Feature Register            
 260:./prime-framework/arch/arm/cortex-m3/lpc1768/include/core_cm3.h **** } SCB_Type;
 261:./prime-framework/arch/arm/cortex-m3/lpc1768/include/core_cm3.h **** 
 262:./prime-framework/arch/arm/cortex-m3/lpc1768/include/core_cm3.h **** /* SCB CPUID Register Definitions */
 263:./prime-framework/arch/arm/cortex-m3/lpc1768/include/core_cm3.h **** #define SCB_CPUID_IMPLEMENTER_Pos          24                                             /*!< SCB 
 264:./prime-framework/arch/arm/cortex-m3/lpc1768/include/core_cm3.h **** #define SCB_CPUID_IMPLEMENTER_Msk          (0xFFUL << SCB_CPUID_IMPLEMENTER_Pos)          /*!< SCB 
 265:./prime-framework/arch/arm/cortex-m3/lpc1768/include/core_cm3.h **** 
 266:./prime-framework/arch/arm/cortex-m3/lpc1768/include/core_cm3.h **** #define SCB_CPUID_VARIANT_Pos              20                                             /*!< SCB 
 267:./prime-framework/arch/arm/cortex-m3/lpc1768/include/core_cm3.h **** #define SCB_CPUID_VARIANT_Msk              (0xFUL << SCB_CPUID_VARIANT_Pos)               /*!< SCB 
 268:./prime-framework/arch/arm/cortex-m3/lpc1768/include/core_cm3.h **** 
 269:./prime-framework/arch/arm/cortex-m3/lpc1768/include/core_cm3.h **** #define SCB_CPUID_PARTNO_Pos                4                                             /*!< SCB 
 270:./prime-framework/arch/arm/cortex-m3/lpc1768/include/core_cm3.h **** #define SCB_CPUID_PARTNO_Msk               (0xFFFUL << SCB_CPUID_PARTNO_Pos)              /*!< SCB 
 271:./prime-framework/arch/arm/cortex-m3/lpc1768/include/core_cm3.h **** 
 272:./prime-framework/arch/arm/cortex-m3/lpc1768/include/core_cm3.h **** #define SCB_CPUID_REVISION_Pos              0                                             /*!< SCB 
 273:./prime-framework/arch/arm/cortex-m3/lpc1768/include/core_cm3.h **** #define SCB_CPUID_REVISION_Msk             (0xFUL << SCB_CPUID_REVISION_Pos)              /*!< SCB 
 274:./prime-framework/arch/arm/cortex-m3/lpc1768/include/core_cm3.h **** 
 275:./prime-framework/arch/arm/cortex-m3/lpc1768/include/core_cm3.h **** /* SCB Interrupt Control State Register Definitions */
 276:./prime-framework/arch/arm/cortex-m3/lpc1768/include/core_cm3.h **** #define SCB_ICSR_NMIPENDSET_Pos            31                                             /*!< SCB 
 277:./prime-framework/arch/arm/cortex-m3/lpc1768/include/core_cm3.h **** #define SCB_ICSR_NMIPENDSET_Msk            (1UL << SCB_ICSR_NMIPENDSET_Pos)               /*!< SCB 
 278:./prime-framework/arch/arm/cortex-m3/lpc1768/include/core_cm3.h **** 
 279:./prime-framework/arch/arm/cortex-m3/lpc1768/include/core_cm3.h **** #define SCB_ICSR_PENDSVSET_Pos             28                                             /*!< SCB 
 280:./prime-framework/arch/arm/cortex-m3/lpc1768/include/core_cm3.h **** #define SCB_ICSR_PENDSVSET_Msk             (1UL << SCB_ICSR_PENDSVSET_Pos)                /*!< SCB 
ARM GAS  C:\Users\Akil\AppData\Local\Temp\ccrFjqgU.s 			page 7


 281:./prime-framework/arch/arm/cortex-m3/lpc1768/include/core_cm3.h **** 
 282:./prime-framework/arch/arm/cortex-m3/lpc1768/include/core_cm3.h **** #define SCB_ICSR_PENDSVCLR_Pos             27                                             /*!< SCB 
 283:./prime-framework/arch/arm/cortex-m3/lpc1768/include/core_cm3.h **** #define SCB_ICSR_PENDSVCLR_Msk             (1UL << SCB_ICSR_PENDSVCLR_Pos)                /*!< SCB 
 284:./prime-framework/arch/arm/cortex-m3/lpc1768/include/core_cm3.h **** 
 285:./prime-framework/arch/arm/cortex-m3/lpc1768/include/core_cm3.h **** #define SCB_ICSR_PENDSTSET_Pos             26                                             /*!< SCB 
 286:./prime-framework/arch/arm/cortex-m3/lpc1768/include/core_cm3.h **** #define SCB_ICSR_PENDSTSET_Msk             (1UL << SCB_ICSR_PENDSTSET_Pos)                /*!< SCB 
 287:./prime-framework/arch/arm/cortex-m3/lpc1768/include/core_cm3.h **** 
 288:./prime-framework/arch/arm/cortex-m3/lpc1768/include/core_cm3.h **** #define SCB_ICSR_PENDSTCLR_Pos             25                                             /*!< SCB 
 289:./prime-framework/arch/arm/cortex-m3/lpc1768/include/core_cm3.h **** #define SCB_ICSR_PENDSTCLR_Msk             (1UL << SCB_ICSR_PENDSTCLR_Pos)                /*!< SCB 
 290:./prime-framework/arch/arm/cortex-m3/lpc1768/include/core_cm3.h **** 
 291:./prime-framework/arch/arm/cortex-m3/lpc1768/include/core_cm3.h **** #define SCB_ICSR_ISRPREEMPT_Pos            23                                             /*!< SCB 
 292:./prime-framework/arch/arm/cortex-m3/lpc1768/include/core_cm3.h **** #define SCB_ICSR_ISRPREEMPT_Msk            (1UL << SCB_ICSR_ISRPREEMPT_Pos)               /*!< SCB 
 293:./prime-framework/arch/arm/cortex-m3/lpc1768/include/core_cm3.h **** 
 294:./prime-framework/arch/arm/cortex-m3/lpc1768/include/core_cm3.h **** #define SCB_ICSR_ISRPENDING_Pos            22                                             /*!< SCB 
 295:./prime-framework/arch/arm/cortex-m3/lpc1768/include/core_cm3.h **** #define SCB_ICSR_ISRPENDING_Msk            (1UL << SCB_ICSR_ISRPENDING_Pos)               /*!< SCB 
 296:./prime-framework/arch/arm/cortex-m3/lpc1768/include/core_cm3.h **** 
 297:./prime-framework/arch/arm/cortex-m3/lpc1768/include/core_cm3.h **** #define SCB_ICSR_VECTPENDING_Pos           12                                             /*!< SCB 
 298:./prime-framework/arch/arm/cortex-m3/lpc1768/include/core_cm3.h **** #define SCB_ICSR_VECTPENDING_Msk           (0x1FFUL << SCB_ICSR_VECTPENDING_Pos)          /*!< SCB 
 299:./prime-framework/arch/arm/cortex-m3/lpc1768/include/core_cm3.h **** 
 300:./prime-framework/arch/arm/cortex-m3/lpc1768/include/core_cm3.h **** #define SCB_ICSR_RETTOBASE_Pos             11                                             /*!< SCB 
 301:./prime-framework/arch/arm/cortex-m3/lpc1768/include/core_cm3.h **** #define SCB_ICSR_RETTOBASE_Msk             (1UL << SCB_ICSR_RETTOBASE_Pos)                /*!< SCB 
 302:./prime-framework/arch/arm/cortex-m3/lpc1768/include/core_cm3.h **** 
 303:./prime-framework/arch/arm/cortex-m3/lpc1768/include/core_cm3.h **** #define SCB_ICSR_VECTACTIVE_Pos             0                                             /*!< SCB 
 304:./prime-framework/arch/arm/cortex-m3/lpc1768/include/core_cm3.h **** #define SCB_ICSR_VECTACTIVE_Msk            (0x1FFUL << SCB_ICSR_VECTACTIVE_Pos)           /*!< SCB 
 305:./prime-framework/arch/arm/cortex-m3/lpc1768/include/core_cm3.h **** 
 306:./prime-framework/arch/arm/cortex-m3/lpc1768/include/core_cm3.h **** /* SCB Interrupt Control State Register Definitions */
 307:./prime-framework/arch/arm/cortex-m3/lpc1768/include/core_cm3.h **** #define SCB_VTOR_TBLBASE_Pos               29                                             /*!< SCB 
 308:./prime-framework/arch/arm/cortex-m3/lpc1768/include/core_cm3.h **** #define SCB_VTOR_TBLBASE_Msk               (1UL << SCB_VTOR_TBLBASE_Pos)                  /*!< SCB 
 309:./prime-framework/arch/arm/cortex-m3/lpc1768/include/core_cm3.h **** 
 310:./prime-framework/arch/arm/cortex-m3/lpc1768/include/core_cm3.h **** #define SCB_VTOR_TBLOFF_Pos                 7                                             /*!< SCB 
 311:./prime-framework/arch/arm/cortex-m3/lpc1768/include/core_cm3.h **** #define SCB_VTOR_TBLOFF_Msk                (0x3FFFFFUL << SCB_VTOR_TBLOFF_Pos)            /*!< SCB 
 312:./prime-framework/arch/arm/cortex-m3/lpc1768/include/core_cm3.h **** 
 313:./prime-framework/arch/arm/cortex-m3/lpc1768/include/core_cm3.h **** /* SCB Application Interrupt and Reset Control Register Definitions */
 314:./prime-framework/arch/arm/cortex-m3/lpc1768/include/core_cm3.h **** #define SCB_AIRCR_VECTKEY_Pos              16                                             /*!< SCB 
 315:./prime-framework/arch/arm/cortex-m3/lpc1768/include/core_cm3.h **** #define SCB_AIRCR_VECTKEY_Msk              (0xFFFFUL << SCB_AIRCR_VECTKEY_Pos)            /*!< SCB 
 316:./prime-framework/arch/arm/cortex-m3/lpc1768/include/core_cm3.h **** 
 317:./prime-framework/arch/arm/cortex-m3/lpc1768/include/core_cm3.h **** #define SCB_AIRCR_VECTKEYSTAT_Pos          16                                             /*!< SCB 
 318:./prime-framework/arch/arm/cortex-m3/lpc1768/include/core_cm3.h **** #define SCB_AIRCR_VECTKEYSTAT_Msk          (0xFFFFUL << SCB_AIRCR_VECTKEYSTAT_Pos)        /*!< SCB 
 319:./prime-framework/arch/arm/cortex-m3/lpc1768/include/core_cm3.h **** 
 320:./prime-framework/arch/arm/cortex-m3/lpc1768/include/core_cm3.h **** #define SCB_AIRCR_ENDIANESS_Pos            15                                             /*!< SCB 
 321:./prime-framework/arch/arm/cortex-m3/lpc1768/include/core_cm3.h **** #define SCB_AIRCR_ENDIANESS_Msk            (1UL << SCB_AIRCR_ENDIANESS_Pos)               /*!< SCB 
 322:./prime-framework/arch/arm/cortex-m3/lpc1768/include/core_cm3.h **** 
 323:./prime-framework/arch/arm/cortex-m3/lpc1768/include/core_cm3.h **** #define SCB_AIRCR_PRIGROUP_Pos              8                                             /*!< SCB 
 324:./prime-framework/arch/arm/cortex-m3/lpc1768/include/core_cm3.h **** #define SCB_AIRCR_PRIGROUP_Msk             (7UL << SCB_AIRCR_PRIGROUP_Pos)                /*!< SCB 
 325:./prime-framework/arch/arm/cortex-m3/lpc1768/include/core_cm3.h **** 
 326:./prime-framework/arch/arm/cortex-m3/lpc1768/include/core_cm3.h **** #define SCB_AIRCR_SYSRESETREQ_Pos           2                                             /*!< SCB 
 327:./prime-framework/arch/arm/cortex-m3/lpc1768/include/core_cm3.h **** #define SCB_AIRCR_SYSRESETREQ_Msk          (1UL << SCB_AIRCR_SYSRESETREQ_Pos)             /*!< SCB 
 328:./prime-framework/arch/arm/cortex-m3/lpc1768/include/core_cm3.h **** 
 329:./prime-framework/arch/arm/cortex-m3/lpc1768/include/core_cm3.h **** #define SCB_AIRCR_VECTCLRACTIVE_Pos         1                                             /*!< SCB 
 330:./prime-framework/arch/arm/cortex-m3/lpc1768/include/core_cm3.h **** #define SCB_AIRCR_VECTCLRACTIVE_Msk        (1UL << SCB_AIRCR_VECTCLRACTIVE_Pos)           /*!< SCB 
 331:./prime-framework/arch/arm/cortex-m3/lpc1768/include/core_cm3.h **** 
 332:./prime-framework/arch/arm/cortex-m3/lpc1768/include/core_cm3.h **** #define SCB_AIRCR_VECTRESET_Pos             0                                             /*!< SCB 
 333:./prime-framework/arch/arm/cortex-m3/lpc1768/include/core_cm3.h **** #define SCB_AIRCR_VECTRESET_Msk            (1UL << SCB_AIRCR_VECTRESET_Pos)               /*!< SCB 
 334:./prime-framework/arch/arm/cortex-m3/lpc1768/include/core_cm3.h **** 
 335:./prime-framework/arch/arm/cortex-m3/lpc1768/include/core_cm3.h **** /* SCB System Control Register Definitions */
 336:./prime-framework/arch/arm/cortex-m3/lpc1768/include/core_cm3.h **** #define SCB_SCR_SEVONPEND_Pos               4                                             /*!< SCB 
 337:./prime-framework/arch/arm/cortex-m3/lpc1768/include/core_cm3.h **** #define SCB_SCR_SEVONPEND_Msk              (1UL << SCB_SCR_SEVONPEND_Pos)                 /*!< SCB 
ARM GAS  C:\Users\Akil\AppData\Local\Temp\ccrFjqgU.s 			page 8


 338:./prime-framework/arch/arm/cortex-m3/lpc1768/include/core_cm3.h **** 
 339:./prime-framework/arch/arm/cortex-m3/lpc1768/include/core_cm3.h **** #define SCB_SCR_SLEEPDEEP_Pos               2                                             /*!< SCB 
 340:./prime-framework/arch/arm/cortex-m3/lpc1768/include/core_cm3.h **** #define SCB_SCR_SLEEPDEEP_Msk              (1UL << SCB_SCR_SLEEPDEEP_Pos)                 /*!< SCB 
 341:./prime-framework/arch/arm/cortex-m3/lpc1768/include/core_cm3.h **** 
 342:./prime-framework/arch/arm/cortex-m3/lpc1768/include/core_cm3.h **** #define SCB_SCR_SLEEPONEXIT_Pos             1                                             /*!< SCB 
 343:./prime-framework/arch/arm/cortex-m3/lpc1768/include/core_cm3.h **** #define SCB_SCR_SLEEPONEXIT_Msk            (1UL << SCB_SCR_SLEEPONEXIT_Pos)               /*!< SCB 
 344:./prime-framework/arch/arm/cortex-m3/lpc1768/include/core_cm3.h **** 
 345:./prime-framework/arch/arm/cortex-m3/lpc1768/include/core_cm3.h **** /* SCB Configuration Control Register Definitions */
 346:./prime-framework/arch/arm/cortex-m3/lpc1768/include/core_cm3.h **** #define SCB_CCR_STKALIGN_Pos                9                                             /*!< SCB 
 347:./prime-framework/arch/arm/cortex-m3/lpc1768/include/core_cm3.h **** #define SCB_CCR_STKALIGN_Msk               (1UL << SCB_CCR_STKALIGN_Pos)                  /*!< SCB 
 348:./prime-framework/arch/arm/cortex-m3/lpc1768/include/core_cm3.h **** 
 349:./prime-framework/arch/arm/cortex-m3/lpc1768/include/core_cm3.h **** #define SCB_CCR_BFHFNMIGN_Pos               8                                             /*!< SCB 
 350:./prime-framework/arch/arm/cortex-m3/lpc1768/include/core_cm3.h **** #define SCB_CCR_BFHFNMIGN_Msk              (1UL << SCB_CCR_BFHFNMIGN_Pos)                 /*!< SCB 
 351:./prime-framework/arch/arm/cortex-m3/lpc1768/include/core_cm3.h **** 
 352:./prime-framework/arch/arm/cortex-m3/lpc1768/include/core_cm3.h **** #define SCB_CCR_DIV_0_TRP_Pos               4                                             /*!< SCB 
 353:./prime-framework/arch/arm/cortex-m3/lpc1768/include/core_cm3.h **** #define SCB_CCR_DIV_0_TRP_Msk              (1UL << SCB_CCR_DIV_0_TRP_Pos)                 /*!< SCB 
 354:./prime-framework/arch/arm/cortex-m3/lpc1768/include/core_cm3.h **** 
 355:./prime-framework/arch/arm/cortex-m3/lpc1768/include/core_cm3.h **** #define SCB_CCR_UNALIGN_TRP_Pos             3                                             /*!< SCB 
 356:./prime-framework/arch/arm/cortex-m3/lpc1768/include/core_cm3.h **** #define SCB_CCR_UNALIGN_TRP_Msk            (1UL << SCB_CCR_UNALIGN_TRP_Pos)               /*!< SCB 
 357:./prime-framework/arch/arm/cortex-m3/lpc1768/include/core_cm3.h **** 
 358:./prime-framework/arch/arm/cortex-m3/lpc1768/include/core_cm3.h **** #define SCB_CCR_USERSETMPEND_Pos            1                                             /*!< SCB 
 359:./prime-framework/arch/arm/cortex-m3/lpc1768/include/core_cm3.h **** #define SCB_CCR_USERSETMPEND_Msk           (1UL << SCB_CCR_USERSETMPEND_Pos)              /*!< SCB 
 360:./prime-framework/arch/arm/cortex-m3/lpc1768/include/core_cm3.h **** 
 361:./prime-framework/arch/arm/cortex-m3/lpc1768/include/core_cm3.h **** #define SCB_CCR_NONBASETHRDENA_Pos          0                                             /*!< SCB 
 362:./prime-framework/arch/arm/cortex-m3/lpc1768/include/core_cm3.h **** #define SCB_CCR_NONBASETHRDENA_Msk         (1UL << SCB_CCR_NONBASETHRDENA_Pos)            /*!< SCB 
 363:./prime-framework/arch/arm/cortex-m3/lpc1768/include/core_cm3.h **** 
 364:./prime-framework/arch/arm/cortex-m3/lpc1768/include/core_cm3.h **** /* SCB System Handler Control and State Register Definitions */
 365:./prime-framework/arch/arm/cortex-m3/lpc1768/include/core_cm3.h **** #define SCB_SHCSR_USGFAULTENA_Pos          18                                             /*!< SCB 
 366:./prime-framework/arch/arm/cortex-m3/lpc1768/include/core_cm3.h **** #define SCB_SHCSR_USGFAULTENA_Msk          (1UL << SCB_SHCSR_USGFAULTENA_Pos)             /*!< SCB 
 367:./prime-framework/arch/arm/cortex-m3/lpc1768/include/core_cm3.h **** 
 368:./prime-framework/arch/arm/cortex-m3/lpc1768/include/core_cm3.h **** #define SCB_SHCSR_BUSFAULTENA_Pos          17                                             /*!< SCB 
 369:./prime-framework/arch/arm/cortex-m3/lpc1768/include/core_cm3.h **** #define SCB_SHCSR_BUSFAULTENA_Msk          (1UL << SCB_SHCSR_BUSFAULTENA_Pos)             /*!< SCB 
 370:./prime-framework/arch/arm/cortex-m3/lpc1768/include/core_cm3.h **** 
 371:./prime-framework/arch/arm/cortex-m3/lpc1768/include/core_cm3.h **** #define SCB_SHCSR_MEMFAULTENA_Pos          16                                             /*!< SCB 
 372:./prime-framework/arch/arm/cortex-m3/lpc1768/include/core_cm3.h **** #define SCB_SHCSR_MEMFAULTENA_Msk          (1UL << SCB_SHCSR_MEMFAULTENA_Pos)             /*!< SCB 
 373:./prime-framework/arch/arm/cortex-m3/lpc1768/include/core_cm3.h **** 
 374:./prime-framework/arch/arm/cortex-m3/lpc1768/include/core_cm3.h **** #define SCB_SHCSR_SVCALLPENDED_Pos         15                                             /*!< SCB 
 375:./prime-framework/arch/arm/cortex-m3/lpc1768/include/core_cm3.h **** #define SCB_SHCSR_SVCALLPENDED_Msk         (1UL << SCB_SHCSR_SVCALLPENDED_Pos)            /*!< SCB 
 376:./prime-framework/arch/arm/cortex-m3/lpc1768/include/core_cm3.h **** 
 377:./prime-framework/arch/arm/cortex-m3/lpc1768/include/core_cm3.h **** #define SCB_SHCSR_BUSFAULTPENDED_Pos       14                                             /*!< SCB 
 378:./prime-framework/arch/arm/cortex-m3/lpc1768/include/core_cm3.h **** #define SCB_SHCSR_BUSFAULTPENDED_Msk       (1UL << SCB_SHCSR_BUSFAULTPENDED_Pos)          /*!< SCB 
 379:./prime-framework/arch/arm/cortex-m3/lpc1768/include/core_cm3.h **** 
 380:./prime-framework/arch/arm/cortex-m3/lpc1768/include/core_cm3.h **** #define SCB_SHCSR_MEMFAULTPENDED_Pos       13                                             /*!< SCB 
 381:./prime-framework/arch/arm/cortex-m3/lpc1768/include/core_cm3.h **** #define SCB_SHCSR_MEMFAULTPENDED_Msk       (1UL << SCB_SHCSR_MEMFAULTPENDED_Pos)          /*!< SCB 
 382:./prime-framework/arch/arm/cortex-m3/lpc1768/include/core_cm3.h **** 
 383:./prime-framework/arch/arm/cortex-m3/lpc1768/include/core_cm3.h **** #define SCB_SHCSR_USGFAULTPENDED_Pos       12                                             /*!< SCB 
 384:./prime-framework/arch/arm/cortex-m3/lpc1768/include/core_cm3.h **** #define SCB_SHCSR_USGFAULTPENDED_Msk       (1UL << SCB_SHCSR_USGFAULTPENDED_Pos)          /*!< SCB 
 385:./prime-framework/arch/arm/cortex-m3/lpc1768/include/core_cm3.h **** 
 386:./prime-framework/arch/arm/cortex-m3/lpc1768/include/core_cm3.h **** #define SCB_SHCSR_SYSTICKACT_Pos           11                                             /*!< SCB 
 387:./prime-framework/arch/arm/cortex-m3/lpc1768/include/core_cm3.h **** #define SCB_SHCSR_SYSTICKACT_Msk           (1UL << SCB_SHCSR_SYSTICKACT_Pos)              /*!< SCB 
 388:./prime-framework/arch/arm/cortex-m3/lpc1768/include/core_cm3.h **** 
 389:./prime-framework/arch/arm/cortex-m3/lpc1768/include/core_cm3.h **** #define SCB_SHCSR_PENDSVACT_Pos            10                                             /*!< SCB 
 390:./prime-framework/arch/arm/cortex-m3/lpc1768/include/core_cm3.h **** #define SCB_SHCSR_PENDSVACT_Msk            (1UL << SCB_SHCSR_PENDSVACT_Pos)               /*!< SCB 
 391:./prime-framework/arch/arm/cortex-m3/lpc1768/include/core_cm3.h **** 
 392:./prime-framework/arch/arm/cortex-m3/lpc1768/include/core_cm3.h **** #define SCB_SHCSR_MONITORACT_Pos            8                                             /*!< SCB 
 393:./prime-framework/arch/arm/cortex-m3/lpc1768/include/core_cm3.h **** #define SCB_SHCSR_MONITORACT_Msk           (1UL << SCB_SHCSR_MONITORACT_Pos)              /*!< SCB 
 394:./prime-framework/arch/arm/cortex-m3/lpc1768/include/core_cm3.h **** 
ARM GAS  C:\Users\Akil\AppData\Local\Temp\ccrFjqgU.s 			page 9


 395:./prime-framework/arch/arm/cortex-m3/lpc1768/include/core_cm3.h **** #define SCB_SHCSR_SVCALLACT_Pos             7                                             /*!< SCB 
 396:./prime-framework/arch/arm/cortex-m3/lpc1768/include/core_cm3.h **** #define SCB_SHCSR_SVCALLACT_Msk            (1UL << SCB_SHCSR_SVCALLACT_Pos)               /*!< SCB 
 397:./prime-framework/arch/arm/cortex-m3/lpc1768/include/core_cm3.h **** 
 398:./prime-framework/arch/arm/cortex-m3/lpc1768/include/core_cm3.h **** #define SCB_SHCSR_USGFAULTACT_Pos           3                                             /*!< SCB 
 399:./prime-framework/arch/arm/cortex-m3/lpc1768/include/core_cm3.h **** #define SCB_SHCSR_USGFAULTACT_Msk          (1UL << SCB_SHCSR_USGFAULTACT_Pos)             /*!< SCB 
 400:./prime-framework/arch/arm/cortex-m3/lpc1768/include/core_cm3.h **** 
 401:./prime-framework/arch/arm/cortex-m3/lpc1768/include/core_cm3.h **** #define SCB_SHCSR_BUSFAULTACT_Pos           1                                             /*!< SCB 
 402:./prime-framework/arch/arm/cortex-m3/lpc1768/include/core_cm3.h **** #define SCB_SHCSR_BUSFAULTACT_Msk          (1UL << SCB_SHCSR_BUSFAULTACT_Pos)             /*!< SCB 
 403:./prime-framework/arch/arm/cortex-m3/lpc1768/include/core_cm3.h **** 
 404:./prime-framework/arch/arm/cortex-m3/lpc1768/include/core_cm3.h **** #define SCB_SHCSR_MEMFAULTACT_Pos           0                                             /*!< SCB 
 405:./prime-framework/arch/arm/cortex-m3/lpc1768/include/core_cm3.h **** #define SCB_SHCSR_MEMFAULTACT_Msk          (1UL << SCB_SHCSR_MEMFAULTACT_Pos)             /*!< SCB 
 406:./prime-framework/arch/arm/cortex-m3/lpc1768/include/core_cm3.h **** 
 407:./prime-framework/arch/arm/cortex-m3/lpc1768/include/core_cm3.h **** /* SCB Configurable Fault Status Registers Definitions */
 408:./prime-framework/arch/arm/cortex-m3/lpc1768/include/core_cm3.h **** #define SCB_CFSR_USGFAULTSR_Pos            16                                             /*!< SCB 
 409:./prime-framework/arch/arm/cortex-m3/lpc1768/include/core_cm3.h **** #define SCB_CFSR_USGFAULTSR_Msk            (0xFFFFUL << SCB_CFSR_USGFAULTSR_Pos)          /*!< SCB 
 410:./prime-framework/arch/arm/cortex-m3/lpc1768/include/core_cm3.h **** 
 411:./prime-framework/arch/arm/cortex-m3/lpc1768/include/core_cm3.h **** #define SCB_CFSR_BUSFAULTSR_Pos             8                                             /*!< SCB 
 412:./prime-framework/arch/arm/cortex-m3/lpc1768/include/core_cm3.h **** #define SCB_CFSR_BUSFAULTSR_Msk            (0xFFUL << SCB_CFSR_BUSFAULTSR_Pos)            /*!< SCB 
 413:./prime-framework/arch/arm/cortex-m3/lpc1768/include/core_cm3.h **** 
 414:./prime-framework/arch/arm/cortex-m3/lpc1768/include/core_cm3.h **** #define SCB_CFSR_MEMFAULTSR_Pos             0                                             /*!< SCB 
 415:./prime-framework/arch/arm/cortex-m3/lpc1768/include/core_cm3.h **** #define SCB_CFSR_MEMFAULTSR_Msk            (0xFFUL << SCB_CFSR_MEMFAULTSR_Pos)            /*!< SCB 
 416:./prime-framework/arch/arm/cortex-m3/lpc1768/include/core_cm3.h **** 
 417:./prime-framework/arch/arm/cortex-m3/lpc1768/include/core_cm3.h **** /* SCB Hard Fault Status Registers Definitions */
 418:./prime-framework/arch/arm/cortex-m3/lpc1768/include/core_cm3.h **** #define SCB_HFSR_DEBUGEVT_Pos              31                                             /*!< SCB 
 419:./prime-framework/arch/arm/cortex-m3/lpc1768/include/core_cm3.h **** #define SCB_HFSR_DEBUGEVT_Msk              (1UL << SCB_HFSR_DEBUGEVT_Pos)                 /*!< SCB 
 420:./prime-framework/arch/arm/cortex-m3/lpc1768/include/core_cm3.h **** 
 421:./prime-framework/arch/arm/cortex-m3/lpc1768/include/core_cm3.h **** #define SCB_HFSR_FORCED_Pos                30                                             /*!< SCB 
 422:./prime-framework/arch/arm/cortex-m3/lpc1768/include/core_cm3.h **** #define SCB_HFSR_FORCED_Msk                (1UL << SCB_HFSR_FORCED_Pos)                   /*!< SCB 
 423:./prime-framework/arch/arm/cortex-m3/lpc1768/include/core_cm3.h **** 
 424:./prime-framework/arch/arm/cortex-m3/lpc1768/include/core_cm3.h **** #define SCB_HFSR_VECTTBL_Pos                1                                             /*!< SCB 
 425:./prime-framework/arch/arm/cortex-m3/lpc1768/include/core_cm3.h **** #define SCB_HFSR_VECTTBL_Msk               (1UL << SCB_HFSR_VECTTBL_Pos)                  /*!< SCB 
 426:./prime-framework/arch/arm/cortex-m3/lpc1768/include/core_cm3.h **** 
 427:./prime-framework/arch/arm/cortex-m3/lpc1768/include/core_cm3.h **** /* SCB Debug Fault Status Register Definitions */
 428:./prime-framework/arch/arm/cortex-m3/lpc1768/include/core_cm3.h **** #define SCB_DFSR_EXTERNAL_Pos               4                                             /*!< SCB 
 429:./prime-framework/arch/arm/cortex-m3/lpc1768/include/core_cm3.h **** #define SCB_DFSR_EXTERNAL_Msk              (1UL << SCB_DFSR_EXTERNAL_Pos)                 /*!< SCB 
 430:./prime-framework/arch/arm/cortex-m3/lpc1768/include/core_cm3.h **** 
 431:./prime-framework/arch/arm/cortex-m3/lpc1768/include/core_cm3.h **** #define SCB_DFSR_VCATCH_Pos                 3                                             /*!< SCB 
 432:./prime-framework/arch/arm/cortex-m3/lpc1768/include/core_cm3.h **** #define SCB_DFSR_VCATCH_Msk                (1UL << SCB_DFSR_VCATCH_Pos)                   /*!< SCB 
 433:./prime-framework/arch/arm/cortex-m3/lpc1768/include/core_cm3.h **** 
 434:./prime-framework/arch/arm/cortex-m3/lpc1768/include/core_cm3.h **** #define SCB_DFSR_DWTTRAP_Pos                2                                             /*!< SCB 
 435:./prime-framework/arch/arm/cortex-m3/lpc1768/include/core_cm3.h **** #define SCB_DFSR_DWTTRAP_Msk               (1UL << SCB_DFSR_DWTTRAP_Pos)                  /*!< SCB 
 436:./prime-framework/arch/arm/cortex-m3/lpc1768/include/core_cm3.h **** 
 437:./prime-framework/arch/arm/cortex-m3/lpc1768/include/core_cm3.h **** #define SCB_DFSR_BKPT_Pos                   1                                             /*!< SCB 
 438:./prime-framework/arch/arm/cortex-m3/lpc1768/include/core_cm3.h **** #define SCB_DFSR_BKPT_Msk                  (1UL << SCB_DFSR_BKPT_Pos)                     /*!< SCB 
 439:./prime-framework/arch/arm/cortex-m3/lpc1768/include/core_cm3.h **** 
 440:./prime-framework/arch/arm/cortex-m3/lpc1768/include/core_cm3.h **** #define SCB_DFSR_HALTED_Pos                 0                                             /*!< SCB 
 441:./prime-framework/arch/arm/cortex-m3/lpc1768/include/core_cm3.h **** #define SCB_DFSR_HALTED_Msk                (1UL << SCB_DFSR_HALTED_Pos)                   /*!< SCB 
 442:./prime-framework/arch/arm/cortex-m3/lpc1768/include/core_cm3.h **** 
 443:./prime-framework/arch/arm/cortex-m3/lpc1768/include/core_cm3.h **** /*@} end of group CMSIS_SCB */
 444:./prime-framework/arch/arm/cortex-m3/lpc1768/include/core_cm3.h **** 
 445:./prime-framework/arch/arm/cortex-m3/lpc1768/include/core_cm3.h **** 
 446:./prime-framework/arch/arm/cortex-m3/lpc1768/include/core_cm3.h **** /** \ingroup  CMSIS_core_register
 447:./prime-framework/arch/arm/cortex-m3/lpc1768/include/core_cm3.h ****     \defgroup CMSIS_SysTick CMSIS SysTick
 448:./prime-framework/arch/arm/cortex-m3/lpc1768/include/core_cm3.h ****   Type definitions for the Cortex-M System Timer Registers
 449:./prime-framework/arch/arm/cortex-m3/lpc1768/include/core_cm3.h ****   @{
 450:./prime-framework/arch/arm/cortex-m3/lpc1768/include/core_cm3.h ****  */
 451:./prime-framework/arch/arm/cortex-m3/lpc1768/include/core_cm3.h **** 
ARM GAS  C:\Users\Akil\AppData\Local\Temp\ccrFjqgU.s 			page 10


 452:./prime-framework/arch/arm/cortex-m3/lpc1768/include/core_cm3.h **** /** \brief  Structure type to access the System Timer (SysTick).
 453:./prime-framework/arch/arm/cortex-m3/lpc1768/include/core_cm3.h ****  */
 454:./prime-framework/arch/arm/cortex-m3/lpc1768/include/core_cm3.h **** typedef struct
 455:./prime-framework/arch/arm/cortex-m3/lpc1768/include/core_cm3.h **** {
 456:./prime-framework/arch/arm/cortex-m3/lpc1768/include/core_cm3.h ****   __IO uint32_t CTRL;                    /*!< Offset: 0x000 (R/W)  SysTick Control and Status Regis
 457:./prime-framework/arch/arm/cortex-m3/lpc1768/include/core_cm3.h ****   __IO uint32_t LOAD;                    /*!< Offset: 0x004 (R/W)  SysTick Reload Value Register   
 458:./prime-framework/arch/arm/cortex-m3/lpc1768/include/core_cm3.h ****   __IO uint32_t VAL;                     /*!< Offset: 0x008 (R/W)  SysTick Current Value Register  
 459:./prime-framework/arch/arm/cortex-m3/lpc1768/include/core_cm3.h ****   __I  uint32_t CALIB;                   /*!< Offset: 0x00C (R/ )  SysTick Calibration Register    
 460:./prime-framework/arch/arm/cortex-m3/lpc1768/include/core_cm3.h **** } SysTick_Type;
 461:./prime-framework/arch/arm/cortex-m3/lpc1768/include/core_cm3.h **** 
 462:./prime-framework/arch/arm/cortex-m3/lpc1768/include/core_cm3.h **** /* SysTick Control / Status Register Definitions */
 463:./prime-framework/arch/arm/cortex-m3/lpc1768/include/core_cm3.h **** #define SysTick_CTRL_COUNTFLAG_Pos         16                                             /*!< SysT
 464:./prime-framework/arch/arm/cortex-m3/lpc1768/include/core_cm3.h **** #define SysTick_CTRL_COUNTFLAG_Msk         (1UL << SysTick_CTRL_COUNTFLAG_Pos)            /*!< SysT
 465:./prime-framework/arch/arm/cortex-m3/lpc1768/include/core_cm3.h **** 
 466:./prime-framework/arch/arm/cortex-m3/lpc1768/include/core_cm3.h **** #define SysTick_CTRL_CLKSOURCE_Pos          2                                             /*!< SysT
 467:./prime-framework/arch/arm/cortex-m3/lpc1768/include/core_cm3.h **** #define SysTick_CTRL_CLKSOURCE_Msk         (1UL << SysTick_CTRL_CLKSOURCE_Pos)            /*!< SysT
 468:./prime-framework/arch/arm/cortex-m3/lpc1768/include/core_cm3.h **** 
 469:./prime-framework/arch/arm/cortex-m3/lpc1768/include/core_cm3.h **** #define SysTick_CTRL_TICKINT_Pos            1                                             /*!< SysT
 470:./prime-framework/arch/arm/cortex-m3/lpc1768/include/core_cm3.h **** #define SysTick_CTRL_TICKINT_Msk           (1UL << SysTick_CTRL_TICKINT_Pos)              /*!< SysT
 471:./prime-framework/arch/arm/cortex-m3/lpc1768/include/core_cm3.h **** 
 472:./prime-framework/arch/arm/cortex-m3/lpc1768/include/core_cm3.h **** #define SysTick_CTRL_ENABLE_Pos             0                                             /*!< SysT
 473:./prime-framework/arch/arm/cortex-m3/lpc1768/include/core_cm3.h **** #define SysTick_CTRL_ENABLE_Msk            (1UL << SysTick_CTRL_ENABLE_Pos)               /*!< SysT
 474:./prime-framework/arch/arm/cortex-m3/lpc1768/include/core_cm3.h **** 
 475:./prime-framework/arch/arm/cortex-m3/lpc1768/include/core_cm3.h **** /* SysTick Reload Register Definitions */
 476:./prime-framework/arch/arm/cortex-m3/lpc1768/include/core_cm3.h **** #define SysTick_LOAD_RELOAD_Pos             0                                             /*!< SysT
 477:./prime-framework/arch/arm/cortex-m3/lpc1768/include/core_cm3.h **** #define SysTick_LOAD_RELOAD_Msk            (0xFFFFFFUL << SysTick_LOAD_RELOAD_Pos)        /*!< SysT
 478:./prime-framework/arch/arm/cortex-m3/lpc1768/include/core_cm3.h **** 
 479:./prime-framework/arch/arm/cortex-m3/lpc1768/include/core_cm3.h **** /* SysTick Current Register Definitions */
 480:./prime-framework/arch/arm/cortex-m3/lpc1768/include/core_cm3.h **** #define SysTick_VAL_CURRENT_Pos             0                                             /*!< SysT
 481:./prime-framework/arch/arm/cortex-m3/lpc1768/include/core_cm3.h **** #define SysTick_VAL_CURRENT_Msk            (0xFFFFFFUL << SysTick_VAL_CURRENT_Pos)        /*!< SysT
 482:./prime-framework/arch/arm/cortex-m3/lpc1768/include/core_cm3.h **** 
 483:./prime-framework/arch/arm/cortex-m3/lpc1768/include/core_cm3.h **** /* SysTick Calibration Register Definitions */
 484:./prime-framework/arch/arm/cortex-m3/lpc1768/include/core_cm3.h **** #define SysTick_CALIB_NOREF_Pos            31                                             /*!< SysT
 485:./prime-framework/arch/arm/cortex-m3/lpc1768/include/core_cm3.h **** #define SysTick_CALIB_NOREF_Msk            (1UL << SysTick_CALIB_NOREF_Pos)               /*!< SysT
 486:./prime-framework/arch/arm/cortex-m3/lpc1768/include/core_cm3.h **** 
 487:./prime-framework/arch/arm/cortex-m3/lpc1768/include/core_cm3.h **** #define SysTick_CALIB_SKEW_Pos             30                                             /*!< SysT
 488:./prime-framework/arch/arm/cortex-m3/lpc1768/include/core_cm3.h **** #define SysTick_CALIB_SKEW_Msk             (1UL << SysTick_CALIB_SKEW_Pos)                /*!< SysT
 489:./prime-framework/arch/arm/cortex-m3/lpc1768/include/core_cm3.h **** 
 490:./prime-framework/arch/arm/cortex-m3/lpc1768/include/core_cm3.h **** #define SysTick_CALIB_TENMS_Pos             0                                             /*!< SysT
 491:./prime-framework/arch/arm/cortex-m3/lpc1768/include/core_cm3.h **** #define SysTick_CALIB_TENMS_Msk            (0xFFFFFFUL << SysTick_VAL_CURRENT_Pos)        /*!< SysT
 492:./prime-framework/arch/arm/cortex-m3/lpc1768/include/core_cm3.h **** 
 493:./prime-framework/arch/arm/cortex-m3/lpc1768/include/core_cm3.h **** /*@} end of group CMSIS_SysTick */
 494:./prime-framework/arch/arm/cortex-m3/lpc1768/include/core_cm3.h **** 
 495:./prime-framework/arch/arm/cortex-m3/lpc1768/include/core_cm3.h **** 
 496:./prime-framework/arch/arm/cortex-m3/lpc1768/include/core_cm3.h **** /** \ingroup  CMSIS_core_register
 497:./prime-framework/arch/arm/cortex-m3/lpc1768/include/core_cm3.h ****     \defgroup CMSIS_ITM CMSIS ITM
 498:./prime-framework/arch/arm/cortex-m3/lpc1768/include/core_cm3.h ****   Type definitions for the Cortex-M Instrumentation Trace Macrocell (ITM)
 499:./prime-framework/arch/arm/cortex-m3/lpc1768/include/core_cm3.h ****   @{
 500:./prime-framework/arch/arm/cortex-m3/lpc1768/include/core_cm3.h ****  */
 501:./prime-framework/arch/arm/cortex-m3/lpc1768/include/core_cm3.h **** 
 502:./prime-framework/arch/arm/cortex-m3/lpc1768/include/core_cm3.h **** /** \brief  Structure type to access the Instrumentation Trace Macrocell Register (ITM).
 503:./prime-framework/arch/arm/cortex-m3/lpc1768/include/core_cm3.h ****  */
 504:./prime-framework/arch/arm/cortex-m3/lpc1768/include/core_cm3.h **** typedef struct
 505:./prime-framework/arch/arm/cortex-m3/lpc1768/include/core_cm3.h **** {
 506:./prime-framework/arch/arm/cortex-m3/lpc1768/include/core_cm3.h ****   __O  union
 507:./prime-framework/arch/arm/cortex-m3/lpc1768/include/core_cm3.h ****   {
 508:./prime-framework/arch/arm/cortex-m3/lpc1768/include/core_cm3.h ****     __O  uint8_t    u8;                  /*!< Offset: 0x000 ( /W)  ITM Stimulus Port 8-bit         
ARM GAS  C:\Users\Akil\AppData\Local\Temp\ccrFjqgU.s 			page 11


 509:./prime-framework/arch/arm/cortex-m3/lpc1768/include/core_cm3.h ****     __O  uint16_t   u16;                 /*!< Offset: 0x000 ( /W)  ITM Stimulus Port 16-bit        
 510:./prime-framework/arch/arm/cortex-m3/lpc1768/include/core_cm3.h ****     __O  uint32_t   u32;                 /*!< Offset: 0x000 ( /W)  ITM Stimulus Port 32-bit        
 511:./prime-framework/arch/arm/cortex-m3/lpc1768/include/core_cm3.h ****   }  PORT [32];                          /*!< Offset: 0x000 ( /W)  ITM Stimulus Port Registers     
 512:./prime-framework/arch/arm/cortex-m3/lpc1768/include/core_cm3.h ****        uint32_t RESERVED0[864];
 513:./prime-framework/arch/arm/cortex-m3/lpc1768/include/core_cm3.h ****   __IO uint32_t TER;                     /*!< Offset:       (R/W)  ITM Trace Enable Register       
 514:./prime-framework/arch/arm/cortex-m3/lpc1768/include/core_cm3.h ****        uint32_t RESERVED1[15];
 515:./prime-framework/arch/arm/cortex-m3/lpc1768/include/core_cm3.h ****   __IO uint32_t TPR;                     /*!< Offset:       (R/W)  ITM Trace Privilege Register    
 516:./prime-framework/arch/arm/cortex-m3/lpc1768/include/core_cm3.h ****        uint32_t RESERVED2[15];
 517:./prime-framework/arch/arm/cortex-m3/lpc1768/include/core_cm3.h ****   __IO uint32_t TCR;                     /*!< Offset:       (R/W)  ITM Trace Control Register      
 518:./prime-framework/arch/arm/cortex-m3/lpc1768/include/core_cm3.h ****        uint32_t RESERVED3[29];
 519:./prime-framework/arch/arm/cortex-m3/lpc1768/include/core_cm3.h ****   __IO uint32_t IWR;                     /*!< Offset:       (R/W)  ITM Integration Write Register  
 520:./prime-framework/arch/arm/cortex-m3/lpc1768/include/core_cm3.h ****   __IO uint32_t IRR;                     /*!< Offset:       (R/W)  ITM Integration Read Register   
 521:./prime-framework/arch/arm/cortex-m3/lpc1768/include/core_cm3.h ****   __IO uint32_t IMCR;                    /*!< Offset:       (R/W)  ITM Integration Mode Control Reg
 522:./prime-framework/arch/arm/cortex-m3/lpc1768/include/core_cm3.h ****        uint32_t RESERVED4[43];
 523:./prime-framework/arch/arm/cortex-m3/lpc1768/include/core_cm3.h ****   __IO uint32_t LAR;                     /*!< Offset:       (R/W)  ITM Lock Access Register        
 524:./prime-framework/arch/arm/cortex-m3/lpc1768/include/core_cm3.h ****   __IO uint32_t LSR;                     /*!< Offset:       (R/W)  ITM Lock Status Register        
 525:./prime-framework/arch/arm/cortex-m3/lpc1768/include/core_cm3.h ****        uint32_t RESERVED5[6];
 526:./prime-framework/arch/arm/cortex-m3/lpc1768/include/core_cm3.h ****   __I  uint32_t PID4;                    /*!< Offset:       (R/ )  ITM Peripheral Identification Re
 527:./prime-framework/arch/arm/cortex-m3/lpc1768/include/core_cm3.h ****   __I  uint32_t PID5;                    /*!< Offset:       (R/ )  ITM Peripheral Identification Re
 528:./prime-framework/arch/arm/cortex-m3/lpc1768/include/core_cm3.h ****   __I  uint32_t PID6;                    /*!< Offset:       (R/ )  ITM Peripheral Identification Re
 529:./prime-framework/arch/arm/cortex-m3/lpc1768/include/core_cm3.h ****   __I  uint32_t PID7;                    /*!< Offset:       (R/ )  ITM Peripheral Identification Re
 530:./prime-framework/arch/arm/cortex-m3/lpc1768/include/core_cm3.h ****   __I  uint32_t PID0;                    /*!< Offset:       (R/ )  ITM Peripheral Identification Re
 531:./prime-framework/arch/arm/cortex-m3/lpc1768/include/core_cm3.h ****   __I  uint32_t PID1;                    /*!< Offset:       (R/ )  ITM Peripheral Identification Re
 532:./prime-framework/arch/arm/cortex-m3/lpc1768/include/core_cm3.h ****   __I  uint32_t PID2;                    /*!< Offset:       (R/ )  ITM Peripheral Identification Re
 533:./prime-framework/arch/arm/cortex-m3/lpc1768/include/core_cm3.h ****   __I  uint32_t PID3;                    /*!< Offset:       (R/ )  ITM Peripheral Identification Re
 534:./prime-framework/arch/arm/cortex-m3/lpc1768/include/core_cm3.h ****   __I  uint32_t CID0;                    /*!< Offset:       (R/ )  ITM Component  Identification Re
 535:./prime-framework/arch/arm/cortex-m3/lpc1768/include/core_cm3.h ****   __I  uint32_t CID1;                    /*!< Offset:       (R/ )  ITM Component  Identification Re
 536:./prime-framework/arch/arm/cortex-m3/lpc1768/include/core_cm3.h ****   __I  uint32_t CID2;                    /*!< Offset:       (R/ )  ITM Component  Identification Re
 537:./prime-framework/arch/arm/cortex-m3/lpc1768/include/core_cm3.h ****   __I  uint32_t CID3;                    /*!< Offset:       (R/ )  ITM Component  Identification Re
 538:./prime-framework/arch/arm/cortex-m3/lpc1768/include/core_cm3.h **** } ITM_Type;
 539:./prime-framework/arch/arm/cortex-m3/lpc1768/include/core_cm3.h **** 
 540:./prime-framework/arch/arm/cortex-m3/lpc1768/include/core_cm3.h **** /* ITM Trace Privilege Register Definitions */
 541:./prime-framework/arch/arm/cortex-m3/lpc1768/include/core_cm3.h **** #define ITM_TPR_PRIVMASK_Pos                0                                             /*!< ITM 
 542:./prime-framework/arch/arm/cortex-m3/lpc1768/include/core_cm3.h **** #define ITM_TPR_PRIVMASK_Msk               (0xFUL << ITM_TPR_PRIVMASK_Pos)                /*!< ITM 
 543:./prime-framework/arch/arm/cortex-m3/lpc1768/include/core_cm3.h **** 
 544:./prime-framework/arch/arm/cortex-m3/lpc1768/include/core_cm3.h **** /* ITM Trace Control Register Definitions */
 545:./prime-framework/arch/arm/cortex-m3/lpc1768/include/core_cm3.h **** #define ITM_TCR_BUSY_Pos                   23                                             /*!< ITM 
 546:./prime-framework/arch/arm/cortex-m3/lpc1768/include/core_cm3.h **** #define ITM_TCR_BUSY_Msk                   (1UL << ITM_TCR_BUSY_Pos)                      /*!< ITM 
 547:./prime-framework/arch/arm/cortex-m3/lpc1768/include/core_cm3.h **** 
 548:./prime-framework/arch/arm/cortex-m3/lpc1768/include/core_cm3.h **** #define ITM_TCR_ATBID_Pos                  16                                             /*!< ITM 
 549:./prime-framework/arch/arm/cortex-m3/lpc1768/include/core_cm3.h **** #define ITM_TCR_ATBID_Msk                  (0x7FUL << ITM_TCR_ATBID_Pos)                  /*!< ITM 
 550:./prime-framework/arch/arm/cortex-m3/lpc1768/include/core_cm3.h **** 
 551:./prime-framework/arch/arm/cortex-m3/lpc1768/include/core_cm3.h **** #define ITM_TCR_TSPrescale_Pos              8                                             /*!< ITM 
 552:./prime-framework/arch/arm/cortex-m3/lpc1768/include/core_cm3.h **** #define ITM_TCR_TSPrescale_Msk             (3UL << ITM_TCR_TSPrescale_Pos)                /*!< ITM 
 553:./prime-framework/arch/arm/cortex-m3/lpc1768/include/core_cm3.h **** 
 554:./prime-framework/arch/arm/cortex-m3/lpc1768/include/core_cm3.h **** #define ITM_TCR_SWOENA_Pos                  4                                             /*!< ITM 
 555:./prime-framework/arch/arm/cortex-m3/lpc1768/include/core_cm3.h **** #define ITM_TCR_SWOENA_Msk                 (1UL << ITM_TCR_SWOENA_Pos)                    /*!< ITM 
 556:./prime-framework/arch/arm/cortex-m3/lpc1768/include/core_cm3.h **** 
 557:./prime-framework/arch/arm/cortex-m3/lpc1768/include/core_cm3.h **** #define ITM_TCR_DWTENA_Pos                  3                                             /*!< ITM 
 558:./prime-framework/arch/arm/cortex-m3/lpc1768/include/core_cm3.h **** #define ITM_TCR_DWTENA_Msk                 (1UL << ITM_TCR_DWTENA_Pos)                    /*!< ITM 
 559:./prime-framework/arch/arm/cortex-m3/lpc1768/include/core_cm3.h **** 
 560:./prime-framework/arch/arm/cortex-m3/lpc1768/include/core_cm3.h **** #define ITM_TCR_SYNCENA_Pos                 2                                             /*!< ITM 
 561:./prime-framework/arch/arm/cortex-m3/lpc1768/include/core_cm3.h **** #define ITM_TCR_SYNCENA_Msk                (1UL << ITM_TCR_SYNCENA_Pos)                   /*!< ITM 
 562:./prime-framework/arch/arm/cortex-m3/lpc1768/include/core_cm3.h **** 
 563:./prime-framework/arch/arm/cortex-m3/lpc1768/include/core_cm3.h **** #define ITM_TCR_TSENA_Pos                   1                                             /*!< ITM 
 564:./prime-framework/arch/arm/cortex-m3/lpc1768/include/core_cm3.h **** #define ITM_TCR_TSENA_Msk                  (1UL << ITM_TCR_TSENA_Pos)                     /*!< ITM 
 565:./prime-framework/arch/arm/cortex-m3/lpc1768/include/core_cm3.h **** 
ARM GAS  C:\Users\Akil\AppData\Local\Temp\ccrFjqgU.s 			page 12


 566:./prime-framework/arch/arm/cortex-m3/lpc1768/include/core_cm3.h **** #define ITM_TCR_ITMENA_Pos                  0                                             /*!< ITM 
 567:./prime-framework/arch/arm/cortex-m3/lpc1768/include/core_cm3.h **** #define ITM_TCR_ITMENA_Msk                 (1UL << ITM_TCR_ITMENA_Pos)                    /*!< ITM 
 568:./prime-framework/arch/arm/cortex-m3/lpc1768/include/core_cm3.h **** 
 569:./prime-framework/arch/arm/cortex-m3/lpc1768/include/core_cm3.h **** /* ITM Integration Write Register Definitions */
 570:./prime-framework/arch/arm/cortex-m3/lpc1768/include/core_cm3.h **** #define ITM_IWR_ATVALIDM_Pos                0                                             /*!< ITM 
 571:./prime-framework/arch/arm/cortex-m3/lpc1768/include/core_cm3.h **** #define ITM_IWR_ATVALIDM_Msk               (1UL << ITM_IWR_ATVALIDM_Pos)                  /*!< ITM 
 572:./prime-framework/arch/arm/cortex-m3/lpc1768/include/core_cm3.h **** 
 573:./prime-framework/arch/arm/cortex-m3/lpc1768/include/core_cm3.h **** /* ITM Integration Read Register Definitions */
 574:./prime-framework/arch/arm/cortex-m3/lpc1768/include/core_cm3.h **** #define ITM_IRR_ATREADYM_Pos                0                                             /*!< ITM 
 575:./prime-framework/arch/arm/cortex-m3/lpc1768/include/core_cm3.h **** #define ITM_IRR_ATREADYM_Msk               (1UL << ITM_IRR_ATREADYM_Pos)                  /*!< ITM 
 576:./prime-framework/arch/arm/cortex-m3/lpc1768/include/core_cm3.h **** 
 577:./prime-framework/arch/arm/cortex-m3/lpc1768/include/core_cm3.h **** /* ITM Integration Mode Control Register Definitions */
 578:./prime-framework/arch/arm/cortex-m3/lpc1768/include/core_cm3.h **** #define ITM_IMCR_INTEGRATION_Pos            0                                             /*!< ITM 
 579:./prime-framework/arch/arm/cortex-m3/lpc1768/include/core_cm3.h **** #define ITM_IMCR_INTEGRATION_Msk           (1UL << ITM_IMCR_INTEGRATION_Pos)              /*!< ITM 
 580:./prime-framework/arch/arm/cortex-m3/lpc1768/include/core_cm3.h **** 
 581:./prime-framework/arch/arm/cortex-m3/lpc1768/include/core_cm3.h **** /* ITM Lock Status Register Definitions */
 582:./prime-framework/arch/arm/cortex-m3/lpc1768/include/core_cm3.h **** #define ITM_LSR_ByteAcc_Pos                 2                                             /*!< ITM 
 583:./prime-framework/arch/arm/cortex-m3/lpc1768/include/core_cm3.h **** #define ITM_LSR_ByteAcc_Msk                (1UL << ITM_LSR_ByteAcc_Pos)                   /*!< ITM 
 584:./prime-framework/arch/arm/cortex-m3/lpc1768/include/core_cm3.h **** 
 585:./prime-framework/arch/arm/cortex-m3/lpc1768/include/core_cm3.h **** #define ITM_LSR_Access_Pos                  1                                             /*!< ITM 
 586:./prime-framework/arch/arm/cortex-m3/lpc1768/include/core_cm3.h **** #define ITM_LSR_Access_Msk                 (1UL << ITM_LSR_Access_Pos)                    /*!< ITM 
 587:./prime-framework/arch/arm/cortex-m3/lpc1768/include/core_cm3.h **** 
 588:./prime-framework/arch/arm/cortex-m3/lpc1768/include/core_cm3.h **** #define ITM_LSR_Present_Pos                 0                                             /*!< ITM 
 589:./prime-framework/arch/arm/cortex-m3/lpc1768/include/core_cm3.h **** #define ITM_LSR_Present_Msk                (1UL << ITM_LSR_Present_Pos)                   /*!< ITM 
 590:./prime-framework/arch/arm/cortex-m3/lpc1768/include/core_cm3.h **** 
 591:./prime-framework/arch/arm/cortex-m3/lpc1768/include/core_cm3.h **** /*@}*/ /* end of group CMSIS_ITM */
 592:./prime-framework/arch/arm/cortex-m3/lpc1768/include/core_cm3.h **** 
 593:./prime-framework/arch/arm/cortex-m3/lpc1768/include/core_cm3.h **** 
 594:./prime-framework/arch/arm/cortex-m3/lpc1768/include/core_cm3.h **** /** \ingroup  CMSIS_core_register
 595:./prime-framework/arch/arm/cortex-m3/lpc1768/include/core_cm3.h ****     \defgroup CMSIS_InterruptType CMSIS Interrupt Type
 596:./prime-framework/arch/arm/cortex-m3/lpc1768/include/core_cm3.h ****   Type definitions for the Cortex-M Interrupt Type Register
 597:./prime-framework/arch/arm/cortex-m3/lpc1768/include/core_cm3.h ****   @{
 598:./prime-framework/arch/arm/cortex-m3/lpc1768/include/core_cm3.h ****  */
 599:./prime-framework/arch/arm/cortex-m3/lpc1768/include/core_cm3.h **** 
 600:./prime-framework/arch/arm/cortex-m3/lpc1768/include/core_cm3.h **** /** \brief  Structure type to access the Interrupt Type Register.
 601:./prime-framework/arch/arm/cortex-m3/lpc1768/include/core_cm3.h ****  */
 602:./prime-framework/arch/arm/cortex-m3/lpc1768/include/core_cm3.h **** typedef struct
 603:./prime-framework/arch/arm/cortex-m3/lpc1768/include/core_cm3.h **** {
 604:./prime-framework/arch/arm/cortex-m3/lpc1768/include/core_cm3.h ****        uint32_t RESERVED0;
 605:./prime-framework/arch/arm/cortex-m3/lpc1768/include/core_cm3.h ****   __I  uint32_t ICTR;                    /*!< Offset: 0x004 (R/ )  Interrupt Control Type Register 
 606:./prime-framework/arch/arm/cortex-m3/lpc1768/include/core_cm3.h **** #if ((defined __CM3_REV) && (__CM3_REV >= 0x200))
 607:./prime-framework/arch/arm/cortex-m3/lpc1768/include/core_cm3.h ****   __IO uint32_t ACTLR;                   /*!< Offset: 0x008 (R/W)  Auxiliary Control Register      
 608:./prime-framework/arch/arm/cortex-m3/lpc1768/include/core_cm3.h **** #else
 609:./prime-framework/arch/arm/cortex-m3/lpc1768/include/core_cm3.h ****        uint32_t RESERVED1;
 610:./prime-framework/arch/arm/cortex-m3/lpc1768/include/core_cm3.h **** #endif
 611:./prime-framework/arch/arm/cortex-m3/lpc1768/include/core_cm3.h **** } InterruptType_Type;
 612:./prime-framework/arch/arm/cortex-m3/lpc1768/include/core_cm3.h **** 
 613:./prime-framework/arch/arm/cortex-m3/lpc1768/include/core_cm3.h **** /* Interrupt Controller Type Register Definitions */
 614:./prime-framework/arch/arm/cortex-m3/lpc1768/include/core_cm3.h **** #define IntType_ICTR_INTLINESNUM_Pos  0                                                   /*!< Inte
 615:./prime-framework/arch/arm/cortex-m3/lpc1768/include/core_cm3.h **** #define IntType_ICTR_INTLINESNUM_Msk (0x1FUL << IntType_ICTR_INTLINESNUM_Pos)             /*!< Inte
 616:./prime-framework/arch/arm/cortex-m3/lpc1768/include/core_cm3.h **** 
 617:./prime-framework/arch/arm/cortex-m3/lpc1768/include/core_cm3.h **** /* Auxiliary Control Register Definitions */
 618:./prime-framework/arch/arm/cortex-m3/lpc1768/include/core_cm3.h **** #define IntType_ACTLR_DISFOLD_Pos     2                                                   /*!< Inte
 619:./prime-framework/arch/arm/cortex-m3/lpc1768/include/core_cm3.h **** #define IntType_ACTLR_DISFOLD_Msk    (1UL << IntType_ACTLR_DISFOLD_Pos)                   /*!< Inte
 620:./prime-framework/arch/arm/cortex-m3/lpc1768/include/core_cm3.h **** 
 621:./prime-framework/arch/arm/cortex-m3/lpc1768/include/core_cm3.h **** #define IntType_ACTLR_DISDEFWBUF_Pos  1                                                   /*!< Inte
 622:./prime-framework/arch/arm/cortex-m3/lpc1768/include/core_cm3.h **** #define IntType_ACTLR_DISDEFWBUF_Msk (1UL << IntType_ACTLR_DISDEFWBUF_Pos)                /*!< Inte
ARM GAS  C:\Users\Akil\AppData\Local\Temp\ccrFjqgU.s 			page 13


 623:./prime-framework/arch/arm/cortex-m3/lpc1768/include/core_cm3.h **** 
 624:./prime-framework/arch/arm/cortex-m3/lpc1768/include/core_cm3.h **** #define IntType_ACTLR_DISMCYCINT_Pos  0                                                   /*!< Inte
 625:./prime-framework/arch/arm/cortex-m3/lpc1768/include/core_cm3.h **** #define IntType_ACTLR_DISMCYCINT_Msk (1UL << IntType_ACTLR_DISMCYCINT_Pos)                /*!< Inte
 626:./prime-framework/arch/arm/cortex-m3/lpc1768/include/core_cm3.h **** 
 627:./prime-framework/arch/arm/cortex-m3/lpc1768/include/core_cm3.h **** /*@}*/ /* end of group CMSIS_InterruptType */
 628:./prime-framework/arch/arm/cortex-m3/lpc1768/include/core_cm3.h **** 
 629:./prime-framework/arch/arm/cortex-m3/lpc1768/include/core_cm3.h **** 
 630:./prime-framework/arch/arm/cortex-m3/lpc1768/include/core_cm3.h **** #if (__MPU_PRESENT == 1)
 631:./prime-framework/arch/arm/cortex-m3/lpc1768/include/core_cm3.h **** /** \ingroup  CMSIS_core_register
 632:./prime-framework/arch/arm/cortex-m3/lpc1768/include/core_cm3.h ****     \defgroup CMSIS_MPU CMSIS MPU
 633:./prime-framework/arch/arm/cortex-m3/lpc1768/include/core_cm3.h ****   Type definitions for the Cortex-M Memory Protection Unit (MPU)
 634:./prime-framework/arch/arm/cortex-m3/lpc1768/include/core_cm3.h ****   @{
 635:./prime-framework/arch/arm/cortex-m3/lpc1768/include/core_cm3.h ****  */
 636:./prime-framework/arch/arm/cortex-m3/lpc1768/include/core_cm3.h **** 
 637:./prime-framework/arch/arm/cortex-m3/lpc1768/include/core_cm3.h **** /** \brief  Structure type to access the Memory Protection Unit (MPU).
 638:./prime-framework/arch/arm/cortex-m3/lpc1768/include/core_cm3.h ****  */
 639:./prime-framework/arch/arm/cortex-m3/lpc1768/include/core_cm3.h **** typedef struct
 640:./prime-framework/arch/arm/cortex-m3/lpc1768/include/core_cm3.h **** {
 641:./prime-framework/arch/arm/cortex-m3/lpc1768/include/core_cm3.h ****   __I  uint32_t TYPE;                    /*!< Offset: 0x000 (R/ )  MPU Type Register               
 642:./prime-framework/arch/arm/cortex-m3/lpc1768/include/core_cm3.h ****   __IO uint32_t CTRL;                    /*!< Offset: 0x004 (R/W)  MPU Control Register            
 643:./prime-framework/arch/arm/cortex-m3/lpc1768/include/core_cm3.h ****   __IO uint32_t RNR;                     /*!< Offset: 0x008 (R/W)  MPU Region RNRber Register      
 644:./prime-framework/arch/arm/cortex-m3/lpc1768/include/core_cm3.h ****   __IO uint32_t RBAR;                    /*!< Offset: 0x00C (R/W)  MPU Region Base Address Register
 645:./prime-framework/arch/arm/cortex-m3/lpc1768/include/core_cm3.h ****   __IO uint32_t RASR;                    /*!< Offset: 0x010 (R/W)  MPU Region Attribute and Size Re
 646:./prime-framework/arch/arm/cortex-m3/lpc1768/include/core_cm3.h ****   __IO uint32_t RBAR_A1;                 /*!< Offset: 0x014 (R/W)  MPU Alias 1 Region Base Address 
 647:./prime-framework/arch/arm/cortex-m3/lpc1768/include/core_cm3.h ****   __IO uint32_t RASR_A1;                 /*!< Offset: 0x018 (R/W)  MPU Alias 1 Region Attribute and
 648:./prime-framework/arch/arm/cortex-m3/lpc1768/include/core_cm3.h ****   __IO uint32_t RBAR_A2;                 /*!< Offset: 0x01C (R/W)  MPU Alias 2 Region Base Address 
 649:./prime-framework/arch/arm/cortex-m3/lpc1768/include/core_cm3.h ****   __IO uint32_t RASR_A2;                 /*!< Offset: 0x020 (R/W)  MPU Alias 2 Region Attribute and
 650:./prime-framework/arch/arm/cortex-m3/lpc1768/include/core_cm3.h ****   __IO uint32_t RBAR_A3;                 /*!< Offset: 0x024 (R/W)  MPU Alias 3 Region Base Address 
 651:./prime-framework/arch/arm/cortex-m3/lpc1768/include/core_cm3.h ****   __IO uint32_t RASR_A3;                 /*!< Offset: 0x028 (R/W)  MPU Alias 3 Region Attribute and
 652:./prime-framework/arch/arm/cortex-m3/lpc1768/include/core_cm3.h **** } MPU_Type;
 653:./prime-framework/arch/arm/cortex-m3/lpc1768/include/core_cm3.h **** 
 654:./prime-framework/arch/arm/cortex-m3/lpc1768/include/core_cm3.h **** /* MPU Type Register */
 655:./prime-framework/arch/arm/cortex-m3/lpc1768/include/core_cm3.h **** #define MPU_TYPE_IREGION_Pos               16                                             /*!< MPU 
 656:./prime-framework/arch/arm/cortex-m3/lpc1768/include/core_cm3.h **** #define MPU_TYPE_IREGION_Msk               (0xFFUL << MPU_TYPE_IREGION_Pos)               /*!< MPU 
 657:./prime-framework/arch/arm/cortex-m3/lpc1768/include/core_cm3.h **** 
 658:./prime-framework/arch/arm/cortex-m3/lpc1768/include/core_cm3.h **** #define MPU_TYPE_DREGION_Pos                8                                             /*!< MPU 
 659:./prime-framework/arch/arm/cortex-m3/lpc1768/include/core_cm3.h **** #define MPU_TYPE_DREGION_Msk               (0xFFUL << MPU_TYPE_DREGION_Pos)               /*!< MPU 
 660:./prime-framework/arch/arm/cortex-m3/lpc1768/include/core_cm3.h **** 
 661:./prime-framework/arch/arm/cortex-m3/lpc1768/include/core_cm3.h **** #define MPU_TYPE_SEPARATE_Pos               0                                             /*!< MPU 
 662:./prime-framework/arch/arm/cortex-m3/lpc1768/include/core_cm3.h **** #define MPU_TYPE_SEPARATE_Msk              (1UL << MPU_TYPE_SEPARATE_Pos)                 /*!< MPU 
 663:./prime-framework/arch/arm/cortex-m3/lpc1768/include/core_cm3.h **** 
 664:./prime-framework/arch/arm/cortex-m3/lpc1768/include/core_cm3.h **** /* MPU Control Register */
 665:./prime-framework/arch/arm/cortex-m3/lpc1768/include/core_cm3.h **** #define MPU_CTRL_PRIVDEFENA_Pos             2                                             /*!< MPU 
 666:./prime-framework/arch/arm/cortex-m3/lpc1768/include/core_cm3.h **** #define MPU_CTRL_PRIVDEFENA_Msk            (1UL << MPU_CTRL_PRIVDEFENA_Pos)               /*!< MPU 
 667:./prime-framework/arch/arm/cortex-m3/lpc1768/include/core_cm3.h **** 
 668:./prime-framework/arch/arm/cortex-m3/lpc1768/include/core_cm3.h **** #define MPU_CTRL_HFNMIENA_Pos               1                                             /*!< MPU 
 669:./prime-framework/arch/arm/cortex-m3/lpc1768/include/core_cm3.h **** #define MPU_CTRL_HFNMIENA_Msk              (1UL << MPU_CTRL_HFNMIENA_Pos)                 /*!< MPU 
 670:./prime-framework/arch/arm/cortex-m3/lpc1768/include/core_cm3.h **** 
 671:./prime-framework/arch/arm/cortex-m3/lpc1768/include/core_cm3.h **** #define MPU_CTRL_ENABLE_Pos                 0                                             /*!< MPU 
 672:./prime-framework/arch/arm/cortex-m3/lpc1768/include/core_cm3.h **** #define MPU_CTRL_ENABLE_Msk                (1UL << MPU_CTRL_ENABLE_Pos)                   /*!< MPU 
 673:./prime-framework/arch/arm/cortex-m3/lpc1768/include/core_cm3.h **** 
 674:./prime-framework/arch/arm/cortex-m3/lpc1768/include/core_cm3.h **** /* MPU Region Number Register */
 675:./prime-framework/arch/arm/cortex-m3/lpc1768/include/core_cm3.h **** #define MPU_RNR_REGION_Pos                  0                                             /*!< MPU 
 676:./prime-framework/arch/arm/cortex-m3/lpc1768/include/core_cm3.h **** #define MPU_RNR_REGION_Msk                 (0xFFUL << MPU_RNR_REGION_Pos)                 /*!< MPU 
 677:./prime-framework/arch/arm/cortex-m3/lpc1768/include/core_cm3.h **** 
 678:./prime-framework/arch/arm/cortex-m3/lpc1768/include/core_cm3.h **** /* MPU Region Base Address Register */
 679:./prime-framework/arch/arm/cortex-m3/lpc1768/include/core_cm3.h **** #define MPU_RBAR_ADDR_Pos                   5                                             /*!< MPU 
ARM GAS  C:\Users\Akil\AppData\Local\Temp\ccrFjqgU.s 			page 14


 680:./prime-framework/arch/arm/cortex-m3/lpc1768/include/core_cm3.h **** #define MPU_RBAR_ADDR_Msk                  (0x7FFFFFFUL << MPU_RBAR_ADDR_Pos)             /*!< MPU 
 681:./prime-framework/arch/arm/cortex-m3/lpc1768/include/core_cm3.h **** 
 682:./prime-framework/arch/arm/cortex-m3/lpc1768/include/core_cm3.h **** #define MPU_RBAR_VALID_Pos                  4                                             /*!< MPU 
 683:./prime-framework/arch/arm/cortex-m3/lpc1768/include/core_cm3.h **** #define MPU_RBAR_VALID_Msk                 (1UL << MPU_RBAR_VALID_Pos)                    /*!< MPU 
 684:./prime-framework/arch/arm/cortex-m3/lpc1768/include/core_cm3.h **** 
 685:./prime-framework/arch/arm/cortex-m3/lpc1768/include/core_cm3.h **** #define MPU_RBAR_REGION_Pos                 0                                             /*!< MPU 
 686:./prime-framework/arch/arm/cortex-m3/lpc1768/include/core_cm3.h **** #define MPU_RBAR_REGION_Msk                (0xFUL << MPU_RBAR_REGION_Pos)                 /*!< MPU 
 687:./prime-framework/arch/arm/cortex-m3/lpc1768/include/core_cm3.h **** 
 688:./prime-framework/arch/arm/cortex-m3/lpc1768/include/core_cm3.h **** /* MPU Region Attribute and Size Register */
 689:./prime-framework/arch/arm/cortex-m3/lpc1768/include/core_cm3.h **** #define MPU_RASR_XN_Pos                    28                                             /*!< MPU 
 690:./prime-framework/arch/arm/cortex-m3/lpc1768/include/core_cm3.h **** #define MPU_RASR_XN_Msk                    (1UL << MPU_RASR_XN_Pos)                       /*!< MPU 
 691:./prime-framework/arch/arm/cortex-m3/lpc1768/include/core_cm3.h **** 
 692:./prime-framework/arch/arm/cortex-m3/lpc1768/include/core_cm3.h **** #define MPU_RASR_AP_Pos                    24                                             /*!< MPU 
 693:./prime-framework/arch/arm/cortex-m3/lpc1768/include/core_cm3.h **** #define MPU_RASR_AP_Msk                    (7UL << MPU_RASR_AP_Pos)                       /*!< MPU 
 694:./prime-framework/arch/arm/cortex-m3/lpc1768/include/core_cm3.h **** 
 695:./prime-framework/arch/arm/cortex-m3/lpc1768/include/core_cm3.h **** #define MPU_RASR_TEX_Pos                   19                                             /*!< MPU 
 696:./prime-framework/arch/arm/cortex-m3/lpc1768/include/core_cm3.h **** #define MPU_RASR_TEX_Msk                   (7UL << MPU_RASR_TEX_Pos)                      /*!< MPU 
 697:./prime-framework/arch/arm/cortex-m3/lpc1768/include/core_cm3.h **** 
 698:./prime-framework/arch/arm/cortex-m3/lpc1768/include/core_cm3.h **** #define MPU_RASR_S_Pos                     18                                             /*!< MPU 
 699:./prime-framework/arch/arm/cortex-m3/lpc1768/include/core_cm3.h **** #define MPU_RASR_S_Msk                     (1UL << MPU_RASR_S_Pos)                        /*!< MPU 
 700:./prime-framework/arch/arm/cortex-m3/lpc1768/include/core_cm3.h **** 
 701:./prime-framework/arch/arm/cortex-m3/lpc1768/include/core_cm3.h **** #define MPU_RASR_C_Pos                     17                                             /*!< MPU 
 702:./prime-framework/arch/arm/cortex-m3/lpc1768/include/core_cm3.h **** #define MPU_RASR_C_Msk                     (1UL << MPU_RASR_C_Pos)                        /*!< MPU 
 703:./prime-framework/arch/arm/cortex-m3/lpc1768/include/core_cm3.h **** 
 704:./prime-framework/arch/arm/cortex-m3/lpc1768/include/core_cm3.h **** #define MPU_RASR_B_Pos                     16                                             /*!< MPU 
 705:./prime-framework/arch/arm/cortex-m3/lpc1768/include/core_cm3.h **** #define MPU_RASR_B_Msk                     (1UL << MPU_RASR_B_Pos)                        /*!< MPU 
 706:./prime-framework/arch/arm/cortex-m3/lpc1768/include/core_cm3.h **** 
 707:./prime-framework/arch/arm/cortex-m3/lpc1768/include/core_cm3.h **** #define MPU_RASR_SRD_Pos                    8                                             /*!< MPU 
 708:./prime-framework/arch/arm/cortex-m3/lpc1768/include/core_cm3.h **** #define MPU_RASR_SRD_Msk                   (0xFFUL << MPU_RASR_SRD_Pos)                   /*!< MPU 
 709:./prime-framework/arch/arm/cortex-m3/lpc1768/include/core_cm3.h **** 
 710:./prime-framework/arch/arm/cortex-m3/lpc1768/include/core_cm3.h **** #define MPU_RASR_SIZE_Pos                   1                                             /*!< MPU 
 711:./prime-framework/arch/arm/cortex-m3/lpc1768/include/core_cm3.h **** #define MPU_RASR_SIZE_Msk                  (0x1FUL << MPU_RASR_SIZE_Pos)                  /*!< MPU 
 712:./prime-framework/arch/arm/cortex-m3/lpc1768/include/core_cm3.h **** 
 713:./prime-framework/arch/arm/cortex-m3/lpc1768/include/core_cm3.h **** #define MPU_RASR_ENA_Pos                     0                                            /*!< MPU 
 714:./prime-framework/arch/arm/cortex-m3/lpc1768/include/core_cm3.h **** #define MPU_RASR_ENA_Msk                    (0x1UL << MPU_RASR_ENA_Pos)                   /*!< MPU 
 715:./prime-framework/arch/arm/cortex-m3/lpc1768/include/core_cm3.h **** 
 716:./prime-framework/arch/arm/cortex-m3/lpc1768/include/core_cm3.h **** /*@} end of group CMSIS_MPU */
 717:./prime-framework/arch/arm/cortex-m3/lpc1768/include/core_cm3.h **** #endif
 718:./prime-framework/arch/arm/cortex-m3/lpc1768/include/core_cm3.h **** 
 719:./prime-framework/arch/arm/cortex-m3/lpc1768/include/core_cm3.h **** 
 720:./prime-framework/arch/arm/cortex-m3/lpc1768/include/core_cm3.h **** /** \ingroup  CMSIS_core_register
 721:./prime-framework/arch/arm/cortex-m3/lpc1768/include/core_cm3.h ****     \defgroup CMSIS_CoreDebug CMSIS Core Debug
 722:./prime-framework/arch/arm/cortex-m3/lpc1768/include/core_cm3.h ****   Type definitions for the Cortex-M Core Debug Registers
 723:./prime-framework/arch/arm/cortex-m3/lpc1768/include/core_cm3.h ****   @{
 724:./prime-framework/arch/arm/cortex-m3/lpc1768/include/core_cm3.h ****  */
 725:./prime-framework/arch/arm/cortex-m3/lpc1768/include/core_cm3.h **** 
 726:./prime-framework/arch/arm/cortex-m3/lpc1768/include/core_cm3.h **** /** \brief  Structure type to access the Core Debug Register (CoreDebug).
 727:./prime-framework/arch/arm/cortex-m3/lpc1768/include/core_cm3.h ****  */
 728:./prime-framework/arch/arm/cortex-m3/lpc1768/include/core_cm3.h **** typedef struct
 729:./prime-framework/arch/arm/cortex-m3/lpc1768/include/core_cm3.h **** {
 730:./prime-framework/arch/arm/cortex-m3/lpc1768/include/core_cm3.h ****   __IO uint32_t DHCSR;                   /*!< Offset: 0x000 (R/W)  Debug Halting Control and Status
 731:./prime-framework/arch/arm/cortex-m3/lpc1768/include/core_cm3.h ****   __O  uint32_t DCRSR;                   /*!< Offset: 0x004 ( /W)  Debug Core Register Selector Reg
 732:./prime-framework/arch/arm/cortex-m3/lpc1768/include/core_cm3.h ****   __IO uint32_t DCRDR;                   /*!< Offset: 0x008 (R/W)  Debug Core Register Data Registe
 733:./prime-framework/arch/arm/cortex-m3/lpc1768/include/core_cm3.h ****   __IO uint32_t DEMCR;                   /*!< Offset: 0x00C (R/W)  Debug Exception and Monitor Cont
 734:./prime-framework/arch/arm/cortex-m3/lpc1768/include/core_cm3.h **** } CoreDebug_Type;
 735:./prime-framework/arch/arm/cortex-m3/lpc1768/include/core_cm3.h **** 
 736:./prime-framework/arch/arm/cortex-m3/lpc1768/include/core_cm3.h **** /* Debug Halting Control and Status Register */
ARM GAS  C:\Users\Akil\AppData\Local\Temp\ccrFjqgU.s 			page 15


 737:./prime-framework/arch/arm/cortex-m3/lpc1768/include/core_cm3.h **** #define CoreDebug_DHCSR_DBGKEY_Pos         16                                             /*!< Core
 738:./prime-framework/arch/arm/cortex-m3/lpc1768/include/core_cm3.h **** #define CoreDebug_DHCSR_DBGKEY_Msk         (0xFFFFUL << CoreDebug_DHCSR_DBGKEY_Pos)       /*!< Core
 739:./prime-framework/arch/arm/cortex-m3/lpc1768/include/core_cm3.h **** 
 740:./prime-framework/arch/arm/cortex-m3/lpc1768/include/core_cm3.h **** #define CoreDebug_DHCSR_S_RESET_ST_Pos     25                                             /*!< Core
 741:./prime-framework/arch/arm/cortex-m3/lpc1768/include/core_cm3.h **** #define CoreDebug_DHCSR_S_RESET_ST_Msk     (1UL << CoreDebug_DHCSR_S_RESET_ST_Pos)        /*!< Core
 742:./prime-framework/arch/arm/cortex-m3/lpc1768/include/core_cm3.h **** 
 743:./prime-framework/arch/arm/cortex-m3/lpc1768/include/core_cm3.h **** #define CoreDebug_DHCSR_S_RETIRE_ST_Pos    24                                             /*!< Core
 744:./prime-framework/arch/arm/cortex-m3/lpc1768/include/core_cm3.h **** #define CoreDebug_DHCSR_S_RETIRE_ST_Msk    (1UL << CoreDebug_DHCSR_S_RETIRE_ST_Pos)       /*!< Core
 745:./prime-framework/arch/arm/cortex-m3/lpc1768/include/core_cm3.h **** 
 746:./prime-framework/arch/arm/cortex-m3/lpc1768/include/core_cm3.h **** #define CoreDebug_DHCSR_S_LOCKUP_Pos       19                                             /*!< Core
 747:./prime-framework/arch/arm/cortex-m3/lpc1768/include/core_cm3.h **** #define CoreDebug_DHCSR_S_LOCKUP_Msk       (1UL << CoreDebug_DHCSR_S_LOCKUP_Pos)          /*!< Core
 748:./prime-framework/arch/arm/cortex-m3/lpc1768/include/core_cm3.h **** 
 749:./prime-framework/arch/arm/cortex-m3/lpc1768/include/core_cm3.h **** #define CoreDebug_DHCSR_S_SLEEP_Pos        18                                             /*!< Core
 750:./prime-framework/arch/arm/cortex-m3/lpc1768/include/core_cm3.h **** #define CoreDebug_DHCSR_S_SLEEP_Msk        (1UL << CoreDebug_DHCSR_S_SLEEP_Pos)           /*!< Core
 751:./prime-framework/arch/arm/cortex-m3/lpc1768/include/core_cm3.h **** 
 752:./prime-framework/arch/arm/cortex-m3/lpc1768/include/core_cm3.h **** #define CoreDebug_DHCSR_S_HALT_Pos         17                                             /*!< Core
 753:./prime-framework/arch/arm/cortex-m3/lpc1768/include/core_cm3.h **** #define CoreDebug_DHCSR_S_HALT_Msk         (1UL << CoreDebug_DHCSR_S_HALT_Pos)            /*!< Core
 754:./prime-framework/arch/arm/cortex-m3/lpc1768/include/core_cm3.h **** 
 755:./prime-framework/arch/arm/cortex-m3/lpc1768/include/core_cm3.h **** #define CoreDebug_DHCSR_S_REGRDY_Pos       16                                             /*!< Core
 756:./prime-framework/arch/arm/cortex-m3/lpc1768/include/core_cm3.h **** #define CoreDebug_DHCSR_S_REGRDY_Msk       (1UL << CoreDebug_DHCSR_S_REGRDY_Pos)          /*!< Core
 757:./prime-framework/arch/arm/cortex-m3/lpc1768/include/core_cm3.h **** 
 758:./prime-framework/arch/arm/cortex-m3/lpc1768/include/core_cm3.h **** #define CoreDebug_DHCSR_C_SNAPSTALL_Pos     5                                             /*!< Core
 759:./prime-framework/arch/arm/cortex-m3/lpc1768/include/core_cm3.h **** #define CoreDebug_DHCSR_C_SNAPSTALL_Msk    (1UL << CoreDebug_DHCSR_C_SNAPSTALL_Pos)       /*!< Core
 760:./prime-framework/arch/arm/cortex-m3/lpc1768/include/core_cm3.h **** 
 761:./prime-framework/arch/arm/cortex-m3/lpc1768/include/core_cm3.h **** #define CoreDebug_DHCSR_C_MASKINTS_Pos      3                                             /*!< Core
 762:./prime-framework/arch/arm/cortex-m3/lpc1768/include/core_cm3.h **** #define CoreDebug_DHCSR_C_MASKINTS_Msk     (1UL << CoreDebug_DHCSR_C_MASKINTS_Pos)        /*!< Core
 763:./prime-framework/arch/arm/cortex-m3/lpc1768/include/core_cm3.h **** 
 764:./prime-framework/arch/arm/cortex-m3/lpc1768/include/core_cm3.h **** #define CoreDebug_DHCSR_C_STEP_Pos          2                                             /*!< Core
 765:./prime-framework/arch/arm/cortex-m3/lpc1768/include/core_cm3.h **** #define CoreDebug_DHCSR_C_STEP_Msk         (1UL << CoreDebug_DHCSR_C_STEP_Pos)            /*!< Core
 766:./prime-framework/arch/arm/cortex-m3/lpc1768/include/core_cm3.h **** 
 767:./prime-framework/arch/arm/cortex-m3/lpc1768/include/core_cm3.h **** #define CoreDebug_DHCSR_C_HALT_Pos          1                                             /*!< Core
 768:./prime-framework/arch/arm/cortex-m3/lpc1768/include/core_cm3.h **** #define CoreDebug_DHCSR_C_HALT_Msk         (1UL << CoreDebug_DHCSR_C_HALT_Pos)            /*!< Core
 769:./prime-framework/arch/arm/cortex-m3/lpc1768/include/core_cm3.h **** 
 770:./prime-framework/arch/arm/cortex-m3/lpc1768/include/core_cm3.h **** #define CoreDebug_DHCSR_C_DEBUGEN_Pos       0                                             /*!< Core
 771:./prime-framework/arch/arm/cortex-m3/lpc1768/include/core_cm3.h **** #define CoreDebug_DHCSR_C_DEBUGEN_Msk      (1UL << CoreDebug_DHCSR_C_DEBUGEN_Pos)         /*!< Core
 772:./prime-framework/arch/arm/cortex-m3/lpc1768/include/core_cm3.h **** 
 773:./prime-framework/arch/arm/cortex-m3/lpc1768/include/core_cm3.h **** /* Debug Core Register Selector Register */
 774:./prime-framework/arch/arm/cortex-m3/lpc1768/include/core_cm3.h **** #define CoreDebug_DCRSR_REGWnR_Pos         16                                             /*!< Core
 775:./prime-framework/arch/arm/cortex-m3/lpc1768/include/core_cm3.h **** #define CoreDebug_DCRSR_REGWnR_Msk         (1UL << CoreDebug_DCRSR_REGWnR_Pos)            /*!< Core
 776:./prime-framework/arch/arm/cortex-m3/lpc1768/include/core_cm3.h **** 
 777:./prime-framework/arch/arm/cortex-m3/lpc1768/include/core_cm3.h **** #define CoreDebug_DCRSR_REGSEL_Pos          0                                             /*!< Core
 778:./prime-framework/arch/arm/cortex-m3/lpc1768/include/core_cm3.h **** #define CoreDebug_DCRSR_REGSEL_Msk         (0x1FUL << CoreDebug_DCRSR_REGSEL_Pos)         /*!< Core
 779:./prime-framework/arch/arm/cortex-m3/lpc1768/include/core_cm3.h **** 
 780:./prime-framework/arch/arm/cortex-m3/lpc1768/include/core_cm3.h **** /* Debug Exception and Monitor Control Register */
 781:./prime-framework/arch/arm/cortex-m3/lpc1768/include/core_cm3.h **** #define CoreDebug_DEMCR_TRCENA_Pos         24                                             /*!< Core
 782:./prime-framework/arch/arm/cortex-m3/lpc1768/include/core_cm3.h **** #define CoreDebug_DEMCR_TRCENA_Msk         (1UL << CoreDebug_DEMCR_TRCENA_Pos)            /*!< Core
 783:./prime-framework/arch/arm/cortex-m3/lpc1768/include/core_cm3.h **** 
 784:./prime-framework/arch/arm/cortex-m3/lpc1768/include/core_cm3.h **** #define CoreDebug_DEMCR_MON_REQ_Pos        19                                             /*!< Core
 785:./prime-framework/arch/arm/cortex-m3/lpc1768/include/core_cm3.h **** #define CoreDebug_DEMCR_MON_REQ_Msk        (1UL << CoreDebug_DEMCR_MON_REQ_Pos)           /*!< Core
 786:./prime-framework/arch/arm/cortex-m3/lpc1768/include/core_cm3.h **** 
 787:./prime-framework/arch/arm/cortex-m3/lpc1768/include/core_cm3.h **** #define CoreDebug_DEMCR_MON_STEP_Pos       18                                             /*!< Core
 788:./prime-framework/arch/arm/cortex-m3/lpc1768/include/core_cm3.h **** #define CoreDebug_DEMCR_MON_STEP_Msk       (1UL << CoreDebug_DEMCR_MON_STEP_Pos)          /*!< Core
 789:./prime-framework/arch/arm/cortex-m3/lpc1768/include/core_cm3.h **** 
 790:./prime-framework/arch/arm/cortex-m3/lpc1768/include/core_cm3.h **** #define CoreDebug_DEMCR_MON_PEND_Pos       17                                             /*!< Core
 791:./prime-framework/arch/arm/cortex-m3/lpc1768/include/core_cm3.h **** #define CoreDebug_DEMCR_MON_PEND_Msk       (1UL << CoreDebug_DEMCR_MON_PEND_Pos)          /*!< Core
 792:./prime-framework/arch/arm/cortex-m3/lpc1768/include/core_cm3.h **** 
 793:./prime-framework/arch/arm/cortex-m3/lpc1768/include/core_cm3.h **** #define CoreDebug_DEMCR_MON_EN_Pos         16                                             /*!< Core
ARM GAS  C:\Users\Akil\AppData\Local\Temp\ccrFjqgU.s 			page 16


 794:./prime-framework/arch/arm/cortex-m3/lpc1768/include/core_cm3.h **** #define CoreDebug_DEMCR_MON_EN_Msk         (1UL << CoreDebug_DEMCR_MON_EN_Pos)            /*!< Core
 795:./prime-framework/arch/arm/cortex-m3/lpc1768/include/core_cm3.h **** 
 796:./prime-framework/arch/arm/cortex-m3/lpc1768/include/core_cm3.h **** #define CoreDebug_DEMCR_VC_HARDERR_Pos     10                                             /*!< Core
 797:./prime-framework/arch/arm/cortex-m3/lpc1768/include/core_cm3.h **** #define CoreDebug_DEMCR_VC_HARDERR_Msk     (1UL << CoreDebug_DEMCR_VC_HARDERR_Pos)        /*!< Core
 798:./prime-framework/arch/arm/cortex-m3/lpc1768/include/core_cm3.h **** 
 799:./prime-framework/arch/arm/cortex-m3/lpc1768/include/core_cm3.h **** #define CoreDebug_DEMCR_VC_INTERR_Pos       9                                             /*!< Core
 800:./prime-framework/arch/arm/cortex-m3/lpc1768/include/core_cm3.h **** #define CoreDebug_DEMCR_VC_INTERR_Msk      (1UL << CoreDebug_DEMCR_VC_INTERR_Pos)         /*!< Core
 801:./prime-framework/arch/arm/cortex-m3/lpc1768/include/core_cm3.h **** 
 802:./prime-framework/arch/arm/cortex-m3/lpc1768/include/core_cm3.h **** #define CoreDebug_DEMCR_VC_BUSERR_Pos       8                                             /*!< Core
 803:./prime-framework/arch/arm/cortex-m3/lpc1768/include/core_cm3.h **** #define CoreDebug_DEMCR_VC_BUSERR_Msk      (1UL << CoreDebug_DEMCR_VC_BUSERR_Pos)         /*!< Core
 804:./prime-framework/arch/arm/cortex-m3/lpc1768/include/core_cm3.h **** 
 805:./prime-framework/arch/arm/cortex-m3/lpc1768/include/core_cm3.h **** #define CoreDebug_DEMCR_VC_STATERR_Pos      7                                             /*!< Core
 806:./prime-framework/arch/arm/cortex-m3/lpc1768/include/core_cm3.h **** #define CoreDebug_DEMCR_VC_STATERR_Msk     (1UL << CoreDebug_DEMCR_VC_STATERR_Pos)        /*!< Core
 807:./prime-framework/arch/arm/cortex-m3/lpc1768/include/core_cm3.h **** 
 808:./prime-framework/arch/arm/cortex-m3/lpc1768/include/core_cm3.h **** #define CoreDebug_DEMCR_VC_CHKERR_Pos       6                                             /*!< Core
 809:./prime-framework/arch/arm/cortex-m3/lpc1768/include/core_cm3.h **** #define CoreDebug_DEMCR_VC_CHKERR_Msk      (1UL << CoreDebug_DEMCR_VC_CHKERR_Pos)         /*!< Core
 810:./prime-framework/arch/arm/cortex-m3/lpc1768/include/core_cm3.h **** 
 811:./prime-framework/arch/arm/cortex-m3/lpc1768/include/core_cm3.h **** #define CoreDebug_DEMCR_VC_NOCPERR_Pos      5                                             /*!< Core
 812:./prime-framework/arch/arm/cortex-m3/lpc1768/include/core_cm3.h **** #define CoreDebug_DEMCR_VC_NOCPERR_Msk     (1UL << CoreDebug_DEMCR_VC_NOCPERR_Pos)        /*!< Core
 813:./prime-framework/arch/arm/cortex-m3/lpc1768/include/core_cm3.h **** 
 814:./prime-framework/arch/arm/cortex-m3/lpc1768/include/core_cm3.h **** #define CoreDebug_DEMCR_VC_MMERR_Pos        4                                             /*!< Core
 815:./prime-framework/arch/arm/cortex-m3/lpc1768/include/core_cm3.h **** #define CoreDebug_DEMCR_VC_MMERR_Msk       (1UL << CoreDebug_DEMCR_VC_MMERR_Pos)          /*!< Core
 816:./prime-framework/arch/arm/cortex-m3/lpc1768/include/core_cm3.h **** 
 817:./prime-framework/arch/arm/cortex-m3/lpc1768/include/core_cm3.h **** #define CoreDebug_DEMCR_VC_CORERESET_Pos    0                                             /*!< Core
 818:./prime-framework/arch/arm/cortex-m3/lpc1768/include/core_cm3.h **** #define CoreDebug_DEMCR_VC_CORERESET_Msk   (1UL << CoreDebug_DEMCR_VC_CORERESET_Pos)      /*!< Core
 819:./prime-framework/arch/arm/cortex-m3/lpc1768/include/core_cm3.h **** 
 820:./prime-framework/arch/arm/cortex-m3/lpc1768/include/core_cm3.h **** /*@} end of group CMSIS_CoreDebug */
 821:./prime-framework/arch/arm/cortex-m3/lpc1768/include/core_cm3.h **** 
 822:./prime-framework/arch/arm/cortex-m3/lpc1768/include/core_cm3.h **** 
 823:./prime-framework/arch/arm/cortex-m3/lpc1768/include/core_cm3.h **** /** \ingroup  CMSIS_core_register
 824:./prime-framework/arch/arm/cortex-m3/lpc1768/include/core_cm3.h ****   @{
 825:./prime-framework/arch/arm/cortex-m3/lpc1768/include/core_cm3.h ****  */
 826:./prime-framework/arch/arm/cortex-m3/lpc1768/include/core_cm3.h **** 
 827:./prime-framework/arch/arm/cortex-m3/lpc1768/include/core_cm3.h **** /* Memory mapping of Cortex-M3 Hardware */
 828:./prime-framework/arch/arm/cortex-m3/lpc1768/include/core_cm3.h **** #define SCS_BASE            (0xE000E000UL)                            /*!< System Control Space Bas
 829:./prime-framework/arch/arm/cortex-m3/lpc1768/include/core_cm3.h **** #define ITM_BASE            (0xE0000000UL)                            /*!< ITM Base Address        
 830:./prime-framework/arch/arm/cortex-m3/lpc1768/include/core_cm3.h **** #define CoreDebug_BASE      (0xE000EDF0UL)                            /*!< Core Debug Base Address 
 831:./prime-framework/arch/arm/cortex-m3/lpc1768/include/core_cm3.h **** #define SysTick_BASE        (SCS_BASE +  0x0010UL)                    /*!< SysTick Base Address    
 832:./prime-framework/arch/arm/cortex-m3/lpc1768/include/core_cm3.h **** #define NVIC_BASE           (SCS_BASE +  0x0100UL)                    /*!< NVIC Base Address       
 833:./prime-framework/arch/arm/cortex-m3/lpc1768/include/core_cm3.h **** #define SCB_BASE            (SCS_BASE +  0x0D00UL)                    /*!< System Control Block Bas
 834:./prime-framework/arch/arm/cortex-m3/lpc1768/include/core_cm3.h **** 
 835:./prime-framework/arch/arm/cortex-m3/lpc1768/include/core_cm3.h **** #define InterruptType       ((InterruptType_Type *) SCS_BASE)         /*!< Interrupt Type Register 
 836:./prime-framework/arch/arm/cortex-m3/lpc1768/include/core_cm3.h **** #define SCB                 ((SCB_Type *)           SCB_BASE)         /*!< SCB configuration struct
 837:./prime-framework/arch/arm/cortex-m3/lpc1768/include/core_cm3.h **** #define SysTick             ((SysTick_Type *)       SysTick_BASE)     /*!< SysTick configuration st
 838:./prime-framework/arch/arm/cortex-m3/lpc1768/include/core_cm3.h **** #define NVIC                ((NVIC_Type *)          NVIC_BASE)        /*!< NVIC configuration struc
 839:./prime-framework/arch/arm/cortex-m3/lpc1768/include/core_cm3.h **** #define ITM                 ((ITM_Type *)           ITM_BASE)         /*!< ITM configuration struct
 840:./prime-framework/arch/arm/cortex-m3/lpc1768/include/core_cm3.h **** #define CoreDebug           ((CoreDebug_Type *)     CoreDebug_BASE)   /*!< Core Debug configuration
 841:./prime-framework/arch/arm/cortex-m3/lpc1768/include/core_cm3.h **** 
 842:./prime-framework/arch/arm/cortex-m3/lpc1768/include/core_cm3.h **** #if (__MPU_PRESENT == 1)
 843:./prime-framework/arch/arm/cortex-m3/lpc1768/include/core_cm3.h ****   #define MPU_BASE          (SCS_BASE +  0x0D90UL)                    /*!< Memory Protection Unit  
 844:./prime-framework/arch/arm/cortex-m3/lpc1768/include/core_cm3.h ****   #define MPU               ((MPU_Type*)            MPU_BASE)         /*!< Memory Protection Unit  
 845:./prime-framework/arch/arm/cortex-m3/lpc1768/include/core_cm3.h **** #endif
 846:./prime-framework/arch/arm/cortex-m3/lpc1768/include/core_cm3.h **** 
 847:./prime-framework/arch/arm/cortex-m3/lpc1768/include/core_cm3.h **** /*@} */
 848:./prime-framework/arch/arm/cortex-m3/lpc1768/include/core_cm3.h **** 
 849:./prime-framework/arch/arm/cortex-m3/lpc1768/include/core_cm3.h **** 
 850:./prime-framework/arch/arm/cortex-m3/lpc1768/include/core_cm3.h **** 
ARM GAS  C:\Users\Akil\AppData\Local\Temp\ccrFjqgU.s 			page 17


 851:./prime-framework/arch/arm/cortex-m3/lpc1768/include/core_cm3.h **** /*******************************************************************************
 852:./prime-framework/arch/arm/cortex-m3/lpc1768/include/core_cm3.h ****  *                Hardware Abstraction Layer
 853:./prime-framework/arch/arm/cortex-m3/lpc1768/include/core_cm3.h ****  ******************************************************************************/
 854:./prime-framework/arch/arm/cortex-m3/lpc1768/include/core_cm3.h **** /** \addtogroup CMSIS_Core_FunctionInterface CMSIS Core Function Interface
 855:./prime-framework/arch/arm/cortex-m3/lpc1768/include/core_cm3.h ****   Core Function Interface contains:
 856:./prime-framework/arch/arm/cortex-m3/lpc1768/include/core_cm3.h ****   - Core NVIC Functions
 857:./prime-framework/arch/arm/cortex-m3/lpc1768/include/core_cm3.h ****   - Core SysTick Functions
 858:./prime-framework/arch/arm/cortex-m3/lpc1768/include/core_cm3.h ****   - Core Debug Functions
 859:./prime-framework/arch/arm/cortex-m3/lpc1768/include/core_cm3.h ****   - Core Register Access Functions
 860:./prime-framework/arch/arm/cortex-m3/lpc1768/include/core_cm3.h **** */
 861:./prime-framework/arch/arm/cortex-m3/lpc1768/include/core_cm3.h **** 
 862:./prime-framework/arch/arm/cortex-m3/lpc1768/include/core_cm3.h **** 
 863:./prime-framework/arch/arm/cortex-m3/lpc1768/include/core_cm3.h **** 
 864:./prime-framework/arch/arm/cortex-m3/lpc1768/include/core_cm3.h **** /* ##########################   NVIC functions  #################################### */
 865:./prime-framework/arch/arm/cortex-m3/lpc1768/include/core_cm3.h **** /** \ingroup  CMSIS_Core_FunctionInterface
 866:./prime-framework/arch/arm/cortex-m3/lpc1768/include/core_cm3.h ****     \defgroup CMSIS_Core_NVICFunctions CMSIS Core NVIC Functions
 867:./prime-framework/arch/arm/cortex-m3/lpc1768/include/core_cm3.h ****   @{
 868:./prime-framework/arch/arm/cortex-m3/lpc1768/include/core_cm3.h ****  */
 869:./prime-framework/arch/arm/cortex-m3/lpc1768/include/core_cm3.h **** /** @addtogroup CMSIS_Core_NVICFunctions
 870:./prime-framework/arch/arm/cortex-m3/lpc1768/include/core_cm3.h ****  * @{
 871:./prime-framework/arch/arm/cortex-m3/lpc1768/include/core_cm3.h ****  */
 872:./prime-framework/arch/arm/cortex-m3/lpc1768/include/core_cm3.h **** /** \brief  Set Priority Grouping
 873:./prime-framework/arch/arm/cortex-m3/lpc1768/include/core_cm3.h **** 
 874:./prime-framework/arch/arm/cortex-m3/lpc1768/include/core_cm3.h ****   This function sets the priority grouping field using the required unlock sequence.
 875:./prime-framework/arch/arm/cortex-m3/lpc1768/include/core_cm3.h ****   The parameter PriorityGroup is assigned to the field SCB->AIRCR [10:8] PRIGROUP field.
 876:./prime-framework/arch/arm/cortex-m3/lpc1768/include/core_cm3.h ****   Only values from 0..7 are used.
 877:./prime-framework/arch/arm/cortex-m3/lpc1768/include/core_cm3.h ****   In case of a conflict between priority grouping and available
 878:./prime-framework/arch/arm/cortex-m3/lpc1768/include/core_cm3.h ****   priority bits (__NVIC_PRIO_BITS) the smallest possible priority group is set.
 879:./prime-framework/arch/arm/cortex-m3/lpc1768/include/core_cm3.h **** 
 880:./prime-framework/arch/arm/cortex-m3/lpc1768/include/core_cm3.h ****     \param [in]      PriorityGroup  Priority grouping field
 881:./prime-framework/arch/arm/cortex-m3/lpc1768/include/core_cm3.h ****  */
 882:./prime-framework/arch/arm/cortex-m3/lpc1768/include/core_cm3.h **** static __INLINE void NVIC_SetPriorityGrouping(uint32_t PriorityGroup)
 883:./prime-framework/arch/arm/cortex-m3/lpc1768/include/core_cm3.h **** {
 884:./prime-framework/arch/arm/cortex-m3/lpc1768/include/core_cm3.h ****   uint32_t reg_value;
 885:./prime-framework/arch/arm/cortex-m3/lpc1768/include/core_cm3.h ****   uint32_t PriorityGroupTmp = (PriorityGroup & 0x07);                         /* only values 0..7 a
 886:./prime-framework/arch/arm/cortex-m3/lpc1768/include/core_cm3.h **** 
 887:./prime-framework/arch/arm/cortex-m3/lpc1768/include/core_cm3.h ****   reg_value  =  SCB->AIRCR;                                                   /* read old register 
 888:./prime-framework/arch/arm/cortex-m3/lpc1768/include/core_cm3.h ****   reg_value &= ~(SCB_AIRCR_VECTKEY_Msk | SCB_AIRCR_PRIGROUP_Msk);             /* clear bits to chan
 889:./prime-framework/arch/arm/cortex-m3/lpc1768/include/core_cm3.h ****   reg_value  =  (reg_value                       |
 890:./prime-framework/arch/arm/cortex-m3/lpc1768/include/core_cm3.h ****                 (0x5FA << SCB_AIRCR_VECTKEY_Pos) |
 891:./prime-framework/arch/arm/cortex-m3/lpc1768/include/core_cm3.h ****                 (PriorityGroupTmp << 8));                                     /* Insert write key a
 892:./prime-framework/arch/arm/cortex-m3/lpc1768/include/core_cm3.h ****   SCB->AIRCR =  reg_value;
 893:./prime-framework/arch/arm/cortex-m3/lpc1768/include/core_cm3.h **** }
 894:./prime-framework/arch/arm/cortex-m3/lpc1768/include/core_cm3.h **** 
 895:./prime-framework/arch/arm/cortex-m3/lpc1768/include/core_cm3.h **** 
 896:./prime-framework/arch/arm/cortex-m3/lpc1768/include/core_cm3.h **** /** \brief  Get Priority Grouping
 897:./prime-framework/arch/arm/cortex-m3/lpc1768/include/core_cm3.h **** 
 898:./prime-framework/arch/arm/cortex-m3/lpc1768/include/core_cm3.h ****   This function gets the priority grouping from NVIC Interrupt Controller.
 899:./prime-framework/arch/arm/cortex-m3/lpc1768/include/core_cm3.h ****   Priority grouping is SCB->AIRCR [10:8] PRIGROUP field.
 900:./prime-framework/arch/arm/cortex-m3/lpc1768/include/core_cm3.h **** 
 901:./prime-framework/arch/arm/cortex-m3/lpc1768/include/core_cm3.h ****     \return                Priority grouping field
 902:./prime-framework/arch/arm/cortex-m3/lpc1768/include/core_cm3.h ****  */
 903:./prime-framework/arch/arm/cortex-m3/lpc1768/include/core_cm3.h **** static __INLINE uint32_t NVIC_GetPriorityGrouping(void)
 904:./prime-framework/arch/arm/cortex-m3/lpc1768/include/core_cm3.h **** {
 905:./prime-framework/arch/arm/cortex-m3/lpc1768/include/core_cm3.h ****   return ((SCB->AIRCR & SCB_AIRCR_PRIGROUP_Msk) >> SCB_AIRCR_PRIGROUP_Pos);   /* read priority grou
 906:./prime-framework/arch/arm/cortex-m3/lpc1768/include/core_cm3.h **** }
 907:./prime-framework/arch/arm/cortex-m3/lpc1768/include/core_cm3.h **** 
ARM GAS  C:\Users\Akil\AppData\Local\Temp\ccrFjqgU.s 			page 18


 908:./prime-framework/arch/arm/cortex-m3/lpc1768/include/core_cm3.h **** 
 909:./prime-framework/arch/arm/cortex-m3/lpc1768/include/core_cm3.h **** /** \brief  Enable External Interrupt
 910:./prime-framework/arch/arm/cortex-m3/lpc1768/include/core_cm3.h **** 
 911:./prime-framework/arch/arm/cortex-m3/lpc1768/include/core_cm3.h ****     This function enables a device specific interupt in the NVIC interrupt controller.
 912:./prime-framework/arch/arm/cortex-m3/lpc1768/include/core_cm3.h ****     The interrupt number cannot be a negative value.
 913:./prime-framework/arch/arm/cortex-m3/lpc1768/include/core_cm3.h **** 
 914:./prime-framework/arch/arm/cortex-m3/lpc1768/include/core_cm3.h ****     \param [in]      IRQn  Number of the external interrupt to enable
 915:./prime-framework/arch/arm/cortex-m3/lpc1768/include/core_cm3.h ****  */
 916:./prime-framework/arch/arm/cortex-m3/lpc1768/include/core_cm3.h **** static __INLINE void NVIC_EnableIRQ(IRQn_Type IRQn)
 917:./prime-framework/arch/arm/cortex-m3/lpc1768/include/core_cm3.h **** {
  63              		.loc 1 917 0
  64              		.cfi_startproc
  65              		@ args = 0, pretend = 0, frame = 8
  66              		@ frame_needed = 0, uses_anonymous_args = 0
  67              		@ link register save eliminated.
  68 0000 82B0     		sub	sp, sp, #8	@,,
  69              	.LCFI0:
  70              		.cfi_def_cfa_offset 8
  71 0002 0346     		mov	r3, r0	@ tmp118, IRQn
  72 0004 8DF80730 		strb	r3, [sp, #7]	@ tmp119, IRQn
 918:./prime-framework/arch/arm/cortex-m3/lpc1768/include/core_cm3.h ****   NVIC->ISER[((uint32_t)(IRQn) >> 5)] = (1 << ((uint32_t)(IRQn) & 0x1F)); /* enable interrupt */
  73              		.loc 1 918 0
  74 0008 074B     		ldr	r3, .L2	@ D.8442,
  75 000a 9DF90720 		ldrsb	r2, [sp, #7]	@ D.8443, IRQn
  76 000e 5209     		lsrs	r2, r2, #5	@ D.8443, D.8443,
  77 0010 9DF80710 		ldrb	r1, [sp, #7]	@ zero_extendqisi2	@ IRQn.10, IRQn
  78 0014 01F01F01 		and	r1, r1, #31	@ D.8444, D.8444,
  79 0018 0120     		movs	r0, #1	@ tmp120,
  80 001a 00FA01F1 		lsl	r1, r0, r1	@ D.8444, tmp120, D.8444
  81 001e 43F82210 		str	r1, [r3, r2, lsl #2]	@ D.8443, _1->ISER
 919:./prime-framework/arch/arm/cortex-m3/lpc1768/include/core_cm3.h **** }
  82              		.loc 1 919 0
  83 0022 02B0     		add	sp, sp, #8	@,,
  84              		@ sp needed	@
  85 0024 7047     		bx	lr	@
  86              	.L3:
  87 0026 00BF     		.align	2
  88              	.L2:
  89 0028 00E100E0 		.word	-536813312
  90              		.cfi_endproc
  91              	.LFE40:
  92              		.size	NVIC_EnableIRQ, .-NVIC_EnableIRQ
  93              		.align	2
  94              		.thumb
  95              		.thumb_func
  96              		.type	NVIC_DisableIRQ, %function
  97              	NVIC_DisableIRQ:
  98              	.LFB41:
 920:./prime-framework/arch/arm/cortex-m3/lpc1768/include/core_cm3.h **** 
 921:./prime-framework/arch/arm/cortex-m3/lpc1768/include/core_cm3.h **** 
 922:./prime-framework/arch/arm/cortex-m3/lpc1768/include/core_cm3.h **** /** \brief  Disable External Interrupt
 923:./prime-framework/arch/arm/cortex-m3/lpc1768/include/core_cm3.h **** 
 924:./prime-framework/arch/arm/cortex-m3/lpc1768/include/core_cm3.h ****     This function disables a device specific interupt in the NVIC interrupt controller.
 925:./prime-framework/arch/arm/cortex-m3/lpc1768/include/core_cm3.h ****     The interrupt number cannot be a negative value.
 926:./prime-framework/arch/arm/cortex-m3/lpc1768/include/core_cm3.h **** 
 927:./prime-framework/arch/arm/cortex-m3/lpc1768/include/core_cm3.h ****     \param [in]      IRQn  Number of the external interrupt to disable
 928:./prime-framework/arch/arm/cortex-m3/lpc1768/include/core_cm3.h ****  */
ARM GAS  C:\Users\Akil\AppData\Local\Temp\ccrFjqgU.s 			page 19


 929:./prime-framework/arch/arm/cortex-m3/lpc1768/include/core_cm3.h **** static __INLINE void NVIC_DisableIRQ(IRQn_Type IRQn)
 930:./prime-framework/arch/arm/cortex-m3/lpc1768/include/core_cm3.h **** {
  99              		.loc 1 930 0
 100              		.cfi_startproc
 101              		@ args = 0, pretend = 0, frame = 8
 102              		@ frame_needed = 0, uses_anonymous_args = 0
 103              		@ link register save eliminated.
 104 002c 82B0     		sub	sp, sp, #8	@,,
 105              	.LCFI1:
 106              		.cfi_def_cfa_offset 8
 107 002e 0346     		mov	r3, r0	@ tmp118, IRQn
 108 0030 8DF80730 		strb	r3, [sp, #7]	@ tmp119, IRQn
 931:./prime-framework/arch/arm/cortex-m3/lpc1768/include/core_cm3.h ****   NVIC->ICER[((uint32_t)(IRQn) >> 5)] = (1 << ((uint32_t)(IRQn) & 0x1F)); /* disable interrupt */
 109              		.loc 1 931 0
 110 0034 074B     		ldr	r3, .L5	@ D.8445,
 111 0036 9DF90720 		ldrsb	r2, [sp, #7]	@ D.8446, IRQn
 112 003a 5209     		lsrs	r2, r2, #5	@ D.8446, D.8446,
 113 003c 9DF80710 		ldrb	r1, [sp, #7]	@ zero_extendqisi2	@ IRQn.11, IRQn
 114 0040 01F01F01 		and	r1, r1, #31	@ D.8447, D.8447,
 115 0044 0120     		movs	r0, #1	@ tmp120,
 116 0046 00FA01F1 		lsl	r1, r0, r1	@ D.8447, tmp120, D.8447
 117 004a 2032     		adds	r2, r2, #32	@ tmp121, D.8446,
 118 004c 43F82210 		str	r1, [r3, r2, lsl #2]	@ D.8446, _1->ICER
 932:./prime-framework/arch/arm/cortex-m3/lpc1768/include/core_cm3.h **** }
 119              		.loc 1 932 0
 120 0050 02B0     		add	sp, sp, #8	@,,
 121              		@ sp needed	@
 122 0052 7047     		bx	lr	@
 123              	.L6:
 124              		.align	2
 125              	.L5:
 126 0054 00E100E0 		.word	-536813312
 127              		.cfi_endproc
 128              	.LFE41:
 129              		.size	NVIC_DisableIRQ, .-NVIC_DisableIRQ
 130              		.bss
 131              		.align	1
 132              	CO_timer1ms:
 133 0000 0000     		.space	2
 134 0002 0000     		.align	2
 135              	gs_dbgMsg:
 136 0004 00000000 		.space	128
 136      00000000 
 136      00000000 
 136      00000000 
 136      00000000 
 137              		.text
 138              		.align	2
 139              		.global	delay
 140              		.thumb
 141              		.thumb_func
 142              		.type	delay, %function
 143              	delay:
 144              	.LFB55:
 145              		.file 2 "src/Example_Master.c"
   1:src/Example_Master.c **** /* Include Headers */
   2:src/Example_Master.c **** 
ARM GAS  C:\Users\Akil\AppData\Local\Temp\ccrFjqgU.s 			page 20


   3:src/Example_Master.c **** #include "prime_framework.h"
   4:src/Example_Master.c **** #include "CANopen.h"
   5:src/Example_Master.c **** #include "user_board.h"
   6:src/Example_Master.c **** #include "prime_uart0.h"
   7:src/Example_Master.c **** #include "application.h"
   8:src/Example_Master.c **** 
   9:src/Example_Master.c **** /* Macros */
  10:src/Example_Master.c **** 
  11:src/Example_Master.c **** #define EXAMSTR_CAN_COMM_TEST   0
  12:src/Example_Master.c **** #define EXAMSTR_CMD_MAX_LEN  	64
  13:src/Example_Master.c **** #define EXAMSTR_DBGMSG_MAX_LEN  128
  14:src/Example_Master.c **** 
  15:src/Example_Master.c **** #define EXAMSTR_DEBUG(...) \
  16:src/Example_Master.c **** { \
  17:src/Example_Master.c ****     snprintf(gs_dbgMsg, sizeof(gs_dbgMsg) - 1, __VA_ARGS__); \
  18:src/Example_Master.c ****     DEBUGS(gs_dbgMsg); \
  19:src/Example_Master.c **** }
  20:src/Example_Master.c **** #define EXAMSTR_ERROR(...)   EXAMSTR_DEBUG("ERROR: " __VA_ARGS__)
  21:src/Example_Master.c **** #define EXAMSTR_PANIC(...)   {EXAMSTR_DEBUG("PANIC: " __VA_ARGS__); while(1);}
  22:src/Example_Master.c **** 
  23:src/Example_Master.c **** void app_timerIrqHandler(void);
  24:src/Example_Master.c **** void app_canIrqHandler(void);
  25:src/Example_Master.c **** 
  26:src/Example_Master.c **** static volatile PFword CO_timer1ms;
  27:src/Example_Master.c **** static char gs_dbgMsg[EXAMSTR_DBGMSG_MAX_LEN];
  28:src/Example_Master.c **** 
  29:src/Example_Master.c **** static void cli_handleCmd(PFbyte *cmd);
  30:src/Example_Master.c **** static void cli_process(PFword timer1msDiff);
  31:src/Example_Master.c **** 
  32:src/Example_Master.c **** void delay()
  33:src/Example_Master.c **** {
 146              		.loc 2 33 0
 147              		.cfi_startproc
 148              		@ args = 0, pretend = 0, frame = 8
 149              		@ frame_needed = 0, uses_anonymous_args = 0
 150              		@ link register save eliminated.
 151 0058 82B0     		sub	sp, sp, #8	@,,
 152              	.LCFI2:
 153              		.cfi_def_cfa_offset 8
  34:src/Example_Master.c **** 	volatile int i=0,j=0;
 154              		.loc 2 34 0
 155 005a 0023     		movs	r3, #0	@ tmp116,
 156 005c 0193     		str	r3, [sp, #4]	@ tmp116, i
 157 005e 0023     		movs	r3, #0	@ tmp117,
 158 0060 0093     		str	r3, [sp]	@ tmp117, j
  35:src/Example_Master.c **** 	for(i=0;i<5000;i++)
 159              		.loc 2 35 0
 160 0062 0023     		movs	r3, #0	@ tmp118,
 161 0064 0193     		str	r3, [sp, #4]	@ tmp118, i
 162 0066 0DE0     		b	.L8	@
 163              	.L11:
  36:src/Example_Master.c **** 	{
  37:src/Example_Master.c **** 		for(j=0;j<300;j++)
 164              		.loc 2 37 0
 165 0068 0023     		movs	r3, #0	@ tmp119,
 166 006a 0093     		str	r3, [sp]	@ tmp119, j
 167 006c 03E0     		b	.L9	@
ARM GAS  C:\Users\Akil\AppData\Local\Temp\ccrFjqgU.s 			page 21


 168              	.L10:
  38:src/Example_Master.c **** 		{
  39:src/Example_Master.c **** 			asm("nop");
 169              		.loc 2 39 0 discriminator 2
 170              	@ 39 "src/Example_Master.c" 1
 171 006e 00BF     		nop
 172              	@ 0 "" 2
  37:src/Example_Master.c **** 		for(j=0;j<300;j++)
 173              		.loc 2 37 0 discriminator 2
 174              		.thumb
 175 0070 009B     		ldr	r3, [sp]	@ j.0, j
 176 0072 0133     		adds	r3, r3, #1	@ j.1, j.0,
 177 0074 0093     		str	r3, [sp]	@ j.1, j
 178              	.L9:
  37:src/Example_Master.c **** 		for(j=0;j<300;j++)
 179              		.loc 2 37 0 is_stmt 0 discriminator 1
 180 0076 009B     		ldr	r3, [sp]	@ j.2, j
 181 0078 B3F5967F 		cmp	r3, #300	@ j.2,
 182 007c F7DB     		blt	.L10	@,
  35:src/Example_Master.c **** 	for(i=0;i<5000;i++)
 183              		.loc 2 35 0 is_stmt 1
 184 007e 019B     		ldr	r3, [sp, #4]	@ i.3, i
 185 0080 0133     		adds	r3, r3, #1	@ i.4, i.3,
 186 0082 0193     		str	r3, [sp, #4]	@ i.4, i
 187              	.L8:
  35:src/Example_Master.c **** 	for(i=0;i<5000;i++)
 188              		.loc 2 35 0 is_stmt 0 discriminator 1
 189 0084 019A     		ldr	r2, [sp, #4]	@ i.5, i
 190 0086 41F28733 		movw	r3, #4999	@ tmp120,
 191 008a 9A42     		cmp	r2, r3	@ i.5, tmp120
 192 008c ECDD     		ble	.L11	@,
  40:src/Example_Master.c **** 		}
  41:src/Example_Master.c **** 	}
  42:src/Example_Master.c **** }
 193              		.loc 2 42 0 is_stmt 1
 194 008e 02B0     		add	sp, sp, #8	@,,
 195              		@ sp needed	@
 196 0090 7047     		bx	lr	@
 197              		.cfi_endproc
 198              	.LFE55:
 199              		.size	delay, .-delay
 200              		.section	.rodata
 201              		.align	2
 202              	.LC0:
 203 0000 2A2A2A20 		.ascii	"*** Phi Robotics ***\015\000"
 203      50686920 
 203      526F626F 
 203      74696373 
 203      202A2A2A 
 204 0016 0000     		.align	2
 205              	.LC1:
 206 0018 2A2A2A20 		.ascii	"*** CANopen HelloBot Master ***\015\000"
 206      43414E6F 
 206      70656E20 
 206      48656C6C 
 206      6F426F74 
 207 0039 000000   		.align	2
ARM GAS  C:\Users\Akil\AppData\Local\Temp\ccrFjqgU.s 			page 22


 208              	.LC2:
 209 003c 50414E49 		.ascii	"PANIC: Invalid CO_OD_RAM alignment!\015\000"
 209      433A2049 
 209      6E76616C 
 209      69642043 
 209      4F5F4F44 
 210 0061 000000   		.align	2
 211              	.LC3:
 212 0064 50414E49 		.ascii	"PANIC: Invalid CO_OD_EEPROM alignment!\015\000"
 212      433A2049 
 212      6E76616C 
 212      69642043 
 212      4F5F4F44 
 213              		.align	2
 214              	.LC4:
 215 008c 50414E49 		.ascii	"PANIC: Invalid CO_OD_ROM alignment!\015\000"
 215      433A2049 
 215      6E76616C 
 215      69642043 
 215      4F5F4F44 
 216 00b1 000000   		.align	2
 217              	.LC5:
 218 00b4 50414E49 		.ascii	"PANIC: Failed to Init CANopen stack!\012\000"
 218      433A2046 
 218      61696C65 
 218      6420746F 
 218      20496E69 
 219 00da 0000     		.align	2
 220              	.LC6:
 221 00dc 0D526573 		.ascii	"\015Reset node!\000"
 221      6574206E 
 221      6F646521 
 221      00
 222              		.text
 223 0092 00BF     		.align	2
 224              		.global	main
 225              		.thumb
 226              		.thumb_func
 227              		.type	main, %function
 228              	main:
 229              	.LFB56:
  43:src/Example_Master.c **** 
  44:src/Example_Master.c **** /** Main function **/
  45:src/Example_Master.c **** 
  46:src/Example_Master.c **** int main (void)
  47:src/Example_Master.c **** {
 230              		.loc 2 47 0
 231              		.cfi_startproc
 232              		@ args = 0, pretend = 0, frame = 80
 233              		@ frame_needed = 0, uses_anonymous_args = 0
 234 0094 30B5     		push	{r4, r5, lr}	@
 235              	.LCFI3:
 236              		.cfi_def_cfa_offset 12
 237              		.cfi_offset 4, -12
 238              		.cfi_offset 5, -8
 239              		.cfi_offset 14, -4
 240 0096 95B0     		sub	sp, sp, #84	@,,
ARM GAS  C:\Users\Akil\AppData\Local\Temp\ccrFjqgU.s 			page 23


 241              	.LCFI4:
 242              		.cfi_def_cfa_offset 96
  48:src/Example_Master.c ****     PFEnCoNmtResetCmd reset = enCO_RESET_NOT;
 243              		.loc 2 48 0
 244 0098 0023     		movs	r3, #0	@ tmp136,
 245 009a 8DF84F30 		strb	r3, [sp, #79]	@ tmp137, reset
  49:src/Example_Master.c ****     PFbyte   cmdBuf[EXAMSTR_CMD_MAX_LEN];
  50:src/Example_Master.c ****     PFbyte   cmdIdx = 0;
 246              		.loc 2 50 0
 247 009e 0023     		movs	r3, #0	@ tmp138,
 248 00a0 8DF84E30 		strb	r3, [sp, #78]	@ tmp139, cmdIdx
  51:src/Example_Master.c ****     PFCoCanModuleHwConfig canHwCfg;
  52:src/Example_Master.c **** 
  53:src/Example_Master.c ****     if(pfBoardinit(&canHwCfg) != 0)
 249              		.loc 2 53 0
 250 00a4 6B46     		mov	r3, sp	@ tmp140,
 251 00a6 1846     		mov	r0, r3	@, tmp140
 252 00a8 FFF7FEFF 		bl	pfBoardinit	@
 253 00ac 0346     		mov	r3, r0	@ D.8448,
 254 00ae 002B     		cmp	r3, #0	@ D.8448,
 255 00b0 00D0     		beq	.L13	@,
 256              	.L14:
  54:src/Example_Master.c ****         while(1);
 257              		.loc 2 54 0 discriminator 1
 258 00b2 FEE7     		b	.L14	@
 259              	.L13:
  55:src/Example_Master.c **** 		
  56:src/Example_Master.c **** 	EXAMSTR_DEBUG("*** Phi Robotics ***\r");
 260              		.loc 2 56 0
 261 00b4 A74A     		ldr	r2, .L32	@ tmp141,
 262 00b6 A84B     		ldr	r3, .L32+4	@ tmp142,
 263 00b8 1446     		mov	r4, r2	@ tmp143, tmp141
 264 00ba 1D46     		mov	r5, r3	@ tmp144, tmp142
 265 00bc 0FCD     		ldmia	r5!, {r0, r1, r2, r3}	@ tmp144,,,,
 266 00be 0FC4     		stmia	r4!, {r0, r1, r2, r3}	@ tmp143,,,,
 267 00c0 95E80300 		ldmia	r5, {r0, r1}	@ tmp144,,
 268 00c4 2060     		str	r0, [r4]	@, MEM[(void *)&gs_dbgMsg]
 269 00c6 0434     		adds	r4, r4, #4	@ tmp143, tmp143,
 270 00c8 2180     		strh	r1, [r4]	@ movhi	@, MEM[(void *)&gs_dbgMsg]
 271 00ca A248     		ldr	r0, .L32	@,
 272 00cc FFF7FEFF 		bl	pfUart0WriteString	@
  57:src/Example_Master.c ****     EXAMSTR_DEBUG("*** CANopen HelloBot Master ***\r");
 273              		.loc 2 57 0
 274 00d0 A04A     		ldr	r2, .L32	@ tmp145,
 275 00d2 A24B     		ldr	r3, .L32+8	@ tmp146,
 276 00d4 1446     		mov	r4, r2	@ tmp147, tmp145
 277 00d6 1D46     		mov	r5, r3	@ tmp148, tmp146
 278 00d8 0FCD     		ldmia	r5!, {r0, r1, r2, r3}	@ tmp148,,,,
 279 00da 0FC4     		stmia	r4!, {r0, r1, r2, r3}	@ tmp147,,,,
 280 00dc 0FCD     		ldmia	r5!, {r0, r1, r2, r3}	@ tmp148,,,,
 281 00de 0FC4     		stmia	r4!, {r0, r1, r2, r3}	@ tmp147,,,,
 282 00e0 2B68     		ldr	r3, [r5]	@ tmp149, MEM[(void *)"*** CANopen HelloBot Master ***\r"]
 283 00e2 2370     		strb	r3, [r4]	@ tmp150, MEM[(void *)&gs_dbgMsg]
 284 00e4 9B48     		ldr	r0, .L32	@,
 285 00e6 FFF7FEFF 		bl	pfUart0WriteString	@
  58:src/Example_Master.c ****     
  59:src/Example_Master.c ****     /*Verify, if OD structures have proper alignment of initial values */
ARM GAS  C:\Users\Akil\AppData\Local\Temp\ccrFjqgU.s 			page 24


  60:src/Example_Master.c ****     if(CO_OD_RAM.FirstWord != CO_OD_RAM.LastWord)
 286              		.loc 2 60 0
 287 00ea 9D4B     		ldr	r3, .L32+12	@ tmp151,
 288 00ec 1A68     		ldr	r2, [r3]	@ D.8449, CO_OD_RAM.FirstWord
 289 00ee 9C4B     		ldr	r3, .L32+12	@ tmp152,
 290 00f0 D3F8D831 		ldr	r3, [r3, #472]	@ D.8449, CO_OD_RAM.LastWord
 291 00f4 9A42     		cmp	r2, r3	@ D.8449, D.8449
 292 00f6 10D0     		beq	.L15	@,
  61:src/Example_Master.c ****         EXAMSTR_PANIC("Invalid CO_OD_RAM alignment!\r");
 293              		.loc 2 61 0
 294 00f8 964A     		ldr	r2, .L32	@ tmp153,
 295 00fa 9A4B     		ldr	r3, .L32+16	@ tmp154,
 296 00fc 1446     		mov	r4, r2	@ tmp155, tmp153
 297 00fe 1D46     		mov	r5, r3	@ tmp156, tmp154
 298 0100 0FCD     		ldmia	r5!, {r0, r1, r2, r3}	@ tmp156,,,,
 299 0102 0FC4     		stmia	r4!, {r0, r1, r2, r3}	@ tmp155,,,,
 300 0104 0FCD     		ldmia	r5!, {r0, r1, r2, r3}	@ tmp156,,,,
 301 0106 0FC4     		stmia	r4!, {r0, r1, r2, r3}	@ tmp155,,,,
 302 0108 95E80300 		ldmia	r5, {r0, r1}	@ tmp156,,
 303 010c 2060     		str	r0, [r4]	@, MEM[(void *)&gs_dbgMsg]
 304 010e 0434     		adds	r4, r4, #4	@ tmp155, tmp155,
 305 0110 2170     		strb	r1, [r4]	@, MEM[(void *)&gs_dbgMsg]
 306 0112 9048     		ldr	r0, .L32	@,
 307 0114 FFF7FEFF 		bl	pfUart0WriteString	@
 308              	.L16:
 309              		.loc 2 61 0 is_stmt 0 discriminator 1
 310 0118 FEE7     		b	.L16	@
 311              	.L15:
  62:src/Example_Master.c ****     if(CO_OD_EEPROM.FirstWord != CO_OD_EEPROM.LastWord)
 312              		.loc 2 62 0 is_stmt 1
 313 011a 934B     		ldr	r3, .L32+20	@ tmp157,
 314 011c 1A68     		ldr	r2, [r3]	@ D.8449, CO_OD_EEPROM.FirstWord
 315 011e 924B     		ldr	r3, .L32+20	@ tmp158,
 316 0120 9B6C     		ldr	r3, [r3, #72]	@ D.8449, CO_OD_EEPROM.LastWord
 317 0122 9A42     		cmp	r2, r3	@ D.8449, D.8449
 318 0124 0FD0     		beq	.L17	@,
  63:src/Example_Master.c ****         EXAMSTR_PANIC("Invalid CO_OD_EEPROM alignment!\r");
 319              		.loc 2 63 0
 320 0126 8B4A     		ldr	r2, .L32	@ tmp159,
 321 0128 904B     		ldr	r3, .L32+24	@ tmp160,
 322 012a 1446     		mov	r4, r2	@ tmp161, tmp159
 323 012c 1D46     		mov	r5, r3	@ tmp162, tmp160
 324 012e 0FCD     		ldmia	r5!, {r0, r1, r2, r3}	@ tmp162,,,,
 325 0130 0FC4     		stmia	r4!, {r0, r1, r2, r3}	@ tmp161,,,,
 326 0132 0FCD     		ldmia	r5!, {r0, r1, r2, r3}	@ tmp162,,,,
 327 0134 0FC4     		stmia	r4!, {r0, r1, r2, r3}	@ tmp161,,,,
 328 0136 95E80300 		ldmia	r5, {r0, r1}	@ tmp162,,
 329 013a 84E80300 		stmia	r4, {r0, r1}	@ tmp161,,
 330 013e 8548     		ldr	r0, .L32	@,
 331 0140 FFF7FEFF 		bl	pfUart0WriteString	@
 332              	.L18:
 333              		.loc 2 63 0 is_stmt 0 discriminator 1
 334 0144 FEE7     		b	.L18	@
 335              	.L17:
  64:src/Example_Master.c ****     if(CO_ROM_READ32(CO_OD_ROM.FirstWord) != CO_ROM_READ32(CO_OD_ROM.LastWord))
 336              		.loc 2 64 0 is_stmt 1
 337 0146 8A4B     		ldr	r3, .L32+28	@ tmp163,
ARM GAS  C:\Users\Akil\AppData\Local\Temp\ccrFjqgU.s 			page 25


 338 0148 1A68     		ldr	r2, [r3]	@ D.8449, CO_OD_ROM.FirstWord
 339 014a 894B     		ldr	r3, .L32+28	@ tmp164,
 340 014c D3F84437 		ldr	r3, [r3, #1860]	@ D.8449, CO_OD_ROM.LastWord
 341 0150 9A42     		cmp	r2, r3	@ D.8449, D.8449
 342 0152 10D0     		beq	.L19	@,
  65:src/Example_Master.c ****         EXAMSTR_PANIC("Invalid CO_OD_ROM alignment!\r");
 343              		.loc 2 65 0
 344 0154 7F4A     		ldr	r2, .L32	@ tmp165,
 345 0156 874B     		ldr	r3, .L32+32	@ tmp166,
 346 0158 1446     		mov	r4, r2	@ tmp167, tmp165
 347 015a 1D46     		mov	r5, r3	@ tmp168, tmp166
 348 015c 0FCD     		ldmia	r5!, {r0, r1, r2, r3}	@ tmp168,,,,
 349 015e 0FC4     		stmia	r4!, {r0, r1, r2, r3}	@ tmp167,,,,
 350 0160 0FCD     		ldmia	r5!, {r0, r1, r2, r3}	@ tmp168,,,,
 351 0162 0FC4     		stmia	r4!, {r0, r1, r2, r3}	@ tmp167,,,,
 352 0164 95E80300 		ldmia	r5, {r0, r1}	@ tmp168,,
 353 0168 2060     		str	r0, [r4]	@, MEM[(void *)&gs_dbgMsg]
 354 016a 0434     		adds	r4, r4, #4	@ tmp167, tmp167,
 355 016c 2170     		strb	r1, [r4]	@, MEM[(void *)&gs_dbgMsg]
 356 016e 7948     		ldr	r0, .L32	@,
 357 0170 FFF7FEFF 		bl	pfUart0WriteString	@
 358              	.L20:
 359              		.loc 2 65 0 is_stmt 0 discriminator 1
 360 0174 FEE7     		b	.L20	@
 361              	.L19:
  66:src/Example_Master.c **** 	
  67:src/Example_Master.c ****     /* Initialize EEPROM - part 1 */
  68:src/Example_Master.c **** #ifdef BOARD_USE_EEPROM
  69:src/Example_Master.c ****     PFEnCoReturnError eeStatus = pfCoEeInit_1(&CO_EEO, (PFbyte*) &CO_OD_EEPROM, sizeof(CO_OD_EEPROM
  70:src/Example_Master.c **** 											 (PFbyte*) &CO_OD_ROM, sizeof(CO_OD_ROM));
  71:src/Example_Master.c ****     if(eeStatus != CO_ERROR_NO)
  72:src/Example_Master.c **** 	{
  73:src/Example_Master.c ****         EXAMSTR_ERROR("EEPROM Initialization Failure!\n");
  74:src/Example_Master.c ****     }
  75:src/Example_Master.c **** #endif
  76:src/Example_Master.c **** 
  77:src/Example_Master.c ****     programStart();
 362              		.loc 2 77 0 is_stmt 1
 363 0176 FFF7FEFF 		bl	programStart	@
  78:src/Example_Master.c **** 
  79:src/Example_Master.c ****     /* Increase variable each startup. Variable is stored in EEPROM. */
  80:src/Example_Master.c ****     OD_powerOnCounter++;
 364              		.loc 2 80 0
 365 017a 7B4B     		ldr	r3, .L32+20	@ tmp169,
 366 017c 5B68     		ldr	r3, [r3, #4]	@ D.8449, CO_OD_EEPROM.powerOnCounter
 367 017e 5A1C     		adds	r2, r3, #1	@ D.8449, D.8449,
 368 0180 794B     		ldr	r3, .L32+20	@ tmp170,
 369 0182 5A60     		str	r2, [r3, #4]	@ D.8449, CO_OD_EEPROM.powerOnCounter
  81:src/Example_Master.c **** 
  82:src/Example_Master.c ****     while(reset != enCO_RESET_APP)
 370              		.loc 2 82 0
 371 0184 15E1     		b	.L21	@
 372              	.L30:
 373              	.LBB2:
  83:src/Example_Master.c ****     {
  84:src/Example_Master.c ****         /* CANopen communication reset - initialize CANopen objects */
  85:src/Example_Master.c ****         PFEnCoReturnError err;
ARM GAS  C:\Users\Akil\AppData\Local\Temp\ccrFjqgU.s 			page 26


  86:src/Example_Master.c ****         PFword timer1msPrevious;
  87:src/Example_Master.c **** 
  88:src/Example_Master.c ****         /* Disable timer and CAN interrupts */
  89:src/Example_Master.c ****         timer_disableIrq();
 374              		.loc 2 89 0
 375 0186 1D20     		movs	r0, #29	@,
 376 0188 FFF750FF 		bl	NVIC_DisableIRQ	@
  90:src/Example_Master.c ****         can_disableIrq();
 377              		.loc 2 90 0
 378 018c 1920     		movs	r0, #25	@,
 379 018e FFF74DFF 		bl	NVIC_DisableIRQ	@
  91:src/Example_Master.c **** 		
  92:src/Example_Master.c ****         /* Initialize CANopen */
  93:src/Example_Master.c ****         err = pfCoInit(&canHwCfg);
 380              		.loc 2 93 0
 381 0192 6B46     		mov	r3, sp	@ tmp171,
 382 0194 1846     		mov	r0, r3	@, tmp171
 383 0196 FFF7FEFF 		bl	pfCoInit	@
 384 019a 0346     		mov	r3, r0	@ tmp172,
 385 019c 8DF84B30 		strb	r3, [sp, #75]	@ tmp173, err
  94:src/Example_Master.c **** 		if(err != enCO_ERROR_NO)
 386              		.loc 2 94 0
 387 01a0 9DF94B30 		ldrsb	r3, [sp, #75]	@ tmp174, err
 388 01a4 002B     		cmp	r3, #0	@ tmp174,
 389 01a6 10D0     		beq	.L22	@,
  95:src/Example_Master.c ****         {
  96:src/Example_Master.c ****             EXAMSTR_PANIC("Failed to Init CANopen stack!\n");
 390              		.loc 2 96 0
 391 01a8 6A4A     		ldr	r2, .L32	@ tmp175,
 392 01aa 734B     		ldr	r3, .L32+36	@ tmp176,
 393 01ac 1446     		mov	r4, r2	@ tmp177, tmp175
 394 01ae 1D46     		mov	r5, r3	@ tmp178, tmp176
 395 01b0 0FCD     		ldmia	r5!, {r0, r1, r2, r3}	@ tmp178,,,,
 396 01b2 0FC4     		stmia	r4!, {r0, r1, r2, r3}	@ tmp177,,,,
 397 01b4 0FCD     		ldmia	r5!, {r0, r1, r2, r3}	@ tmp178,,,,
 398 01b6 0FC4     		stmia	r4!, {r0, r1, r2, r3}	@ tmp177,,,,
 399 01b8 95E80300 		ldmia	r5, {r0, r1}	@ tmp178,,
 400 01bc 2060     		str	r0, [r4]	@, MEM[(void *)&gs_dbgMsg]
 401 01be 0434     		adds	r4, r4, #4	@ tmp177, tmp177,
 402 01c0 2180     		strh	r1, [r4]	@ movhi	@, MEM[(void *)&gs_dbgMsg]
 403 01c2 6448     		ldr	r0, .L32	@,
 404 01c4 FFF7FEFF 		bl	pfUart0WriteString	@
 405              	.L23:
 406              		.loc 2 96 0 is_stmt 0 discriminator 1
 407 01c8 FEE7     		b	.L23	@
 408              	.L22:
  97:src/Example_Master.c ****         }
  98:src/Example_Master.c **** 
  99:src/Example_Master.c ****         /* Initialize EEPROM - part 2 */
 100:src/Example_Master.c **** 
 101:src/Example_Master.c **** #ifdef BOARD_USE_EEPROM
 102:src/Example_Master.c ****         pfCoEeInit_2(&CO_EEO, eeStatus, CO->SDO, CO->em);
 103:src/Example_Master.c **** #endif
 104:src/Example_Master.c **** 
 105:src/Example_Master.c ****        /* Initialize variables */
 106:src/Example_Master.c ****        timer1msPrevious = CO_timer1ms;
 409              		.loc 2 106 0 is_stmt 1
ARM GAS  C:\Users\Akil\AppData\Local\Temp\ccrFjqgU.s 			page 27


 410 01ca 6C4B     		ldr	r3, .L32+40	@ tmp179,
 411 01cc 1B88     		ldrh	r3, [r3]	@ movhi	@ tmp180, CO_timer1ms
 412 01ce ADF84C30 		strh	r3, [sp, #76]	@ movhi	@ tmp180, timer1msPrevious
 107:src/Example_Master.c ****        OD_performance[ODA_performance_mainCycleMaxTime] = 0;
 413              		.loc 2 107 0
 414 01d2 634B     		ldr	r3, .L32+12	@ tmp181,
 415 01d4 0022     		movs	r2, #0	@ tmp183,
 416 01d6 A3F85A20 		strh	r2, [r3, #90]	@ movhi	@ tmp182, CO_OD_RAM.performance
 108:src/Example_Master.c ****        OD_performance[ODA_performance_timerCycleMaxTime] = 0;
 417              		.loc 2 108 0
 418 01da 614B     		ldr	r3, .L32+12	@ tmp184,
 419 01dc 0022     		movs	r2, #0	@ tmp186,
 420 01de A3F85620 		strh	r2, [r3, #86]	@ movhi	@ tmp185, CO_OD_RAM.performance
 109:src/Example_Master.c ****        reset = enCO_RESET_NOT;
 421              		.loc 2 109 0
 422 01e2 0023     		movs	r3, #0	@ tmp187,
 423 01e4 8DF84F30 		strb	r3, [sp, #79]	@ tmp188, reset
 110:src/Example_Master.c **** 
 111:src/Example_Master.c ****        communicationReset();
 424              		.loc 2 111 0
 425 01e8 FFF7FEFF 		bl	communicationReset	@
 112:src/Example_Master.c **** 
 113:src/Example_Master.c ****        /* Enable CAN and Timer Interrupts */
 114:src/Example_Master.c ****        timer_enableIrq();
 426              		.loc 2 114 0
 427 01ec 1D20     		movs	r0, #29	@,
 428 01ee FFF707FF 		bl	NVIC_EnableIRQ	@
 115:src/Example_Master.c ****        can_enableIrq();
 429              		.loc 2 115 0
 430 01f2 1920     		movs	r0, #25	@,
 431 01f4 FFF704FF 		bl	NVIC_EnableIRQ	@
 116:src/Example_Master.c **** 	   pfRitStart();
 432              		.loc 2 116 0
 433 01f8 FFF7FEFF 		bl	pfRitStart	@
 117:src/Example_Master.c **** 	   
 118:src/Example_Master.c ****        while(reset == enCO_RESET_NOT)
 434              		.loc 2 118 0
 435 01fc CCE0     		b	.L24	@
 436              	.L29:
 437              	.LBB3:
 119:src/Example_Master.c ****        {
 120:src/Example_Master.c **** 			/* Loop for normal program execution */
 121:src/Example_Master.c **** 			PFword timer1msCopy, timer1msDiff;
 122:src/Example_Master.c **** 
 123:src/Example_Master.c **** 			/* Calculate cycle time for performance measurement */
 124:src/Example_Master.c **** 			timer1msCopy = CO_timer1ms;
 438              		.loc 2 124 0
 439 01fe 5F4B     		ldr	r3, .L32+40	@ tmp189,
 440 0200 1B88     		ldrh	r3, [r3]	@ movhi	@ tmp190, CO_timer1ms
 441 0202 ADF84830 		strh	r3, [sp, #72]	@ movhi	@ tmp190, timer1msCopy
 125:src/Example_Master.c **** 			timer1msDiff = timer1msCopy - timer1msPrevious;
 442              		.loc 2 125 0
 443 0206 BDF84820 		ldrh	r2, [sp, #72]	@ movhi	@ tmp191, timer1msCopy
 444 020a BDF84C30 		ldrh	r3, [sp, #76]	@ movhi	@ tmp192, timer1msPrevious
 445 020e D31A     		subs	r3, r2, r3	@ tmp193, tmp191, tmp192
 446 0210 ADF84630 		strh	r3, [sp, #70]	@ movhi	@ tmp194, timer1msDiff
 126:src/Example_Master.c **** 			timer1msPrevious = timer1msCopy;
ARM GAS  C:\Users\Akil\AppData\Local\Temp\ccrFjqgU.s 			page 28


 447              		.loc 2 126 0
 448 0214 BDF84830 		ldrh	r3, [sp, #72]	@ movhi	@ tmp195, timer1msCopy
 449 0218 ADF84C30 		strh	r3, [sp, #76]	@ movhi	@ tmp195, timer1msPrevious
 127:src/Example_Master.c **** 		  
 128:src/Example_Master.c **** 			/* Application asynchronous program */
 129:src/Example_Master.c **** 			programAsync(timer1msDiff);
 450              		.loc 2 129 0
 451 021c BDF84630 		ldrh	r3, [sp, #70]	@ tmp196, timer1msDiff
 452 0220 1846     		mov	r0, r3	@, tmp196
 453 0222 FFF7FEFF 		bl	programAsync	@
 130:src/Example_Master.c **** 			
 131:src/Example_Master.c **** 			/* CANopen process */
 132:src/Example_Master.c **** 			reset = pfCoProcess(CO, timer1msDiff);
 454              		.loc 2 132 0
 455 0226 564B     		ldr	r3, .L32+44	@ tmp197,
 456 0228 1A68     		ldr	r2, [r3]	@ CO.6, CO
 457 022a BDF84630 		ldrh	r3, [sp, #70]	@ tmp198, timer1msDiff
 458 022e 1046     		mov	r0, r2	@, CO.6
 459 0230 1946     		mov	r1, r3	@, tmp198
 460 0232 FFF7FEFF 		bl	pfCoProcess	@
 461 0236 0346     		mov	r3, r0	@ tmp199,
 462 0238 8DF84F30 		strb	r3, [sp, #79]	@ tmp200, reset
 133:src/Example_Master.c **** 
 134:src/Example_Master.c **** 			#ifdef BOARD_USE_EEPROM
 135:src/Example_Master.c **** 				pfCoEeProcess(&CO_EEO);
 136:src/Example_Master.c **** 			#endif
 137:src/Example_Master.c **** 			
 138:src/Example_Master.c **** 					     pfCoProcessRPDO(CO);
 463              		.loc 2 138 0
 464 023c 504B     		ldr	r3, .L32+44	@ tmp201,
 465 023e 1B68     		ldr	r3, [r3]	@ CO.7, CO
 466 0240 1846     		mov	r0, r3	@, CO.7
 467 0242 FFF7FEFF 		bl	pfCoProcessRPDO	@
 139:src/Example_Master.c ****    		  
 140:src/Example_Master.c ****    
 141:src/Example_Master.c ****    OD_readInput8Bit0[0] = 2; 				// Cheetah-CB Channel
 468              		.loc 2 141 0
 469 0246 464B     		ldr	r3, .L32+12	@ tmp202,
 470 0248 0222     		movs	r2, #2	@ tmp203,
 471 024a 83F8D020 		strb	r2, [r3, #208]	@ tmp204, CO_OD_RAM.readInput8Bit0
 142:src/Example_Master.c ****    OD_readInput8Bit0[1] = enBooleanTrue;	// Use Encoder
 472              		.loc 2 142 0
 473 024e 444B     		ldr	r3, .L32+12	@ tmp205,
 474 0250 0122     		movs	r2, #1	@ tmp206,
 475 0252 83F8D120 		strb	r2, [r3, #209]	@ tmp207, CO_OD_RAM.readInput8Bit0
 143:src/Example_Master.c ****    OD_readInput8Bit0[2] = 64;				// Encoder CPR
 476              		.loc 2 143 0
 477 0256 424B     		ldr	r3, .L32+12	@ tmp208,
 478 0258 4022     		movs	r2, #64	@ tmp209,
 479 025a 83F8D220 		strb	r2, [r3, #210]	@ tmp210, CO_OD_RAM.readInput8Bit0
 144:src/Example_Master.c ****    OD_readInput8Bit0[3] = 100;				// Motor Gear Ratio
 480              		.loc 2 144 0
 481 025e 404B     		ldr	r3, .L32+12	@ tmp211,
 482 0260 6422     		movs	r2, #100	@ tmp212,
 483 0262 83F8D320 		strb	r2, [r3, #211]	@ tmp213, CO_OD_RAM.readInput8Bit0
 145:src/Example_Master.c ****    OD_readInput8Bit0[4] = enBooleanTrue; 	// Use PID
 484              		.loc 2 145 0
ARM GAS  C:\Users\Akil\AppData\Local\Temp\ccrFjqgU.s 			page 29


 485 0266 3E4B     		ldr	r3, .L32+12	@ tmp214,
 486 0268 0122     		movs	r2, #1	@ tmp215,
 487 026a 83F8D420 		strb	r2, [r3, #212]	@ tmp216, CO_OD_RAM.readInput8Bit0
 146:src/Example_Master.c ****    OD_readInput8Bit0[5] = 7;				// Kp Num
 488              		.loc 2 146 0
 489 026e 3C4B     		ldr	r3, .L32+12	@ tmp217,
 490 0270 0722     		movs	r2, #7	@ tmp218,
 491 0272 83F8D520 		strb	r2, [r3, #213]	@ tmp219, CO_OD_RAM.readInput8Bit0
 147:src/Example_Master.c ****    OD_readInput8Bit0[6] = 1;				// Kp Denom
 492              		.loc 2 147 0
 493 0276 3A4B     		ldr	r3, .L32+12	@ tmp220,
 494 0278 0122     		movs	r2, #1	@ tmp221,
 495 027a 83F8D620 		strb	r2, [r3, #214]	@ tmp222, CO_OD_RAM.readInput8Bit0
 148:src/Example_Master.c ****    OD_readInput8Bit0[7] = 105;				// Ti Num
 496              		.loc 2 148 0
 497 027e 384B     		ldr	r3, .L32+12	@ tmp223,
 498 0280 6922     		movs	r2, #105	@ tmp224,
 499 0282 83F8D720 		strb	r2, [r3, #215]	@ tmp225, CO_OD_RAM.readInput8Bit0
 149:src/Example_Master.c ****    OD_readInput8Bit0[8] = 1;				// Td Num
 500              		.loc 2 149 0
 501 0286 364B     		ldr	r3, .L32+12	@ tmp226,
 502 0288 0122     		movs	r2, #1	@ tmp227,
 503 028a 83F8D820 		strb	r2, [r3, #216]	@ tmp228, CO_OD_RAM.readInput8Bit0
 150:src/Example_Master.c ****    OD_readInput8Bit0[9] = 210;				// Td Denom
 504              		.loc 2 150 0
 505 028e 344B     		ldr	r3, .L32+12	@ tmp229,
 506 0290 D222     		movs	r2, #210	@ tmp230,
 507 0292 83F8D920 		strb	r2, [r3, #217]	@ tmp231, CO_OD_RAM.readInput8Bit0
 151:src/Example_Master.c ****    OD_readInput8Bit0[10] = 1;				// Max PID Output Denom
 508              		.loc 2 151 0
 509 0296 324B     		ldr	r3, .L32+12	@ tmp232,
 510 0298 0122     		movs	r2, #1	@ tmp233,
 511 029a 83F8DA20 		strb	r2, [r3, #218]	@ tmp234, CO_OD_RAM.readInput8Bit0
 152:src/Example_Master.c ****    OD_readInput8Bit0[11] = 45;				// Min PID Output Num
 512              		.loc 2 152 0
 513 029e 304B     		ldr	r3, .L32+12	@ tmp235,
 514 02a0 2D22     		movs	r2, #45	@ tmp236,
 515 02a2 83F8DB20 		strb	r2, [r3, #219]	@ tmp237, CO_OD_RAM.readInput8Bit0
 153:src/Example_Master.c ****    OD_readInput8Bit0[12] = 1;				// Min PID Output Denom
 516              		.loc 2 153 0
 517 02a6 2E4B     		ldr	r3, .L32+12	@ tmp238,
 518 02a8 0122     		movs	r2, #1	@ tmp239,
 519 02aa 83F8DC20 		strb	r2, [r3, #220]	@ tmp240, CO_OD_RAM.readInput8Bit0
 154:src/Example_Master.c ****    OD_readInput8Bit0[13] = 1;				// Max PID Input Num
 520              		.loc 2 154 0
 521 02ae 2C4B     		ldr	r3, .L32+12	@ tmp241,
 522 02b0 0122     		movs	r2, #1	@ tmp242,
 523 02b2 83F8DD20 		strb	r2, [r3, #221]	@ tmp243, CO_OD_RAM.readInput8Bit0
 155:src/Example_Master.c ****    OD_readInput8Bit0[14] = 0;				// Min PID Input Num
 524              		.loc 2 155 0
 525 02b6 2A4B     		ldr	r3, .L32+12	@ tmp244,
 526 02b8 0022     		movs	r2, #0	@ tmp245,
 527 02ba 83F8DE20 		strb	r2, [r3, #222]	@ tmp246, CO_OD_RAM.readInput8Bit0
 156:src/Example_Master.c ****    OD_readInput8Bit0[15] = 1;				// Min PID Input Denom
 528              		.loc 2 156 0
 529 02be 284B     		ldr	r3, .L32+12	@ tmp247,
 530 02c0 0122     		movs	r2, #1	@ tmp248,
ARM GAS  C:\Users\Akil\AppData\Local\Temp\ccrFjqgU.s 			page 30


 531 02c2 83F8DF20 		strb	r2, [r3, #223]	@ tmp249, CO_OD_RAM.readInput8Bit0
 157:src/Example_Master.c ****    
 158:src/Example_Master.c **** 		  
 159:src/Example_Master.c **** 	   pfCoProcessTPDO(CO);
 532              		.loc 2 159 0
 533 02c6 2E4B     		ldr	r3, .L32+44	@ tmp250,
 534 02c8 1B68     		ldr	r3, [r3]	@ CO.8, CO
 535 02ca 1846     		mov	r0, r3	@, CO.8
 536 02cc FFF7FEFF 		bl	pfCoProcessTPDO	@
 160:src/Example_Master.c **** 	   
 161:src/Example_Master.c **** 	
 162:src/Example_Master.c **** 
 163:src/Example_Master.c **** 			cmdBuf[cmdIdx] = board_get_char();
 537              		.loc 2 163 0
 538 02d0 9DF84E40 		ldrb	r4, [sp, #78]	@ zero_extendqisi2	@ D.8448, cmdIdx
 539 02d4 FFF7FEFF 		bl	board_get_char	@
 540 02d8 0346     		mov	r3, r0	@ tmp251,
 541 02da 1A46     		mov	r2, r3	@ D.8450, tmp251
 542 02dc 14AB     		add	r3, sp, #80	@ tmp252,,
 543 02de 2344     		add	r3, r3, r4	@ tmp252, D.8448
 544 02e0 03F84C2C 		strb	r2, [r3, #-76]	@ tmp253, cmdBuf
 164:src/Example_Master.c **** 			if(cmdBuf[cmdIdx] != 0xFF)
 545              		.loc 2 164 0
 546 02e4 9DF84E30 		ldrb	r3, [sp, #78]	@ zero_extendqisi2	@ D.8448, cmdIdx
 547 02e8 14AA     		add	r2, sp, #80	@,,
 548 02ea 1344     		add	r3, r3, r2	@ tmp254,
 549 02ec 13F84C3C 		ldrb	r3, [r3, #-76]	@ zero_extendqisi2	@ D.8450, cmdBuf
 550 02f0 FF2B     		cmp	r3, #255	@ D.8450,
 551 02f2 4CD0     		beq	.L25	@,
 165:src/Example_Master.c **** 			{
 166:src/Example_Master.c **** 				if(cmdBuf[cmdIdx] == '\n')
 552              		.loc 2 166 0
 553 02f4 9DF84E30 		ldrb	r3, [sp, #78]	@ zero_extendqisi2	@ D.8448, cmdIdx
 554 02f8 14AA     		add	r2, sp, #80	@,,
 555 02fa 1344     		add	r3, r3, r2	@ tmp255,
 556 02fc 13F84C3C 		ldrb	r3, [r3, #-76]	@ zero_extendqisi2	@ D.8450, cmdBuf
 557 0300 0A2B     		cmp	r3, #10	@ D.8450,
 558 0302 3FD1     		bne	.L26	@,
 167:src/Example_Master.c **** 				{
 168:src/Example_Master.c **** 					if(cmdIdx > 0 && cmdBuf[cmdIdx-1] == '\r')
 559              		.loc 2 168 0
 560 0304 9DF84E30 		ldrb	r3, [sp, #78]	@ zero_extendqisi2	@ tmp256, cmdIdx
 561 0308 002B     		cmp	r3, #0	@ tmp256,
 562 030a 11D0     		beq	.L27	@,
 563              		.loc 2 168 0 is_stmt 0 discriminator 1
 564 030c 9DF84E30 		ldrb	r3, [sp, #78]	@ zero_extendqisi2	@ D.8448, cmdIdx
 565 0310 013B     		subs	r3, r3, #1	@ D.8448, D.8448,
 566 0312 14AA     		add	r2, sp, #80	@,,
 567 0314 1344     		add	r3, r3, r2	@ tmp257,
 568 0316 13F84C3C 		ldrb	r3, [r3, #-76]	@ zero_extendqisi2	@ D.8450, cmdBuf
 569 031a 0D2B     		cmp	r3, #13	@ D.8450,
 570 031c 08D1     		bne	.L27	@,
 169:src/Example_Master.c ****                       cmdBuf[cmdIdx-1] = 0;
 571              		.loc 2 169 0 is_stmt 1
 572 031e 9DF84E30 		ldrb	r3, [sp, #78]	@ zero_extendqisi2	@ D.8448, cmdIdx
 573 0322 013B     		subs	r3, r3, #1	@ D.8448, D.8448,
 574 0324 14AA     		add	r2, sp, #80	@,,
ARM GAS  C:\Users\Akil\AppData\Local\Temp\ccrFjqgU.s 			page 31


 575 0326 1344     		add	r3, r3, r2	@ tmp258,
 576 0328 0022     		movs	r2, #0	@ tmp259,
 577 032a 03F84C2C 		strb	r2, [r3, #-76]	@ tmp260, cmdBuf
 578 032e 06E0     		b	.L28	@
 579              	.L27:
 170:src/Example_Master.c **** 					else
 171:src/Example_Master.c ****                       cmdBuf[cmdIdx] = 0;
 580              		.loc 2 171 0
 581 0330 9DF84E30 		ldrb	r3, [sp, #78]	@ zero_extendqisi2	@ D.8448, cmdIdx
 582 0334 14AA     		add	r2, sp, #80	@,,
 583 0336 1344     		add	r3, r3, r2	@ tmp261,
 584 0338 0022     		movs	r2, #0	@ tmp262,
 585 033a 03F84C2C 		strb	r2, [r3, #-76]	@ tmp263, cmdBuf
 586              	.L28:
 172:src/Example_Master.c **** 					cli_handleCmd(cmdBuf);
 587              		.loc 2 172 0
 588 033e 01AB     		add	r3, sp, #4	@ tmp264,,
 589 0340 1846     		mov	r0, r3	@, tmp264
 590 0342 00F0ABFC 		bl	cli_handleCmd	@
 173:src/Example_Master.c **** 					cmdIdx = 0;
 591              		.loc 2 173 0
 592 0346 0023     		movs	r3, #0	@ tmp265,
 593 0348 8DF84E30 		strb	r3, [sp, #78]	@ tmp266, cmdIdx
 174:src/Example_Master.c **** 					board_put_char('>');
 594              		.loc 2 174 0
 595 034c 3E20     		movs	r0, #62	@,
 596 034e FFF7FEFF 		bl	board_put_char	@
 597 0352 1CE0     		b	.L25	@
 598              	.L33:
 599              		.align	2
 600              	.L32:
 601 0354 04000000 		.word	gs_dbgMsg
 602 0358 00000000 		.word	.LC0
 603 035c 18000000 		.word	.LC1
 604 0360 00000000 		.word	CO_OD_RAM
 605 0364 3C000000 		.word	.LC2
 606 0368 00000000 		.word	CO_OD_EEPROM
 607 036c 64000000 		.word	.LC3
 608 0370 00000000 		.word	CO_OD_ROM
 609 0374 8C000000 		.word	.LC4
 610 0378 B4000000 		.word	.LC5
 611 037c 00000000 		.word	CO_timer1ms
 612 0380 00000000 		.word	CO
 613              	.L26:
 175:src/Example_Master.c **** 				}
 176:src/Example_Master.c ****               else
 177:src/Example_Master.c ****                   cmdIdx++;
 614              		.loc 2 177 0
 615 0384 9DF84E30 		ldrb	r3, [sp, #78]	@ zero_extendqisi2	@ cmdIdx.9, cmdIdx
 616 0388 0133     		adds	r3, r3, #1	@ tmp267, cmdIdx.9,
 617 038a 8DF84E30 		strb	r3, [sp, #78]	@ tmp268, cmdIdx
 618              	.L25:
 178:src/Example_Master.c **** 			}
 179:src/Example_Master.c ****           cli_process(timer1msDiff);
 619              		.loc 2 179 0
 620 038e BDF84630 		ldrh	r3, [sp, #70]	@ tmp269, timer1msDiff
 621 0392 1846     		mov	r0, r3	@, tmp269
ARM GAS  C:\Users\Akil\AppData\Local\Temp\ccrFjqgU.s 			page 32


 622 0394 00F05AFD 		bl	cli_process	@
 623              	.L24:
 624              	.LBE3:
 118:src/Example_Master.c ****        while(reset == enCO_RESET_NOT)
 625              		.loc 2 118 0 discriminator 1
 626 0398 9DF84F30 		ldrb	r3, [sp, #79]	@ zero_extendqisi2	@ tmp270, reset
 627 039c 002B     		cmp	r3, #0	@ tmp270,
 628 039e 3FF42EAF 		beq	.L29	@,
 180:src/Example_Master.c **** 
 181:src/Example_Master.c ****        }
 182:src/Example_Master.c **** 
 183:src/Example_Master.c ****        /* Disable Timer and CAN interrupts */
 184:src/Example_Master.c ****        timer_disableIrq();
 629              		.loc 2 184 0
 630 03a2 1D20     		movs	r0, #29	@,
 631 03a4 FFF742FE 		bl	NVIC_DisableIRQ	@
 185:src/Example_Master.c ****        can_disableIrq();
 632              		.loc 2 185 0
 633 03a8 1920     		movs	r0, #25	@,
 634 03aa FFF73FFE 		bl	NVIC_DisableIRQ	@
 186:src/Example_Master.c **** 	   
 187:src/Example_Master.c ****        pfCoDelete();
 635              		.loc 2 187 0
 636 03ae FFF7FEFF 		bl	pfCoDelete	@
 637              	.L21:
 638              	.LBE2:
  82:src/Example_Master.c ****     while(reset != enCO_RESET_APP)
 639              		.loc 2 82 0 discriminator 1
 640 03b2 9DF84F30 		ldrb	r3, [sp, #79]	@ zero_extendqisi2	@ tmp271, reset
 641 03b6 022B     		cmp	r3, #2	@ tmp271,
 642 03b8 7FF4E5AE 		bne	.L30	@,
 188:src/Example_Master.c ****     }
 189:src/Example_Master.c **** 	
 190:src/Example_Master.c ****     /* Program exit */
 191:src/Example_Master.c ****     programEnd();
 643              		.loc 2 191 0
 644 03bc FFF7FEFF 		bl	programEnd	@
 192:src/Example_Master.c **** 
 193:src/Example_Master.c ****     EXAMSTR_DEBUG("\rReset node!");
 645              		.loc 2 193 0
 646 03c0 044A     		ldr	r2, .L34	@ tmp272,
 647 03c2 054B     		ldr	r3, .L34+4	@ tmp273,
 648 03c4 1446     		mov	r4, r2	@ tmp274, tmp272
 649 03c6 0FCB     		ldmia	r3, {r0, r1, r2, r3}	@ tmp275,,,,
 650 03c8 07C4     		stmia	r4!, {r0, r1, r2}	@ tmp274,,,
 651 03ca 2370     		strb	r3, [r4]	@, MEM[(void *)&gs_dbgMsg]
 652 03cc 0148     		ldr	r0, .L34	@,
 653 03ce FFF7FEFF 		bl	pfUart0WriteString	@
 654              	.L31:
 194:src/Example_Master.c ****     board_reset();
 655              		.loc 2 194 0 discriminator 1
 656 03d2 FEE7     		b	.L31	@
 657              	.L35:
 658              		.align	2
 659              	.L34:
 660 03d4 04000000 		.word	gs_dbgMsg
 661 03d8 DC000000 		.word	.LC6
ARM GAS  C:\Users\Akil\AppData\Local\Temp\ccrFjqgU.s 			page 33


 662              		.cfi_endproc
 663              	.LFE56:
 664              		.size	main, .-main
 665              		.bss
 666              		.align	2
 667              	gs_data:
 668 0084 00000000 		.space	32
 668      00000000 
 668      00000000 
 668      00000000 
 668      00000000 
 669              	gs_nodeId:
 670 00a4 00       		.space	1
 671              	gs_objSubIdx:
 672 00a5 00       		.space	1
 673              		.align	1
 674              	gs_objIdx:
 675 00a6 0000     		.space	2
 676              		.align	2
 677              	gs_SDO_C:
 678 00a8 00000000 		.space	4
 679              		.align	2
 680              	gs_bSDORead:
 681 00ac 00000000 		.space	4
 682              		.section	.rodata
 683 00e9 000000   		.align	2
 684              	.LC7:
 685 00ec 0D205365 		.ascii	"\015 Send NMT command.\000"
 685      6E64204E 
 685      4D542063 
 685      6F6D6D61 
 685      6E642E00 
 686              		.align	2
 687              	.LC8:
 688 0100 0D205573 		.ascii	"\015 Usage:\000"
 688      6167653A 
 688      00
 689 0109 000000   		.align	2
 690              	.LC9:
 691 010c 0D20206E 		.ascii	"\015  nmt <nodeId> (op | preop | stop | rst | comrs"
 691      6D74203C 
 691      6E6F6465 
 691      49643E20 
 691      286F7020 
 692 013c 742900   		.ascii	"t)\000"
 693 013f 00       		.align	2
 694              	.LC10:
 695 0140 0D20206E 		.ascii	"\015  nodeId - node ID in hex format.\000"
 695      6F646549 
 695      64202D20 
 695      6E6F6465 
 695      20494420 
 696 0163 00       		.align	2
 697              	.LC11:
 698 0164 0D20206F 		.ascii	"\015  op     - Enter operational state.\000"
 698      70202020 
 698      20202D20 
ARM GAS  C:\Users\Akil\AppData\Local\Temp\ccrFjqgU.s 			page 34


 698      456E7465 
 698      72206F70 
 699 0189 000000   		.align	2
 700              	.LC12:
 701 018c 0D202070 		.ascii	"\015  preop  - Enter pre-operational state.\000"
 701      72656F70 
 701      20202D20 
 701      456E7465 
 701      72207072 
 702 01b5 000000   		.align	2
 703              	.LC13:
 704 01b8 0D202073 		.ascii	"\015  stop   - Enter stopped state.\000"
 704      746F7020 
 704      20202D20 
 704      456E7465 
 704      72207374 
 705 01d9 000000   		.align	2
 706              	.LC14:
 707 01dc 0D202072 		.ascii	"\015  rst    - Reset node.\000"
 707      73742020 
 707      20202D20 
 707      52657365 
 707      74206E6F 
 708              		.align	2
 709              	.LC15:
 710 01f4 0D202063 		.ascii	"\015  comrst - Reset communication.\000"
 710      6F6D7273 
 710      74202D20 
 710      52657365 
 710      7420636F 
 711              		.text
 712              		.align	2
 713              		.thumb
 714              		.thumb_func
 715              		.type	cli_nmtCmdPrintHelp, %function
 716              	cli_nmtCmdPrintHelp:
 717              	.LFB57:
 195:src/Example_Master.c **** 
 196:src/Example_Master.c ****    return 0;
 197:src/Example_Master.c **** }
 198:src/Example_Master.c **** 
 199:src/Example_Master.c **** #define CLI_DATA_MAX_LEN        32
 200:src/Example_Master.c **** #define CLI_MAX_ARG_NUM         16
 201:src/Example_Master.c **** 
 202:src/Example_Master.c **** #define CLI_NMT_ARG_NODE_POS    0
 203:src/Example_Master.c **** #define CLI_NMT_ARG_CMD_POS     1
 204:src/Example_Master.c **** #define CLI_NMT_ARG_NUM         2
 205:src/Example_Master.c **** #define CLI_SDOR_ARG_NODE_POS   0
 206:src/Example_Master.c **** #define CLI_SDOR_ARG_IDX_POS    1
 207:src/Example_Master.c **** #define CLI_SDOR_ARG_SIDX_POS   2
 208:src/Example_Master.c **** #define CLI_SDOR_ARG_NUM        3
 209:src/Example_Master.c **** #define CLI_SDOW_ARG_NODE_POS   0
 210:src/Example_Master.c **** #define CLI_SDOW_ARG_IDX_POS    1
 211:src/Example_Master.c **** #define CLI_SDOW_ARG_SIDX_POS   2
 212:src/Example_Master.c **** #define CLI_SDOW_ARG_LEN_POS    3
 213:src/Example_Master.c **** #define CLI_SDOW_ARG_VAL_POS    4
 214:src/Example_Master.c **** #define CLI_SDOW_ARG_NUM        5
ARM GAS  C:\Users\Akil\AppData\Local\Temp\ccrFjqgU.s 			page 35


 215:src/Example_Master.c **** 
 216:src/Example_Master.c **** static PFbyte gs_data[CLI_DATA_MAX_LEN];
 217:src/Example_Master.c **** static PFbyte gs_nodeId, gs_objSubIdx;
 218:src/Example_Master.c **** static PFword gs_objIdx;
 219:src/Example_Master.c **** static PFCoSdoClient *gs_SDO_C = NULL;
 220:src/Example_Master.c **** static int gs_bSDORead;
 221:src/Example_Master.c **** 
 222:src/Example_Master.c **** static void cli_nmtCmdPrintHelp(void)
 223:src/Example_Master.c **** {
 718              		.loc 2 223 0
 719              		.cfi_startproc
 720              		@ args = 0, pretend = 0, frame = 0
 721              		@ frame_needed = 0, uses_anonymous_args = 0
 722 03dc 38B5     		push	{r3, r4, r5, lr}	@
 723              	.LCFI5:
 724              		.cfi_def_cfa_offset 16
 725              		.cfi_offset 3, -16
 726              		.cfi_offset 4, -12
 727              		.cfi_offset 5, -8
 728              		.cfi_offset 14, -4
 224:src/Example_Master.c ****     EXAMSTR_DEBUG("\r Send NMT command.");
 729              		.loc 2 224 0
 730 03de 3F4A     		ldr	r2, .L37	@ tmp110,
 731 03e0 3F4B     		ldr	r3, .L37+4	@ tmp111,
 732 03e2 1446     		mov	r4, r2	@ tmp112, tmp110
 733 03e4 1D46     		mov	r5, r3	@ tmp113, tmp111
 734 03e6 0FCD     		ldmia	r5!, {r0, r1, r2, r3}	@ tmp113,,,,
 735 03e8 0FC4     		stmia	r4!, {r0, r1, r2, r3}	@ tmp112,,,,
 736 03ea 2B68     		ldr	r3, [r5]	@ tmp114, MEM[(void *)"\r Send NMT command."]
 737 03ec 2360     		str	r3, [r4]	@ tmp114, MEM[(void *)&gs_dbgMsg]
 738 03ee 3B48     		ldr	r0, .L37	@,
 739 03f0 FFF7FEFF 		bl	pfUart0WriteString	@
 225:src/Example_Master.c ****     EXAMSTR_DEBUG("\r Usage:");
 740              		.loc 2 225 0
 741 03f4 394B     		ldr	r3, .L37	@ tmp115,
 742 03f6 3B4A     		ldr	r2, .L37+8	@ tmp116,
 743 03f8 07CA     		ldmia	r2, {r0, r1, r2}	@ tmp118,,,
 744 03fa 03C3     		stmia	r3!, {r0, r1}	@ tmp117,,
 745 03fc 1A70     		strb	r2, [r3]	@, MEM[(void *)&gs_dbgMsg]
 746 03fe 3748     		ldr	r0, .L37	@,
 747 0400 FFF7FEFF 		bl	pfUart0WriteString	@
 226:src/Example_Master.c ****     EXAMSTR_DEBUG("\r  nmt <nodeId> (op | preop | stop | rst | comrst)");
 748              		.loc 2 226 0
 749 0404 354A     		ldr	r2, .L37	@ tmp119,
 750 0406 384B     		ldr	r3, .L37+12	@ tmp120,
 751 0408 1446     		mov	r4, r2	@ tmp121, tmp119
 752 040a 1D46     		mov	r5, r3	@ tmp122, tmp120
 753 040c 0FCD     		ldmia	r5!, {r0, r1, r2, r3}	@ tmp122,,,,
 754 040e 0FC4     		stmia	r4!, {r0, r1, r2, r3}	@ tmp121,,,,
 755 0410 0FCD     		ldmia	r5!, {r0, r1, r2, r3}	@ tmp122,,,,
 756 0412 0FC4     		stmia	r4!, {r0, r1, r2, r3}	@ tmp121,,,,
 757 0414 0FCD     		ldmia	r5!, {r0, r1, r2, r3}	@ tmp122,,,,
 758 0416 0FC4     		stmia	r4!, {r0, r1, r2, r3}	@ tmp121,,,,
 759 0418 2B68     		ldr	r3, [r5]	@ tmp123, MEM[(void *)"\r  nmt <nodeId> (op | preop | stop | rst | comrst)"]
 760 041a 1A46     		mov	r2, r3	@ movhi	@ tmp124, tmp123
 761 041c 2280     		strh	r2, [r4]	@ movhi	@ tmp124, MEM[(void *)&gs_dbgMsg]
 762 041e 0234     		adds	r4, r4, #2	@ tmp121, tmp121,
ARM GAS  C:\Users\Akil\AppData\Local\Temp\ccrFjqgU.s 			page 36


 763 0420 1B0C     		lsrs	r3, r3, #16	@ tmp125, tmp123,
 764 0422 2370     		strb	r3, [r4]	@ tmp126, MEM[(void *)&gs_dbgMsg]
 765 0424 2D48     		ldr	r0, .L37	@,
 766 0426 FFF7FEFF 		bl	pfUart0WriteString	@
 227:src/Example_Master.c ****     EXAMSTR_DEBUG("\r  nodeId - node ID in hex format.");
 767              		.loc 2 227 0
 768 042a 2C4A     		ldr	r2, .L37	@ tmp127,
 769 042c 2F4B     		ldr	r3, .L37+16	@ tmp128,
 770 042e 1446     		mov	r4, r2	@ tmp129, tmp127
 771 0430 1D46     		mov	r5, r3	@ tmp130, tmp128
 772 0432 0FCD     		ldmia	r5!, {r0, r1, r2, r3}	@ tmp130,,,,
 773 0434 0FC4     		stmia	r4!, {r0, r1, r2, r3}	@ tmp129,,,,
 774 0436 0FCD     		ldmia	r5!, {r0, r1, r2, r3}	@ tmp130,,,,
 775 0438 0FC4     		stmia	r4!, {r0, r1, r2, r3}	@ tmp129,,,,
 776 043a 2B68     		ldr	r3, [r5]	@ tmp131, MEM[(void *)"\r  nodeId - node ID in hex format."]
 777 043c 1A46     		mov	r2, r3	@ movhi	@ tmp132, tmp131
 778 043e 2280     		strh	r2, [r4]	@ movhi	@ tmp132, MEM[(void *)&gs_dbgMsg]
 779 0440 0234     		adds	r4, r4, #2	@ tmp129, tmp129,
 780 0442 1B0C     		lsrs	r3, r3, #16	@ tmp133, tmp131,
 781 0444 2370     		strb	r3, [r4]	@ tmp134, MEM[(void *)&gs_dbgMsg]
 782 0446 2548     		ldr	r0, .L37	@,
 783 0448 FFF7FEFF 		bl	pfUart0WriteString	@
 228:src/Example_Master.c ****     EXAMSTR_DEBUG("\r  op     - Enter operational state.");
 784              		.loc 2 228 0
 785 044c 234A     		ldr	r2, .L37	@ tmp135,
 786 044e 284B     		ldr	r3, .L37+20	@ tmp136,
 787 0450 1446     		mov	r4, r2	@ tmp137, tmp135
 788 0452 1D46     		mov	r5, r3	@ tmp138, tmp136
 789 0454 0FCD     		ldmia	r5!, {r0, r1, r2, r3}	@ tmp138,,,,
 790 0456 0FC4     		stmia	r4!, {r0, r1, r2, r3}	@ tmp137,,,,
 791 0458 0FCD     		ldmia	r5!, {r0, r1, r2, r3}	@ tmp138,,,,
 792 045a 0FC4     		stmia	r4!, {r0, r1, r2, r3}	@ tmp137,,,,
 793 045c 95E80300 		ldmia	r5, {r0, r1}	@ tmp138,,
 794 0460 2060     		str	r0, [r4]	@, MEM[(void *)&gs_dbgMsg]
 795 0462 0434     		adds	r4, r4, #4	@ tmp137, tmp137,
 796 0464 2170     		strb	r1, [r4]	@, MEM[(void *)&gs_dbgMsg]
 797 0466 1D48     		ldr	r0, .L37	@,
 798 0468 FFF7FEFF 		bl	pfUart0WriteString	@
 229:src/Example_Master.c ****     EXAMSTR_DEBUG("\r  preop  - Enter pre-operational state.");
 799              		.loc 2 229 0
 800 046c 1B4A     		ldr	r2, .L37	@ tmp139,
 801 046e 214B     		ldr	r3, .L37+24	@ tmp140,
 802 0470 1446     		mov	r4, r2	@ tmp141, tmp139
 803 0472 1D46     		mov	r5, r3	@ tmp142, tmp140
 804 0474 0FCD     		ldmia	r5!, {r0, r1, r2, r3}	@ tmp142,,,,
 805 0476 0FC4     		stmia	r4!, {r0, r1, r2, r3}	@ tmp141,,,,
 806 0478 0FCD     		ldmia	r5!, {r0, r1, r2, r3}	@ tmp142,,,,
 807 047a 0FC4     		stmia	r4!, {r0, r1, r2, r3}	@ tmp141,,,,
 808 047c 95E80700 		ldmia	r5, {r0, r1, r2}	@ tmp142,,,
 809 0480 03C4     		stmia	r4!, {r0, r1}	@ tmp141,,
 810 0482 2270     		strb	r2, [r4]	@, MEM[(void *)&gs_dbgMsg]
 811 0484 1548     		ldr	r0, .L37	@,
 812 0486 FFF7FEFF 		bl	pfUart0WriteString	@
 230:src/Example_Master.c ****     EXAMSTR_DEBUG("\r  stop   - Enter stopped state.");
 813              		.loc 2 230 0
 814 048a 144A     		ldr	r2, .L37	@ tmp143,
 815 048c 1A4B     		ldr	r3, .L37+28	@ tmp144,
ARM GAS  C:\Users\Akil\AppData\Local\Temp\ccrFjqgU.s 			page 37


 816 048e 1446     		mov	r4, r2	@ tmp145, tmp143
 817 0490 1D46     		mov	r5, r3	@ tmp146, tmp144
 818 0492 0FCD     		ldmia	r5!, {r0, r1, r2, r3}	@ tmp146,,,,
 819 0494 0FC4     		stmia	r4!, {r0, r1, r2, r3}	@ tmp145,,,,
 820 0496 0FCD     		ldmia	r5!, {r0, r1, r2, r3}	@ tmp146,,,,
 821 0498 0FC4     		stmia	r4!, {r0, r1, r2, r3}	@ tmp145,,,,
 822 049a 2B68     		ldr	r3, [r5]	@ tmp147, MEM[(void *)"\r  stop   - Enter stopped state."]
 823 049c 2370     		strb	r3, [r4]	@ tmp148, MEM[(void *)&gs_dbgMsg]
 824 049e 0F48     		ldr	r0, .L37	@,
 825 04a0 FFF7FEFF 		bl	pfUart0WriteString	@
 231:src/Example_Master.c ****     EXAMSTR_DEBUG("\r  rst    - Reset node.");
 826              		.loc 2 231 0
 827 04a4 0D4A     		ldr	r2, .L37	@ tmp149,
 828 04a6 154B     		ldr	r3, .L37+32	@ tmp150,
 829 04a8 1446     		mov	r4, r2	@ tmp151, tmp149
 830 04aa 1D46     		mov	r5, r3	@ tmp152, tmp150
 831 04ac 0FCD     		ldmia	r5!, {r0, r1, r2, r3}	@ tmp152,,,,
 832 04ae 0FC4     		stmia	r4!, {r0, r1, r2, r3}	@ tmp151,,,,
 833 04b0 95E80300 		ldmia	r5, {r0, r1}	@ tmp152,,
 834 04b4 84E80300 		stmia	r4, {r0, r1}	@ tmp151,,
 835 04b8 0848     		ldr	r0, .L37	@,
 836 04ba FFF7FEFF 		bl	pfUart0WriteString	@
 232:src/Example_Master.c ****     EXAMSTR_DEBUG("\r  comrst - Reset communication.");
 837              		.loc 2 232 0
 838 04be 074A     		ldr	r2, .L37	@ tmp153,
 839 04c0 0F4B     		ldr	r3, .L37+36	@ tmp154,
 840 04c2 1446     		mov	r4, r2	@ tmp155, tmp153
 841 04c4 1D46     		mov	r5, r3	@ tmp156, tmp154
 842 04c6 0FCD     		ldmia	r5!, {r0, r1, r2, r3}	@ tmp156,,,,
 843 04c8 0FC4     		stmia	r4!, {r0, r1, r2, r3}	@ tmp155,,,,
 844 04ca 0FCD     		ldmia	r5!, {r0, r1, r2, r3}	@ tmp156,,,,
 845 04cc 0FC4     		stmia	r4!, {r0, r1, r2, r3}	@ tmp155,,,,
 846 04ce 2B68     		ldr	r3, [r5]	@ tmp157, MEM[(void *)"\r  comrst - Reset communication."]
 847 04d0 2370     		strb	r3, [r4]	@ tmp158, MEM[(void *)&gs_dbgMsg]
 848 04d2 0248     		ldr	r0, .L37	@,
 849 04d4 FFF7FEFF 		bl	pfUart0WriteString	@
 233:src/Example_Master.c **** }
 850              		.loc 2 233 0
 851 04d8 38BD     		pop	{r3, r4, r5, pc}	@
 852              	.L38:
 853 04da 00BF     		.align	2
 854              	.L37:
 855 04dc 04000000 		.word	gs_dbgMsg
 856 04e0 EC000000 		.word	.LC7
 857 04e4 00010000 		.word	.LC8
 858 04e8 0C010000 		.word	.LC9
 859 04ec 40010000 		.word	.LC10
 860 04f0 64010000 		.word	.LC11
 861 04f4 8C010000 		.word	.LC12
 862 04f8 B8010000 		.word	.LC13
 863 04fc DC010000 		.word	.LC14
 864 0500 F4010000 		.word	.LC15
 865              		.cfi_endproc
 866              	.LFE57:
 867              		.size	cli_nmtCmdPrintHelp, .-cli_nmtCmdPrintHelp
 868              		.section	.rodata
 869 0215 000000   		.align	2
ARM GAS  C:\Users\Akil\AppData\Local\Temp\ccrFjqgU.s 			page 38


 870              	.LC16:
 871 0218 4552524F 		.ascii	"ERROR: \015Invalid number of args!\000"
 871      523A200D 
 871      496E7661 
 871      6C696420 
 871      6E756D62 
 872              		.align	2
 873              	.LC17:
 874 0238 6F7000   		.ascii	"op\000"
 875 023b 00       		.align	2
 876              	.LC18:
 877 023c 7072656F 		.ascii	"preop\000"
 877      7000
 878 0242 0000     		.align	2
 879              	.LC19:
 880 0244 73746F70 		.ascii	"stop\000"
 880      00
 881 0249 000000   		.align	2
 882              	.LC20:
 883 024c 72737400 		.ascii	"rst\000"
 884              		.align	2
 885              	.LC21:
 886 0250 636F6D72 		.ascii	"comrst\000"
 886      737400
 887 0257 00       		.align	2
 888              	.LC22:
 889 0258 4552524F 		.ascii	"ERROR: Invalid command!\012\000"
 889      523A2049 
 889      6E76616C 
 889      69642063 
 889      6F6D6D61 
 890 0271 000000   		.align	2
 891              	.LC23:
 892 0274 4552524F 		.ascii	"ERROR: pfCoSendNmtCommand failed!\000"
 892      523A2070 
 892      66436F53 
 892      656E644E 
 892      6D74436F 
 893 0296 0000     		.align	2
 894              	.LC24:
 895 0298 7066436F 		.ascii	"pfCoSendNmtCommand success!\000"
 895      53656E64 
 895      4E6D7443 
 895      6F6D6D61 
 895      6E642073 
 896              		.text
 897              		.align	2
 898              		.thumb
 899              		.thumb_func
 900              		.type	cli_nmtCmdExec, %function
 901              	cli_nmtCmdExec:
 902              	.LFB58:
 234:src/Example_Master.c **** 
 235:src/Example_Master.c **** static int cli_nmtCmdExec(char *pArgs[], PFbyte nArgs)
 236:src/Example_Master.c **** {
 903              		.loc 2 236 0
 904              		.cfi_startproc
ARM GAS  C:\Users\Akil\AppData\Local\Temp\ccrFjqgU.s 			page 39


 905              		@ args = 0, pretend = 0, frame = 16
 906              		@ frame_needed = 0, uses_anonymous_args = 0
 907 0504 30B5     		push	{r4, r5, lr}	@
 908              	.LCFI6:
 909              		.cfi_def_cfa_offset 12
 910              		.cfi_offset 4, -12
 911              		.cfi_offset 5, -8
 912              		.cfi_offset 14, -4
 913 0506 85B0     		sub	sp, sp, #20	@,,
 914              	.LCFI7:
 915              		.cfi_def_cfa_offset 32
 916 0508 0190     		str	r0, [sp, #4]	@ pArgs, pArgs
 917 050a 0B46     		mov	r3, r1	@ tmp130, nArgs
 918 050c 8DF80330 		strb	r3, [sp, #3]	@ tmp131, nArgs
 237:src/Example_Master.c ****     PFbyte nodeId, nmtCmd;
 238:src/Example_Master.c **** 
 239:src/Example_Master.c ****     if(nArgs != CLI_NMT_ARG_NUM)
 919              		.loc 2 239 0
 920 0510 9DF80330 		ldrb	r3, [sp, #3]	@ zero_extendqisi2	@ tmp132, nArgs
 921 0514 022B     		cmp	r3, #2	@ tmp132,
 922 0516 11D0     		beq	.L40	@,
 240:src/Example_Master.c ****     {
 241:src/Example_Master.c ****         EXAMSTR_ERROR("\rInvalid number of args!");
 923              		.loc 2 241 0
 924 0518 544A     		ldr	r2, .L49	@ tmp133,
 925 051a 554B     		ldr	r3, .L49+4	@ tmp134,
 926 051c 1446     		mov	r4, r2	@ tmp135, tmp133
 927 051e 1D46     		mov	r5, r3	@ tmp136, tmp134
 928 0520 0FCD     		ldmia	r5!, {r0, r1, r2, r3}	@ tmp136,,,,
 929 0522 0FC4     		stmia	r4!, {r0, r1, r2, r3}	@ tmp135,,,,
 930 0524 95E80F00 		ldmia	r5, {r0, r1, r2, r3}	@ tmp136,,,,
 931 0528 84E80F00 		stmia	r4, {r0, r1, r2, r3}	@ tmp135,,,,
 932 052c 4F48     		ldr	r0, .L49	@,
 933 052e FFF7FEFF 		bl	pfUart0WriteString	@
 242:src/Example_Master.c ****         cli_nmtCmdPrintHelp();
 934              		.loc 2 242 0
 935 0532 FFF753FF 		bl	cli_nmtCmdPrintHelp	@
 243:src/Example_Master.c ****         return -1;
 936              		.loc 2 243 0
 937 0536 4FF0FF33 		mov	r3, #-1	@ D.8467,
 938 053a 93E0     		b	.L41	@
 939              	.L40:
 244:src/Example_Master.c ****     }
 245:src/Example_Master.c **** 
 246:src/Example_Master.c ****     nodeId = (PFbyte)strtol(pArgs[CLI_NMT_ARG_NODE_POS], NULL, 16);
 940              		.loc 2 246 0
 941 053c 019B     		ldr	r3, [sp, #4]	@ tmp137, pArgs
 942 053e 1B68     		ldr	r3, [r3]	@ D.8468, *pArgs_5(D)
 943 0540 1846     		mov	r0, r3	@, D.8468
 944 0542 0021     		movs	r1, #0	@,
 945 0544 1022     		movs	r2, #16	@,
 946 0546 FFF7FEFF 		bl	strtol	@
 947 054a 0346     		mov	r3, r0	@ D.8469,
 948 054c 8DF80E30 		strb	r3, [sp, #14]	@ tmp138, nodeId
 247:src/Example_Master.c **** 
 248:src/Example_Master.c ****     if(strcmp(pArgs[CLI_NMT_ARG_CMD_POS], "op") == 0)
 949              		.loc 2 248 0
ARM GAS  C:\Users\Akil\AppData\Local\Temp\ccrFjqgU.s 			page 40


 950 0550 019B     		ldr	r3, [sp, #4]	@ tmp139, pArgs
 951 0552 0433     		adds	r3, r3, #4	@ D.8470, tmp139,
 952 0554 1B68     		ldr	r3, [r3]	@ D.8468, *_9
 953 0556 1846     		mov	r0, r3	@, D.8468
 954 0558 4649     		ldr	r1, .L49+8	@,
 955 055a FFF7FEFF 		bl	strcmp	@
 956 055e 0346     		mov	r3, r0	@ D.8467,
 957 0560 002B     		cmp	r3, #0	@ D.8467,
 958 0562 03D1     		bne	.L42	@,
 249:src/Example_Master.c ****         nmtCmd = enCO_NMT_ENTER_OPERATIONAL;
 959              		.loc 2 249 0
 960 0564 0123     		movs	r3, #1	@ tmp140,
 961 0566 8DF80F30 		strb	r3, [sp, #15]	@ tmp141, nmtCmd
 962 056a 49E0     		b	.L43	@
 963              	.L42:
 250:src/Example_Master.c ****     else if(strcmp(pArgs[CLI_NMT_ARG_CMD_POS], "preop") == 0)
 964              		.loc 2 250 0
 965 056c 019B     		ldr	r3, [sp, #4]	@ tmp142, pArgs
 966 056e 0433     		adds	r3, r3, #4	@ D.8470, tmp142,
 967 0570 1B68     		ldr	r3, [r3]	@ D.8468, *_13
 968 0572 1846     		mov	r0, r3	@, D.8468
 969 0574 4049     		ldr	r1, .L49+12	@,
 970 0576 FFF7FEFF 		bl	strcmp	@
 971 057a 0346     		mov	r3, r0	@ D.8467,
 972 057c 002B     		cmp	r3, #0	@ D.8467,
 973 057e 03D1     		bne	.L44	@,
 251:src/Example_Master.c ****         nmtCmd = enCO_NMT_ENTER_PRE_OPERATIONAL;
 974              		.loc 2 251 0
 975 0580 8023     		movs	r3, #128	@ tmp143,
 976 0582 8DF80F30 		strb	r3, [sp, #15]	@ tmp144, nmtCmd
 977 0586 3BE0     		b	.L43	@
 978              	.L44:
 252:src/Example_Master.c ****     else if(strcmp(pArgs[CLI_NMT_ARG_CMD_POS], "stop") == 0)
 979              		.loc 2 252 0
 980 0588 019B     		ldr	r3, [sp, #4]	@ tmp145, pArgs
 981 058a 0433     		adds	r3, r3, #4	@ D.8470, tmp145,
 982 058c 1B68     		ldr	r3, [r3]	@ D.8468, *_17
 983 058e 1846     		mov	r0, r3	@, D.8468
 984 0590 3A49     		ldr	r1, .L49+16	@,
 985 0592 FFF7FEFF 		bl	strcmp	@
 986 0596 0346     		mov	r3, r0	@ D.8467,
 987 0598 002B     		cmp	r3, #0	@ D.8467,
 988 059a 03D1     		bne	.L45	@,
 253:src/Example_Master.c ****         nmtCmd = enCO_NMT_ENTER_STOPPED;
 989              		.loc 2 253 0
 990 059c 0223     		movs	r3, #2	@ tmp146,
 991 059e 8DF80F30 		strb	r3, [sp, #15]	@ tmp147, nmtCmd
 992 05a2 2DE0     		b	.L43	@
 993              	.L45:
 254:src/Example_Master.c ****     else if(strcmp(pArgs[CLI_NMT_ARG_CMD_POS], "rst") == 0)
 994              		.loc 2 254 0
 995 05a4 019B     		ldr	r3, [sp, #4]	@ tmp148, pArgs
 996 05a6 0433     		adds	r3, r3, #4	@ D.8470, tmp148,
 997 05a8 1B68     		ldr	r3, [r3]	@ D.8468, *_21
 998 05aa 1846     		mov	r0, r3	@, D.8468
 999 05ac 3449     		ldr	r1, .L49+20	@,
 1000 05ae FFF7FEFF 		bl	strcmp	@
ARM GAS  C:\Users\Akil\AppData\Local\Temp\ccrFjqgU.s 			page 41


 1001 05b2 0346     		mov	r3, r0	@ D.8467,
 1002 05b4 002B     		cmp	r3, #0	@ D.8467,
 1003 05b6 03D1     		bne	.L46	@,
 255:src/Example_Master.c ****         nmtCmd = enCO_NMT_RESET_NODE;
 1004              		.loc 2 255 0
 1005 05b8 8123     		movs	r3, #129	@ tmp149,
 1006 05ba 8DF80F30 		strb	r3, [sp, #15]	@ tmp150, nmtCmd
 1007 05be 1FE0     		b	.L43	@
 1008              	.L46:
 256:src/Example_Master.c ****     else if(strcmp(pArgs[CLI_NMT_ARG_CMD_POS], "comrst") == 0)
 1009              		.loc 2 256 0
 1010 05c0 019B     		ldr	r3, [sp, #4]	@ tmp151, pArgs
 1011 05c2 0433     		adds	r3, r3, #4	@ D.8470, tmp151,
 1012 05c4 1B68     		ldr	r3, [r3]	@ D.8468, *_25
 1013 05c6 1846     		mov	r0, r3	@, D.8468
 1014 05c8 2E49     		ldr	r1, .L49+24	@,
 1015 05ca FFF7FEFF 		bl	strcmp	@
 1016 05ce 0346     		mov	r3, r0	@ D.8467,
 1017 05d0 002B     		cmp	r3, #0	@ D.8467,
 1018 05d2 03D1     		bne	.L47	@,
 257:src/Example_Master.c ****         nmtCmd = enCO_NMT_RESET_COMMUNICATION;
 1019              		.loc 2 257 0
 1020 05d4 8223     		movs	r3, #130	@ tmp152,
 1021 05d6 8DF80F30 		strb	r3, [sp, #15]	@ tmp153, nmtCmd
 1022 05da 11E0     		b	.L43	@
 1023              	.L47:
 258:src/Example_Master.c ****     else
 259:src/Example_Master.c ****     {
 260:src/Example_Master.c ****         EXAMSTR_ERROR("Invalid command!\n");
 1024              		.loc 2 260 0
 1025 05dc 234A     		ldr	r2, .L49	@ tmp154,
 1026 05de 2A4B     		ldr	r3, .L49+28	@ tmp155,
 1027 05e0 1446     		mov	r4, r2	@ tmp156, tmp154
 1028 05e2 1D46     		mov	r5, r3	@ tmp157, tmp155
 1029 05e4 0FCD     		ldmia	r5!, {r0, r1, r2, r3}	@ tmp157,,,,
 1030 05e6 0FC4     		stmia	r4!, {r0, r1, r2, r3}	@ tmp156,,,,
 1031 05e8 95E80700 		ldmia	r5, {r0, r1, r2}	@ tmp157,,,
 1032 05ec 03C4     		stmia	r4!, {r0, r1}	@ tmp156,,
 1033 05ee 2270     		strb	r2, [r4]	@, MEM[(void *)&gs_dbgMsg]
 1034 05f0 1E48     		ldr	r0, .L49	@,
 1035 05f2 FFF7FEFF 		bl	pfUart0WriteString	@
 261:src/Example_Master.c ****         cli_nmtCmdPrintHelp();
 1036              		.loc 2 261 0
 1037 05f6 FFF7F1FE 		bl	cli_nmtCmdPrintHelp	@
 262:src/Example_Master.c ****         return -1;
 1038              		.loc 2 262 0
 1039 05fa 4FF0FF33 		mov	r3, #-1	@ D.8467,
 1040 05fe 31E0     		b	.L41	@
 1041              	.L43:
 263:src/Example_Master.c ****     }
 264:src/Example_Master.c **** 
 265:src/Example_Master.c ****     PFbyte ret = pfCoSendNmtCommand(CO, nmtCmd, nodeId);
 1042              		.loc 2 265 0
 1043 0600 224B     		ldr	r3, .L49+32	@ tmp158,
 1044 0602 1968     		ldr	r1, [r3]	@ CO.12, CO
 1045 0604 9DF80F20 		ldrb	r2, [sp, #15]	@ zero_extendqisi2	@ tmp159, nmtCmd
 1046 0608 9DF80E30 		ldrb	r3, [sp, #14]	@ zero_extendqisi2	@ tmp160, nodeId
ARM GAS  C:\Users\Akil\AppData\Local\Temp\ccrFjqgU.s 			page 42


 1047 060c 0846     		mov	r0, r1	@, CO.12
 1048 060e 1146     		mov	r1, r2	@, tmp159
 1049 0610 1A46     		mov	r2, r3	@, tmp160
 1050 0612 FFF7FEFF 		bl	pfCoSendNmtCommand	@
 1051 0616 0346     		mov	r3, r0	@ tmp161,
 1052 0618 8DF80D30 		strb	r3, [sp, #13]	@ tmp162, ret
 266:src/Example_Master.c ****     if(ret != 0)
 1053              		.loc 2 266 0
 1054 061c 9DF80D30 		ldrb	r3, [sp, #13]	@ zero_extendqisi2	@ tmp163, ret
 1055 0620 002B     		cmp	r3, #0	@ tmp163,
 1056 0622 11D0     		beq	.L48	@,
 267:src/Example_Master.c ****     {
 268:src/Example_Master.c ****         EXAMSTR_ERROR("\pfCoSendNmtCommand failed!");
 1057              		.loc 2 268 0
 1058 0624 114A     		ldr	r2, .L49	@ tmp164,
 1059 0626 1A4B     		ldr	r3, .L49+36	@ tmp165,
 1060 0628 1446     		mov	r4, r2	@ tmp166, tmp164
 1061 062a 1D46     		mov	r5, r3	@ tmp167, tmp165
 1062 062c 0FCD     		ldmia	r5!, {r0, r1, r2, r3}	@ tmp167,,,,
 1063 062e 0FC4     		stmia	r4!, {r0, r1, r2, r3}	@ tmp166,,,,
 1064 0630 0FCD     		ldmia	r5!, {r0, r1, r2, r3}	@ tmp167,,,,
 1065 0632 0FC4     		stmia	r4!, {r0, r1, r2, r3}	@ tmp166,,,,
 1066 0634 2B68     		ldr	r3, [r5]	@ tmp168, MEM[(void *)"ERROR: pfCoSendNmtCommand failed!"]
 1067 0636 2380     		strh	r3, [r4]	@ movhi	@ tmp169, MEM[(void *)&gs_dbgMsg]
 1068 0638 0C48     		ldr	r0, .L49	@,
 1069 063a FFF7FEFF 		bl	pfUart0WriteString	@
 269:src/Example_Master.c ****         cli_nmtCmdPrintHelp();
 1070              		.loc 2 269 0
 1071 063e FFF7CDFE 		bl	cli_nmtCmdPrintHelp	@
 270:src/Example_Master.c ****         return -1;
 1072              		.loc 2 270 0
 1073 0642 4FF0FF33 		mov	r3, #-1	@ D.8467,
 1074 0646 0DE0     		b	.L41	@
 1075              	.L48:
 271:src/Example_Master.c ****     }
 272:src/Example_Master.c **** 	else
 273:src/Example_Master.c **** 		EXAMSTR_DEBUG("\pfCoSendNmtCommand success!");
 1076              		.loc 2 273 0
 1077 0648 084A     		ldr	r2, .L49	@ tmp170,
 1078 064a 124B     		ldr	r3, .L49+40	@ tmp171,
 1079 064c 1446     		mov	r4, r2	@ tmp172, tmp170
 1080 064e 1D46     		mov	r5, r3	@ tmp173, tmp171
 1081 0650 0FCD     		ldmia	r5!, {r0, r1, r2, r3}	@ tmp173,,,,
 1082 0652 0FC4     		stmia	r4!, {r0, r1, r2, r3}	@ tmp172,,,,
 1083 0654 95E80700 		ldmia	r5, {r0, r1, r2}	@ tmp173,,,
 1084 0658 84E80700 		stmia	r4, {r0, r1, r2}	@ tmp172,,,
 1085 065c 0348     		ldr	r0, .L49	@,
 1086 065e FFF7FEFF 		bl	pfUart0WriteString	@
 274:src/Example_Master.c ****     return 0;
 1087              		.loc 2 274 0
 1088 0662 0023     		movs	r3, #0	@ D.8467,
 1089              	.L41:
 275:src/Example_Master.c **** }
 1090              		.loc 2 275 0
 1091 0664 1846     		mov	r0, r3	@, <retval>
 1092 0666 05B0     		add	sp, sp, #20	@,,
 1093              		@ sp needed	@
ARM GAS  C:\Users\Akil\AppData\Local\Temp\ccrFjqgU.s 			page 43


 1094 0668 30BD     		pop	{r4, r5, pc}	@
 1095              	.L50:
 1096 066a 00BF     		.align	2
 1097              	.L49:
 1098 066c 04000000 		.word	gs_dbgMsg
 1099 0670 18020000 		.word	.LC16
 1100 0674 38020000 		.word	.LC17
 1101 0678 3C020000 		.word	.LC18
 1102 067c 44020000 		.word	.LC19
 1103 0680 4C020000 		.word	.LC20
 1104 0684 50020000 		.word	.LC21
 1105 0688 58020000 		.word	.LC22
 1106 068c 00000000 		.word	CO
 1107 0690 74020000 		.word	.LC23
 1108 0694 98020000 		.word	.LC24
 1109              		.cfi_endproc
 1110              	.LFE58:
 1111              		.size	cli_nmtCmdExec, .-cli_nmtCmdExec
 1112              		.section	.rodata
 1113              		.align	2
 1114              	.LC25:
 1115 02b4 0D53444F 		.ascii	"\015SDO read/write command.\000"
 1115      20726561 
 1115      642F7772 
 1115      69746520 
 1115      636F6D6D 
 1116 02cd 000000   		.align	2
 1117              	.LC26:
 1118 02d0 0D557361 		.ascii	"\015Usage:\000"
 1118      67653A00 
 1119              		.align	2
 1120              	.LC27:
 1121 02d8 0D202073 		.ascii	"\015  sdo(r|w) <nodeId> <idx> <sidx> [<len> <val>]\000"
 1121      646F2872 
 1121      7C772920 
 1121      3C6E6F64 
 1121      6549643E 
 1122              		.align	2
 1123              	.LC28:
 1124 0308 0D202072 		.ascii	"\015  r | w  - 'r'ead or 'w'rite.\000"
 1124      207C2077 
 1124      20202D20 
 1124      27722765 
 1124      6164206F 
 1125 0327 00       		.align	2
 1126              	.LC29:
 1127 0328 0D202069 		.ascii	"\015  idx    - Object dictionary index in hex forma"
 1127      64782020 
 1127      20202D20 
 1127      4F626A65 
 1127      63742064 
 1128 0358 742E00   		.ascii	"t.\000"
 1129 035b 00       		.align	2
 1130              	.LC30:
 1131 035c 0D202073 		.ascii	"\015  sidx   - Object dictionary sub-index in hex f"
 1131      69647820 
 1131      20202D20 
ARM GAS  C:\Users\Akil\AppData\Local\Temp\ccrFjqgU.s 			page 44


 1131      4F626A65 
 1131      63742064 
 1132 038c 6F726D61 		.ascii	"ormat.\000"
 1132      742E00
 1133 0393 00       		.align	2
 1134              	.LC31:
 1135 0394 0D20206C 		.ascii	"\015  len    - length of variable (0001 to 0397) in"
 1135      656E2020 
 1135      20202D20 
 1135      6C656E67 
 1135      7468206F 
 1136 03c4 20686578 		.ascii	" hex format. If reading, this value is ignored.\000"
 1136      20666F72 
 1136      6D61742E 
 1136      20496620 
 1136      72656164 
 1137              		.align	2
 1138              	.LC32:
 1139 03f4 0D202076 		.ascii	"\015  val    - Value (bytes sequence) to be written"
 1139      616C2020 
 1139      20202D20 
 1139      56616C75 
 1139      65202862 
 1140 0424 20696E20 		.ascii	" in hex and little-endian format. If reading, this "
 1140      68657820 
 1140      616E6420 
 1140      6C697474 
 1140      6C652D65 
 1141 0457 76616C75 		.ascii	"value is ignored.\000"
 1141      65206973 
 1141      2069676E 
 1141      6F726564 
 1141      2E00
 1142 0469 000000   		.align	2
 1143              	.LC33:
 1144 046c 20202020 		.ascii	"    val    - Value (bytes sequence) to be written i"
 1144      76616C20 
 1144      2020202D 
 1144      2056616C 
 1144      75652028 
 1145 049f 6E206865 		.ascii	"n hex and little-endian format. If reading, this va"
 1145      7820616E 
 1145      64206C69 
 1145      74746C65 
 1145      2D656E64 
 1146 04d2 6C756520 		.ascii	"lue is ignored.\000"
 1146      69732069 
 1146      676E6F72 
 1146      65642E00 
 1147              		.text
 1148              		.align	2
 1149              		.thumb
 1150              		.thumb_func
 1151              		.type	cli_sdoCmdPrintHelp, %function
 1152              	cli_sdoCmdPrintHelp:
 1153              	.LFB59:
 276:src/Example_Master.c **** 
ARM GAS  C:\Users\Akil\AppData\Local\Temp\ccrFjqgU.s 			page 45


 277:src/Example_Master.c **** static void cli_sdoCmdPrintHelp(void)
 278:src/Example_Master.c **** {
 1154              		.loc 2 278 0
 1155              		.cfi_startproc
 1156              		@ args = 0, pretend = 0, frame = 0
 1157              		@ frame_needed = 0, uses_anonymous_args = 0
 1158 0698 38B5     		push	{r3, r4, r5, lr}	@
 1159              	.LCFI8:
 1160              		.cfi_def_cfa_offset 16
 1161              		.cfi_offset 3, -16
 1162              		.cfi_offset 4, -12
 1163              		.cfi_offset 5, -8
 1164              		.cfi_offset 14, -4
 279:src/Example_Master.c ****     EXAMSTR_DEBUG("\rSDO read/write command.");
 1165              		.loc 2 279 0
 1166 069a 4B4A     		ldr	r2, .L52	@ tmp110,
 1167 069c 4B4B     		ldr	r3, .L52+4	@ tmp111,
 1168 069e 1446     		mov	r4, r2	@ tmp112, tmp110
 1169 06a0 1D46     		mov	r5, r3	@ tmp113, tmp111
 1170 06a2 0FCD     		ldmia	r5!, {r0, r1, r2, r3}	@ tmp113,,,,
 1171 06a4 0FC4     		stmia	r4!, {r0, r1, r2, r3}	@ tmp112,,,,
 1172 06a6 95E80700 		ldmia	r5, {r0, r1, r2}	@ tmp113,,,
 1173 06aa 03C4     		stmia	r4!, {r0, r1}	@ tmp112,,
 1174 06ac 2270     		strb	r2, [r4]	@, MEM[(void *)&gs_dbgMsg]
 1175 06ae 4648     		ldr	r0, .L52	@,
 1176 06b0 FFF7FEFF 		bl	pfUart0WriteString	@
 280:src/Example_Master.c ****     EXAMSTR_DEBUG("\rUsage:");
 1177              		.loc 2 280 0
 1178 06b4 444B     		ldr	r3, .L52	@ tmp114,
 1179 06b6 464A     		ldr	r2, .L52+8	@ tmp115,
 1180 06b8 92E80300 		ldmia	r2, {r0, r1}	@ tmp117,,
 1181 06bc 83E80300 		stmia	r3, {r0, r1}	@ tmp116,,
 1182 06c0 4148     		ldr	r0, .L52	@,
 1183 06c2 FFF7FEFF 		bl	pfUart0WriteString	@
 281:src/Example_Master.c ****     EXAMSTR_DEBUG("\r  sdo(r|w) <nodeId> <idx> <sidx> [<len> <val>]");
 1184              		.loc 2 281 0
 1185 06c6 404A     		ldr	r2, .L52	@ tmp118,
 1186 06c8 424B     		ldr	r3, .L52+12	@ tmp119,
 1187 06ca 1446     		mov	r4, r2	@ tmp120, tmp118
 1188 06cc 1D46     		mov	r5, r3	@ tmp121, tmp119
 1189 06ce 0FCD     		ldmia	r5!, {r0, r1, r2, r3}	@ tmp121,,,,
 1190 06d0 0FC4     		stmia	r4!, {r0, r1, r2, r3}	@ tmp120,,,,
 1191 06d2 0FCD     		ldmia	r5!, {r0, r1, r2, r3}	@ tmp121,,,,
 1192 06d4 0FC4     		stmia	r4!, {r0, r1, r2, r3}	@ tmp120,,,,
 1193 06d6 95E80F00 		ldmia	r5, {r0, r1, r2, r3}	@ tmp121,,,,
 1194 06da 84E80F00 		stmia	r4, {r0, r1, r2, r3}	@ tmp120,,,,
 1195 06de 3A48     		ldr	r0, .L52	@,
 1196 06e0 FFF7FEFF 		bl	pfUart0WriteString	@
 282:src/Example_Master.c ****     EXAMSTR_DEBUG("\r  r | w  - 'r'ead or 'w'rite.");
 1197              		.loc 2 282 0
 1198 06e4 384A     		ldr	r2, .L52	@ tmp122,
 1199 06e6 3C4B     		ldr	r3, .L52+16	@ tmp123,
 1200 06e8 1446     		mov	r4, r2	@ tmp124, tmp122
 1201 06ea 1D46     		mov	r5, r3	@ tmp125, tmp123
 1202 06ec 0FCD     		ldmia	r5!, {r0, r1, r2, r3}	@ tmp125,,,,
 1203 06ee 0FC4     		stmia	r4!, {r0, r1, r2, r3}	@ tmp124,,,,
 1204 06f0 95E80F00 		ldmia	r5, {r0, r1, r2, r3}	@ tmp125,,,,
ARM GAS  C:\Users\Akil\AppData\Local\Temp\ccrFjqgU.s 			page 46


 1205 06f4 07C4     		stmia	r4!, {r0, r1, r2}	@ tmp124,,,
 1206 06f6 2380     		strh	r3, [r4]	@ movhi	@, MEM[(void *)&gs_dbgMsg]
 1207 06f8 0234     		adds	r4, r4, #2	@ tmp124, tmp124,
 1208 06fa 1B0C     		lsrs	r3, r3, #16	@ tmp126,,
 1209 06fc 2370     		strb	r3, [r4]	@ tmp127, MEM[(void *)&gs_dbgMsg]
 1210 06fe 3248     		ldr	r0, .L52	@,
 1211 0700 FFF7FEFF 		bl	pfUart0WriteString	@
 283:src/Example_Master.c ****     EXAMSTR_DEBUG("\r  nodeId - node ID in hex format.");
 1212              		.loc 2 283 0
 1213 0704 304A     		ldr	r2, .L52	@ tmp128,
 1214 0706 354B     		ldr	r3, .L52+20	@ tmp129,
 1215 0708 1446     		mov	r4, r2	@ tmp130, tmp128
 1216 070a 1D46     		mov	r5, r3	@ tmp131, tmp129
 1217 070c 0FCD     		ldmia	r5!, {r0, r1, r2, r3}	@ tmp131,,,,
 1218 070e 0FC4     		stmia	r4!, {r0, r1, r2, r3}	@ tmp130,,,,
 1219 0710 0FCD     		ldmia	r5!, {r0, r1, r2, r3}	@ tmp131,,,,
 1220 0712 0FC4     		stmia	r4!, {r0, r1, r2, r3}	@ tmp130,,,,
 1221 0714 2B68     		ldr	r3, [r5]	@ tmp132, MEM[(void *)"\r  nodeId - node ID in hex format."]
 1222 0716 1A46     		mov	r2, r3	@ movhi	@ tmp133, tmp132
 1223 0718 2280     		strh	r2, [r4]	@ movhi	@ tmp133, MEM[(void *)&gs_dbgMsg]
 1224 071a 0234     		adds	r4, r4, #2	@ tmp130, tmp130,
 1225 071c 1B0C     		lsrs	r3, r3, #16	@ tmp134, tmp132,
 1226 071e 2370     		strb	r3, [r4]	@ tmp135, MEM[(void *)&gs_dbgMsg]
 1227 0720 2948     		ldr	r0, .L52	@,
 1228 0722 FFF7FEFF 		bl	pfUart0WriteString	@
 284:src/Example_Master.c ****     EXAMSTR_DEBUG("\r  idx    - Object dictionary index in hex format.");
 1229              		.loc 2 284 0
 1230 0726 284A     		ldr	r2, .L52	@ tmp136,
 1231 0728 2D4B     		ldr	r3, .L52+24	@ tmp137,
 1232 072a 1446     		mov	r4, r2	@ tmp138, tmp136
 1233 072c 1D46     		mov	r5, r3	@ tmp139, tmp137
 1234 072e 0FCD     		ldmia	r5!, {r0, r1, r2, r3}	@ tmp139,,,,
 1235 0730 0FC4     		stmia	r4!, {r0, r1, r2, r3}	@ tmp138,,,,
 1236 0732 0FCD     		ldmia	r5!, {r0, r1, r2, r3}	@ tmp139,,,,
 1237 0734 0FC4     		stmia	r4!, {r0, r1, r2, r3}	@ tmp138,,,,
 1238 0736 0FCD     		ldmia	r5!, {r0, r1, r2, r3}	@ tmp139,,,,
 1239 0738 0FC4     		stmia	r4!, {r0, r1, r2, r3}	@ tmp138,,,,
 1240 073a 2B68     		ldr	r3, [r5]	@ tmp140, MEM[(void *)"\r  idx    - Object dictionary index in hex format."]
 1241 073c 1A46     		mov	r2, r3	@ movhi	@ tmp141, tmp140
