ARM GAS  C:\Users\Akil\AppData\Local\Temp\ccYyRyEf.s 			page 1


   1              		.syntax unified
   2              		.cpu cortex-m3
   3              		.fpu softvfp
   4              		.eabi_attribute 20, 1	@ Tag_ABI_FP_denormal
   5              		.eabi_attribute 21, 1	@ Tag_ABI_FP_exceptions
   6              		.eabi_attribute 23, 3	@ Tag_ABI_FP_number_model
   7              		.eabi_attribute 24, 1	@ Tag_ABI_align8_needed
   8              		.eabi_attribute 25, 1	@ Tag_ABI_align8_preserved
   9              		.eabi_attribute 26, 1	@ Tag_ABI_enum_size
  10              		.eabi_attribute 30, 6	@ Tag_ABI_optimization_goals
  11              		.eabi_attribute 34, 1	@ Tag_CPU_unaligned_access
  12              		.eabi_attribute 18, 4	@ Tag_ABI_PCS_wchar_t
  13              		.file	"vectors_lpc1768.c"
  14              	@ GNU C (GNU Tools for ARM Embedded Processors) version 4.8.4 20140526 (release) [ARM/embedded-4_8-
  15              	@	compiled by GNU C version 4.6.4, GMP version 4.3.2, MPFR version 2.4.2, MPC version 0.8.1
  16              	@ GGC heuristics: --param ggc-min-expand=100 --param ggc-min-heapsize=131072
  17              	@ options passed:  -I . -I ./include -I ./cmsis/core -I ./cmsis/device
  18              	@ -I ./prime-framework -I ./prime-framework/include
  19              	@ -I ./prime-framework/arch/arm/cortex-m3/lpc1768/include
  20              	@ -I ./prime-framework/common/include -I ./prime-framework/utils/include
  21              	@ -I ./prime-framework/nativehardware/lpc1768/include
  22              	@ -I ./prime-framework/device/include
  23              	@ -I ./prime-framework/extensions/CANopenARM/include -imultilib armv7-m
  24              	@ -iprefix h:\arm-non-eabi\bin\../lib/gcc/arm-none-eabi/4.8.4/
  25              	@ -isysroot h:\arm-non-eabi\bin\../arm-none-eabi -MD src/vectors_lpc1768.d
  26              	@ -MF .dep/vectors_lpc1768.o.d -MP -MQ src/vectors_lpc1768.o
  27              	@ -D__USES_INITFINI__ -D CORE_FAMILY_arm -D MCU_CHIP_lpc1768 -D PRIME_DEBUG
  28              	@ -D RUN_FROM_FLASH=1 src/vectors_lpc1768.c -mcpu=cortex-m3 -mthumb
  29              	@ -auxbase-strip src/vectors_lpc1768.o -gdwarf-2 -O0 -Wall
  30              	@ -Wstrict-prototypes -fomit-frame-pointer -fverbose-asm
  31              	@ options enabled:  -faggressive-loop-optimizations -fauto-inc-dec
  32              	@ -fbranch-count-reg -fcommon -fdelete-null-pointer-checks -fdwarf2-cfi-asm
  33              	@ -fearly-inlining -feliminate-unused-debug-types -ffunction-cse -fgcse-lm
  34              	@ -fgnu-runtime -fident -finline-atomics -fira-hoist-pressure
  35              	@ -fira-share-save-slots -fira-share-spill-slots -fivopts
  36              	@ -fkeep-static-consts -fleading-underscore -fmath-errno
  37              	@ -fmerge-debug-strings -fmove-loop-invariants -fomit-frame-pointer
  38              	@ -fpeephole -fprefetch-loop-arrays -freg-struct-return
  39              	@ -fsched-critical-path-heuristic -fsched-dep-count-heuristic
  40              	@ -fsched-group-heuristic -fsched-interblock -fsched-last-insn-heuristic
  41              	@ -fsched-rank-heuristic -fsched-spec -fsched-spec-insn-heuristic
  42              	@ -fsched-stalled-insns-dep -fshow-column -fsigned-zeros
  43              	@ -fsplit-ivs-in-unroller -fstrict-volatile-bitfields -fsync-libcalls
  44              	@ -ftrapping-math -ftree-coalesce-vars -ftree-cselim -ftree-forwprop
  45              	@ -ftree-loop-if-convert -ftree-loop-im -ftree-loop-ivcanon
  46              	@ -ftree-loop-optimize -ftree-parallelize-loops= -ftree-phiprop -ftree-pta
  47              	@ -ftree-reassoc -ftree-scev-cprop -ftree-slp-vectorize
  48              	@ -ftree-vect-loop-version -funit-at-a-time -fverbose-asm
  49              	@ -fzero-initialized-in-bss -mfix-cortex-m3-ldrd -mlittle-endian
  50              	@ -mpic-data-is-text-relative -msched-prolog -mthumb -munaligned-access
  51              	@ -mvectorize-with-neon-quad
  52              	
  53              		.text
  54              	.Ltext0:
  55              		.cfi_sections	.debug_frame
  56              		.global	gVectors
  57              		.section	.vectors,"a",%progbits
ARM GAS  C:\Users\Akil\AppData\Local\Temp\ccYyRyEf.s 			page 2


  58              		.align	2
  59              		.type	gVectors, %object
  60              		.size	gVectors, 192
  61              	gVectors:
  62 0000 00000000 		.word	_estack
  63 0004 00000000 		.word	ResetHandler
  64 0008 00000000 		.word	NMI_Handler
  65 000c 00000000 		.word	HardFault_Handler
  66 0010 00000000 		.word	MemManage_Handler
  67 0014 00000000 		.word	BusFault_Handler
  68 0018 00000000 		.word	UsageFault_Handler
  69 001c 00000000 		.word	0
  70 0020 00000000 		.word	0
  71 0024 00000000 		.word	0
  72 0028 00000000 		.word	0
  73 002c 00000000 		.word	SVC_Handler
  74 0030 00000000 		.word	DebugMon_Handler
  75 0034 00000000 		.word	0
  76 0038 00000000 		.word	PendSV_Handler
  77 003c 00000000 		.word	SysTick_Handler
  78 0040 00000000 		.word	WDT_IRQHandler
  79 0044 00000000 		.word	TIMER0_IRQHandler
  80 0048 00000000 		.word	TIMER1_IRQHandler
  81 004c 00000000 		.word	TIMER2_IRQHandler
  82 0050 00000000 		.word	TIMER3_IRQHandler
  83 0054 00000000 		.word	UART0_IRQHandler
  84 0058 00000000 		.word	UART1_IRQHandler
  85 005c 00000000 		.word	UART2_IRQHandler
  86 0060 00000000 		.word	UART3_IRQHandler
  87 0064 00000000 		.word	PWM_IRQHandler
  88 0068 00000000 		.word	I2C0_IRQHandler
  89 006c 00000000 		.word	I2C1_IRQHandler
  90 0070 00000000 		.word	I2C2_IRQHandler
  91 0074 00000000 		.word	SPI_IRQHandler
  92 0078 00000000 		.word	SSP0_IRQHandler
  93 007c 00000000 		.word	SSP1_IRQHandler
  94 0080 00000000 		.word	PLL0_IRQHandler
  95 0084 00000000 		.word	RTC_IRQHandler
  96 0088 00000000 		.word	EINT0_IRQHandler
  97 008c 00000000 		.word	EINT1_IRQHandler
  98 0090 00000000 		.word	EINT2_IRQHandler
  99 0094 00000000 		.word	EINT3_IRQHandler
 100 0098 00000000 		.word	ADC_IRQHandler
 101 009c 00000000 		.word	BOD_IRQHandler
 102 00a0 00000000 		.word	USB_IRQHandler
 103 00a4 00000000 		.word	CAN_IRQHandler
 104 00a8 00000000 		.word	DMA_IRQHandler
 105 00ac 00000000 		.word	I2S_IRQHandler
 106 00b0 00000000 		.word	ENET_IRQHandler
 107 00b4 00000000 		.word	RIT_IRQHandler
 108 00b8 00000000 		.word	MCPWM_IRQHandler
 109 00bc 00000000 		.word	QEI_IRQHandler
 110              		.text
 111              		.align	2
 112              		.weak	NMI_Handler
 113              		.thumb
 114              		.thumb_func
ARM GAS  C:\Users\Akil\AppData\Local\Temp\ccYyRyEf.s 			page 3


 115              		.type	NMI_Handler, %function
 116              	NMI_Handler:
 117              	.LFB0:
 118              		.file 1 "src/vectors_lpc1768.c"
   1:src/vectors_lpc1768.c **** /****************************************************************************
   2:src/vectors_lpc1768.c **** *  Copyright (c) 2011 by Michael Fischer. All rights reserved.
   3:src/vectors_lpc1768.c **** *
   4:src/vectors_lpc1768.c **** *  Redistribution and use in source and binary forms, with or without 
   5:src/vectors_lpc1768.c **** *  modification, are permitted provided that the following conditions 
   6:src/vectors_lpc1768.c **** *  are met:
   7:src/vectors_lpc1768.c **** *  
   8:src/vectors_lpc1768.c **** *  1. Redistributions of source code must retain the above copyright 
   9:src/vectors_lpc1768.c **** *     notice, this list of conditions and the following disclaimer.
  10:src/vectors_lpc1768.c **** *  2. Redistributions in binary form must reproduce the above copyright
  11:src/vectors_lpc1768.c **** *     notice, this list of conditions and the following disclaimer in the 
  12:src/vectors_lpc1768.c **** *     documentation and/or other materials provided with the distribution.
  13:src/vectors_lpc1768.c **** *  3. Neither the name of the author nor the names of its contributors may 
  14:src/vectors_lpc1768.c **** *     be used to endorse or promote products derived from this software 
  15:src/vectors_lpc1768.c **** *     without specific prior written permission.
  16:src/vectors_lpc1768.c **** *
  17:src/vectors_lpc1768.c **** *  THIS SOFTWARE IS PROVIDED BY THE COPYRIGHT HOLDERS AND CONTRIBUTORS 
  18:src/vectors_lpc1768.c **** *  "AS IS" AND ANY EXPRESS OR IMPLIED WARRANTIES, INCLUDING, BUT NOT 
  19:src/vectors_lpc1768.c **** *  LIMITED TO, THE IMPLIED WARRANTIES OF MERCHANTABILITY AND FITNESS 
  20:src/vectors_lpc1768.c **** *  FOR A PARTICULAR PURPOSE ARE DISCLAIMED. IN NO EVENT SHALL 
  21:src/vectors_lpc1768.c **** *  THE COPYRIGHT OWNER OR CONTRIBUTORS BE LIABLE FOR ANY DIRECT, INDIRECT, 
  22:src/vectors_lpc1768.c **** *  INCIDENTAL, SPECIAL, EXEMPLARY, OR CONSEQUENTIAL DAMAGES (INCLUDING, 
  23:src/vectors_lpc1768.c **** *  BUT NOT LIMITED TO, PROCUREMENT OF SUBSTITUTE GOODS OR SERVICES; LOSS 
  24:src/vectors_lpc1768.c **** *  OF USE, DATA, OR PROFITS; OR BUSINESS INTERRUPTION) HOWEVER CAUSED 
  25:src/vectors_lpc1768.c **** *  AND ON ANY THEORY OF LIABILITY, WHETHER IN CONTRACT, STRICT LIABILITY, 
  26:src/vectors_lpc1768.c **** *  OR TORT (INCLUDING NEGLIGENCE OR OTHERWISE) ARISING IN ANY WAY OUT OF 
  27:src/vectors_lpc1768.c **** *  THE USE OF THIS SOFTWARE, EVEN IF ADVISED OF THE POSSIBILITY OF 
  28:src/vectors_lpc1768.c **** *  SUCH DAMAGE.
  29:src/vectors_lpc1768.c **** *
  30:src/vectors_lpc1768.c **** ****************************************************************************
  31:src/vectors_lpc1768.c **** *  History:
  32:src/vectors_lpc1768.c **** *
  33:src/vectors_lpc1768.c **** *  09.04.2011  mifi  First Version for the LPC1768
  34:src/vectors_lpc1768.c **** ****************************************************************************/
  35:src/vectors_lpc1768.c **** #define __VECTORS_LPC1768_C__
  36:src/vectors_lpc1768.c **** 
  37:src/vectors_lpc1768.c **** /*=========================================================================*/
  38:src/vectors_lpc1768.c **** /*  DEFINE: All extern Data                                                */
  39:src/vectors_lpc1768.c **** /*=========================================================================*/
  40:src/vectors_lpc1768.c **** extern unsigned long _estack;
  41:src/vectors_lpc1768.c **** 
  42:src/vectors_lpc1768.c **** /*=========================================================================*/
  43:src/vectors_lpc1768.c **** /*  DEFINE: Prototypes                                                     */
  44:src/vectors_lpc1768.c **** /*=========================================================================*/
  45:src/vectors_lpc1768.c **** void ResetHandler(void);
  46:src/vectors_lpc1768.c **** 
  47:src/vectors_lpc1768.c **** void NMI_Handler (void) __attribute__((weak));
  48:src/vectors_lpc1768.c **** void HardFault_Handler (void) __attribute__((weak));
  49:src/vectors_lpc1768.c **** void MemManage_Handler (void) __attribute__((weak));
  50:src/vectors_lpc1768.c **** void BusFault_Handler (void) __attribute__((weak));
  51:src/vectors_lpc1768.c **** void UsageFault_Handler (void) __attribute__((weak));
  52:src/vectors_lpc1768.c **** void SVC_Handler (void) __attribute__((weak));
  53:src/vectors_lpc1768.c **** void DebugMon_Handler (void) __attribute__((weak));
ARM GAS  C:\Users\Akil\AppData\Local\Temp\ccYyRyEf.s 			page 4


  54:src/vectors_lpc1768.c **** void PendSV_Handler (void) __attribute__((weak));
  55:src/vectors_lpc1768.c **** void SysTick_Handler (void) __attribute__((weak));
  56:src/vectors_lpc1768.c **** 
  57:src/vectors_lpc1768.c **** void WDT_IRQHandler (void) __attribute__((weak));
  58:src/vectors_lpc1768.c **** void TIMER0_IRQHandler (void) __attribute__((weak));
  59:src/vectors_lpc1768.c **** void TIMER1_IRQHandler (void) __attribute__((weak));
  60:src/vectors_lpc1768.c **** void TIMER2_IRQHandler (void) __attribute__((weak));
  61:src/vectors_lpc1768.c **** void TIMER3_IRQHandler (void) __attribute__((weak));
  62:src/vectors_lpc1768.c **** void UART0_IRQHandler (void) __attribute__((weak));
  63:src/vectors_lpc1768.c **** void UART1_IRQHandler (void) __attribute__((weak));
  64:src/vectors_lpc1768.c **** void UART2_IRQHandler (void) __attribute__((weak));
  65:src/vectors_lpc1768.c **** void UART3_IRQHandler (void) __attribute__((weak));
  66:src/vectors_lpc1768.c **** void PWM_IRQHandler (void) __attribute__((weak));
  67:src/vectors_lpc1768.c **** void I2C0_IRQHandler (void) __attribute__((weak));
  68:src/vectors_lpc1768.c **** void I2C1_IRQHandler (void) __attribute__((weak));
  69:src/vectors_lpc1768.c **** void I2C2_IRQHandler (void) __attribute__((weak));
  70:src/vectors_lpc1768.c **** void SPI_IRQHandler (void) __attribute__((weak));
  71:src/vectors_lpc1768.c **** void SSP0_IRQHandler (void) __attribute__((weak));
  72:src/vectors_lpc1768.c **** void SSP1_IRQHandler (void) __attribute__((weak));
  73:src/vectors_lpc1768.c **** void PLL0_IRQHandler (void) __attribute__((weak));
  74:src/vectors_lpc1768.c **** void RTC_IRQHandler (void) __attribute__((weak));
  75:src/vectors_lpc1768.c **** void EINT0_IRQHandler (void) __attribute__((weak));
  76:src/vectors_lpc1768.c **** void EINT1_IRQHandler (void) __attribute__((weak));
  77:src/vectors_lpc1768.c **** void EINT2_IRQHandler (void) __attribute__((weak));
  78:src/vectors_lpc1768.c **** void EINT3_IRQHandler (void) __attribute__((weak));
  79:src/vectors_lpc1768.c **** void ADC_IRQHandler (void) __attribute__((weak));
  80:src/vectors_lpc1768.c **** void BOD_IRQHandler (void) __attribute__((weak));
  81:src/vectors_lpc1768.c **** void USB_IRQHandler (void) __attribute__((weak));
  82:src/vectors_lpc1768.c **** void CAN_IRQHandler (void) __attribute__((weak));
  83:src/vectors_lpc1768.c **** void DMA_IRQHandler (void) __attribute__((weak));
  84:src/vectors_lpc1768.c **** void I2S_IRQHandler (void) __attribute__((weak));
  85:src/vectors_lpc1768.c **** void ENET_IRQHandler (void) __attribute__((weak));
  86:src/vectors_lpc1768.c **** void RIT_IRQHandler (void) __attribute__((weak));
  87:src/vectors_lpc1768.c **** void MCPWM_IRQHandler (void) __attribute__((weak));
  88:src/vectors_lpc1768.c **** void QEI_IRQHandler (void) __attribute__((weak));
  89:src/vectors_lpc1768.c **** 
  90:src/vectors_lpc1768.c **** /*=========================================================================*/
  91:src/vectors_lpc1768.c **** /*  DEFINE: All code exported                                              */
  92:src/vectors_lpc1768.c **** /*=========================================================================*/
  93:src/vectors_lpc1768.c **** /*
  94:src/vectors_lpc1768.c ****  * This is our vector table.
  95:src/vectors_lpc1768.c ****  */
  96:src/vectors_lpc1768.c **** __attribute__ ((section(".vectors"), used))
  97:src/vectors_lpc1768.c **** void (* const gVectors[])(void) = 
  98:src/vectors_lpc1768.c **** {
  99:src/vectors_lpc1768.c ****    (void (*)(void))((unsigned long)&_estack),
 100:src/vectors_lpc1768.c ****    ResetHandler,
 101:src/vectors_lpc1768.c ****    NMI_Handler,
 102:src/vectors_lpc1768.c ****    HardFault_Handler,
 103:src/vectors_lpc1768.c ****    MemManage_Handler,
 104:src/vectors_lpc1768.c ****    BusFault_Handler,
 105:src/vectors_lpc1768.c ****    UsageFault_Handler,
 106:src/vectors_lpc1768.c ****    0, 0, 0, 0,
 107:src/vectors_lpc1768.c ****    SVC_Handler,
 108:src/vectors_lpc1768.c ****    DebugMon_Handler,
 109:src/vectors_lpc1768.c ****    0,
 110:src/vectors_lpc1768.c ****    PendSV_Handler,
ARM GAS  C:\Users\Akil\AppData\Local\Temp\ccYyRyEf.s 			page 5


 111:src/vectors_lpc1768.c ****    SysTick_Handler,
 112:src/vectors_lpc1768.c ****    
 113:src/vectors_lpc1768.c ****    WDT_IRQHandler,
 114:src/vectors_lpc1768.c ****    TIMER0_IRQHandler,
 115:src/vectors_lpc1768.c ****    TIMER1_IRQHandler,
 116:src/vectors_lpc1768.c ****    TIMER2_IRQHandler,
 117:src/vectors_lpc1768.c ****    TIMER3_IRQHandler,
 118:src/vectors_lpc1768.c ****    UART0_IRQHandler,
 119:src/vectors_lpc1768.c ****    UART1_IRQHandler,
 120:src/vectors_lpc1768.c ****    UART2_IRQHandler,
 121:src/vectors_lpc1768.c ****    UART3_IRQHandler,
 122:src/vectors_lpc1768.c ****    PWM_IRQHandler,
 123:src/vectors_lpc1768.c ****    I2C0_IRQHandler,
 124:src/vectors_lpc1768.c ****    I2C1_IRQHandler,
 125:src/vectors_lpc1768.c ****    I2C2_IRQHandler,
 126:src/vectors_lpc1768.c ****    SPI_IRQHandler,
 127:src/vectors_lpc1768.c ****    SSP0_IRQHandler,
 128:src/vectors_lpc1768.c ****    SSP1_IRQHandler,
 129:src/vectors_lpc1768.c ****    PLL0_IRQHandler,
 130:src/vectors_lpc1768.c ****    RTC_IRQHandler,
 131:src/vectors_lpc1768.c ****    EINT0_IRQHandler,
 132:src/vectors_lpc1768.c ****    EINT1_IRQHandler,
 133:src/vectors_lpc1768.c ****    EINT2_IRQHandler,
 134:src/vectors_lpc1768.c ****    EINT3_IRQHandler,
 135:src/vectors_lpc1768.c ****    ADC_IRQHandler,
 136:src/vectors_lpc1768.c ****    BOD_IRQHandler,
 137:src/vectors_lpc1768.c ****    USB_IRQHandler,
 138:src/vectors_lpc1768.c ****    CAN_IRQHandler,
 139:src/vectors_lpc1768.c ****    DMA_IRQHandler,
 140:src/vectors_lpc1768.c ****    I2S_IRQHandler,
 141:src/vectors_lpc1768.c ****    ENET_IRQHandler,
 142:src/vectors_lpc1768.c ****    RIT_IRQHandler,
 143:src/vectors_lpc1768.c ****    MCPWM_IRQHandler,
 144:src/vectors_lpc1768.c ****    QEI_IRQHandler
 145:src/vectors_lpc1768.c **** }; /* gVectors */
 146:src/vectors_lpc1768.c **** 
 147:src/vectors_lpc1768.c **** /*
 148:src/vectors_lpc1768.c ****  * And here are the weak interrupt handlers.
 149:src/vectors_lpc1768.c ****  */
 150:src/vectors_lpc1768.c **** void NMI_Handler (void) { while(1); }
 119              		.loc 1 150 0
 120              		.cfi_startproc
 121              		@ args = 0, pretend = 0, frame = 0
 122              		@ frame_needed = 0, uses_anonymous_args = 0
 123              		@ link register save eliminated.
 124              	.L2:
 125              		.loc 1 150 0 discriminator 1
 126 0000 FEE7     		b	.L2	@
 127              		.cfi_endproc
 128              	.LFE0:
 129              		.size	NMI_Handler, .-NMI_Handler
 130 0002 00BF     		.align	2
 131              		.weak	HardFault_Handler
 132              		.thumb
 133              		.thumb_func
 134              		.type	HardFault_Handler, %function
 135              	HardFault_Handler:
ARM GAS  C:\Users\Akil\AppData\Local\Temp\ccYyRyEf.s 			page 6


 136              	.LFB1:
 151:src/vectors_lpc1768.c **** void HardFault_Handler (void) { while(1); }
 137              		.loc 1 151 0
 138              		.cfi_startproc
 139              		@ args = 0, pretend = 0, frame = 0
 140              		@ frame_needed = 0, uses_anonymous_args = 0
 141              		@ link register save eliminated.
 142              	.L4:
 143              		.loc 1 151 0 discriminator 1
 144 0004 FEE7     		b	.L4	@
 145              		.cfi_endproc
 146              	.LFE1:
 147              		.size	HardFault_Handler, .-HardFault_Handler
 148 0006 00BF     		.align	2
 149              		.weak	MemManage_Handler
 150              		.thumb
 151              		.thumb_func
 152              		.type	MemManage_Handler, %function
 153              	MemManage_Handler:
 154              	.LFB2:
 152:src/vectors_lpc1768.c **** void MemManage_Handler (void) { while(1); }
 155              		.loc 1 152 0
 156              		.cfi_startproc
 157              		@ args = 0, pretend = 0, frame = 0
 158              		@ frame_needed = 0, uses_anonymous_args = 0
 159              		@ link register save eliminated.
 160              	.L6:
 161              		.loc 1 152 0 discriminator 1
 162 0008 FEE7     		b	.L6	@
 163              		.cfi_endproc
 164              	.LFE2:
 165              		.size	MemManage_Handler, .-MemManage_Handler
 166 000a 00BF     		.align	2
 167              		.weak	BusFault_Handler
 168              		.thumb
 169              		.thumb_func
 170              		.type	BusFault_Handler, %function
 171              	BusFault_Handler:
 172              	.LFB3:
 153:src/vectors_lpc1768.c **** void BusFault_Handler (void) { while(1); }
 173              		.loc 1 153 0
 174              		.cfi_startproc
 175              		@ args = 0, pretend = 0, frame = 0
 176              		@ frame_needed = 0, uses_anonymous_args = 0
 177              		@ link register save eliminated.
 178              	.L8:
 179              		.loc 1 153 0 discriminator 1
 180 000c FEE7     		b	.L8	@
 181              		.cfi_endproc
 182              	.LFE3:
 183              		.size	BusFault_Handler, .-BusFault_Handler
 184 000e 00BF     		.align	2
 185              		.weak	UsageFault_Handler
 186              		.thumb
 187              		.thumb_func
 188              		.type	UsageFault_Handler, %function
 189              	UsageFault_Handler:
ARM GAS  C:\Users\Akil\AppData\Local\Temp\ccYyRyEf.s 			page 7


 190              	.LFB4:
 154:src/vectors_lpc1768.c **** void UsageFault_Handler (void) { while(1); }
 191              		.loc 1 154 0
 192              		.cfi_startproc
 193              		@ args = 0, pretend = 0, frame = 0
 194              		@ frame_needed = 0, uses_anonymous_args = 0
 195              		@ link register save eliminated.
 196              	.L10:
 197              		.loc 1 154 0 discriminator 1
 198 0010 FEE7     		b	.L10	@
 199              		.cfi_endproc
 200              	.LFE4:
 201              		.size	UsageFault_Handler, .-UsageFault_Handler
 202 0012 00BF     		.align	2
 203              		.weak	SVC_Handler
 204              		.thumb
 205              		.thumb_func
 206              		.type	SVC_Handler, %function
 207              	SVC_Handler:
 208              	.LFB5:
 155:src/vectors_lpc1768.c **** void SVC_Handler (void) { while(1); }
 209              		.loc 1 155 0
 210              		.cfi_startproc
 211              		@ args = 0, pretend = 0, frame = 0
 212              		@ frame_needed = 0, uses_anonymous_args = 0
 213              		@ link register save eliminated.
 214              	.L12:
 215              		.loc 1 155 0 discriminator 1
 216 0014 FEE7     		b	.L12	@
 217              		.cfi_endproc
 218              	.LFE5:
 219              		.size	SVC_Handler, .-SVC_Handler
 220 0016 00BF     		.align	2
 221              		.weak	DebugMon_Handler
 222              		.thumb
 223              		.thumb_func
 224              		.type	DebugMon_Handler, %function
 225              	DebugMon_Handler:
 226              	.LFB6:
 156:src/vectors_lpc1768.c **** void DebugMon_Handler (void) { while(1); }
 227              		.loc 1 156 0
 228              		.cfi_startproc
 229              		@ args = 0, pretend = 0, frame = 0
 230              		@ frame_needed = 0, uses_anonymous_args = 0
 231              		@ link register save eliminated.
 232              	.L14:
 233              		.loc 1 156 0 discriminator 1
 234 0018 FEE7     		b	.L14	@
 235              		.cfi_endproc
 236              	.LFE6:
 237              		.size	DebugMon_Handler, .-DebugMon_Handler
 238 001a 00BF     		.align	2
 239              		.weak	PendSV_Handler
 240              		.thumb
 241              		.thumb_func
 242              		.type	PendSV_Handler, %function
 243              	PendSV_Handler:
ARM GAS  C:\Users\Akil\AppData\Local\Temp\ccYyRyEf.s 			page 8


 244              	.LFB7:
 157:src/vectors_lpc1768.c **** void PendSV_Handler (void) { while(1); }
 245              		.loc 1 157 0
 246              		.cfi_startproc
 247              		@ args = 0, pretend = 0, frame = 0
 248              		@ frame_needed = 0, uses_anonymous_args = 0
 249              		@ link register save eliminated.
 250              	.L16:
 251              		.loc 1 157 0 discriminator 1
 252 001c FEE7     		b	.L16	@
 253              		.cfi_endproc
 254              	.LFE7:
 255              		.size	PendSV_Handler, .-PendSV_Handler
 256 001e 00BF     		.align	2
 257              		.weak	SysTick_Handler
 258              		.thumb
 259              		.thumb_func
 260              		.type	SysTick_Handler, %function
 261              	SysTick_Handler:
 262              	.LFB8:
 158:src/vectors_lpc1768.c **** void SysTick_Handler (void) { while(1); }
 263              		.loc 1 158 0
 264              		.cfi_startproc
 265              		@ args = 0, pretend = 0, frame = 0
 266              		@ frame_needed = 0, uses_anonymous_args = 0
 267              		@ link register save eliminated.
 268              	.L18:
 269              		.loc 1 158 0 discriminator 1
 270 0020 FEE7     		b	.L18	@
 271              		.cfi_endproc
 272              	.LFE8:
 273              		.size	SysTick_Handler, .-SysTick_Handler
 274 0022 00BF     		.align	2
 275              		.weak	WDT_IRQHandler
 276              		.thumb
 277              		.thumb_func
 278              		.type	WDT_IRQHandler, %function
 279              	WDT_IRQHandler:
 280              	.LFB9:
 159:src/vectors_lpc1768.c **** 
 160:src/vectors_lpc1768.c **** void WDT_IRQHandler (void) { while(1); }
 281              		.loc 1 160 0
 282              		.cfi_startproc
 283              		@ args = 0, pretend = 0, frame = 0
 284              		@ frame_needed = 0, uses_anonymous_args = 0
 285              		@ link register save eliminated.
 286              	.L20:
 287              		.loc 1 160 0 discriminator 1
 288 0024 FEE7     		b	.L20	@
 289              		.cfi_endproc
 290              	.LFE9:
 291              		.size	WDT_IRQHandler, .-WDT_IRQHandler
 292 0026 00BF     		.align	2
 293              		.weak	TIMER0_IRQHandler
 294              		.thumb
 295              		.thumb_func
 296              		.type	TIMER0_IRQHandler, %function
ARM GAS  C:\Users\Akil\AppData\Local\Temp\ccYyRyEf.s 			page 9


 297              	TIMER0_IRQHandler:
 298              	.LFB10:
 161:src/vectors_lpc1768.c **** void TIMER0_IRQHandler (void) { while(1); }
 299              		.loc 1 161 0
 300              		.cfi_startproc
 301              		@ args = 0, pretend = 0, frame = 0
 302              		@ frame_needed = 0, uses_anonymous_args = 0
 303              		@ link register save eliminated.
 304              	.L22:
 305              		.loc 1 161 0 discriminator 1
 306 0028 FEE7     		b	.L22	@
 307              		.cfi_endproc
 308              	.LFE10:
 309              		.size	TIMER0_IRQHandler, .-TIMER0_IRQHandler
 310 002a 00BF     		.align	2
 311              		.weak	TIMER1_IRQHandler
 312              		.thumb
 313              		.thumb_func
 314              		.type	TIMER1_IRQHandler, %function
 315              	TIMER1_IRQHandler:
 316              	.LFB11:
 162:src/vectors_lpc1768.c **** void TIMER1_IRQHandler (void) { while(1); }
 317              		.loc 1 162 0
 318              		.cfi_startproc
 319              		@ args = 0, pretend = 0, frame = 0
 320              		@ frame_needed = 0, uses_anonymous_args = 0
 321              		@ link register save eliminated.
 322              	.L24:
 323              		.loc 1 162 0 discriminator 1
 324 002c FEE7     		b	.L24	@
 325              		.cfi_endproc
 326              	.LFE11:
 327              		.size	TIMER1_IRQHandler, .-TIMER1_IRQHandler
 328 002e 00BF     		.align	2
 329              		.weak	TIMER2_IRQHandler
 330              		.thumb
 331              		.thumb_func
 332              		.type	TIMER2_IRQHandler, %function
 333              	TIMER2_IRQHandler:
 334              	.LFB12:
 163:src/vectors_lpc1768.c **** void TIMER2_IRQHandler (void) { while(1); }
 335              		.loc 1 163 0
 336              		.cfi_startproc
 337              		@ args = 0, pretend = 0, frame = 0
 338              		@ frame_needed = 0, uses_anonymous_args = 0
 339              		@ link register save eliminated.
 340              	.L26:
 341              		.loc 1 163 0 discriminator 1
 342 0030 FEE7     		b	.L26	@
 343              		.cfi_endproc
 344              	.LFE12:
 345              		.size	TIMER2_IRQHandler, .-TIMER2_IRQHandler
 346 0032 00BF     		.align	2
 347              		.weak	TIMER3_IRQHandler
 348              		.thumb
 349              		.thumb_func
 350              		.type	TIMER3_IRQHandler, %function
ARM GAS  C:\Users\Akil\AppData\Local\Temp\ccYyRyEf.s 			page 10


 351              	TIMER3_IRQHandler:
 352              	.LFB13:
 164:src/vectors_lpc1768.c **** void TIMER3_IRQHandler (void) { while(1); }
 353              		.loc 1 164 0
 354              		.cfi_startproc
 355              		@ args = 0, pretend = 0, frame = 0
 356              		@ frame_needed = 0, uses_anonymous_args = 0
 357              		@ link register save eliminated.
 358              	.L28:
 359              		.loc 1 164 0 discriminator 1
 360 0034 FEE7     		b	.L28	@
 361              		.cfi_endproc
 362              	.LFE13:
 363              		.size	TIMER3_IRQHandler, .-TIMER3_IRQHandler
 364 0036 00BF     		.align	2
 365              		.weak	UART0_IRQHandler
 366              		.thumb
 367              		.thumb_func
 368              		.type	UART0_IRQHandler, %function
 369              	UART0_IRQHandler:
 370              	.LFB14:
 165:src/vectors_lpc1768.c **** void UART0_IRQHandler (void) { while(1); }
 371              		.loc 1 165 0
 372              		.cfi_startproc
 373              		@ args = 0, pretend = 0, frame = 0
 374              		@ frame_needed = 0, uses_anonymous_args = 0
 375              		@ link register save eliminated.
 376              	.L30:
 377              		.loc 1 165 0 discriminator 1
 378 0038 FEE7     		b	.L30	@
 379              		.cfi_endproc
 380              	.LFE14:
 381              		.size	UART0_IRQHandler, .-UART0_IRQHandler
 382 003a 00BF     		.align	2
 383              		.weak	UART1_IRQHandler
 384              		.thumb
 385              		.thumb_func
 386              		.type	UART1_IRQHandler, %function
 387              	UART1_IRQHandler:
 388              	.LFB15:
 166:src/vectors_lpc1768.c **** void UART1_IRQHandler (void) { while(1); }
 389              		.loc 1 166 0
 390              		.cfi_startproc
 391              		@ args = 0, pretend = 0, frame = 0
 392              		@ frame_needed = 0, uses_anonymous_args = 0
 393              		@ link register save eliminated.
 394              	.L32:
 395              		.loc 1 166 0 discriminator 1
 396 003c FEE7     		b	.L32	@
 397              		.cfi_endproc
 398              	.LFE15:
 399              		.size	UART1_IRQHandler, .-UART1_IRQHandler
 400 003e 00BF     		.align	2
 401              		.weak	UART2_IRQHandler
 402              		.thumb
 403              		.thumb_func
 404              		.type	UART2_IRQHandler, %function
ARM GAS  C:\Users\Akil\AppData\Local\Temp\ccYyRyEf.s 			page 11


 405              	UART2_IRQHandler:
 406              	.LFB16:
 167:src/vectors_lpc1768.c **** void UART2_IRQHandler (void) { while(1); }
 407              		.loc 1 167 0
 408              		.cfi_startproc
 409              		@ args = 0, pretend = 0, frame = 0
 410              		@ frame_needed = 0, uses_anonymous_args = 0
 411              		@ link register save eliminated.
 412              	.L34:
 413              		.loc 1 167 0 discriminator 1
 414 0040 FEE7     		b	.L34	@
 415              		.cfi_endproc
 416              	.LFE16:
 417              		.size	UART2_IRQHandler, .-UART2_IRQHandler
 418 0042 00BF     		.align	2
 419              		.weak	UART3_IRQHandler
 420              		.thumb
 421              		.thumb_func
 422              		.type	UART3_IRQHandler, %function
 423              	UART3_IRQHandler:
 424              	.LFB17:
 168:src/vectors_lpc1768.c **** void UART3_IRQHandler (void) { while(1); }
 425              		.loc 1 168 0
 426              		.cfi_startproc
 427              		@ args = 0, pretend = 0, frame = 0
 428              		@ frame_needed = 0, uses_anonymous_args = 0
 429              		@ link register save eliminated.
 430              	.L36:
 431              		.loc 1 168 0 discriminator 1
 432 0044 FEE7     		b	.L36	@
 433              		.cfi_endproc
 434              	.LFE17:
 435              		.size	UART3_IRQHandler, .-UART3_IRQHandler
 436 0046 00BF     		.align	2
 437              		.weak	PWM_IRQHandler
 438              		.thumb
 439              		.thumb_func
 440              		.type	PWM_IRQHandler, %function
 441              	PWM_IRQHandler:
 442              	.LFB18:
 169:src/vectors_lpc1768.c **** void PWM_IRQHandler (void) { while(1); }
 443              		.loc 1 169 0
 444              		.cfi_startproc
 445              		@ args = 0, pretend = 0, frame = 0
 446              		@ frame_needed = 0, uses_anonymous_args = 0
 447              		@ link register save eliminated.
 448              	.L38:
 449              		.loc 1 169 0 discriminator 1
 450 0048 FEE7     		b	.L38	@
 451              		.cfi_endproc
 452              	.LFE18:
 453              		.size	PWM_IRQHandler, .-PWM_IRQHandler
 454 004a 00BF     		.align	2
 455              		.weak	I2C0_IRQHandler
 456              		.thumb
 457              		.thumb_func
 458              		.type	I2C0_IRQHandler, %function
ARM GAS  C:\Users\Akil\AppData\Local\Temp\ccYyRyEf.s 			page 12


 459              	I2C0_IRQHandler:
 460              	.LFB19:
 170:src/vectors_lpc1768.c **** void I2C0_IRQHandler (void) { while(1); }
 461              		.loc 1 170 0
 462              		.cfi_startproc
 463              		@ args = 0, pretend = 0, frame = 0
 464              		@ frame_needed = 0, uses_anonymous_args = 0
 465              		@ link register save eliminated.
 466              	.L40:
 467              		.loc 1 170 0 discriminator 1
 468 004c FEE7     		b	.L40	@
 469              		.cfi_endproc
 470              	.LFE19:
 471              		.size	I2C0_IRQHandler, .-I2C0_IRQHandler
 472 004e 00BF     		.align	2
 473              		.weak	I2C1_IRQHandler
 474              		.thumb
 475              		.thumb_func
 476              		.type	I2C1_IRQHandler, %function
 477              	I2C1_IRQHandler:
 478              	.LFB20:
 171:src/vectors_lpc1768.c **** void I2C1_IRQHandler (void) { while(1); }
 479              		.loc 1 171 0
 480              		.cfi_startproc
 481              		@ args = 0, pretend = 0, frame = 0
 482              		@ frame_needed = 0, uses_anonymous_args = 0
 483              		@ link register save eliminated.
 484              	.L42:
 485              		.loc 1 171 0 discriminator 1
 486 0050 FEE7     		b	.L42	@
 487              		.cfi_endproc
 488              	.LFE20:
 489              		.size	I2C1_IRQHandler, .-I2C1_IRQHandler
 490 0052 00BF     		.align	2
 491              		.weak	I2C2_IRQHandler
 492              		.thumb
 493              		.thumb_func
 494              		.type	I2C2_IRQHandler, %function
 495              	I2C2_IRQHandler:
 496              	.LFB21:
 172:src/vectors_lpc1768.c **** void I2C2_IRQHandler (void) { while(1); }
 497              		.loc 1 172 0
 498              		.cfi_startproc
 499              		@ args = 0, pretend = 0, frame = 0
 500              		@ frame_needed = 0, uses_anonymous_args = 0
 501              		@ link register save eliminated.
 502              	.L44:
 503              		.loc 1 172 0 discriminator 1
 504 0054 FEE7     		b	.L44	@
 505              		.cfi_endproc
 506              	.LFE21:
 507              		.size	I2C2_IRQHandler, .-I2C2_IRQHandler
 508 0056 00BF     		.align	2
 509              		.weak	SPI_IRQHandler
 510              		.thumb
 511              		.thumb_func
 512              		.type	SPI_IRQHandler, %function
ARM GAS  C:\Users\Akil\AppData\Local\Temp\ccYyRyEf.s 			page 13


 513              	SPI_IRQHandler:
 514              	.LFB22:
 173:src/vectors_lpc1768.c **** void SPI_IRQHandler (void) { while(1); }
 515              		.loc 1 173 0
 516              		.cfi_startproc
 517              		@ args = 0, pretend = 0, frame = 0
 518              		@ frame_needed = 0, uses_anonymous_args = 0
 519              		@ link register save eliminated.
 520              	.L46:
 521              		.loc 1 173 0 discriminator 1
 522 0058 FEE7     		b	.L46	@
 523              		.cfi_endproc
 524              	.LFE22:
 525              		.size	SPI_IRQHandler, .-SPI_IRQHandler
 526 005a 00BF     		.align	2
 527              		.weak	SSP0_IRQHandler
 528              		.thumb
 529              		.thumb_func
 530              		.type	SSP0_IRQHandler, %function
 531              	SSP0_IRQHandler:
 532              	.LFB23:
 174:src/vectors_lpc1768.c **** void SSP0_IRQHandler (void) { while(1); }
 533              		.loc 1 174 0
 534              		.cfi_startproc
 535              		@ args = 0, pretend = 0, frame = 0
 536              		@ frame_needed = 0, uses_anonymous_args = 0
 537              		@ link register save eliminated.
 538              	.L48:
 539              		.loc 1 174 0 discriminator 1
 540 005c FEE7     		b	.L48	@
 541              		.cfi_endproc
 542              	.LFE23:
 543              		.size	SSP0_IRQHandler, .-SSP0_IRQHandler
 544 005e 00BF     		.align	2
 545              		.weak	SSP1_IRQHandler
 546              		.thumb
 547              		.thumb_func
 548              		.type	SSP1_IRQHandler, %function
 549              	SSP1_IRQHandler:
 550              	.LFB24:
 175:src/vectors_lpc1768.c **** void SSP1_IRQHandler (void) { while(1); }
 551              		.loc 1 175 0
 552              		.cfi_startproc
 553              		@ args = 0, pretend = 0, frame = 0
 554              		@ frame_needed = 0, uses_anonymous_args = 0
 555              		@ link register save eliminated.
 556              	.L50:
 557              		.loc 1 175 0 discriminator 1
 558 0060 FEE7     		b	.L50	@
 559              		.cfi_endproc
 560              	.LFE24:
 561              		.size	SSP1_IRQHandler, .-SSP1_IRQHandler
 562 0062 00BF     		.align	2
 563              		.weak	PLL0_IRQHandler
 564              		.thumb
 565              		.thumb_func
 566              		.type	PLL0_IRQHandler, %function
ARM GAS  C:\Users\Akil\AppData\Local\Temp\ccYyRyEf.s 			page 14


 567              	PLL0_IRQHandler:
 568              	.LFB25:
 176:src/vectors_lpc1768.c **** void PLL0_IRQHandler (void) { while(1); }
 569              		.loc 1 176 0
 570              		.cfi_startproc
 571              		@ args = 0, pretend = 0, frame = 0
 572              		@ frame_needed = 0, uses_anonymous_args = 0
 573              		@ link register save eliminated.
 574              	.L52:
 575              		.loc 1 176 0 discriminator 1
 576 0064 FEE7     		b	.L52	@
 577              		.cfi_endproc
 578              	.LFE25:
 579              		.size	PLL0_IRQHandler, .-PLL0_IRQHandler
 580 0066 00BF     		.align	2
 581              		.weak	RTC_IRQHandler
 582              		.thumb
 583              		.thumb_func
 584              		.type	RTC_IRQHandler, %function
 585              	RTC_IRQHandler:
 586              	.LFB26:
 177:src/vectors_lpc1768.c **** void RTC_IRQHandler (void) { while(1); }
 587              		.loc 1 177 0
 588              		.cfi_startproc
 589              		@ args = 0, pretend = 0, frame = 0
 590              		@ frame_needed = 0, uses_anonymous_args = 0
 591              		@ link register save eliminated.
 592              	.L54:
 593              		.loc 1 177 0 discriminator 1
 594 0068 FEE7     		b	.L54	@
 595              		.cfi_endproc
 596              	.LFE26:
 597              		.size	RTC_IRQHandler, .-RTC_IRQHandler
 598 006a 00BF     		.align	2
 599              		.weak	EINT0_IRQHandler
 600              		.thumb
 601              		.thumb_func
 602              		.type	EINT0_IRQHandler, %function
 603              	EINT0_IRQHandler:
 604              	.LFB27:
 178:src/vectors_lpc1768.c **** void EINT0_IRQHandler (void) { while(1); }
 605              		.loc 1 178 0
 606              		.cfi_startproc
 607              		@ args = 0, pretend = 0, frame = 0
 608              		@ frame_needed = 0, uses_anonymous_args = 0
 609              		@ link register save eliminated.
 610              	.L56:
 611              		.loc 1 178 0 discriminator 1
 612 006c FEE7     		b	.L56	@
 613              		.cfi_endproc
 614              	.LFE27:
 615              		.size	EINT0_IRQHandler, .-EINT0_IRQHandler
 616 006e 00BF     		.align	2
 617              		.weak	EINT1_IRQHandler
 618              		.thumb
 619              		.thumb_func
 620              		.type	EINT1_IRQHandler, %function
ARM GAS  C:\Users\Akil\AppData\Local\Temp\ccYyRyEf.s 			page 15


 621              	EINT1_IRQHandler:
 622              	.LFB28:
 179:src/vectors_lpc1768.c **** void EINT1_IRQHandler (void) { while(1); }
 623              		.loc 1 179 0
 624              		.cfi_startproc
 625              		@ args = 0, pretend = 0, frame = 0
 626              		@ frame_needed = 0, uses_anonymous_args = 0
 627              		@ link register save eliminated.
 628              	.L58:
 629              		.loc 1 179 0 discriminator 1
 630 0070 FEE7     		b	.L58	@
 631              		.cfi_endproc
 632              	.LFE28:
 633              		.size	EINT1_IRQHandler, .-EINT1_IRQHandler
 634 0072 00BF     		.align	2
 635              		.weak	EINT2_IRQHandler
 636              		.thumb
 637              		.thumb_func
 638              		.type	EINT2_IRQHandler, %function
 639              	EINT2_IRQHandler:
 640              	.LFB29:
 180:src/vectors_lpc1768.c **** void EINT2_IRQHandler (void) { while(1); }
 641              		.loc 1 180 0
 642              		.cfi_startproc
 643              		@ args = 0, pretend = 0, frame = 0
 644              		@ frame_needed = 0, uses_anonymous_args = 0
 645              		@ link register save eliminated.
 646              	.L60:
 647              		.loc 1 180 0 discriminator 1
 648 0074 FEE7     		b	.L60	@
 649              		.cfi_endproc
 650              	.LFE29:
 651              		.size	EINT2_IRQHandler, .-EINT2_IRQHandler
 652 0076 00BF     		.align	2
 653              		.weak	EINT3_IRQHandler
 654              		.thumb
 655              		.thumb_func
 656              		.type	EINT3_IRQHandler, %function
 657              	EINT3_IRQHandler:
 658              	.LFB30:
 181:src/vectors_lpc1768.c **** void EINT3_IRQHandler (void) { while(1); }
 659              		.loc 1 181 0
 660              		.cfi_startproc
 661              		@ args = 0, pretend = 0, frame = 0
 662              		@ frame_needed = 0, uses_anonymous_args = 0
 663              		@ link register save eliminated.
 664              	.L62:
 665              		.loc 1 181 0 discriminator 1
 666 0078 FEE7     		b	.L62	@
 667              		.cfi_endproc
 668              	.LFE30:
 669              		.size	EINT3_IRQHandler, .-EINT3_IRQHandler
 670 007a 00BF     		.align	2
 671              		.weak	ADC_IRQHandler
 672              		.thumb
 673              		.thumb_func
 674              		.type	ADC_IRQHandler, %function
ARM GAS  C:\Users\Akil\AppData\Local\Temp\ccYyRyEf.s 			page 16


 675              	ADC_IRQHandler:
 676              	.LFB31:
 182:src/vectors_lpc1768.c **** void ADC_IRQHandler (void) { while(1); }
 677              		.loc 1 182 0
 678              		.cfi_startproc
 679              		@ args = 0, pretend = 0, frame = 0
 680              		@ frame_needed = 0, uses_anonymous_args = 0
 681              		@ link register save eliminated.
 682              	.L64:
 683              		.loc 1 182 0 discriminator 1
 684 007c FEE7     		b	.L64	@
 685              		.cfi_endproc
 686              	.LFE31:
 687              		.size	ADC_IRQHandler, .-ADC_IRQHandler
 688 007e 00BF     		.align	2
 689              		.weak	BOD_IRQHandler
 690              		.thumb
 691              		.thumb_func
 692              		.type	BOD_IRQHandler, %function
 693              	BOD_IRQHandler:
 694              	.LFB32:
 183:src/vectors_lpc1768.c **** void BOD_IRQHandler (void) { while(1); }
 695              		.loc 1 183 0
 696              		.cfi_startproc
 697              		@ args = 0, pretend = 0, frame = 0
 698              		@ frame_needed = 0, uses_anonymous_args = 0
 699              		@ link register save eliminated.
 700              	.L66:
 701              		.loc 1 183 0 discriminator 1
 702 0080 FEE7     		b	.L66	@
 703              		.cfi_endproc
 704              	.LFE32:
 705              		.size	BOD_IRQHandler, .-BOD_IRQHandler
 706 0082 00BF     		.align	2
 707              		.weak	USB_IRQHandler
 708              		.thumb
 709              		.thumb_func
 710              		.type	USB_IRQHandler, %function
 711              	USB_IRQHandler:
 712              	.LFB33:
 184:src/vectors_lpc1768.c **** void USB_IRQHandler (void) { while(1); }
 713              		.loc 1 184 0
 714              		.cfi_startproc
 715              		@ args = 0, pretend = 0, frame = 0
 716              		@ frame_needed = 0, uses_anonymous_args = 0
 717              		@ link register save eliminated.
 718              	.L68:
 719              		.loc 1 184 0 discriminator 1
 720 0084 FEE7     		b	.L68	@
 721              		.cfi_endproc
 722              	.LFE33:
 723              		.size	USB_IRQHandler, .-USB_IRQHandler
 724 0086 00BF     		.align	2
 725              		.weak	CAN_IRQHandler
 726              		.thumb
 727              		.thumb_func
 728              		.type	CAN_IRQHandler, %function
ARM GAS  C:\Users\Akil\AppData\Local\Temp\ccYyRyEf.s 			page 17


 729              	CAN_IRQHandler:
 730              	.LFB34:
 185:src/vectors_lpc1768.c **** void CAN_IRQHandler (void) { while(1); }
 731              		.loc 1 185 0
 732              		.cfi_startproc
 733              		@ args = 0, pretend = 0, frame = 0
 734              		@ frame_needed = 0, uses_anonymous_args = 0
 735              		@ link register save eliminated.
 736              	.L70:
 737              		.loc 1 185 0 discriminator 1
 738 0088 FEE7     		b	.L70	@
 739              		.cfi_endproc
 740              	.LFE34:
 741              		.size	CAN_IRQHandler, .-CAN_IRQHandler
 742 008a 00BF     		.align	2
 743              		.weak	DMA_IRQHandler
 744              		.thumb
 745              		.thumb_func
 746              		.type	DMA_IRQHandler, %function
 747              	DMA_IRQHandler:
 748              	.LFB35:
 186:src/vectors_lpc1768.c **** void DMA_IRQHandler (void) { while(1); }
 749              		.loc 1 186 0
 750              		.cfi_startproc
 751              		@ args = 0, pretend = 0, frame = 0
 752              		@ frame_needed = 0, uses_anonymous_args = 0
 753              		@ link register save eliminated.
 754              	.L72:
 755              		.loc 1 186 0 discriminator 1
 756 008c FEE7     		b	.L72	@
 757              		.cfi_endproc
 758              	.LFE35:
 759              		.size	DMA_IRQHandler, .-DMA_IRQHandler
 760 008e 00BF     		.align	2
 761              		.weak	I2S_IRQHandler
 762              		.thumb
 763              		.thumb_func
 764              		.type	I2S_IRQHandler, %function
 765              	I2S_IRQHandler:
 766              	.LFB36:
 187:src/vectors_lpc1768.c **** void I2S_IRQHandler (void) { while(1); }
 767              		.loc 1 187 0
 768              		.cfi_startproc
 769              		@ args = 0, pretend = 0, frame = 0
 770              		@ frame_needed = 0, uses_anonymous_args = 0
 771              		@ link register save eliminated.
 772              	.L74:
 773              		.loc 1 187 0 discriminator 1
 774 0090 FEE7     		b	.L74	@
 775              		.cfi_endproc
 776              	.LFE36:
 777              		.size	I2S_IRQHandler, .-I2S_IRQHandler
 778 0092 00BF     		.align	2
 779              		.weak	ENET_IRQHandler
 780              		.thumb
 781              		.thumb_func
 782              		.type	ENET_IRQHandler, %function
ARM GAS  C:\Users\Akil\AppData\Local\Temp\ccYyRyEf.s 			page 18


 783              	ENET_IRQHandler:
 784              	.LFB37:
 188:src/vectors_lpc1768.c **** void ENET_IRQHandler (void) { while(1); }
 785              		.loc 1 188 0
 786              		.cfi_startproc
 787              		@ args = 0, pretend = 0, frame = 0
 788              		@ frame_needed = 0, uses_anonymous_args = 0
 789              		@ link register save eliminated.
 790              	.L76:
 791              		.loc 1 188 0 discriminator 1
 792 0094 FEE7     		b	.L76	@
 793              		.cfi_endproc
 794              	.LFE37:
 795              		.size	ENET_IRQHandler, .-ENET_IRQHandler
 796 0096 00BF     		.align	2
 797              		.weak	RIT_IRQHandler
 798              		.thumb
 799              		.thumb_func
 800              		.type	RIT_IRQHandler, %function
 801              	RIT_IRQHandler:
 802              	.LFB38:
 189:src/vectors_lpc1768.c **** void RIT_IRQHandler (void) { while(1); }
 803              		.loc 1 189 0
 804              		.cfi_startproc
 805              		@ args = 0, pretend = 0, frame = 0
 806              		@ frame_needed = 0, uses_anonymous_args = 0
 807              		@ link register save eliminated.
 808              	.L78:
 809              		.loc 1 189 0 discriminator 1
 810 0098 FEE7     		b	.L78	@
 811              		.cfi_endproc
 812              	.LFE38:
 813              		.size	RIT_IRQHandler, .-RIT_IRQHandler
 814 009a 00BF     		.align	2
 815              		.weak	MCPWM_IRQHandler
 816              		.thumb
 817              		.thumb_func
 818              		.type	MCPWM_IRQHandler, %function
 819              	MCPWM_IRQHandler:
 820              	.LFB39:
 190:src/vectors_lpc1768.c **** void MCPWM_IRQHandler (void) { while(1); }
 821              		.loc 1 190 0
 822              		.cfi_startproc
 823              		@ args = 0, pretend = 0, frame = 0
 824              		@ frame_needed = 0, uses_anonymous_args = 0
 825              		@ link register save eliminated.
 826              	.L80:
 827              		.loc 1 190 0 discriminator 1
 828 009c FEE7     		b	.L80	@
 829              		.cfi_endproc
 830              	.LFE39:
 831              		.size	MCPWM_IRQHandler, .-MCPWM_IRQHandler
 832 009e 00BF     		.align	2
 833              		.weak	QEI_IRQHandler
 834              		.thumb
 835              		.thumb_func
 836              		.type	QEI_IRQHandler, %function
ARM GAS  C:\Users\Akil\AppData\Local\Temp\ccYyRyEf.s 			page 19


 837              	QEI_IRQHandler:
 838              	.LFB40:
 191:src/vectors_lpc1768.c **** void QEI_IRQHandler (void) { while(1); }
 839              		.loc 1 191 0
 840              		.cfi_startproc
 841              		@ args = 0, pretend = 0, frame = 0
 842              		@ frame_needed = 0, uses_anonymous_args = 0
 843              		@ link register save eliminated.
 844              	.L82:
 845              		.loc 1 191 0 discriminator 1
 846 00a0 FEE7     		b	.L82	@
 847              		.cfi_endproc
 848              	.LFE40:
 849              		.size	QEI_IRQHandler, .-QEI_IRQHandler
 850              	.Letext0:
