Archive member included because of file (symbol)

h:/Work/CANopen/PhiCanOpen_Working/build_root/HYDRA/debug_noOS/CDL\libCDL.a(lpc17xx_can.o)
                              h:/Work/CANopen/PhiCanOpen_Working/build_root/HYDRA/debug_noOS/Example_IO_mini/obj/h/Work/CANopen/PhiCanOpen_Working/CANopenNode/LPC17XX/CO_driver.o (CAN_Init)
h:/Work/CANopen/PhiCanOpen_Working/build_root/HYDRA/debug_noOS/CDL\libCDL.a(lpc17xx_clkpwr.o)
                              h:/Work/CANopen/PhiCanOpen_Working/build_root/HYDRA/debug_noOS/CDL\libCDL.a(lpc17xx_can.o) (CLKPWR_SetPCLKDiv)
h:/Work/CANopen/PhiCanOpen_Working/build_root/HYDRA/debug_noOS/CDL\libCDL.a(lpc17xx_debug_frmwrk.o)
                              h:/Work/CANopen/PhiCanOpen_Working/build_root/HYDRA/debug_noOS/Example_IO_mini/obj/Example_IO_mini.o (UARTPuts)
h:/Work/CANopen/PhiCanOpen_Working/build_root/HYDRA/debug_noOS/CDL\libCDL.a(lpc17xx_gpio.o)
                              h:/Work/CANopen/PhiCanOpen_Working/build_root/HYDRA/debug_noOS/Example_IO_mini/obj/h/Work/CANopen/PhiCanOpen_Working/bsp/HYDRA/board.o (FIO_SetDir)
h:/Work/CANopen/PhiCanOpen_Working/build_root/HYDRA/debug_noOS/CDL\libCDL.a(lpc17xx_pinsel.o)
                              h:/Work/CANopen/PhiCanOpen_Working/build_root/HYDRA/debug_noOS/Example_IO_mini/obj/h/Work/CANopen/PhiCanOpen_Working/bsp/HYDRA/board.o (PINSEL_ConfigPin)
h:/Work/CANopen/PhiCanOpen_Working/build_root/HYDRA/debug_noOS/CDL\libCDL.a(lpc17xx_timer.o)
                              h:/Work/CANopen/PhiCanOpen_Working/build_root/HYDRA/debug_noOS/Example_IO_mini/obj/h/Work/CANopen/PhiCanOpen_Working/bsp/HYDRA/board.o (TIM_ClearIntPending)
h:/Work/CANopen/PhiCanOpen_Working/build_root/HYDRA/debug_noOS/CDL\libCDL.a(lpc17xx_uart.o)
                              h:/Work/CANopen/PhiCanOpen_Working/build_root/HYDRA/debug_noOS/Example_IO_mini/obj/h/Work/CANopen/PhiCanOpen_Working/bsp/HYDRA/board.o (UART_Init)
h:/Work/CANopen/PhiCanOpen_Working/build_root/HYDRA/debug_noOS/CDL\libCDL.a(lpc17xx_wdt.o)
                              h:/Work/CANopen/PhiCanOpen_Working/build_root/HYDRA/debug_noOS/Example_IO_mini/obj/h/Work/CANopen/PhiCanOpen_Working/bsp/HYDRA/board.o (WDT_Init)
h:/Work/CANopen/PhiCanOpen_Working/build_root/HYDRA/debug_noOS/CDL\libCDL.a(cr_startup_lpc176x.o)
                              (ResetISR)
h:/Work/CANopen/PhiCanOpen_Working/build_root/HYDRA/debug_noOS/CDL\libCDL.a(system_LPC17xx.o)
                              h:/Work/CANopen/PhiCanOpen_Working/build_root/HYDRA/debug_noOS/CDL\libCDL.a(lpc17xx_clkpwr.o) (SystemCoreClock)
h:/arm-non-eabi/bin/../lib/gcc/arm-none-eabi/4.8.4/armv7-m\libgcc.a(_arm_addsubdf3.o)
                              h:/Work/CANopen/PhiCanOpen_Working/build_root/HYDRA/debug_noOS/CDL\libCDL.a(lpc17xx_uart.o) (__aeabi_dsub)
h:/arm-non-eabi/bin/../lib/gcc/arm-none-eabi/4.8.4/armv7-m\libgcc.a(_arm_cmpdf2.o)
                              h:/Work/CANopen/PhiCanOpen_Working/build_root/HYDRA/debug_noOS/CDL\libCDL.a(lpc17xx_uart.o) (__aeabi_dcmple)
h:/arm-non-eabi/bin/../lib/gcc/arm-none-eabi/4.8.4/armv7-m\libgcc.a(_arm_truncdfsf2.o)
                              h:/Work/CANopen/PhiCanOpen_Working/build_root/HYDRA/debug_noOS/CDL\libCDL.a(lpc17xx_uart.o) (__aeabi_d2f)
h:/arm-non-eabi/bin/../lib/gcc/arm-none-eabi/4.8.4/armv7-m\libgcc.a(_arm_addsubsf3.o)
                              h:/Work/CANopen/PhiCanOpen_Working/build_root/HYDRA/debug_noOS/CDL\libCDL.a(lpc17xx_uart.o) (__aeabi_fsub)
h:/arm-non-eabi/bin/../lib/gcc/arm-none-eabi/4.8.4/armv7-m\libgcc.a(_arm_muldivsf3.o)
                              h:/Work/CANopen/PhiCanOpen_Working/build_root/HYDRA/debug_noOS/CDL\libCDL.a(lpc17xx_uart.o) (__aeabi_fmul)
h:/arm-non-eabi/bin/../lib/gcc/arm-none-eabi/4.8.4/armv7-m\libgcc.a(_arm_cmpsf2.o)
                              h:/Work/CANopen/PhiCanOpen_Working/build_root/HYDRA/debug_noOS/CDL\libCDL.a(lpc17xx_uart.o) (__aeabi_fcmple)
h:/arm-non-eabi/bin/../lib/gcc/arm-none-eabi/4.8.4/armv7-m\libgcc.a(_arm_fixunssfsi.o)
                              h:/Work/CANopen/PhiCanOpen_Working/build_root/HYDRA/debug_noOS/CDL\libCDL.a(lpc17xx_uart.o) (__aeabi_f2uiz)
h:/arm-non-eabi/bin/../lib/gcc/arm-none-eabi/4.8.4/armv7-m\libgcc.a(_aeabi_uldivmod.o)
                              h:/Work/CANopen/PhiCanOpen_Working/build_root/HYDRA/debug_noOS/CDL\libCDL.a(lpc17xx_timer.o) (__aeabi_uldivmod)
h:/arm-non-eabi/bin/../lib/gcc/arm-none-eabi/4.8.4/armv7-m\libgcc.a(bpabi.o)
                              h:/arm-non-eabi/bin/../lib/gcc/arm-none-eabi/4.8.4/armv7-m\libgcc.a(_aeabi_uldivmod.o) (__gnu_uldivmod_helper)
h:/arm-non-eabi/bin/../lib/gcc/arm-none-eabi/4.8.4/armv7-m\libgcc.a(_dvmd_tls.o)
                              h:/arm-non-eabi/bin/../lib/gcc/arm-none-eabi/4.8.4/armv7-m\libgcc.a(_aeabi_uldivmod.o) (__aeabi_ldiv0)
h:/arm-non-eabi/bin/../lib/gcc/arm-none-eabi/4.8.4/armv7-m\libgcc.a(_divdi3.o)
                              h:/arm-non-eabi/bin/../lib/gcc/arm-none-eabi/4.8.4/armv7-m\libgcc.a(bpabi.o) (__divdi3)
h:/arm-non-eabi/bin/../lib/gcc/arm-none-eabi/4.8.4/armv7-m\libgcc.a(_udivdi3.o)
                              h:/arm-non-eabi/bin/../lib/gcc/arm-none-eabi/4.8.4/armv7-m\libgcc.a(bpabi.o) (__udivdi3)

Allocating common symbols
Common symbol       size              file

_db_dec             0x4               h:/Work/CANopen/PhiCanOpen_Working/build_root/HYDRA/debug_noOS/CDL\libCDL.a(lpc17xx_debug_frmwrk.o)
_db_dec_32          0x4               h:/Work/CANopen/PhiCanOpen_Working/build_root/HYDRA/debug_noOS/CDL\libCDL.a(lpc17xx_debug_frmwrk.o)
_db_hex_32          0x4               h:/Work/CANopen/PhiCanOpen_Working/build_root/HYDRA/debug_noOS/CDL\libCDL.a(lpc17xx_debug_frmwrk.o)
_db_dec_16          0x4               h:/Work/CANopen/PhiCanOpen_Working/build_root/HYDRA/debug_noOS/CDL\libCDL.a(lpc17xx_debug_frmwrk.o)
_db_msg             0x4               h:/Work/CANopen/PhiCanOpen_Working/build_root/HYDRA/debug_noOS/CDL\libCDL.a(lpc17xx_debug_frmwrk.o)
_db_get_char        0x4               h:/Work/CANopen/PhiCanOpen_Working/build_root/HYDRA/debug_noOS/CDL\libCDL.a(lpc17xx_debug_frmwrk.o)
_db_msg_            0x4               h:/Work/CANopen/PhiCanOpen_Working/build_root/HYDRA/debug_noOS/CDL\libCDL.a(lpc17xx_debug_frmwrk.o)
_db_char            0x4               h:/Work/CANopen/PhiCanOpen_Working/build_root/HYDRA/debug_noOS/CDL\libCDL.a(lpc17xx_debug_frmwrk.o)
_db_hex             0x4               h:/Work/CANopen/PhiCanOpen_Working/build_root/HYDRA/debug_noOS/CDL\libCDL.a(lpc17xx_debug_frmwrk.o)
_db_hex_16          0x4               h:/Work/CANopen/PhiCanOpen_Working/build_root/HYDRA/debug_noOS/CDL\libCDL.a(lpc17xx_debug_frmwrk.o)
FULLCAN_ENABLE      0x1               h:/Work/CANopen/PhiCanOpen_Working/build_root/HYDRA/debug_noOS/CDL\libCDL.a(lpc17xx_can.o)

Discarded input sections

 .group         0x00000000        0x8 h:/Work/CANopen/PhiCanOpen_Working/build_root/HYDRA/debug_noOS/Example_IO_mini/obj/Example_IO_mini.o
 .group         0x00000000        0x8 h:/Work/CANopen/PhiCanOpen_Working/build_root/HYDRA/debug_noOS/Example_IO_mini/obj/Example_IO_mini.o
 .group         0x00000000        0x8 h:/Work/CANopen/PhiCanOpen_Working/build_root/HYDRA/debug_noOS/Example_IO_mini/obj/Example_IO_mini.o
 .group         0x00000000        0x8 h:/Work/CANopen/PhiCanOpen_Working/build_root/HYDRA/debug_noOS/Example_IO_mini/obj/Example_IO_mini.o
 .group         0x00000000        0x8 h:/Work/CANopen/PhiCanOpen_Working/build_root/HYDRA/debug_noOS/Example_IO_mini/obj/Example_IO_mini.o
 .group         0x00000000        0x8 h:/Work/CANopen/PhiCanOpen_Working/build_root/HYDRA/debug_noOS/Example_IO_mini/obj/Example_IO_mini.o
 .group         0x00000000        0x8 h:/Work/CANopen/PhiCanOpen_Working/build_root/HYDRA/debug_noOS/Example_IO_mini/obj/Example_IO_mini.o
 .group         0x00000000        0x8 h:/Work/CANopen/PhiCanOpen_Working/build_root/HYDRA/debug_noOS/Example_IO_mini/obj/Example_IO_mini.o
 .group         0x00000000        0x8 h:/Work/CANopen/PhiCanOpen_Working/build_root/HYDRA/debug_noOS/Example_IO_mini/obj/Example_IO_mini.o
 .group         0x00000000        0x8 h:/Work/CANopen/PhiCanOpen_Working/build_root/HYDRA/debug_noOS/Example_IO_mini/obj/Example_IO_mini.o
 .group         0x00000000        0x8 h:/Work/CANopen/PhiCanOpen_Working/build_root/HYDRA/debug_noOS/Example_IO_mini/obj/Example_IO_mini.o
 .group         0x00000000        0x8 h:/Work/CANopen/PhiCanOpen_Working/build_root/HYDRA/debug_noOS/Example_IO_mini/obj/Example_IO_mini.o
 .group         0x00000000        0x8 h:/Work/CANopen/PhiCanOpen_Working/build_root/HYDRA/debug_noOS/Example_IO_mini/obj/Example_IO_mini.o
 .group         0x00000000        0x8 h:/Work/CANopen/PhiCanOpen_Working/build_root/HYDRA/debug_noOS/Example_IO_mini/obj/Example_IO_mini.o
 .group         0x00000000        0x8 h:/Work/CANopen/PhiCanOpen_Working/build_root/HYDRA/debug_noOS/Example_IO_mini/obj/Example_IO_mini.o
 .group         0x00000000        0x8 h:/Work/CANopen/PhiCanOpen_Working/build_root/HYDRA/debug_noOS/Example_IO_mini/obj/Example_IO_mini.o
 .group         0x00000000        0x8 h:/Work/CANopen/PhiCanOpen_Working/build_root/HYDRA/debug_noOS/Example_IO_mini/obj/Example_IO_mini.o
 .group         0x00000000        0x8 h:/Work/CANopen/PhiCanOpen_Working/build_root/HYDRA/debug_noOS/Example_IO_mini/obj/Example_IO_mini.o
Memory Configuration

Name             Origin             Length             Attributes
rom              0x00000000         0x00080000         xr
ram              0x10000000         0x00008000         xrw
ramahb           0x2007c000         0x00008000         xrw
*default*        0x00000000         0xffffffff

Linker script and memory map

LOAD h:/Work/CANopen/PhiCanOpen_Working/build_root/HYDRA/debug_noOS/Example_IO_mini/obj/Example_IO_mini.o
LOAD h:/Work/CANopen/PhiCanOpen_Working/build_root/HYDRA/debug_noOS/Example_IO_mini/obj/CO_OD.o
LOAD h:/Work/CANopen/PhiCanOpen_Working/build_root/HYDRA/debug_noOS/Example_IO_mini/obj/h/Work/CANopen/PhiCanOpen_Working/bsp/HYDRA/board.o
LOAD h:/Work/CANopen/PhiCanOpen_Working/build_root/HYDRA/debug_noOS/Example_IO_mini/obj/h/Work/CANopen/PhiCanOpen_Working/CANopenNode/CANopen.o
LOAD h:/Work/CANopen/PhiCanOpen_Working/build_root/HYDRA/debug_noOS/Example_IO_mini/obj/h/Work/CANopen/PhiCanOpen_Working/CANopenNode/CO_Emergency.o
LOAD h:/Work/CANopen/PhiCanOpen_Working/build_root/HYDRA/debug_noOS/Example_IO_mini/obj/h/Work/CANopen/PhiCanOpen_Working/CANopenNode/CO_HBconsumer.o
LOAD h:/Work/CANopen/PhiCanOpen_Working/build_root/HYDRA/debug_noOS/Example_IO_mini/obj/h/Work/CANopen/PhiCanOpen_Working/CANopenNode/CO_NMT_Heartbeat.o
LOAD h:/Work/CANopen/PhiCanOpen_Working/build_root/HYDRA/debug_noOS/Example_IO_mini/obj/h/Work/CANopen/PhiCanOpen_Working/CANopenNode/CO_PDO.o
LOAD h:/Work/CANopen/PhiCanOpen_Working/build_root/HYDRA/debug_noOS/Example_IO_mini/obj/h/Work/CANopen/PhiCanOpen_Working/CANopenNode/CO_SDO.o
LOAD h:/Work/CANopen/PhiCanOpen_Working/build_root/HYDRA/debug_noOS/Example_IO_mini/obj/h/Work/CANopen/PhiCanOpen_Working/CANopenNode/CO_SDOmaster.o
LOAD h:/Work/CANopen/PhiCanOpen_Working/build_root/HYDRA/debug_noOS/Example_IO_mini/obj/h/Work/CANopen/PhiCanOpen_Working/CANopenNode/CO_SYNC.o
LOAD h:/Work/CANopen/PhiCanOpen_Working/build_root/HYDRA/debug_noOS/Example_IO_mini/obj/h/Work/CANopen/PhiCanOpen_Working/CANopenNode/crc16-ccitt.o
LOAD h:/Work/CANopen/PhiCanOpen_Working/build_root/HYDRA/debug_noOS/Example_IO_mini/obj/h/Work/CANopen/PhiCanOpen_Working/CANopenNode/LPC17XX/CO_driver.o
LOAD h:/Work/CANopen/PhiCanOpen_Working/build_root/HYDRA/debug_noOS/Example_IO_mini/obj/h/Work/CANopen/PhiCanOpen_Working/CANopenNode/LPC17XX/CO_cpu.o
START GROUP
LOAD h:/Work/CANopen/PhiCanOpen_Working/build_root/HYDRA/debug_noOS/CDL\libCDL.a
END GROUP
                0x00000b00                STACK_SIZE = 0xb00
                0x00000600                OS_STACK_SIZE = 0x600

.text           0x00000000     0x891c
 *(.isr_vector)
 .isr_vector    0x00000000       0xcc h:/Work/CANopen/PhiCanOpen_Working/build_root/HYDRA/debug_noOS/CDL\libCDL.a(cr_startup_lpc176x.o)
                0x00000000                g_pfnVectors
                0x000000cc                . = ALIGN (0x4)
 *(.init)
                0x000000cc                . = ALIGN (0x4)
 *(.rodata .rodata.*)
 .rodata        0x000000cc       0xf8 h:/Work/CANopen/PhiCanOpen_Working/build_root/HYDRA/debug_noOS/Example_IO_mini/obj/Example_IO_mini.o
 .rodata.OD_record1018
                0x000001c4       0x28 h:/Work/CANopen/PhiCanOpen_Working/build_root/HYDRA/debug_noOS/Example_IO_mini/obj/CO_OD.o
                0x000001c4                OD_record1018
 .rodata.OD_record1200
                0x000001ec       0x18 h:/Work/CANopen/PhiCanOpen_Working/build_root/HYDRA/debug_noOS/Example_IO_mini/obj/CO_OD.o
                0x000001ec                OD_record1200
 .rodata.OD_record1400
                0x00000204       0x18 h:/Work/CANopen/PhiCanOpen_Working/build_root/HYDRA/debug_noOS/Example_IO_mini/obj/CO_OD.o
                0x00000204                OD_record1400
 .rodata.OD_record1401
                0x0000021c       0x18 h:/Work/CANopen/PhiCanOpen_Working/build_root/HYDRA/debug_noOS/Example_IO_mini/obj/CO_OD.o
                0x0000021c                OD_record1401
 .rodata.OD_record1402
                0x00000234       0x18 h:/Work/CANopen/PhiCanOpen_Working/build_root/HYDRA/debug_noOS/Example_IO_mini/obj/CO_OD.o
                0x00000234                OD_record1402
 .rodata.OD_record1403
                0x0000024c       0x18 h:/Work/CANopen/PhiCanOpen_Working/build_root/HYDRA/debug_noOS/Example_IO_mini/obj/CO_OD.o
                0x0000024c                OD_record1403
 .rodata.OD_record1600
                0x00000264       0x48 h:/Work/CANopen/PhiCanOpen_Working/build_root/HYDRA/debug_noOS/Example_IO_mini/obj/CO_OD.o
                0x00000264                OD_record1600
 .rodata.OD_record1601
                0x000002ac       0x48 h:/Work/CANopen/PhiCanOpen_Working/build_root/HYDRA/debug_noOS/Example_IO_mini/obj/CO_OD.o
                0x000002ac                OD_record1601
 .rodata.OD_record1602
                0x000002f4       0x48 h:/Work/CANopen/PhiCanOpen_Working/build_root/HYDRA/debug_noOS/Example_IO_mini/obj/CO_OD.o
                0x000002f4                OD_record1602
 .rodata.OD_record1603
                0x0000033c       0x48 h:/Work/CANopen/PhiCanOpen_Working/build_root/HYDRA/debug_noOS/Example_IO_mini/obj/CO_OD.o
                0x0000033c                OD_record1603
 .rodata.OD_record1800
                0x00000384       0x38 h:/Work/CANopen/PhiCanOpen_Working/build_root/HYDRA/debug_noOS/Example_IO_mini/obj/CO_OD.o
                0x00000384                OD_record1800
 .rodata.OD_record1801
                0x000003bc       0x38 h:/Work/CANopen/PhiCanOpen_Working/build_root/HYDRA/debug_noOS/Example_IO_mini/obj/CO_OD.o
                0x000003bc                OD_record1801
 .rodata.OD_record1802
                0x000003f4       0x38 h:/Work/CANopen/PhiCanOpen_Working/build_root/HYDRA/debug_noOS/Example_IO_mini/obj/CO_OD.o
                0x000003f4                OD_record1802
 .rodata.OD_record1803
                0x0000042c       0x38 h:/Work/CANopen/PhiCanOpen_Working/build_root/HYDRA/debug_noOS/Example_IO_mini/obj/CO_OD.o
                0x0000042c                OD_record1803
 .rodata.OD_record1A00
                0x00000464       0x48 h:/Work/CANopen/PhiCanOpen_Working/build_root/HYDRA/debug_noOS/Example_IO_mini/obj/CO_OD.o
                0x00000464                OD_record1A00
 .rodata.OD_record1A01
                0x000004ac       0x48 h:/Work/CANopen/PhiCanOpen_Working/build_root/HYDRA/debug_noOS/Example_IO_mini/obj/CO_OD.o
                0x000004ac                OD_record1A01
 .rodata.OD_record1A02
                0x000004f4       0x48 h:/Work/CANopen/PhiCanOpen_Working/build_root/HYDRA/debug_noOS/Example_IO_mini/obj/CO_OD.o
                0x000004f4                OD_record1A02
 .rodata.OD_record1A03
                0x0000053c       0x48 h:/Work/CANopen/PhiCanOpen_Working/build_root/HYDRA/debug_noOS/Example_IO_mini/obj/CO_OD.o
                0x0000053c                OD_record1A03
 .rodata.OD_record2120
                0x00000584       0x30 h:/Work/CANopen/PhiCanOpen_Working/build_root/HYDRA/debug_noOS/Example_IO_mini/obj/CO_OD.o
                0x00000584                OD_record2120
 .rodata.CO_OD  0x000005b4      0x288 h:/Work/CANopen/PhiCanOpen_Working/build_root/HYDRA/debug_noOS/Example_IO_mini/obj/CO_OD.o
                0x000005b4                CO_OD
 .rodata.crc16_ccitt_table
                0x0000083c      0x200 h:/Work/CANopen/PhiCanOpen_Working/build_root/HYDRA/debug_noOS/Example_IO_mini/obj/h/Work/CANopen/PhiCanOpen_Working/CANopenNode/crc16-ccitt.o
                0x00000a3c                . = ALIGN (0x4)
 *(.text .text.*)
 .text.NVIC_EnableIRQ
                0x00000a3c       0x30 h:/Work/CANopen/PhiCanOpen_Working/build_root/HYDRA/debug_noOS/Example_IO_mini/obj/Example_IO_mini.o
 .text.NVIC_DisableIRQ
                0x00000a6c       0x34 h:/Work/CANopen/PhiCanOpen_Working/build_root/HYDRA/debug_noOS/Example_IO_mini/obj/Example_IO_mini.o
 .text.main     0x00000aa0      0x210 h:/Work/CANopen/PhiCanOpen_Working/build_root/HYDRA/debug_noOS/Example_IO_mini/obj/Example_IO_mini.o
                0x00000aa0                main
 .text.app_timerIrqHandler
                0x00000cb0       0x34 h:/Work/CANopen/PhiCanOpen_Working/build_root/HYDRA/debug_noOS/Example_IO_mini/obj/Example_IO_mini.o
                0x00000cb0                app_timerIrqHandler
 .text.app_canIrqHandler
                0x00000ce4       0x18 h:/Work/CANopen/PhiCanOpen_Working/build_root/HYDRA/debug_noOS/Example_IO_mini/obj/Example_IO_mini.o
                0x00000ce4                app_canIrqHandler
 .text.programStart
                0x00000cfc        0xc h:/Work/CANopen/PhiCanOpen_Working/build_root/HYDRA/debug_noOS/Example_IO_mini/obj/Example_IO_mini.o
                0x00000cfc                programStart
 .text.communicationReset
                0x00000d08       0x48 h:/Work/CANopen/PhiCanOpen_Working/build_root/HYDRA/debug_noOS/Example_IO_mini/obj/Example_IO_mini.o
                0x00000d08                communicationReset
 .text.programEnd
                0x00000d50        0xc h:/Work/CANopen/PhiCanOpen_Working/build_root/HYDRA/debug_noOS/Example_IO_mini/obj/Example_IO_mini.o
                0x00000d50                programEnd
 .text.programAsync
                0x00000d5c       0x54 h:/Work/CANopen/PhiCanOpen_Working/build_root/HYDRA/debug_noOS/Example_IO_mini/obj/Example_IO_mini.o
                0x00000d5c                programAsync
 .text.program1ms
                0x00000db0       0x24 h:/Work/CANopen/PhiCanOpen_Working/build_root/HYDRA/debug_noOS/Example_IO_mini/obj/Example_IO_mini.o
                0x00000db0                program1ms
 .text.ODF_testDomain
                0x00000dd4      0x118 h:/Work/CANopen/PhiCanOpen_Working/build_root/HYDRA/debug_noOS/Example_IO_mini/obj/Example_IO_mini.o
                0x00000dd4                ODF_testDomain
 .text.NVIC_EnableIRQ
                0x00000eec       0x30 h:/Work/CANopen/PhiCanOpen_Working/build_root/HYDRA/debug_noOS/Example_IO_mini/obj/h/Work/CANopen/PhiCanOpen_Working/bsp/HYDRA/board.o
 .text.NVIC_SetPriority
                0x00000f1c       0x54 h:/Work/CANopen/PhiCanOpen_Working/build_root/HYDRA/debug_noOS/Example_IO_mini/obj/h/Work/CANopen/PhiCanOpen_Working/bsp/HYDRA/board.o
 .text.gpiopin_init
                0x00000f70       0x78 h:/Work/CANopen/PhiCanOpen_Working/build_root/HYDRA/debug_noOS/Example_IO_mini/obj/h/Work/CANopen/PhiCanOpen_Working/bsp/HYDRA/board.o
 .text.board_init
                0x00000fe8      0x180 h:/Work/CANopen/PhiCanOpen_Working/build_root/HYDRA/debug_noOS/Example_IO_mini/obj/h/Work/CANopen/PhiCanOpen_Working/bsp/HYDRA/board.o
                0x00000fe8                board_init
 .text.leds_write
                0x00001168       0x70 h:/Work/CANopen/PhiCanOpen_Working/build_root/HYDRA/debug_noOS/Example_IO_mini/obj/h/Work/CANopen/PhiCanOpen_Working/bsp/HYDRA/board.o
                0x00001168                leds_write
 .text.leds_read
                0x000011d8       0x64 h:/Work/CANopen/PhiCanOpen_Working/build_root/HYDRA/debug_noOS/Example_IO_mini/obj/h/Work/CANopen/PhiCanOpen_Working/bsp/HYDRA/board.o
                0x000011d8                leds_read
 .text.TIMER0_IRQHandler
                0x0000123c       0x14 h:/Work/CANopen/PhiCanOpen_Working/build_root/HYDRA/debug_noOS/Example_IO_mini/obj/h/Work/CANopen/PhiCanOpen_Working/bsp/HYDRA/board.o
                0x0000123c                TIMER0_IRQHandler
 .text.CAN_IRQHandler
                0x00001250        0xc h:/Work/CANopen/PhiCanOpen_Working/build_root/HYDRA/debug_noOS/Example_IO_mini/obj/h/Work/CANopen/PhiCanOpen_Working/bsp/HYDRA/board.o
                0x00001250                CAN_IRQHandler
 .text.CO_ODF_nodeId
                0x0000125c       0x50 h:/Work/CANopen/PhiCanOpen_Working/build_root/HYDRA/debug_noOS/Example_IO_mini/obj/h/Work/CANopen/PhiCanOpen_Working/CANopenNode/CANopen.o
 .text.CO_ODF_bitRate
                0x000012ac       0x70 h:/Work/CANopen/PhiCanOpen_Working/build_root/HYDRA/debug_noOS/Example_IO_mini/obj/h/Work/CANopen/PhiCanOpen_Working/CANopenNode/CANopen.o
 .text.CO_init  0x0000131c      0x49c h:/Work/CANopen/PhiCanOpen_Working/build_root/HYDRA/debug_noOS/Example_IO_mini/obj/h/Work/CANopen/PhiCanOpen_Working/CANopenNode/CANopen.o
                0x0000131c                CO_init
 .text.CO_delete
                0x000017b8       0x18 h:/Work/CANopen/PhiCanOpen_Working/build_root/HYDRA/debug_noOS/Example_IO_mini/obj/h/Work/CANopen/PhiCanOpen_Working/CANopenNode/CANopen.o
                0x000017b8                CO_delete
 .text.CO_process
                0x000017d0       0xc4 h:/Work/CANopen/PhiCanOpen_Working/build_root/HYDRA/debug_noOS/Example_IO_mini/obj/h/Work/CANopen/PhiCanOpen_Working/CANopenNode/CANopen.o
                0x000017d0                CO_process
 .text.CO_process_RPDO
                0x00001894       0x38 h:/Work/CANopen/PhiCanOpen_Working/build_root/HYDRA/debug_noOS/Example_IO_mini/obj/h/Work/CANopen/PhiCanOpen_Working/CANopenNode/CANopen.o
                0x00001894                CO_process_RPDO
 .text.CO_process_TPDO
                0x000018cc       0x74 h:/Work/CANopen/PhiCanOpen_Working/build_root/HYDRA/debug_noOS/Example_IO_mini/obj/h/Work/CANopen/PhiCanOpen_Working/CANopenNode/CANopen.o
                0x000018cc                CO_process_TPDO
 .text.CO_ODF_1003
                0x00001940       0x8c h:/Work/CANopen/PhiCanOpen_Working/build_root/HYDRA/debug_noOS/Example_IO_mini/obj/h/Work/CANopen/PhiCanOpen_Working/CANopenNode/CO_Emergency.o
 .text.CO_ODF_1014
                0x000019cc       0x48 h:/Work/CANopen/PhiCanOpen_Working/build_root/HYDRA/debug_noOS/Example_IO_mini/obj/h/Work/CANopen/PhiCanOpen_Working/CANopenNode/CO_Emergency.o
 .text.CO_EM_init
                0x00001a14      0x10c h:/Work/CANopen/PhiCanOpen_Working/build_root/HYDRA/debug_noOS/Example_IO_mini/obj/h/Work/CANopen/PhiCanOpen_Working/CANopenNode/CO_Emergency.o
                0x00001a14                CO_EM_init
 .text.CO_EM_process
                0x00001b20      0x1e0 h:/Work/CANopen/PhiCanOpen_Working/build_root/HYDRA/debug_noOS/Example_IO_mini/obj/h/Work/CANopen/PhiCanOpen_Working/CANopenNode/CO_Emergency.o
                0x00001b20                CO_EM_process
 .text.CO_errorReport
                0x00001d00      0x134 h:/Work/CANopen/PhiCanOpen_Working/build_root/HYDRA/debug_noOS/Example_IO_mini/obj/h/Work/CANopen/PhiCanOpen_Working/CANopenNode/CO_Emergency.o
                0x00001d00                CO_errorReport
 .text.CO_errorReset
                0x00001e34      0x128 h:/Work/CANopen/PhiCanOpen_Working/build_root/HYDRA/debug_noOS/Example_IO_mini/obj/h/Work/CANopen/PhiCanOpen_Working/CANopenNode/CO_Emergency.o
                0x00001e34                CO_errorReset
 .text.CO_isError
                0x00001f5c       0x54 h:/Work/CANopen/PhiCanOpen_Working/build_root/HYDRA/debug_noOS/Example_IO_mini/obj/h/Work/CANopen/PhiCanOpen_Working/CANopenNode/CO_Emergency.o
                0x00001f5c                CO_isError
 .text.CO_NMT_receive
                0x00001fb0       0x90 h:/Work/CANopen/PhiCanOpen_Working/build_root/HYDRA/debug_noOS/Example_IO_mini/obj/h/Work/CANopen/PhiCanOpen_Working/CANopenNode/CO_NMT_Heartbeat.o
 .text.CO_NMT_init
                0x00002040       0xb8 h:/Work/CANopen/PhiCanOpen_Working/build_root/HYDRA/debug_noOS/Example_IO_mini/obj/h/Work/CANopen/PhiCanOpen_Working/CANopenNode/CO_NMT_Heartbeat.o
                0x00002040                CO_NMT_init
 .text.CO_NMT_blinkingProcess50ms
                0x000020f8      0x170 h:/Work/CANopen/PhiCanOpen_Working/build_root/HYDRA/debug_noOS/Example_IO_mini/obj/h/Work/CANopen/PhiCanOpen_Working/CANopenNode/CO_NMT_Heartbeat.o
                0x000020f8                CO_NMT_blinkingProcess50ms
 .text.CO_NMT_process
                0x00002268      0x310 h:/Work/CANopen/PhiCanOpen_Working/build_root/HYDRA/debug_noOS/Example_IO_mini/obj/h/Work/CANopen/PhiCanOpen_Working/CANopenNode/CO_NMT_Heartbeat.o
                0x00002268                CO_NMT_process
 .text.CO_PDO_receive
                0x00002578       0x94 h:/Work/CANopen/PhiCanOpen_Working/build_root/HYDRA/debug_noOS/Example_IO_mini/obj/h/Work/CANopen/PhiCanOpen_Working/CANopenNode/CO_PDO.o
 .text.CO_RPDOconfigCom
                0x0000260c       0xa0 h:/Work/CANopen/PhiCanOpen_Working/build_root/HYDRA/debug_noOS/Example_IO_mini/obj/h/Work/CANopen/PhiCanOpen_Working/CANopenNode/CO_PDO.o
 .text.CO_TPDOconfigCom
                0x000026ac       0xa0 h:/Work/CANopen/PhiCanOpen_Working/build_root/HYDRA/debug_noOS/Example_IO_mini/obj/h/Work/CANopen/PhiCanOpen_Working/CANopenNode/CO_PDO.o
 .text.CO_PDOfindMap
                0x0000274c      0x1d8 h:/Work/CANopen/PhiCanOpen_Working/build_root/HYDRA/debug_noOS/Example_IO_mini/obj/h/Work/CANopen/PhiCanOpen_Working/CANopenNode/CO_PDO.o
 .text.CO_RPDOconfigMap
                0x00002924       0xc4 h:/Work/CANopen/PhiCanOpen_Working/build_root/HYDRA/debug_noOS/Example_IO_mini/obj/h/Work/CANopen/PhiCanOpen_Working/CANopenNode/CO_PDO.o
 .text.CO_TPDOconfigMap
                0x000029e8       0xc8 h:/Work/CANopen/PhiCanOpen_Working/build_root/HYDRA/debug_noOS/Example_IO_mini/obj/h/Work/CANopen/PhiCanOpen_Working/CANopenNode/CO_PDO.o
 .text.CO_ODF_RPDOcom
                0x00002ab0      0x144 h:/Work/CANopen/PhiCanOpen_Working/build_root/HYDRA/debug_noOS/Example_IO_mini/obj/h/Work/CANopen/PhiCanOpen_Working/CANopenNode/CO_PDO.o
 .text.CO_ODF_TPDOcom
                0x00002bf4      0x1b4 h:/Work/CANopen/PhiCanOpen_Working/build_root/HYDRA/debug_noOS/Example_IO_mini/obj/h/Work/CANopen/PhiCanOpen_Working/CANopenNode/CO_PDO.o
 .text.CO_ODF_RPDOmap
                0x00002da8       0xf4 h:/Work/CANopen/PhiCanOpen_Working/build_root/HYDRA/debug_noOS/Example_IO_mini/obj/h/Work/CANopen/PhiCanOpen_Working/CANopenNode/CO_PDO.o
 .text.CO_ODF_TPDOmap
                0x00002e9c       0xf4 h:/Work/CANopen/PhiCanOpen_Working/build_root/HYDRA/debug_noOS/Example_IO_mini/obj/h/Work/CANopen/PhiCanOpen_Working/CANopenNode/CO_PDO.o
 .text.CO_RPDO_init
                0x00002f90       0xac h:/Work/CANopen/PhiCanOpen_Working/build_root/HYDRA/debug_noOS/Example_IO_mini/obj/h/Work/CANopen/PhiCanOpen_Working/CANopenNode/CO_PDO.o
                0x00002f90                CO_RPDO_init
 .text.CO_TPDO_init
                0x0000303c       0xf4 h:/Work/CANopen/PhiCanOpen_Working/build_root/HYDRA/debug_noOS/Example_IO_mini/obj/h/Work/CANopen/PhiCanOpen_Working/CANopenNode/CO_PDO.o
                0x0000303c                CO_TPDO_init
 .text.CO_TPDOisCOS
                0x00003130      0x1c8 h:/Work/CANopen/PhiCanOpen_Working/build_root/HYDRA/debug_noOS/Example_IO_mini/obj/h/Work/CANopen/PhiCanOpen_Working/CANopenNode/CO_PDO.o
                0x00003130                CO_TPDOisCOS
 .text.CO_TPDOsend
                0x000032f8       0x64 h:/Work/CANopen/PhiCanOpen_Working/build_root/HYDRA/debug_noOS/Example_IO_mini/obj/h/Work/CANopen/PhiCanOpen_Working/CANopenNode/CO_PDO.o
                0x000032f8                CO_TPDOsend
 .text.CO_RPDO_process
                0x0000335c       0x68 h:/Work/CANopen/PhiCanOpen_Working/build_root/HYDRA/debug_noOS/Example_IO_mini/obj/h/Work/CANopen/PhiCanOpen_Working/CANopenNode/CO_PDO.o
                0x0000335c                CO_RPDO_process
 .text.CO_TPDO_process
                0x000033c4       0xd8 h:/Work/CANopen/PhiCanOpen_Working/build_root/HYDRA/debug_noOS/Example_IO_mini/obj/h/Work/CANopen/PhiCanOpen_Working/CANopenNode/CO_PDO.o
                0x000033c4                CO_TPDO_process
 .text.CO_memcpy
                0x0000349c       0x3c h:/Work/CANopen/PhiCanOpen_Working/build_root/HYDRA/debug_noOS/Example_IO_mini/obj/h/Work/CANopen/PhiCanOpen_Working/CANopenNode/CO_SDO.o
                0x0000349c                CO_memcpy
 .text.CO_getUint16
                0x000034d8       0x24 h:/Work/CANopen/PhiCanOpen_Working/build_root/HYDRA/debug_noOS/Example_IO_mini/obj/h/Work/CANopen/PhiCanOpen_Working/CANopenNode/CO_SDO.o
                0x000034d8                CO_getUint16
 .text.CO_getUint32
                0x000034fc       0x30 h:/Work/CANopen/PhiCanOpen_Working/build_root/HYDRA/debug_noOS/Example_IO_mini/obj/h/Work/CANopen/PhiCanOpen_Working/CANopenNode/CO_SDO.o
                0x000034fc                CO_getUint32
 .text.CO_setUint32
                0x0000352c       0x38 h:/Work/CANopen/PhiCanOpen_Working/build_root/HYDRA/debug_noOS/Example_IO_mini/obj/h/Work/CANopen/PhiCanOpen_Working/CANopenNode/CO_SDO.o
                0x0000352c                CO_setUint32
 .text.CO_memcpySwap2
                0x00003564       0x28 h:/Work/CANopen/PhiCanOpen_Working/build_root/HYDRA/debug_noOS/Example_IO_mini/obj/h/Work/CANopen/PhiCanOpen_Working/CANopenNode/CO_SDO.o
                0x00003564                CO_memcpySwap2
 .text.CO_memcpySwap4
                0x0000358c       0x3c h:/Work/CANopen/PhiCanOpen_Working/build_root/HYDRA/debug_noOS/Example_IO_mini/obj/h/Work/CANopen/PhiCanOpen_Working/CANopenNode/CO_SDO.o
                0x0000358c                CO_memcpySwap4
 .text.CO_SDO_receive
                0x000035c8      0x174 h:/Work/CANopen/PhiCanOpen_Working/build_root/HYDRA/debug_noOS/Example_IO_mini/obj/h/Work/CANopen/PhiCanOpen_Working/CANopenNode/CO_SDO.o
 .text.CO_ODF_1200
                0x0000373c       0x50 h:/Work/CANopen/PhiCanOpen_Working/build_root/HYDRA/debug_noOS/Example_IO_mini/obj/h/Work/CANopen/PhiCanOpen_Working/CANopenNode/CO_SDO.o
 .text.CO_SDO_init
                0x0000378c      0x140 h:/Work/CANopen/PhiCanOpen_Working/build_root/HYDRA/debug_noOS/Example_IO_mini/obj/h/Work/CANopen/PhiCanOpen_Working/CANopenNode/CO_SDO.o
                0x0000378c                CO_SDO_init
 .text.CO_OD_configure
                0x000038cc       0xa8 h:/Work/CANopen/PhiCanOpen_Working/build_root/HYDRA/debug_noOS/Example_IO_mini/obj/h/Work/CANopen/PhiCanOpen_Working/CANopenNode/CO_SDO.o
                0x000038cc                CO_OD_configure
 .text.CO_OD_find
                0x00003974       0xac h:/Work/CANopen/PhiCanOpen_Working/build_root/HYDRA/debug_noOS/Example_IO_mini/obj/h/Work/CANopen/PhiCanOpen_Working/CANopenNode/CO_SDO.o
                0x00003974                CO_OD_find
 .text.CO_OD_getLength
                0x00003a20       0x9c h:/Work/CANopen/PhiCanOpen_Working/build_root/HYDRA/debug_noOS/Example_IO_mini/obj/h/Work/CANopen/PhiCanOpen_Working/CANopenNode/CO_SDO.o
                0x00003a20                CO_OD_getLength
 .text.CO_OD_getAttribute
                0x00003abc       0x84 h:/Work/CANopen/PhiCanOpen_Working/build_root/HYDRA/debug_noOS/Example_IO_mini/obj/h/Work/CANopen/PhiCanOpen_Working/CANopenNode/CO_SDO.o
                0x00003abc                CO_OD_getAttribute
 .text.CO_OD_getDataPointer
                0x00003b40       0x90 h:/Work/CANopen/PhiCanOpen_Working/build_root/HYDRA/debug_noOS/Example_IO_mini/obj/h/Work/CANopen/PhiCanOpen_Working/CANopenNode/CO_SDO.o
                0x00003b40                CO_OD_getDataPointer
 .text.CO_OD_getFlagsPointer
                0x00003bd0       0x4c h:/Work/CANopen/PhiCanOpen_Working/build_root/HYDRA/debug_noOS/Example_IO_mini/obj/h/Work/CANopen/PhiCanOpen_Working/CANopenNode/CO_SDO.o
                0x00003bd0                CO_OD_getFlagsPointer
 .text.CO_SDO_initTransfer
                0x00003c1c      0x144 h:/Work/CANopen/PhiCanOpen_Working/build_root/HYDRA/debug_noOS/Example_IO_mini/obj/h/Work/CANopen/PhiCanOpen_Working/CANopenNode/CO_SDO.o
                0x00003c1c                CO_SDO_initTransfer
 .text.CO_SDO_readOD
                0x00003d60      0x118 h:/Work/CANopen/PhiCanOpen_Working/build_root/HYDRA/debug_noOS/Example_IO_mini/obj/h/Work/CANopen/PhiCanOpen_Working/CANopenNode/CO_SDO.o
                0x00003d60                CO_SDO_readOD
 .text.CO_SDO_writeOD
                0x00003e78       0xf8 h:/Work/CANopen/PhiCanOpen_Working/build_root/HYDRA/debug_noOS/Example_IO_mini/obj/h/Work/CANopen/PhiCanOpen_Working/CANopenNode/CO_SDO.o
                0x00003e78                CO_SDO_writeOD
 .text.CO_SDO_abort
                0x00003f70       0x78 h:/Work/CANopen/PhiCanOpen_Working/build_root/HYDRA/debug_noOS/Example_IO_mini/obj/h/Work/CANopen/PhiCanOpen_Working/CANopenNode/CO_SDO.o
 .text.CO_SDO_process
                0x00003fe8      0xffc h:/Work/CANopen/PhiCanOpen_Working/build_root/HYDRA/debug_noOS/Example_IO_mini/obj/h/Work/CANopen/PhiCanOpen_Working/CANopenNode/CO_SDO.o
                0x00003fe8                CO_SDO_process
 .text.crc16_ccitt
                0x00004fe4       0x58 h:/Work/CANopen/PhiCanOpen_Working/build_root/HYDRA/debug_noOS/Example_IO_mini/obj/h/Work/CANopen/PhiCanOpen_Working/CANopenNode/crc16-ccitt.o
                0x00004fe4                crc16_ccitt
 .text.CO_CANmodule_init
                0x0000503c      0x12c h:/Work/CANopen/PhiCanOpen_Working/build_root/HYDRA/debug_noOS/Example_IO_mini/obj/h/Work/CANopen/PhiCanOpen_Working/CANopenNode/LPC17XX/CO_driver.o
                0x0000503c                CO_CANmodule_init
 .text.CO_CANmodule_disable
                0x00005168       0x28 h:/Work/CANopen/PhiCanOpen_Working/build_root/HYDRA/debug_noOS/Example_IO_mini/obj/h/Work/CANopen/PhiCanOpen_Working/CANopenNode/LPC17XX/CO_driver.o
                0x00005168                CO_CANmodule_disable
 .text.CO_CANrxBufferInit
                0x00005190       0xd4 h:/Work/CANopen/PhiCanOpen_Working/build_root/HYDRA/debug_noOS/Example_IO_mini/obj/h/Work/CANopen/PhiCanOpen_Working/CANopenNode/LPC17XX/CO_driver.o
                0x00005190                CO_CANrxBufferInit
 .text.CO_CANtxBufferInit
                0x00005264       0x80 h:/Work/CANopen/PhiCanOpen_Working/build_root/HYDRA/debug_noOS/Example_IO_mini/obj/h/Work/CANopen/PhiCanOpen_Working/CANopenNode/LPC17XX/CO_driver.o
                0x00005264                CO_CANtxBufferInit
 .text.CO_CANsend
                0x000052e4      0x138 h:/Work/CANopen/PhiCanOpen_Working/build_root/HYDRA/debug_noOS/Example_IO_mini/obj/h/Work/CANopen/PhiCanOpen_Working/CANopenNode/LPC17XX/CO_driver.o
                0x000052e4                CO_CANsend
 .text.CO_CANverifyErrors
                0x0000541c      0x134 h:/Work/CANopen/PhiCanOpen_Working/build_root/HYDRA/debug_noOS/Example_IO_mini/obj/h/Work/CANopen/PhiCanOpen_Working/CANopenNode/LPC17XX/CO_driver.o
                0x0000541c                CO_CANverifyErrors
 .text.CO_CANinterrupt
                0x00005550      0x268 h:/Work/CANopen/PhiCanOpen_Working/build_root/HYDRA/debug_noOS/Example_IO_mini/obj/h/Work/CANopen/PhiCanOpen_Working/CANopenNode/LPC17XX/CO_driver.o
                0x00005550                CO_CANinterrupt
 .text.CO_hal_InterruptsSaveDisable
                0x000057b8       0x20 h:/Work/CANopen/PhiCanOpen_Working/build_root/HYDRA/debug_noOS/Example_IO_mini/obj/h/Work/CANopen/PhiCanOpen_Working/CANopenNode/LPC17XX/CO_cpu.o
                0x000057b8                CO_hal_InterruptsSaveDisable
 .text.CO_hal_InterruptsRestore
                0x000057d8       0x18 h:/Work/CANopen/PhiCanOpen_Working/build_root/HYDRA/debug_noOS/Example_IO_mini/obj/h/Work/CANopen/PhiCanOpen_Working/CANopenNode/LPC17XX/CO_cpu.o
                0x000057d8                CO_hal_InterruptsRestore
 .text.can_SetBaudrate
                0x000057f0       0xe0 h:/Work/CANopen/PhiCanOpen_Working/build_root/HYDRA/debug_noOS/CDL\libCDL.a(lpc17xx_can.o)
 .text.CAN_Init
                0x000058d0       0xc8 h:/Work/CANopen/PhiCanOpen_Working/build_root/HYDRA/debug_noOS/CDL\libCDL.a(lpc17xx_can.o)
                0x000058d0                CAN_Init
 .text.CAN_DeInit
                0x00005998       0x30 h:/Work/CANopen/PhiCanOpen_Working/build_root/HYDRA/debug_noOS/CDL\libCDL.a(lpc17xx_can.o)
                0x00005998                CAN_DeInit
 .text.CAN_LoadExplicitEntry
                0x000059c8      0x49c h:/Work/CANopen/PhiCanOpen_Working/build_root/HYDRA/debug_noOS/CDL\libCDL.a(lpc17xx_can.o)
                0x000059c8                CAN_LoadExplicitEntry
 .text.CAN_SendMsg
                0x00005e64      0x278 h:/Work/CANopen/PhiCanOpen_Working/build_root/HYDRA/debug_noOS/CDL\libCDL.a(lpc17xx_can.o)
                0x00005e64                CAN_SendMsg
 .text.CAN_ReceiveMsg
                0x000060dc       0xdc h:/Work/CANopen/PhiCanOpen_Working/build_root/HYDRA/debug_noOS/CDL\libCDL.a(lpc17xx_can.o)
                0x000060dc                CAN_ReceiveMsg
 .text.CAN_GetCTRLStatus
                0x000061b8       0x3c h:/Work/CANopen/PhiCanOpen_Working/build_root/HYDRA/debug_noOS/CDL\libCDL.a(lpc17xx_can.o)
                0x000061b8                CAN_GetCTRLStatus
 .text.CAN_IRQCmd
                0x000061f4       0x80 h:/Work/CANopen/PhiCanOpen_Working/build_root/HYDRA/debug_noOS/CDL\libCDL.a(lpc17xx_can.o)
                0x000061f4                CAN_IRQCmd
 .text.CAN_SetAFMode
                0x00006274       0x54 h:/Work/CANopen/PhiCanOpen_Working/build_root/HYDRA/debug_noOS/CDL\libCDL.a(lpc17xx_can.o)
                0x00006274                CAN_SetAFMode
 .text.CAN_ModeConfig
                0x000062c8      0x170 h:/Work/CANopen/PhiCanOpen_Working/build_root/HYDRA/debug_noOS/CDL\libCDL.a(lpc17xx_can.o)
                0x000062c8                CAN_ModeConfig
 .text.CAN_IntGetStatus
                0x00006438       0x18 h:/Work/CANopen/PhiCanOpen_Working/build_root/HYDRA/debug_noOS/CDL\libCDL.a(lpc17xx_can.o)
                0x00006438                CAN_IntGetStatus
 .text.CLKPWR_SetPCLKDiv
                0x00006450       0x8c h:/Work/CANopen/PhiCanOpen_Working/build_root/HYDRA/debug_noOS/CDL\libCDL.a(lpc17xx_clkpwr.o)
                0x00006450                CLKPWR_SetPCLKDiv
 .text.CLKPWR_GetPCLKSEL
                0x000064dc       0x4c h:/Work/CANopen/PhiCanOpen_Working/build_root/HYDRA/debug_noOS/CDL\libCDL.a(lpc17xx_clkpwr.o)
                0x000064dc                CLKPWR_GetPCLKSEL
 .text.CLKPWR_GetPCLK
                0x00006528       0x64 h:/Work/CANopen/PhiCanOpen_Working/build_root/HYDRA/debug_noOS/CDL\libCDL.a(lpc17xx_clkpwr.o)
                0x00006528                CLKPWR_GetPCLK
 .text.CLKPWR_ConfigPPWR
                0x0000658c       0x58 h:/Work/CANopen/PhiCanOpen_Working/build_root/HYDRA/debug_noOS/CDL\libCDL.a(lpc17xx_clkpwr.o)
                0x0000658c                CLKPWR_ConfigPPWR
 .text.UARTPutChar
                0x000065e4       0x20 h:/Work/CANopen/PhiCanOpen_Working/build_root/HYDRA/debug_noOS/CDL\libCDL.a(lpc17xx_debug_frmwrk.o)
                0x000065e4                UARTPutChar
 .text.UARTPuts
                0x00006604       0x30 h:/Work/CANopen/PhiCanOpen_Working/build_root/HYDRA/debug_noOS/CDL\libCDL.a(lpc17xx_debug_frmwrk.o)
                0x00006604                UARTPuts
 .text.GPIO_GetPointer
                0x00006634       0x74 h:/Work/CANopen/PhiCanOpen_Working/build_root/HYDRA/debug_noOS/CDL\libCDL.a(lpc17xx_gpio.o)
 .text.GPIO_SetDir
                0x000066a8       0x48 h:/Work/CANopen/PhiCanOpen_Working/build_root/HYDRA/debug_noOS/CDL\libCDL.a(lpc17xx_gpio.o)
                0x000066a8                GPIO_SetDir
 .text.GPIO_SetValue
                0x000066f0       0x28 h:/Work/CANopen/PhiCanOpen_Working/build_root/HYDRA/debug_noOS/CDL\libCDL.a(lpc17xx_gpio.o)
                0x000066f0                GPIO_SetValue
 .text.GPIO_ClearValue
                0x00006718       0x28 h:/Work/CANopen/PhiCanOpen_Working/build_root/HYDRA/debug_noOS/CDL\libCDL.a(lpc17xx_gpio.o)
                0x00006718                GPIO_ClearValue
 .text.GPIO_ReadValue
                0x00006740       0x2c h:/Work/CANopen/PhiCanOpen_Working/build_root/HYDRA/debug_noOS/CDL\libCDL.a(lpc17xx_gpio.o)
                0x00006740                GPIO_ReadValue
 .text.FIO_SetDir
                0x0000676c       0x24 h:/Work/CANopen/PhiCanOpen_Working/build_root/HYDRA/debug_noOS/CDL\libCDL.a(lpc17xx_gpio.o)
                0x0000676c                FIO_SetDir
 .text.FIO_SetValue
                0x00006790       0x1c h:/Work/CANopen/PhiCanOpen_Working/build_root/HYDRA/debug_noOS/CDL\libCDL.a(lpc17xx_gpio.o)
                0x00006790                FIO_SetValue
 .text.FIO_ClearValue
                0x000067ac       0x1c h:/Work/CANopen/PhiCanOpen_Working/build_root/HYDRA/debug_noOS/CDL\libCDL.a(lpc17xx_gpio.o)
                0x000067ac                FIO_ClearValue
 .text.FIO_ReadValue
                0x000067c8       0x1c h:/Work/CANopen/PhiCanOpen_Working/build_root/HYDRA/debug_noOS/CDL\libCDL.a(lpc17xx_gpio.o)
                0x000067c8                FIO_ReadValue
 .text.set_PinFunc
                0x000067e4       0x84 h:/Work/CANopen/PhiCanOpen_Working/build_root/HYDRA/debug_noOS/CDL\libCDL.a(lpc17xx_pinsel.o)
 .text.set_ResistorMode
                0x00006868       0x84 h:/Work/CANopen/PhiCanOpen_Working/build_root/HYDRA/debug_noOS/CDL\libCDL.a(lpc17xx_pinsel.o)
 .text.set_OpenDrainMode
                0x000068ec       0x6c h:/Work/CANopen/PhiCanOpen_Working/build_root/HYDRA/debug_noOS/CDL\libCDL.a(lpc17xx_pinsel.o)
 .text.PINSEL_ConfigPin
                0x00006958       0x50 h:/Work/CANopen/PhiCanOpen_Working/build_root/HYDRA/debug_noOS/CDL\libCDL.a(lpc17xx_pinsel.o)
                0x00006958                PINSEL_ConfigPin
 .text.getPClock
                0x000069a8       0x58 h:/Work/CANopen/PhiCanOpen_Working/build_root/HYDRA/debug_noOS/CDL\libCDL.a(lpc17xx_timer.o)
 .text.converUSecToVal
                0x00006a00       0x60 h:/Work/CANopen/PhiCanOpen_Working/build_root/HYDRA/debug_noOS/CDL\libCDL.a(lpc17xx_timer.o)
 .text.converPtrToTimeNum
                0x00006a60       0x60 h:/Work/CANopen/PhiCanOpen_Working/build_root/HYDRA/debug_noOS/CDL\libCDL.a(lpc17xx_timer.o)
 .text.TIM_ClearIntPending
                0x00006ac0       0x24 h:/Work/CANopen/PhiCanOpen_Working/build_root/HYDRA/debug_noOS/CDL\libCDL.a(lpc17xx_timer.o)
                0x00006ac0                TIM_ClearIntPending
 .text.TIM_ConfigStructInit
                0x00006ae4       0x38 h:/Work/CANopen/PhiCanOpen_Working/build_root/HYDRA/debug_noOS/CDL\libCDL.a(lpc17xx_timer.o)
                0x00006ae4                TIM_ConfigStructInit
 .text.TIM_Init
                0x00006b1c      0x130 h:/Work/CANopen/PhiCanOpen_Working/build_root/HYDRA/debug_noOS/CDL\libCDL.a(lpc17xx_timer.o)
                0x00006b1c                TIM_Init
 .text.TIM_Cmd  0x00006c4c       0x38 h:/Work/CANopen/PhiCanOpen_Working/build_root/HYDRA/debug_noOS/CDL\libCDL.a(lpc17xx_timer.o)
                0x00006c4c                TIM_Cmd
 .text.TIM_ConfigMatch
                0x00006c84      0x12c h:/Work/CANopen/PhiCanOpen_Working/build_root/HYDRA/debug_noOS/CDL\libCDL.a(lpc17xx_timer.o)
                0x00006c84                TIM_ConfigMatch
 .text.lpc17xx_uartCalcBrr
                0x00006db0      0x230 h:/Work/CANopen/PhiCanOpen_Working/build_root/HYDRA/debug_noOS/CDL\libCDL.a(lpc17xx_uart.o)
                0x00006db0                lpc17xx_uartCalcBrr
 .text.uart_set_divisors
                0x00006fe0      0x130 h:/Work/CANopen/PhiCanOpen_Working/build_root/HYDRA/debug_noOS/CDL\libCDL.a(lpc17xx_uart.o)
 .text.UART_Init
                0x00007110      0x240 h:/Work/CANopen/PhiCanOpen_Working/build_root/HYDRA/debug_noOS/CDL\libCDL.a(lpc17xx_uart.o)
                0x00007110                UART_Init
 .text.UART_ConfigStructInit
                0x00007350       0x2c h:/Work/CANopen/PhiCanOpen_Working/build_root/HYDRA/debug_noOS/CDL\libCDL.a(lpc17xx_uart.o)
                0x00007350                UART_ConfigStructInit
 .text.UART_SendByte
                0x0000737c       0x30 h:/Work/CANopen/PhiCanOpen_Working/build_root/HYDRA/debug_noOS/CDL\libCDL.a(lpc17xx_uart.o)
                0x0000737c                UART_SendByte
 .text.UART_Send
                0x000073ac       0xe8 h:/Work/CANopen/PhiCanOpen_Working/build_root/HYDRA/debug_noOS/CDL\libCDL.a(lpc17xx_uart.o)
                0x000073ac                UART_Send
 .text.UART_TxCmd
                0x00007494       0x7c h:/Work/CANopen/PhiCanOpen_Working/build_root/HYDRA/debug_noOS/CDL\libCDL.a(lpc17xx_uart.o)
                0x00007494                UART_TxCmd
 .text.WDT_SetTimeOut
                0x00007510      0x138 h:/Work/CANopen/PhiCanOpen_Working/build_root/HYDRA/debug_noOS/CDL\libCDL.a(lpc17xx_wdt.o)
 .text.WDT_Init
                0x00007648       0x58 h:/Work/CANopen/PhiCanOpen_Working/build_root/HYDRA/debug_noOS/CDL\libCDL.a(lpc17xx_wdt.o)
                0x00007648                WDT_Init
 .text.WDT_Start
                0x000076a0       0x44 h:/Work/CANopen/PhiCanOpen_Working/build_root/HYDRA/debug_noOS/CDL\libCDL.a(lpc17xx_wdt.o)
                0x000076a0                WDT_Start
 .text.WDT_Feed
                0x000076e4       0x20 h:/Work/CANopen/PhiCanOpen_Working/build_root/HYDRA/debug_noOS/CDL\libCDL.a(lpc17xx_wdt.o)
                0x000076e4                WDT_Feed
 .text.SystemInit
                0x00007704      0x150 h:/Work/CANopen/PhiCanOpen_Working/build_root/HYDRA/debug_noOS/CDL\libCDL.a(system_LPC17xx.o)
                0x00007704                SystemInit
 .text          0x00007854      0x370 h:/arm-non-eabi/bin/../lib/gcc/arm-none-eabi/4.8.4/armv7-m\libgcc.a(_arm_addsubdf3.o)
                0x00007854                __aeabi_drsub
                0x0000785c                __aeabi_dsub
                0x0000785c                __subdf3
                0x00007860                __aeabi_dadd
                0x00007860                __adddf3
                0x00007ad8                __floatunsidf
                0x00007ad8                __aeabi_ui2d
                0x00007af8                __floatsidf
                0x00007af8                __aeabi_i2d
                0x00007b1c                __aeabi_f2d
                0x00007b1c                __extendsfdf2
                0x00007b58                __floatundidf
                0x00007b58                __aeabi_ul2d
                0x00007b68                __floatdidf
                0x00007b68                __aeabi_l2d
 .text          0x00007bc4      0x110 h:/arm-non-eabi/bin/../lib/gcc/arm-none-eabi/4.8.4/armv7-m\libgcc.a(_arm_cmpdf2.o)
                0x00007bc4                __gtdf2
                0x00007bc4                __gedf2
                0x00007bcc                __ltdf2
                0x00007bcc                __ledf2
                0x00007bd4                __nedf2
                0x00007bd4                __eqdf2
                0x00007bd4                __cmpdf2
                0x00007c50                __aeabi_cdrcmple
                0x00007c60                __aeabi_cdcmpeq
                0x00007c60                __aeabi_cdcmple
                0x00007c70                __aeabi_dcmpeq
                0x00007c84                __aeabi_dcmplt
                0x00007c98                __aeabi_dcmple
                0x00007cac                __aeabi_dcmpge
                0x00007cc0                __aeabi_dcmpgt
 .text          0x00007cd4       0xa0 h:/arm-non-eabi/bin/../lib/gcc/arm-none-eabi/4.8.4/armv7-m\libgcc.a(_arm_truncdfsf2.o)
                0x00007cd4                __truncdfsf2
                0x00007cd4                __aeabi_d2f
 .text          0x00007d74      0x21c h:/arm-non-eabi/bin/../lib/gcc/arm-none-eabi/4.8.4/armv7-m\libgcc.a(_arm_addsubsf3.o)
                0x00007d74                __aeabi_frsub
                0x00007d7c                __subsf3
                0x00007d7c                __aeabi_fsub
                0x00007d80                __aeabi_fadd
                0x00007d80                __addsf3
                0x00007ee0                __aeabi_ui2f
                0x00007ee0                __floatunsisf
                0x00007ee8                __aeabi_i2f
                0x00007ee8                __floatsisf
                0x00007f04                __aeabi_ul2f
                0x00007f04                __floatundisf
                0x00007f14                __aeabi_l2f
                0x00007f14                __floatdisf
 .text          0x00007f90      0x2a0 h:/arm-non-eabi/bin/../lib/gcc/arm-none-eabi/4.8.4/armv7-m\libgcc.a(_arm_muldivsf3.o)
                0x00007f90                __mulsf3
                0x00007f90                __aeabi_fmul
                0x000080f8                __aeabi_fdiv
                0x000080f8                __divsf3
 .text          0x00008230       0xec h:/arm-non-eabi/bin/../lib/gcc/arm-none-eabi/4.8.4/armv7-m\libgcc.a(_arm_cmpsf2.o)
                0x00008230                __gesf2
                0x00008230                __gtsf2
                0x00008238                __lesf2
                0x00008238                __ltsf2
                0x00008240                __nesf2
                0x00008240                __eqsf2
                0x00008240                __cmpsf2
                0x000082a0                __aeabi_cfrcmple
                0x000082a8                __aeabi_cfcmpeq
                0x000082a8                __aeabi_cfcmple
                0x000082b8                __aeabi_fcmpeq
                0x000082cc                __aeabi_fcmplt
                0x000082e0                __aeabi_fcmple
                0x000082f4                __aeabi_fcmpge
                0x00008308                __aeabi_fcmpgt
 .text          0x0000831c       0x40 h:/arm-non-eabi/bin/../lib/gcc/arm-none-eabi/4.8.4/armv7-m\libgcc.a(_arm_fixunssfsi.o)
                0x0000831c                __fixunssfsi
                0x0000831c                __aeabi_f2uiz
 .text          0x0000835c       0x2c h:/arm-non-eabi/bin/../lib/gcc/arm-none-eabi/4.8.4/armv7-m\libgcc.a(_aeabi_uldivmod.o)
                0x0000835c                __aeabi_uldivmod
 .text          0x00008388       0x60 h:/arm-non-eabi/bin/../lib/gcc/arm-none-eabi/4.8.4/armv7-m\libgcc.a(bpabi.o)
                0x00008388                __gnu_ldivmod_helper
                0x000083b8                __gnu_uldivmod_helper
 .text          0x000083e8        0x4 h:/arm-non-eabi/bin/../lib/gcc/arm-none-eabi/4.8.4/armv7-m\libgcc.a(_dvmd_tls.o)
                0x000083e8                __aeabi_idiv0
                0x000083e8                __aeabi_ldiv0
 .text          0x000083ec      0x2a0 h:/arm-non-eabi/bin/../lib/gcc/arm-none-eabi/4.8.4/armv7-m\libgcc.a(_divdi3.o)
                0x000083ec                __divdi3
 .text          0x0000868c      0x290 h:/arm-non-eabi/bin/../lib/gcc/arm-none-eabi/4.8.4/armv7-m\libgcc.a(_udivdi3.o)
                0x0000868c                __udivdi3
                0x0000891c                . = ALIGN (0x4)
 *(.glue_7t)
 .glue_7t       0x00000000        0x0 linker stubs
                0x0000891c                . = ALIGN (0x4)
 *(.glue_7)
 .glue_7        0x00000000        0x0 linker stubs
                0x0000891c                . = ALIGN (0x4)
                0x0000891c                __exidx_start = .

.vfp11_veneer   0x0000891c        0x0
 .vfp11_veneer  0x00000000        0x0 linker stubs

.v4_bx          0x0000891c        0x0
 .v4_bx         0x00000000        0x0 linker stubs

.iplt           0x0000891c        0x0
 .iplt          0x00000000        0x0 h:/Work/CANopen/PhiCanOpen_Working/build_root/HYDRA/debug_noOS/Example_IO_mini/obj/Example_IO_mini.o

.after_vectors  0x0000891c      0x12c
 .after_vectors
                0x0000891c      0x12c h:/Work/CANopen/PhiCanOpen_Working/build_root/HYDRA/debug_noOS/CDL\libCDL.a(cr_startup_lpc176x.o)
                0x0000891c                data_init
                0x00008960                bss_init
                0x00008998                ResetISR
                0x000089f8                NMI_Handler
                0x00008a00                HardFault_Handler
                0x00008a08                MemManage_Handler
                0x00008a10                BusFault_Handler
                0x00008a18                UsageFault_Handler
                0x00008a20                SVCall_Handler
                0x00008a28                DebugMon_Handler
                0x00008a30                PendSV_Handler
                0x00008a38                SysTick_Handler
                0x00008a40                EINT2_IRQHandler
                0x00008a40                UART1_IRQHandler
                0x00008a40                EINT3_IRQHandler
                0x00008a40                CANActivity_IRQHandler
                0x00008a40                TIMER3_IRQHandler
                0x00008a40                UART0_IRQHandler
                0x00008a40                USBActivity_IRQHandler
                0x00008a40                I2C1_IRQHandler
                0x00008a40                IntDefaultHandler
                0x00008a40                I2C0_IRQHandler
                0x00008a40                PLL1_IRQHandler
                0x00008a40                PWM1_IRQHandler
                0x00008a40                I2S_IRQHandler
                0x00008a40                I2C2_IRQHandler
                0x00008a40                RTC_IRQHandler
                0x00008a40                SPI_IRQHandler
                0x00008a40                RIT_IRQHandler
                0x00008a40                EINT1_IRQHandler
                0x00008a40                TIMER1_IRQHandler
                0x00008a40                UART2_IRQHandler
                0x00008a40                ADC_IRQHandler
                0x00008a40                SSP1_IRQHandler
                0x00008a40                USB_IRQHandler
                0x00008a40                BOD_IRQHandler
                0x00008a40                SSP0_IRQHandler
                0x00008a40                WDT_IRQHandler
                0x00008a40                QEI_IRQHandler
                0x00008a40                EINT0_IRQHandler
                0x00008a40                TIMER2_IRQHandler
                0x00008a40                DMA_IRQHandler
                0x00008a40                PLL0_IRQHandler
                0x00008a40                UART3_IRQHandler
                0x00008a40                MCPWM_IRQHandler
                0x00008a40                ENET_IRQHandler

.ARM.exidx      0x00008a48        0x8
 *(.ARM.exidx* .gnu.linkonce.armexidx.*)
 .ARM.exidx     0x00008a48        0x8 h:/arm-non-eabi/bin/../lib/gcc/arm-none-eabi/4.8.4/armv7-m\libgcc.a(_divdi3.o)
 .ARM.exidx     0x00008a50        0x0 h:/arm-non-eabi/bin/../lib/gcc/arm-none-eabi/4.8.4/armv7-m\libgcc.a(_udivdi3.o)
                                  0x8 (size before relaxing)
                0x00008a50                __exidx_end = .

.rel.dyn        0x00008a50        0x0
 .rel.iplt      0x00000000        0x0 h:/Work/CANopen/PhiCanOpen_Working/build_root/HYDRA/debug_noOS/Example_IO_mini/obj/Example_IO_mini.o
                0x00008a50                . = ALIGN (0x4)
                0x00008a50                _etext = .
                0x00008a50                PROVIDE (_etext, .)

.data           0x10000000      0x618 load address 0x00008a50
                0x10000000                . = ALIGN (0x400)
                0x10000000                PROVIDE (_data, .)
 *(vtable)
                0x10000000                . = ALIGN (0x4)
 *(.ramfunc)
                0x10000000                . = ALIGN (0x4)
 *(.data .data.*)
 .data.CO_OD_RAM
                0x10000000      0x130 h:/Work/CANopen/PhiCanOpen_Working/build_root/HYDRA/debug_noOS/Example_IO_mini/obj/CO_OD.o
                0x10000000                CO_OD_RAM
 .data.CO_OD_EEPROM
                0x10000130       0x4c h:/Work/CANopen/PhiCanOpen_Working/build_root/HYDRA/debug_noOS/Example_IO_mini/obj/CO_OD.o
                0x10000130                CO_OD_EEPROM
 .data.CO_OD_ROM
                0x1000017c      0x258 h:/Work/CANopen/PhiCanOpen_Working/build_root/HYDRA/debug_noOS/Example_IO_mini/obj/CO_OD.o
                0x1000017c                CO_OD_ROM
 .data.fract_divs
                0x100003d4      0x240 h:/Work/CANopen/PhiCanOpen_Working/build_root/HYDRA/debug_noOS/CDL\libCDL.a(lpc17xx_uart.o)
 .data.SystemCoreClock
                0x10000614        0x4 h:/Work/CANopen/PhiCanOpen_Working/build_root/HYDRA/debug_noOS/CDL\libCDL.a(system_LPC17xx.o)
                0x10000614                SystemCoreClock
                0x10000618                . = ALIGN (0x4)
                0x10000618                PROVIDE (__preinit_array_start, .)
 *(.preinit_array)
                0x10000618                PROVIDE (__preinit_array_end, .)
                0x10000618                . = ALIGN (0x4)
                0x10000618                PROVIDE (__init_array_start, .)
 *(SORT(.init_array.*))
 *(.init_array)
                0x10000618                PROVIDE (__init_array_end, .)
                0x10000618                . = ALIGN (0x4)
                0x10000618                PROVIDE (__fini_array_start, .)
 *(SORT(.fini_array.*))
 *(.fini_array)
                0x10000618                PROVIDE (__fini_array_end, .)
                0x10000618                . = ALIGN (0x4)
                0x10000618                _edata = .
                0x10000618                PROVIDE (_edata, .)

.igot.plt       0x10000618        0x0 load address 0x00009068
 .igot.plt      0x00000000        0x0 h:/Work/CANopen/PhiCanOpen_Working/build_root/HYDRA/debug_noOS/Example_IO_mini/obj/Example_IO_mini.o

.bss_RAM2       0x2007c000        0x0
 *(usbram)
 *(.bss.$RamPeriph32*)
                0x2007c000                . = ALIGN (0x4)

.bss            0x10000618      0x794 load address 0x00009068
                0x10000618                PROVIDE (_bss, .)
 *(.bss .bss.*)
 .bss.CO_timer1ms
                0x10000618        0x2 h:/Work/CANopen/PhiCanOpen_Working/build_root/HYDRA/debug_noOS/Example_IO_mini/obj/Example_IO_mini.o
 *fill*         0x1000061a        0x2 
 .bss.gs_dbgMsg
                0x1000061c       0x40 h:/Work/CANopen/PhiCanOpen_Working/build_root/HYDRA/debug_noOS/Example_IO_mini/obj/Example_IO_mini.o
 .bss.offset.8204
                0x1000065c        0x4 h:/Work/CANopen/PhiCanOpen_Working/build_root/HYDRA/debug_noOS/Example_IO_mini/obj/Example_IO_mini.o
 .bss.offset.8213
                0x10000660        0x4 h:/Work/CANopen/PhiCanOpen_Working/build_root/HYDRA/debug_noOS/Example_IO_mini/obj/Example_IO_mini.o
 .bss.COO       0x10000664       0x34 h:/Work/CANopen/PhiCanOpen_Working/build_root/HYDRA/debug_noOS/Example_IO_mini/obj/h/Work/CANopen/PhiCanOpen_Working/CANopenNode/CANopen.o
 .bss.CO        0x10000698        0x4 h:/Work/CANopen/PhiCanOpen_Working/build_root/HYDRA/debug_noOS/Example_IO_mini/obj/h/Work/CANopen/PhiCanOpen_Working/CANopenNode/CANopen.o
                0x10000698                CO
 .bss.CO_CANmodule_rxArray0
                0x1000069c        0x4 h:/Work/CANopen/PhiCanOpen_Working/build_root/HYDRA/debug_noOS/Example_IO_mini/obj/h/Work/CANopen/PhiCanOpen_Working/CANopenNode/CANopen.o
 .bss.CO_CANmodule_txArray0
                0x100006a0        0x4 h:/Work/CANopen/PhiCanOpen_Working/build_root/HYDRA/debug_noOS/Example_IO_mini/obj/h/Work/CANopen/PhiCanOpen_Working/CANopenNode/CANopen.o
 .bss.CO_SDO_ODExtensions
                0x100006a4        0x4 h:/Work/CANopen/PhiCanOpen_Working/build_root/HYDRA/debug_noOS/Example_IO_mini/obj/h/Work/CANopen/PhiCanOpen_Working/CANopenNode/CANopen.o
 .bss.COO_CANmodule
                0x100006a8       0x20 h:/Work/CANopen/PhiCanOpen_Working/build_root/HYDRA/debug_noOS/Example_IO_mini/obj/h/Work/CANopen/PhiCanOpen_Working/CANopenNode/CANopen.o
 .bss.COO_CANmodule_rxArray0
                0x100006c8       0x48 h:/Work/CANopen/PhiCanOpen_Working/build_root/HYDRA/debug_noOS/Example_IO_mini/obj/h/Work/CANopen/PhiCanOpen_Working/CANopenNode/CANopen.o
 .bss.COO_CANmodule_txArray0
                0x10000710       0x64 h:/Work/CANopen/PhiCanOpen_Working/build_root/HYDRA/debug_noOS/Example_IO_mini/obj/h/Work/CANopen/PhiCanOpen_Working/CANopenNode/CANopen.o
 .bss.COO_SDO   0x10000774       0x7c h:/Work/CANopen/PhiCanOpen_Working/build_root/HYDRA/debug_noOS/Example_IO_mini/obj/h/Work/CANopen/PhiCanOpen_Working/CANopenNode/CANopen.o
 .bss.COO_SDO_ODExtensions
                0x100007f0      0x288 h:/Work/CANopen/PhiCanOpen_Working/build_root/HYDRA/debug_noOS/Example_IO_mini/obj/h/Work/CANopen/PhiCanOpen_Working/CANopenNode/CANopen.o
 .bss.COO_EM    0x10000a78       0x68 h:/Work/CANopen/PhiCanOpen_Working/build_root/HYDRA/debug_noOS/Example_IO_mini/obj/h/Work/CANopen/PhiCanOpen_Working/CANopenNode/CANopen.o
 .bss.COO_EMpr  0x10000ae0       0x18 h:/Work/CANopen/PhiCanOpen_Working/build_root/HYDRA/debug_noOS/Example_IO_mini/obj/h/Work/CANopen/PhiCanOpen_Working/CANopenNode/CANopen.o
 .bss.COO_NMT   0x10000af8       0x1c h:/Work/CANopen/PhiCanOpen_Working/build_root/HYDRA/debug_noOS/Example_IO_mini/obj/h/Work/CANopen/PhiCanOpen_Working/CANopenNode/CANopen.o
 .bss.COO_RPDO  0x10000b14      0x140 h:/Work/CANopen/PhiCanOpen_Working/build_root/HYDRA/debug_noOS/Example_IO_mini/obj/h/Work/CANopen/PhiCanOpen_Working/CANopenNode/CANopen.o
 .bss.COO_TPDO  0x10000c54      0x140 h:/Work/CANopen/PhiCanOpen_Working/build_root/HYDRA/debug_noOS/Example_IO_mini/obj/h/Work/CANopen/PhiCanOpen_Working/CANopenNode/CANopen.o
 .bss.ms50.6356
                0x10000d94        0x1 h:/Work/CANopen/PhiCanOpen_Working/build_root/HYDRA/debug_noOS/Example_IO_mini/obj/h/Work/CANopen/PhiCanOpen_Working/CANopenNode/CANopen.o
 *fill*         0x10000d95        0x3 
 .bss.dummyRX.6589
                0x10000d98        0x4 h:/Work/CANopen/PhiCanOpen_Working/build_root/HYDRA/debug_noOS/Example_IO_mini/obj/h/Work/CANopen/PhiCanOpen_Working/CANopenNode/CO_PDO.o
 .bss.dummyTX.6588
                0x10000d9c        0x4 h:/Work/CANopen/PhiCanOpen_Working/build_root/HYDRA/debug_noOS/Example_IO_mini/obj/h/Work/CANopen/PhiCanOpen_Working/CANopenNode/CO_PDO.o
 .bss.CANAF_FullCAN_cnt
                0x10000da0        0x2 h:/Work/CANopen/PhiCanOpen_Working/build_root/HYDRA/debug_noOS/CDL\libCDL.a(lpc17xx_can.o)
                0x10000da0                CANAF_FullCAN_cnt
 .bss.CANAF_std_cnt
                0x10000da2        0x2 h:/Work/CANopen/PhiCanOpen_Working/build_root/HYDRA/debug_noOS/CDL\libCDL.a(lpc17xx_can.o)
                0x10000da2                CANAF_std_cnt
 .bss.CANAF_gstd_cnt
                0x10000da4        0x2 h:/Work/CANopen/PhiCanOpen_Working/build_root/HYDRA/debug_noOS/CDL\libCDL.a(lpc17xx_can.o)
                0x10000da4                CANAF_gstd_cnt
 .bss.CANAF_ext_cnt
                0x10000da6        0x2 h:/Work/CANopen/PhiCanOpen_Working/build_root/HYDRA/debug_noOS/CDL\libCDL.a(lpc17xx_can.o)
                0x10000da6                CANAF_ext_cnt
 .bss.CANAF_gext_cnt
                0x10000da8        0x2 h:/Work/CANopen/PhiCanOpen_Working/build_root/HYDRA/debug_noOS/CDL\libCDL.a(lpc17xx_can.o)
                0x10000da8                CANAF_gext_cnt
                0x10000dac                . = ALIGN (0x4)
 *fill*         0x10000daa        0x2 
 *(COMMON)
                0x10000dac                . = ALIGN (0x4)
                0x10000dac                PROVIDE (_ebss, .)
                0x10000dac                PROVIDE (__msp_start, .)
                0x10000db0                . = ALIGN (0x8)
                0x100018b0                . = (. + STACK_SIZE)
                0x100018b0                PROVIDE (__msp_end, .)
                0x100018b0                PROVIDE (__psp_start, .)
                0x100018b0                . = ALIGN (0x8)
                0x10001eb0                . = (. + OS_STACK_SIZE)
                0x10001eb0                PROVIDE (__psp_end, .)
                0x10001eb0                PROVIDE (_vStackTop, .)
                0x10001eb0                . = ALIGN (0x8)
                0x10001eb0                PROVIDE (__heap_start, .)
                0x10001eb0                . = ALIGN (0x8)
LOAD h:/arm-non-eabi/bin/../lib/gcc/arm-none-eabi/4.8.4/../../../../arm-none-eabi/lib/armv7-m\libm.a
START GROUP
LOAD h:/arm-non-eabi/bin/../lib/gcc/arm-none-eabi/4.8.4/armv7-m\libgcc.a
LOAD h:/arm-non-eabi/bin/../lib/gcc/arm-none-eabi/4.8.4/../../../../arm-none-eabi/lib/armv7-m\libc.a
END GROUP
OUTPUT(h:/Work/CANopen/PhiCanOpen_Working/build_root/HYDRA/debug_noOS/Example_IO_mini/images/Example_IO_mini.elf elf32-littlearm)

.debug_info     0x00000000     0xfc33
 .debug_info    0x00000000     0x1d3f h:/Work/CANopen/PhiCanOpen_Working/build_root/HYDRA/debug_noOS/Example_IO_mini/obj/Example_IO_mini.o
 .debug_info    0x00001d3f      0xad6 h:/Work/CANopen/PhiCanOpen_Working/build_root/HYDRA/debug_noOS/Example_IO_mini/obj/CO_OD.o
 .debug_info    0x00002815      0xe0a h:/Work/CANopen/PhiCanOpen_Working/build_root/HYDRA/debug_noOS/Example_IO_mini/obj/h/Work/CANopen/PhiCanOpen_Working/bsp/HYDRA/board.o
 .debug_info    0x0000361f     0x1c3c h:/Work/CANopen/PhiCanOpen_Working/build_root/HYDRA/debug_noOS/Example_IO_mini/obj/h/Work/CANopen/PhiCanOpen_Working/CANopenNode/CANopen.o
 .debug_info    0x0000525b     0x100a h:/Work/CANopen/PhiCanOpen_Working/build_root/HYDRA/debug_noOS/Example_IO_mini/obj/h/Work/CANopen/PhiCanOpen_Working/CANopenNode/CO_Emergency.o
 .debug_info    0x00006265      0x945 h:/Work/CANopen/PhiCanOpen_Working/build_root/HYDRA/debug_noOS/Example_IO_mini/obj/h/Work/CANopen/PhiCanOpen_Working/CANopenNode/CO_NMT_Heartbeat.o
 .debug_info    0x00006baa     0x179b h:/Work/CANopen/PhiCanOpen_Working/build_root/HYDRA/debug_noOS/Example_IO_mini/obj/h/Work/CANopen/PhiCanOpen_Working/CANopenNode/CO_PDO.o
 .debug_info    0x00008345     0x15bc h:/Work/CANopen/PhiCanOpen_Working/build_root/HYDRA/debug_noOS/Example_IO_mini/obj/h/Work/CANopen/PhiCanOpen_Working/CANopenNode/CO_SDO.o
 .debug_info    0x00009901      0x121 h:/Work/CANopen/PhiCanOpen_Working/build_root/HYDRA/debug_noOS/Example_IO_mini/obj/h/Work/CANopen/PhiCanOpen_Working/CANopenNode/crc16-ccitt.o
 .debug_info    0x00009a22      0xc00 h:/Work/CANopen/PhiCanOpen_Working/build_root/HYDRA/debug_noOS/Example_IO_mini/obj/h/Work/CANopen/PhiCanOpen_Working/CANopenNode/LPC17XX/CO_driver.o
 .debug_info    0x0000a622       0xf7 h:/Work/CANopen/PhiCanOpen_Working/build_root/HYDRA/debug_noOS/Example_IO_mini/obj/h/Work/CANopen/PhiCanOpen_Working/CANopenNode/LPC17XX/CO_cpu.o
 .debug_info    0x0000a719     0x110c h:/Work/CANopen/PhiCanOpen_Working/build_root/HYDRA/debug_noOS/CDL\libCDL.a(lpc17xx_can.o)
 .debug_info    0x0000b825      0x62d h:/Work/CANopen/PhiCanOpen_Working/build_root/HYDRA/debug_noOS/CDL\libCDL.a(lpc17xx_clkpwr.o)
 .debug_info    0x0000be52      0x869 h:/Work/CANopen/PhiCanOpen_Working/build_root/HYDRA/debug_noOS/CDL\libCDL.a(lpc17xx_debug_frmwrk.o)
 .debug_info    0x0000c6bb      0xd5d h:/Work/CANopen/PhiCanOpen_Working/build_root/HYDRA/debug_noOS/CDL\libCDL.a(lpc17xx_gpio.o)
 .debug_info    0x0000d418      0x476 h:/Work/CANopen/PhiCanOpen_Working/build_root/HYDRA/debug_noOS/CDL\libCDL.a(lpc17xx_pinsel.o)
 .debug_info    0x0000d88e      0x813 h:/Work/CANopen/PhiCanOpen_Working/build_root/HYDRA/debug_noOS/CDL\libCDL.a(lpc17xx_timer.o)
 .debug_info    0x0000e0a1     0x110e h:/Work/CANopen/PhiCanOpen_Working/build_root/HYDRA/debug_noOS/CDL\libCDL.a(lpc17xx_uart.o)
 .debug_info    0x0000f1af      0x350 h:/Work/CANopen/PhiCanOpen_Working/build_root/HYDRA/debug_noOS/CDL\libCDL.a(lpc17xx_wdt.o)
 .debug_info    0x0000f4ff      0x2a5 h:/Work/CANopen/PhiCanOpen_Working/build_root/HYDRA/debug_noOS/CDL\libCDL.a(cr_startup_lpc176x.o)
 .debug_info    0x0000f7a4      0x48f h:/Work/CANopen/PhiCanOpen_Working/build_root/HYDRA/debug_noOS/CDL\libCDL.a(system_LPC17xx.o)

.debug_abbrev   0x00000000     0x25d1
 .debug_abbrev  0x00000000      0x2e5 h:/Work/CANopen/PhiCanOpen_Working/build_root/HYDRA/debug_noOS/Example_IO_mini/obj/Example_IO_mini.o
 .debug_abbrev  0x000002e5      0x111 h:/Work/CANopen/PhiCanOpen_Working/build_root/HYDRA/debug_noOS/Example_IO_mini/obj/CO_OD.o
 .debug_abbrev  0x000003f6      0x2b6 h:/Work/CANopen/PhiCanOpen_Working/build_root/HYDRA/debug_noOS/Example_IO_mini/obj/h/Work/CANopen/PhiCanOpen_Working/bsp/HYDRA/board.o
 .debug_abbrev  0x000006ac      0x271 h:/Work/CANopen/PhiCanOpen_Working/build_root/HYDRA/debug_noOS/Example_IO_mini/obj/h/Work/CANopen/PhiCanOpen_Working/CANopenNode/CANopen.o
 .debug_abbrev  0x0000091d      0x242 h:/Work/CANopen/PhiCanOpen_Working/build_root/HYDRA/debug_noOS/Example_IO_mini/obj/h/Work/CANopen/PhiCanOpen_Working/CANopenNode/CO_Emergency.o
 .debug_abbrev  0x00000b5f      0x197 h:/Work/CANopen/PhiCanOpen_Working/build_root/HYDRA/debug_noOS/Example_IO_mini/obj/h/Work/CANopen/PhiCanOpen_Working/CANopenNode/CO_NMT_Heartbeat.o
 .debug_abbrev  0x00000cf6      0x27d h:/Work/CANopen/PhiCanOpen_Working/build_root/HYDRA/debug_noOS/Example_IO_mini/obj/h/Work/CANopen/PhiCanOpen_Working/CANopenNode/CO_PDO.o
 .debug_abbrev  0x00000f73      0x2b5 h:/Work/CANopen/PhiCanOpen_Working/build_root/HYDRA/debug_noOS/Example_IO_mini/obj/h/Work/CANopen/PhiCanOpen_Working/CANopenNode/CO_SDO.o
 .debug_abbrev  0x00001228       0xae h:/Work/CANopen/PhiCanOpen_Working/build_root/HYDRA/debug_noOS/Example_IO_mini/obj/h/Work/CANopen/PhiCanOpen_Working/CANopenNode/crc16-ccitt.o
 .debug_abbrev  0x000012d6      0x209 h:/Work/CANopen/PhiCanOpen_Working/build_root/HYDRA/debug_noOS/Example_IO_mini/obj/h/Work/CANopen/PhiCanOpen_Working/CANopenNode/LPC17XX/CO_driver.o
 .debug_abbrev  0x000014df       0x99 h:/Work/CANopen/PhiCanOpen_Working/build_root/HYDRA/debug_noOS/Example_IO_mini/obj/h/Work/CANopen/PhiCanOpen_Working/CANopenNode/LPC17XX/CO_cpu.o
 .debug_abbrev  0x00001578      0x1ec h:/Work/CANopen/PhiCanOpen_Working/build_root/HYDRA/debug_noOS/CDL\libCDL.a(lpc17xx_can.o)
 .debug_abbrev  0x00001764      0x1ae h:/Work/CANopen/PhiCanOpen_Working/build_root/HYDRA/debug_noOS/CDL\libCDL.a(lpc17xx_clkpwr.o)
 .debug_abbrev  0x00001912      0x1cd h:/Work/CANopen/PhiCanOpen_Working/build_root/HYDRA/debug_noOS/CDL\libCDL.a(lpc17xx_debug_frmwrk.o)
 .debug_abbrev  0x00001adf      0x20f h:/Work/CANopen/PhiCanOpen_Working/build_root/HYDRA/debug_noOS/CDL\libCDL.a(lpc17xx_gpio.o)
 .debug_abbrev  0x00001cee      0x141 h:/Work/CANopen/PhiCanOpen_Working/build_root/HYDRA/debug_noOS/CDL\libCDL.a(lpc17xx_pinsel.o)
 .debug_abbrev  0x00001e2f      0x1f8 h:/Work/CANopen/PhiCanOpen_Working/build_root/HYDRA/debug_noOS/CDL\libCDL.a(lpc17xx_timer.o)
 .debug_abbrev  0x00002027      0x240 h:/Work/CANopen/PhiCanOpen_Working/build_root/HYDRA/debug_noOS/CDL\libCDL.a(lpc17xx_uart.o)
 .debug_abbrev  0x00002267      0x180 h:/Work/CANopen/PhiCanOpen_Working/build_root/HYDRA/debug_noOS/CDL\libCDL.a(lpc17xx_wdt.o)
 .debug_abbrev  0x000023e7      0x100 h:/Work/CANopen/PhiCanOpen_Working/build_root/HYDRA/debug_noOS/CDL\libCDL.a(cr_startup_lpc176x.o)
 .debug_abbrev  0x000024e7       0xea h:/Work/CANopen/PhiCanOpen_Working/build_root/HYDRA/debug_noOS/CDL\libCDL.a(system_LPC17xx.o)

.debug_aranges  0x00000000      0x940
 .debug_aranges
                0x00000000       0x70 h:/Work/CANopen/PhiCanOpen_Working/build_root/HYDRA/debug_noOS/Example_IO_mini/obj/Example_IO_mini.o
 .debug_aranges
                0x00000070       0x18 h:/Work/CANopen/PhiCanOpen_Working/build_root/HYDRA/debug_noOS/Example_IO_mini/obj/CO_OD.o
 .debug_aranges
                0x00000088       0x90 h:/Work/CANopen/PhiCanOpen_Working/build_root/HYDRA/debug_noOS/Example_IO_mini/obj/h/Work/CANopen/PhiCanOpen_Working/bsp/HYDRA/board.o
 .debug_aranges
                0x00000118       0x50 h:/Work/CANopen/PhiCanOpen_Working/build_root/HYDRA/debug_noOS/Example_IO_mini/obj/h/Work/CANopen/PhiCanOpen_Working/CANopenNode/CANopen.o
 .debug_aranges
                0x00000168       0x50 h:/Work/CANopen/PhiCanOpen_Working/build_root/HYDRA/debug_noOS/Example_IO_mini/obj/h/Work/CANopen/PhiCanOpen_Working/CANopenNode/CO_Emergency.o
 .debug_aranges
                0x000001b8       0x38 h:/Work/CANopen/PhiCanOpen_Working/build_root/HYDRA/debug_noOS/Example_IO_mini/obj/h/Work/CANopen/PhiCanOpen_Working/CANopenNode/CO_NMT_Heartbeat.o
 .debug_aranges
                0x000001f0       0x98 h:/Work/CANopen/PhiCanOpen_Working/build_root/HYDRA/debug_noOS/Example_IO_mini/obj/h/Work/CANopen/PhiCanOpen_Working/CANopenNode/CO_PDO.o
 .debug_aranges
                0x00000288       0xc0 h:/Work/CANopen/PhiCanOpen_Working/build_root/HYDRA/debug_noOS/Example_IO_mini/obj/h/Work/CANopen/PhiCanOpen_Working/CANopenNode/CO_SDO.o
 .debug_aranges
                0x00000348       0x20 h:/Work/CANopen/PhiCanOpen_Working/build_root/HYDRA/debug_noOS/Example_IO_mini/obj/h/Work/CANopen/PhiCanOpen_Working/CANopenNode/crc16-ccitt.o
 .debug_aranges
                0x00000368       0x50 h:/Work/CANopen/PhiCanOpen_Working/build_root/HYDRA/debug_noOS/Example_IO_mini/obj/h/Work/CANopen/PhiCanOpen_Working/CANopenNode/LPC17XX/CO_driver.o
 .debug_aranges
                0x000003b8       0x28 h:/Work/CANopen/PhiCanOpen_Working/build_root/HYDRA/debug_noOS/Example_IO_mini/obj/h/Work/CANopen/PhiCanOpen_Working/CANopenNode/LPC17XX/CO_cpu.o
 .debug_aranges
                0x000003e0       0xb8 h:/Work/CANopen/PhiCanOpen_Working/build_root/HYDRA/debug_noOS/CDL\libCDL.a(lpc17xx_can.o)
 .debug_aranges
                0x00000498       0x58 h:/Work/CANopen/PhiCanOpen_Working/build_root/HYDRA/debug_noOS/CDL\libCDL.a(lpc17xx_clkpwr.o)
 .debug_aranges
                0x000004f0       0x70 h:/Work/CANopen/PhiCanOpen_Working/build_root/HYDRA/debug_noOS/CDL\libCDL.a(lpc17xx_debug_frmwrk.o)
 .debug_aranges
                0x00000560       0xf8 h:/Work/CANopen/PhiCanOpen_Working/build_root/HYDRA/debug_noOS/CDL\libCDL.a(lpc17xx_gpio.o)
 .debug_aranges
                0x00000658       0x48 h:/Work/CANopen/PhiCanOpen_Working/build_root/HYDRA/debug_noOS/CDL\libCDL.a(lpc17xx_pinsel.o)
 .debug_aranges
                0x000006a0       0x98 h:/Work/CANopen/PhiCanOpen_Working/build_root/HYDRA/debug_noOS/CDL\libCDL.a(lpc17xx_timer.o)
 .debug_aranges
                0x00000738      0x108 h:/Work/CANopen/PhiCanOpen_Working/build_root/HYDRA/debug_noOS/CDL\libCDL.a(lpc17xx_uart.o)
 .debug_aranges
                0x00000840       0x58 h:/Work/CANopen/PhiCanOpen_Working/build_root/HYDRA/debug_noOS/CDL\libCDL.a(lpc17xx_wdt.o)
 .debug_aranges
                0x00000898       0x80 h:/Work/CANopen/PhiCanOpen_Working/build_root/HYDRA/debug_noOS/CDL\libCDL.a(cr_startup_lpc176x.o)
 .debug_aranges
                0x00000918       0x28 h:/Work/CANopen/PhiCanOpen_Working/build_root/HYDRA/debug_noOS/CDL\libCDL.a(system_LPC17xx.o)

.debug_ranges   0x00000000      0x7e8
 .debug_ranges  0x00000000       0x60 h:/Work/CANopen/PhiCanOpen_Working/build_root/HYDRA/debug_noOS/Example_IO_mini/obj/Example_IO_mini.o
 .debug_ranges  0x00000060       0x80 h:/Work/CANopen/PhiCanOpen_Working/build_root/HYDRA/debug_noOS/Example_IO_mini/obj/h/Work/CANopen/PhiCanOpen_Working/bsp/HYDRA/board.o
 .debug_ranges  0x000000e0       0x40 h:/Work/CANopen/PhiCanOpen_Working/build_root/HYDRA/debug_noOS/Example_IO_mini/obj/h/Work/CANopen/PhiCanOpen_Working/CANopenNode/CANopen.o
 .debug_ranges  0x00000120       0x40 h:/Work/CANopen/PhiCanOpen_Working/build_root/HYDRA/debug_noOS/Example_IO_mini/obj/h/Work/CANopen/PhiCanOpen_Working/CANopenNode/CO_Emergency.o
 .debug_ranges  0x00000160       0x28 h:/Work/CANopen/PhiCanOpen_Working/build_root/HYDRA/debug_noOS/Example_IO_mini/obj/h/Work/CANopen/PhiCanOpen_Working/CANopenNode/CO_NMT_Heartbeat.o
 .debug_ranges  0x00000188       0x88 h:/Work/CANopen/PhiCanOpen_Working/build_root/HYDRA/debug_noOS/Example_IO_mini/obj/h/Work/CANopen/PhiCanOpen_Working/CANopenNode/CO_PDO.o
 .debug_ranges  0x00000210       0xb0 h:/Work/CANopen/PhiCanOpen_Working/build_root/HYDRA/debug_noOS/Example_IO_mini/obj/h/Work/CANopen/PhiCanOpen_Working/CANopenNode/CO_SDO.o
 .debug_ranges  0x000002c0       0x10 h:/Work/CANopen/PhiCanOpen_Working/build_root/HYDRA/debug_noOS/Example_IO_mini/obj/h/Work/CANopen/PhiCanOpen_Working/CANopenNode/crc16-ccitt.o
 .debug_ranges  0x000002d0       0x40 h:/Work/CANopen/PhiCanOpen_Working/build_root/HYDRA/debug_noOS/Example_IO_mini/obj/h/Work/CANopen/PhiCanOpen_Working/CANopenNode/LPC17XX/CO_driver.o
 .debug_ranges  0x00000310       0x18 h:/Work/CANopen/PhiCanOpen_Working/build_root/HYDRA/debug_noOS/Example_IO_mini/obj/h/Work/CANopen/PhiCanOpen_Working/CANopenNode/LPC17XX/CO_cpu.o
 .debug_ranges  0x00000328       0xa8 h:/Work/CANopen/PhiCanOpen_Working/build_root/HYDRA/debug_noOS/CDL\libCDL.a(lpc17xx_can.o)
 .debug_ranges  0x000003d0       0x48 h:/Work/CANopen/PhiCanOpen_Working/build_root/HYDRA/debug_noOS/CDL\libCDL.a(lpc17xx_clkpwr.o)
 .debug_ranges  0x00000418       0x60 h:/Work/CANopen/PhiCanOpen_Working/build_root/HYDRA/debug_noOS/CDL\libCDL.a(lpc17xx_debug_frmwrk.o)
 .debug_ranges  0x00000478       0xe8 h:/Work/CANopen/PhiCanOpen_Working/build_root/HYDRA/debug_noOS/CDL\libCDL.a(lpc17xx_gpio.o)
 .debug_ranges  0x00000560       0x38 h:/Work/CANopen/PhiCanOpen_Working/build_root/HYDRA/debug_noOS/CDL\libCDL.a(lpc17xx_pinsel.o)
 .debug_ranges  0x00000598       0x88 h:/Work/CANopen/PhiCanOpen_Working/build_root/HYDRA/debug_noOS/CDL\libCDL.a(lpc17xx_timer.o)
 .debug_ranges  0x00000620       0xf8 h:/Work/CANopen/PhiCanOpen_Working/build_root/HYDRA/debug_noOS/CDL\libCDL.a(lpc17xx_uart.o)
 .debug_ranges  0x00000718       0x48 h:/Work/CANopen/PhiCanOpen_Working/build_root/HYDRA/debug_noOS/CDL\libCDL.a(lpc17xx_wdt.o)
 .debug_ranges  0x00000760       0x70 h:/Work/CANopen/PhiCanOpen_Working/build_root/HYDRA/debug_noOS/CDL\libCDL.a(cr_startup_lpc176x.o)
 .debug_ranges  0x000007d0       0x18 h:/Work/CANopen/PhiCanOpen_Working/build_root/HYDRA/debug_noOS/CDL\libCDL.a(system_LPC17xx.o)

.debug_macro    0x00000000     0x632e
 .debug_macro   0x00000000      0x2a8 h:/Work/CANopen/PhiCanOpen_Working/build_root/HYDRA/debug_noOS/Example_IO_mini/obj/Example_IO_mini.o
 .debug_macro   0x000002a8      0x8a4 h:/Work/CANopen/PhiCanOpen_Working/build_root/HYDRA/debug_noOS/Example_IO_mini/obj/Example_IO_mini.o
 .debug_macro   0x00000b4c       0x58 h:/Work/CANopen/PhiCanOpen_Working/build_root/HYDRA/debug_noOS/Example_IO_mini/obj/Example_IO_mini.o
 .debug_macro   0x00000ba4       0x16 h:/Work/CANopen/PhiCanOpen_Working/build_root/HYDRA/debug_noOS/Example_IO_mini/obj/Example_IO_mini.o
 .debug_macro   0x00000bba       0x35 h:/Work/CANopen/PhiCanOpen_Working/build_root/HYDRA/debug_noOS/Example_IO_mini/obj/Example_IO_mini.o
 .debug_macro   0x00000bef       0xa3 h:/Work/CANopen/PhiCanOpen_Working/build_root/HYDRA/debug_noOS/Example_IO_mini/obj/Example_IO_mini.o
 .debug_macro   0x00000c92       0x16 h:/Work/CANopen/PhiCanOpen_Working/build_root/HYDRA/debug_noOS/Example_IO_mini/obj/Example_IO_mini.o
 .debug_macro   0x00000ca8       0x97 h:/Work/CANopen/PhiCanOpen_Working/build_root/HYDRA/debug_noOS/Example_IO_mini/obj/Example_IO_mini.o
 .debug_macro   0x00000d3f       0x10 h:/Work/CANopen/PhiCanOpen_Working/build_root/HYDRA/debug_noOS/Example_IO_mini/obj/Example_IO_mini.o
 .debug_macro   0x00000d4f       0xef h:/Work/CANopen/PhiCanOpen_Working/build_root/HYDRA/debug_noOS/Example_IO_mini/obj/Example_IO_mini.o
 .debug_macro   0x00000e3e       0x4a h:/Work/CANopen/PhiCanOpen_Working/build_root/HYDRA/debug_noOS/Example_IO_mini/obj/Example_IO_mini.o
 .debug_macro   0x00000e88       0x52 h:/Work/CANopen/PhiCanOpen_Working/build_root/HYDRA/debug_noOS/Example_IO_mini/obj/Example_IO_mini.o
 .debug_macro   0x00000eda       0x16 h:/Work/CANopen/PhiCanOpen_Working/build_root/HYDRA/debug_noOS/Example_IO_mini/obj/Example_IO_mini.o
 .debug_macro   0x00000ef0       0x43 h:/Work/CANopen/PhiCanOpen_Working/build_root/HYDRA/debug_noOS/Example_IO_mini/obj/Example_IO_mini.o
 .debug_macro   0x00000f33      0x180 h:/Work/CANopen/PhiCanOpen_Working/build_root/HYDRA/debug_noOS/Example_IO_mini/obj/Example_IO_mini.o
 .debug_macro   0x000010b3       0x10 h:/Work/CANopen/PhiCanOpen_Working/build_root/HYDRA/debug_noOS/Example_IO_mini/obj/Example_IO_mini.o
 .debug_macro   0x000010c3       0x22 h:/Work/CANopen/PhiCanOpen_Working/build_root/HYDRA/debug_noOS/Example_IO_mini/obj/Example_IO_mini.o
 .debug_macro   0x000010e5       0xbd h:/Work/CANopen/PhiCanOpen_Working/build_root/HYDRA/debug_noOS/Example_IO_mini/obj/Example_IO_mini.o
 .debug_macro   0x000011a2       0x16 h:/Work/CANopen/PhiCanOpen_Working/build_root/HYDRA/debug_noOS/Example_IO_mini/obj/Example_IO_mini.o
 .debug_macro   0x000011b8      0x16c h:/Work/CANopen/PhiCanOpen_Working/build_root/HYDRA/debug_noOS/Example_IO_mini/obj/Example_IO_mini.o
 .debug_macro   0x00001324       0x16 h:/Work/CANopen/PhiCanOpen_Working/build_root/HYDRA/debug_noOS/Example_IO_mini/obj/Example_IO_mini.o
 .debug_macro   0x0000133a       0x35 h:/Work/CANopen/PhiCanOpen_Working/build_root/HYDRA/debug_noOS/Example_IO_mini/obj/Example_IO_mini.o
 .debug_macro   0x0000136f       0x16 h:/Work/CANopen/PhiCanOpen_Working/build_root/HYDRA/debug_noOS/Example_IO_mini/obj/Example_IO_mini.o
 .debug_macro   0x00001385       0x29 h:/Work/CANopen/PhiCanOpen_Working/build_root/HYDRA/debug_noOS/Example_IO_mini/obj/Example_IO_mini.o
 .debug_macro   0x000013ae      0x2a6 h:/Work/CANopen/PhiCanOpen_Working/build_root/HYDRA/debug_noOS/Example_IO_mini/obj/Example_IO_mini.o
 .debug_macro   0x00001654       0x10 h:/Work/CANopen/PhiCanOpen_Working/build_root/HYDRA/debug_noOS/Example_IO_mini/obj/Example_IO_mini.o
 .debug_macro   0x00001664       0x1f h:/Work/CANopen/PhiCanOpen_Working/build_root/HYDRA/debug_noOS/Example_IO_mini/obj/Example_IO_mini.o
 .debug_macro   0x00001683       0x1c h:/Work/CANopen/PhiCanOpen_Working/build_root/HYDRA/debug_noOS/Example_IO_mini/obj/Example_IO_mini.o
 .debug_macro   0x0000169f       0x2e h:/Work/CANopen/PhiCanOpen_Working/build_root/HYDRA/debug_noOS/Example_IO_mini/obj/Example_IO_mini.o
 .debug_macro   0x000016cd      0x20f h:/Work/CANopen/PhiCanOpen_Working/build_root/HYDRA/debug_noOS/Example_IO_mini/obj/Example_IO_mini.o
 .debug_macro   0x000018dc       0x18 h:/Work/CANopen/PhiCanOpen_Working/build_root/HYDRA/debug_noOS/Example_IO_mini/obj/Example_IO_mini.o
 .debug_macro   0x000018f4      0x7af h:/Work/CANopen/PhiCanOpen_Working/build_root/HYDRA/debug_noOS/Example_IO_mini/obj/Example_IO_mini.o
 .debug_macro   0x000020a3      0x2d5 h:/Work/CANopen/PhiCanOpen_Working/build_root/HYDRA/debug_noOS/Example_IO_mini/obj/Example_IO_mini.o
 .debug_macro   0x00002378       0x5d h:/Work/CANopen/PhiCanOpen_Working/build_root/HYDRA/debug_noOS/Example_IO_mini/obj/Example_IO_mini.o
 .debug_macro   0x000023d5      0x452 h:/Work/CANopen/PhiCanOpen_Working/build_root/HYDRA/debug_noOS/Example_IO_mini/obj/Example_IO_mini.o
 .debug_macro   0x00002827       0x34 h:/Work/CANopen/PhiCanOpen_Working/build_root/HYDRA/debug_noOS/Example_IO_mini/obj/Example_IO_mini.o
 .debug_macro   0x0000285b       0x3a h:/Work/CANopen/PhiCanOpen_Working/build_root/HYDRA/debug_noOS/Example_IO_mini/obj/Example_IO_mini.o
 .debug_macro   0x00002895      0x20f h:/Work/CANopen/PhiCanOpen_Working/build_root/HYDRA/debug_noOS/Example_IO_mini/obj/Example_IO_mini.o
 .debug_macro   0x00002aa4       0x11 h:/Work/CANopen/PhiCanOpen_Working/build_root/HYDRA/debug_noOS/Example_IO_mini/obj/Example_IO_mini.o
 .debug_macro   0x00002ab5      0x27d h:/Work/CANopen/PhiCanOpen_Working/build_root/HYDRA/debug_noOS/Example_IO_mini/obj/Example_IO_mini.o
 .debug_macro   0x00002d32       0x3a h:/Work/CANopen/PhiCanOpen_Working/build_root/HYDRA/debug_noOS/Example_IO_mini/obj/Example_IO_mini.o
 .debug_macro   0x00002d6c       0x1f h:/Work/CANopen/PhiCanOpen_Working/build_root/HYDRA/debug_noOS/Example_IO_mini/obj/Example_IO_mini.o
 .debug_macro   0x00002d8b      0x33f h:/Work/CANopen/PhiCanOpen_Working/build_root/HYDRA/debug_noOS/Example_IO_mini/obj/Example_IO_mini.o
 .debug_macro   0x000030ca       0x4c h:/Work/CANopen/PhiCanOpen_Working/build_root/HYDRA/debug_noOS/Example_IO_mini/obj/Example_IO_mini.o
 .debug_macro   0x00003116       0x70 h:/Work/CANopen/PhiCanOpen_Working/build_root/HYDRA/debug_noOS/Example_IO_mini/obj/Example_IO_mini.o
 .debug_macro   0x00003186       0xed h:/Work/CANopen/PhiCanOpen_Working/build_root/HYDRA/debug_noOS/Example_IO_mini/obj/Example_IO_mini.o
 .debug_macro   0x00003273       0x64 h:/Work/CANopen/PhiCanOpen_Working/build_root/HYDRA/debug_noOS/Example_IO_mini/obj/Example_IO_mini.o
 .debug_macro   0x000032d7       0xe1 h:/Work/CANopen/PhiCanOpen_Working/build_root/HYDRA/debug_noOS/Example_IO_mini/obj/CO_OD.o
 .debug_macro   0x000033b8       0x44 h:/Work/CANopen/PhiCanOpen_Working/build_root/HYDRA/debug_noOS/Example_IO_mini/obj/CO_OD.o
 .debug_macro   0x000033fc      0x209 h:/Work/CANopen/PhiCanOpen_Working/build_root/HYDRA/debug_noOS/Example_IO_mini/obj/CO_OD.o
 .debug_macro   0x00003605       0x64 h:/Work/CANopen/PhiCanOpen_Working/build_root/HYDRA/debug_noOS/Example_IO_mini/obj/CO_OD.o
 .debug_macro   0x00003669      0x166 h:/Work/CANopen/PhiCanOpen_Working/build_root/HYDRA/debug_noOS/Example_IO_mini/obj/CO_OD.o
 .debug_macro   0x000037cf      0x212 h:/Work/CANopen/PhiCanOpen_Working/build_root/HYDRA/debug_noOS/Example_IO_mini/obj/h/Work/CANopen/PhiCanOpen_Working/bsp/HYDRA/board.o
 .debug_macro   0x000039e1      0x10e h:/Work/CANopen/PhiCanOpen_Working/build_root/HYDRA/debug_noOS/Example_IO_mini/obj/h/Work/CANopen/PhiCanOpen_Working/bsp/HYDRA/board.o
 .debug_macro   0x00003aef       0x7f h:/Work/CANopen/PhiCanOpen_Working/build_root/HYDRA/debug_noOS/Example_IO_mini/obj/h/Work/CANopen/PhiCanOpen_Working/bsp/HYDRA/board.o
 .debug_macro   0x00003b6e      0x146 h:/Work/CANopen/PhiCanOpen_Working/build_root/HYDRA/debug_noOS/Example_IO_mini/obj/h/Work/CANopen/PhiCanOpen_Working/bsp/HYDRA/board.o
 .debug_macro   0x00003cb4      0x2fa h:/Work/CANopen/PhiCanOpen_Working/build_root/HYDRA/debug_noOS/Example_IO_mini/obj/h/Work/CANopen/PhiCanOpen_Working/bsp/HYDRA/board.o
 .debug_macro   0x00003fae       0x46 h:/Work/CANopen/PhiCanOpen_Working/build_root/HYDRA/debug_noOS/Example_IO_mini/obj/h/Work/CANopen/PhiCanOpen_Working/bsp/HYDRA/board.o
 .debug_macro   0x00003ff4      0x174 h:/Work/CANopen/PhiCanOpen_Working/build_root/HYDRA/debug_noOS/Example_IO_mini/obj/h/Work/CANopen/PhiCanOpen_Working/CANopenNode/CANopen.o
 .debug_macro   0x00004168      0x20f h:/Work/CANopen/PhiCanOpen_Working/build_root/HYDRA/debug_noOS/Example_IO_mini/obj/h/Work/CANopen/PhiCanOpen_Working/CANopenNode/CANopen.o
 .debug_macro   0x00004377       0xea h:/Work/CANopen/PhiCanOpen_Working/build_root/HYDRA/debug_noOS/Example_IO_mini/obj/h/Work/CANopen/PhiCanOpen_Working/CANopenNode/CO_Emergency.o
 .debug_macro   0x00004461       0xf3 h:/Work/CANopen/PhiCanOpen_Working/build_root/HYDRA/debug_noOS/Example_IO_mini/obj/h/Work/CANopen/PhiCanOpen_Working/CANopenNode/CO_NMT_Heartbeat.o
 .debug_macro   0x00004554      0x1af h:/Work/CANopen/PhiCanOpen_Working/build_root/HYDRA/debug_noOS/Example_IO_mini/obj/h/Work/CANopen/PhiCanOpen_Working/CANopenNode/CO_PDO.o
 .debug_macro   0x00004703      0x115 h:/Work/CANopen/PhiCanOpen_Working/build_root/HYDRA/debug_noOS/Example_IO_mini/obj/h/Work/CANopen/PhiCanOpen_Working/CANopenNode/CO_SDO.o
 .debug_macro   0x00004818       0x64 h:/Work/CANopen/PhiCanOpen_Working/build_root/HYDRA/debug_noOS/Example_IO_mini/obj/h/Work/CANopen/PhiCanOpen_Working/CANopenNode/crc16-ccitt.o
 .debug_macro   0x0000487c      0x12e h:/Work/CANopen/PhiCanOpen_Working/build_root/HYDRA/debug_noOS/Example_IO_mini/obj/h/Work/CANopen/PhiCanOpen_Working/CANopenNode/LPC17XX/CO_driver.o
 .debug_macro   0x000049aa       0x64 h:/Work/CANopen/PhiCanOpen_Working/build_root/HYDRA/debug_noOS/Example_IO_mini/obj/h/Work/CANopen/PhiCanOpen_Working/CANopenNode/LPC17XX/CO_cpu.o
 .debug_macro   0x00004a0e       0xa5 h:/Work/CANopen/PhiCanOpen_Working/build_root/HYDRA/debug_noOS/CDL\libCDL.a(lpc17xx_can.o)
 .debug_macro   0x00004ab3      0x89e h:/Work/CANopen/PhiCanOpen_Working/build_root/HYDRA/debug_noOS/CDL\libCDL.a(lpc17xx_can.o)
 .debug_macro   0x00005351       0xd9 h:/Work/CANopen/PhiCanOpen_Working/build_root/HYDRA/debug_noOS/CDL\libCDL.a(lpc17xx_can.o)
 .debug_macro   0x0000542a       0x93 h:/Work/CANopen/PhiCanOpen_Working/build_root/HYDRA/debug_noOS/CDL\libCDL.a(lpc17xx_clkpwr.o)
 .debug_macro   0x000054bd      0x2f4 h:/Work/CANopen/PhiCanOpen_Working/build_root/HYDRA/debug_noOS/CDL\libCDL.a(lpc17xx_clkpwr.o)
 .debug_macro   0x000057b1       0xb4 h:/Work/CANopen/PhiCanOpen_Working/build_root/HYDRA/debug_noOS/CDL\libCDL.a(lpc17xx_debug_frmwrk.o)
 .debug_macro   0x00005865      0x339 h:/Work/CANopen/PhiCanOpen_Working/build_root/HYDRA/debug_noOS/CDL\libCDL.a(lpc17xx_debug_frmwrk.o)
 .debug_macro   0x00005b9e       0x9c h:/Work/CANopen/PhiCanOpen_Working/build_root/HYDRA/debug_noOS/CDL\libCDL.a(lpc17xx_gpio.o)
 .debug_macro   0x00005c3a       0x40 h:/Work/CANopen/PhiCanOpen_Working/build_root/HYDRA/debug_noOS/CDL\libCDL.a(lpc17xx_gpio.o)
 .debug_macro   0x00005c7a       0x93 h:/Work/CANopen/PhiCanOpen_Working/build_root/HYDRA/debug_noOS/CDL\libCDL.a(lpc17xx_pinsel.o)
 .debug_macro   0x00005d0d      0x140 h:/Work/CANopen/PhiCanOpen_Working/build_root/HYDRA/debug_noOS/CDL\libCDL.a(lpc17xx_pinsel.o)
 .debug_macro   0x00005e4d       0xae h:/Work/CANopen/PhiCanOpen_Working/build_root/HYDRA/debug_noOS/CDL\libCDL.a(lpc17xx_timer.o)
 .debug_macro   0x00005efb       0xe7 h:/Work/CANopen/PhiCanOpen_Working/build_root/HYDRA/debug_noOS/CDL\libCDL.a(lpc17xx_timer.o)
 .debug_macro   0x00005fe2       0xa5 h:/Work/CANopen/PhiCanOpen_Working/build_root/HYDRA/debug_noOS/CDL\libCDL.a(lpc17xx_uart.o)
 .debug_macro   0x00006087       0xae h:/Work/CANopen/PhiCanOpen_Working/build_root/HYDRA/debug_noOS/CDL\libCDL.a(lpc17xx_wdt.o)
 .debug_macro   0x00006135       0x6a h:/Work/CANopen/PhiCanOpen_Working/build_root/HYDRA/debug_noOS/CDL\libCDL.a(lpc17xx_wdt.o)
 .debug_macro   0x0000619f       0x5e h:/Work/CANopen/PhiCanOpen_Working/build_root/HYDRA/debug_noOS/CDL\libCDL.a(cr_startup_lpc176x.o)
 .debug_macro   0x000061fd      0x131 h:/Work/CANopen/PhiCanOpen_Working/build_root/HYDRA/debug_noOS/CDL\libCDL.a(system_LPC17xx.o)

.debug_line     0x00000000     0x5dee
 .debug_line    0x00000000      0x6a7 h:/Work/CANopen/PhiCanOpen_Working/build_root/HYDRA/debug_noOS/Example_IO_mini/obj/Example_IO_mini.o
 .debug_line    0x000006a7      0x2fc h:/Work/CANopen/PhiCanOpen_Working/build_root/HYDRA/debug_noOS/Example_IO_mini/obj/CO_OD.o
 .debug_line    0x000009a3      0x5a5 h:/Work/CANopen/PhiCanOpen_Working/build_root/HYDRA/debug_noOS/Example_IO_mini/obj/h/Work/CANopen/PhiCanOpen_Working/bsp/HYDRA/board.o
 .debug_line    0x00000f48      0x513 h:/Work/CANopen/PhiCanOpen_Working/build_root/HYDRA/debug_noOS/Example_IO_mini/obj/h/Work/CANopen/PhiCanOpen_Working/CANopenNode/CANopen.o
 .debug_line    0x0000145b      0x46b h:/Work/CANopen/PhiCanOpen_Working/build_root/HYDRA/debug_noOS/Example_IO_mini/obj/h/Work/CANopen/PhiCanOpen_Working/CANopenNode/CO_Emergency.o
 .debug_line    0x000018c6      0x48a h:/Work/CANopen/PhiCanOpen_Working/build_root/HYDRA/debug_noOS/Example_IO_mini/obj/h/Work/CANopen/PhiCanOpen_Working/CANopenNode/CO_NMT_Heartbeat.o
 .debug_line    0x00001d50      0x843 h:/Work/CANopen/PhiCanOpen_Working/build_root/HYDRA/debug_noOS/Example_IO_mini/obj/h/Work/CANopen/PhiCanOpen_Working/CANopenNode/CO_PDO.o
 .debug_line    0x00002593      0x910 h:/Work/CANopen/PhiCanOpen_Working/build_root/HYDRA/debug_noOS/Example_IO_mini/obj/h/Work/CANopen/PhiCanOpen_Working/CANopenNode/CO_SDO.o
 .debug_line    0x00002ea3      0x1d2 h:/Work/CANopen/PhiCanOpen_Working/build_root/HYDRA/debug_noOS/Example_IO_mini/obj/h/Work/CANopen/PhiCanOpen_Working/CANopenNode/crc16-ccitt.o
 .debug_line    0x00003075      0x561 h:/Work/CANopen/PhiCanOpen_Working/build_root/HYDRA/debug_noOS/Example_IO_mini/obj/h/Work/CANopen/PhiCanOpen_Working/CANopenNode/LPC17XX/CO_driver.o
 .debug_line    0x000035d6      0x1c3 h:/Work/CANopen/PhiCanOpen_Working/build_root/HYDRA/debug_noOS/Example_IO_mini/obj/h/Work/CANopen/PhiCanOpen_Working/CANopenNode/LPC17XX/CO_cpu.o
 .debug_line    0x00003799      0x7f1 h:/Work/CANopen/PhiCanOpen_Working/build_root/HYDRA/debug_noOS/CDL\libCDL.a(lpc17xx_can.o)
 .debug_line    0x00003f8a      0x2cf h:/Work/CANopen/PhiCanOpen_Working/build_root/HYDRA/debug_noOS/CDL\libCDL.a(lpc17xx_clkpwr.o)
 .debug_line    0x00004259      0x381 h:/Work/CANopen/PhiCanOpen_Working/build_root/HYDRA/debug_noOS/CDL\libCDL.a(lpc17xx_debug_frmwrk.o)
 .debug_line    0x000045da      0x4b1 h:/Work/CANopen/PhiCanOpen_Working/build_root/HYDRA/debug_noOS/CDL\libCDL.a(lpc17xx_gpio.o)
 .debug_line    0x00004a8b      0x269 h:/Work/CANopen/PhiCanOpen_Working/build_root/HYDRA/debug_noOS/CDL\libCDL.a(lpc17xx_pinsel.o)
 .debug_line    0x00004cf4      0x3b6 h:/Work/CANopen/PhiCanOpen_Working/build_root/HYDRA/debug_noOS/CDL\libCDL.a(lpc17xx_timer.o)
 .debug_line    0x000050aa      0x614 h:/Work/CANopen/PhiCanOpen_Working/build_root/HYDRA/debug_noOS/CDL\libCDL.a(lpc17xx_uart.o)
 .debug_line    0x000056be      0x2f9 h:/Work/CANopen/PhiCanOpen_Working/build_root/HYDRA/debug_noOS/CDL\libCDL.a(lpc17xx_wdt.o)
 .debug_line    0x000059b7      0x1f7 h:/Work/CANopen/PhiCanOpen_Working/build_root/HYDRA/debug_noOS/CDL\libCDL.a(cr_startup_lpc176x.o)
 .debug_line    0x00005bae      0x240 h:/Work/CANopen/PhiCanOpen_Working/build_root/HYDRA/debug_noOS/CDL\libCDL.a(system_LPC17xx.o)

.debug_str      0x00000000    0x16d7b
 .debug_str     0x00000000    0x114ae h:/Work/CANopen/PhiCanOpen_Working/build_root/HYDRA/debug_noOS/Example_IO_mini/obj/Example_IO_mini.o
                              0x118fa (size before relaxing)
 .debug_str     0x000114ae      0x13d h:/Work/CANopen/PhiCanOpen_Working/build_root/HYDRA/debug_noOS/Example_IO_mini/obj/CO_OD.o
                               0xa692 (size before relaxing)
 .debug_str     0x000115eb     0x1eb0 h:/Work/CANopen/PhiCanOpen_Working/build_root/HYDRA/debug_noOS/Example_IO_mini/obj/h/Work/CANopen/PhiCanOpen_Working/bsp/HYDRA/board.o
                               0xecd1 (size before relaxing)
 .debug_str     0x0001349b      0xa64 h:/Work/CANopen/PhiCanOpen_Working/build_root/HYDRA/debug_noOS/Example_IO_mini/obj/h/Work/CANopen/PhiCanOpen_Working/CANopenNode/CANopen.o
                               0xc92a (size before relaxing)
 .debug_str     0x00013eff      0x1ce h:/Work/CANopen/PhiCanOpen_Working/build_root/HYDRA/debug_noOS/Example_IO_mini/obj/h/Work/CANopen/PhiCanOpen_Working/CANopenNode/CO_Emergency.o
                               0xb931 (size before relaxing)
 .debug_str     0x000140cd      0x160 h:/Work/CANopen/PhiCanOpen_Working/build_root/HYDRA/debug_noOS/Example_IO_mini/obj/h/Work/CANopen/PhiCanOpen_Working/CANopenNode/CO_NMT_Heartbeat.o
                               0xb23b (size before relaxing)
 .debug_str     0x0001422d      0x2ae h:/Work/CANopen/PhiCanOpen_Working/build_root/HYDRA/debug_noOS/Example_IO_mini/obj/h/Work/CANopen/PhiCanOpen_Working/CANopenNode/CO_PDO.o
                               0xdb75 (size before relaxing)
 .debug_str     0x000144db      0x2f1 h:/Work/CANopen/PhiCanOpen_Working/build_root/HYDRA/debug_noOS/Example_IO_mini/obj/h/Work/CANopen/PhiCanOpen_Working/CANopenNode/CO_SDO.o
                               0xb09d (size before relaxing)
 .debug_str     0x000147cc       0x67 h:/Work/CANopen/PhiCanOpen_Working/build_root/HYDRA/debug_noOS/Example_IO_mini/obj/h/Work/CANopen/PhiCanOpen_Working/CANopenNode/crc16-ccitt.o
                               0x3467 (size before relaxing)
 .debug_str     0x00014833      0x444 h:/Work/CANopen/PhiCanOpen_Working/build_root/HYDRA/debug_noOS/Example_IO_mini/obj/h/Work/CANopen/PhiCanOpen_Working/CANopenNode/LPC17XX/CO_driver.o
                               0xc960 (size before relaxing)
 .debug_str     0x00014c77       0x76 h:/Work/CANopen/PhiCanOpen_Working/build_root/HYDRA/debug_noOS/Example_IO_mini/obj/h/Work/CANopen/PhiCanOpen_Working/CANopenNode/LPC17XX/CO_cpu.o
                               0x3495 (size before relaxing)
 .debug_str     0x00014ced      0x6fe h:/Work/CANopen/PhiCanOpen_Working/build_root/HYDRA/debug_noOS/CDL\libCDL.a(lpc17xx_can.o)
                               0xa86f (size before relaxing)
 .debug_str     0x000153eb      0x1e7 h:/Work/CANopen/PhiCanOpen_Working/build_root/HYDRA/debug_noOS/CDL\libCDL.a(lpc17xx_clkpwr.o)
                               0x8794 (size before relaxing)
 .debug_str     0x000155d2      0x12b h:/Work/CANopen/PhiCanOpen_Working/build_root/HYDRA/debug_noOS/CDL\libCDL.a(lpc17xx_debug_frmwrk.o)
                               0x94ed (size before relaxing)
 .debug_str     0x000156fd      0x41d h:/Work/CANopen/PhiCanOpen_Working/build_root/HYDRA/debug_noOS/CDL\libCDL.a(lpc17xx_gpio.o)
                               0x7ab0 (size before relaxing)
 .debug_str     0x00015b1a      0x20a h:/Work/CANopen/PhiCanOpen_Working/build_root/HYDRA/debug_noOS/CDL\libCDL.a(lpc17xx_pinsel.o)
                               0x7a0c (size before relaxing)
 .debug_str     0x00015d24      0x2a8 h:/Work/CANopen/PhiCanOpen_Working/build_root/HYDRA/debug_noOS/CDL\libCDL.a(lpc17xx_timer.o)
                               0x96d9 (size before relaxing)
 .debug_str     0x00015fcc      0x7e7 h:/Work/CANopen/PhiCanOpen_Working/build_root/HYDRA/debug_noOS/CDL\libCDL.a(lpc17xx_uart.o)
                               0xa78b (size before relaxing)
 .debug_str     0x000167b3      0x12c h:/Work/CANopen/PhiCanOpen_Working/build_root/HYDRA/debug_noOS/CDL\libCDL.a(lpc17xx_wdt.o)
                               0x8f4c (size before relaxing)
 .debug_str     0x000168df      0x1af h:/Work/CANopen/PhiCanOpen_Working/build_root/HYDRA/debug_noOS/CDL\libCDL.a(cr_startup_lpc176x.o)
                               0x31ca (size before relaxing)
 .debug_str     0x00016a8e      0x2ed h:/Work/CANopen/PhiCanOpen_Working/build_root/HYDRA/debug_noOS/CDL\libCDL.a(system_LPC17xx.o)
                               0x75ec (size before relaxing)

.comment        0x00000000       0x70
 .comment       0x00000000       0x70 h:/Work/CANopen/PhiCanOpen_Working/build_root/HYDRA/debug_noOS/Example_IO_mini/obj/Example_IO_mini.o
                                 0x71 (size before relaxing)
 .comment       0x00000000       0x71 h:/Work/CANopen/PhiCanOpen_Working/build_root/HYDRA/debug_noOS/Example_IO_mini/obj/CO_OD.o
 .comment       0x00000000       0x71 h:/Work/CANopen/PhiCanOpen_Working/build_root/HYDRA/debug_noOS/Example_IO_mini/obj/h/Work/CANopen/PhiCanOpen_Working/bsp/HYDRA/board.o
 .comment       0x00000000       0x71 h:/Work/CANopen/PhiCanOpen_Working/build_root/HYDRA/debug_noOS/Example_IO_mini/obj/h/Work/CANopen/PhiCanOpen_Working/CANopenNode/CANopen.o
 .comment       0x00000000       0x71 h:/Work/CANopen/PhiCanOpen_Working/build_root/HYDRA/debug_noOS/Example_IO_mini/obj/h/Work/CANopen/PhiCanOpen_Working/CANopenNode/CO_Emergency.o
 .comment       0x00000000       0x71 h:/Work/CANopen/PhiCanOpen_Working/build_root/HYDRA/debug_noOS/Example_IO_mini/obj/h/Work/CANopen/PhiCanOpen_Working/CANopenNode/CO_NMT_Heartbeat.o
 .comment       0x00000000       0x71 h:/Work/CANopen/PhiCanOpen_Working/build_root/HYDRA/debug_noOS/Example_IO_mini/obj/h/Work/CANopen/PhiCanOpen_Working/CANopenNode/CO_PDO.o
 .comment       0x00000000       0x71 h:/Work/CANopen/PhiCanOpen_Working/build_root/HYDRA/debug_noOS/Example_IO_mini/obj/h/Work/CANopen/PhiCanOpen_Working/CANopenNode/CO_SDO.o
 .comment       0x00000000       0x71 h:/Work/CANopen/PhiCanOpen_Working/build_root/HYDRA/debug_noOS/Example_IO_mini/obj/h/Work/CANopen/PhiCanOpen_Working/CANopenNode/crc16-ccitt.o
 .comment       0x00000000       0x71 h:/Work/CANopen/PhiCanOpen_Working/build_root/HYDRA/debug_noOS/Example_IO_mini/obj/h/Work/CANopen/PhiCanOpen_Working/CANopenNode/LPC17XX/CO_driver.o
 .comment       0x00000000       0x71 h:/Work/CANopen/PhiCanOpen_Working/build_root/HYDRA/debug_noOS/Example_IO_mini/obj/h/Work/CANopen/PhiCanOpen_Working/CANopenNode/LPC17XX/CO_cpu.o
 .comment       0x00000000       0x71 h:/Work/CANopen/PhiCanOpen_Working/build_root/HYDRA/debug_noOS/CDL\libCDL.a(lpc17xx_can.o)
 .comment       0x00000000       0x71 h:/Work/CANopen/PhiCanOpen_Working/build_root/HYDRA/debug_noOS/CDL\libCDL.a(lpc17xx_clkpwr.o)
 .comment       0x00000000       0x71 h:/Work/CANopen/PhiCanOpen_Working/build_root/HYDRA/debug_noOS/CDL\libCDL.a(lpc17xx_debug_frmwrk.o)
 .comment       0x00000000       0x71 h:/Work/CANopen/PhiCanOpen_Working/build_root/HYDRA/debug_noOS/CDL\libCDL.a(lpc17xx_gpio.o)
 .comment       0x00000000       0x71 h:/Work/CANopen/PhiCanOpen_Working/build_root/HYDRA/debug_noOS/CDL\libCDL.a(lpc17xx_pinsel.o)
 .comment       0x00000000       0x71 h:/Work/CANopen/PhiCanOpen_Working/build_root/HYDRA/debug_noOS/CDL\libCDL.a(lpc17xx_timer.o)
 .comment       0x00000000       0x71 h:/Work/CANopen/PhiCanOpen_Working/build_root/HYDRA/debug_noOS/CDL\libCDL.a(lpc17xx_uart.o)
 .comment       0x00000000       0x71 h:/Work/CANopen/PhiCanOpen_Working/build_root/HYDRA/debug_noOS/CDL\libCDL.a(lpc17xx_wdt.o)
 .comment       0x00000000       0x71 h:/Work/CANopen/PhiCanOpen_Working/build_root/HYDRA/debug_noOS/CDL\libCDL.a(cr_startup_lpc176x.o)
 .comment       0x00000000       0x71 h:/Work/CANopen/PhiCanOpen_Working/build_root/HYDRA/debug_noOS/CDL\libCDL.a(system_LPC17xx.o)

.ARM.attributes
                0x00000000       0x33
 .ARM.attributes
                0x00000000       0x33 h:/Work/CANopen/PhiCanOpen_Working/build_root/HYDRA/debug_noOS/Example_IO_mini/obj/Example_IO_mini.o
 .ARM.attributes
                0x00000033       0x33 h:/Work/CANopen/PhiCanOpen_Working/build_root/HYDRA/debug_noOS/Example_IO_mini/obj/CO_OD.o
 .ARM.attributes
                0x00000066       0x33 h:/Work/CANopen/PhiCanOpen_Working/build_root/HYDRA/debug_noOS/Example_IO_mini/obj/h/Work/CANopen/PhiCanOpen_Working/bsp/HYDRA/board.o
 .ARM.attributes
                0x00000099       0x33 h:/Work/CANopen/PhiCanOpen_Working/build_root/HYDRA/debug_noOS/Example_IO_mini/obj/h/Work/CANopen/PhiCanOpen_Working/CANopenNode/CANopen.o
 .ARM.attributes
                0x000000cc       0x33 h:/Work/CANopen/PhiCanOpen_Working/build_root/HYDRA/debug_noOS/Example_IO_mini/obj/h/Work/CANopen/PhiCanOpen_Working/CANopenNode/CO_Emergency.o
 .ARM.attributes
                0x000000ff       0x33 h:/Work/CANopen/PhiCanOpen_Working/build_root/HYDRA/debug_noOS/Example_IO_mini/obj/h/Work/CANopen/PhiCanOpen_Working/CANopenNode/CO_NMT_Heartbeat.o
 .ARM.attributes
                0x00000132       0x33 h:/Work/CANopen/PhiCanOpen_Working/build_root/HYDRA/debug_noOS/Example_IO_mini/obj/h/Work/CANopen/PhiCanOpen_Working/CANopenNode/CO_PDO.o
 .ARM.attributes
                0x00000165       0x33 h:/Work/CANopen/PhiCanOpen_Working/build_root/HYDRA/debug_noOS/Example_IO_mini/obj/h/Work/CANopen/PhiCanOpen_Working/CANopenNode/CO_SDO.o
 .ARM.attributes
                0x00000198       0x33 h:/Work/CANopen/PhiCanOpen_Working/build_root/HYDRA/debug_noOS/Example_IO_mini/obj/h/Work/CANopen/PhiCanOpen_Working/CANopenNode/crc16-ccitt.o
 .ARM.attributes
                0x000001cb       0x33 h:/Work/CANopen/PhiCanOpen_Working/build_root/HYDRA/debug_noOS/Example_IO_mini/obj/h/Work/CANopen/PhiCanOpen_Working/CANopenNode/LPC17XX/CO_driver.o
 .ARM.attributes
                0x000001fe       0x33 h:/Work/CANopen/PhiCanOpen_Working/build_root/HYDRA/debug_noOS/Example_IO_mini/obj/h/Work/CANopen/PhiCanOpen_Working/CANopenNode/LPC17XX/CO_cpu.o
 .ARM.attributes
                0x00000231       0x33 h:/Work/CANopen/PhiCanOpen_Working/build_root/HYDRA/debug_noOS/CDL\libCDL.a(lpc17xx_can.o)
 .ARM.attributes
                0x00000264       0x33 h:/Work/CANopen/PhiCanOpen_Working/build_root/HYDRA/debug_noOS/CDL\libCDL.a(lpc17xx_clkpwr.o)
 .ARM.attributes
                0x00000297       0x33 h:/Work/CANopen/PhiCanOpen_Working/build_root/HYDRA/debug_noOS/CDL\libCDL.a(lpc17xx_debug_frmwrk.o)
 .ARM.attributes
                0x000002ca       0x33 h:/Work/CANopen/PhiCanOpen_Working/build_root/HYDRA/debug_noOS/CDL\libCDL.a(lpc17xx_gpio.o)
 .ARM.attributes
                0x000002fd       0x33 h:/Work/CANopen/PhiCanOpen_Working/build_root/HYDRA/debug_noOS/CDL\libCDL.a(lpc17xx_pinsel.o)
 .ARM.attributes
                0x00000330       0x33 h:/Work/CANopen/PhiCanOpen_Working/build_root/HYDRA/debug_noOS/CDL\libCDL.a(lpc17xx_timer.o)
 .ARM.attributes
                0x00000363       0x33 h:/Work/CANopen/PhiCanOpen_Working/build_root/HYDRA/debug_noOS/CDL\libCDL.a(lpc17xx_uart.o)
 .ARM.attributes
                0x00000396       0x33 h:/Work/CANopen/PhiCanOpen_Working/build_root/HYDRA/debug_noOS/CDL\libCDL.a(lpc17xx_wdt.o)
 .ARM.attributes
                0x000003c9       0x33 h:/Work/CANopen/PhiCanOpen_Working/build_root/HYDRA/debug_noOS/CDL\libCDL.a(cr_startup_lpc176x.o)
 .ARM.attributes
                0x000003fc       0x33 h:/Work/CANopen/PhiCanOpen_Working/build_root/HYDRA/debug_noOS/CDL\libCDL.a(system_LPC17xx.o)
 .ARM.attributes
                0x0000042f       0x1d h:/arm-non-eabi/bin/../lib/gcc/arm-none-eabi/4.8.4/armv7-m\libgcc.a(_arm_addsubdf3.o)
 .ARM.attributes
                0x0000044c       0x1d h:/arm-non-eabi/bin/../lib/gcc/arm-none-eabi/4.8.4/armv7-m\libgcc.a(_arm_cmpdf2.o)
 .ARM.attributes
                0x00000469       0x1d h:/arm-non-eabi/bin/../lib/gcc/arm-none-eabi/4.8.4/armv7-m\libgcc.a(_arm_truncdfsf2.o)
 .ARM.attributes
                0x00000486       0x1d h:/arm-non-eabi/bin/../lib/gcc/arm-none-eabi/4.8.4/armv7-m\libgcc.a(_arm_addsubsf3.o)
 .ARM.attributes
                0x000004a3       0x1d h:/arm-non-eabi/bin/../lib/gcc/arm-none-eabi/4.8.4/armv7-m\libgcc.a(_arm_muldivsf3.o)
 .ARM.attributes
                0x000004c0       0x1d h:/arm-non-eabi/bin/../lib/gcc/arm-none-eabi/4.8.4/armv7-m\libgcc.a(_arm_cmpsf2.o)
 .ARM.attributes
                0x000004dd       0x1d h:/arm-non-eabi/bin/../lib/gcc/arm-none-eabi/4.8.4/armv7-m\libgcc.a(_arm_fixunssfsi.o)
 .ARM.attributes
                0x000004fa       0x1d h:/arm-non-eabi/bin/../lib/gcc/arm-none-eabi/4.8.4/armv7-m\libgcc.a(_aeabi_uldivmod.o)
 .ARM.attributes
                0x00000517       0x2d h:/arm-non-eabi/bin/../lib/gcc/arm-none-eabi/4.8.4/armv7-m\libgcc.a(bpabi.o)
 .ARM.attributes
                0x00000544       0x1d h:/arm-non-eabi/bin/../lib/gcc/arm-none-eabi/4.8.4/armv7-m\libgcc.a(_dvmd_tls.o)
 .ARM.attributes
                0x00000561       0x2d h:/arm-non-eabi/bin/../lib/gcc/arm-none-eabi/4.8.4/armv7-m\libgcc.a(_divdi3.o)
 .ARM.attributes
                0x0000058e       0x2d h:/arm-non-eabi/bin/../lib/gcc/arm-none-eabi/4.8.4/armv7-m\libgcc.a(_udivdi3.o)

.debug_frame    0x00000000     0x1d64
 .debug_frame   0x00000000      0x154 h:/Work/CANopen/PhiCanOpen_Working/build_root/HYDRA/debug_noOS/Example_IO_mini/obj/Example_IO_mini.o
 .debug_frame   0x00000154      0x1d0 h:/Work/CANopen/PhiCanOpen_Working/build_root/HYDRA/debug_noOS/Example_IO_mini/obj/h/Work/CANopen/PhiCanOpen_Working/bsp/HYDRA/board.o
 .debug_frame   0x00000324      0x104 h:/Work/CANopen/PhiCanOpen_Working/build_root/HYDRA/debug_noOS/Example_IO_mini/obj/h/Work/CANopen/PhiCanOpen_Working/CANopenNode/CANopen.o
 .debug_frame   0x00000428       0xe8 h:/Work/CANopen/PhiCanOpen_Working/build_root/HYDRA/debug_noOS/Example_IO_mini/obj/h/Work/CANopen/PhiCanOpen_Working/CANopenNode/CO_Emergency.o
 .debug_frame   0x00000510       0x88 h:/Work/CANopen/PhiCanOpen_Working/build_root/HYDRA/debug_noOS/Example_IO_mini/obj/h/Work/CANopen/PhiCanOpen_Working/CANopenNode/CO_NMT_Heartbeat.o
 .debug_frame   0x00000598      0x204 h:/Work/CANopen/PhiCanOpen_Working/build_root/HYDRA/debug_noOS/Example_IO_mini/obj/h/Work/CANopen/PhiCanOpen_Working/CANopenNode/CO_PDO.o
 .debug_frame   0x0000079c      0x288 h:/Work/CANopen/PhiCanOpen_Working/build_root/HYDRA/debug_noOS/Example_IO_mini/obj/h/Work/CANopen/PhiCanOpen_Working/CANopenNode/CO_SDO.o
 .debug_frame   0x00000a24       0x2c h:/Work/CANopen/PhiCanOpen_Working/build_root/HYDRA/debug_noOS/Example_IO_mini/obj/h/Work/CANopen/PhiCanOpen_Working/CANopenNode/crc16-ccitt.o
 .debug_frame   0x00000a50       0xec h:/Work/CANopen/PhiCanOpen_Working/build_root/HYDRA/debug_noOS/Example_IO_mini/obj/h/Work/CANopen/PhiCanOpen_Working/CANopenNode/LPC17XX/CO_driver.o
 .debug_frame   0x00000b3c       0x4c h:/Work/CANopen/PhiCanOpen_Working/build_root/HYDRA/debug_noOS/Example_IO_mini/obj/h/Work/CANopen/PhiCanOpen_Working/CANopenNode/LPC17XX/CO_cpu.o
 .debug_frame   0x00000b88      0x258 h:/Work/CANopen/PhiCanOpen_Working/build_root/HYDRA/debug_noOS/CDL\libCDL.a(lpc17xx_can.o)
 .debug_frame   0x00000de0       0xf4 h:/Work/CANopen/PhiCanOpen_Working/build_root/HYDRA/debug_noOS/CDL\libCDL.a(lpc17xx_clkpwr.o)
 .debug_frame   0x00000ed4      0x170 h:/Work/CANopen/PhiCanOpen_Working/build_root/HYDRA/debug_noOS/CDL\libCDL.a(lpc17xx_debug_frmwrk.o)
 .debug_frame   0x00001044      0x378 h:/Work/CANopen/PhiCanOpen_Working/build_root/HYDRA/debug_noOS/CDL\libCDL.a(lpc17xx_gpio.o)
 .debug_frame   0x000013bc       0xbc h:/Work/CANopen/PhiCanOpen_Working/build_root/HYDRA/debug_noOS/CDL\libCDL.a(lpc17xx_pinsel.o)
 .debug_frame   0x00001478      0x1e0 h:/Work/CANopen/PhiCanOpen_Working/build_root/HYDRA/debug_noOS/CDL\libCDL.a(lpc17xx_timer.o)
 .debug_frame   0x00001658      0x384 h:/Work/CANopen/PhiCanOpen_Working/build_root/HYDRA/debug_noOS/CDL\libCDL.a(lpc17xx_uart.o)
 .debug_frame   0x000019dc      0x100 h:/Work/CANopen/PhiCanOpen_Working/build_root/HYDRA/debug_noOS/CDL\libCDL.a(lpc17xx_wdt.o)
 .debug_frame   0x00001adc      0x180 h:/Work/CANopen/PhiCanOpen_Working/build_root/HYDRA/debug_noOS/CDL\libCDL.a(cr_startup_lpc176x.o)
 .debug_frame   0x00001c5c       0x48 h:/Work/CANopen/PhiCanOpen_Working/build_root/HYDRA/debug_noOS/CDL\libCDL.a(system_LPC17xx.o)
 .debug_frame   0x00001ca4       0x58 h:/arm-non-eabi/bin/../lib/gcc/arm-none-eabi/4.8.4/armv7-m\libgcc.a(bpabi.o)
 .debug_frame   0x00001cfc       0x34 h:/arm-non-eabi/bin/../lib/gcc/arm-none-eabi/4.8.4/armv7-m\libgcc.a(_divdi3.o)
 .debug_frame   0x00001d30       0x34 h:/arm-non-eabi/bin/../lib/gcc/arm-none-eabi/4.8.4/armv7-m\libgcc.a(_udivdi3.o)
