ARM GAS  C:\Users\Akil\AppData\Local\Temp\ccXbK6FH.s 			page 1


   1              		.syntax unified
   2              		.cpu cortex-m3
   3              		.fpu softvfp
   4              		.eabi_attribute 20, 1	@ Tag_ABI_FP_denormal
   5              		.eabi_attribute 21, 1	@ Tag_ABI_FP_exceptions
   6              		.eabi_attribute 23, 3	@ Tag_ABI_FP_number_model
   7              		.eabi_attribute 24, 1	@ Tag_ABI_align8_needed
   8              		.eabi_attribute 25, 1	@ Tag_ABI_align8_preserved
   9              		.eabi_attribute 26, 1	@ Tag_ABI_enum_size
  10              		.eabi_attribute 30, 6	@ Tag_ABI_optimization_goals
  11              		.eabi_attribute 34, 1	@ Tag_CPU_unaligned_access
  12              		.eabi_attribute 18, 4	@ Tag_ABI_PCS_wchar_t
  13              		.file	"vectors_lpc1768.c"
  14              	@ GNU C (GNU Tools for ARM Embedded Processors) version 4.8.4 20140526 (release) [ARM/embedded-4_8-
  15              	@	compiled by GNU C version 4.6.4, GMP version 4.3.2, MPFR version 2.4.2, MPC version 0.8.1
  16              	@ GGC heuristics: --param ggc-min-expand=100 --param ggc-min-heapsize=131072
  17              	@ options passed:  -I . -I ./include -I ./cmsis/core -I ./cmsis/device
  18              	@ -I ./prime-framework -I ./prime-framework/include
  19              	@ -I ./prime-framework/arch/arm/cortex-m3/lpc1768/include
  20              	@ -I ./prime-framework/common/include -I ./prime-framework/utils/include
  21              	@ -I ./prime-framework/nativehardware/lpc1768/include
  22              	@ -I ./prime-framework/device/include
  23              	@ -I ./prime-framework/extensions/canopen/common/include
  24              	@ -I ./prime-framework/extensions/canopen/lpc1768/include
  25              	@ -imultilib armv7-m
  26              	@ -iprefix c:\program files\gnu tools arm embedded\4.8 2014q2\bin\../lib/gcc/arm-none-eabi/4.8.4/
  27              	@ -isysroot c:\program files\gnu tools arm embedded\4.8 2014q2\bin\../arm-none-eabi
  28              	@ -MD src/vectors_lpc1768.d -MF .dep/vectors_lpc1768.o.d -MP
  29              	@ -MQ src/vectors_lpc1768.o -D__USES_INITFINI__ -D CORE_FAMILY_arm
  30              	@ -D MCU_CHIP_lpc1768 -D PRIME_DEBUG -D RUN_FROM_FLASH=1
  31              	@ src/vectors_lpc1768.c -mcpu=cortex-m3 -mthumb
  32              	@ -auxbase-strip src/vectors_lpc1768.o -gdwarf-2 -O0 -Wall
  33              	@ -Wstrict-prototypes -fomit-frame-pointer -fverbose-asm
  34              	@ options enabled:  -faggressive-loop-optimizations -fauto-inc-dec
  35              	@ -fbranch-count-reg -fcommon -fdelete-null-pointer-checks -fdwarf2-cfi-asm
  36              	@ -fearly-inlining -feliminate-unused-debug-types -ffunction-cse -fgcse-lm
  37              	@ -fgnu-runtime -fident -finline-atomics -fira-hoist-pressure
  38              	@ -fira-share-save-slots -fira-share-spill-slots -fivopts
  39              	@ -fkeep-static-consts -fleading-underscore -fmath-errno
  40              	@ -fmerge-debug-strings -fmove-loop-invariants -fomit-frame-pointer
  41              	@ -fpeephole -fprefetch-loop-arrays -freg-struct-return
  42              	@ -fsched-critical-path-heuristic -fsched-dep-count-heuristic
  43              	@ -fsched-group-heuristic -fsched-interblock -fsched-last-insn-heuristic
  44              	@ -fsched-rank-heuristic -fsched-spec -fsched-spec-insn-heuristic
  45              	@ -fsched-stalled-insns-dep -fshow-column -fsigned-zeros
  46              	@ -fsplit-ivs-in-unroller -fstrict-volatile-bitfields -fsync-libcalls
  47              	@ -ftrapping-math -ftree-coalesce-vars -ftree-cselim -ftree-forwprop
  48              	@ -ftree-loop-if-convert -ftree-loop-im -ftree-loop-ivcanon
  49              	@ -ftree-loop-optimize -ftree-parallelize-loops= -ftree-phiprop -ftree-pta
  50              	@ -ftree-reassoc -ftree-scev-cprop -ftree-slp-vectorize
  51              	@ -ftree-vect-loop-version -funit-at-a-time -fverbose-asm
  52              	@ -fzero-initialized-in-bss -mfix-cortex-m3-ldrd -mlittle-endian
  53              	@ -mpic-data-is-text-relative -msched-prolog -mthumb -munaligned-access
  54              	@ -mvectorize-with-neon-quad
  55              	
  56              		.text
  57              	.Ltext0:
ARM GAS  C:\Users\Akil\AppData\Local\Temp\ccXbK6FH.s 			page 2


  58              		.cfi_sections	.debug_frame
  59              		.global	gVectors
  60              		.section	.vectors,"a",%progbits
  61              		.align	2
  62              		.type	gVectors, %object
  63              		.size	gVectors, 192
  64              	gVectors:
  65 0000 00000000 		.word	_estack
  66 0004 00000000 		.word	ResetHandler
  67 0008 00000000 		.word	NMI_Handler
  68 000c 00000000 		.word	HardFault_Handler
  69 0010 00000000 		.word	MemManage_Handler
  70 0014 00000000 		.word	BusFault_Handler
  71 0018 00000000 		.word	UsageFault_Handler
  72 001c 00000000 		.word	0
  73 0020 00000000 		.word	0
  74 0024 00000000 		.word	0
  75 0028 00000000 		.word	0
  76 002c 00000000 		.word	SVC_Handler
  77 0030 00000000 		.word	DebugMon_Handler
  78 0034 00000000 		.word	0
  79 0038 00000000 		.word	PendSV_Handler
  80 003c 00000000 		.word	SysTick_Handler
  81 0040 00000000 		.word	WDT_IRQHandler
  82 0044 00000000 		.word	TIMER0_IRQHandler
  83 0048 00000000 		.word	TIMER1_IRQHandler
  84 004c 00000000 		.word	TIMER2_IRQHandler
  85 0050 00000000 		.word	TIMER3_IRQHandler
  86 0054 00000000 		.word	UART0_IRQHandler
  87 0058 00000000 		.word	UART1_IRQHandler
  88 005c 00000000 		.word	UART2_IRQHandler
  89 0060 00000000 		.word	UART3_IRQHandler
  90 0064 00000000 		.word	PWM_IRQHandler
  91 0068 00000000 		.word	I2C0_IRQHandler
  92 006c 00000000 		.word	I2C1_IRQHandler
  93 0070 00000000 		.word	I2C2_IRQHandler
  94 0074 00000000 		.word	SPI_IRQHandler
  95 0078 00000000 		.word	SSP0_IRQHandler
  96 007c 00000000 		.word	SSP1_IRQHandler
  97 0080 00000000 		.word	PLL0_IRQHandler
  98 0084 00000000 		.word	RTC_IRQHandler
  99 0088 00000000 		.word	EINT0_IRQHandler
 100 008c 00000000 		.word	EINT1_IRQHandler
 101 0090 00000000 		.word	EINT2_IRQHandler
 102 0094 00000000 		.word	EINT3_IRQHandler
 103 0098 00000000 		.word	ADC_IRQHandler
 104 009c 00000000 		.word	BOD_IRQHandler
 105 00a0 00000000 		.word	USB_IRQHandler
 106 00a4 00000000 		.word	CAN_IRQHandler
 107 00a8 00000000 		.word	DMA_IRQHandler
 108 00ac 00000000 		.word	I2S_IRQHandler
 109 00b0 00000000 		.word	ENET_IRQHandler
 110 00b4 00000000 		.word	RIT_IRQHandler
 111 00b8 00000000 		.word	MCPWM_IRQHandler
 112 00bc 00000000 		.word	QEI_IRQHandler
 113              		.text
 114              		.align	2
ARM GAS  C:\Users\Akil\AppData\Local\Temp\ccXbK6FH.s 			page 3


 115              		.weak	NMI_Handler
 116              		.thumb
 117              		.thumb_func
 118              		.type	NMI_Handler, %function
 119              	NMI_Handler:
 120              	.LFB0:
 121              		.file 1 "src/vectors_lpc1768.c"
   1:src/vectors_lpc1768.c **** /****************************************************************************
   2:src/vectors_lpc1768.c **** *  Copyright (c) 2011 by Michael Fischer. All rights reserved.
   3:src/vectors_lpc1768.c **** *
   4:src/vectors_lpc1768.c **** *  Redistribution and use in source and binary forms, with or without 
   5:src/vectors_lpc1768.c **** *  modification, are permitted provided that the following conditions 
   6:src/vectors_lpc1768.c **** *  are met:
   7:src/vectors_lpc1768.c **** *  
   8:src/vectors_lpc1768.c **** *  1. Redistributions of source code must retain the above copyright 
   9:src/vectors_lpc1768.c **** *     notice, this list of conditions and the following disclaimer.
  10:src/vectors_lpc1768.c **** *  2. Redistributions in binary form must reproduce the above copyright
  11:src/vectors_lpc1768.c **** *     notice, this list of conditions and the following disclaimer in the 
  12:src/vectors_lpc1768.c **** *     documentation and/or other materials provided with the distribution.
  13:src/vectors_lpc1768.c **** *  3. Neither the name of the author nor the names of its contributors may 
  14:src/vectors_lpc1768.c **** *     be used to endorse or promote products derived from this software 
  15:src/vectors_lpc1768.c **** *     without specific prior written permission.
  16:src/vectors_lpc1768.c **** *
  17:src/vectors_lpc1768.c **** *  THIS SOFTWARE IS PROVIDED BY THE COPYRIGHT HOLDERS AND CONTRIBUTORS 
  18:src/vectors_lpc1768.c **** *  "AS IS" AND ANY EXPRESS OR IMPLIED WARRANTIES, INCLUDING, BUT NOT 
  19:src/vectors_lpc1768.c **** *  LIMITED TO, THE IMPLIED WARRANTIES OF MERCHANTABILITY AND FITNESS 
  20:src/vectors_lpc1768.c **** *  FOR A PARTICULAR PURPOSE ARE DISCLAIMED. IN NO EVENT SHALL 
  21:src/vectors_lpc1768.c **** *  THE COPYRIGHT OWNER OR CONTRIBUTORS BE LIABLE FOR ANY DIRECT, INDIRECT, 
  22:src/vectors_lpc1768.c **** *  INCIDENTAL, SPECIAL, EXEMPLARY, OR CONSEQUENTIAL DAMAGES (INCLUDING, 
  23:src/vectors_lpc1768.c **** *  BUT NOT LIMITED TO, PROCUREMENT OF SUBSTITUTE GOODS OR SERVICES; LOSS 
  24:src/vectors_lpc1768.c **** *  OF USE, DATA, OR PROFITS; OR BUSINESS INTERRUPTION) HOWEVER CAUSED 
  25:src/vectors_lpc1768.c **** *  AND ON ANY THEORY OF LIABILITY, WHETHER IN CONTRACT, STRICT LIABILITY, 
  26:src/vectors_lpc1768.c **** *  OR TORT (INCLUDING NEGLIGENCE OR OTHERWISE) ARISING IN ANY WAY OUT OF 
  27:src/vectors_lpc1768.c **** *  THE USE OF THIS SOFTWARE, EVEN IF ADVISED OF THE POSSIBILITY OF 
  28:src/vectors_lpc1768.c **** *  SUCH DAMAGE.
  29:src/vectors_lpc1768.c **** *
  30:src/vectors_lpc1768.c **** ****************************************************************************
  31:src/vectors_lpc1768.c **** *  History:
  32:src/vectors_lpc1768.c **** *
  33:src/vectors_lpc1768.c **** *  09.04.2011  mifi  First Version for the LPC1768
  34:src/vectors_lpc1768.c **** ****************************************************************************/
  35:src/vectors_lpc1768.c **** #define __VECTORS_LPC1768_C__
  36:src/vectors_lpc1768.c **** 
  37:src/vectors_lpc1768.c **** /*=========================================================================*/
  38:src/vectors_lpc1768.c **** /*  DEFINE: All extern Data                                                */
  39:src/vectors_lpc1768.c **** /*=========================================================================*/
  40:src/vectors_lpc1768.c **** extern unsigned long _estack;
  41:src/vectors_lpc1768.c **** 
  42:src/vectors_lpc1768.c **** /*=========================================================================*/
  43:src/vectors_lpc1768.c **** /*  DEFINE: Prototypes                                                     */
  44:src/vectors_lpc1768.c **** /*=========================================================================*/
  45:src/vectors_lpc1768.c **** void ResetHandler(void);
  46:src/vectors_lpc1768.c **** 
  47:src/vectors_lpc1768.c **** void NMI_Handler (void) __attribute__((weak));
  48:src/vectors_lpc1768.c **** void HardFault_Handler (void) __attribute__((weak));
  49:src/vectors_lpc1768.c **** void MemManage_Handler (void) __attribute__((weak));
  50:src/vectors_lpc1768.c **** void BusFault_Handler (void) __attribute__((weak));
ARM GAS  C:\Users\Akil\AppData\Local\Temp\ccXbK6FH.s 			page 4


  51:src/vectors_lpc1768.c **** void UsageFault_Handler (void) __attribute__((weak));
  52:src/vectors_lpc1768.c **** void SVC_Handler (void) __attribute__((weak));
  53:src/vectors_lpc1768.c **** void DebugMon_Handler (void) __attribute__((weak));
  54:src/vectors_lpc1768.c **** void PendSV_Handler (void) __attribute__((weak));
  55:src/vectors_lpc1768.c **** void SysTick_Handler (void) __attribute__((weak));
  56:src/vectors_lpc1768.c **** 
  57:src/vectors_lpc1768.c **** void WDT_IRQHandler (void) __attribute__((weak));
  58:src/vectors_lpc1768.c **** void TIMER0_IRQHandler (void) __attribute__((weak));
  59:src/vectors_lpc1768.c **** void TIMER1_IRQHandler (void) __attribute__((weak));
  60:src/vectors_lpc1768.c **** void TIMER2_IRQHandler (void) __attribute__((weak));
  61:src/vectors_lpc1768.c **** void TIMER3_IRQHandler (void) __attribute__((weak));
  62:src/vectors_lpc1768.c **** void UART0_IRQHandler (void) __attribute__((weak));
  63:src/vectors_lpc1768.c **** void UART1_IRQHandler (void) __attribute__((weak));
  64:src/vectors_lpc1768.c **** void UART2_IRQHandler (void) __attribute__((weak));
  65:src/vectors_lpc1768.c **** void UART3_IRQHandler (void) __attribute__((weak));
  66:src/vectors_lpc1768.c **** void PWM_IRQHandler (void) __attribute__((weak));
  67:src/vectors_lpc1768.c **** void I2C0_IRQHandler (void) __attribute__((weak));
  68:src/vectors_lpc1768.c **** void I2C1_IRQHandler (void) __attribute__((weak));
  69:src/vectors_lpc1768.c **** void I2C2_IRQHandler (void) __attribute__((weak));
  70:src/vectors_lpc1768.c **** void SPI_IRQHandler (void) __attribute__((weak));
  71:src/vectors_lpc1768.c **** void SSP0_IRQHandler (void) __attribute__((weak));
  72:src/vectors_lpc1768.c **** void SSP1_IRQHandler (void) __attribute__((weak));
  73:src/vectors_lpc1768.c **** void PLL0_IRQHandler (void) __attribute__((weak));
  74:src/vectors_lpc1768.c **** void RTC_IRQHandler (void) __attribute__((weak));
  75:src/vectors_lpc1768.c **** void EINT0_IRQHandler (void) __attribute__((weak));
  76:src/vectors_lpc1768.c **** void EINT1_IRQHandler (void) __attribute__((weak));
  77:src/vectors_lpc1768.c **** void EINT2_IRQHandler (void) __attribute__((weak));
  78:src/vectors_lpc1768.c **** void EINT3_IRQHandler (void) __attribute__((weak));
  79:src/vectors_lpc1768.c **** void ADC_IRQHandler (void) __attribute__((weak));
  80:src/vectors_lpc1768.c **** void BOD_IRQHandler (void) __attribute__((weak));
  81:src/vectors_lpc1768.c **** void USB_IRQHandler (void) __attribute__((weak));
  82:src/vectors_lpc1768.c **** void CAN_IRQHandler (void) __attribute__((weak));
  83:src/vectors_lpc1768.c **** void DMA_IRQHandler (void) __attribute__((weak));
  84:src/vectors_lpc1768.c **** void I2S_IRQHandler (void) __attribute__((weak));
  85:src/vectors_lpc1768.c **** void ENET_IRQHandler (void) __attribute__((weak));
  86:src/vectors_lpc1768.c **** void RIT_IRQHandler (void) __attribute__((weak));
  87:src/vectors_lpc1768.c **** void MCPWM_IRQHandler (void) __attribute__((weak));
  88:src/vectors_lpc1768.c **** void QEI_IRQHandler (void) __attribute__((weak));
  89:src/vectors_lpc1768.c **** 
  90:src/vectors_lpc1768.c **** /*=========================================================================*/
  91:src/vectors_lpc1768.c **** /*  DEFINE: All code exported                                              */
  92:src/vectors_lpc1768.c **** /*=========================================================================*/
  93:src/vectors_lpc1768.c **** /*
  94:src/vectors_lpc1768.c ****  * This is our vector table.
  95:src/vectors_lpc1768.c ****  */
  96:src/vectors_lpc1768.c **** __attribute__ ((section(".vectors"), used))
  97:src/vectors_lpc1768.c **** void (* const gVectors[])(void) = 
  98:src/vectors_lpc1768.c **** {
  99:src/vectors_lpc1768.c ****    (void (*)(void))((unsigned long)&_estack),
 100:src/vectors_lpc1768.c ****    ResetHandler,
 101:src/vectors_lpc1768.c ****    NMI_Handler,
 102:src/vectors_lpc1768.c ****    HardFault_Handler,
 103:src/vectors_lpc1768.c ****    MemManage_Handler,
 104:src/vectors_lpc1768.c ****    BusFault_Handler,
 105:src/vectors_lpc1768.c ****    UsageFault_Handler,
 106:src/vectors_lpc1768.c ****    0, 0, 0, 0,
 107:src/vectors_lpc1768.c ****    SVC_Handler,
ARM GAS  C:\Users\Akil\AppData\Local\Temp\ccXbK6FH.s 			page 5


 108:src/vectors_lpc1768.c ****    DebugMon_Handler,
 109:src/vectors_lpc1768.c ****    0,
 110:src/vectors_lpc1768.c ****    PendSV_Handler,
 111:src/vectors_lpc1768.c ****    SysTick_Handler,
 112:src/vectors_lpc1768.c ****    
 113:src/vectors_lpc1768.c ****    WDT_IRQHandler,
 114:src/vectors_lpc1768.c ****    TIMER0_IRQHandler,
 115:src/vectors_lpc1768.c ****    TIMER1_IRQHandler,
 116:src/vectors_lpc1768.c ****    TIMER2_IRQHandler,
 117:src/vectors_lpc1768.c ****    TIMER3_IRQHandler,
 118:src/vectors_lpc1768.c ****    UART0_IRQHandler,
 119:src/vectors_lpc1768.c ****    UART1_IRQHandler,
 120:src/vectors_lpc1768.c ****    UART2_IRQHandler,
 121:src/vectors_lpc1768.c ****    UART3_IRQHandler,
 122:src/vectors_lpc1768.c ****    PWM_IRQHandler,
 123:src/vectors_lpc1768.c ****    I2C0_IRQHandler,
 124:src/vectors_lpc1768.c ****    I2C1_IRQHandler,
 125:src/vectors_lpc1768.c ****    I2C2_IRQHandler,
 126:src/vectors_lpc1768.c ****    SPI_IRQHandler,
 127:src/vectors_lpc1768.c ****    SSP0_IRQHandler,
 128:src/vectors_lpc1768.c ****    SSP1_IRQHandler,
 129:src/vectors_lpc1768.c ****    PLL0_IRQHandler,
 130:src/vectors_lpc1768.c ****    RTC_IRQHandler,
 131:src/vectors_lpc1768.c ****    EINT0_IRQHandler,
 132:src/vectors_lpc1768.c ****    EINT1_IRQHandler,
 133:src/vectors_lpc1768.c ****    EINT2_IRQHandler,
 134:src/vectors_lpc1768.c ****    EINT3_IRQHandler,
 135:src/vectors_lpc1768.c ****    ADC_IRQHandler,
 136:src/vectors_lpc1768.c ****    BOD_IRQHandler,
 137:src/vectors_lpc1768.c ****    USB_IRQHandler,
 138:src/vectors_lpc1768.c ****    CAN_IRQHandler,
 139:src/vectors_lpc1768.c ****    DMA_IRQHandler,
 140:src/vectors_lpc1768.c ****    I2S_IRQHandler,
 141:src/vectors_lpc1768.c ****    ENET_IRQHandler,
 142:src/vectors_lpc1768.c ****    RIT_IRQHandler,
 143:src/vectors_lpc1768.c ****    MCPWM_IRQHandler,
 144:src/vectors_lpc1768.c ****    QEI_IRQHandler
 145:src/vectors_lpc1768.c **** }; /* gVectors */
 146:src/vectors_lpc1768.c **** 
 147:src/vectors_lpc1768.c **** /*
 148:src/vectors_lpc1768.c ****  * And here are the weak interrupt handlers.
 149:src/vectors_lpc1768.c ****  */
 150:src/vectors_lpc1768.c **** void NMI_Handler (void) { while(1); }
 122              		.loc 1 150 0
 123              		.cfi_startproc
 124              		@ args = 0, pretend = 0, frame = 0
 125              		@ frame_needed = 0, uses_anonymous_args = 0
 126              		@ link register save eliminated.
 127              	.L2:
 128              		.loc 1 150 0 discriminator 1
 129 0000 FEE7     		b	.L2	@
 130              		.cfi_endproc
 131              	.LFE0:
 132              		.size	NMI_Handler, .-NMI_Handler
 133 0002 00BF     		.align	2
 134              		.weak	HardFault_Handler
 135              		.thumb
ARM GAS  C:\Users\Akil\AppData\Local\Temp\ccXbK6FH.s 			page 6


 136              		.thumb_func
 137              		.type	HardFault_Handler, %function
 138              	HardFault_Handler:
 139              	.LFB1:
 151:src/vectors_lpc1768.c **** void HardFault_Handler (void) { while(1); }
 140              		.loc 1 151 0
 141              		.cfi_startproc
 142              		@ args = 0, pretend = 0, frame = 0
 143              		@ frame_needed = 0, uses_anonymous_args = 0
 144              		@ link register save eliminated.
 145              	.L4:
 146              		.loc 1 151 0 discriminator 1
 147 0004 FEE7     		b	.L4	@
 148              		.cfi_endproc
 149              	.LFE1:
 150              		.size	HardFault_Handler, .-HardFault_Handler
 151 0006 00BF     		.align	2
 152              		.weak	MemManage_Handler
 153              		.thumb
 154              		.thumb_func
 155              		.type	MemManage_Handler, %function
 156              	MemManage_Handler:
 157              	.LFB2:
 152:src/vectors_lpc1768.c **** void MemManage_Handler (void) { while(1); }
 158              		.loc 1 152 0
 159              		.cfi_startproc
 160              		@ args = 0, pretend = 0, frame = 0
 161              		@ frame_needed = 0, uses_anonymous_args = 0
 162              		@ link register save eliminated.
 163              	.L6:
 164              		.loc 1 152 0 discriminator 1
 165 0008 FEE7     		b	.L6	@
 166              		.cfi_endproc
 167              	.LFE2:
 168              		.size	MemManage_Handler, .-MemManage_Handler
 169 000a 00BF     		.align	2
 170              		.weak	BusFault_Handler
 171              		.thumb
 172              		.thumb_func
 173              		.type	BusFault_Handler, %function
 174              	BusFault_Handler:
 175              	.LFB3:
 153:src/vectors_lpc1768.c **** void BusFault_Handler (void) { while(1); }
 176              		.loc 1 153 0
 177              		.cfi_startproc
 178              		@ args = 0, pretend = 0, frame = 0
 179              		@ frame_needed = 0, uses_anonymous_args = 0
 180              		@ link register save eliminated.
 181              	.L8:
 182              		.loc 1 153 0 discriminator 1
 183 000c FEE7     		b	.L8	@
 184              		.cfi_endproc
 185              	.LFE3:
 186              		.size	BusFault_Handler, .-BusFault_Handler
 187 000e 00BF     		.align	2
 188              		.weak	UsageFault_Handler
 189              		.thumb
ARM GAS  C:\Users\Akil\AppData\Local\Temp\ccXbK6FH.s 			page 7


 190              		.thumb_func
 191              		.type	UsageFault_Handler, %function
 192              	UsageFault_Handler:
 193              	.LFB4:
 154:src/vectors_lpc1768.c **** void UsageFault_Handler (void) { while(1); }
 194              		.loc 1 154 0
 195              		.cfi_startproc
 196              		@ args = 0, pretend = 0, frame = 0
 197              		@ frame_needed = 0, uses_anonymous_args = 0
 198              		@ link register save eliminated.
 199              	.L10:
 200              		.loc 1 154 0 discriminator 1
 201 0010 FEE7     		b	.L10	@
 202              		.cfi_endproc
 203              	.LFE4:
 204              		.size	UsageFault_Handler, .-UsageFault_Handler
 205 0012 00BF     		.align	2
 206              		.weak	SVC_Handler
 207              		.thumb
 208              		.thumb_func
 209              		.type	SVC_Handler, %function
 210              	SVC_Handler:
 211              	.LFB5:
 155:src/vectors_lpc1768.c **** void SVC_Handler (void) { while(1); }
 212              		.loc 1 155 0
 213              		.cfi_startproc
 214              		@ args = 0, pretend = 0, frame = 0
 215              		@ frame_needed = 0, uses_anonymous_args = 0
 216              		@ link register save eliminated.
 217              	.L12:
 218              		.loc 1 155 0 discriminator 1
 219 0014 FEE7     		b	.L12	@
 220              		.cfi_endproc
 221              	.LFE5:
 222              		.size	SVC_Handler, .-SVC_Handler
 223 0016 00BF     		.align	2
 224              		.weak	DebugMon_Handler
 225              		.thumb
 226              		.thumb_func
 227              		.type	DebugMon_Handler, %function
 228              	DebugMon_Handler:
 229              	.LFB6:
 156:src/vectors_lpc1768.c **** void DebugMon_Handler (void) { while(1); }
 230              		.loc 1 156 0
 231              		.cfi_startproc
 232              		@ args = 0, pretend = 0, frame = 0
 233              		@ frame_needed = 0, uses_anonymous_args = 0
 234              		@ link register save eliminated.
 235              	.L14:
 236              		.loc 1 156 0 discriminator 1
 237 0018 FEE7     		b	.L14	@
 238              		.cfi_endproc
 239              	.LFE6:
 240              		.size	DebugMon_Handler, .-DebugMon_Handler
 241 001a 00BF     		.align	2
 242              		.weak	PendSV_Handler
 243              		.thumb
ARM GAS  C:\Users\Akil\AppData\Local\Temp\ccXbK6FH.s 			page 8


 244              		.thumb_func
 245              		.type	PendSV_Handler, %function
 246              	PendSV_Handler:
 247              	.LFB7:
 157:src/vectors_lpc1768.c **** void PendSV_Handler (void) { while(1); }
 248              		.loc 1 157 0
 249              		.cfi_startproc
 250              		@ args = 0, pretend = 0, frame = 0
 251              		@ frame_needed = 0, uses_anonymous_args = 0
 252              		@ link register save eliminated.
 253              	.L16:
 254              		.loc 1 157 0 discriminator 1
 255 001c FEE7     		b	.L16	@
 256              		.cfi_endproc
 257              	.LFE7:
 258              		.size	PendSV_Handler, .-PendSV_Handler
 259 001e 00BF     		.align	2
 260              		.weak	SysTick_Handler
 261              		.thumb
 262              		.thumb_func
 263              		.type	SysTick_Handler, %function
 264              	SysTick_Handler:
 265              	.LFB8:
 158:src/vectors_lpc1768.c **** void SysTick_Handler (void) { while(1); }
 266              		.loc 1 158 0
 267              		.cfi_startproc
 268              		@ args = 0, pretend = 0, frame = 0
 269              		@ frame_needed = 0, uses_anonymous_args = 0
 270              		@ link register save eliminated.
 271              	.L18:
 272              		.loc 1 158 0 discriminator 1
 273 0020 FEE7     		b	.L18	@
 274              		.cfi_endproc
 275              	.LFE8:
 276              		.size	SysTick_Handler, .-SysTick_Handler
 277 0022 00BF     		.align	2
 278              		.weak	WDT_IRQHandler
 279              		.thumb
 280              		.thumb_func
 281              		.type	WDT_IRQHandler, %function
 282              	WDT_IRQHandler:
 283              	.LFB9:
 159:src/vectors_lpc1768.c **** 
 160:src/vectors_lpc1768.c **** void WDT_IRQHandler (void) { while(1); }
 284              		.loc 1 160 0
 285              		.cfi_startproc
 286              		@ args = 0, pretend = 0, frame = 0
 287              		@ frame_needed = 0, uses_anonymous_args = 0
 288              		@ link register save eliminated.
 289              	.L20:
 290              		.loc 1 160 0 discriminator 1
 291 0024 FEE7     		b	.L20	@
 292              		.cfi_endproc
 293              	.LFE9:
 294              		.size	WDT_IRQHandler, .-WDT_IRQHandler
 295 0026 00BF     		.align	2
 296              		.weak	TIMER0_IRQHandler
ARM GAS  C:\Users\Akil\AppData\Local\Temp\ccXbK6FH.s 			page 9


 297              		.thumb
 298              		.thumb_func
 299              		.type	TIMER0_IRQHandler, %function
 300              	TIMER0_IRQHandler:
 301              	.LFB10:
 161:src/vectors_lpc1768.c **** void TIMER0_IRQHandler (void) { while(1); }
 302              		.loc 1 161 0
 303              		.cfi_startproc
 304              		@ args = 0, pretend = 0, frame = 0
 305              		@ frame_needed = 0, uses_anonymous_args = 0
 306              		@ link register save eliminated.
 307              	.L22:
 308              		.loc 1 161 0 discriminator 1
 309 0028 FEE7     		b	.L22	@
 310              		.cfi_endproc
 311              	.LFE10:
 312              		.size	TIMER0_IRQHandler, .-TIMER0_IRQHandler
 313 002a 00BF     		.align	2
 314              		.weak	TIMER1_IRQHandler
 315              		.thumb
 316              		.thumb_func
 317              		.type	TIMER1_IRQHandler, %function
 318              	TIMER1_IRQHandler:
 319              	.LFB11:
 162:src/vectors_lpc1768.c **** void TIMER1_IRQHandler (void) { while(1); }
 320              		.loc 1 162 0
 321              		.cfi_startproc
 322              		@ args = 0, pretend = 0, frame = 0
 323              		@ frame_needed = 0, uses_anonymous_args = 0
 324              		@ link register save eliminated.
 325              	.L24:
 326              		.loc 1 162 0 discriminator 1
 327 002c FEE7     		b	.L24	@
 328              		.cfi_endproc
 329              	.LFE11:
 330              		.size	TIMER1_IRQHandler, .-TIMER1_IRQHandler
 331 002e 00BF     		.align	2
 332              		.weak	TIMER2_IRQHandler
 333              		.thumb
 334              		.thumb_func
 335              		.type	TIMER2_IRQHandler, %function
 336              	TIMER2_IRQHandler:
 337              	.LFB12:
 163:src/vectors_lpc1768.c **** void TIMER2_IRQHandler (void) { while(1); }
 338              		.loc 1 163 0
 339              		.cfi_startproc
 340              		@ args = 0, pretend = 0, frame = 0
 341              		@ frame_needed = 0, uses_anonymous_args = 0
 342              		@ link register save eliminated.
 343              	.L26:
 344              		.loc 1 163 0 discriminator 1
 345 0030 FEE7     		b	.L26	@
 346              		.cfi_endproc
 347              	.LFE12:
 348              		.size	TIMER2_IRQHandler, .-TIMER2_IRQHandler
 349 0032 00BF     		.align	2
 350              		.weak	TIMER3_IRQHandler
ARM GAS  C:\Users\Akil\AppData\Local\Temp\ccXbK6FH.s 			page 10


 351              		.thumb
 352              		.thumb_func
 353              		.type	TIMER3_IRQHandler, %function
 354              	TIMER3_IRQHandler:
 355              	.LFB13:
 164:src/vectors_lpc1768.c **** void TIMER3_IRQHandler (void) { while(1); }
 356              		.loc 1 164 0
 357              		.cfi_startproc
 358              		@ args = 0, pretend = 0, frame = 0
 359              		@ frame_needed = 0, uses_anonymous_args = 0
 360              		@ link register save eliminated.
 361              	.L28:
 362              		.loc 1 164 0 discriminator 1
 363 0034 FEE7     		b	.L28	@
 364              		.cfi_endproc
 365              	.LFE13:
 366              		.size	TIMER3_IRQHandler, .-TIMER3_IRQHandler
 367 0036 00BF     		.align	2
 368              		.weak	UART0_IRQHandler
 369              		.thumb
 370              		.thumb_func
 371              		.type	UART0_IRQHandler, %function
 372              	UART0_IRQHandler:
 373              	.LFB14:
 165:src/vectors_lpc1768.c **** void UART0_IRQHandler (void) { while(1); }
 374              		.loc 1 165 0
 375              		.cfi_startproc
 376              		@ args = 0, pretend = 0, frame = 0
 377              		@ frame_needed = 0, uses_anonymous_args = 0
 378              		@ link register save eliminated.
 379              	.L30:
 380              		.loc 1 165 0 discriminator 1
 381 0038 FEE7     		b	.L30	@
 382              		.cfi_endproc
 383              	.LFE14:
 384              		.size	UART0_IRQHandler, .-UART0_IRQHandler
 385 003a 00BF     		.align	2
 386              		.weak	UART1_IRQHandler
 387              		.thumb
 388              		.thumb_func
 389              		.type	UART1_IRQHandler, %function
 390              	UART1_IRQHandler:
 391              	.LFB15:
 166:src/vectors_lpc1768.c **** void UART1_IRQHandler (void) { while(1); }
 392              		.loc 1 166 0
 393              		.cfi_startproc
 394              		@ args = 0, pretend = 0, frame = 0
 395              		@ frame_needed = 0, uses_anonymous_args = 0
 396              		@ link register save eliminated.
 397              	.L32:
 398              		.loc 1 166 0 discriminator 1
 399 003c FEE7     		b	.L32	@
 400              		.cfi_endproc
 401              	.LFE15:
 402              		.size	UART1_IRQHandler, .-UART1_IRQHandler
 403 003e 00BF     		.align	2
 404              		.weak	UART2_IRQHandler
ARM GAS  C:\Users\Akil\AppData\Local\Temp\ccXbK6FH.s 			page 11


 405              		.thumb
 406              		.thumb_func
 407              		.type	UART2_IRQHandler, %function
 408              	UART2_IRQHandler:
 409              	.LFB16:
 167:src/vectors_lpc1768.c **** void UART2_IRQHandler (void) { while(1); }
 410              		.loc 1 167 0
 411              		.cfi_startproc
 412              		@ args = 0, pretend = 0, frame = 0
 413              		@ frame_needed = 0, uses_anonymous_args = 0
 414              		@ link register save eliminated.
 415              	.L34:
 416              		.loc 1 167 0 discriminator 1
 417 0040 FEE7     		b	.L34	@
 418              		.cfi_endproc
 419              	.LFE16:
 420              		.size	UART2_IRQHandler, .-UART2_IRQHandler
 421 0042 00BF     		.align	2
 422              		.weak	UART3_IRQHandler
 423              		.thumb
 424              		.thumb_func
 425              		.type	UART3_IRQHandler, %function
 426              	UART3_IRQHandler:
 427              	.LFB17:
 168:src/vectors_lpc1768.c **** void UART3_IRQHandler (void) { while(1); }
 428              		.loc 1 168 0
 429              		.cfi_startproc
 430              		@ args = 0, pretend = 0, frame = 0
 431              		@ frame_needed = 0, uses_anonymous_args = 0
 432              		@ link register save eliminated.
 433              	.L36:
 434              		.loc 1 168 0 discriminator 1
 435 0044 FEE7     		b	.L36	@
 436              		.cfi_endproc
 437              	.LFE17:
 438              		.size	UART3_IRQHandler, .-UART3_IRQHandler
 439 0046 00BF     		.align	2
 440              		.weak	PWM_IRQHandler
 441              		.thumb
 442              		.thumb_func
 443              		.type	PWM_IRQHandler, %function
 444              	PWM_IRQHandler:
 445              	.LFB18:
 169:src/vectors_lpc1768.c **** void PWM_IRQHandler (void) { while(1); }
 446              		.loc 1 169 0
 447              		.cfi_startproc
 448              		@ args = 0, pretend = 0, frame = 0
 449              		@ frame_needed = 0, uses_anonymous_args = 0
 450              		@ link register save eliminated.
 451              	.L38:
 452              		.loc 1 169 0 discriminator 1
 453 0048 FEE7     		b	.L38	@
 454              		.cfi_endproc
 455              	.LFE18:
 456              		.size	PWM_IRQHandler, .-PWM_IRQHandler
 457 004a 00BF     		.align	2
 458              		.weak	I2C0_IRQHandler
ARM GAS  C:\Users\Akil\AppData\Local\Temp\ccXbK6FH.s 			page 12


 459              		.thumb
 460              		.thumb_func
 461              		.type	I2C0_IRQHandler, %function
 462              	I2C0_IRQHandler:
 463              	.LFB19:
 170:src/vectors_lpc1768.c **** void I2C0_IRQHandler (void) { while(1); }
 464              		.loc 1 170 0
 465              		.cfi_startproc
 466              		@ args = 0, pretend = 0, frame = 0
 467              		@ frame_needed = 0, uses_anonymous_args = 0
 468              		@ link register save eliminated.
 469              	.L40:
 470              		.loc 1 170 0 discriminator 1
 471 004c FEE7     		b	.L40	@
 472              		.cfi_endproc
 473              	.LFE19:
 474              		.size	I2C0_IRQHandler, .-I2C0_IRQHandler
 475 004e 00BF     		.align	2
 476              		.weak	I2C1_IRQHandler
 477              		.thumb
 478              		.thumb_func
 479              		.type	I2C1_IRQHandler, %function
 480              	I2C1_IRQHandler:
 481              	.LFB20:
 171:src/vectors_lpc1768.c **** void I2C1_IRQHandler (void) { while(1); }
 482              		.loc 1 171 0
 483              		.cfi_startproc
 484              		@ args = 0, pretend = 0, frame = 0
 485              		@ frame_needed = 0, uses_anonymous_args = 0
 486              		@ link register save eliminated.
 487              	.L42:
 488              		.loc 1 171 0 discriminator 1
 489 0050 FEE7     		b	.L42	@
 490              		.cfi_endproc
 491              	.LFE20:
 492              		.size	I2C1_IRQHandler, .-I2C1_IRQHandler
 493 0052 00BF     		.align	2
 494              		.weak	I2C2_IRQHandler
 495              		.thumb
 496              		.thumb_func
 497              		.type	I2C2_IRQHandler, %function
 498              	I2C2_IRQHandler:
 499              	.LFB21:
 172:src/vectors_lpc1768.c **** void I2C2_IRQHandler (void) { while(1); }
 500              		.loc 1 172 0
 501              		.cfi_startproc
 502              		@ args = 0, pretend = 0, frame = 0
 503              		@ frame_needed = 0, uses_anonymous_args = 0
 504              		@ link register save eliminated.
 505              	.L44:
 506              		.loc 1 172 0 discriminator 1
 507 0054 FEE7     		b	.L44	@
 508              		.cfi_endproc
 509              	.LFE21:
 510              		.size	I2C2_IRQHandler, .-I2C2_IRQHandler
 511 0056 00BF     		.align	2
 512              		.weak	SPI_IRQHandler
ARM GAS  C:\Users\Akil\AppData\Local\Temp\ccXbK6FH.s 			page 13


 513              		.thumb
 514              		.thumb_func
 515              		.type	SPI_IRQHandler, %function
 516              	SPI_IRQHandler:
 517              	.LFB22:
 173:src/vectors_lpc1768.c **** void SPI_IRQHandler (void) { while(1); }
 518              		.loc 1 173 0
 519              		.cfi_startproc
 520              		@ args = 0, pretend = 0, frame = 0
 521              		@ frame_needed = 0, uses_anonymous_args = 0
 522              		@ link register save eliminated.
 523              	.L46:
 524              		.loc 1 173 0 discriminator 1
 525 0058 FEE7     		b	.L46	@
 526              		.cfi_endproc
 527              	.LFE22:
 528              		.size	SPI_IRQHandler, .-SPI_IRQHandler
 529 005a 00BF     		.align	2
 530              		.weak	SSP0_IRQHandler
 531              		.thumb
 532              		.thumb_func
 533              		.type	SSP0_IRQHandler, %function
 534              	SSP0_IRQHandler:
 535              	.LFB23:
 174:src/vectors_lpc1768.c **** void SSP0_IRQHandler (void) { while(1); }
 536              		.loc 1 174 0
 537              		.cfi_startproc
 538              		@ args = 0, pretend = 0, frame = 0
 539              		@ frame_needed = 0, uses_anonymous_args = 0
 540              		@ link register save eliminated.
 541              	.L48:
 542              		.loc 1 174 0 discriminator 1
 543 005c FEE7     		b	.L48	@
 544              		.cfi_endproc
 545              	.LFE23:
 546              		.size	SSP0_IRQHandler, .-SSP0_IRQHandler
 547 005e 00BF     		.align	2
 548              		.weak	SSP1_IRQHandler
 549              		.thumb
 550              		.thumb_func
 551              		.type	SSP1_IRQHandler, %function
 552              	SSP1_IRQHandler:
 553              	.LFB24:
 175:src/vectors_lpc1768.c **** void SSP1_IRQHandler (void) { while(1); }
 554              		.loc 1 175 0
 555              		.cfi_startproc
 556              		@ args = 0, pretend = 0, frame = 0
 557              		@ frame_needed = 0, uses_anonymous_args = 0
 558              		@ link register save eliminated.
 559              	.L50:
 560              		.loc 1 175 0 discriminator 1
 561 0060 FEE7     		b	.L50	@
 562              		.cfi_endproc
 563              	.LFE24:
 564              		.size	SSP1_IRQHandler, .-SSP1_IRQHandler
 565 0062 00BF     		.align	2
 566              		.weak	PLL0_IRQHandler
ARM GAS  C:\Users\Akil\AppData\Local\Temp\ccXbK6FH.s 			page 14


 567              		.thumb
 568              		.thumb_func
 569              		.type	PLL0_IRQHandler, %function
 570              	PLL0_IRQHandler:
 571              	.LFB25:
 176:src/vectors_lpc1768.c **** void PLL0_IRQHandler (void) { while(1); }
 572              		.loc 1 176 0
 573              		.cfi_startproc
 574              		@ args = 0, pretend = 0, frame = 0
 575              		@ frame_needed = 0, uses_anonymous_args = 0
 576              		@ link register save eliminated.
 577              	.L52:
 578              		.loc 1 176 0 discriminator 1
 579 0064 FEE7     		b	.L52	@
 580              		.cfi_endproc
 581              	.LFE25:
 582              		.size	PLL0_IRQHandler, .-PLL0_IRQHandler
 583 0066 00BF     		.align	2
 584              		.weak	RTC_IRQHandler
 585              		.thumb
 586              		.thumb_func
 587              		.type	RTC_IRQHandler, %function
 588              	RTC_IRQHandler:
 589              	.LFB26:
 177:src/vectors_lpc1768.c **** void RTC_IRQHandler (void) { while(1); }
 590              		.loc 1 177 0
 591              		.cfi_startproc
 592              		@ args = 0, pretend = 0, frame = 0
 593              		@ frame_needed = 0, uses_anonymous_args = 0
 594              		@ link register save eliminated.
 595              	.L54:
 596              		.loc 1 177 0 discriminator 1
 597 0068 FEE7     		b	.L54	@
 598              		.cfi_endproc
 599              	.LFE26:
 600              		.size	RTC_IRQHandler, .-RTC_IRQHandler
 601 006a 00BF     		.align	2
 602              		.weak	EINT0_IRQHandler
 603              		.thumb
 604              		.thumb_func
 605              		.type	EINT0_IRQHandler, %function
 606              	EINT0_IRQHandler:
 607              	.LFB27:
 178:src/vectors_lpc1768.c **** void EINT0_IRQHandler (void) { while(1); }
 608              		.loc 1 178 0
 609              		.cfi_startproc
 610              		@ args = 0, pretend = 0, frame = 0
 611              		@ frame_needed = 0, uses_anonymous_args = 0
 612              		@ link register save eliminated.
 613              	.L56:
 614              		.loc 1 178 0 discriminator 1
 615 006c FEE7     		b	.L56	@
 616              		.cfi_endproc
 617              	.LFE27:
 618              		.size	EINT0_IRQHandler, .-EINT0_IRQHandler
 619 006e 00BF     		.align	2
 620              		.weak	EINT1_IRQHandler
ARM GAS  C:\Users\Akil\AppData\Local\Temp\ccXbK6FH.s 			page 15


 621              		.thumb
 622              		.thumb_func
 623              		.type	EINT1_IRQHandler, %function
 624              	EINT1_IRQHandler:
 625              	.LFB28:
 179:src/vectors_lpc1768.c **** void EINT1_IRQHandler (void) { while(1); }
 626              		.loc 1 179 0
 627              		.cfi_startproc
 628              		@ args = 0, pretend = 0, frame = 0
 629              		@ frame_needed = 0, uses_anonymous_args = 0
 630              		@ link register save eliminated.
 631              	.L58:
 632              		.loc 1 179 0 discriminator 1
 633 0070 FEE7     		b	.L58	@
 634              		.cfi_endproc
 635              	.LFE28:
 636              		.size	EINT1_IRQHandler, .-EINT1_IRQHandler
 637 0072 00BF     		.align	2
 638              		.weak	EINT2_IRQHandler
 639              		.thumb
 640              		.thumb_func
 641              		.type	EINT2_IRQHandler, %function
 642              	EINT2_IRQHandler:
 643              	.LFB29:
 180:src/vectors_lpc1768.c **** void EINT2_IRQHandler (void) { while(1); }
 644              		.loc 1 180 0
 645              		.cfi_startproc
 646              		@ args = 0, pretend = 0, frame = 0
 647              		@ frame_needed = 0, uses_anonymous_args = 0
 648              		@ link register save eliminated.
 649              	.L60:
 650              		.loc 1 180 0 discriminator 1
 651 0074 FEE7     		b	.L60	@
 652              		.cfi_endproc
 653              	.LFE29:
 654              		.size	EINT2_IRQHandler, .-EINT2_IRQHandler
 655 0076 00BF     		.align	2
 656              		.weak	EINT3_IRQHandler
 657              		.thumb
 658              		.thumb_func
 659              		.type	EINT3_IRQHandler, %function
 660              	EINT3_IRQHandler:
 661              	.LFB30:
 181:src/vectors_lpc1768.c **** void EINT3_IRQHandler (void) { while(1); }
 662              		.loc 1 181 0
 663              		.cfi_startproc
 664              		@ args = 0, pretend = 0, frame = 0
 665              		@ frame_needed = 0, uses_anonymous_args = 0
 666              		@ link register save eliminated.
 667              	.L62:
 668              		.loc 1 181 0 discriminator 1
 669 0078 FEE7     		b	.L62	@
 670              		.cfi_endproc
 671              	.LFE30:
 672              		.size	EINT3_IRQHandler, .-EINT3_IRQHandler
 673 007a 00BF     		.align	2
 674              		.weak	ADC_IRQHandler
ARM GAS  C:\Users\Akil\AppData\Local\Temp\ccXbK6FH.s 			page 16


 675              		.thumb
 676              		.thumb_func
 677              		.type	ADC_IRQHandler, %function
 678              	ADC_IRQHandler:
 679              	.LFB31:
 182:src/vectors_lpc1768.c **** void ADC_IRQHandler (void) { while(1); }
 680              		.loc 1 182 0
 681              		.cfi_startproc
 682              		@ args = 0, pretend = 0, frame = 0
 683              		@ frame_needed = 0, uses_anonymous_args = 0
 684              		@ link register save eliminated.
 685              	.L64:
 686              		.loc 1 182 0 discriminator 1
 687 007c FEE7     		b	.L64	@
 688              		.cfi_endproc
 689              	.LFE31:
 690              		.size	ADC_IRQHandler, .-ADC_IRQHandler
 691 007e 00BF     		.align	2
 692              		.weak	BOD_IRQHandler
 693              		.thumb
 694              		.thumb_func
 695              		.type	BOD_IRQHandler, %function
 696              	BOD_IRQHandler:
 697              	.LFB32:
 183:src/vectors_lpc1768.c **** void BOD_IRQHandler (void) { while(1); }
 698              		.loc 1 183 0
 699              		.cfi_startproc
 700              		@ args = 0, pretend = 0, frame = 0
 701              		@ frame_needed = 0, uses_anonymous_args = 0
 702              		@ link register save eliminated.
 703              	.L66:
 704              		.loc 1 183 0 discriminator 1
 705 0080 FEE7     		b	.L66	@
 706              		.cfi_endproc
 707              	.LFE32:
 708              		.size	BOD_IRQHandler, .-BOD_IRQHandler
 709 0082 00BF     		.align	2
 710              		.weak	USB_IRQHandler
 711              		.thumb
 712              		.thumb_func
 713              		.type	USB_IRQHandler, %function
 714              	USB_IRQHandler:
 715              	.LFB33:
 184:src/vectors_lpc1768.c **** void USB_IRQHandler (void) { while(1); }
 716              		.loc 1 184 0
 717              		.cfi_startproc
 718              		@ args = 0, pretend = 0, frame = 0
 719              		@ frame_needed = 0, uses_anonymous_args = 0
 720              		@ link register save eliminated.
 721              	.L68:
 722              		.loc 1 184 0 discriminator 1
 723 0084 FEE7     		b	.L68	@
 724              		.cfi_endproc
 725              	.LFE33:
 726              		.size	USB_IRQHandler, .-USB_IRQHandler
 727 0086 00BF     		.align	2
 728              		.weak	CAN_IRQHandler
ARM GAS  C:\Users\Akil\AppData\Local\Temp\ccXbK6FH.s 			page 17


 729              		.thumb
 730              		.thumb_func
 731              		.type	CAN_IRQHandler, %function
 732              	CAN_IRQHandler:
 733              	.LFB34:
 185:src/vectors_lpc1768.c **** void CAN_IRQHandler (void) { while(1); }
 734              		.loc 1 185 0
 735              		.cfi_startproc
 736              		@ args = 0, pretend = 0, frame = 0
 737              		@ frame_needed = 0, uses_anonymous_args = 0
 738              		@ link register save eliminated.
 739              	.L70:
 740              		.loc 1 185 0 discriminator 1
 741 0088 FEE7     		b	.L70	@
 742              		.cfi_endproc
 743              	.LFE34:
 744              		.size	CAN_IRQHandler, .-CAN_IRQHandler
 745 008a 00BF     		.align	2
 746              		.weak	DMA_IRQHandler
 747              		.thumb
 748              		.thumb_func
 749              		.type	DMA_IRQHandler, %function
 750              	DMA_IRQHandler:
 751              	.LFB35:
 186:src/vectors_lpc1768.c **** void DMA_IRQHandler (void) { while(1); }
 752              		.loc 1 186 0
 753              		.cfi_startproc
 754              		@ args = 0, pretend = 0, frame = 0
 755              		@ frame_needed = 0, uses_anonymous_args = 0
 756              		@ link register save eliminated.
 757              	.L72:
 758              		.loc 1 186 0 discriminator 1
 759 008c FEE7     		b	.L72	@
 760              		.cfi_endproc
 761              	.LFE35:
 762              		.size	DMA_IRQHandler, .-DMA_IRQHandler
 763 008e 00BF     		.align	2
 764              		.weak	I2S_IRQHandler
 765              		.thumb
 766              		.thumb_func
 767              		.type	I2S_IRQHandler, %function
 768              	I2S_IRQHandler:
 769              	.LFB36:
 187:src/vectors_lpc1768.c **** void I2S_IRQHandler (void) { while(1); }
 770              		.loc 1 187 0
 771              		.cfi_startproc
 772              		@ args = 0, pretend = 0, frame = 0
 773              		@ frame_needed = 0, uses_anonymous_args = 0
 774              		@ link register save eliminated.
 775              	.L74:
 776              		.loc 1 187 0 discriminator 1
 777 0090 FEE7     		b	.L74	@
 778              		.cfi_endproc
 779              	.LFE36:
 780              		.size	I2S_IRQHandler, .-I2S_IRQHandler
 781 0092 00BF     		.align	2
 782              		.weak	ENET_IRQHandler
ARM GAS  C:\Users\Akil\AppData\Local\Temp\ccXbK6FH.s 			page 18


 783              		.thumb
 784              		.thumb_func
 785              		.type	ENET_IRQHandler, %function
 786              	ENET_IRQHandler:
 787              	.LFB37:
 188:src/vectors_lpc1768.c **** void ENET_IRQHandler (void) { while(1); }
 788              		.loc 1 188 0
 789              		.cfi_startproc
 790              		@ args = 0, pretend = 0, frame = 0
 791              		@ frame_needed = 0, uses_anonymous_args = 0
 792              		@ link register save eliminated.
 793              	.L76:
 794              		.loc 1 188 0 discriminator 1
 795 0094 FEE7     		b	.L76	@
 796              		.cfi_endproc
 797              	.LFE37:
 798              		.size	ENET_IRQHandler, .-ENET_IRQHandler
 799 0096 00BF     		.align	2
 800              		.weak	RIT_IRQHandler
 801              		.thumb
 802              		.thumb_func
 803              		.type	RIT_IRQHandler, %function
 804              	RIT_IRQHandler:
 805              	.LFB38:
 189:src/vectors_lpc1768.c **** void RIT_IRQHandler (void) { while(1); }
 806              		.loc 1 189 0
 807              		.cfi_startproc
 808              		@ args = 0, pretend = 0, frame = 0
 809              		@ frame_needed = 0, uses_anonymous_args = 0
 810              		@ link register save eliminated.
 811              	.L78:
 812              		.loc 1 189 0 discriminator 1
 813 0098 FEE7     		b	.L78	@
 814              		.cfi_endproc
 815              	.LFE38:
 816              		.size	RIT_IRQHandler, .-RIT_IRQHandler
 817 009a 00BF     		.align	2
 818              		.weak	MCPWM_IRQHandler
 819              		.thumb
 820              		.thumb_func
 821              		.type	MCPWM_IRQHandler, %function
 822              	MCPWM_IRQHandler:
 823              	.LFB39:
 190:src/vectors_lpc1768.c **** void MCPWM_IRQHandler (void) { while(1); }
 824              		.loc 1 190 0
 825              		.cfi_startproc
 826              		@ args = 0, pretend = 0, frame = 0
 827              		@ frame_needed = 0, uses_anonymous_args = 0
 828              		@ link register save eliminated.
 829              	.L80:
 830              		.loc 1 190 0 discriminator 1
 831 009c FEE7     		b	.L80	@
 832              		.cfi_endproc
 833              	.LFE39:
 834              		.size	MCPWM_IRQHandler, .-MCPWM_IRQHandler
 835 009e 00BF     		.align	2
 836              		.weak	QEI_IRQHandler
ARM GAS  C:\Users\Akil\AppData\Local\Temp\ccXbK6FH.s 			page 19


 837              		.thumb
 838              		.thumb_func
 839              		.type	QEI_IRQHandler, %function
 840              	QEI_IRQHandler:
 841              	.LFB40:
 191:src/vectors_lpc1768.c **** void QEI_IRQHandler (void) { while(1); }
 842              		.loc 1 191 0
 843              		.cfi_startproc
 844              		@ args = 0, pretend = 0, frame = 0
 845              		@ frame_needed = 0, uses_anonymous_args = 0
 846              		@ link register save eliminated.
 847              	.L82:
 848              		.loc 1 191 0 discriminator 1
 849 00a0 FEE7     		b	.L82	@
 850              		.cfi_endproc
 851              	.LFE40:
 852              		.size	QEI_IRQHandler, .-QEI_IRQHandler
 853              	.Letext0:
