ARM GAS  C:\Users\Akil\AppData\Local\Temp\ccWumoHd.s 			page 1


   1              		.syntax unified
   2              		.cpu cortex-m3
   3              		.fpu softvfp
   4              		.eabi_attribute 20, 1	@ Tag_ABI_FP_denormal
   5              		.eabi_attribute 21, 1	@ Tag_ABI_FP_exceptions
   6              		.eabi_attribute 23, 3	@ Tag_ABI_FP_number_model
   7              		.eabi_attribute 24, 1	@ Tag_ABI_align8_needed
   8              		.eabi_attribute 25, 1	@ Tag_ABI_align8_preserved
   9              		.eabi_attribute 26, 1	@ Tag_ABI_enum_size
  10              		.eabi_attribute 30, 6	@ Tag_ABI_optimization_goals
  11              		.eabi_attribute 34, 1	@ Tag_CPU_unaligned_access
  12              		.eabi_attribute 18, 4	@ Tag_ABI_PCS_wchar_t
  13              		.file	"system_LPC17xx.c"
  14              	@ GNU C (GNU Tools for ARM Embedded Processors) version 4.8.4 20140526 (release) [ARM/embedded-4_8-
  15              	@	compiled by GNU C version 4.6.4, GMP version 4.3.2, MPFR version 2.4.2, MPC version 0.8.1
  16              	@ GGC heuristics: --param ggc-min-expand=100 --param ggc-min-heapsize=131072
  17              	@ options passed:  -I . -I ./include -I ./cmsis/core -I ./cmsis/device
  18              	@ -I ./prime-framework -I ./prime-framework/include
  19              	@ -I ./prime-framework/arch/arm/cortex-m3/lpc1768/include
  20              	@ -I ./prime-framework/common/include -I ./prime-framework/utils/include
  21              	@ -I ./prime-framework/nativehardware/lpc1768/include
  22              	@ -I ./prime-framework/device/include
  23              	@ -I ./prime-framework/extensions/canopen/common/include
  24              	@ -I ./prime-framework/extensions/canopen/lpc1768/include
  25              	@ -imultilib armv7-m
  26              	@ -iprefix c:\program files\gnu tools arm embedded\4.8 2014q2\bin\../lib/gcc/arm-none-eabi/4.8.4/
  27              	@ -isysroot c:\program files\gnu tools arm embedded\4.8 2014q2\bin\../arm-none-eabi
  28              	@ -MD cmsis/device/system_LPC17xx.d -MF .dep/system_LPC17xx.o.d -MP
  29              	@ -MQ cmsis/device/system_LPC17xx.o -D__USES_INITFINI__ -D CORE_FAMILY_arm
  30              	@ -D MCU_CHIP_lpc1768 -D PRIME_DEBUG -D RUN_FROM_FLASH=1
  31              	@ cmsis/device/system_LPC17xx.c -mcpu=cortex-m3 -mthumb
  32              	@ -auxbase-strip cmsis/device/system_LPC17xx.o -gdwarf-2 -O0 -Wall
  33              	@ -Wstrict-prototypes -fomit-frame-pointer -fverbose-asm
  34              	@ options enabled:  -faggressive-loop-optimizations -fauto-inc-dec
  35              	@ -fbranch-count-reg -fcommon -fdelete-null-pointer-checks -fdwarf2-cfi-asm
  36              	@ -fearly-inlining -feliminate-unused-debug-types -ffunction-cse -fgcse-lm
  37              	@ -fgnu-runtime -fident -finline-atomics -fira-hoist-pressure
  38              	@ -fira-share-save-slots -fira-share-spill-slots -fivopts
  39              	@ -fkeep-static-consts -fleading-underscore -fmath-errno
  40              	@ -fmerge-debug-strings -fmove-loop-invariants -fomit-frame-pointer
  41              	@ -fpeephole -fprefetch-loop-arrays -freg-struct-return
  42              	@ -fsched-critical-path-heuristic -fsched-dep-count-heuristic
  43              	@ -fsched-group-heuristic -fsched-interblock -fsched-last-insn-heuristic
  44              	@ -fsched-rank-heuristic -fsched-spec -fsched-spec-insn-heuristic
  45              	@ -fsched-stalled-insns-dep -fshow-column -fsigned-zeros
  46              	@ -fsplit-ivs-in-unroller -fstrict-volatile-bitfields -fsync-libcalls
  47              	@ -ftrapping-math -ftree-coalesce-vars -ftree-cselim -ftree-forwprop
  48              	@ -ftree-loop-if-convert -ftree-loop-im -ftree-loop-ivcanon
  49              	@ -ftree-loop-optimize -ftree-parallelize-loops= -ftree-phiprop -ftree-pta
  50              	@ -ftree-reassoc -ftree-scev-cprop -ftree-slp-vectorize
  51              	@ -ftree-vect-loop-version -funit-at-a-time -fverbose-asm
  52              	@ -fzero-initialized-in-bss -mfix-cortex-m3-ldrd -mlittle-endian
  53              	@ -mpic-data-is-text-relative -msched-prolog -mthumb -munaligned-access
  54              	@ -mvectorize-with-neon-quad
  55              	
  56              		.text
  57              	.Ltext0:
ARM GAS  C:\Users\Akil\AppData\Local\Temp\ccWumoHd.s 			page 2


  58              		.cfi_sections	.debug_frame
  59              		.global	SystemCoreClock
  60              		.data
  61              		.align	2
  62              		.type	SystemCoreClock, %object
  63              		.size	SystemCoreClock, 4
  64              	SystemCoreClock:
  65 0000 00E1F505 		.word	100000000
  66              		.text
  67              		.align	2
  68              		.global	SystemCoreClockUpdate
  69              		.thumb
  70              		.thumb_func
  71              		.type	SystemCoreClockUpdate, %function
  72              	SystemCoreClockUpdate:
  73              	.LFB55:
  74              		.file 1 "cmsis/device/system_LPC17xx.c"
   1:cmsis/device/system_LPC17xx.c **** /**************************************************************************//**
   2:cmsis/device/system_LPC17xx.c ****  * @file     system_LPC17xx.c
   3:cmsis/device/system_LPC17xx.c ****  * @brief    CMSIS Cortex-M3 Device Peripheral Access Layer Source File
   4:cmsis/device/system_LPC17xx.c ****  *           for the NXP LPC17xx Device Series
   5:cmsis/device/system_LPC17xx.c ****  * @version  V1.03
   6:cmsis/device/system_LPC17xx.c ****  * @date     07. October 2009
   7:cmsis/device/system_LPC17xx.c ****  *
   8:cmsis/device/system_LPC17xx.c ****  * @note
   9:cmsis/device/system_LPC17xx.c ****  * Copyright (C) 2009 ARM Limited. All rights reserved.
  10:cmsis/device/system_LPC17xx.c ****  *
  11:cmsis/device/system_LPC17xx.c ****  * @par
  12:cmsis/device/system_LPC17xx.c ****  * ARM Limited (ARM) is supplying this software for use with Cortex-M
  13:cmsis/device/system_LPC17xx.c ****  * processor based microcontrollers.  This file can be freely distributed
  14:cmsis/device/system_LPC17xx.c ****  * within development tools that are supporting such ARM based processors.
  15:cmsis/device/system_LPC17xx.c ****  *
  16:cmsis/device/system_LPC17xx.c ****  * @par
  17:cmsis/device/system_LPC17xx.c ****  * THIS SOFTWARE IS PROVIDED "AS IS".  NO WARRANTIES, WHETHER EXPRESS, IMPLIED
  18:cmsis/device/system_LPC17xx.c ****  * OR STATUTORY, INCLUDING, BUT NOT LIMITED TO, IMPLIED WARRANTIES OF
  19:cmsis/device/system_LPC17xx.c ****  * MERCHANTABILITY AND FITNESS FOR A PARTICULAR PURPOSE APPLY TO THIS SOFTWARE.
  20:cmsis/device/system_LPC17xx.c ****  * ARM SHALL NOT, IN ANY CIRCUMSTANCES, BE LIABLE FOR SPECIAL, INCIDENTAL, OR
  21:cmsis/device/system_LPC17xx.c ****  * CONSEQUENTIAL DAMAGES, FOR ANY REASON WHATSOEVER.
  22:cmsis/device/system_LPC17xx.c ****  *
  23:cmsis/device/system_LPC17xx.c ****  ******************************************************************************/
  24:cmsis/device/system_LPC17xx.c **** 
  25:cmsis/device/system_LPC17xx.c **** 
  26:cmsis/device/system_LPC17xx.c **** #include <stdint.h>
  27:cmsis/device/system_LPC17xx.c **** #include "LPC17xx.h"
  28:cmsis/device/system_LPC17xx.c **** 
  29:cmsis/device/system_LPC17xx.c **** 
  30:cmsis/device/system_LPC17xx.c **** /** @addtogroup LPC17xx_System
  31:cmsis/device/system_LPC17xx.c ****  * @{
  32:cmsis/device/system_LPC17xx.c ****  */
  33:cmsis/device/system_LPC17xx.c **** 
  34:cmsis/device/system_LPC17xx.c **** /*
  35:cmsis/device/system_LPC17xx.c **** //-------- <<< Use Configuration Wizard in Context Menu >>> ------------------
  36:cmsis/device/system_LPC17xx.c **** */
  37:cmsis/device/system_LPC17xx.c **** 
  38:cmsis/device/system_LPC17xx.c **** /*--------------------- Clock Configuration ----------------------------------
  39:cmsis/device/system_LPC17xx.c **** //
  40:cmsis/device/system_LPC17xx.c **** // <e> Clock Configuration
ARM GAS  C:\Users\Akil\AppData\Local\Temp\ccWumoHd.s 			page 3


  41:cmsis/device/system_LPC17xx.c **** //   <h> System Controls and Status Register (SCS)
  42:cmsis/device/system_LPC17xx.c **** //     <o1.4>    OSCRANGE: Main Oscillator Range Select
  43:cmsis/device/system_LPC17xx.c **** //                     <0=>  1 MHz to 20 MHz
  44:cmsis/device/system_LPC17xx.c **** //                     <1=> 15 MHz to 24 MHz
  45:cmsis/device/system_LPC17xx.c **** //     <e1.5>       OSCEN: Main Oscillator Enable
  46:cmsis/device/system_LPC17xx.c **** //     </e>
  47:cmsis/device/system_LPC17xx.c **** //   </h>
  48:cmsis/device/system_LPC17xx.c **** //
  49:cmsis/device/system_LPC17xx.c **** //   <h> Clock Source Select Register (CLKSRCSEL)
  50:cmsis/device/system_LPC17xx.c **** //     <o2.0..1>   CLKSRC: PLL Clock Source Selection
  51:cmsis/device/system_LPC17xx.c **** //                     <0=> Internal RC oscillator
  52:cmsis/device/system_LPC17xx.c **** //                     <1=> Main oscillator
  53:cmsis/device/system_LPC17xx.c **** //                     <2=> RTC oscillator
  54:cmsis/device/system_LPC17xx.c **** //   </h>
  55:cmsis/device/system_LPC17xx.c **** //
  56:cmsis/device/system_LPC17xx.c **** //   <e3> PLL0 Configuration (Main PLL)
  57:cmsis/device/system_LPC17xx.c **** //     <h> PLL0 Configuration Register (PLL0CFG)
  58:cmsis/device/system_LPC17xx.c **** //                     <i> F_cco0 = (2 * M * F_in) / N
  59:cmsis/device/system_LPC17xx.c **** //                     <i> F_in must be in the range of 32 kHz to 50 MHz
  60:cmsis/device/system_LPC17xx.c **** //                     <i> F_cco0 must be in the range of 275 MHz to 550 MHz
  61:cmsis/device/system_LPC17xx.c **** //       <o4.0..14>  MSEL: PLL Multiplier Selection
  62:cmsis/device/system_LPC17xx.c **** //                     <6-32768><#-1>
  63:cmsis/device/system_LPC17xx.c **** //                     <i> M Value
  64:cmsis/device/system_LPC17xx.c **** //       <o4.16..23> NSEL: PLL Divider Selection
  65:cmsis/device/system_LPC17xx.c **** //                     <1-256><#-1>
  66:cmsis/device/system_LPC17xx.c **** //                     <i> N Value
  67:cmsis/device/system_LPC17xx.c **** //     </h>
  68:cmsis/device/system_LPC17xx.c **** //   </e>
  69:cmsis/device/system_LPC17xx.c **** //
  70:cmsis/device/system_LPC17xx.c **** //   <e5> PLL1 Configuration (USB PLL)
  71:cmsis/device/system_LPC17xx.c **** //     <h> PLL1 Configuration Register (PLL1CFG)
  72:cmsis/device/system_LPC17xx.c **** //                     <i> F_usb = M * F_osc or F_usb = F_cco1 / (2 * P)
  73:cmsis/device/system_LPC17xx.c **** //                     <i> F_cco1 = F_osc * M * 2 * P
  74:cmsis/device/system_LPC17xx.c **** //                     <i> F_cco1 must be in the range of 156 MHz to 320 MHz
  75:cmsis/device/system_LPC17xx.c **** //       <o6.0..4>   MSEL: PLL Multiplier Selection
  76:cmsis/device/system_LPC17xx.c **** //                     <1-32><#-1>
  77:cmsis/device/system_LPC17xx.c **** //                     <i> M Value (for USB maximum value is 4)
  78:cmsis/device/system_LPC17xx.c **** //       <o6.5..6>   PSEL: PLL Divider Selection
  79:cmsis/device/system_LPC17xx.c **** //                     <0=> 1
  80:cmsis/device/system_LPC17xx.c **** //                     <1=> 2
  81:cmsis/device/system_LPC17xx.c **** //                     <2=> 4
  82:cmsis/device/system_LPC17xx.c **** //                     <3=> 8
  83:cmsis/device/system_LPC17xx.c **** //                     <i> P Value
  84:cmsis/device/system_LPC17xx.c **** //     </h>
  85:cmsis/device/system_LPC17xx.c **** //   </e>
  86:cmsis/device/system_LPC17xx.c **** //
  87:cmsis/device/system_LPC17xx.c **** //   <h> CPU Clock Configuration Register (CCLKCFG)
  88:cmsis/device/system_LPC17xx.c **** //     <o7.0..7>  CCLKSEL: Divide Value for CPU Clock from PLL0
  89:cmsis/device/system_LPC17xx.c **** //                     <3-256><#-1>
  90:cmsis/device/system_LPC17xx.c **** //   </h>
  91:cmsis/device/system_LPC17xx.c **** //
  92:cmsis/device/system_LPC17xx.c **** //   <h> USB Clock Configuration Register (USBCLKCFG)
  93:cmsis/device/system_LPC17xx.c **** //     <o8.0..3>   USBSEL: Divide Value for USB Clock from PLL0
  94:cmsis/device/system_LPC17xx.c **** //                     <0-15>
  95:cmsis/device/system_LPC17xx.c **** //                     <i> Divide is USBSEL + 1
  96:cmsis/device/system_LPC17xx.c **** //   </h>
  97:cmsis/device/system_LPC17xx.c **** //
ARM GAS  C:\Users\Akil\AppData\Local\Temp\ccWumoHd.s 			page 4


  98:cmsis/device/system_LPC17xx.c **** //   <h> Peripheral Clock Selection Register 0 (PCLKSEL0)
  99:cmsis/device/system_LPC17xx.c **** //     <o9.0..1>    PCLK_WDT: Peripheral Clock Selection for WDT
 100:cmsis/device/system_LPC17xx.c **** //                     <0=> Pclk = Cclk / 4
 101:cmsis/device/system_LPC17xx.c **** //                     <1=> Pclk = Cclk
 102:cmsis/device/system_LPC17xx.c **** //                     <2=> Pclk = Cclk / 2
 103:cmsis/device/system_LPC17xx.c **** //                     <3=> Pclk = Hclk / 8
 104:cmsis/device/system_LPC17xx.c **** //     <o9.2..3>    PCLK_TIMER0: Peripheral Clock Selection for TIMER0
 105:cmsis/device/system_LPC17xx.c **** //                     <0=> Pclk = Cclk / 4
 106:cmsis/device/system_LPC17xx.c **** //                     <1=> Pclk = Cclk
 107:cmsis/device/system_LPC17xx.c **** //                     <2=> Pclk = Cclk / 2
 108:cmsis/device/system_LPC17xx.c **** //                     <3=> Pclk = Hclk / 8
 109:cmsis/device/system_LPC17xx.c **** //     <o9.4..5>    PCLK_TIMER1: Peripheral Clock Selection for TIMER1
 110:cmsis/device/system_LPC17xx.c **** //                     <0=> Pclk = Cclk / 4
 111:cmsis/device/system_LPC17xx.c **** //                     <1=> Pclk = Cclk
 112:cmsis/device/system_LPC17xx.c **** //                     <2=> Pclk = Cclk / 2
 113:cmsis/device/system_LPC17xx.c **** //                     <3=> Pclk = Hclk / 8
 114:cmsis/device/system_LPC17xx.c **** //     <o9.6..7>    PCLK_UART0: Peripheral Clock Selection for UART0
 115:cmsis/device/system_LPC17xx.c **** //                     <0=> Pclk = Cclk / 4
 116:cmsis/device/system_LPC17xx.c **** //                     <1=> Pclk = Cclk
 117:cmsis/device/system_LPC17xx.c **** //                     <2=> Pclk = Cclk / 2
 118:cmsis/device/system_LPC17xx.c **** //                     <3=> Pclk = Hclk / 8
 119:cmsis/device/system_LPC17xx.c **** //     <o9.8..9>    PCLK_UART1: Peripheral Clock Selection for UART1
 120:cmsis/device/system_LPC17xx.c **** //                     <0=> Pclk = Cclk / 4
 121:cmsis/device/system_LPC17xx.c **** //                     <1=> Pclk = Cclk
 122:cmsis/device/system_LPC17xx.c **** //                     <2=> Pclk = Cclk / 2
 123:cmsis/device/system_LPC17xx.c **** //                     <3=> Pclk = Hclk / 8
 124:cmsis/device/system_LPC17xx.c **** //     <o9.12..13>  PCLK_PWM1: Peripheral Clock Selection for PWM1
 125:cmsis/device/system_LPC17xx.c **** //                     <0=> Pclk = Cclk / 4
 126:cmsis/device/system_LPC17xx.c **** //                     <1=> Pclk = Cclk
 127:cmsis/device/system_LPC17xx.c **** //                     <2=> Pclk = Cclk / 2
 128:cmsis/device/system_LPC17xx.c **** //                     <3=> Pclk = Hclk / 8
 129:cmsis/device/system_LPC17xx.c **** //     <o9.14..15>  PCLK_I2C0: Peripheral Clock Selection for I2C0
 130:cmsis/device/system_LPC17xx.c **** //                     <0=> Pclk = Cclk / 4
 131:cmsis/device/system_LPC17xx.c **** //                     <1=> Pclk = Cclk
 132:cmsis/device/system_LPC17xx.c **** //                     <2=> Pclk = Cclk / 2
 133:cmsis/device/system_LPC17xx.c **** //                     <3=> Pclk = Hclk / 8
 134:cmsis/device/system_LPC17xx.c **** //     <o9.16..17>  PCLK_SPI: Peripheral Clock Selection for SPI
 135:cmsis/device/system_LPC17xx.c **** //                     <0=> Pclk = Cclk / 4
 136:cmsis/device/system_LPC17xx.c **** //                     <1=> Pclk = Cclk
 137:cmsis/device/system_LPC17xx.c **** //                     <2=> Pclk = Cclk / 2
 138:cmsis/device/system_LPC17xx.c **** //                     <3=> Pclk = Hclk / 8
 139:cmsis/device/system_LPC17xx.c **** //     <o9.20..21>  PCLK_SSP1: Peripheral Clock Selection for SSP1
 140:cmsis/device/system_LPC17xx.c **** //                     <0=> Pclk = Cclk / 4
 141:cmsis/device/system_LPC17xx.c **** //                     <1=> Pclk = Cclk
 142:cmsis/device/system_LPC17xx.c **** //                     <2=> Pclk = Cclk / 2
 143:cmsis/device/system_LPC17xx.c **** //                     <3=> Pclk = Hclk / 8
 144:cmsis/device/system_LPC17xx.c **** //     <o9.22..23>  PCLK_DAC: Peripheral Clock Selection for DAC
 145:cmsis/device/system_LPC17xx.c **** //                     <0=> Pclk = Cclk / 4
 146:cmsis/device/system_LPC17xx.c **** //                     <1=> Pclk = Cclk
 147:cmsis/device/system_LPC17xx.c **** //                     <2=> Pclk = Cclk / 2
 148:cmsis/device/system_LPC17xx.c **** //                     <3=> Pclk = Hclk / 8
 149:cmsis/device/system_LPC17xx.c **** //     <o9.24..25>  PCLK_ADC: Peripheral Clock Selection for ADC
 150:cmsis/device/system_LPC17xx.c **** //                     <0=> Pclk = Cclk / 4
 151:cmsis/device/system_LPC17xx.c **** //                     <1=> Pclk = Cclk
 152:cmsis/device/system_LPC17xx.c **** //                     <2=> Pclk = Cclk / 2
 153:cmsis/device/system_LPC17xx.c **** //                     <3=> Pclk = Hclk / 8
 154:cmsis/device/system_LPC17xx.c **** //     <o9.26..27>  PCLK_CAN1: Peripheral Clock Selection for CAN1
ARM GAS  C:\Users\Akil\AppData\Local\Temp\ccWumoHd.s 			page 5


 155:cmsis/device/system_LPC17xx.c **** //                     <0=> Pclk = Cclk / 4
 156:cmsis/device/system_LPC17xx.c **** //                     <1=> Pclk = Cclk
 157:cmsis/device/system_LPC17xx.c **** //                     <2=> Pclk = Cclk / 2
 158:cmsis/device/system_LPC17xx.c **** //                     <3=> Pclk = Hclk / 6
 159:cmsis/device/system_LPC17xx.c **** //     <o9.28..29>  PCLK_CAN2: Peripheral Clock Selection for CAN2
 160:cmsis/device/system_LPC17xx.c **** //                     <0=> Pclk = Cclk / 4
 161:cmsis/device/system_LPC17xx.c **** //                     <1=> Pclk = Cclk
 162:cmsis/device/system_LPC17xx.c **** //                     <2=> Pclk = Cclk / 2
 163:cmsis/device/system_LPC17xx.c **** //                     <3=> Pclk = Hclk / 6
 164:cmsis/device/system_LPC17xx.c **** //     <o9.30..31>  PCLK_ACF: Peripheral Clock Selection for ACF
 165:cmsis/device/system_LPC17xx.c **** //                     <0=> Pclk = Cclk / 4
 166:cmsis/device/system_LPC17xx.c **** //                     <1=> Pclk = Cclk
 167:cmsis/device/system_LPC17xx.c **** //                     <2=> Pclk = Cclk / 2
 168:cmsis/device/system_LPC17xx.c **** //                     <3=> Pclk = Hclk / 6
 169:cmsis/device/system_LPC17xx.c **** //   </h>
 170:cmsis/device/system_LPC17xx.c **** //
 171:cmsis/device/system_LPC17xx.c **** //   <h> Peripheral Clock Selection Register 1 (PCLKSEL1)
 172:cmsis/device/system_LPC17xx.c **** //     <o10.0..1>   PCLK_QEI: Peripheral Clock Selection for the Quadrature Encoder Interface
 173:cmsis/device/system_LPC17xx.c **** //                     <0=> Pclk = Cclk / 4
 174:cmsis/device/system_LPC17xx.c **** //                     <1=> Pclk = Cclk
 175:cmsis/device/system_LPC17xx.c **** //                     <2=> Pclk = Cclk / 2
 176:cmsis/device/system_LPC17xx.c **** //                     <3=> Pclk = Hclk / 8
 177:cmsis/device/system_LPC17xx.c **** //     <o10.2..3>   PCLK_GPIO: Peripheral Clock Selection for GPIOs
 178:cmsis/device/system_LPC17xx.c **** //                     <0=> Pclk = Cclk / 4
 179:cmsis/device/system_LPC17xx.c **** //                     <1=> Pclk = Cclk
 180:cmsis/device/system_LPC17xx.c **** //                     <2=> Pclk = Cclk / 2
 181:cmsis/device/system_LPC17xx.c **** //                     <3=> Pclk = Hclk / 8
 182:cmsis/device/system_LPC17xx.c **** //     <o10.4..5>   PCLK_PCB: Peripheral Clock Selection for the Pin Connect Block
 183:cmsis/device/system_LPC17xx.c **** //                     <0=> Pclk = Cclk / 4
 184:cmsis/device/system_LPC17xx.c **** //                     <1=> Pclk = Cclk
 185:cmsis/device/system_LPC17xx.c **** //                     <2=> Pclk = Cclk / 2
 186:cmsis/device/system_LPC17xx.c **** //                     <3=> Pclk = Hclk / 8
 187:cmsis/device/system_LPC17xx.c **** //     <o10.6..7>   PCLK_I2C1: Peripheral Clock Selection for I2C1
 188:cmsis/device/system_LPC17xx.c **** //                     <0=> Pclk = Cclk / 4
 189:cmsis/device/system_LPC17xx.c **** //                     <1=> Pclk = Cclk
 190:cmsis/device/system_LPC17xx.c **** //                     <2=> Pclk = Cclk / 2
 191:cmsis/device/system_LPC17xx.c **** //                     <3=> Pclk = Hclk / 8
 192:cmsis/device/system_LPC17xx.c **** //     <o10.10..11> PCLK_SSP0: Peripheral Clock Selection for SSP0
 193:cmsis/device/system_LPC17xx.c **** //                     <0=> Pclk = Cclk / 4
 194:cmsis/device/system_LPC17xx.c **** //                     <1=> Pclk = Cclk
 195:cmsis/device/system_LPC17xx.c **** //                     <2=> Pclk = Cclk / 2
 196:cmsis/device/system_LPC17xx.c **** //                     <3=> Pclk = Hclk / 8
 197:cmsis/device/system_LPC17xx.c **** //     <o10.12..13> PCLK_TIMER2: Peripheral Clock Selection for TIMER2
 198:cmsis/device/system_LPC17xx.c **** //                     <0=> Pclk = Cclk / 4
 199:cmsis/device/system_LPC17xx.c **** //                     <1=> Pclk = Cclk
 200:cmsis/device/system_LPC17xx.c **** //                     <2=> Pclk = Cclk / 2
 201:cmsis/device/system_LPC17xx.c **** //                     <3=> Pclk = Hclk / 8
 202:cmsis/device/system_LPC17xx.c **** //     <o10.14..15> PCLK_TIMER3: Peripheral Clock Selection for TIMER3
 203:cmsis/device/system_LPC17xx.c **** //                     <0=> Pclk = Cclk / 4
 204:cmsis/device/system_LPC17xx.c **** //                     <1=> Pclk = Cclk
 205:cmsis/device/system_LPC17xx.c **** //                     <2=> Pclk = Cclk / 2
 206:cmsis/device/system_LPC17xx.c **** //                     <3=> Pclk = Hclk / 8
 207:cmsis/device/system_LPC17xx.c **** //     <o10.16..17> PCLK_UART2: Peripheral Clock Selection for UART2
 208:cmsis/device/system_LPC17xx.c **** //                     <0=> Pclk = Cclk / 4
 209:cmsis/device/system_LPC17xx.c **** //                     <1=> Pclk = Cclk
 210:cmsis/device/system_LPC17xx.c **** //                     <2=> Pclk = Cclk / 2
 211:cmsis/device/system_LPC17xx.c **** //                     <3=> Pclk = Hclk / 8
ARM GAS  C:\Users\Akil\AppData\Local\Temp\ccWumoHd.s 			page 6


 212:cmsis/device/system_LPC17xx.c **** //     <o10.18..19> PCLK_UART3: Peripheral Clock Selection for UART3
 213:cmsis/device/system_LPC17xx.c **** //                     <0=> Pclk = Cclk / 4
 214:cmsis/device/system_LPC17xx.c **** //                     <1=> Pclk = Cclk
 215:cmsis/device/system_LPC17xx.c **** //                     <2=> Pclk = Cclk / 2
 216:cmsis/device/system_LPC17xx.c **** //                     <3=> Pclk = Hclk / 8
 217:cmsis/device/system_LPC17xx.c **** //     <o10.20..21> PCLK_I2C2: Peripheral Clock Selection for I2C2
 218:cmsis/device/system_LPC17xx.c **** //                     <0=> Pclk = Cclk / 4
 219:cmsis/device/system_LPC17xx.c **** //                     <1=> Pclk = Cclk
 220:cmsis/device/system_LPC17xx.c **** //                     <2=> Pclk = Cclk / 2
 221:cmsis/device/system_LPC17xx.c **** //                     <3=> Pclk = Hclk / 8
 222:cmsis/device/system_LPC17xx.c **** //     <o10.22..23> PCLK_I2S: Peripheral Clock Selection for I2S
 223:cmsis/device/system_LPC17xx.c **** //                     <0=> Pclk = Cclk / 4
 224:cmsis/device/system_LPC17xx.c **** //                     <1=> Pclk = Cclk
 225:cmsis/device/system_LPC17xx.c **** //                     <2=> Pclk = Cclk / 2
 226:cmsis/device/system_LPC17xx.c **** //                     <3=> Pclk = Hclk / 8
 227:cmsis/device/system_LPC17xx.c **** //     <o10.26..27> PCLK_RIT: Peripheral Clock Selection for the Repetitive Interrupt Timer
 228:cmsis/device/system_LPC17xx.c **** //                     <0=> Pclk = Cclk / 4
 229:cmsis/device/system_LPC17xx.c **** //                     <1=> Pclk = Cclk
 230:cmsis/device/system_LPC17xx.c **** //                     <2=> Pclk = Cclk / 2
 231:cmsis/device/system_LPC17xx.c **** //                     <3=> Pclk = Hclk / 8
 232:cmsis/device/system_LPC17xx.c **** //     <o10.28..29> PCLK_SYSCON: Peripheral Clock Selection for the System Control Block
 233:cmsis/device/system_LPC17xx.c **** //                     <0=> Pclk = Cclk / 4
 234:cmsis/device/system_LPC17xx.c **** //                     <1=> Pclk = Cclk
 235:cmsis/device/system_LPC17xx.c **** //                     <2=> Pclk = Cclk / 2
 236:cmsis/device/system_LPC17xx.c **** //                     <3=> Pclk = Hclk / 8
 237:cmsis/device/system_LPC17xx.c **** //     <o10.30..31> PCLK_MC: Peripheral Clock Selection for the Motor Control PWM
 238:cmsis/device/system_LPC17xx.c **** //                     <0=> Pclk = Cclk / 4
 239:cmsis/device/system_LPC17xx.c **** //                     <1=> Pclk = Cclk
 240:cmsis/device/system_LPC17xx.c **** //                     <2=> Pclk = Cclk / 2
 241:cmsis/device/system_LPC17xx.c **** //                     <3=> Pclk = Hclk / 8
 242:cmsis/device/system_LPC17xx.c **** //   </h>
 243:cmsis/device/system_LPC17xx.c **** //
 244:cmsis/device/system_LPC17xx.c **** //   <h> Power Control for Peripherals Register (PCONP)
 245:cmsis/device/system_LPC17xx.c **** //     <o11.1>      PCTIM0: Timer/Counter 0 power/clock enable
 246:cmsis/device/system_LPC17xx.c **** //     <o11.2>      PCTIM1: Timer/Counter 1 power/clock enable
 247:cmsis/device/system_LPC17xx.c **** //     <o11.3>      PCUART0: UART 0 power/clock enable
 248:cmsis/device/system_LPC17xx.c **** //     <o11.4>      PCUART1: UART 1 power/clock enable
 249:cmsis/device/system_LPC17xx.c **** //     <o11.6>      PCPWM1: PWM 1 power/clock enable
 250:cmsis/device/system_LPC17xx.c **** //     <o11.7>      PCI2C0: I2C interface 0 power/clock enable
 251:cmsis/device/system_LPC17xx.c **** //     <o11.8>      PCSPI: SPI interface power/clock enable
 252:cmsis/device/system_LPC17xx.c **** //     <o11.9>      PCRTC: RTC power/clock enable
 253:cmsis/device/system_LPC17xx.c **** //     <o11.10>     PCSSP1: SSP interface 1 power/clock enable
 254:cmsis/device/system_LPC17xx.c **** //     <o11.12>     PCAD: A/D converter power/clock enable
 255:cmsis/device/system_LPC17xx.c **** //     <o11.13>     PCCAN1: CAN controller 1 power/clock enable
 256:cmsis/device/system_LPC17xx.c **** //     <o11.14>     PCCAN2: CAN controller 2 power/clock enable
 257:cmsis/device/system_LPC17xx.c **** //     <o11.15>     PCGPIO: GPIOs power/clock enable
 258:cmsis/device/system_LPC17xx.c **** //     <o11.16>     PCRIT: Repetitive interrupt timer power/clock enable
 259:cmsis/device/system_LPC17xx.c **** //     <o11.17>     PCMC: Motor control PWM power/clock enable
 260:cmsis/device/system_LPC17xx.c **** //     <o11.18>     PCQEI: Quadrature encoder interface power/clock enable
 261:cmsis/device/system_LPC17xx.c **** //     <o11.19>     PCI2C1: I2C interface 1 power/clock enable
 262:cmsis/device/system_LPC17xx.c **** //     <o11.21>     PCSSP0: SSP interface 0 power/clock enable
 263:cmsis/device/system_LPC17xx.c **** //     <o11.22>     PCTIM2: Timer 2 power/clock enable
 264:cmsis/device/system_LPC17xx.c **** //     <o11.23>     PCTIM3: Timer 3 power/clock enable
 265:cmsis/device/system_LPC17xx.c **** //     <o11.24>     PCUART2: UART 2 power/clock enable
 266:cmsis/device/system_LPC17xx.c **** //     <o11.25>     PCUART3: UART 3 power/clock enable
 267:cmsis/device/system_LPC17xx.c **** //     <o11.26>     PCI2C2: I2C interface 2 power/clock enable
 268:cmsis/device/system_LPC17xx.c **** //     <o11.27>     PCI2S: I2S interface power/clock enable
ARM GAS  C:\Users\Akil\AppData\Local\Temp\ccWumoHd.s 			page 7


 269:cmsis/device/system_LPC17xx.c **** //     <o11.29>     PCGPDMA: GP DMA function power/clock enable
 270:cmsis/device/system_LPC17xx.c **** //     <o11.30>     PCENET: Ethernet block power/clock enable
 271:cmsis/device/system_LPC17xx.c **** //     <o11.31>     PCUSB: USB interface power/clock enable
 272:cmsis/device/system_LPC17xx.c **** //   </h>
 273:cmsis/device/system_LPC17xx.c **** //
 274:cmsis/device/system_LPC17xx.c **** //   <h> Clock Output Configuration Register (CLKOUTCFG)
 275:cmsis/device/system_LPC17xx.c **** //     <o12.0..3>   CLKOUTSEL: Selects clock source for CLKOUT
 276:cmsis/device/system_LPC17xx.c **** //                     <0=> CPU clock
 277:cmsis/device/system_LPC17xx.c **** //                     <1=> Main oscillator
 278:cmsis/device/system_LPC17xx.c **** //                     <2=> Internal RC oscillator
 279:cmsis/device/system_LPC17xx.c **** //                     <3=> USB clock
 280:cmsis/device/system_LPC17xx.c **** //                     <4=> RTC oscillator
 281:cmsis/device/system_LPC17xx.c **** //     <o12.4..7>   CLKOUTDIV: Selects clock divider for CLKOUT
 282:cmsis/device/system_LPC17xx.c **** //                     <1-16><#-1>
 283:cmsis/device/system_LPC17xx.c **** //     <o12.8>      CLKOUT_EN: CLKOUT enable control
 284:cmsis/device/system_LPC17xx.c **** //   </h>
 285:cmsis/device/system_LPC17xx.c **** //
 286:cmsis/device/system_LPC17xx.c **** // </e>
 287:cmsis/device/system_LPC17xx.c **** */
 288:cmsis/device/system_LPC17xx.c **** 
 289:cmsis/device/system_LPC17xx.c **** 
 290:cmsis/device/system_LPC17xx.c **** 
 291:cmsis/device/system_LPC17xx.c **** /** @addtogroup LPC17xx_System_Defines  LPC17xx System Defines
 292:cmsis/device/system_LPC17xx.c ****   @{
 293:cmsis/device/system_LPC17xx.c ****  */
 294:cmsis/device/system_LPC17xx.c **** 
 295:cmsis/device/system_LPC17xx.c **** #define CLOCK_SETUP           1
 296:cmsis/device/system_LPC17xx.c **** #define SCS_Val               0x00000020
 297:cmsis/device/system_LPC17xx.c **** #define CLKSRCSEL_Val         0x00000001
 298:cmsis/device/system_LPC17xx.c **** #define PLL0_SETUP            1
 299:cmsis/device/system_LPC17xx.c **** #define PLL0CFG_Val           0x00050063
 300:cmsis/device/system_LPC17xx.c **** #define PLL1_SETUP            1
 301:cmsis/device/system_LPC17xx.c **** #define PLL1CFG_Val           0x00000023
 302:cmsis/device/system_LPC17xx.c **** #define CCLKCFG_Val           0x00000003
 303:cmsis/device/system_LPC17xx.c **** #define USBCLKCFG_Val         0x00000000
 304:cmsis/device/system_LPC17xx.c **** #define PCLKSEL0_Val          0x00000000
 305:cmsis/device/system_LPC17xx.c **** #define PCLKSEL1_Val          0x00000000
 306:cmsis/device/system_LPC17xx.c **** #define PCONP_Val             0x042887DE
 307:cmsis/device/system_LPC17xx.c **** #define CLKOUTCFG_Val         0x00000000
 308:cmsis/device/system_LPC17xx.c **** 
 309:cmsis/device/system_LPC17xx.c **** 
 310:cmsis/device/system_LPC17xx.c **** /*--------------------- Flash Accelerator Configuration ----------------------
 311:cmsis/device/system_LPC17xx.c **** //
 312:cmsis/device/system_LPC17xx.c **** // <e> Flash Accelerator Configuration
 313:cmsis/device/system_LPC17xx.c **** //   <o1.0..11>  Reserved
 314:cmsis/device/system_LPC17xx.c **** //   <o1.12..15> FLASHTIM: Flash Access Time
 315:cmsis/device/system_LPC17xx.c **** //               <0=> 1 CPU clock (for CPU clock up to 20 MHz)
 316:cmsis/device/system_LPC17xx.c **** //               <1=> 2 CPU clocks (for CPU clock up to 40 MHz)
 317:cmsis/device/system_LPC17xx.c **** //               <2=> 3 CPU clocks (for CPU clock up to 60 MHz)
 318:cmsis/device/system_LPC17xx.c **** //               <3=> 4 CPU clocks (for CPU clock up to 80 MHz)
 319:cmsis/device/system_LPC17xx.c **** //               <4=> 5 CPU clocks (for CPU clock up to 100 MHz)
 320:cmsis/device/system_LPC17xx.c **** //               <5=> 6 CPU clocks (for any CPU clock)
 321:cmsis/device/system_LPC17xx.c **** // </e>
 322:cmsis/device/system_LPC17xx.c **** */
 323:cmsis/device/system_LPC17xx.c **** #define FLASH_SETUP           1
 324:cmsis/device/system_LPC17xx.c **** #define FLASHCFG_Val          0x0000303A
 325:cmsis/device/system_LPC17xx.c **** 
ARM GAS  C:\Users\Akil\AppData\Local\Temp\ccWumoHd.s 			page 8


 326:cmsis/device/system_LPC17xx.c **** /*
 327:cmsis/device/system_LPC17xx.c **** //-------- <<< end of configuration section >>> ------------------------------
 328:cmsis/device/system_LPC17xx.c **** */
 329:cmsis/device/system_LPC17xx.c **** 
 330:cmsis/device/system_LPC17xx.c **** /*----------------------------------------------------------------------------
 331:cmsis/device/system_LPC17xx.c ****   Check the register settings
 332:cmsis/device/system_LPC17xx.c ****  *----------------------------------------------------------------------------*/
 333:cmsis/device/system_LPC17xx.c **** #define CHECK_RANGE(val, min, max)                ((val < min) || (val > max))
 334:cmsis/device/system_LPC17xx.c **** #define CHECK_RSVD(val, mask)                     (val & mask)
 335:cmsis/device/system_LPC17xx.c **** 
 336:cmsis/device/system_LPC17xx.c **** /* Clock Configuration -------------------------------------------------------*/
 337:cmsis/device/system_LPC17xx.c **** #if (CHECK_RSVD((SCS_Val),       ~0x00000030))
 338:cmsis/device/system_LPC17xx.c ****    #error "SCS: Invalid values of reserved bits!"
 339:cmsis/device/system_LPC17xx.c **** #endif
 340:cmsis/device/system_LPC17xx.c **** 
 341:cmsis/device/system_LPC17xx.c **** #if (CHECK_RANGE((CLKSRCSEL_Val), 0, 2))
 342:cmsis/device/system_LPC17xx.c ****    #error "CLKSRCSEL: Value out of range!"
 343:cmsis/device/system_LPC17xx.c **** #endif
 344:cmsis/device/system_LPC17xx.c **** 
 345:cmsis/device/system_LPC17xx.c **** #if (CHECK_RSVD((PLL0CFG_Val),   ~0x00FF7FFF))
 346:cmsis/device/system_LPC17xx.c ****    #error "PLL0CFG: Invalid values of reserved bits!"
 347:cmsis/device/system_LPC17xx.c **** #endif
 348:cmsis/device/system_LPC17xx.c **** 
 349:cmsis/device/system_LPC17xx.c **** #if (CHECK_RSVD((PLL1CFG_Val),   ~0x0000007F))
 350:cmsis/device/system_LPC17xx.c ****    #error "PLL1CFG: Invalid values of reserved bits!"
 351:cmsis/device/system_LPC17xx.c **** #endif
 352:cmsis/device/system_LPC17xx.c **** 
 353:cmsis/device/system_LPC17xx.c **** #if ((CCLKCFG_Val != 0) && (((CCLKCFG_Val - 1) % 2)))
 354:cmsis/device/system_LPC17xx.c ****    #error "CCLKCFG: CCLKSEL field does not contain only odd values or 0!"
 355:cmsis/device/system_LPC17xx.c **** #endif
 356:cmsis/device/system_LPC17xx.c **** 
 357:cmsis/device/system_LPC17xx.c **** #if (CHECK_RSVD((USBCLKCFG_Val), ~0x0000000F))
 358:cmsis/device/system_LPC17xx.c ****    #error "USBCLKCFG: Invalid values of reserved bits!"
 359:cmsis/device/system_LPC17xx.c **** #endif
 360:cmsis/device/system_LPC17xx.c **** 
 361:cmsis/device/system_LPC17xx.c **** #if (CHECK_RSVD((PCLKSEL0_Val),   0x000C0C00))
 362:cmsis/device/system_LPC17xx.c ****    #error "PCLKSEL0: Invalid values of reserved bits!"
 363:cmsis/device/system_LPC17xx.c **** #endif
 364:cmsis/device/system_LPC17xx.c **** 
 365:cmsis/device/system_LPC17xx.c **** #if (CHECK_RSVD((PCLKSEL1_Val),   0x03000300))
 366:cmsis/device/system_LPC17xx.c ****    #error "PCLKSEL1: Invalid values of reserved bits!"
 367:cmsis/device/system_LPC17xx.c **** #endif
 368:cmsis/device/system_LPC17xx.c **** 
 369:cmsis/device/system_LPC17xx.c **** #if (CHECK_RSVD((PCONP_Val),      0x10100821))
 370:cmsis/device/system_LPC17xx.c ****    #error "PCONP: Invalid values of reserved bits!"
 371:cmsis/device/system_LPC17xx.c **** #endif
 372:cmsis/device/system_LPC17xx.c **** 
 373:cmsis/device/system_LPC17xx.c **** #if (CHECK_RSVD((CLKOUTCFG_Val), ~0x000001FF))
 374:cmsis/device/system_LPC17xx.c ****    #error "CLKOUTCFG: Invalid values of reserved bits!"
 375:cmsis/device/system_LPC17xx.c **** #endif
 376:cmsis/device/system_LPC17xx.c **** 
 377:cmsis/device/system_LPC17xx.c **** /* Flash Accelerator Configuration -------------------------------------------*/
 378:cmsis/device/system_LPC17xx.c **** #if (CHECK_RSVD((FLASHCFG_Val), ~0x0000F07F))
 379:cmsis/device/system_LPC17xx.c ****    #error "FLASHCFG: Invalid values of reserved bits!"
 380:cmsis/device/system_LPC17xx.c **** #endif
 381:cmsis/device/system_LPC17xx.c **** 
 382:cmsis/device/system_LPC17xx.c **** 
ARM GAS  C:\Users\Akil\AppData\Local\Temp\ccWumoHd.s 			page 9


 383:cmsis/device/system_LPC17xx.c **** /*----------------------------------------------------------------------------
 384:cmsis/device/system_LPC17xx.c ****   DEFINES
 385:cmsis/device/system_LPC17xx.c ****  *----------------------------------------------------------------------------*/
 386:cmsis/device/system_LPC17xx.c **** 
 387:cmsis/device/system_LPC17xx.c **** /*----------------------------------------------------------------------------
 388:cmsis/device/system_LPC17xx.c ****   Define clocks
 389:cmsis/device/system_LPC17xx.c ****  *----------------------------------------------------------------------------*/
 390:cmsis/device/system_LPC17xx.c **** #define XTAL        (12000000UL)        /* Oscillator frequency               */
 391:cmsis/device/system_LPC17xx.c **** #define OSC_CLK     (      XTAL)        /* Main oscillator frequency          */
 392:cmsis/device/system_LPC17xx.c **** #define RTC_CLK     (   32768UL)        /* RTC oscillator frequency           */
 393:cmsis/device/system_LPC17xx.c **** #define IRC_OSC     ( 4000000UL)        /* Internal RC oscillator frequency   */
 394:cmsis/device/system_LPC17xx.c **** 
 395:cmsis/device/system_LPC17xx.c **** 
 396:cmsis/device/system_LPC17xx.c **** /* F_cco0 = (2 * M * F_in) / N  */
 397:cmsis/device/system_LPC17xx.c **** #define __M               (((PLL0CFG_Val      ) & 0x7FFF) + 1)
 398:cmsis/device/system_LPC17xx.c **** #define __N               (((PLL0CFG_Val >> 16) & 0x00FF) + 1)
 399:cmsis/device/system_LPC17xx.c **** #define __FCCO(__F_IN)    ((2 * __M * __F_IN) / __N)
 400:cmsis/device/system_LPC17xx.c **** #define __CCLK_DIV        (((CCLKCFG_Val      ) & 0x00FF) + 1)
 401:cmsis/device/system_LPC17xx.c **** 
 402:cmsis/device/system_LPC17xx.c **** /* Determine core clock frequency according to settings */
 403:cmsis/device/system_LPC17xx.c ****  #if (PLL0_SETUP)
 404:cmsis/device/system_LPC17xx.c ****     #if   ((CLKSRCSEL_Val & 0x03) == 1)
 405:cmsis/device/system_LPC17xx.c ****         #define __CORE_CLK (__FCCO(OSC_CLK) / __CCLK_DIV)
 406:cmsis/device/system_LPC17xx.c ****     #elif ((CLKSRCSEL_Val & 0x03) == 2)
 407:cmsis/device/system_LPC17xx.c ****         #define __CORE_CLK (__FCCO(RTC_CLK) / __CCLK_DIV)
 408:cmsis/device/system_LPC17xx.c ****     #else
 409:cmsis/device/system_LPC17xx.c ****         #define __CORE_CLK (__FCCO(IRC_OSC) / __CCLK_DIV)
 410:cmsis/device/system_LPC17xx.c ****     #endif
 411:cmsis/device/system_LPC17xx.c ****  #else
 412:cmsis/device/system_LPC17xx.c ****     #if   ((CLKSRCSEL_Val & 0x03) == 1)
 413:cmsis/device/system_LPC17xx.c ****         #define __CORE_CLK (OSC_CLK         / __CCLK_DIV)
 414:cmsis/device/system_LPC17xx.c ****     #elif ((CLKSRCSEL_Val & 0x03) == 2)
 415:cmsis/device/system_LPC17xx.c ****         #define __CORE_CLK (RTC_CLK         / __CCLK_DIV)
 416:cmsis/device/system_LPC17xx.c ****     #else
 417:cmsis/device/system_LPC17xx.c ****         #define __CORE_CLK (IRC_OSC         / __CCLK_DIV)
 418:cmsis/device/system_LPC17xx.c ****     #endif
 419:cmsis/device/system_LPC17xx.c ****  #endif
 420:cmsis/device/system_LPC17xx.c **** 
 421:cmsis/device/system_LPC17xx.c ****  /**
 422:cmsis/device/system_LPC17xx.c ****   * @}
 423:cmsis/device/system_LPC17xx.c ****   */
 424:cmsis/device/system_LPC17xx.c **** 
 425:cmsis/device/system_LPC17xx.c **** 
 426:cmsis/device/system_LPC17xx.c **** /** @addtogroup LPC17xx_System_Public_Variables  LPC17xx System Public Variables
 427:cmsis/device/system_LPC17xx.c ****   @{
 428:cmsis/device/system_LPC17xx.c ****  */
 429:cmsis/device/system_LPC17xx.c **** /*----------------------------------------------------------------------------
 430:cmsis/device/system_LPC17xx.c ****   Clock Variable definitions
 431:cmsis/device/system_LPC17xx.c ****  *----------------------------------------------------------------------------*/
 432:cmsis/device/system_LPC17xx.c **** uint32_t SystemCoreClock = __CORE_CLK;/*!< System Clock Frequency (Core Clock)*/
 433:cmsis/device/system_LPC17xx.c **** 
 434:cmsis/device/system_LPC17xx.c **** /**
 435:cmsis/device/system_LPC17xx.c ****  * @}
 436:cmsis/device/system_LPC17xx.c ****  */
 437:cmsis/device/system_LPC17xx.c **** 
 438:cmsis/device/system_LPC17xx.c **** 
 439:cmsis/device/system_LPC17xx.c **** /** @addtogroup LPC17xx_System_Public_Functions  LPC17xx System Public Functions
ARM GAS  C:\Users\Akil\AppData\Local\Temp\ccWumoHd.s 			page 10


 440:cmsis/device/system_LPC17xx.c ****   @{
 441:cmsis/device/system_LPC17xx.c ****  */
 442:cmsis/device/system_LPC17xx.c **** 
 443:cmsis/device/system_LPC17xx.c **** /*----------------------------------------------------------------------------
 444:cmsis/device/system_LPC17xx.c ****   Clock functions
 445:cmsis/device/system_LPC17xx.c ****  *----------------------------------------------------------------------------*/
 446:cmsis/device/system_LPC17xx.c **** 
 447:cmsis/device/system_LPC17xx.c **** 
 448:cmsis/device/system_LPC17xx.c **** void SystemCoreClockUpdate (void)            /* Get Core Clock Frequency      */
 449:cmsis/device/system_LPC17xx.c **** {
  75              		.loc 1 449 0
  76              		.cfi_startproc
  77              		@ args = 0, pretend = 0, frame = 0
  78              		@ frame_needed = 0, uses_anonymous_args = 0
  79              		@ link register save eliminated.
 450:cmsis/device/system_LPC17xx.c ****   /* Determine clock frequency according to clock register values             */
 451:cmsis/device/system_LPC17xx.c ****   if (((LPC_SC->PLL0STAT >> 24) & 3) == 3) { /* If PLL0 enabled and connected */
  80              		.loc 1 451 0
  81 0000 504B     		ldr	r3, .L13	@ D.5384,
  82 0002 D3F88830 		ldr	r3, [r3, #136]	@ D.5385, _1->PLL0STAT
  83 0006 1B0E     		lsrs	r3, r3, #24	@ D.5385, D.5385,
  84 0008 03F00303 		and	r3, r3, #3	@ D.5385, D.5385,
  85 000c 032B     		cmp	r3, #3	@ D.5385,
  86 000e 63D1     		bne	.L2	@,
 452:cmsis/device/system_LPC17xx.c ****     switch (LPC_SC->CLKSRCSEL & 0x03) {
  87              		.loc 1 452 0
  88 0010 4C4B     		ldr	r3, .L13	@ D.5384,
  89 0012 D3F80C31 		ldr	r3, [r3, #268]	@ D.5385, _5->CLKSRCSEL
  90 0016 03F00303 		and	r3, r3, #3	@ D.5385, D.5385,
  91 001a 032B     		cmp	r3, #3	@ D.5385,
  92 001c 00F29080 		bhi	.L1	@
  93 0020 01A2     		adr	r2, .L5	@,
  94 0022 52F823F0 		ldr	pc, [r2, r3, lsl #2]	@, D.5385
  95 0026 00BF     		.p2align 2
  96              	.L5:
  97 0028 39000000 		.word	.L4+1
  98 002c 6F000000 		.word	.L6+1
  99 0030 A5000000 		.word	.L7+1
 100 0034 39000000 		.word	.L4+1
 101              		.p2align 1
 102              	.L4:
 453:cmsis/device/system_LPC17xx.c ****       case 0:                                /* Int. RC oscillator => PLL0    */
 454:cmsis/device/system_LPC17xx.c ****       case 3:                                /* Reserved, default to Int. RC  */
 455:cmsis/device/system_LPC17xx.c ****         SystemCoreClock = (IRC_OSC *
 456:cmsis/device/system_LPC17xx.c ****                           ((2 * ((LPC_SC->PLL0STAT & 0x7FFF) + 1)))  /
 103              		.loc 1 456 0
 104 0038 424B     		ldr	r3, .L13	@ D.5384,
 105 003a D3F88830 		ldr	r3, [r3, #136]	@ D.5385, _8->PLL0STAT
 106 003e C3F30E03 		ubfx	r3, r3, #0, #15	@ D.5385, D.5385,,
 455:cmsis/device/system_LPC17xx.c ****         SystemCoreClock = (IRC_OSC *
 107              		.loc 1 455 0
 108 0042 0133     		adds	r3, r3, #1	@ D.5385, D.5385,
 109 0044 404A     		ldr	r2, .L13+4	@ tmp183,
 110 0046 02FB03F2 		mul	r2, r2, r3	@ D.5385, tmp183, D.5385
 457:cmsis/device/system_LPC17xx.c ****                           (((LPC_SC->PLL0STAT >> 16) & 0xFF) + 1)    /
 111              		.loc 1 457 0
 112 004a 3E4B     		ldr	r3, .L13	@ D.5384,
ARM GAS  C:\Users\Akil\AppData\Local\Temp\ccWumoHd.s 			page 11


 113 004c D3F88830 		ldr	r3, [r3, #136]	@ D.5385, _13->PLL0STAT
 114 0050 1B0C     		lsrs	r3, r3, #16	@ D.5385, D.5385,
 115 0052 DBB2     		uxtb	r3, r3	@ D.5385, D.5385
 116 0054 0133     		adds	r3, r3, #1	@ D.5385, D.5385,
 456:cmsis/device/system_LPC17xx.c ****                           ((2 * ((LPC_SC->PLL0STAT & 0x7FFF) + 1)))  /
 117              		.loc 1 456 0
 118 0056 B2FBF3F2 		udiv	r2, r2, r3	@ D.5385, D.5385, D.5385
 458:cmsis/device/system_LPC17xx.c ****                           ((LPC_SC->CCLKCFG & 0xFF)+ 1));
 119              		.loc 1 458 0
 120 005a 3A4B     		ldr	r3, .L13	@ D.5384,
 121 005c D3F80431 		ldr	r3, [r3, #260]	@ D.5385, _19->CCLKCFG
 122 0060 DBB2     		uxtb	r3, r3	@ D.5385, D.5385
 123 0062 0133     		adds	r3, r3, #1	@ D.5385, D.5385,
 457:cmsis/device/system_LPC17xx.c ****                           (((LPC_SC->PLL0STAT >> 16) & 0xFF) + 1)    /
 124              		.loc 1 457 0
 125 0064 B2FBF3F2 		udiv	r2, r2, r3	@ SystemCoreClock.0, D.5385, D.5385
 455:cmsis/device/system_LPC17xx.c ****         SystemCoreClock = (IRC_OSC *
 126              		.loc 1 455 0
 127 0068 384B     		ldr	r3, .L13+8	@ tmp184,
 128 006a 1A60     		str	r2, [r3]	@ SystemCoreClock.0, SystemCoreClock
 459:cmsis/device/system_LPC17xx.c ****         break;
 129              		.loc 1 459 0
 130 006c 33E0     		b	.L3	@
 131              	.L6:
 460:cmsis/device/system_LPC17xx.c ****       case 1:                                /* Main oscillator => PLL0       */
 461:cmsis/device/system_LPC17xx.c ****         SystemCoreClock = (OSC_CLK *
 462:cmsis/device/system_LPC17xx.c ****                           ((2 * ((LPC_SC->PLL0STAT & 0x7FFF) + 1)))  /
 132              		.loc 1 462 0
 133 006e 354B     		ldr	r3, .L13	@ D.5384,
 134 0070 D3F88830 		ldr	r3, [r3, #136]	@ D.5385, _24->PLL0STAT
 135 0074 C3F30E03 		ubfx	r3, r3, #0, #15	@ D.5385, D.5385,,
 461:cmsis/device/system_LPC17xx.c ****         SystemCoreClock = (OSC_CLK *
 136              		.loc 1 461 0
 137 0078 0133     		adds	r3, r3, #1	@ D.5385, D.5385,
 138 007a 354A     		ldr	r2, .L13+12	@ tmp185,
 139 007c 02FB03F2 		mul	r2, r2, r3	@ D.5385, tmp185, D.5385
 463:cmsis/device/system_LPC17xx.c ****                           (((LPC_SC->PLL0STAT >> 16) & 0xFF) + 1)    /
 140              		.loc 1 463 0
 141 0080 304B     		ldr	r3, .L13	@ D.5384,
 142 0082 D3F88830 		ldr	r3, [r3, #136]	@ D.5385, _29->PLL0STAT
 143 0086 1B0C     		lsrs	r3, r3, #16	@ D.5385, D.5385,
 144 0088 DBB2     		uxtb	r3, r3	@ D.5385, D.5385
 145 008a 0133     		adds	r3, r3, #1	@ D.5385, D.5385,
 462:cmsis/device/system_LPC17xx.c ****                           ((2 * ((LPC_SC->PLL0STAT & 0x7FFF) + 1)))  /
 146              		.loc 1 462 0
 147 008c B2FBF3F2 		udiv	r2, r2, r3	@ D.5385, D.5385, D.5385
 464:cmsis/device/system_LPC17xx.c ****                           ((LPC_SC->CCLKCFG & 0xFF)+ 1));
 148              		.loc 1 464 0
 149 0090 2C4B     		ldr	r3, .L13	@ D.5384,
 150 0092 D3F80431 		ldr	r3, [r3, #260]	@ D.5385, _35->CCLKCFG
 151 0096 DBB2     		uxtb	r3, r3	@ D.5385, D.5385
 152 0098 0133     		adds	r3, r3, #1	@ D.5385, D.5385,
 463:cmsis/device/system_LPC17xx.c ****                           (((LPC_SC->PLL0STAT >> 16) & 0xFF) + 1)    /
 153              		.loc 1 463 0
 154 009a B2FBF3F2 		udiv	r2, r2, r3	@ SystemCoreClock.1, D.5385, D.5385
 461:cmsis/device/system_LPC17xx.c ****         SystemCoreClock = (OSC_CLK *
 155              		.loc 1 461 0
ARM GAS  C:\Users\Akil\AppData\Local\Temp\ccWumoHd.s 			page 12


 156 009e 2B4B     		ldr	r3, .L13+8	@ tmp186,
 157 00a0 1A60     		str	r2, [r3]	@ SystemCoreClock.1, SystemCoreClock
 465:cmsis/device/system_LPC17xx.c ****         break;
 158              		.loc 1 465 0
 159 00a2 18E0     		b	.L3	@
 160              	.L7:
 466:cmsis/device/system_LPC17xx.c ****       case 2:                                /* RTC oscillator => PLL0        */
 467:cmsis/device/system_LPC17xx.c ****         SystemCoreClock = (RTC_CLK *
 468:cmsis/device/system_LPC17xx.c ****                           ((2 * ((LPC_SC->PLL0STAT & 0x7FFF) + 1)))  /
 161              		.loc 1 468 0
 162 00a4 274B     		ldr	r3, .L13	@ D.5384,
 163 00a6 D3F88830 		ldr	r3, [r3, #136]	@ D.5385, _40->PLL0STAT
 164 00aa C3F30E03 		ubfx	r3, r3, #0, #15	@ D.5385, D.5385,,
 467:cmsis/device/system_LPC17xx.c ****         SystemCoreClock = (RTC_CLK *
 165              		.loc 1 467 0
 166 00ae 0133     		adds	r3, r3, #1	@ D.5385, D.5385,
 167 00b0 1A04     		lsls	r2, r3, #16	@ D.5385, D.5385,
 469:cmsis/device/system_LPC17xx.c ****                           (((LPC_SC->PLL0STAT >> 16) & 0xFF) + 1)    /
 168              		.loc 1 469 0
 169 00b2 244B     		ldr	r3, .L13	@ D.5384,
 170 00b4 D3F88830 		ldr	r3, [r3, #136]	@ D.5385, _45->PLL0STAT
 171 00b8 1B0C     		lsrs	r3, r3, #16	@ D.5385, D.5385,
 172 00ba DBB2     		uxtb	r3, r3	@ D.5385, D.5385
 173 00bc 0133     		adds	r3, r3, #1	@ D.5385, D.5385,
 468:cmsis/device/system_LPC17xx.c ****                           ((2 * ((LPC_SC->PLL0STAT & 0x7FFF) + 1)))  /
 174              		.loc 1 468 0
 175 00be B2FBF3F2 		udiv	r2, r2, r3	@ D.5385, D.5385, D.5385
 470:cmsis/device/system_LPC17xx.c ****                           ((LPC_SC->CCLKCFG & 0xFF)+ 1));
 176              		.loc 1 470 0
 177 00c2 204B     		ldr	r3, .L13	@ D.5384,
 178 00c4 D3F80431 		ldr	r3, [r3, #260]	@ D.5385, _51->CCLKCFG
 179 00c8 DBB2     		uxtb	r3, r3	@ D.5385, D.5385
 180 00ca 0133     		adds	r3, r3, #1	@ D.5385, D.5385,
 469:cmsis/device/system_LPC17xx.c ****                           (((LPC_SC->PLL0STAT >> 16) & 0xFF) + 1)    /
 181              		.loc 1 469 0
 182 00cc B2FBF3F2 		udiv	r2, r2, r3	@ SystemCoreClock.2, D.5385, D.5385
 467:cmsis/device/system_LPC17xx.c ****         SystemCoreClock = (RTC_CLK *
 183              		.loc 1 467 0
 184 00d0 1E4B     		ldr	r3, .L13+8	@ tmp187,
 185 00d2 1A60     		str	r2, [r3]	@ SystemCoreClock.2, SystemCoreClock
 471:cmsis/device/system_LPC17xx.c ****         break;
 186              		.loc 1 471 0
 187 00d4 00BF     		nop
 188              	.L3:
 189 00d6 33E0     		b	.L1	@
 190              	.L2:
 472:cmsis/device/system_LPC17xx.c ****     }
 473:cmsis/device/system_LPC17xx.c ****   } else {
 474:cmsis/device/system_LPC17xx.c ****     switch (LPC_SC->CLKSRCSEL & 0x03) {
 191              		.loc 1 474 0
 192 00d8 1A4B     		ldr	r3, .L13	@ D.5384,
 193 00da D3F80C31 		ldr	r3, [r3, #268]	@ D.5385, _56->CLKSRCSEL
 194 00de 03F00303 		and	r3, r3, #3	@ D.5385, D.5385,
 195 00e2 032B     		cmp	r3, #3	@ D.5385,
 196 00e4 2CD8     		bhi	.L1	@
 197 00e6 01A2     		adr	r2, .L10	@,
 198 00e8 52F823F0 		ldr	pc, [r2, r3, lsl #2]	@, D.5385
ARM GAS  C:\Users\Akil\AppData\Local\Temp\ccWumoHd.s 			page 13


 199              		.p2align 2
 200              	.L10:
 201 00ec FD000000 		.word	.L9+1
 202 00f0 13010000 		.word	.L11+1
 203 00f4 29010000 		.word	.L12+1
 204 00f8 FD000000 		.word	.L9+1
 205              		.p2align 1
 206              	.L9:
 475:cmsis/device/system_LPC17xx.c ****       case 0:                                /* Int. RC oscillator => PLL0    */
 476:cmsis/device/system_LPC17xx.c ****       case 3:                                /* Reserved, default to Int. RC  */
 477:cmsis/device/system_LPC17xx.c ****         SystemCoreClock = IRC_OSC / ((LPC_SC->CCLKCFG & 0xFF)+ 1);
 207              		.loc 1 477 0
 208 00fc 114B     		ldr	r3, .L13	@ D.5384,
 209 00fe D3F80431 		ldr	r3, [r3, #260]	@ D.5385, _59->CCLKCFG
 210 0102 DBB2     		uxtb	r3, r3	@ D.5385, D.5385
 211 0104 0133     		adds	r3, r3, #1	@ D.5385, D.5385,
 212 0106 134A     		ldr	r2, .L13+16	@ tmp188,
 213 0108 B2FBF3F2 		udiv	r2, r2, r3	@ SystemCoreClock.3, tmp188, D.5385
 214 010c 0F4B     		ldr	r3, .L13+8	@ tmp189,
 215 010e 1A60     		str	r2, [r3]	@ SystemCoreClock.3, SystemCoreClock
 478:cmsis/device/system_LPC17xx.c ****         break;
 216              		.loc 1 478 0
 217 0110 16E0     		b	.L1	@
 218              	.L11:
 479:cmsis/device/system_LPC17xx.c ****       case 1:                                /* Main oscillator => PLL0       */
 480:cmsis/device/system_LPC17xx.c ****         SystemCoreClock = OSC_CLK / ((LPC_SC->CCLKCFG & 0xFF)+ 1);
 219              		.loc 1 480 0
 220 0112 0C4B     		ldr	r3, .L13	@ D.5384,
 221 0114 D3F80431 		ldr	r3, [r3, #260]	@ D.5385, _64->CCLKCFG
 222 0118 DBB2     		uxtb	r3, r3	@ D.5385, D.5385
 223 011a 0133     		adds	r3, r3, #1	@ D.5385, D.5385,
 224 011c 0E4A     		ldr	r2, .L13+20	@ tmp190,
 225 011e B2FBF3F2 		udiv	r2, r2, r3	@ SystemCoreClock.4, tmp190, D.5385
 226 0122 0A4B     		ldr	r3, .L13+8	@ tmp191,
 227 0124 1A60     		str	r2, [r3]	@ SystemCoreClock.4, SystemCoreClock
 481:cmsis/device/system_LPC17xx.c ****         break;
 228              		.loc 1 481 0
 229 0126 0BE0     		b	.L1	@
 230              	.L12:
 482:cmsis/device/system_LPC17xx.c ****       case 2:                                /* RTC oscillator => PLL0        */
 483:cmsis/device/system_LPC17xx.c ****         SystemCoreClock = RTC_CLK / ((LPC_SC->CCLKCFG & 0xFF)+ 1);
 231              		.loc 1 483 0
 232 0128 064B     		ldr	r3, .L13	@ D.5384,
 233 012a D3F80431 		ldr	r3, [r3, #260]	@ D.5385, _69->CCLKCFG
 234 012e DBB2     		uxtb	r3, r3	@ D.5385, D.5385
 235 0130 0133     		adds	r3, r3, #1	@ D.5385, D.5385,
 236 0132 4FF40042 		mov	r2, #32768	@ tmp192,
 237 0136 B2FBF3F2 		udiv	r2, r2, r3	@ SystemCoreClock.5, tmp192, D.5385
 238 013a 044B     		ldr	r3, .L13+8	@ tmp193,
 239 013c 1A60     		str	r2, [r3]	@ SystemCoreClock.5, SystemCoreClock
 484:cmsis/device/system_LPC17xx.c ****         break;
 240              		.loc 1 484 0
 241 013e 00BF     		nop
 242              	.L1:
 485:cmsis/device/system_LPC17xx.c ****     }
 486:cmsis/device/system_LPC17xx.c ****   }
 487:cmsis/device/system_LPC17xx.c **** 
ARM GAS  C:\Users\Akil\AppData\Local\Temp\ccWumoHd.s 			page 14


 488:cmsis/device/system_LPC17xx.c **** }
 243              		.loc 1 488 0
 244 0140 7047     		bx	lr	@
 245              	.L14:
 246 0142 00BF     		.align	2
 247              	.L13:
 248 0144 00C00F40 		.word	1074774016
 249 0148 00127A00 		.word	8000000
 250 014c 00000000 		.word	SystemCoreClock
 251 0150 00366E01 		.word	24000000
 252 0154 00093D00 		.word	4000000
 253 0158 001BB700 		.word	12000000
 254              		.cfi_endproc
 255              	.LFE55:
 256              		.size	SystemCoreClockUpdate, .-SystemCoreClockUpdate
 257              		.align	2
 258              		.global	SystemInit
 259              		.thumb
 260              		.thumb_func
 261              		.type	SystemInit, %function
 262              	SystemInit:
 263              	.LFB56:
 489:cmsis/device/system_LPC17xx.c **** 
 490:cmsis/device/system_LPC17xx.c **** /**
 491:cmsis/device/system_LPC17xx.c ****  * Initialize the system
 492:cmsis/device/system_LPC17xx.c ****  *
 493:cmsis/device/system_LPC17xx.c ****  * @param  none
 494:cmsis/device/system_LPC17xx.c ****  * @return none
 495:cmsis/device/system_LPC17xx.c ****  *
 496:cmsis/device/system_LPC17xx.c ****  * @brief  Setup the microcontroller system.
 497:cmsis/device/system_LPC17xx.c ****  *         Initialize the System.
 498:cmsis/device/system_LPC17xx.c ****  */
 499:cmsis/device/system_LPC17xx.c **** void SystemInit (void)
 500:cmsis/device/system_LPC17xx.c **** {
 264              		.loc 1 500 0
 265              		.cfi_startproc
 266              		@ args = 0, pretend = 0, frame = 0
 267              		@ frame_needed = 0, uses_anonymous_args = 0
 268              		@ link register save eliminated.
 501:cmsis/device/system_LPC17xx.c **** #if (CLOCK_SETUP)                       /* Clock Setup                        */
 502:cmsis/device/system_LPC17xx.c ****   LPC_SC->SCS       = SCS_Val;
 269              		.loc 1 502 0
 270 015c 4D4B     		ldr	r3, .L22	@ D.5386,
 271 015e 2022     		movs	r2, #32	@ tmp155,
 272 0160 C3F8A021 		str	r2, [r3, #416]	@ tmp155, _1->SCS
 503:cmsis/device/system_LPC17xx.c ****   if (LPC_SC->SCS & (1 << 5)) {             /* If Main Oscillator is enabled  */
 273              		.loc 1 503 0
 274 0164 4B4B     		ldr	r3, .L22	@ D.5386,
 275 0166 D3F8A031 		ldr	r3, [r3, #416]	@ D.5387, _2->SCS
 276 016a 03F02003 		and	r3, r3, #32	@ D.5387, D.5387,
 277 016e 002B     		cmp	r3, #0	@ D.5387,
 278 0170 07D0     		beq	.L16	@,
 504:cmsis/device/system_LPC17xx.c ****     while ((LPC_SC->SCS & (1<<6)) == 0);/* Wait for Oscillator to be ready    */
 279              		.loc 1 504 0
 280 0172 00BF     		nop
 281              	.L17:
 282              		.loc 1 504 0 is_stmt 0 discriminator 1
ARM GAS  C:\Users\Akil\AppData\Local\Temp\ccWumoHd.s 			page 15


 283 0174 474B     		ldr	r3, .L22	@ D.5386,
 284 0176 D3F8A031 		ldr	r3, [r3, #416]	@ D.5387, _5->SCS
 285 017a 03F04003 		and	r3, r3, #64	@ D.5387, D.5387,
 286 017e 002B     		cmp	r3, #0	@ D.5387,
 287 0180 F8D0     		beq	.L17	@,
 288              	.L16:
 505:cmsis/device/system_LPC17xx.c ****   }
 506:cmsis/device/system_LPC17xx.c **** 
 507:cmsis/device/system_LPC17xx.c ****   LPC_SC->CCLKCFG   = CCLKCFG_Val;      /* Setup Clock Divider                */
 289              		.loc 1 507 0 is_stmt 1
 290 0182 444B     		ldr	r3, .L22	@ D.5386,
 291 0184 0322     		movs	r2, #3	@ tmp156,
 292 0186 C3F80421 		str	r2, [r3, #260]	@ tmp156, _8->CCLKCFG
 508:cmsis/device/system_LPC17xx.c ****   /* Periphral clock must be selected before PLL0 enabling and connecting
 509:cmsis/device/system_LPC17xx.c ****    * - according errata.lpc1768-16.March.2010 -
 510:cmsis/device/system_LPC17xx.c ****    */
 511:cmsis/device/system_LPC17xx.c ****   LPC_SC->PCLKSEL0  = PCLKSEL0_Val;     /* Peripheral Clock Selection         */
 293              		.loc 1 511 0
 294 018a 424B     		ldr	r3, .L22	@ D.5386,
 295 018c 0022     		movs	r2, #0	@ tmp157,
 296 018e C3F8A821 		str	r2, [r3, #424]	@ tmp157, _9->PCLKSEL0
 512:cmsis/device/system_LPC17xx.c ****   LPC_SC->PCLKSEL1  = PCLKSEL1_Val;
 297              		.loc 1 512 0
 298 0192 404B     		ldr	r3, .L22	@ D.5386,
 299 0194 0022     		movs	r2, #0	@ tmp158,
 300 0196 C3F8AC21 		str	r2, [r3, #428]	@ tmp158, _10->PCLKSEL1
 513:cmsis/device/system_LPC17xx.c **** 
 514:cmsis/device/system_LPC17xx.c **** #if (PLL0_SETUP)
 515:cmsis/device/system_LPC17xx.c ****   LPC_SC->CLKSRCSEL = CLKSRCSEL_Val;    /* Select Clock Source for PLL0       */
 301              		.loc 1 515 0
 302 019a 3E4B     		ldr	r3, .L22	@ D.5386,
 303 019c 0122     		movs	r2, #1	@ tmp159,
 304 019e C3F80C21 		str	r2, [r3, #268]	@ tmp159, _11->CLKSRCSEL
 516:cmsis/device/system_LPC17xx.c **** 
 517:cmsis/device/system_LPC17xx.c ****   LPC_SC->PLL0CFG   = PLL0CFG_Val;      /* configure PLL0                     */
 305              		.loc 1 517 0
 306 01a2 3C4B     		ldr	r3, .L22	@ D.5386,
 307 01a4 3C4A     		ldr	r2, .L22+4	@ tmp160,
 308 01a6 C3F88420 		str	r2, [r3, #132]	@ tmp160, _12->PLL0CFG
 518:cmsis/device/system_LPC17xx.c ****   LPC_SC->PLL0FEED  = 0xAA;
 309              		.loc 1 518 0
 310 01aa 3A4B     		ldr	r3, .L22	@ D.5386,
 311 01ac AA22     		movs	r2, #170	@ tmp161,
 312 01ae C3F88C20 		str	r2, [r3, #140]	@ tmp161, _13->PLL0FEED
 519:cmsis/device/system_LPC17xx.c ****   LPC_SC->PLL0FEED  = 0x55;
 313              		.loc 1 519 0
 314 01b2 384B     		ldr	r3, .L22	@ D.5386,
 315 01b4 5522     		movs	r2, #85	@ tmp162,
 316 01b6 C3F88C20 		str	r2, [r3, #140]	@ tmp162, _14->PLL0FEED
 520:cmsis/device/system_LPC17xx.c **** 
 521:cmsis/device/system_LPC17xx.c ****   LPC_SC->PLL0CON   = 0x01;             /* PLL0 Enable                        */
 317              		.loc 1 521 0
 318 01ba 364B     		ldr	r3, .L22	@ D.5386,
 319 01bc 0122     		movs	r2, #1	@ tmp163,
 320 01be C3F88020 		str	r2, [r3, #128]	@ tmp163, _15->PLL0CON
 522:cmsis/device/system_LPC17xx.c ****   LPC_SC->PLL0FEED  = 0xAA;
 321              		.loc 1 522 0
ARM GAS  C:\Users\Akil\AppData\Local\Temp\ccWumoHd.s 			page 16


 322 01c2 344B     		ldr	r3, .L22	@ D.5386,
 323 01c4 AA22     		movs	r2, #170	@ tmp164,
 324 01c6 C3F88C20 		str	r2, [r3, #140]	@ tmp164, _16->PLL0FEED
 523:cmsis/device/system_LPC17xx.c ****   LPC_SC->PLL0FEED  = 0x55;
 325              		.loc 1 523 0
 326 01ca 324B     		ldr	r3, .L22	@ D.5386,
 327 01cc 5522     		movs	r2, #85	@ tmp165,
 328 01ce C3F88C20 		str	r2, [r3, #140]	@ tmp165, _17->PLL0FEED
 524:cmsis/device/system_LPC17xx.c ****   while (!(LPC_SC->PLL0STAT & (1<<26)));/* Wait for PLOCK0                    */
 329              		.loc 1 524 0
 330 01d2 00BF     		nop
 331              	.L18:
 332              		.loc 1 524 0 is_stmt 0 discriminator 1
 333 01d4 2F4B     		ldr	r3, .L22	@ D.5386,
 334 01d6 D3F88830 		ldr	r3, [r3, #136]	@ D.5387, _18->PLL0STAT
 335 01da 03F08063 		and	r3, r3, #67108864	@ D.5387, D.5387,
 336 01de 002B     		cmp	r3, #0	@ D.5387,
 337 01e0 F8D0     		beq	.L18	@,
 525:cmsis/device/system_LPC17xx.c **** 
 526:cmsis/device/system_LPC17xx.c ****   LPC_SC->PLL0CON   = 0x03;             /* PLL0 Enable & Connect              */
 338              		.loc 1 526 0 is_stmt 1
 339 01e2 2C4B     		ldr	r3, .L22	@ D.5386,
 340 01e4 0322     		movs	r2, #3	@ tmp166,
 341 01e6 C3F88020 		str	r2, [r3, #128]	@ tmp166, _21->PLL0CON
 527:cmsis/device/system_LPC17xx.c ****   LPC_SC->PLL0FEED  = 0xAA;
 342              		.loc 1 527 0
 343 01ea 2A4B     		ldr	r3, .L22	@ D.5386,
 344 01ec AA22     		movs	r2, #170	@ tmp167,
 345 01ee C3F88C20 		str	r2, [r3, #140]	@ tmp167, _22->PLL0FEED
 528:cmsis/device/system_LPC17xx.c ****   LPC_SC->PLL0FEED  = 0x55;
 346              		.loc 1 528 0
 347 01f2 284B     		ldr	r3, .L22	@ D.5386,
 348 01f4 5522     		movs	r2, #85	@ tmp168,
 349 01f6 C3F88C20 		str	r2, [r3, #140]	@ tmp168, _23->PLL0FEED
 529:cmsis/device/system_LPC17xx.c ****   while (!(LPC_SC->PLL0STAT & ((1<<25) | (1<<24))));/* Wait for PLLC0_STAT & PLLE0_STAT */
 350              		.loc 1 529 0
 351 01fa 00BF     		nop
 352              	.L19:
 353              		.loc 1 529 0 is_stmt 0 discriminator 1
 354 01fc 254B     		ldr	r3, .L22	@ D.5386,
 355 01fe D3F88830 		ldr	r3, [r3, #136]	@ D.5387, _24->PLL0STAT
 356 0202 03F04073 		and	r3, r3, #50331648	@ D.5387, D.5387,
 357 0206 002B     		cmp	r3, #0	@ D.5387,
 358 0208 F8D0     		beq	.L19	@,
 530:cmsis/device/system_LPC17xx.c **** #endif
 531:cmsis/device/system_LPC17xx.c **** 
 532:cmsis/device/system_LPC17xx.c **** #if (PLL1_SETUP)
 533:cmsis/device/system_LPC17xx.c ****   LPC_SC->PLL1CFG   = PLL1CFG_Val;
 359              		.loc 1 533 0 is_stmt 1
 360 020a 224B     		ldr	r3, .L22	@ D.5386,
 361 020c 2322     		movs	r2, #35	@ tmp169,
 362 020e C3F8A420 		str	r2, [r3, #164]	@ tmp169, _27->PLL1CFG
 534:cmsis/device/system_LPC17xx.c ****   LPC_SC->PLL1FEED  = 0xAA;
 363              		.loc 1 534 0
 364 0212 204B     		ldr	r3, .L22	@ D.5386,
 365 0214 AA22     		movs	r2, #170	@ tmp170,
 366 0216 C3F8AC20 		str	r2, [r3, #172]	@ tmp170, _28->PLL1FEED
ARM GAS  C:\Users\Akil\AppData\Local\Temp\ccWumoHd.s 			page 17


 535:cmsis/device/system_LPC17xx.c ****   LPC_SC->PLL1FEED  = 0x55;
 367              		.loc 1 535 0
 368 021a 1E4B     		ldr	r3, .L22	@ D.5386,
 369 021c 5522     		movs	r2, #85	@ tmp171,
 370 021e C3F8AC20 		str	r2, [r3, #172]	@ tmp171, _29->PLL1FEED
 536:cmsis/device/system_LPC17xx.c **** 
 537:cmsis/device/system_LPC17xx.c ****   LPC_SC->PLL1CON   = 0x01;             /* PLL1 Enable                        */
 371              		.loc 1 537 0
 372 0222 1C4B     		ldr	r3, .L22	@ D.5386,
 373 0224 0122     		movs	r2, #1	@ tmp172,
 374 0226 C3F8A020 		str	r2, [r3, #160]	@ tmp172, _30->PLL1CON
 538:cmsis/device/system_LPC17xx.c ****   LPC_SC->PLL1FEED  = 0xAA;
 375              		.loc 1 538 0
 376 022a 1A4B     		ldr	r3, .L22	@ D.5386,
 377 022c AA22     		movs	r2, #170	@ tmp173,
 378 022e C3F8AC20 		str	r2, [r3, #172]	@ tmp173, _31->PLL1FEED
 539:cmsis/device/system_LPC17xx.c ****   LPC_SC->PLL1FEED  = 0x55;
 379              		.loc 1 539 0
 380 0232 184B     		ldr	r3, .L22	@ D.5386,
 381 0234 5522     		movs	r2, #85	@ tmp174,
 382 0236 C3F8AC20 		str	r2, [r3, #172]	@ tmp174, _32->PLL1FEED
 540:cmsis/device/system_LPC17xx.c ****   while (!(LPC_SC->PLL1STAT & (1<<10)));/* Wait for PLOCK1                    */
 383              		.loc 1 540 0
 384 023a 00BF     		nop
 385              	.L20:
 386              		.loc 1 540 0 is_stmt 0 discriminator 1
 387 023c 154B     		ldr	r3, .L22	@ D.5386,
 388 023e D3F8A830 		ldr	r3, [r3, #168]	@ D.5387, _33->PLL1STAT
 389 0242 03F48063 		and	r3, r3, #1024	@ D.5387, D.5387,
 390 0246 002B     		cmp	r3, #0	@ D.5387,
 391 0248 F8D0     		beq	.L20	@,
 541:cmsis/device/system_LPC17xx.c **** 
 542:cmsis/device/system_LPC17xx.c ****   LPC_SC->PLL1CON   = 0x03;             /* PLL1 Enable & Connect              */
 392              		.loc 1 542 0 is_stmt 1
 393 024a 124B     		ldr	r3, .L22	@ D.5386,
 394 024c 0322     		movs	r2, #3	@ tmp175,
 395 024e C3F8A020 		str	r2, [r3, #160]	@ tmp175, _36->PLL1CON
 543:cmsis/device/system_LPC17xx.c ****   LPC_SC->PLL1FEED  = 0xAA;
 396              		.loc 1 543 0
 397 0252 104B     		ldr	r3, .L22	@ D.5386,
 398 0254 AA22     		movs	r2, #170	@ tmp176,
 399 0256 C3F8AC20 		str	r2, [r3, #172]	@ tmp176, _37->PLL1FEED
 544:cmsis/device/system_LPC17xx.c ****   LPC_SC->PLL1FEED  = 0x55;
 400              		.loc 1 544 0
 401 025a 0E4B     		ldr	r3, .L22	@ D.5386,
 402 025c 5522     		movs	r2, #85	@ tmp177,
 403 025e C3F8AC20 		str	r2, [r3, #172]	@ tmp177, _38->PLL1FEED
 545:cmsis/device/system_LPC17xx.c ****   while (!(LPC_SC->PLL1STAT & ((1<< 9) | (1<< 8))));/* Wait for PLLC1_STAT & PLLE1_STAT */
 404              		.loc 1 545 0
 405 0262 00BF     		nop
 406              	.L21:
 407              		.loc 1 545 0 is_stmt 0 discriminator 1
 408 0264 0B4B     		ldr	r3, .L22	@ D.5386,
 409 0266 D3F8A830 		ldr	r3, [r3, #168]	@ D.5387, _39->PLL1STAT
 410 026a 03F44073 		and	r3, r3, #768	@ D.5387, D.5387,
 411 026e 002B     		cmp	r3, #0	@ D.5387,
 412 0270 F8D0     		beq	.L21	@,
ARM GAS  C:\Users\Akil\AppData\Local\Temp\ccWumoHd.s 			page 18


 546:cmsis/device/system_LPC17xx.c **** #else
 547:cmsis/device/system_LPC17xx.c ****   LPC_SC->USBCLKCFG = USBCLKCFG_Val;    /* Setup USB Clock Divider            */
 548:cmsis/device/system_LPC17xx.c **** #endif
 549:cmsis/device/system_LPC17xx.c ****   LPC_SC->PCONP     = PCONP_Val;        /* Power Control for Peripherals      */
 413              		.loc 1 549 0 is_stmt 1
 414 0272 084B     		ldr	r3, .L22	@ D.5386,
 415 0274 094A     		ldr	r2, .L22+8	@ tmp178,
 416 0276 C3F8C420 		str	r2, [r3, #196]	@ tmp178, _42->PCONP
 550:cmsis/device/system_LPC17xx.c **** 
 551:cmsis/device/system_LPC17xx.c ****   LPC_SC->CLKOUTCFG = CLKOUTCFG_Val;    /* Clock Output Configuration         */
 417              		.loc 1 551 0
 418 027a 064B     		ldr	r3, .L22	@ D.5386,
 419 027c 0022     		movs	r2, #0	@ tmp179,
 420 027e C3F8C821 		str	r2, [r3, #456]	@ tmp179, _43->CLKOUTCFG
 552:cmsis/device/system_LPC17xx.c **** #endif
 553:cmsis/device/system_LPC17xx.c **** 
 554:cmsis/device/system_LPC17xx.c **** #if (FLASH_SETUP == 1)                  /* Flash Accelerator Setup            */
 555:cmsis/device/system_LPC17xx.c ****   LPC_SC->FLASHCFG  = FLASHCFG_Val;
 421              		.loc 1 555 0
 422 0282 044B     		ldr	r3, .L22	@ D.5386,
 423 0284 43F23A02 		movw	r2, #12346	@ tmp180,
 424 0288 1A60     		str	r2, [r3]	@ tmp180, _44->FLASHCFG
 556:cmsis/device/system_LPC17xx.c **** #endif
 557:cmsis/device/system_LPC17xx.c **** 
 558:cmsis/device/system_LPC17xx.c **** //  Set Vector table offset value
 559:cmsis/device/system_LPC17xx.c **** #if (__RAM_MODE__==1)
 560:cmsis/device/system_LPC17xx.c ****   SCB->VTOR  = 0x10000000 & 0x3FFFFF80;
 561:cmsis/device/system_LPC17xx.c **** #else
 562:cmsis/device/system_LPC17xx.c ****   SCB->VTOR  = 0x00000000 & 0x3FFFFF80;
 425              		.loc 1 562 0
 426 028a 054B     		ldr	r3, .L22+12	@ D.5388,
 427 028c 0022     		movs	r2, #0	@ tmp181,
 428 028e 9A60     		str	r2, [r3, #8]	@ tmp181, _45->VTOR
 563:cmsis/device/system_LPC17xx.c **** #endif
 564:cmsis/device/system_LPC17xx.c **** }
 429              		.loc 1 564 0
 430 0290 7047     		bx	lr	@
 431              	.L23:
 432 0292 00BF     		.align	2
 433              	.L22:
 434 0294 00C00F40 		.word	1074774016
 435 0298 63000500 		.word	327779
 436 029c DE872804 		.word	69765086
 437 02a0 00ED00E0 		.word	-536810240
 438              		.cfi_endproc
 439              	.LFE56:
 440              		.size	SystemInit, .-SystemInit
 441              	.Letext0:
 442              		.file 2 "c:\\program files\\gnu tools arm embedded\\4.8 2014q2\\arm-none-eabi\\include\\machine\\_
 443              		.file 3 "c:\\program files\\gnu tools arm embedded\\4.8 2014q2\\arm-none-eabi\\include\\stdint.h"
 444              		.file 4 "./cmsis/core/core_cm3.h"
 445              		.file 5 "cmsis/device/LPC17xx.h"
