ARM GAS  C:\Users\Akil\AppData\Local\Temp\cc6kIPJ8.s 			page 1


   1              		.syntax unified
   2              		.cpu cortex-m3
   3              		.fpu softvfp
   4              		.eabi_attribute 20, 1	@ Tag_ABI_FP_denormal
   5              		.eabi_attribute 21, 1	@ Tag_ABI_FP_exceptions
   6              		.eabi_attribute 23, 3	@ Tag_ABI_FP_number_model
   7              		.eabi_attribute 24, 1	@ Tag_ABI_align8_needed
   8              		.eabi_attribute 25, 1	@ Tag_ABI_align8_preserved
   9              		.eabi_attribute 26, 1	@ Tag_ABI_enum_size
  10              		.eabi_attribute 30, 6	@ Tag_ABI_optimization_goals
  11              		.eabi_attribute 34, 1	@ Tag_CPU_unaligned_access
  12              		.eabi_attribute 18, 4	@ Tag_ABI_PCS_wchar_t
  13              		.file	"Example_Master.c"
  14              	@ GNU C (GNU Tools for ARM Embedded Processors) version 4.8.4 20140526 (release) [ARM/embedded-4_8-
  15              	@	compiled by GNU C version 4.6.4, GMP version 4.3.2, MPFR version 2.4.2, MPC version 0.8.1
  16              	@ GGC heuristics: --param ggc-min-expand=100 --param ggc-min-heapsize=131072
  17              	@ options passed:  -I . -I ./include -I ./cmsis/core -I ./cmsis/device
  18              	@ -I ./prime-framework -I ./prime-framework/include
  19              	@ -I ./prime-framework/arch/arm/cortex-m3/lpc1768/include
  20              	@ -I ./prime-framework/common/include -I ./prime-framework/utils/include
  21              	@ -I ./prime-framework/nativehardware/lpc1768/include
  22              	@ -I ./prime-framework/device/include
  23              	@ -I ./prime-framework/extensions/canopen/common/include
  24              	@ -I ./prime-framework/extensions/canopen/lpc1768/include
  25              	@ -imultilib armv7-m
  26              	@ -iprefix c:\program files\gnu tools arm embedded\4.8 2014q2\bin\../lib/gcc/arm-none-eabi/4.8.4/
  27              	@ -isysroot c:\program files\gnu tools arm embedded\4.8 2014q2\bin\../arm-none-eabi
  28              	@ -MD src/Example_Master.d -MF .dep/Example_Master.o.d -MP
  29              	@ -MQ src/Example_Master.o -D__USES_INITFINI__ -D CORE_FAMILY_arm
  30              	@ -D MCU_CHIP_lpc1768 -D PRIME_DEBUG -D RUN_FROM_FLASH=1
  31              	@ src/Example_Master.c -mcpu=cortex-m3 -mthumb
  32              	@ -auxbase-strip src/Example_Master.o -gdwarf-2 -O0 -Wall
  33              	@ -Wstrict-prototypes -fomit-frame-pointer -fverbose-asm
  34              	@ options enabled:  -faggressive-loop-optimizations -fauto-inc-dec
  35              	@ -fbranch-count-reg -fcommon -fdelete-null-pointer-checks -fdwarf2-cfi-asm
  36              	@ -fearly-inlining -feliminate-unused-debug-types -ffunction-cse -fgcse-lm
  37              	@ -fgnu-runtime -fident -finline-atomics -fira-hoist-pressure
  38              	@ -fira-share-save-slots -fira-share-spill-slots -fivopts
  39              	@ -fkeep-static-consts -fleading-underscore -fmath-errno
  40              	@ -fmerge-debug-strings -fmove-loop-invariants -fomit-frame-pointer
  41              	@ -fpeephole -fprefetch-loop-arrays -freg-struct-return
  42              	@ -fsched-critical-path-heuristic -fsched-dep-count-heuristic
  43              	@ -fsched-group-heuristic -fsched-interblock -fsched-last-insn-heuristic
  44              	@ -fsched-rank-heuristic -fsched-spec -fsched-spec-insn-heuristic
  45              	@ -fsched-stalled-insns-dep -fshow-column -fsigned-zeros
  46              	@ -fsplit-ivs-in-unroller -fstrict-volatile-bitfields -fsync-libcalls
  47              	@ -ftrapping-math -ftree-coalesce-vars -ftree-cselim -ftree-forwprop
  48              	@ -ftree-loop-if-convert -ftree-loop-im -ftree-loop-ivcanon
  49              	@ -ftree-loop-optimize -ftree-parallelize-loops= -ftree-phiprop -ftree-pta
  50              	@ -ftree-reassoc -ftree-scev-cprop -ftree-slp-vectorize
  51              	@ -ftree-vect-loop-version -funit-at-a-time -fverbose-asm
  52              	@ -fzero-initialized-in-bss -mfix-cortex-m3-ldrd -mlittle-endian
  53              	@ -mpic-data-is-text-relative -msched-prolog -mthumb -munaligned-access
  54              	@ -mvectorize-with-neon-quad
  55              	
  56              		.text
  57              	.Ltext0:
ARM GAS  C:\Users\Akil\AppData\Local\Temp\cc6kIPJ8.s 			page 2


  58              		.cfi_sections	.debug_frame
  59              		.align	2
  60              		.thumb
  61              		.thumb_func
  62              		.type	NVIC_EnableIRQ, %function
  63              	NVIC_EnableIRQ:
  64              	.LFB40:
  65              		.file 1 "./prime-framework/arch/arm/cortex-m3/lpc1768/include/core_cm3.h"
   1:./prime-framework/arch/arm/cortex-m3/lpc1768/include/core_cm3.h **** /**************************************************************************//**
   2:./prime-framework/arch/arm/cortex-m3/lpc1768/include/core_cm3.h ****  * @file     core_cm3.h
   3:./prime-framework/arch/arm/cortex-m3/lpc1768/include/core_cm3.h ****  * @brief    CMSIS Cortex-M3 Core Peripheral Access Layer Header File
   4:./prime-framework/arch/arm/cortex-m3/lpc1768/include/core_cm3.h ****  * @version  V2.01
   5:./prime-framework/arch/arm/cortex-m3/lpc1768/include/core_cm3.h ****  * @date     06. December 2010
   6:./prime-framework/arch/arm/cortex-m3/lpc1768/include/core_cm3.h ****  *
   7:./prime-framework/arch/arm/cortex-m3/lpc1768/include/core_cm3.h ****  * @note
   8:./prime-framework/arch/arm/cortex-m3/lpc1768/include/core_cm3.h ****  * Copyright (C) 2009-2010 ARM Limited. All rights reserved.
   9:./prime-framework/arch/arm/cortex-m3/lpc1768/include/core_cm3.h ****  *
  10:./prime-framework/arch/arm/cortex-m3/lpc1768/include/core_cm3.h ****  * @par
  11:./prime-framework/arch/arm/cortex-m3/lpc1768/include/core_cm3.h ****  * ARM Limited (ARM) is supplying this software for use with Cortex-M
  12:./prime-framework/arch/arm/cortex-m3/lpc1768/include/core_cm3.h ****  * processor based microcontrollers.  This file can be freely distributed
  13:./prime-framework/arch/arm/cortex-m3/lpc1768/include/core_cm3.h ****  * within development tools that are supporting such ARM based processors.
  14:./prime-framework/arch/arm/cortex-m3/lpc1768/include/core_cm3.h ****  *
  15:./prime-framework/arch/arm/cortex-m3/lpc1768/include/core_cm3.h ****  * @par
  16:./prime-framework/arch/arm/cortex-m3/lpc1768/include/core_cm3.h ****  * THIS SOFTWARE IS PROVIDED "AS IS".  NO WARRANTIES, WHETHER EXPRESS, IMPLIED
  17:./prime-framework/arch/arm/cortex-m3/lpc1768/include/core_cm3.h ****  * OR STATUTORY, INCLUDING, BUT NOT LIMITED TO, IMPLIED WARRANTIES OF
  18:./prime-framework/arch/arm/cortex-m3/lpc1768/include/core_cm3.h ****  * MERCHANTABILITY AND FITNESS FOR A PARTICULAR PURPOSE APPLY TO THIS SOFTWARE.
  19:./prime-framework/arch/arm/cortex-m3/lpc1768/include/core_cm3.h ****  * ARM SHALL NOT, IN ANY CIRCUMSTANCES, BE LIABLE FOR SPECIAL, INCIDENTAL, OR
  20:./prime-framework/arch/arm/cortex-m3/lpc1768/include/core_cm3.h ****  * CONSEQUENTIAL DAMAGES, FOR ANY REASON WHATSOEVER.
  21:./prime-framework/arch/arm/cortex-m3/lpc1768/include/core_cm3.h ****  *
  22:./prime-framework/arch/arm/cortex-m3/lpc1768/include/core_cm3.h ****  ******************************************************************************/
  23:./prime-framework/arch/arm/cortex-m3/lpc1768/include/core_cm3.h **** #if defined ( __ICCARM__ )
  24:./prime-framework/arch/arm/cortex-m3/lpc1768/include/core_cm3.h ****  #pragma system_include  /* treat file as system include file for MISRA check */
  25:./prime-framework/arch/arm/cortex-m3/lpc1768/include/core_cm3.h **** #endif
  26:./prime-framework/arch/arm/cortex-m3/lpc1768/include/core_cm3.h **** 
  27:./prime-framework/arch/arm/cortex-m3/lpc1768/include/core_cm3.h **** #ifdef __cplusplus
  28:./prime-framework/arch/arm/cortex-m3/lpc1768/include/core_cm3.h ****  extern "C" {
  29:./prime-framework/arch/arm/cortex-m3/lpc1768/include/core_cm3.h **** #endif
  30:./prime-framework/arch/arm/cortex-m3/lpc1768/include/core_cm3.h **** 
  31:./prime-framework/arch/arm/cortex-m3/lpc1768/include/core_cm3.h **** #ifndef __CORE_CM3_H_GENERIC
  32:./prime-framework/arch/arm/cortex-m3/lpc1768/include/core_cm3.h **** #define __CORE_CM3_H_GENERIC
  33:./prime-framework/arch/arm/cortex-m3/lpc1768/include/core_cm3.h **** 
  34:./prime-framework/arch/arm/cortex-m3/lpc1768/include/core_cm3.h **** /** @addtogroup CMSIS_core_LintCinfiguration CMSIS Core Lint Configuration
  35:./prime-framework/arch/arm/cortex-m3/lpc1768/include/core_cm3.h ****   List of Lint messages which will be suppressed and not shown:
  36:./prime-framework/arch/arm/cortex-m3/lpc1768/include/core_cm3.h ****     - not yet checked
  37:./prime-framework/arch/arm/cortex-m3/lpc1768/include/core_cm3.h ****   .
  38:./prime-framework/arch/arm/cortex-m3/lpc1768/include/core_cm3.h ****   Note:  To re-enable a Message, insert a space before 'lint' *
  39:./prime-framework/arch/arm/cortex-m3/lpc1768/include/core_cm3.h **** 
  40:./prime-framework/arch/arm/cortex-m3/lpc1768/include/core_cm3.h ****  */
  41:./prime-framework/arch/arm/cortex-m3/lpc1768/include/core_cm3.h **** 
  42:./prime-framework/arch/arm/cortex-m3/lpc1768/include/core_cm3.h **** 
  43:./prime-framework/arch/arm/cortex-m3/lpc1768/include/core_cm3.h **** /*******************************************************************************
  44:./prime-framework/arch/arm/cortex-m3/lpc1768/include/core_cm3.h ****  *                 CMSIS definitions
  45:./prime-framework/arch/arm/cortex-m3/lpc1768/include/core_cm3.h ****  ******************************************************************************/
  46:./prime-framework/arch/arm/cortex-m3/lpc1768/include/core_cm3.h **** /** @addtogroup CMSIS_core_definitions CMSIS Core Definitions
  47:./prime-framework/arch/arm/cortex-m3/lpc1768/include/core_cm3.h ****   This file defines all structures and symbols for CMSIS core:
  48:./prime-framework/arch/arm/cortex-m3/lpc1768/include/core_cm3.h ****    - CMSIS version number
  49:./prime-framework/arch/arm/cortex-m3/lpc1768/include/core_cm3.h ****    - Cortex-M core
ARM GAS  C:\Users\Akil\AppData\Local\Temp\cc6kIPJ8.s 			page 3


  50:./prime-framework/arch/arm/cortex-m3/lpc1768/include/core_cm3.h ****    - Cortex-M core Revision Number
  51:./prime-framework/arch/arm/cortex-m3/lpc1768/include/core_cm3.h ****   @{
  52:./prime-framework/arch/arm/cortex-m3/lpc1768/include/core_cm3.h ****  */
  53:./prime-framework/arch/arm/cortex-m3/lpc1768/include/core_cm3.h **** 
  54:./prime-framework/arch/arm/cortex-m3/lpc1768/include/core_cm3.h **** /*  CMSIS CM3 definitions */
  55:./prime-framework/arch/arm/cortex-m3/lpc1768/include/core_cm3.h **** #define __CM3_CMSIS_VERSION_MAIN  (0x02)                                                       /*!<
  56:./prime-framework/arch/arm/cortex-m3/lpc1768/include/core_cm3.h **** #define __CM3_CMSIS_VERSION_SUB   (0x00)                                                       /*!<
  57:./prime-framework/arch/arm/cortex-m3/lpc1768/include/core_cm3.h **** #define __CM3_CMSIS_VERSION       ((__CM3_CMSIS_VERSION_MAIN << 16) | __CM3_CMSIS_VERSION_SUB) /*!<
  58:./prime-framework/arch/arm/cortex-m3/lpc1768/include/core_cm3.h **** 
  59:./prime-framework/arch/arm/cortex-m3/lpc1768/include/core_cm3.h **** #define __CORTEX_M                (0x03)                                                       /*!<
  60:./prime-framework/arch/arm/cortex-m3/lpc1768/include/core_cm3.h **** 
  61:./prime-framework/arch/arm/cortex-m3/lpc1768/include/core_cm3.h **** 
  62:./prime-framework/arch/arm/cortex-m3/lpc1768/include/core_cm3.h **** #if defined ( __CC_ARM   )
  63:./prime-framework/arch/arm/cortex-m3/lpc1768/include/core_cm3.h ****   #define __ASM            __asm                                      /*!< asm keyword for ARM Comp
  64:./prime-framework/arch/arm/cortex-m3/lpc1768/include/core_cm3.h ****   #define __INLINE         __inline                                   /*!< inline keyword for ARM C
  65:./prime-framework/arch/arm/cortex-m3/lpc1768/include/core_cm3.h **** 
  66:./prime-framework/arch/arm/cortex-m3/lpc1768/include/core_cm3.h **** #elif defined ( __ICCARM__ )
  67:./prime-framework/arch/arm/cortex-m3/lpc1768/include/core_cm3.h ****   #define __ASM           __asm                                       /*!< asm keyword for IAR Comp
  68:./prime-framework/arch/arm/cortex-m3/lpc1768/include/core_cm3.h ****   #define __INLINE        inline                                      /*!< inline keyword for IAR C
  69:./prime-framework/arch/arm/cortex-m3/lpc1768/include/core_cm3.h **** 
  70:./prime-framework/arch/arm/cortex-m3/lpc1768/include/core_cm3.h **** #elif defined   (  __GNUC__  )
  71:./prime-framework/arch/arm/cortex-m3/lpc1768/include/core_cm3.h ****   #define __ASM            __asm                                      /*!< asm keyword for GNU Comp
  72:./prime-framework/arch/arm/cortex-m3/lpc1768/include/core_cm3.h ****   #define __INLINE         inline                                     /*!< inline keyword for GNU C
  73:./prime-framework/arch/arm/cortex-m3/lpc1768/include/core_cm3.h **** 
  74:./prime-framework/arch/arm/cortex-m3/lpc1768/include/core_cm3.h **** #elif defined   (  __TASKING__  )
  75:./prime-framework/arch/arm/cortex-m3/lpc1768/include/core_cm3.h ****   #define __ASM            __asm                                      /*!< asm keyword for TASKING 
  76:./prime-framework/arch/arm/cortex-m3/lpc1768/include/core_cm3.h ****   #define __INLINE         inline                                     /*!< inline keyword for TASKI
  77:./prime-framework/arch/arm/cortex-m3/lpc1768/include/core_cm3.h **** 
  78:./prime-framework/arch/arm/cortex-m3/lpc1768/include/core_cm3.h **** #endif
  79:./prime-framework/arch/arm/cortex-m3/lpc1768/include/core_cm3.h **** 
  80:./prime-framework/arch/arm/cortex-m3/lpc1768/include/core_cm3.h **** #include <stdint.h>                      /*!< standard types definitions                      */
  81:./prime-framework/arch/arm/cortex-m3/lpc1768/include/core_cm3.h **** #include "core_cmInstr.h"                /*!< Core Instruction Access                         */
  82:./prime-framework/arch/arm/cortex-m3/lpc1768/include/core_cm3.h **** #include "core_cmFunc.h"                 /*!< Core Function Access                            */
  83:./prime-framework/arch/arm/cortex-m3/lpc1768/include/core_cm3.h **** 
  84:./prime-framework/arch/arm/cortex-m3/lpc1768/include/core_cm3.h **** #endif /* __CORE_CM3_H_GENERIC */
  85:./prime-framework/arch/arm/cortex-m3/lpc1768/include/core_cm3.h **** 
  86:./prime-framework/arch/arm/cortex-m3/lpc1768/include/core_cm3.h **** 
  87:./prime-framework/arch/arm/cortex-m3/lpc1768/include/core_cm3.h **** #ifndef __CMSIS_GENERIC
  88:./prime-framework/arch/arm/cortex-m3/lpc1768/include/core_cm3.h **** 
  89:./prime-framework/arch/arm/cortex-m3/lpc1768/include/core_cm3.h **** #ifndef __CORE_CM3_H_DEPENDANT
  90:./prime-framework/arch/arm/cortex-m3/lpc1768/include/core_cm3.h **** #define __CORE_CM3_H_DEPENDANT
  91:./prime-framework/arch/arm/cortex-m3/lpc1768/include/core_cm3.h **** 
  92:./prime-framework/arch/arm/cortex-m3/lpc1768/include/core_cm3.h **** /* IO definitions (access restrictions to peripheral registers) */
  93:./prime-framework/arch/arm/cortex-m3/lpc1768/include/core_cm3.h **** #ifdef __cplusplus
  94:./prime-framework/arch/arm/cortex-m3/lpc1768/include/core_cm3.h ****   #define     __I     volatile           /*!< defines 'read only' permissions                 */
  95:./prime-framework/arch/arm/cortex-m3/lpc1768/include/core_cm3.h **** #else
  96:./prime-framework/arch/arm/cortex-m3/lpc1768/include/core_cm3.h ****   #define     __I     volatile const     /*!< defines 'read only' permissions                 */
  97:./prime-framework/arch/arm/cortex-m3/lpc1768/include/core_cm3.h **** #endif
  98:./prime-framework/arch/arm/cortex-m3/lpc1768/include/core_cm3.h **** #define     __O     volatile             /*!< defines 'write only' permissions                */
  99:./prime-framework/arch/arm/cortex-m3/lpc1768/include/core_cm3.h **** #define     __IO    volatile             /*!< defines 'read / write' permissions              */
 100:./prime-framework/arch/arm/cortex-m3/lpc1768/include/core_cm3.h **** 
 101:./prime-framework/arch/arm/cortex-m3/lpc1768/include/core_cm3.h **** /*@} end of group CMSIS_core_definitions */
 102:./prime-framework/arch/arm/cortex-m3/lpc1768/include/core_cm3.h **** 
 103:./prime-framework/arch/arm/cortex-m3/lpc1768/include/core_cm3.h **** 
 104:./prime-framework/arch/arm/cortex-m3/lpc1768/include/core_cm3.h **** 
 105:./prime-framework/arch/arm/cortex-m3/lpc1768/include/core_cm3.h **** /*******************************************************************************
 106:./prime-framework/arch/arm/cortex-m3/lpc1768/include/core_cm3.h ****  *                 Register Abstraction
ARM GAS  C:\Users\Akil\AppData\Local\Temp\cc6kIPJ8.s 			page 4


 107:./prime-framework/arch/arm/cortex-m3/lpc1768/include/core_cm3.h ****  ******************************************************************************/
 108:./prime-framework/arch/arm/cortex-m3/lpc1768/include/core_cm3.h **** /** @addtogroup CMSIS_core_register CMSIS Core Register
 109:./prime-framework/arch/arm/cortex-m3/lpc1768/include/core_cm3.h ****   Core Register contain:
 110:./prime-framework/arch/arm/cortex-m3/lpc1768/include/core_cm3.h ****   - Core Register
 111:./prime-framework/arch/arm/cortex-m3/lpc1768/include/core_cm3.h ****   - Core NVIC Register
 112:./prime-framework/arch/arm/cortex-m3/lpc1768/include/core_cm3.h ****   - Core SCB Register
 113:./prime-framework/arch/arm/cortex-m3/lpc1768/include/core_cm3.h ****   - Core SysTick Register
 114:./prime-framework/arch/arm/cortex-m3/lpc1768/include/core_cm3.h ****   - Core Debug Register
 115:./prime-framework/arch/arm/cortex-m3/lpc1768/include/core_cm3.h ****   - Core MPU Register
 116:./prime-framework/arch/arm/cortex-m3/lpc1768/include/core_cm3.h **** */
 117:./prime-framework/arch/arm/cortex-m3/lpc1768/include/core_cm3.h **** 
 118:./prime-framework/arch/arm/cortex-m3/lpc1768/include/core_cm3.h **** /** \ingroup  CMSIS_core_register
 119:./prime-framework/arch/arm/cortex-m3/lpc1768/include/core_cm3.h ****     \defgroup CMSIS_CORE CMSIS Core
 120:./prime-framework/arch/arm/cortex-m3/lpc1768/include/core_cm3.h ****   Type definitions for the Cortex-M Core Registers
 121:./prime-framework/arch/arm/cortex-m3/lpc1768/include/core_cm3.h ****   @{
 122:./prime-framework/arch/arm/cortex-m3/lpc1768/include/core_cm3.h ****  */
 123:./prime-framework/arch/arm/cortex-m3/lpc1768/include/core_cm3.h **** 
 124:./prime-framework/arch/arm/cortex-m3/lpc1768/include/core_cm3.h **** /** \brief  Union type to access the Application Program Status Register (APSR).
 125:./prime-framework/arch/arm/cortex-m3/lpc1768/include/core_cm3.h ****  */
 126:./prime-framework/arch/arm/cortex-m3/lpc1768/include/core_cm3.h **** typedef union
 127:./prime-framework/arch/arm/cortex-m3/lpc1768/include/core_cm3.h **** {
 128:./prime-framework/arch/arm/cortex-m3/lpc1768/include/core_cm3.h ****   struct
 129:./prime-framework/arch/arm/cortex-m3/lpc1768/include/core_cm3.h ****   {
 130:./prime-framework/arch/arm/cortex-m3/lpc1768/include/core_cm3.h **** #if (__CORTEX_M != 0x04)
 131:./prime-framework/arch/arm/cortex-m3/lpc1768/include/core_cm3.h ****     uint32_t _reserved0:27;              /*!< bit:  0..26  Reserved                           */
 132:./prime-framework/arch/arm/cortex-m3/lpc1768/include/core_cm3.h **** #else
 133:./prime-framework/arch/arm/cortex-m3/lpc1768/include/core_cm3.h ****     uint32_t _reserved0:16;              /*!< bit:  0..15  Reserved                           */
 134:./prime-framework/arch/arm/cortex-m3/lpc1768/include/core_cm3.h ****     uint32_t GE:4;                       /*!< bit: 16..19  Greater than or Equal flags        */
 135:./prime-framework/arch/arm/cortex-m3/lpc1768/include/core_cm3.h ****     uint32_t _reserved1:7;               /*!< bit: 20..26  Reserved                           */
 136:./prime-framework/arch/arm/cortex-m3/lpc1768/include/core_cm3.h **** #endif
 137:./prime-framework/arch/arm/cortex-m3/lpc1768/include/core_cm3.h ****     uint32_t Q:1;                        /*!< bit:     27  Saturation condition flag          */
 138:./prime-framework/arch/arm/cortex-m3/lpc1768/include/core_cm3.h ****     uint32_t V:1;                        /*!< bit:     28  Overflow condition code flag       */
 139:./prime-framework/arch/arm/cortex-m3/lpc1768/include/core_cm3.h ****     uint32_t C:1;                        /*!< bit:     29  Carry condition code flag          */
 140:./prime-framework/arch/arm/cortex-m3/lpc1768/include/core_cm3.h ****     uint32_t Z:1;                        /*!< bit:     30  Zero condition code flag           */
 141:./prime-framework/arch/arm/cortex-m3/lpc1768/include/core_cm3.h ****     uint32_t N:1;                        /*!< bit:     31  Negative condition code flag       */
 142:./prime-framework/arch/arm/cortex-m3/lpc1768/include/core_cm3.h ****   } b;                                   /*!< Structure used for bit  access                  */
 143:./prime-framework/arch/arm/cortex-m3/lpc1768/include/core_cm3.h ****   uint32_t w;                            /*!< Type      used for word access                  */
 144:./prime-framework/arch/arm/cortex-m3/lpc1768/include/core_cm3.h **** } APSR_Type;
 145:./prime-framework/arch/arm/cortex-m3/lpc1768/include/core_cm3.h **** 
 146:./prime-framework/arch/arm/cortex-m3/lpc1768/include/core_cm3.h **** 
 147:./prime-framework/arch/arm/cortex-m3/lpc1768/include/core_cm3.h **** /** \brief  Union type to access the Interrupt Program Status Register (IPSR).
 148:./prime-framework/arch/arm/cortex-m3/lpc1768/include/core_cm3.h ****  */
 149:./prime-framework/arch/arm/cortex-m3/lpc1768/include/core_cm3.h **** typedef union
 150:./prime-framework/arch/arm/cortex-m3/lpc1768/include/core_cm3.h **** {
 151:./prime-framework/arch/arm/cortex-m3/lpc1768/include/core_cm3.h ****   struct
 152:./prime-framework/arch/arm/cortex-m3/lpc1768/include/core_cm3.h ****   {
 153:./prime-framework/arch/arm/cortex-m3/lpc1768/include/core_cm3.h ****     uint32_t ISR:9;                      /*!< bit:  0.. 8  Exception number                   */
 154:./prime-framework/arch/arm/cortex-m3/lpc1768/include/core_cm3.h ****     uint32_t _reserved0:23;              /*!< bit:  9..31  Reserved                           */
 155:./prime-framework/arch/arm/cortex-m3/lpc1768/include/core_cm3.h ****   } b;                                   /*!< Structure used for bit  access                  */
 156:./prime-framework/arch/arm/cortex-m3/lpc1768/include/core_cm3.h ****   uint32_t w;                            /*!< Type      used for word access                  */
 157:./prime-framework/arch/arm/cortex-m3/lpc1768/include/core_cm3.h **** } IPSR_Type;
 158:./prime-framework/arch/arm/cortex-m3/lpc1768/include/core_cm3.h **** 
 159:./prime-framework/arch/arm/cortex-m3/lpc1768/include/core_cm3.h **** 
 160:./prime-framework/arch/arm/cortex-m3/lpc1768/include/core_cm3.h **** /** \brief  Union type to access the Special-Purpose Program Status Registers (xPSR).
 161:./prime-framework/arch/arm/cortex-m3/lpc1768/include/core_cm3.h ****  */
 162:./prime-framework/arch/arm/cortex-m3/lpc1768/include/core_cm3.h **** typedef union
 163:./prime-framework/arch/arm/cortex-m3/lpc1768/include/core_cm3.h **** {
ARM GAS  C:\Users\Akil\AppData\Local\Temp\cc6kIPJ8.s 			page 5


 164:./prime-framework/arch/arm/cortex-m3/lpc1768/include/core_cm3.h ****   struct
 165:./prime-framework/arch/arm/cortex-m3/lpc1768/include/core_cm3.h ****   {
 166:./prime-framework/arch/arm/cortex-m3/lpc1768/include/core_cm3.h ****     uint32_t ISR:9;                      /*!< bit:  0.. 8  Exception number                   */
 167:./prime-framework/arch/arm/cortex-m3/lpc1768/include/core_cm3.h **** #if (__CORTEX_M != 0x04)
 168:./prime-framework/arch/arm/cortex-m3/lpc1768/include/core_cm3.h ****     uint32_t _reserved0:15;              /*!< bit:  9..23  Reserved                           */
 169:./prime-framework/arch/arm/cortex-m3/lpc1768/include/core_cm3.h **** #else
 170:./prime-framework/arch/arm/cortex-m3/lpc1768/include/core_cm3.h ****     uint32_t _reserved0:7;               /*!< bit:  9..15  Reserved                           */
 171:./prime-framework/arch/arm/cortex-m3/lpc1768/include/core_cm3.h ****     uint32_t GE:4;                       /*!< bit: 16..19  Greater than or Equal flags        */
 172:./prime-framework/arch/arm/cortex-m3/lpc1768/include/core_cm3.h ****     uint32_t _reserved1:4;               /*!< bit: 20..23  Reserved                           */
 173:./prime-framework/arch/arm/cortex-m3/lpc1768/include/core_cm3.h **** #endif
 174:./prime-framework/arch/arm/cortex-m3/lpc1768/include/core_cm3.h ****     uint32_t T:1;                        /*!< bit:     24  Thumb bit        (read 0)          */
 175:./prime-framework/arch/arm/cortex-m3/lpc1768/include/core_cm3.h ****     uint32_t IT:2;                       /*!< bit: 25..26  saved IT state   (read 0)          */
 176:./prime-framework/arch/arm/cortex-m3/lpc1768/include/core_cm3.h ****     uint32_t Q:1;                        /*!< bit:     27  Saturation condition flag          */
 177:./prime-framework/arch/arm/cortex-m3/lpc1768/include/core_cm3.h ****     uint32_t V:1;                        /*!< bit:     28  Overflow condition code flag       */
 178:./prime-framework/arch/arm/cortex-m3/lpc1768/include/core_cm3.h ****     uint32_t C:1;                        /*!< bit:     29  Carry condition code flag          */
 179:./prime-framework/arch/arm/cortex-m3/lpc1768/include/core_cm3.h ****     uint32_t Z:1;                        /*!< bit:     30  Zero condition code flag           */
 180:./prime-framework/arch/arm/cortex-m3/lpc1768/include/core_cm3.h ****     uint32_t N:1;                        /*!< bit:     31  Negative condition code flag       */
 181:./prime-framework/arch/arm/cortex-m3/lpc1768/include/core_cm3.h ****   } b;                                   /*!< Structure used for bit  access                  */
 182:./prime-framework/arch/arm/cortex-m3/lpc1768/include/core_cm3.h ****   uint32_t w;                            /*!< Type      used for word access                  */
 183:./prime-framework/arch/arm/cortex-m3/lpc1768/include/core_cm3.h **** } xPSR_Type;
 184:./prime-framework/arch/arm/cortex-m3/lpc1768/include/core_cm3.h **** 
 185:./prime-framework/arch/arm/cortex-m3/lpc1768/include/core_cm3.h **** 
 186:./prime-framework/arch/arm/cortex-m3/lpc1768/include/core_cm3.h **** /** \brief  Union type to access the Control Registers (CONTROL).
 187:./prime-framework/arch/arm/cortex-m3/lpc1768/include/core_cm3.h ****  */
 188:./prime-framework/arch/arm/cortex-m3/lpc1768/include/core_cm3.h **** typedef union
 189:./prime-framework/arch/arm/cortex-m3/lpc1768/include/core_cm3.h **** {
 190:./prime-framework/arch/arm/cortex-m3/lpc1768/include/core_cm3.h ****   struct
 191:./prime-framework/arch/arm/cortex-m3/lpc1768/include/core_cm3.h ****   {
 192:./prime-framework/arch/arm/cortex-m3/lpc1768/include/core_cm3.h ****     uint32_t nPRIV:1;                    /*!< bit:      0  Execution privilege in Thread mode */
 193:./prime-framework/arch/arm/cortex-m3/lpc1768/include/core_cm3.h ****     uint32_t SPSEL:1;                    /*!< bit:      1  Stack to be used                   */
 194:./prime-framework/arch/arm/cortex-m3/lpc1768/include/core_cm3.h ****     uint32_t FPCA:1;                     /*!< bit:      2  FP extension active flag           */
 195:./prime-framework/arch/arm/cortex-m3/lpc1768/include/core_cm3.h ****     uint32_t _reserved0:29;              /*!< bit:  3..31  Reserved                           */
 196:./prime-framework/arch/arm/cortex-m3/lpc1768/include/core_cm3.h ****   } b;                                   /*!< Structure used for bit  access                  */
 197:./prime-framework/arch/arm/cortex-m3/lpc1768/include/core_cm3.h ****   uint32_t w;                            /*!< Type      used for word access                  */
 198:./prime-framework/arch/arm/cortex-m3/lpc1768/include/core_cm3.h **** } CONTROL_Type;
 199:./prime-framework/arch/arm/cortex-m3/lpc1768/include/core_cm3.h **** 
 200:./prime-framework/arch/arm/cortex-m3/lpc1768/include/core_cm3.h **** /*@} end of group CMSIS_CORE */
 201:./prime-framework/arch/arm/cortex-m3/lpc1768/include/core_cm3.h **** 
 202:./prime-framework/arch/arm/cortex-m3/lpc1768/include/core_cm3.h **** 
 203:./prime-framework/arch/arm/cortex-m3/lpc1768/include/core_cm3.h **** /** \ingroup  CMSIS_core_register
 204:./prime-framework/arch/arm/cortex-m3/lpc1768/include/core_cm3.h ****     \defgroup CMSIS_NVIC CMSIS NVIC
 205:./prime-framework/arch/arm/cortex-m3/lpc1768/include/core_cm3.h ****   Type definitions for the Cortex-M NVIC Registers
 206:./prime-framework/arch/arm/cortex-m3/lpc1768/include/core_cm3.h ****   @{
 207:./prime-framework/arch/arm/cortex-m3/lpc1768/include/core_cm3.h ****  */
 208:./prime-framework/arch/arm/cortex-m3/lpc1768/include/core_cm3.h **** 
 209:./prime-framework/arch/arm/cortex-m3/lpc1768/include/core_cm3.h **** /** \brief  Structure type to access the Nested Vectored Interrupt Controller (NVIC).
 210:./prime-framework/arch/arm/cortex-m3/lpc1768/include/core_cm3.h ****  */
 211:./prime-framework/arch/arm/cortex-m3/lpc1768/include/core_cm3.h **** typedef struct
 212:./prime-framework/arch/arm/cortex-m3/lpc1768/include/core_cm3.h **** {
 213:./prime-framework/arch/arm/cortex-m3/lpc1768/include/core_cm3.h ****   __IO uint32_t ISER[8];                 /*!< Offset: 0x000 (R/W)  Interrupt Set Enable Register   
 214:./prime-framework/arch/arm/cortex-m3/lpc1768/include/core_cm3.h ****        uint32_t RESERVED0[24];
 215:./prime-framework/arch/arm/cortex-m3/lpc1768/include/core_cm3.h ****   __IO uint32_t ICER[8];                 /*!< Offset: 0x080 (R/W)  Interrupt Clear Enable Register 
 216:./prime-framework/arch/arm/cortex-m3/lpc1768/include/core_cm3.h ****        uint32_t RSERVED1[24];
 217:./prime-framework/arch/arm/cortex-m3/lpc1768/include/core_cm3.h ****   __IO uint32_t ISPR[8];                 /*!< Offset: 0x100 (R/W)  Interrupt Set Pending Register  
 218:./prime-framework/arch/arm/cortex-m3/lpc1768/include/core_cm3.h ****        uint32_t RESERVED2[24];
 219:./prime-framework/arch/arm/cortex-m3/lpc1768/include/core_cm3.h ****   __IO uint32_t ICPR[8];                 /*!< Offset: 0x180 (R/W)  Interrupt Clear Pending Register
 220:./prime-framework/arch/arm/cortex-m3/lpc1768/include/core_cm3.h ****        uint32_t RESERVED3[24];
ARM GAS  C:\Users\Akil\AppData\Local\Temp\cc6kIPJ8.s 			page 6


 221:./prime-framework/arch/arm/cortex-m3/lpc1768/include/core_cm3.h ****   __IO uint32_t IABR[8];                 /*!< Offset: 0x200 (R/W)  Interrupt Active bit Register   
 222:./prime-framework/arch/arm/cortex-m3/lpc1768/include/core_cm3.h ****        uint32_t RESERVED4[56];
 223:./prime-framework/arch/arm/cortex-m3/lpc1768/include/core_cm3.h ****   __IO uint8_t  IP[240];                 /*!< Offset: 0x300 (R/W)  Interrupt Priority Register (8Bi
 224:./prime-framework/arch/arm/cortex-m3/lpc1768/include/core_cm3.h ****        uint32_t RESERVED5[644];
 225:./prime-framework/arch/arm/cortex-m3/lpc1768/include/core_cm3.h ****   __O  uint32_t STIR;                    /*!< Offset: 0xE00 ( /W)  Software Trigger Interrupt Regis
 226:./prime-framework/arch/arm/cortex-m3/lpc1768/include/core_cm3.h **** }  NVIC_Type;
 227:./prime-framework/arch/arm/cortex-m3/lpc1768/include/core_cm3.h **** 
 228:./prime-framework/arch/arm/cortex-m3/lpc1768/include/core_cm3.h **** /*@} end of group CMSIS_NVIC */
 229:./prime-framework/arch/arm/cortex-m3/lpc1768/include/core_cm3.h **** 
 230:./prime-framework/arch/arm/cortex-m3/lpc1768/include/core_cm3.h **** 
 231:./prime-framework/arch/arm/cortex-m3/lpc1768/include/core_cm3.h **** /** \ingroup  CMSIS_core_register
 232:./prime-framework/arch/arm/cortex-m3/lpc1768/include/core_cm3.h ****     \defgroup CMSIS_SCB CMSIS SCB
 233:./prime-framework/arch/arm/cortex-m3/lpc1768/include/core_cm3.h ****   Type definitions for the Cortex-M System Control Block Registers
 234:./prime-framework/arch/arm/cortex-m3/lpc1768/include/core_cm3.h ****   @{
 235:./prime-framework/arch/arm/cortex-m3/lpc1768/include/core_cm3.h ****  */
 236:./prime-framework/arch/arm/cortex-m3/lpc1768/include/core_cm3.h **** 
 237:./prime-framework/arch/arm/cortex-m3/lpc1768/include/core_cm3.h **** /** \brief  Structure type to access the System Control Block (SCB).
 238:./prime-framework/arch/arm/cortex-m3/lpc1768/include/core_cm3.h ****  */
 239:./prime-framework/arch/arm/cortex-m3/lpc1768/include/core_cm3.h **** typedef struct
 240:./prime-framework/arch/arm/cortex-m3/lpc1768/include/core_cm3.h **** {
 241:./prime-framework/arch/arm/cortex-m3/lpc1768/include/core_cm3.h ****   __I  uint32_t CPUID;                   /*!< Offset: 0x000 (R/ )  CPU ID Base Register            
 242:./prime-framework/arch/arm/cortex-m3/lpc1768/include/core_cm3.h ****   __IO uint32_t ICSR;                    /*!< Offset: 0x004 (R/W)  Interrupt Control State Register
 243:./prime-framework/arch/arm/cortex-m3/lpc1768/include/core_cm3.h ****   __IO uint32_t VTOR;                    /*!< Offset: 0x008 (R/W)  Vector Table Offset Register    
 244:./prime-framework/arch/arm/cortex-m3/lpc1768/include/core_cm3.h ****   __IO uint32_t AIRCR;                   /*!< Offset: 0x00C (R/W)  Application Interrupt / Reset Co
 245:./prime-framework/arch/arm/cortex-m3/lpc1768/include/core_cm3.h ****   __IO uint32_t SCR;                     /*!< Offset: 0x010 (R/W)  System Control Register         
 246:./prime-framework/arch/arm/cortex-m3/lpc1768/include/core_cm3.h ****   __IO uint32_t CCR;                     /*!< Offset: 0x014 (R/W)  Configuration Control Register  
 247:./prime-framework/arch/arm/cortex-m3/lpc1768/include/core_cm3.h ****   __IO uint8_t  SHP[12];                 /*!< Offset: 0x018 (R/W)  System Handlers Priority Registe
 248:./prime-framework/arch/arm/cortex-m3/lpc1768/include/core_cm3.h ****   __IO uint32_t SHCSR;                   /*!< Offset: 0x024 (R/W)  System Handler Control and State
 249:./prime-framework/arch/arm/cortex-m3/lpc1768/include/core_cm3.h ****   __IO uint32_t CFSR;                    /*!< Offset: 0x028 (R/W)  Configurable Fault Status Regist
 250:./prime-framework/arch/arm/cortex-m3/lpc1768/include/core_cm3.h ****   __IO uint32_t HFSR;                    /*!< Offset: 0x02C (R/W)  Hard Fault Status Register      
 251:./prime-framework/arch/arm/cortex-m3/lpc1768/include/core_cm3.h ****   __IO uint32_t DFSR;                    /*!< Offset: 0x030 (R/W)  Debug Fault Status Register     
 252:./prime-framework/arch/arm/cortex-m3/lpc1768/include/core_cm3.h ****   __IO uint32_t MMFAR;                   /*!< Offset: 0x034 (R/W)  Mem Manage Address Register     
 253:./prime-framework/arch/arm/cortex-m3/lpc1768/include/core_cm3.h ****   __IO uint32_t BFAR;                    /*!< Offset: 0x038 (R/W)  Bus Fault Address Register      
 254:./prime-framework/arch/arm/cortex-m3/lpc1768/include/core_cm3.h ****   __IO uint32_t AFSR;                    /*!< Offset: 0x03C (R/W)  Auxiliary Fault Status Register 
 255:./prime-framework/arch/arm/cortex-m3/lpc1768/include/core_cm3.h ****   __I  uint32_t PFR[2];                  /*!< Offset: 0x040 (R/ )  Processor Feature Register      
 256:./prime-framework/arch/arm/cortex-m3/lpc1768/include/core_cm3.h ****   __I  uint32_t DFR;                     /*!< Offset: 0x048 (R/ )  Debug Feature Register          
 257:./prime-framework/arch/arm/cortex-m3/lpc1768/include/core_cm3.h ****   __I  uint32_t ADR;                     /*!< Offset: 0x04C (R/ )  Auxiliary Feature Register      
 258:./prime-framework/arch/arm/cortex-m3/lpc1768/include/core_cm3.h ****   __I  uint32_t MMFR[4];                 /*!< Offset: 0x050 (R/ )  Memory Model Feature Register   
 259:./prime-framework/arch/arm/cortex-m3/lpc1768/include/core_cm3.h ****   __I  uint32_t ISAR[5];                 /*!< Offset: 0x060 (R/ )  ISA Feature Register            
 260:./prime-framework/arch/arm/cortex-m3/lpc1768/include/core_cm3.h **** } SCB_Type;
 261:./prime-framework/arch/arm/cortex-m3/lpc1768/include/core_cm3.h **** 
 262:./prime-framework/arch/arm/cortex-m3/lpc1768/include/core_cm3.h **** /* SCB CPUID Register Definitions */
 263:./prime-framework/arch/arm/cortex-m3/lpc1768/include/core_cm3.h **** #define SCB_CPUID_IMPLEMENTER_Pos          24                                             /*!< SCB 
 264:./prime-framework/arch/arm/cortex-m3/lpc1768/include/core_cm3.h **** #define SCB_CPUID_IMPLEMENTER_Msk          (0xFFUL << SCB_CPUID_IMPLEMENTER_Pos)          /*!< SCB 
 265:./prime-framework/arch/arm/cortex-m3/lpc1768/include/core_cm3.h **** 
 266:./prime-framework/arch/arm/cortex-m3/lpc1768/include/core_cm3.h **** #define SCB_CPUID_VARIANT_Pos              20                                             /*!< SCB 
 267:./prime-framework/arch/arm/cortex-m3/lpc1768/include/core_cm3.h **** #define SCB_CPUID_VARIANT_Msk              (0xFUL << SCB_CPUID_VARIANT_Pos)               /*!< SCB 
 268:./prime-framework/arch/arm/cortex-m3/lpc1768/include/core_cm3.h **** 
 269:./prime-framework/arch/arm/cortex-m3/lpc1768/include/core_cm3.h **** #define SCB_CPUID_PARTNO_Pos                4                                             /*!< SCB 
 270:./prime-framework/arch/arm/cortex-m3/lpc1768/include/core_cm3.h **** #define SCB_CPUID_PARTNO_Msk               (0xFFFUL << SCB_CPUID_PARTNO_Pos)              /*!< SCB 
 271:./prime-framework/arch/arm/cortex-m3/lpc1768/include/core_cm3.h **** 
 272:./prime-framework/arch/arm/cortex-m3/lpc1768/include/core_cm3.h **** #define SCB_CPUID_REVISION_Pos              0                                             /*!< SCB 
 273:./prime-framework/arch/arm/cortex-m3/lpc1768/include/core_cm3.h **** #define SCB_CPUID_REVISION_Msk             (0xFUL << SCB_CPUID_REVISION_Pos)              /*!< SCB 
 274:./prime-framework/arch/arm/cortex-m3/lpc1768/include/core_cm3.h **** 
 275:./prime-framework/arch/arm/cortex-m3/lpc1768/include/core_cm3.h **** /* SCB Interrupt Control State Register Definitions */
 276:./prime-framework/arch/arm/cortex-m3/lpc1768/include/core_cm3.h **** #define SCB_ICSR_NMIPENDSET_Pos            31                                             /*!< SCB 
 277:./prime-framework/arch/arm/cortex-m3/lpc1768/include/core_cm3.h **** #define SCB_ICSR_NMIPENDSET_Msk            (1UL << SCB_ICSR_NMIPENDSET_Pos)               /*!< SCB 
ARM GAS  C:\Users\Akil\AppData\Local\Temp\cc6kIPJ8.s 			page 7


 278:./prime-framework/arch/arm/cortex-m3/lpc1768/include/core_cm3.h **** 
 279:./prime-framework/arch/arm/cortex-m3/lpc1768/include/core_cm3.h **** #define SCB_ICSR_PENDSVSET_Pos             28                                             /*!< SCB 
 280:./prime-framework/arch/arm/cortex-m3/lpc1768/include/core_cm3.h **** #define SCB_ICSR_PENDSVSET_Msk             (1UL << SCB_ICSR_PENDSVSET_Pos)                /*!< SCB 
 281:./prime-framework/arch/arm/cortex-m3/lpc1768/include/core_cm3.h **** 
 282:./prime-framework/arch/arm/cortex-m3/lpc1768/include/core_cm3.h **** #define SCB_ICSR_PENDSVCLR_Pos             27                                             /*!< SCB 
 283:./prime-framework/arch/arm/cortex-m3/lpc1768/include/core_cm3.h **** #define SCB_ICSR_PENDSVCLR_Msk             (1UL << SCB_ICSR_PENDSVCLR_Pos)                /*!< SCB 
 284:./prime-framework/arch/arm/cortex-m3/lpc1768/include/core_cm3.h **** 
 285:./prime-framework/arch/arm/cortex-m3/lpc1768/include/core_cm3.h **** #define SCB_ICSR_PENDSTSET_Pos             26                                             /*!< SCB 
 286:./prime-framework/arch/arm/cortex-m3/lpc1768/include/core_cm3.h **** #define SCB_ICSR_PENDSTSET_Msk             (1UL << SCB_ICSR_PENDSTSET_Pos)                /*!< SCB 
 287:./prime-framework/arch/arm/cortex-m3/lpc1768/include/core_cm3.h **** 
 288:./prime-framework/arch/arm/cortex-m3/lpc1768/include/core_cm3.h **** #define SCB_ICSR_PENDSTCLR_Pos             25                                             /*!< SCB 
 289:./prime-framework/arch/arm/cortex-m3/lpc1768/include/core_cm3.h **** #define SCB_ICSR_PENDSTCLR_Msk             (1UL << SCB_ICSR_PENDSTCLR_Pos)                /*!< SCB 
 290:./prime-framework/arch/arm/cortex-m3/lpc1768/include/core_cm3.h **** 
 291:./prime-framework/arch/arm/cortex-m3/lpc1768/include/core_cm3.h **** #define SCB_ICSR_ISRPREEMPT_Pos            23                                             /*!< SCB 
 292:./prime-framework/arch/arm/cortex-m3/lpc1768/include/core_cm3.h **** #define SCB_ICSR_ISRPREEMPT_Msk            (1UL << SCB_ICSR_ISRPREEMPT_Pos)               /*!< SCB 
 293:./prime-framework/arch/arm/cortex-m3/lpc1768/include/core_cm3.h **** 
 294:./prime-framework/arch/arm/cortex-m3/lpc1768/include/core_cm3.h **** #define SCB_ICSR_ISRPENDING_Pos            22                                             /*!< SCB 
 295:./prime-framework/arch/arm/cortex-m3/lpc1768/include/core_cm3.h **** #define SCB_ICSR_ISRPENDING_Msk            (1UL << SCB_ICSR_ISRPENDING_Pos)               /*!< SCB 
 296:./prime-framework/arch/arm/cortex-m3/lpc1768/include/core_cm3.h **** 
 297:./prime-framework/arch/arm/cortex-m3/lpc1768/include/core_cm3.h **** #define SCB_ICSR_VECTPENDING_Pos           12                                             /*!< SCB 
 298:./prime-framework/arch/arm/cortex-m3/lpc1768/include/core_cm3.h **** #define SCB_ICSR_VECTPENDING_Msk           (0x1FFUL << SCB_ICSR_VECTPENDING_Pos)          /*!< SCB 
 299:./prime-framework/arch/arm/cortex-m3/lpc1768/include/core_cm3.h **** 
 300:./prime-framework/arch/arm/cortex-m3/lpc1768/include/core_cm3.h **** #define SCB_ICSR_RETTOBASE_Pos             11                                             /*!< SCB 
 301:./prime-framework/arch/arm/cortex-m3/lpc1768/include/core_cm3.h **** #define SCB_ICSR_RETTOBASE_Msk             (1UL << SCB_ICSR_RETTOBASE_Pos)                /*!< SCB 
 302:./prime-framework/arch/arm/cortex-m3/lpc1768/include/core_cm3.h **** 
 303:./prime-framework/arch/arm/cortex-m3/lpc1768/include/core_cm3.h **** #define SCB_ICSR_VECTACTIVE_Pos             0                                             /*!< SCB 
 304:./prime-framework/arch/arm/cortex-m3/lpc1768/include/core_cm3.h **** #define SCB_ICSR_VECTACTIVE_Msk            (0x1FFUL << SCB_ICSR_VECTACTIVE_Pos)           /*!< SCB 
 305:./prime-framework/arch/arm/cortex-m3/lpc1768/include/core_cm3.h **** 
 306:./prime-framework/arch/arm/cortex-m3/lpc1768/include/core_cm3.h **** /* SCB Interrupt Control State Register Definitions */
 307:./prime-framework/arch/arm/cortex-m3/lpc1768/include/core_cm3.h **** #define SCB_VTOR_TBLBASE_Pos               29                                             /*!< SCB 
 308:./prime-framework/arch/arm/cortex-m3/lpc1768/include/core_cm3.h **** #define SCB_VTOR_TBLBASE_Msk               (1UL << SCB_VTOR_TBLBASE_Pos)                  /*!< SCB 
 309:./prime-framework/arch/arm/cortex-m3/lpc1768/include/core_cm3.h **** 
 310:./prime-framework/arch/arm/cortex-m3/lpc1768/include/core_cm3.h **** #define SCB_VTOR_TBLOFF_Pos                 7                                             /*!< SCB 
 311:./prime-framework/arch/arm/cortex-m3/lpc1768/include/core_cm3.h **** #define SCB_VTOR_TBLOFF_Msk                (0x3FFFFFUL << SCB_VTOR_TBLOFF_Pos)            /*!< SCB 
 312:./prime-framework/arch/arm/cortex-m3/lpc1768/include/core_cm3.h **** 
 313:./prime-framework/arch/arm/cortex-m3/lpc1768/include/core_cm3.h **** /* SCB Application Interrupt and Reset Control Register Definitions */
 314:./prime-framework/arch/arm/cortex-m3/lpc1768/include/core_cm3.h **** #define SCB_AIRCR_VECTKEY_Pos              16                                             /*!< SCB 
 315:./prime-framework/arch/arm/cortex-m3/lpc1768/include/core_cm3.h **** #define SCB_AIRCR_VECTKEY_Msk              (0xFFFFUL << SCB_AIRCR_VECTKEY_Pos)            /*!< SCB 
 316:./prime-framework/arch/arm/cortex-m3/lpc1768/include/core_cm3.h **** 
 317:./prime-framework/arch/arm/cortex-m3/lpc1768/include/core_cm3.h **** #define SCB_AIRCR_VECTKEYSTAT_Pos          16                                             /*!< SCB 
 318:./prime-framework/arch/arm/cortex-m3/lpc1768/include/core_cm3.h **** #define SCB_AIRCR_VECTKEYSTAT_Msk          (0xFFFFUL << SCB_AIRCR_VECTKEYSTAT_Pos)        /*!< SCB 
 319:./prime-framework/arch/arm/cortex-m3/lpc1768/include/core_cm3.h **** 
 320:./prime-framework/arch/arm/cortex-m3/lpc1768/include/core_cm3.h **** #define SCB_AIRCR_ENDIANESS_Pos            15                                             /*!< SCB 
 321:./prime-framework/arch/arm/cortex-m3/lpc1768/include/core_cm3.h **** #define SCB_AIRCR_ENDIANESS_Msk            (1UL << SCB_AIRCR_ENDIANESS_Pos)               /*!< SCB 
 322:./prime-framework/arch/arm/cortex-m3/lpc1768/include/core_cm3.h **** 
 323:./prime-framework/arch/arm/cortex-m3/lpc1768/include/core_cm3.h **** #define SCB_AIRCR_PRIGROUP_Pos              8                                             /*!< SCB 
 324:./prime-framework/arch/arm/cortex-m3/lpc1768/include/core_cm3.h **** #define SCB_AIRCR_PRIGROUP_Msk             (7UL << SCB_AIRCR_PRIGROUP_Pos)                /*!< SCB 
 325:./prime-framework/arch/arm/cortex-m3/lpc1768/include/core_cm3.h **** 
 326:./prime-framework/arch/arm/cortex-m3/lpc1768/include/core_cm3.h **** #define SCB_AIRCR_SYSRESETREQ_Pos           2                                             /*!< SCB 
 327:./prime-framework/arch/arm/cortex-m3/lpc1768/include/core_cm3.h **** #define SCB_AIRCR_SYSRESETREQ_Msk          (1UL << SCB_AIRCR_SYSRESETREQ_Pos)             /*!< SCB 
 328:./prime-framework/arch/arm/cortex-m3/lpc1768/include/core_cm3.h **** 
 329:./prime-framework/arch/arm/cortex-m3/lpc1768/include/core_cm3.h **** #define SCB_AIRCR_VECTCLRACTIVE_Pos         1                                             /*!< SCB 
 330:./prime-framework/arch/arm/cortex-m3/lpc1768/include/core_cm3.h **** #define SCB_AIRCR_VECTCLRACTIVE_Msk        (1UL << SCB_AIRCR_VECTCLRACTIVE_Pos)           /*!< SCB 
 331:./prime-framework/arch/arm/cortex-m3/lpc1768/include/core_cm3.h **** 
 332:./prime-framework/arch/arm/cortex-m3/lpc1768/include/core_cm3.h **** #define SCB_AIRCR_VECTRESET_Pos             0                                             /*!< SCB 
 333:./prime-framework/arch/arm/cortex-m3/lpc1768/include/core_cm3.h **** #define SCB_AIRCR_VECTRESET_Msk            (1UL << SCB_AIRCR_VECTRESET_Pos)               /*!< SCB 
 334:./prime-framework/arch/arm/cortex-m3/lpc1768/include/core_cm3.h **** 
ARM GAS  C:\Users\Akil\AppData\Local\Temp\cc6kIPJ8.s 			page 8


 335:./prime-framework/arch/arm/cortex-m3/lpc1768/include/core_cm3.h **** /* SCB System Control Register Definitions */
 336:./prime-framework/arch/arm/cortex-m3/lpc1768/include/core_cm3.h **** #define SCB_SCR_SEVONPEND_Pos               4                                             /*!< SCB 
 337:./prime-framework/arch/arm/cortex-m3/lpc1768/include/core_cm3.h **** #define SCB_SCR_SEVONPEND_Msk              (1UL << SCB_SCR_SEVONPEND_Pos)                 /*!< SCB 
 338:./prime-framework/arch/arm/cortex-m3/lpc1768/include/core_cm3.h **** 
 339:./prime-framework/arch/arm/cortex-m3/lpc1768/include/core_cm3.h **** #define SCB_SCR_SLEEPDEEP_Pos               2                                             /*!< SCB 
 340:./prime-framework/arch/arm/cortex-m3/lpc1768/include/core_cm3.h **** #define SCB_SCR_SLEEPDEEP_Msk              (1UL << SCB_SCR_SLEEPDEEP_Pos)                 /*!< SCB 
 341:./prime-framework/arch/arm/cortex-m3/lpc1768/include/core_cm3.h **** 
 342:./prime-framework/arch/arm/cortex-m3/lpc1768/include/core_cm3.h **** #define SCB_SCR_SLEEPONEXIT_Pos             1                                             /*!< SCB 
 343:./prime-framework/arch/arm/cortex-m3/lpc1768/include/core_cm3.h **** #define SCB_SCR_SLEEPONEXIT_Msk            (1UL << SCB_SCR_SLEEPONEXIT_Pos)               /*!< SCB 
 344:./prime-framework/arch/arm/cortex-m3/lpc1768/include/core_cm3.h **** 
 345:./prime-framework/arch/arm/cortex-m3/lpc1768/include/core_cm3.h **** /* SCB Configuration Control Register Definitions */
 346:./prime-framework/arch/arm/cortex-m3/lpc1768/include/core_cm3.h **** #define SCB_CCR_STKALIGN_Pos                9                                             /*!< SCB 
 347:./prime-framework/arch/arm/cortex-m3/lpc1768/include/core_cm3.h **** #define SCB_CCR_STKALIGN_Msk               (1UL << SCB_CCR_STKALIGN_Pos)                  /*!< SCB 
 348:./prime-framework/arch/arm/cortex-m3/lpc1768/include/core_cm3.h **** 
 349:./prime-framework/arch/arm/cortex-m3/lpc1768/include/core_cm3.h **** #define SCB_CCR_BFHFNMIGN_Pos               8                                             /*!< SCB 
 350:./prime-framework/arch/arm/cortex-m3/lpc1768/include/core_cm3.h **** #define SCB_CCR_BFHFNMIGN_Msk              (1UL << SCB_CCR_BFHFNMIGN_Pos)                 /*!< SCB 
 351:./prime-framework/arch/arm/cortex-m3/lpc1768/include/core_cm3.h **** 
 352:./prime-framework/arch/arm/cortex-m3/lpc1768/include/core_cm3.h **** #define SCB_CCR_DIV_0_TRP_Pos               4                                             /*!< SCB 
 353:./prime-framework/arch/arm/cortex-m3/lpc1768/include/core_cm3.h **** #define SCB_CCR_DIV_0_TRP_Msk              (1UL << SCB_CCR_DIV_0_TRP_Pos)                 /*!< SCB 
 354:./prime-framework/arch/arm/cortex-m3/lpc1768/include/core_cm3.h **** 
 355:./prime-framework/arch/arm/cortex-m3/lpc1768/include/core_cm3.h **** #define SCB_CCR_UNALIGN_TRP_Pos             3                                             /*!< SCB 
 356:./prime-framework/arch/arm/cortex-m3/lpc1768/include/core_cm3.h **** #define SCB_CCR_UNALIGN_TRP_Msk            (1UL << SCB_CCR_UNALIGN_TRP_Pos)               /*!< SCB 
 357:./prime-framework/arch/arm/cortex-m3/lpc1768/include/core_cm3.h **** 
 358:./prime-framework/arch/arm/cortex-m3/lpc1768/include/core_cm3.h **** #define SCB_CCR_USERSETMPEND_Pos            1                                             /*!< SCB 
 359:./prime-framework/arch/arm/cortex-m3/lpc1768/include/core_cm3.h **** #define SCB_CCR_USERSETMPEND_Msk           (1UL << SCB_CCR_USERSETMPEND_Pos)              /*!< SCB 
 360:./prime-framework/arch/arm/cortex-m3/lpc1768/include/core_cm3.h **** 
 361:./prime-framework/arch/arm/cortex-m3/lpc1768/include/core_cm3.h **** #define SCB_CCR_NONBASETHRDENA_Pos          0                                             /*!< SCB 
 362:./prime-framework/arch/arm/cortex-m3/lpc1768/include/core_cm3.h **** #define SCB_CCR_NONBASETHRDENA_Msk         (1UL << SCB_CCR_NONBASETHRDENA_Pos)            /*!< SCB 
 363:./prime-framework/arch/arm/cortex-m3/lpc1768/include/core_cm3.h **** 
 364:./prime-framework/arch/arm/cortex-m3/lpc1768/include/core_cm3.h **** /* SCB System Handler Control and State Register Definitions */
 365:./prime-framework/arch/arm/cortex-m3/lpc1768/include/core_cm3.h **** #define SCB_SHCSR_USGFAULTENA_Pos          18                                             /*!< SCB 
 366:./prime-framework/arch/arm/cortex-m3/lpc1768/include/core_cm3.h **** #define SCB_SHCSR_USGFAULTENA_Msk          (1UL << SCB_SHCSR_USGFAULTENA_Pos)             /*!< SCB 
 367:./prime-framework/arch/arm/cortex-m3/lpc1768/include/core_cm3.h **** 
 368:./prime-framework/arch/arm/cortex-m3/lpc1768/include/core_cm3.h **** #define SCB_SHCSR_BUSFAULTENA_Pos          17                                             /*!< SCB 
 369:./prime-framework/arch/arm/cortex-m3/lpc1768/include/core_cm3.h **** #define SCB_SHCSR_BUSFAULTENA_Msk          (1UL << SCB_SHCSR_BUSFAULTENA_Pos)             /*!< SCB 
 370:./prime-framework/arch/arm/cortex-m3/lpc1768/include/core_cm3.h **** 
 371:./prime-framework/arch/arm/cortex-m3/lpc1768/include/core_cm3.h **** #define SCB_SHCSR_MEMFAULTENA_Pos          16                                             /*!< SCB 
 372:./prime-framework/arch/arm/cortex-m3/lpc1768/include/core_cm3.h **** #define SCB_SHCSR_MEMFAULTENA_Msk          (1UL << SCB_SHCSR_MEMFAULTENA_Pos)             /*!< SCB 
 373:./prime-framework/arch/arm/cortex-m3/lpc1768/include/core_cm3.h **** 
 374:./prime-framework/arch/arm/cortex-m3/lpc1768/include/core_cm3.h **** #define SCB_SHCSR_SVCALLPENDED_Pos         15                                             /*!< SCB 
 375:./prime-framework/arch/arm/cortex-m3/lpc1768/include/core_cm3.h **** #define SCB_SHCSR_SVCALLPENDED_Msk         (1UL << SCB_SHCSR_SVCALLPENDED_Pos)            /*!< SCB 
 376:./prime-framework/arch/arm/cortex-m3/lpc1768/include/core_cm3.h **** 
 377:./prime-framework/arch/arm/cortex-m3/lpc1768/include/core_cm3.h **** #define SCB_SHCSR_BUSFAULTPENDED_Pos       14                                             /*!< SCB 
 378:./prime-framework/arch/arm/cortex-m3/lpc1768/include/core_cm3.h **** #define SCB_SHCSR_BUSFAULTPENDED_Msk       (1UL << SCB_SHCSR_BUSFAULTPENDED_Pos)          /*!< SCB 
 379:./prime-framework/arch/arm/cortex-m3/lpc1768/include/core_cm3.h **** 
 380:./prime-framework/arch/arm/cortex-m3/lpc1768/include/core_cm3.h **** #define SCB_SHCSR_MEMFAULTPENDED_Pos       13                                             /*!< SCB 
 381:./prime-framework/arch/arm/cortex-m3/lpc1768/include/core_cm3.h **** #define SCB_SHCSR_MEMFAULTPENDED_Msk       (1UL << SCB_SHCSR_MEMFAULTPENDED_Pos)          /*!< SCB 
 382:./prime-framework/arch/arm/cortex-m3/lpc1768/include/core_cm3.h **** 
 383:./prime-framework/arch/arm/cortex-m3/lpc1768/include/core_cm3.h **** #define SCB_SHCSR_USGFAULTPENDED_Pos       12                                             /*!< SCB 
 384:./prime-framework/arch/arm/cortex-m3/lpc1768/include/core_cm3.h **** #define SCB_SHCSR_USGFAULTPENDED_Msk       (1UL << SCB_SHCSR_USGFAULTPENDED_Pos)          /*!< SCB 
 385:./prime-framework/arch/arm/cortex-m3/lpc1768/include/core_cm3.h **** 
 386:./prime-framework/arch/arm/cortex-m3/lpc1768/include/core_cm3.h **** #define SCB_SHCSR_SYSTICKACT_Pos           11                                             /*!< SCB 
 387:./prime-framework/arch/arm/cortex-m3/lpc1768/include/core_cm3.h **** #define SCB_SHCSR_SYSTICKACT_Msk           (1UL << SCB_SHCSR_SYSTICKACT_Pos)              /*!< SCB 
 388:./prime-framework/arch/arm/cortex-m3/lpc1768/include/core_cm3.h **** 
 389:./prime-framework/arch/arm/cortex-m3/lpc1768/include/core_cm3.h **** #define SCB_SHCSR_PENDSVACT_Pos            10                                             /*!< SCB 
 390:./prime-framework/arch/arm/cortex-m3/lpc1768/include/core_cm3.h **** #define SCB_SHCSR_PENDSVACT_Msk            (1UL << SCB_SHCSR_PENDSVACT_Pos)               /*!< SCB 
 391:./prime-framework/arch/arm/cortex-m3/lpc1768/include/core_cm3.h **** 
ARM GAS  C:\Users\Akil\AppData\Local\Temp\cc6kIPJ8.s 			page 9


 392:./prime-framework/arch/arm/cortex-m3/lpc1768/include/core_cm3.h **** #define SCB_SHCSR_MONITORACT_Pos            8                                             /*!< SCB 
 393:./prime-framework/arch/arm/cortex-m3/lpc1768/include/core_cm3.h **** #define SCB_SHCSR_MONITORACT_Msk           (1UL << SCB_SHCSR_MONITORACT_Pos)              /*!< SCB 
 394:./prime-framework/arch/arm/cortex-m3/lpc1768/include/core_cm3.h **** 
 395:./prime-framework/arch/arm/cortex-m3/lpc1768/include/core_cm3.h **** #define SCB_SHCSR_SVCALLACT_Pos             7                                             /*!< SCB 
 396:./prime-framework/arch/arm/cortex-m3/lpc1768/include/core_cm3.h **** #define SCB_SHCSR_SVCALLACT_Msk            (1UL << SCB_SHCSR_SVCALLACT_Pos)               /*!< SCB 
 397:./prime-framework/arch/arm/cortex-m3/lpc1768/include/core_cm3.h **** 
 398:./prime-framework/arch/arm/cortex-m3/lpc1768/include/core_cm3.h **** #define SCB_SHCSR_USGFAULTACT_Pos           3                                             /*!< SCB 
 399:./prime-framework/arch/arm/cortex-m3/lpc1768/include/core_cm3.h **** #define SCB_SHCSR_USGFAULTACT_Msk          (1UL << SCB_SHCSR_USGFAULTACT_Pos)             /*!< SCB 
 400:./prime-framework/arch/arm/cortex-m3/lpc1768/include/core_cm3.h **** 
 401:./prime-framework/arch/arm/cortex-m3/lpc1768/include/core_cm3.h **** #define SCB_SHCSR_BUSFAULTACT_Pos           1                                             /*!< SCB 
 402:./prime-framework/arch/arm/cortex-m3/lpc1768/include/core_cm3.h **** #define SCB_SHCSR_BUSFAULTACT_Msk          (1UL << SCB_SHCSR_BUSFAULTACT_Pos)             /*!< SCB 
 403:./prime-framework/arch/arm/cortex-m3/lpc1768/include/core_cm3.h **** 
 404:./prime-framework/arch/arm/cortex-m3/lpc1768/include/core_cm3.h **** #define SCB_SHCSR_MEMFAULTACT_Pos           0                                             /*!< SCB 
 405:./prime-framework/arch/arm/cortex-m3/lpc1768/include/core_cm3.h **** #define SCB_SHCSR_MEMFAULTACT_Msk          (1UL << SCB_SHCSR_MEMFAULTACT_Pos)             /*!< SCB 
 406:./prime-framework/arch/arm/cortex-m3/lpc1768/include/core_cm3.h **** 
 407:./prime-framework/arch/arm/cortex-m3/lpc1768/include/core_cm3.h **** /* SCB Configurable Fault Status Registers Definitions */
 408:./prime-framework/arch/arm/cortex-m3/lpc1768/include/core_cm3.h **** #define SCB_CFSR_USGFAULTSR_Pos            16                                             /*!< SCB 
 409:./prime-framework/arch/arm/cortex-m3/lpc1768/include/core_cm3.h **** #define SCB_CFSR_USGFAULTSR_Msk            (0xFFFFUL << SCB_CFSR_USGFAULTSR_Pos)          /*!< SCB 
 410:./prime-framework/arch/arm/cortex-m3/lpc1768/include/core_cm3.h **** 
 411:./prime-framework/arch/arm/cortex-m3/lpc1768/include/core_cm3.h **** #define SCB_CFSR_BUSFAULTSR_Pos             8                                             /*!< SCB 
 412:./prime-framework/arch/arm/cortex-m3/lpc1768/include/core_cm3.h **** #define SCB_CFSR_BUSFAULTSR_Msk            (0xFFUL << SCB_CFSR_BUSFAULTSR_Pos)            /*!< SCB 
 413:./prime-framework/arch/arm/cortex-m3/lpc1768/include/core_cm3.h **** 
 414:./prime-framework/arch/arm/cortex-m3/lpc1768/include/core_cm3.h **** #define SCB_CFSR_MEMFAULTSR_Pos             0                                             /*!< SCB 
 415:./prime-framework/arch/arm/cortex-m3/lpc1768/include/core_cm3.h **** #define SCB_CFSR_MEMFAULTSR_Msk            (0xFFUL << SCB_CFSR_MEMFAULTSR_Pos)            /*!< SCB 
 416:./prime-framework/arch/arm/cortex-m3/lpc1768/include/core_cm3.h **** 
 417:./prime-framework/arch/arm/cortex-m3/lpc1768/include/core_cm3.h **** /* SCB Hard Fault Status Registers Definitions */
 418:./prime-framework/arch/arm/cortex-m3/lpc1768/include/core_cm3.h **** #define SCB_HFSR_DEBUGEVT_Pos              31                                             /*!< SCB 
 419:./prime-framework/arch/arm/cortex-m3/lpc1768/include/core_cm3.h **** #define SCB_HFSR_DEBUGEVT_Msk              (1UL << SCB_HFSR_DEBUGEVT_Pos)                 /*!< SCB 
 420:./prime-framework/arch/arm/cortex-m3/lpc1768/include/core_cm3.h **** 
 421:./prime-framework/arch/arm/cortex-m3/lpc1768/include/core_cm3.h **** #define SCB_HFSR_FORCED_Pos                30                                             /*!< SCB 
 422:./prime-framework/arch/arm/cortex-m3/lpc1768/include/core_cm3.h **** #define SCB_HFSR_FORCED_Msk                (1UL << SCB_HFSR_FORCED_Pos)                   /*!< SCB 
 423:./prime-framework/arch/arm/cortex-m3/lpc1768/include/core_cm3.h **** 
 424:./prime-framework/arch/arm/cortex-m3/lpc1768/include/core_cm3.h **** #define SCB_HFSR_VECTTBL_Pos                1                                             /*!< SCB 
 425:./prime-framework/arch/arm/cortex-m3/lpc1768/include/core_cm3.h **** #define SCB_HFSR_VECTTBL_Msk               (1UL << SCB_HFSR_VECTTBL_Pos)                  /*!< SCB 
 426:./prime-framework/arch/arm/cortex-m3/lpc1768/include/core_cm3.h **** 
 427:./prime-framework/arch/arm/cortex-m3/lpc1768/include/core_cm3.h **** /* SCB Debug Fault Status Register Definitions */
 428:./prime-framework/arch/arm/cortex-m3/lpc1768/include/core_cm3.h **** #define SCB_DFSR_EXTERNAL_Pos               4                                             /*!< SCB 
 429:./prime-framework/arch/arm/cortex-m3/lpc1768/include/core_cm3.h **** #define SCB_DFSR_EXTERNAL_Msk              (1UL << SCB_DFSR_EXTERNAL_Pos)                 /*!< SCB 
 430:./prime-framework/arch/arm/cortex-m3/lpc1768/include/core_cm3.h **** 
 431:./prime-framework/arch/arm/cortex-m3/lpc1768/include/core_cm3.h **** #define SCB_DFSR_VCATCH_Pos                 3                                             /*!< SCB 
 432:./prime-framework/arch/arm/cortex-m3/lpc1768/include/core_cm3.h **** #define SCB_DFSR_VCATCH_Msk                (1UL << SCB_DFSR_VCATCH_Pos)                   /*!< SCB 
 433:./prime-framework/arch/arm/cortex-m3/lpc1768/include/core_cm3.h **** 
 434:./prime-framework/arch/arm/cortex-m3/lpc1768/include/core_cm3.h **** #define SCB_DFSR_DWTTRAP_Pos                2                                             /*!< SCB 
 435:./prime-framework/arch/arm/cortex-m3/lpc1768/include/core_cm3.h **** #define SCB_DFSR_DWTTRAP_Msk               (1UL << SCB_DFSR_DWTTRAP_Pos)                  /*!< SCB 
 436:./prime-framework/arch/arm/cortex-m3/lpc1768/include/core_cm3.h **** 
 437:./prime-framework/arch/arm/cortex-m3/lpc1768/include/core_cm3.h **** #define SCB_DFSR_BKPT_Pos                   1                                             /*!< SCB 
 438:./prime-framework/arch/arm/cortex-m3/lpc1768/include/core_cm3.h **** #define SCB_DFSR_BKPT_Msk                  (1UL << SCB_DFSR_BKPT_Pos)                     /*!< SCB 
 439:./prime-framework/arch/arm/cortex-m3/lpc1768/include/core_cm3.h **** 
 440:./prime-framework/arch/arm/cortex-m3/lpc1768/include/core_cm3.h **** #define SCB_DFSR_HALTED_Pos                 0                                             /*!< SCB 
 441:./prime-framework/arch/arm/cortex-m3/lpc1768/include/core_cm3.h **** #define SCB_DFSR_HALTED_Msk                (1UL << SCB_DFSR_HALTED_Pos)                   /*!< SCB 
 442:./prime-framework/arch/arm/cortex-m3/lpc1768/include/core_cm3.h **** 
 443:./prime-framework/arch/arm/cortex-m3/lpc1768/include/core_cm3.h **** /*@} end of group CMSIS_SCB */
 444:./prime-framework/arch/arm/cortex-m3/lpc1768/include/core_cm3.h **** 
 445:./prime-framework/arch/arm/cortex-m3/lpc1768/include/core_cm3.h **** 
 446:./prime-framework/arch/arm/cortex-m3/lpc1768/include/core_cm3.h **** /** \ingroup  CMSIS_core_register
 447:./prime-framework/arch/arm/cortex-m3/lpc1768/include/core_cm3.h ****     \defgroup CMSIS_SysTick CMSIS SysTick
 448:./prime-framework/arch/arm/cortex-m3/lpc1768/include/core_cm3.h ****   Type definitions for the Cortex-M System Timer Registers
ARM GAS  C:\Users\Akil\AppData\Local\Temp\cc6kIPJ8.s 			page 10


 449:./prime-framework/arch/arm/cortex-m3/lpc1768/include/core_cm3.h ****   @{
 450:./prime-framework/arch/arm/cortex-m3/lpc1768/include/core_cm3.h ****  */
 451:./prime-framework/arch/arm/cortex-m3/lpc1768/include/core_cm3.h **** 
 452:./prime-framework/arch/arm/cortex-m3/lpc1768/include/core_cm3.h **** /** \brief  Structure type to access the System Timer (SysTick).
 453:./prime-framework/arch/arm/cortex-m3/lpc1768/include/core_cm3.h ****  */
 454:./prime-framework/arch/arm/cortex-m3/lpc1768/include/core_cm3.h **** typedef struct
 455:./prime-framework/arch/arm/cortex-m3/lpc1768/include/core_cm3.h **** {
 456:./prime-framework/arch/arm/cortex-m3/lpc1768/include/core_cm3.h ****   __IO uint32_t CTRL;                    /*!< Offset: 0x000 (R/W)  SysTick Control and Status Regis
 457:./prime-framework/arch/arm/cortex-m3/lpc1768/include/core_cm3.h ****   __IO uint32_t LOAD;                    /*!< Offset: 0x004 (R/W)  SysTick Reload Value Register   
 458:./prime-framework/arch/arm/cortex-m3/lpc1768/include/core_cm3.h ****   __IO uint32_t VAL;                     /*!< Offset: 0x008 (R/W)  SysTick Current Value Register  
 459:./prime-framework/arch/arm/cortex-m3/lpc1768/include/core_cm3.h ****   __I  uint32_t CALIB;                   /*!< Offset: 0x00C (R/ )  SysTick Calibration Register    
 460:./prime-framework/arch/arm/cortex-m3/lpc1768/include/core_cm3.h **** } SysTick_Type;
 461:./prime-framework/arch/arm/cortex-m3/lpc1768/include/core_cm3.h **** 
 462:./prime-framework/arch/arm/cortex-m3/lpc1768/include/core_cm3.h **** /* SysTick Control / Status Register Definitions */
 463:./prime-framework/arch/arm/cortex-m3/lpc1768/include/core_cm3.h **** #define SysTick_CTRL_COUNTFLAG_Pos         16                                             /*!< SysT
 464:./prime-framework/arch/arm/cortex-m3/lpc1768/include/core_cm3.h **** #define SysTick_CTRL_COUNTFLAG_Msk         (1UL << SysTick_CTRL_COUNTFLAG_Pos)            /*!< SysT
 465:./prime-framework/arch/arm/cortex-m3/lpc1768/include/core_cm3.h **** 
 466:./prime-framework/arch/arm/cortex-m3/lpc1768/include/core_cm3.h **** #define SysTick_CTRL_CLKSOURCE_Pos          2                                             /*!< SysT
 467:./prime-framework/arch/arm/cortex-m3/lpc1768/include/core_cm3.h **** #define SysTick_CTRL_CLKSOURCE_Msk         (1UL << SysTick_CTRL_CLKSOURCE_Pos)            /*!< SysT
 468:./prime-framework/arch/arm/cortex-m3/lpc1768/include/core_cm3.h **** 
 469:./prime-framework/arch/arm/cortex-m3/lpc1768/include/core_cm3.h **** #define SysTick_CTRL_TICKINT_Pos            1                                             /*!< SysT
 470:./prime-framework/arch/arm/cortex-m3/lpc1768/include/core_cm3.h **** #define SysTick_CTRL_TICKINT_Msk           (1UL << SysTick_CTRL_TICKINT_Pos)              /*!< SysT
 471:./prime-framework/arch/arm/cortex-m3/lpc1768/include/core_cm3.h **** 
 472:./prime-framework/arch/arm/cortex-m3/lpc1768/include/core_cm3.h **** #define SysTick_CTRL_ENABLE_Pos             0                                             /*!< SysT
 473:./prime-framework/arch/arm/cortex-m3/lpc1768/include/core_cm3.h **** #define SysTick_CTRL_ENABLE_Msk            (1UL << SysTick_CTRL_ENABLE_Pos)               /*!< SysT
 474:./prime-framework/arch/arm/cortex-m3/lpc1768/include/core_cm3.h **** 
 475:./prime-framework/arch/arm/cortex-m3/lpc1768/include/core_cm3.h **** /* SysTick Reload Register Definitions */
 476:./prime-framework/arch/arm/cortex-m3/lpc1768/include/core_cm3.h **** #define SysTick_LOAD_RELOAD_Pos             0                                             /*!< SysT
 477:./prime-framework/arch/arm/cortex-m3/lpc1768/include/core_cm3.h **** #define SysTick_LOAD_RELOAD_Msk            (0xFFFFFFUL << SysTick_LOAD_RELOAD_Pos)        /*!< SysT
 478:./prime-framework/arch/arm/cortex-m3/lpc1768/include/core_cm3.h **** 
 479:./prime-framework/arch/arm/cortex-m3/lpc1768/include/core_cm3.h **** /* SysTick Current Register Definitions */
 480:./prime-framework/arch/arm/cortex-m3/lpc1768/include/core_cm3.h **** #define SysTick_VAL_CURRENT_Pos             0                                             /*!< SysT
 481:./prime-framework/arch/arm/cortex-m3/lpc1768/include/core_cm3.h **** #define SysTick_VAL_CURRENT_Msk            (0xFFFFFFUL << SysTick_VAL_CURRENT_Pos)        /*!< SysT
 482:./prime-framework/arch/arm/cortex-m3/lpc1768/include/core_cm3.h **** 
 483:./prime-framework/arch/arm/cortex-m3/lpc1768/include/core_cm3.h **** /* SysTick Calibration Register Definitions */
 484:./prime-framework/arch/arm/cortex-m3/lpc1768/include/core_cm3.h **** #define SysTick_CALIB_NOREF_Pos            31                                             /*!< SysT
 485:./prime-framework/arch/arm/cortex-m3/lpc1768/include/core_cm3.h **** #define SysTick_CALIB_NOREF_Msk            (1UL << SysTick_CALIB_NOREF_Pos)               /*!< SysT
 486:./prime-framework/arch/arm/cortex-m3/lpc1768/include/core_cm3.h **** 
 487:./prime-framework/arch/arm/cortex-m3/lpc1768/include/core_cm3.h **** #define SysTick_CALIB_SKEW_Pos             30                                             /*!< SysT
 488:./prime-framework/arch/arm/cortex-m3/lpc1768/include/core_cm3.h **** #define SysTick_CALIB_SKEW_Msk             (1UL << SysTick_CALIB_SKEW_Pos)                /*!< SysT
 489:./prime-framework/arch/arm/cortex-m3/lpc1768/include/core_cm3.h **** 
 490:./prime-framework/arch/arm/cortex-m3/lpc1768/include/core_cm3.h **** #define SysTick_CALIB_TENMS_Pos             0                                             /*!< SysT
 491:./prime-framework/arch/arm/cortex-m3/lpc1768/include/core_cm3.h **** #define SysTick_CALIB_TENMS_Msk            (0xFFFFFFUL << SysTick_VAL_CURRENT_Pos)        /*!< SysT
 492:./prime-framework/arch/arm/cortex-m3/lpc1768/include/core_cm3.h **** 
 493:./prime-framework/arch/arm/cortex-m3/lpc1768/include/core_cm3.h **** /*@} end of group CMSIS_SysTick */
 494:./prime-framework/arch/arm/cortex-m3/lpc1768/include/core_cm3.h **** 
 495:./prime-framework/arch/arm/cortex-m3/lpc1768/include/core_cm3.h **** 
 496:./prime-framework/arch/arm/cortex-m3/lpc1768/include/core_cm3.h **** /** \ingroup  CMSIS_core_register
 497:./prime-framework/arch/arm/cortex-m3/lpc1768/include/core_cm3.h ****     \defgroup CMSIS_ITM CMSIS ITM
 498:./prime-framework/arch/arm/cortex-m3/lpc1768/include/core_cm3.h ****   Type definitions for the Cortex-M Instrumentation Trace Macrocell (ITM)
 499:./prime-framework/arch/arm/cortex-m3/lpc1768/include/core_cm3.h ****   @{
 500:./prime-framework/arch/arm/cortex-m3/lpc1768/include/core_cm3.h ****  */
 501:./prime-framework/arch/arm/cortex-m3/lpc1768/include/core_cm3.h **** 
 502:./prime-framework/arch/arm/cortex-m3/lpc1768/include/core_cm3.h **** /** \brief  Structure type to access the Instrumentation Trace Macrocell Register (ITM).
 503:./prime-framework/arch/arm/cortex-m3/lpc1768/include/core_cm3.h ****  */
 504:./prime-framework/arch/arm/cortex-m3/lpc1768/include/core_cm3.h **** typedef struct
 505:./prime-framework/arch/arm/cortex-m3/lpc1768/include/core_cm3.h **** {
ARM GAS  C:\Users\Akil\AppData\Local\Temp\cc6kIPJ8.s 			page 11


 506:./prime-framework/arch/arm/cortex-m3/lpc1768/include/core_cm3.h ****   __O  union
 507:./prime-framework/arch/arm/cortex-m3/lpc1768/include/core_cm3.h ****   {
 508:./prime-framework/arch/arm/cortex-m3/lpc1768/include/core_cm3.h ****     __O  uint8_t    u8;                  /*!< Offset: 0x000 ( /W)  ITM Stimulus Port 8-bit         
 509:./prime-framework/arch/arm/cortex-m3/lpc1768/include/core_cm3.h ****     __O  uint16_t   u16;                 /*!< Offset: 0x000 ( /W)  ITM Stimulus Port 16-bit        
 510:./prime-framework/arch/arm/cortex-m3/lpc1768/include/core_cm3.h ****     __O  uint32_t   u32;                 /*!< Offset: 0x000 ( /W)  ITM Stimulus Port 32-bit        
 511:./prime-framework/arch/arm/cortex-m3/lpc1768/include/core_cm3.h ****   }  PORT [32];                          /*!< Offset: 0x000 ( /W)  ITM Stimulus Port Registers     
 512:./prime-framework/arch/arm/cortex-m3/lpc1768/include/core_cm3.h ****        uint32_t RESERVED0[864];
 513:./prime-framework/arch/arm/cortex-m3/lpc1768/include/core_cm3.h ****   __IO uint32_t TER;                     /*!< Offset:       (R/W)  ITM Trace Enable Register       
 514:./prime-framework/arch/arm/cortex-m3/lpc1768/include/core_cm3.h ****        uint32_t RESERVED1[15];
 515:./prime-framework/arch/arm/cortex-m3/lpc1768/include/core_cm3.h ****   __IO uint32_t TPR;                     /*!< Offset:       (R/W)  ITM Trace Privilege Register    
 516:./prime-framework/arch/arm/cortex-m3/lpc1768/include/core_cm3.h ****        uint32_t RESERVED2[15];
 517:./prime-framework/arch/arm/cortex-m3/lpc1768/include/core_cm3.h ****   __IO uint32_t TCR;                     /*!< Offset:       (R/W)  ITM Trace Control Register      
 518:./prime-framework/arch/arm/cortex-m3/lpc1768/include/core_cm3.h ****        uint32_t RESERVED3[29];
 519:./prime-framework/arch/arm/cortex-m3/lpc1768/include/core_cm3.h ****   __IO uint32_t IWR;                     /*!< Offset:       (R/W)  ITM Integration Write Register  
 520:./prime-framework/arch/arm/cortex-m3/lpc1768/include/core_cm3.h ****   __IO uint32_t IRR;                     /*!< Offset:       (R/W)  ITM Integration Read Register   
 521:./prime-framework/arch/arm/cortex-m3/lpc1768/include/core_cm3.h ****   __IO uint32_t IMCR;                    /*!< Offset:       (R/W)  ITM Integration Mode Control Reg
 522:./prime-framework/arch/arm/cortex-m3/lpc1768/include/core_cm3.h ****        uint32_t RESERVED4[43];
 523:./prime-framework/arch/arm/cortex-m3/lpc1768/include/core_cm3.h ****   __IO uint32_t LAR;                     /*!< Offset:       (R/W)  ITM Lock Access Register        
 524:./prime-framework/arch/arm/cortex-m3/lpc1768/include/core_cm3.h ****   __IO uint32_t LSR;                     /*!< Offset:       (R/W)  ITM Lock Status Register        
 525:./prime-framework/arch/arm/cortex-m3/lpc1768/include/core_cm3.h ****        uint32_t RESERVED5[6];
 526:./prime-framework/arch/arm/cortex-m3/lpc1768/include/core_cm3.h ****   __I  uint32_t PID4;                    /*!< Offset:       (R/ )  ITM Peripheral Identification Re
 527:./prime-framework/arch/arm/cortex-m3/lpc1768/include/core_cm3.h ****   __I  uint32_t PID5;                    /*!< Offset:       (R/ )  ITM Peripheral Identification Re
 528:./prime-framework/arch/arm/cortex-m3/lpc1768/include/core_cm3.h ****   __I  uint32_t PID6;                    /*!< Offset:       (R/ )  ITM Peripheral Identification Re
 529:./prime-framework/arch/arm/cortex-m3/lpc1768/include/core_cm3.h ****   __I  uint32_t PID7;                    /*!< Offset:       (R/ )  ITM Peripheral Identification Re
 530:./prime-framework/arch/arm/cortex-m3/lpc1768/include/core_cm3.h ****   __I  uint32_t PID0;                    /*!< Offset:       (R/ )  ITM Peripheral Identification Re
 531:./prime-framework/arch/arm/cortex-m3/lpc1768/include/core_cm3.h ****   __I  uint32_t PID1;                    /*!< Offset:       (R/ )  ITM Peripheral Identification Re
 532:./prime-framework/arch/arm/cortex-m3/lpc1768/include/core_cm3.h ****   __I  uint32_t PID2;                    /*!< Offset:       (R/ )  ITM Peripheral Identification Re
 533:./prime-framework/arch/arm/cortex-m3/lpc1768/include/core_cm3.h ****   __I  uint32_t PID3;                    /*!< Offset:       (R/ )  ITM Peripheral Identification Re
 534:./prime-framework/arch/arm/cortex-m3/lpc1768/include/core_cm3.h ****   __I  uint32_t CID0;                    /*!< Offset:       (R/ )  ITM Component  Identification Re
 535:./prime-framework/arch/arm/cortex-m3/lpc1768/include/core_cm3.h ****   __I  uint32_t CID1;                    /*!< Offset:       (R/ )  ITM Component  Identification Re
 536:./prime-framework/arch/arm/cortex-m3/lpc1768/include/core_cm3.h ****   __I  uint32_t CID2;                    /*!< Offset:       (R/ )  ITM Component  Identification Re
 537:./prime-framework/arch/arm/cortex-m3/lpc1768/include/core_cm3.h ****   __I  uint32_t CID3;                    /*!< Offset:       (R/ )  ITM Component  Identification Re
 538:./prime-framework/arch/arm/cortex-m3/lpc1768/include/core_cm3.h **** } ITM_Type;
 539:./prime-framework/arch/arm/cortex-m3/lpc1768/include/core_cm3.h **** 
 540:./prime-framework/arch/arm/cortex-m3/lpc1768/include/core_cm3.h **** /* ITM Trace Privilege Register Definitions */
 541:./prime-framework/arch/arm/cortex-m3/lpc1768/include/core_cm3.h **** #define ITM_TPR_PRIVMASK_Pos                0                                             /*!< ITM 
 542:./prime-framework/arch/arm/cortex-m3/lpc1768/include/core_cm3.h **** #define ITM_TPR_PRIVMASK_Msk               (0xFUL << ITM_TPR_PRIVMASK_Pos)                /*!< ITM 
 543:./prime-framework/arch/arm/cortex-m3/lpc1768/include/core_cm3.h **** 
 544:./prime-framework/arch/arm/cortex-m3/lpc1768/include/core_cm3.h **** /* ITM Trace Control Register Definitions */
 545:./prime-framework/arch/arm/cortex-m3/lpc1768/include/core_cm3.h **** #define ITM_TCR_BUSY_Pos                   23                                             /*!< ITM 
 546:./prime-framework/arch/arm/cortex-m3/lpc1768/include/core_cm3.h **** #define ITM_TCR_BUSY_Msk                   (1UL << ITM_TCR_BUSY_Pos)                      /*!< ITM 
 547:./prime-framework/arch/arm/cortex-m3/lpc1768/include/core_cm3.h **** 
 548:./prime-framework/arch/arm/cortex-m3/lpc1768/include/core_cm3.h **** #define ITM_TCR_ATBID_Pos                  16                                             /*!< ITM 
 549:./prime-framework/arch/arm/cortex-m3/lpc1768/include/core_cm3.h **** #define ITM_TCR_ATBID_Msk                  (0x7FUL << ITM_TCR_ATBID_Pos)                  /*!< ITM 
 550:./prime-framework/arch/arm/cortex-m3/lpc1768/include/core_cm3.h **** 
 551:./prime-framework/arch/arm/cortex-m3/lpc1768/include/core_cm3.h **** #define ITM_TCR_TSPrescale_Pos              8                                             /*!< ITM 
 552:./prime-framework/arch/arm/cortex-m3/lpc1768/include/core_cm3.h **** #define ITM_TCR_TSPrescale_Msk             (3UL << ITM_TCR_TSPrescale_Pos)                /*!< ITM 
 553:./prime-framework/arch/arm/cortex-m3/lpc1768/include/core_cm3.h **** 
 554:./prime-framework/arch/arm/cortex-m3/lpc1768/include/core_cm3.h **** #define ITM_TCR_SWOENA_Pos                  4                                             /*!< ITM 
 555:./prime-framework/arch/arm/cortex-m3/lpc1768/include/core_cm3.h **** #define ITM_TCR_SWOENA_Msk                 (1UL << ITM_TCR_SWOENA_Pos)                    /*!< ITM 
 556:./prime-framework/arch/arm/cortex-m3/lpc1768/include/core_cm3.h **** 
 557:./prime-framework/arch/arm/cortex-m3/lpc1768/include/core_cm3.h **** #define ITM_TCR_DWTENA_Pos                  3                                             /*!< ITM 
 558:./prime-framework/arch/arm/cortex-m3/lpc1768/include/core_cm3.h **** #define ITM_TCR_DWTENA_Msk                 (1UL << ITM_TCR_DWTENA_Pos)                    /*!< ITM 
 559:./prime-framework/arch/arm/cortex-m3/lpc1768/include/core_cm3.h **** 
 560:./prime-framework/arch/arm/cortex-m3/lpc1768/include/core_cm3.h **** #define ITM_TCR_SYNCENA_Pos                 2                                             /*!< ITM 
 561:./prime-framework/arch/arm/cortex-m3/lpc1768/include/core_cm3.h **** #define ITM_TCR_SYNCENA_Msk                (1UL << ITM_TCR_SYNCENA_Pos)                   /*!< ITM 
 562:./prime-framework/arch/arm/cortex-m3/lpc1768/include/core_cm3.h **** 
ARM GAS  C:\Users\Akil\AppData\Local\Temp\cc6kIPJ8.s 			page 12


 563:./prime-framework/arch/arm/cortex-m3/lpc1768/include/core_cm3.h **** #define ITM_TCR_TSENA_Pos                   1                                             /*!< ITM 
 564:./prime-framework/arch/arm/cortex-m3/lpc1768/include/core_cm3.h **** #define ITM_TCR_TSENA_Msk                  (1UL << ITM_TCR_TSENA_Pos)                     /*!< ITM 
 565:./prime-framework/arch/arm/cortex-m3/lpc1768/include/core_cm3.h **** 
 566:./prime-framework/arch/arm/cortex-m3/lpc1768/include/core_cm3.h **** #define ITM_TCR_ITMENA_Pos                  0                                             /*!< ITM 
 567:./prime-framework/arch/arm/cortex-m3/lpc1768/include/core_cm3.h **** #define ITM_TCR_ITMENA_Msk                 (1UL << ITM_TCR_ITMENA_Pos)                    /*!< ITM 
 568:./prime-framework/arch/arm/cortex-m3/lpc1768/include/core_cm3.h **** 
 569:./prime-framework/arch/arm/cortex-m3/lpc1768/include/core_cm3.h **** /* ITM Integration Write Register Definitions */
 570:./prime-framework/arch/arm/cortex-m3/lpc1768/include/core_cm3.h **** #define ITM_IWR_ATVALIDM_Pos                0                                             /*!< ITM 
 571:./prime-framework/arch/arm/cortex-m3/lpc1768/include/core_cm3.h **** #define ITM_IWR_ATVALIDM_Msk               (1UL << ITM_IWR_ATVALIDM_Pos)                  /*!< ITM 
 572:./prime-framework/arch/arm/cortex-m3/lpc1768/include/core_cm3.h **** 
 573:./prime-framework/arch/arm/cortex-m3/lpc1768/include/core_cm3.h **** /* ITM Integration Read Register Definitions */
 574:./prime-framework/arch/arm/cortex-m3/lpc1768/include/core_cm3.h **** #define ITM_IRR_ATREADYM_Pos                0                                             /*!< ITM 
 575:./prime-framework/arch/arm/cortex-m3/lpc1768/include/core_cm3.h **** #define ITM_IRR_ATREADYM_Msk               (1UL << ITM_IRR_ATREADYM_Pos)                  /*!< ITM 
 576:./prime-framework/arch/arm/cortex-m3/lpc1768/include/core_cm3.h **** 
 577:./prime-framework/arch/arm/cortex-m3/lpc1768/include/core_cm3.h **** /* ITM Integration Mode Control Register Definitions */
 578:./prime-framework/arch/arm/cortex-m3/lpc1768/include/core_cm3.h **** #define ITM_IMCR_INTEGRATION_Pos            0                                             /*!< ITM 
 579:./prime-framework/arch/arm/cortex-m3/lpc1768/include/core_cm3.h **** #define ITM_IMCR_INTEGRATION_Msk           (1UL << ITM_IMCR_INTEGRATION_Pos)              /*!< ITM 
 580:./prime-framework/arch/arm/cortex-m3/lpc1768/include/core_cm3.h **** 
 581:./prime-framework/arch/arm/cortex-m3/lpc1768/include/core_cm3.h **** /* ITM Lock Status Register Definitions */
 582:./prime-framework/arch/arm/cortex-m3/lpc1768/include/core_cm3.h **** #define ITM_LSR_ByteAcc_Pos                 2                                             /*!< ITM 
 583:./prime-framework/arch/arm/cortex-m3/lpc1768/include/core_cm3.h **** #define ITM_LSR_ByteAcc_Msk                (1UL << ITM_LSR_ByteAcc_Pos)                   /*!< ITM 
 584:./prime-framework/arch/arm/cortex-m3/lpc1768/include/core_cm3.h **** 
 585:./prime-framework/arch/arm/cortex-m3/lpc1768/include/core_cm3.h **** #define ITM_LSR_Access_Pos                  1                                             /*!< ITM 
 586:./prime-framework/arch/arm/cortex-m3/lpc1768/include/core_cm3.h **** #define ITM_LSR_Access_Msk                 (1UL << ITM_LSR_Access_Pos)                    /*!< ITM 
 587:./prime-framework/arch/arm/cortex-m3/lpc1768/include/core_cm3.h **** 
 588:./prime-framework/arch/arm/cortex-m3/lpc1768/include/core_cm3.h **** #define ITM_LSR_Present_Pos                 0                                             /*!< ITM 
 589:./prime-framework/arch/arm/cortex-m3/lpc1768/include/core_cm3.h **** #define ITM_LSR_Present_Msk                (1UL << ITM_LSR_Present_Pos)                   /*!< ITM 
 590:./prime-framework/arch/arm/cortex-m3/lpc1768/include/core_cm3.h **** 
 591:./prime-framework/arch/arm/cortex-m3/lpc1768/include/core_cm3.h **** /*@}*/ /* end of group CMSIS_ITM */
 592:./prime-framework/arch/arm/cortex-m3/lpc1768/include/core_cm3.h **** 
 593:./prime-framework/arch/arm/cortex-m3/lpc1768/include/core_cm3.h **** 
 594:./prime-framework/arch/arm/cortex-m3/lpc1768/include/core_cm3.h **** /** \ingroup  CMSIS_core_register
 595:./prime-framework/arch/arm/cortex-m3/lpc1768/include/core_cm3.h ****     \defgroup CMSIS_InterruptType CMSIS Interrupt Type
 596:./prime-framework/arch/arm/cortex-m3/lpc1768/include/core_cm3.h ****   Type definitions for the Cortex-M Interrupt Type Register
 597:./prime-framework/arch/arm/cortex-m3/lpc1768/include/core_cm3.h ****   @{
 598:./prime-framework/arch/arm/cortex-m3/lpc1768/include/core_cm3.h ****  */
 599:./prime-framework/arch/arm/cortex-m3/lpc1768/include/core_cm3.h **** 
 600:./prime-framework/arch/arm/cortex-m3/lpc1768/include/core_cm3.h **** /** \brief  Structure type to access the Interrupt Type Register.
 601:./prime-framework/arch/arm/cortex-m3/lpc1768/include/core_cm3.h ****  */
 602:./prime-framework/arch/arm/cortex-m3/lpc1768/include/core_cm3.h **** typedef struct
 603:./prime-framework/arch/arm/cortex-m3/lpc1768/include/core_cm3.h **** {
 604:./prime-framework/arch/arm/cortex-m3/lpc1768/include/core_cm3.h ****        uint32_t RESERVED0;
 605:./prime-framework/arch/arm/cortex-m3/lpc1768/include/core_cm3.h ****   __I  uint32_t ICTR;                    /*!< Offset: 0x004 (R/ )  Interrupt Control Type Register 
 606:./prime-framework/arch/arm/cortex-m3/lpc1768/include/core_cm3.h **** #if ((defined __CM3_REV) && (__CM3_REV >= 0x200))
 607:./prime-framework/arch/arm/cortex-m3/lpc1768/include/core_cm3.h ****   __IO uint32_t ACTLR;                   /*!< Offset: 0x008 (R/W)  Auxiliary Control Register      
 608:./prime-framework/arch/arm/cortex-m3/lpc1768/include/core_cm3.h **** #else
 609:./prime-framework/arch/arm/cortex-m3/lpc1768/include/core_cm3.h ****        uint32_t RESERVED1;
 610:./prime-framework/arch/arm/cortex-m3/lpc1768/include/core_cm3.h **** #endif
 611:./prime-framework/arch/arm/cortex-m3/lpc1768/include/core_cm3.h **** } InterruptType_Type;
 612:./prime-framework/arch/arm/cortex-m3/lpc1768/include/core_cm3.h **** 
 613:./prime-framework/arch/arm/cortex-m3/lpc1768/include/core_cm3.h **** /* Interrupt Controller Type Register Definitions */
 614:./prime-framework/arch/arm/cortex-m3/lpc1768/include/core_cm3.h **** #define IntType_ICTR_INTLINESNUM_Pos  0                                                   /*!< Inte
 615:./prime-framework/arch/arm/cortex-m3/lpc1768/include/core_cm3.h **** #define IntType_ICTR_INTLINESNUM_Msk (0x1FUL << IntType_ICTR_INTLINESNUM_Pos)             /*!< Inte
 616:./prime-framework/arch/arm/cortex-m3/lpc1768/include/core_cm3.h **** 
 617:./prime-framework/arch/arm/cortex-m3/lpc1768/include/core_cm3.h **** /* Auxiliary Control Register Definitions */
 618:./prime-framework/arch/arm/cortex-m3/lpc1768/include/core_cm3.h **** #define IntType_ACTLR_DISFOLD_Pos     2                                                   /*!< Inte
 619:./prime-framework/arch/arm/cortex-m3/lpc1768/include/core_cm3.h **** #define IntType_ACTLR_DISFOLD_Msk    (1UL << IntType_ACTLR_DISFOLD_Pos)                   /*!< Inte
ARM GAS  C:\Users\Akil\AppData\Local\Temp\cc6kIPJ8.s 			page 13


 620:./prime-framework/arch/arm/cortex-m3/lpc1768/include/core_cm3.h **** 
 621:./prime-framework/arch/arm/cortex-m3/lpc1768/include/core_cm3.h **** #define IntType_ACTLR_DISDEFWBUF_Pos  1                                                   /*!< Inte
 622:./prime-framework/arch/arm/cortex-m3/lpc1768/include/core_cm3.h **** #define IntType_ACTLR_DISDEFWBUF_Msk (1UL << IntType_ACTLR_DISDEFWBUF_Pos)                /*!< Inte
 623:./prime-framework/arch/arm/cortex-m3/lpc1768/include/core_cm3.h **** 
 624:./prime-framework/arch/arm/cortex-m3/lpc1768/include/core_cm3.h **** #define IntType_ACTLR_DISMCYCINT_Pos  0                                                   /*!< Inte
 625:./prime-framework/arch/arm/cortex-m3/lpc1768/include/core_cm3.h **** #define IntType_ACTLR_DISMCYCINT_Msk (1UL << IntType_ACTLR_DISMCYCINT_Pos)                /*!< Inte
 626:./prime-framework/arch/arm/cortex-m3/lpc1768/include/core_cm3.h **** 
 627:./prime-framework/arch/arm/cortex-m3/lpc1768/include/core_cm3.h **** /*@}*/ /* end of group CMSIS_InterruptType */
 628:./prime-framework/arch/arm/cortex-m3/lpc1768/include/core_cm3.h **** 
 629:./prime-framework/arch/arm/cortex-m3/lpc1768/include/core_cm3.h **** 
 630:./prime-framework/arch/arm/cortex-m3/lpc1768/include/core_cm3.h **** #if (__MPU_PRESENT == 1)
 631:./prime-framework/arch/arm/cortex-m3/lpc1768/include/core_cm3.h **** /** \ingroup  CMSIS_core_register
 632:./prime-framework/arch/arm/cortex-m3/lpc1768/include/core_cm3.h ****     \defgroup CMSIS_MPU CMSIS MPU
 633:./prime-framework/arch/arm/cortex-m3/lpc1768/include/core_cm3.h ****   Type definitions for the Cortex-M Memory Protection Unit (MPU)
 634:./prime-framework/arch/arm/cortex-m3/lpc1768/include/core_cm3.h ****   @{
 635:./prime-framework/arch/arm/cortex-m3/lpc1768/include/core_cm3.h ****  */
 636:./prime-framework/arch/arm/cortex-m3/lpc1768/include/core_cm3.h **** 
 637:./prime-framework/arch/arm/cortex-m3/lpc1768/include/core_cm3.h **** /** \brief  Structure type to access the Memory Protection Unit (MPU).
 638:./prime-framework/arch/arm/cortex-m3/lpc1768/include/core_cm3.h ****  */
 639:./prime-framework/arch/arm/cortex-m3/lpc1768/include/core_cm3.h **** typedef struct
 640:./prime-framework/arch/arm/cortex-m3/lpc1768/include/core_cm3.h **** {
 641:./prime-framework/arch/arm/cortex-m3/lpc1768/include/core_cm3.h ****   __I  uint32_t TYPE;                    /*!< Offset: 0x000 (R/ )  MPU Type Register               
 642:./prime-framework/arch/arm/cortex-m3/lpc1768/include/core_cm3.h ****   __IO uint32_t CTRL;                    /*!< Offset: 0x004 (R/W)  MPU Control Register            
 643:./prime-framework/arch/arm/cortex-m3/lpc1768/include/core_cm3.h ****   __IO uint32_t RNR;                     /*!< Offset: 0x008 (R/W)  MPU Region RNRber Register      
 644:./prime-framework/arch/arm/cortex-m3/lpc1768/include/core_cm3.h ****   __IO uint32_t RBAR;                    /*!< Offset: 0x00C (R/W)  MPU Region Base Address Register
 645:./prime-framework/arch/arm/cortex-m3/lpc1768/include/core_cm3.h ****   __IO uint32_t RASR;                    /*!< Offset: 0x010 (R/W)  MPU Region Attribute and Size Re
 646:./prime-framework/arch/arm/cortex-m3/lpc1768/include/core_cm3.h ****   __IO uint32_t RBAR_A1;                 /*!< Offset: 0x014 (R/W)  MPU Alias 1 Region Base Address 
 647:./prime-framework/arch/arm/cortex-m3/lpc1768/include/core_cm3.h ****   __IO uint32_t RASR_A1;                 /*!< Offset: 0x018 (R/W)  MPU Alias 1 Region Attribute and
 648:./prime-framework/arch/arm/cortex-m3/lpc1768/include/core_cm3.h ****   __IO uint32_t RBAR_A2;                 /*!< Offset: 0x01C (R/W)  MPU Alias 2 Region Base Address 
 649:./prime-framework/arch/arm/cortex-m3/lpc1768/include/core_cm3.h ****   __IO uint32_t RASR_A2;                 /*!< Offset: 0x020 (R/W)  MPU Alias 2 Region Attribute and
 650:./prime-framework/arch/arm/cortex-m3/lpc1768/include/core_cm3.h ****   __IO uint32_t RBAR_A3;                 /*!< Offset: 0x024 (R/W)  MPU Alias 3 Region Base Address 
 651:./prime-framework/arch/arm/cortex-m3/lpc1768/include/core_cm3.h ****   __IO uint32_t RASR_A3;                 /*!< Offset: 0x028 (R/W)  MPU Alias 3 Region Attribute and
 652:./prime-framework/arch/arm/cortex-m3/lpc1768/include/core_cm3.h **** } MPU_Type;
 653:./prime-framework/arch/arm/cortex-m3/lpc1768/include/core_cm3.h **** 
 654:./prime-framework/arch/arm/cortex-m3/lpc1768/include/core_cm3.h **** /* MPU Type Register */
 655:./prime-framework/arch/arm/cortex-m3/lpc1768/include/core_cm3.h **** #define MPU_TYPE_IREGION_Pos               16                                             /*!< MPU 
 656:./prime-framework/arch/arm/cortex-m3/lpc1768/include/core_cm3.h **** #define MPU_TYPE_IREGION_Msk               (0xFFUL << MPU_TYPE_IREGION_Pos)               /*!< MPU 
 657:./prime-framework/arch/arm/cortex-m3/lpc1768/include/core_cm3.h **** 
 658:./prime-framework/arch/arm/cortex-m3/lpc1768/include/core_cm3.h **** #define MPU_TYPE_DREGION_Pos                8                                             /*!< MPU 
 659:./prime-framework/arch/arm/cortex-m3/lpc1768/include/core_cm3.h **** #define MPU_TYPE_DREGION_Msk               (0xFFUL << MPU_TYPE_DREGION_Pos)               /*!< MPU 
 660:./prime-framework/arch/arm/cortex-m3/lpc1768/include/core_cm3.h **** 
 661:./prime-framework/arch/arm/cortex-m3/lpc1768/include/core_cm3.h **** #define MPU_TYPE_SEPARATE_Pos               0                                             /*!< MPU 
 662:./prime-framework/arch/arm/cortex-m3/lpc1768/include/core_cm3.h **** #define MPU_TYPE_SEPARATE_Msk              (1UL << MPU_TYPE_SEPARATE_Pos)                 /*!< MPU 
 663:./prime-framework/arch/arm/cortex-m3/lpc1768/include/core_cm3.h **** 
 664:./prime-framework/arch/arm/cortex-m3/lpc1768/include/core_cm3.h **** /* MPU Control Register */
 665:./prime-framework/arch/arm/cortex-m3/lpc1768/include/core_cm3.h **** #define MPU_CTRL_PRIVDEFENA_Pos             2                                             /*!< MPU 
 666:./prime-framework/arch/arm/cortex-m3/lpc1768/include/core_cm3.h **** #define MPU_CTRL_PRIVDEFENA_Msk            (1UL << MPU_CTRL_PRIVDEFENA_Pos)               /*!< MPU 
 667:./prime-framework/arch/arm/cortex-m3/lpc1768/include/core_cm3.h **** 
 668:./prime-framework/arch/arm/cortex-m3/lpc1768/include/core_cm3.h **** #define MPU_CTRL_HFNMIENA_Pos               1                                             /*!< MPU 
 669:./prime-framework/arch/arm/cortex-m3/lpc1768/include/core_cm3.h **** #define MPU_CTRL_HFNMIENA_Msk              (1UL << MPU_CTRL_HFNMIENA_Pos)                 /*!< MPU 
 670:./prime-framework/arch/arm/cortex-m3/lpc1768/include/core_cm3.h **** 
 671:./prime-framework/arch/arm/cortex-m3/lpc1768/include/core_cm3.h **** #define MPU_CTRL_ENABLE_Pos                 0                                             /*!< MPU 
 672:./prime-framework/arch/arm/cortex-m3/lpc1768/include/core_cm3.h **** #define MPU_CTRL_ENABLE_Msk                (1UL << MPU_CTRL_ENABLE_Pos)                   /*!< MPU 
 673:./prime-framework/arch/arm/cortex-m3/lpc1768/include/core_cm3.h **** 
 674:./prime-framework/arch/arm/cortex-m3/lpc1768/include/core_cm3.h **** /* MPU Region Number Register */
 675:./prime-framework/arch/arm/cortex-m3/lpc1768/include/core_cm3.h **** #define MPU_RNR_REGION_Pos                  0                                             /*!< MPU 
 676:./prime-framework/arch/arm/cortex-m3/lpc1768/include/core_cm3.h **** #define MPU_RNR_REGION_Msk                 (0xFFUL << MPU_RNR_REGION_Pos)                 /*!< MPU 
ARM GAS  C:\Users\Akil\AppData\Local\Temp\cc6kIPJ8.s 			page 14


 677:./prime-framework/arch/arm/cortex-m3/lpc1768/include/core_cm3.h **** 
 678:./prime-framework/arch/arm/cortex-m3/lpc1768/include/core_cm3.h **** /* MPU Region Base Address Register */
 679:./prime-framework/arch/arm/cortex-m3/lpc1768/include/core_cm3.h **** #define MPU_RBAR_ADDR_Pos                   5                                             /*!< MPU 
 680:./prime-framework/arch/arm/cortex-m3/lpc1768/include/core_cm3.h **** #define MPU_RBAR_ADDR_Msk                  (0x7FFFFFFUL << MPU_RBAR_ADDR_Pos)             /*!< MPU 
 681:./prime-framework/arch/arm/cortex-m3/lpc1768/include/core_cm3.h **** 
 682:./prime-framework/arch/arm/cortex-m3/lpc1768/include/core_cm3.h **** #define MPU_RBAR_VALID_Pos                  4                                             /*!< MPU 
 683:./prime-framework/arch/arm/cortex-m3/lpc1768/include/core_cm3.h **** #define MPU_RBAR_VALID_Msk                 (1UL << MPU_RBAR_VALID_Pos)                    /*!< MPU 
 684:./prime-framework/arch/arm/cortex-m3/lpc1768/include/core_cm3.h **** 
 685:./prime-framework/arch/arm/cortex-m3/lpc1768/include/core_cm3.h **** #define MPU_RBAR_REGION_Pos                 0                                             /*!< MPU 
 686:./prime-framework/arch/arm/cortex-m3/lpc1768/include/core_cm3.h **** #define MPU_RBAR_REGION_Msk                (0xFUL << MPU_RBAR_REGION_Pos)                 /*!< MPU 
 687:./prime-framework/arch/arm/cortex-m3/lpc1768/include/core_cm3.h **** 
 688:./prime-framework/arch/arm/cortex-m3/lpc1768/include/core_cm3.h **** /* MPU Region Attribute and Size Register */
 689:./prime-framework/arch/arm/cortex-m3/lpc1768/include/core_cm3.h **** #define MPU_RASR_XN_Pos                    28                                             /*!< MPU 
 690:./prime-framework/arch/arm/cortex-m3/lpc1768/include/core_cm3.h **** #define MPU_RASR_XN_Msk                    (1UL << MPU_RASR_XN_Pos)                       /*!< MPU 
 691:./prime-framework/arch/arm/cortex-m3/lpc1768/include/core_cm3.h **** 
 692:./prime-framework/arch/arm/cortex-m3/lpc1768/include/core_cm3.h **** #define MPU_RASR_AP_Pos                    24                                             /*!< MPU 
 693:./prime-framework/arch/arm/cortex-m3/lpc1768/include/core_cm3.h **** #define MPU_RASR_AP_Msk                    (7UL << MPU_RASR_AP_Pos)                       /*!< MPU 
 694:./prime-framework/arch/arm/cortex-m3/lpc1768/include/core_cm3.h **** 
 695:./prime-framework/arch/arm/cortex-m3/lpc1768/include/core_cm3.h **** #define MPU_RASR_TEX_Pos                   19                                             /*!< MPU 
 696:./prime-framework/arch/arm/cortex-m3/lpc1768/include/core_cm3.h **** #define MPU_RASR_TEX_Msk                   (7UL << MPU_RASR_TEX_Pos)                      /*!< MPU 
 697:./prime-framework/arch/arm/cortex-m3/lpc1768/include/core_cm3.h **** 
 698:./prime-framework/arch/arm/cortex-m3/lpc1768/include/core_cm3.h **** #define MPU_RASR_S_Pos                     18                                             /*!< MPU 
 699:./prime-framework/arch/arm/cortex-m3/lpc1768/include/core_cm3.h **** #define MPU_RASR_S_Msk                     (1UL << MPU_RASR_S_Pos)                        /*!< MPU 
 700:./prime-framework/arch/arm/cortex-m3/lpc1768/include/core_cm3.h **** 
 701:./prime-framework/arch/arm/cortex-m3/lpc1768/include/core_cm3.h **** #define MPU_RASR_C_Pos                     17                                             /*!< MPU 
 702:./prime-framework/arch/arm/cortex-m3/lpc1768/include/core_cm3.h **** #define MPU_RASR_C_Msk                     (1UL << MPU_RASR_C_Pos)                        /*!< MPU 
 703:./prime-framework/arch/arm/cortex-m3/lpc1768/include/core_cm3.h **** 
 704:./prime-framework/arch/arm/cortex-m3/lpc1768/include/core_cm3.h **** #define MPU_RASR_B_Pos                     16                                             /*!< MPU 
 705:./prime-framework/arch/arm/cortex-m3/lpc1768/include/core_cm3.h **** #define MPU_RASR_B_Msk                     (1UL << MPU_RASR_B_Pos)                        /*!< MPU 
 706:./prime-framework/arch/arm/cortex-m3/lpc1768/include/core_cm3.h **** 
 707:./prime-framework/arch/arm/cortex-m3/lpc1768/include/core_cm3.h **** #define MPU_RASR_SRD_Pos                    8                                             /*!< MPU 
 708:./prime-framework/arch/arm/cortex-m3/lpc1768/include/core_cm3.h **** #define MPU_RASR_SRD_Msk                   (0xFFUL << MPU_RASR_SRD_Pos)                   /*!< MPU 
 709:./prime-framework/arch/arm/cortex-m3/lpc1768/include/core_cm3.h **** 
 710:./prime-framework/arch/arm/cortex-m3/lpc1768/include/core_cm3.h **** #define MPU_RASR_SIZE_Pos                   1                                             /*!< MPU 
 711:./prime-framework/arch/arm/cortex-m3/lpc1768/include/core_cm3.h **** #define MPU_RASR_SIZE_Msk                  (0x1FUL << MPU_RASR_SIZE_Pos)                  /*!< MPU 
 712:./prime-framework/arch/arm/cortex-m3/lpc1768/include/core_cm3.h **** 
 713:./prime-framework/arch/arm/cortex-m3/lpc1768/include/core_cm3.h **** #define MPU_RASR_ENA_Pos                     0                                            /*!< MPU 
 714:./prime-framework/arch/arm/cortex-m3/lpc1768/include/core_cm3.h **** #define MPU_RASR_ENA_Msk                    (0x1UL << MPU_RASR_ENA_Pos)                   /*!< MPU 
 715:./prime-framework/arch/arm/cortex-m3/lpc1768/include/core_cm3.h **** 
 716:./prime-framework/arch/arm/cortex-m3/lpc1768/include/core_cm3.h **** /*@} end of group CMSIS_MPU */
 717:./prime-framework/arch/arm/cortex-m3/lpc1768/include/core_cm3.h **** #endif
 718:./prime-framework/arch/arm/cortex-m3/lpc1768/include/core_cm3.h **** 
 719:./prime-framework/arch/arm/cortex-m3/lpc1768/include/core_cm3.h **** 
 720:./prime-framework/arch/arm/cortex-m3/lpc1768/include/core_cm3.h **** /** \ingroup  CMSIS_core_register
 721:./prime-framework/arch/arm/cortex-m3/lpc1768/include/core_cm3.h ****     \defgroup CMSIS_CoreDebug CMSIS Core Debug
 722:./prime-framework/arch/arm/cortex-m3/lpc1768/include/core_cm3.h ****   Type definitions for the Cortex-M Core Debug Registers
 723:./prime-framework/arch/arm/cortex-m3/lpc1768/include/core_cm3.h ****   @{
 724:./prime-framework/arch/arm/cortex-m3/lpc1768/include/core_cm3.h ****  */
 725:./prime-framework/arch/arm/cortex-m3/lpc1768/include/core_cm3.h **** 
 726:./prime-framework/arch/arm/cortex-m3/lpc1768/include/core_cm3.h **** /** \brief  Structure type to access the Core Debug Register (CoreDebug).
 727:./prime-framework/arch/arm/cortex-m3/lpc1768/include/core_cm3.h ****  */
 728:./prime-framework/arch/arm/cortex-m3/lpc1768/include/core_cm3.h **** typedef struct
 729:./prime-framework/arch/arm/cortex-m3/lpc1768/include/core_cm3.h **** {
 730:./prime-framework/arch/arm/cortex-m3/lpc1768/include/core_cm3.h ****   __IO uint32_t DHCSR;                   /*!< Offset: 0x000 (R/W)  Debug Halting Control and Status
 731:./prime-framework/arch/arm/cortex-m3/lpc1768/include/core_cm3.h ****   __O  uint32_t DCRSR;                   /*!< Offset: 0x004 ( /W)  Debug Core Register Selector Reg
 732:./prime-framework/arch/arm/cortex-m3/lpc1768/include/core_cm3.h ****   __IO uint32_t DCRDR;                   /*!< Offset: 0x008 (R/W)  Debug Core Register Data Registe
 733:./prime-framework/arch/arm/cortex-m3/lpc1768/include/core_cm3.h ****   __IO uint32_t DEMCR;                   /*!< Offset: 0x00C (R/W)  Debug Exception and Monitor Cont
ARM GAS  C:\Users\Akil\AppData\Local\Temp\cc6kIPJ8.s 			page 15


 734:./prime-framework/arch/arm/cortex-m3/lpc1768/include/core_cm3.h **** } CoreDebug_Type;
 735:./prime-framework/arch/arm/cortex-m3/lpc1768/include/core_cm3.h **** 
 736:./prime-framework/arch/arm/cortex-m3/lpc1768/include/core_cm3.h **** /* Debug Halting Control and Status Register */
 737:./prime-framework/arch/arm/cortex-m3/lpc1768/include/core_cm3.h **** #define CoreDebug_DHCSR_DBGKEY_Pos         16                                             /*!< Core
 738:./prime-framework/arch/arm/cortex-m3/lpc1768/include/core_cm3.h **** #define CoreDebug_DHCSR_DBGKEY_Msk         (0xFFFFUL << CoreDebug_DHCSR_DBGKEY_Pos)       /*!< Core
 739:./prime-framework/arch/arm/cortex-m3/lpc1768/include/core_cm3.h **** 
 740:./prime-framework/arch/arm/cortex-m3/lpc1768/include/core_cm3.h **** #define CoreDebug_DHCSR_S_RESET_ST_Pos     25                                             /*!< Core
 741:./prime-framework/arch/arm/cortex-m3/lpc1768/include/core_cm3.h **** #define CoreDebug_DHCSR_S_RESET_ST_Msk     (1UL << CoreDebug_DHCSR_S_RESET_ST_Pos)        /*!< Core
 742:./prime-framework/arch/arm/cortex-m3/lpc1768/include/core_cm3.h **** 
 743:./prime-framework/arch/arm/cortex-m3/lpc1768/include/core_cm3.h **** #define CoreDebug_DHCSR_S_RETIRE_ST_Pos    24                                             /*!< Core
 744:./prime-framework/arch/arm/cortex-m3/lpc1768/include/core_cm3.h **** #define CoreDebug_DHCSR_S_RETIRE_ST_Msk    (1UL << CoreDebug_DHCSR_S_RETIRE_ST_Pos)       /*!< Core
 745:./prime-framework/arch/arm/cortex-m3/lpc1768/include/core_cm3.h **** 
 746:./prime-framework/arch/arm/cortex-m3/lpc1768/include/core_cm3.h **** #define CoreDebug_DHCSR_S_LOCKUP_Pos       19                                             /*!< Core
 747:./prime-framework/arch/arm/cortex-m3/lpc1768/include/core_cm3.h **** #define CoreDebug_DHCSR_S_LOCKUP_Msk       (1UL << CoreDebug_DHCSR_S_LOCKUP_Pos)          /*!< Core
 748:./prime-framework/arch/arm/cortex-m3/lpc1768/include/core_cm3.h **** 
 749:./prime-framework/arch/arm/cortex-m3/lpc1768/include/core_cm3.h **** #define CoreDebug_DHCSR_S_SLEEP_Pos        18                                             /*!< Core
 750:./prime-framework/arch/arm/cortex-m3/lpc1768/include/core_cm3.h **** #define CoreDebug_DHCSR_S_SLEEP_Msk        (1UL << CoreDebug_DHCSR_S_SLEEP_Pos)           /*!< Core
 751:./prime-framework/arch/arm/cortex-m3/lpc1768/include/core_cm3.h **** 
 752:./prime-framework/arch/arm/cortex-m3/lpc1768/include/core_cm3.h **** #define CoreDebug_DHCSR_S_HALT_Pos         17                                             /*!< Core
 753:./prime-framework/arch/arm/cortex-m3/lpc1768/include/core_cm3.h **** #define CoreDebug_DHCSR_S_HALT_Msk         (1UL << CoreDebug_DHCSR_S_HALT_Pos)            /*!< Core
 754:./prime-framework/arch/arm/cortex-m3/lpc1768/include/core_cm3.h **** 
 755:./prime-framework/arch/arm/cortex-m3/lpc1768/include/core_cm3.h **** #define CoreDebug_DHCSR_S_REGRDY_Pos       16                                             /*!< Core
 756:./prime-framework/arch/arm/cortex-m3/lpc1768/include/core_cm3.h **** #define CoreDebug_DHCSR_S_REGRDY_Msk       (1UL << CoreDebug_DHCSR_S_REGRDY_Pos)          /*!< Core
 757:./prime-framework/arch/arm/cortex-m3/lpc1768/include/core_cm3.h **** 
 758:./prime-framework/arch/arm/cortex-m3/lpc1768/include/core_cm3.h **** #define CoreDebug_DHCSR_C_SNAPSTALL_Pos     5                                             /*!< Core
 759:./prime-framework/arch/arm/cortex-m3/lpc1768/include/core_cm3.h **** #define CoreDebug_DHCSR_C_SNAPSTALL_Msk    (1UL << CoreDebug_DHCSR_C_SNAPSTALL_Pos)       /*!< Core
 760:./prime-framework/arch/arm/cortex-m3/lpc1768/include/core_cm3.h **** 
 761:./prime-framework/arch/arm/cortex-m3/lpc1768/include/core_cm3.h **** #define CoreDebug_DHCSR_C_MASKINTS_Pos      3                                             /*!< Core
 762:./prime-framework/arch/arm/cortex-m3/lpc1768/include/core_cm3.h **** #define CoreDebug_DHCSR_C_MASKINTS_Msk     (1UL << CoreDebug_DHCSR_C_MASKINTS_Pos)        /*!< Core
 763:./prime-framework/arch/arm/cortex-m3/lpc1768/include/core_cm3.h **** 
 764:./prime-framework/arch/arm/cortex-m3/lpc1768/include/core_cm3.h **** #define CoreDebug_DHCSR_C_STEP_Pos          2                                             /*!< Core
 765:./prime-framework/arch/arm/cortex-m3/lpc1768/include/core_cm3.h **** #define CoreDebug_DHCSR_C_STEP_Msk         (1UL << CoreDebug_DHCSR_C_STEP_Pos)            /*!< Core
 766:./prime-framework/arch/arm/cortex-m3/lpc1768/include/core_cm3.h **** 
 767:./prime-framework/arch/arm/cortex-m3/lpc1768/include/core_cm3.h **** #define CoreDebug_DHCSR_C_HALT_Pos          1                                             /*!< Core
 768:./prime-framework/arch/arm/cortex-m3/lpc1768/include/core_cm3.h **** #define CoreDebug_DHCSR_C_HALT_Msk         (1UL << CoreDebug_DHCSR_C_HALT_Pos)            /*!< Core
 769:./prime-framework/arch/arm/cortex-m3/lpc1768/include/core_cm3.h **** 
 770:./prime-framework/arch/arm/cortex-m3/lpc1768/include/core_cm3.h **** #define CoreDebug_DHCSR_C_DEBUGEN_Pos       0                                             /*!< Core
 771:./prime-framework/arch/arm/cortex-m3/lpc1768/include/core_cm3.h **** #define CoreDebug_DHCSR_C_DEBUGEN_Msk      (1UL << CoreDebug_DHCSR_C_DEBUGEN_Pos)         /*!< Core
 772:./prime-framework/arch/arm/cortex-m3/lpc1768/include/core_cm3.h **** 
 773:./prime-framework/arch/arm/cortex-m3/lpc1768/include/core_cm3.h **** /* Debug Core Register Selector Register */
 774:./prime-framework/arch/arm/cortex-m3/lpc1768/include/core_cm3.h **** #define CoreDebug_DCRSR_REGWnR_Pos         16                                             /*!< Core
 775:./prime-framework/arch/arm/cortex-m3/lpc1768/include/core_cm3.h **** #define CoreDebug_DCRSR_REGWnR_Msk         (1UL << CoreDebug_DCRSR_REGWnR_Pos)            /*!< Core
 776:./prime-framework/arch/arm/cortex-m3/lpc1768/include/core_cm3.h **** 
 777:./prime-framework/arch/arm/cortex-m3/lpc1768/include/core_cm3.h **** #define CoreDebug_DCRSR_REGSEL_Pos          0                                             /*!< Core
 778:./prime-framework/arch/arm/cortex-m3/lpc1768/include/core_cm3.h **** #define CoreDebug_DCRSR_REGSEL_Msk         (0x1FUL << CoreDebug_DCRSR_REGSEL_Pos)         /*!< Core
 779:./prime-framework/arch/arm/cortex-m3/lpc1768/include/core_cm3.h **** 
 780:./prime-framework/arch/arm/cortex-m3/lpc1768/include/core_cm3.h **** /* Debug Exception and Monitor Control Register */
 781:./prime-framework/arch/arm/cortex-m3/lpc1768/include/core_cm3.h **** #define CoreDebug_DEMCR_TRCENA_Pos         24                                             /*!< Core
 782:./prime-framework/arch/arm/cortex-m3/lpc1768/include/core_cm3.h **** #define CoreDebug_DEMCR_TRCENA_Msk         (1UL << CoreDebug_DEMCR_TRCENA_Pos)            /*!< Core
 783:./prime-framework/arch/arm/cortex-m3/lpc1768/include/core_cm3.h **** 
 784:./prime-framework/arch/arm/cortex-m3/lpc1768/include/core_cm3.h **** #define CoreDebug_DEMCR_MON_REQ_Pos        19                                             /*!< Core
 785:./prime-framework/arch/arm/cortex-m3/lpc1768/include/core_cm3.h **** #define CoreDebug_DEMCR_MON_REQ_Msk        (1UL << CoreDebug_DEMCR_MON_REQ_Pos)           /*!< Core
 786:./prime-framework/arch/arm/cortex-m3/lpc1768/include/core_cm3.h **** 
 787:./prime-framework/arch/arm/cortex-m3/lpc1768/include/core_cm3.h **** #define CoreDebug_DEMCR_MON_STEP_Pos       18                                             /*!< Core
 788:./prime-framework/arch/arm/cortex-m3/lpc1768/include/core_cm3.h **** #define CoreDebug_DEMCR_MON_STEP_Msk       (1UL << CoreDebug_DEMCR_MON_STEP_Pos)          /*!< Core
 789:./prime-framework/arch/arm/cortex-m3/lpc1768/include/core_cm3.h **** 
 790:./prime-framework/arch/arm/cortex-m3/lpc1768/include/core_cm3.h **** #define CoreDebug_DEMCR_MON_PEND_Pos       17                                             /*!< Core
ARM GAS  C:\Users\Akil\AppData\Local\Temp\cc6kIPJ8.s 			page 16


 791:./prime-framework/arch/arm/cortex-m3/lpc1768/include/core_cm3.h **** #define CoreDebug_DEMCR_MON_PEND_Msk       (1UL << CoreDebug_DEMCR_MON_PEND_Pos)          /*!< Core
 792:./prime-framework/arch/arm/cortex-m3/lpc1768/include/core_cm3.h **** 
 793:./prime-framework/arch/arm/cortex-m3/lpc1768/include/core_cm3.h **** #define CoreDebug_DEMCR_MON_EN_Pos         16                                             /*!< Core
 794:./prime-framework/arch/arm/cortex-m3/lpc1768/include/core_cm3.h **** #define CoreDebug_DEMCR_MON_EN_Msk         (1UL << CoreDebug_DEMCR_MON_EN_Pos)            /*!< Core
 795:./prime-framework/arch/arm/cortex-m3/lpc1768/include/core_cm3.h **** 
 796:./prime-framework/arch/arm/cortex-m3/lpc1768/include/core_cm3.h **** #define CoreDebug_DEMCR_VC_HARDERR_Pos     10                                             /*!< Core
 797:./prime-framework/arch/arm/cortex-m3/lpc1768/include/core_cm3.h **** #define CoreDebug_DEMCR_VC_HARDERR_Msk     (1UL << CoreDebug_DEMCR_VC_HARDERR_Pos)        /*!< Core
 798:./prime-framework/arch/arm/cortex-m3/lpc1768/include/core_cm3.h **** 
 799:./prime-framework/arch/arm/cortex-m3/lpc1768/include/core_cm3.h **** #define CoreDebug_DEMCR_VC_INTERR_Pos       9                                             /*!< Core
 800:./prime-framework/arch/arm/cortex-m3/lpc1768/include/core_cm3.h **** #define CoreDebug_DEMCR_VC_INTERR_Msk      (1UL << CoreDebug_DEMCR_VC_INTERR_Pos)         /*!< Core
 801:./prime-framework/arch/arm/cortex-m3/lpc1768/include/core_cm3.h **** 
 802:./prime-framework/arch/arm/cortex-m3/lpc1768/include/core_cm3.h **** #define CoreDebug_DEMCR_VC_BUSERR_Pos       8                                             /*!< Core
 803:./prime-framework/arch/arm/cortex-m3/lpc1768/include/core_cm3.h **** #define CoreDebug_DEMCR_VC_BUSERR_Msk      (1UL << CoreDebug_DEMCR_VC_BUSERR_Pos)         /*!< Core
 804:./prime-framework/arch/arm/cortex-m3/lpc1768/include/core_cm3.h **** 
 805:./prime-framework/arch/arm/cortex-m3/lpc1768/include/core_cm3.h **** #define CoreDebug_DEMCR_VC_STATERR_Pos      7                                             /*!< Core
 806:./prime-framework/arch/arm/cortex-m3/lpc1768/include/core_cm3.h **** #define CoreDebug_DEMCR_VC_STATERR_Msk     (1UL << CoreDebug_DEMCR_VC_STATERR_Pos)        /*!< Core
 807:./prime-framework/arch/arm/cortex-m3/lpc1768/include/core_cm3.h **** 
 808:./prime-framework/arch/arm/cortex-m3/lpc1768/include/core_cm3.h **** #define CoreDebug_DEMCR_VC_CHKERR_Pos       6                                             /*!< Core
 809:./prime-framework/arch/arm/cortex-m3/lpc1768/include/core_cm3.h **** #define CoreDebug_DEMCR_VC_CHKERR_Msk      (1UL << CoreDebug_DEMCR_VC_CHKERR_Pos)         /*!< Core
 810:./prime-framework/arch/arm/cortex-m3/lpc1768/include/core_cm3.h **** 
 811:./prime-framework/arch/arm/cortex-m3/lpc1768/include/core_cm3.h **** #define CoreDebug_DEMCR_VC_NOCPERR_Pos      5                                             /*!< Core
 812:./prime-framework/arch/arm/cortex-m3/lpc1768/include/core_cm3.h **** #define CoreDebug_DEMCR_VC_NOCPERR_Msk     (1UL << CoreDebug_DEMCR_VC_NOCPERR_Pos)        /*!< Core
 813:./prime-framework/arch/arm/cortex-m3/lpc1768/include/core_cm3.h **** 
 814:./prime-framework/arch/arm/cortex-m3/lpc1768/include/core_cm3.h **** #define CoreDebug_DEMCR_VC_MMERR_Pos        4                                             /*!< Core
 815:./prime-framework/arch/arm/cortex-m3/lpc1768/include/core_cm3.h **** #define CoreDebug_DEMCR_VC_MMERR_Msk       (1UL << CoreDebug_DEMCR_VC_MMERR_Pos)          /*!< Core
 816:./prime-framework/arch/arm/cortex-m3/lpc1768/include/core_cm3.h **** 
 817:./prime-framework/arch/arm/cortex-m3/lpc1768/include/core_cm3.h **** #define CoreDebug_DEMCR_VC_CORERESET_Pos    0                                             /*!< Core
 818:./prime-framework/arch/arm/cortex-m3/lpc1768/include/core_cm3.h **** #define CoreDebug_DEMCR_VC_CORERESET_Msk   (1UL << CoreDebug_DEMCR_VC_CORERESET_Pos)      /*!< Core
 819:./prime-framework/arch/arm/cortex-m3/lpc1768/include/core_cm3.h **** 
 820:./prime-framework/arch/arm/cortex-m3/lpc1768/include/core_cm3.h **** /*@} end of group CMSIS_CoreDebug */
 821:./prime-framework/arch/arm/cortex-m3/lpc1768/include/core_cm3.h **** 
 822:./prime-framework/arch/arm/cortex-m3/lpc1768/include/core_cm3.h **** 
 823:./prime-framework/arch/arm/cortex-m3/lpc1768/include/core_cm3.h **** /** \ingroup  CMSIS_core_register
 824:./prime-framework/arch/arm/cortex-m3/lpc1768/include/core_cm3.h ****   @{
 825:./prime-framework/arch/arm/cortex-m3/lpc1768/include/core_cm3.h ****  */
 826:./prime-framework/arch/arm/cortex-m3/lpc1768/include/core_cm3.h **** 
 827:./prime-framework/arch/arm/cortex-m3/lpc1768/include/core_cm3.h **** /* Memory mapping of Cortex-M3 Hardware */
 828:./prime-framework/arch/arm/cortex-m3/lpc1768/include/core_cm3.h **** #define SCS_BASE            (0xE000E000UL)                            /*!< System Control Space Bas
 829:./prime-framework/arch/arm/cortex-m3/lpc1768/include/core_cm3.h **** #define ITM_BASE            (0xE0000000UL)                            /*!< ITM Base Address        
 830:./prime-framework/arch/arm/cortex-m3/lpc1768/include/core_cm3.h **** #define CoreDebug_BASE      (0xE000EDF0UL)                            /*!< Core Debug Base Address 
 831:./prime-framework/arch/arm/cortex-m3/lpc1768/include/core_cm3.h **** #define SysTick_BASE        (SCS_BASE +  0x0010UL)                    /*!< SysTick Base Address    
 832:./prime-framework/arch/arm/cortex-m3/lpc1768/include/core_cm3.h **** #define NVIC_BASE           (SCS_BASE +  0x0100UL)                    /*!< NVIC Base Address       
 833:./prime-framework/arch/arm/cortex-m3/lpc1768/include/core_cm3.h **** #define SCB_BASE            (SCS_BASE +  0x0D00UL)                    /*!< System Control Block Bas
 834:./prime-framework/arch/arm/cortex-m3/lpc1768/include/core_cm3.h **** 
 835:./prime-framework/arch/arm/cortex-m3/lpc1768/include/core_cm3.h **** #define InterruptType       ((InterruptType_Type *) SCS_BASE)         /*!< Interrupt Type Register 
 836:./prime-framework/arch/arm/cortex-m3/lpc1768/include/core_cm3.h **** #define SCB                 ((SCB_Type *)           SCB_BASE)         /*!< SCB configuration struct
 837:./prime-framework/arch/arm/cortex-m3/lpc1768/include/core_cm3.h **** #define SysTick             ((SysTick_Type *)       SysTick_BASE)     /*!< SysTick configuration st
 838:./prime-framework/arch/arm/cortex-m3/lpc1768/include/core_cm3.h **** #define NVIC                ((NVIC_Type *)          NVIC_BASE)        /*!< NVIC configuration struc
 839:./prime-framework/arch/arm/cortex-m3/lpc1768/include/core_cm3.h **** #define ITM                 ((ITM_Type *)           ITM_BASE)         /*!< ITM configuration struct
 840:./prime-framework/arch/arm/cortex-m3/lpc1768/include/core_cm3.h **** #define CoreDebug           ((CoreDebug_Type *)     CoreDebug_BASE)   /*!< Core Debug configuration
 841:./prime-framework/arch/arm/cortex-m3/lpc1768/include/core_cm3.h **** 
 842:./prime-framework/arch/arm/cortex-m3/lpc1768/include/core_cm3.h **** #if (__MPU_PRESENT == 1)
 843:./prime-framework/arch/arm/cortex-m3/lpc1768/include/core_cm3.h ****   #define MPU_BASE          (SCS_BASE +  0x0D90UL)                    /*!< Memory Protection Unit  
 844:./prime-framework/arch/arm/cortex-m3/lpc1768/include/core_cm3.h ****   #define MPU               ((MPU_Type*)            MPU_BASE)         /*!< Memory Protection Unit  
 845:./prime-framework/arch/arm/cortex-m3/lpc1768/include/core_cm3.h **** #endif
 846:./prime-framework/arch/arm/cortex-m3/lpc1768/include/core_cm3.h **** 
 847:./prime-framework/arch/arm/cortex-m3/lpc1768/include/core_cm3.h **** /*@} */
ARM GAS  C:\Users\Akil\AppData\Local\Temp\cc6kIPJ8.s 			page 17


 848:./prime-framework/arch/arm/cortex-m3/lpc1768/include/core_cm3.h **** 
 849:./prime-framework/arch/arm/cortex-m3/lpc1768/include/core_cm3.h **** 
 850:./prime-framework/arch/arm/cortex-m3/lpc1768/include/core_cm3.h **** 
 851:./prime-framework/arch/arm/cortex-m3/lpc1768/include/core_cm3.h **** /*******************************************************************************
 852:./prime-framework/arch/arm/cortex-m3/lpc1768/include/core_cm3.h ****  *                Hardware Abstraction Layer
 853:./prime-framework/arch/arm/cortex-m3/lpc1768/include/core_cm3.h ****  ******************************************************************************/
 854:./prime-framework/arch/arm/cortex-m3/lpc1768/include/core_cm3.h **** /** \addtogroup CMSIS_Core_FunctionInterface CMSIS Core Function Interface
 855:./prime-framework/arch/arm/cortex-m3/lpc1768/include/core_cm3.h ****   Core Function Interface contains:
 856:./prime-framework/arch/arm/cortex-m3/lpc1768/include/core_cm3.h ****   - Core NVIC Functions
 857:./prime-framework/arch/arm/cortex-m3/lpc1768/include/core_cm3.h ****   - Core SysTick Functions
 858:./prime-framework/arch/arm/cortex-m3/lpc1768/include/core_cm3.h ****   - Core Debug Functions
 859:./prime-framework/arch/arm/cortex-m3/lpc1768/include/core_cm3.h ****   - Core Register Access Functions
 860:./prime-framework/arch/arm/cortex-m3/lpc1768/include/core_cm3.h **** */
 861:./prime-framework/arch/arm/cortex-m3/lpc1768/include/core_cm3.h **** 
 862:./prime-framework/arch/arm/cortex-m3/lpc1768/include/core_cm3.h **** 
 863:./prime-framework/arch/arm/cortex-m3/lpc1768/include/core_cm3.h **** 
 864:./prime-framework/arch/arm/cortex-m3/lpc1768/include/core_cm3.h **** /* ##########################   NVIC functions  #################################### */
 865:./prime-framework/arch/arm/cortex-m3/lpc1768/include/core_cm3.h **** /** \ingroup  CMSIS_Core_FunctionInterface
 866:./prime-framework/arch/arm/cortex-m3/lpc1768/include/core_cm3.h ****     \defgroup CMSIS_Core_NVICFunctions CMSIS Core NVIC Functions
 867:./prime-framework/arch/arm/cortex-m3/lpc1768/include/core_cm3.h ****   @{
 868:./prime-framework/arch/arm/cortex-m3/lpc1768/include/core_cm3.h ****  */
 869:./prime-framework/arch/arm/cortex-m3/lpc1768/include/core_cm3.h **** /** @addtogroup CMSIS_Core_NVICFunctions
 870:./prime-framework/arch/arm/cortex-m3/lpc1768/include/core_cm3.h ****  * @{
 871:./prime-framework/arch/arm/cortex-m3/lpc1768/include/core_cm3.h ****  */
 872:./prime-framework/arch/arm/cortex-m3/lpc1768/include/core_cm3.h **** /** \brief  Set Priority Grouping
 873:./prime-framework/arch/arm/cortex-m3/lpc1768/include/core_cm3.h **** 
 874:./prime-framework/arch/arm/cortex-m3/lpc1768/include/core_cm3.h ****   This function sets the priority grouping field using the required unlock sequence.
 875:./prime-framework/arch/arm/cortex-m3/lpc1768/include/core_cm3.h ****   The parameter PriorityGroup is assigned to the field SCB->AIRCR [10:8] PRIGROUP field.
 876:./prime-framework/arch/arm/cortex-m3/lpc1768/include/core_cm3.h ****   Only values from 0..7 are used.
 877:./prime-framework/arch/arm/cortex-m3/lpc1768/include/core_cm3.h ****   In case of a conflict between priority grouping and available
 878:./prime-framework/arch/arm/cortex-m3/lpc1768/include/core_cm3.h ****   priority bits (__NVIC_PRIO_BITS) the smallest possible priority group is set.
 879:./prime-framework/arch/arm/cortex-m3/lpc1768/include/core_cm3.h **** 
 880:./prime-framework/arch/arm/cortex-m3/lpc1768/include/core_cm3.h ****     \param [in]      PriorityGroup  Priority grouping field
 881:./prime-framework/arch/arm/cortex-m3/lpc1768/include/core_cm3.h ****  */
 882:./prime-framework/arch/arm/cortex-m3/lpc1768/include/core_cm3.h **** static __INLINE void NVIC_SetPriorityGrouping(uint32_t PriorityGroup)
 883:./prime-framework/arch/arm/cortex-m3/lpc1768/include/core_cm3.h **** {
 884:./prime-framework/arch/arm/cortex-m3/lpc1768/include/core_cm3.h ****   uint32_t reg_value;
 885:./prime-framework/arch/arm/cortex-m3/lpc1768/include/core_cm3.h ****   uint32_t PriorityGroupTmp = (PriorityGroup & 0x07);                         /* only values 0..7 a
 886:./prime-framework/arch/arm/cortex-m3/lpc1768/include/core_cm3.h **** 
 887:./prime-framework/arch/arm/cortex-m3/lpc1768/include/core_cm3.h ****   reg_value  =  SCB->AIRCR;                                                   /* read old register 
 888:./prime-framework/arch/arm/cortex-m3/lpc1768/include/core_cm3.h ****   reg_value &= ~(SCB_AIRCR_VECTKEY_Msk | SCB_AIRCR_PRIGROUP_Msk);             /* clear bits to chan
 889:./prime-framework/arch/arm/cortex-m3/lpc1768/include/core_cm3.h ****   reg_value  =  (reg_value                       |
 890:./prime-framework/arch/arm/cortex-m3/lpc1768/include/core_cm3.h ****                 (0x5FA << SCB_AIRCR_VECTKEY_Pos) |
 891:./prime-framework/arch/arm/cortex-m3/lpc1768/include/core_cm3.h ****                 (PriorityGroupTmp << 8));                                     /* Insert write key a
 892:./prime-framework/arch/arm/cortex-m3/lpc1768/include/core_cm3.h ****   SCB->AIRCR =  reg_value;
 893:./prime-framework/arch/arm/cortex-m3/lpc1768/include/core_cm3.h **** }
 894:./prime-framework/arch/arm/cortex-m3/lpc1768/include/core_cm3.h **** 
 895:./prime-framework/arch/arm/cortex-m3/lpc1768/include/core_cm3.h **** 
 896:./prime-framework/arch/arm/cortex-m3/lpc1768/include/core_cm3.h **** /** \brief  Get Priority Grouping
 897:./prime-framework/arch/arm/cortex-m3/lpc1768/include/core_cm3.h **** 
 898:./prime-framework/arch/arm/cortex-m3/lpc1768/include/core_cm3.h ****   This function gets the priority grouping from NVIC Interrupt Controller.
 899:./prime-framework/arch/arm/cortex-m3/lpc1768/include/core_cm3.h ****   Priority grouping is SCB->AIRCR [10:8] PRIGROUP field.
 900:./prime-framework/arch/arm/cortex-m3/lpc1768/include/core_cm3.h **** 
 901:./prime-framework/arch/arm/cortex-m3/lpc1768/include/core_cm3.h ****     \return                Priority grouping field
 902:./prime-framework/arch/arm/cortex-m3/lpc1768/include/core_cm3.h ****  */
 903:./prime-framework/arch/arm/cortex-m3/lpc1768/include/core_cm3.h **** static __INLINE uint32_t NVIC_GetPriorityGrouping(void)
 904:./prime-framework/arch/arm/cortex-m3/lpc1768/include/core_cm3.h **** {
ARM GAS  C:\Users\Akil\AppData\Local\Temp\cc6kIPJ8.s 			page 18


 905:./prime-framework/arch/arm/cortex-m3/lpc1768/include/core_cm3.h ****   return ((SCB->AIRCR & SCB_AIRCR_PRIGROUP_Msk) >> SCB_AIRCR_PRIGROUP_Pos);   /* read priority grou
 906:./prime-framework/arch/arm/cortex-m3/lpc1768/include/core_cm3.h **** }
 907:./prime-framework/arch/arm/cortex-m3/lpc1768/include/core_cm3.h **** 
 908:./prime-framework/arch/arm/cortex-m3/lpc1768/include/core_cm3.h **** 
 909:./prime-framework/arch/arm/cortex-m3/lpc1768/include/core_cm3.h **** /** \brief  Enable External Interrupt
 910:./prime-framework/arch/arm/cortex-m3/lpc1768/include/core_cm3.h **** 
 911:./prime-framework/arch/arm/cortex-m3/lpc1768/include/core_cm3.h ****     This function enables a device specific interupt in the NVIC interrupt controller.
 912:./prime-framework/arch/arm/cortex-m3/lpc1768/include/core_cm3.h ****     The interrupt number cannot be a negative value.
 913:./prime-framework/arch/arm/cortex-m3/lpc1768/include/core_cm3.h **** 
 914:./prime-framework/arch/arm/cortex-m3/lpc1768/include/core_cm3.h ****     \param [in]      IRQn  Number of the external interrupt to enable
 915:./prime-framework/arch/arm/cortex-m3/lpc1768/include/core_cm3.h ****  */
 916:./prime-framework/arch/arm/cortex-m3/lpc1768/include/core_cm3.h **** static __INLINE void NVIC_EnableIRQ(IRQn_Type IRQn)
 917:./prime-framework/arch/arm/cortex-m3/lpc1768/include/core_cm3.h **** {
  66              		.loc 1 917 0
  67              		.cfi_startproc
  68              		@ args = 0, pretend = 0, frame = 8
  69              		@ frame_needed = 0, uses_anonymous_args = 0
  70              		@ link register save eliminated.
  71 0000 82B0     		sub	sp, sp, #8	@,,
  72              	.LCFI0:
  73              		.cfi_def_cfa_offset 8
  74 0002 0346     		mov	r3, r0	@ tmp118, IRQn
  75 0004 8DF80730 		strb	r3, [sp, #7]	@ tmp119, IRQn
 918:./prime-framework/arch/arm/cortex-m3/lpc1768/include/core_cm3.h ****   NVIC->ISER[((uint32_t)(IRQn) >> 5)] = (1 << ((uint32_t)(IRQn) & 0x1F)); /* enable interrupt */
  76              		.loc 1 918 0
  77 0008 074B     		ldr	r3, .L2	@ D.8705,
  78 000a 9DF90720 		ldrsb	r2, [sp, #7]	@ D.8706, IRQn
  79 000e 5209     		lsrs	r2, r2, #5	@ D.8706, D.8706,
  80 0010 9DF80710 		ldrb	r1, [sp, #7]	@ zero_extendqisi2	@ IRQn.14, IRQn
  81 0014 01F01F01 		and	r1, r1, #31	@ D.8707, D.8707,
  82 0018 0120     		movs	r0, #1	@ tmp120,
  83 001a 00FA01F1 		lsl	r1, r0, r1	@ D.8707, tmp120, D.8707
  84 001e 43F82210 		str	r1, [r3, r2, lsl #2]	@ D.8706, _1->ISER
 919:./prime-framework/arch/arm/cortex-m3/lpc1768/include/core_cm3.h **** }
  85              		.loc 1 919 0
  86 0022 02B0     		add	sp, sp, #8	@,,
  87              		@ sp needed	@
  88 0024 7047     		bx	lr	@
  89              	.L3:
  90 0026 00BF     		.align	2
  91              	.L2:
  92 0028 00E100E0 		.word	-536813312
  93              		.cfi_endproc
  94              	.LFE40:
  95              		.size	NVIC_EnableIRQ, .-NVIC_EnableIRQ
  96              		.align	2
  97              		.thumb
  98              		.thumb_func
  99              		.type	NVIC_DisableIRQ, %function
 100              	NVIC_DisableIRQ:
 101              	.LFB41:
 920:./prime-framework/arch/arm/cortex-m3/lpc1768/include/core_cm3.h **** 
 921:./prime-framework/arch/arm/cortex-m3/lpc1768/include/core_cm3.h **** 
 922:./prime-framework/arch/arm/cortex-m3/lpc1768/include/core_cm3.h **** /** \brief  Disable External Interrupt
 923:./prime-framework/arch/arm/cortex-m3/lpc1768/include/core_cm3.h **** 
 924:./prime-framework/arch/arm/cortex-m3/lpc1768/include/core_cm3.h ****     This function disables a device specific interupt in the NVIC interrupt controller.
 925:./prime-framework/arch/arm/cortex-m3/lpc1768/include/core_cm3.h ****     The interrupt number cannot be a negative value.
ARM GAS  C:\Users\Akil\AppData\Local\Temp\cc6kIPJ8.s 			page 19


 926:./prime-framework/arch/arm/cortex-m3/lpc1768/include/core_cm3.h **** 
 927:./prime-framework/arch/arm/cortex-m3/lpc1768/include/core_cm3.h ****     \param [in]      IRQn  Number of the external interrupt to disable
 928:./prime-framework/arch/arm/cortex-m3/lpc1768/include/core_cm3.h ****  */
 929:./prime-framework/arch/arm/cortex-m3/lpc1768/include/core_cm3.h **** static __INLINE void NVIC_DisableIRQ(IRQn_Type IRQn)
 930:./prime-framework/arch/arm/cortex-m3/lpc1768/include/core_cm3.h **** {
 102              		.loc 1 930 0
 103              		.cfi_startproc
 104              		@ args = 0, pretend = 0, frame = 8
 105              		@ frame_needed = 0, uses_anonymous_args = 0
 106              		@ link register save eliminated.
 107 002c 82B0     		sub	sp, sp, #8	@,,
 108              	.LCFI1:
 109              		.cfi_def_cfa_offset 8
 110 002e 0346     		mov	r3, r0	@ tmp118, IRQn
 111 0030 8DF80730 		strb	r3, [sp, #7]	@ tmp119, IRQn
 931:./prime-framework/arch/arm/cortex-m3/lpc1768/include/core_cm3.h ****   NVIC->ICER[((uint32_t)(IRQn) >> 5)] = (1 << ((uint32_t)(IRQn) & 0x1F)); /* disable interrupt */
 112              		.loc 1 931 0
 113 0034 074B     		ldr	r3, .L5	@ D.8708,
 114 0036 9DF90720 		ldrsb	r2, [sp, #7]	@ D.8709, IRQn
 115 003a 5209     		lsrs	r2, r2, #5	@ D.8709, D.8709,
 116 003c 9DF80710 		ldrb	r1, [sp, #7]	@ zero_extendqisi2	@ IRQn.15, IRQn
 117 0040 01F01F01 		and	r1, r1, #31	@ D.8710, D.8710,
 118 0044 0120     		movs	r0, #1	@ tmp120,
 119 0046 00FA01F1 		lsl	r1, r0, r1	@ D.8710, tmp120, D.8710
 120 004a 2032     		adds	r2, r2, #32	@ tmp121, D.8709,
 121 004c 43F82210 		str	r1, [r3, r2, lsl #2]	@ D.8709, _1->ICER
 932:./prime-framework/arch/arm/cortex-m3/lpc1768/include/core_cm3.h **** }
 122              		.loc 1 932 0
 123 0050 02B0     		add	sp, sp, #8	@,,
 124              		@ sp needed	@
 125 0052 7047     		bx	lr	@
 126              	.L6:
 127              		.align	2
 128              	.L5:
 129 0054 00E100E0 		.word	-536813312
 130              		.cfi_endproc
 131              	.LFE41:
 132              		.size	NVIC_DisableIRQ, .-NVIC_DisableIRQ
 133              		.bss
 134              		.align	2
 135              	gs_data:
 136 0000 00000000 		.space	32
 136      00000000 
 136      00000000 
 136      00000000 
 136      00000000 
 137              		.comm	NODE_ID,3,4
 138              		.global	Ultrasonic_no
 139              		.type	Ultrasonic_no, %object
 140              		.size	Ultrasonic_no, 1
 141              	Ultrasonic_no:
 142 0020 00       		.space	1
 143              		.global	vcnl_no
 144              		.type	vcnl_no, %object
 145              		.size	vcnl_no, 1
 146              	vcnl_no:
 147 0021 00       		.space	1
ARM GAS  C:\Users\Akil\AppData\Local\Temp\cc6kIPJ8.s 			page 20


 148              		.align	1
 149              	CO_timer1ms:
 150 0022 0000     		.space	2
 151              		.align	2
 152              	gs_dbgMsg:
 153 0024 00000000 		.space	128
 153      00000000 
 153      00000000 
 153      00000000 
 153      00000000 
 154              		.text
 155              		.align	2
 156              		.global	delay
 157              		.thumb
 158              		.thumb_func
 159              		.type	delay, %function
 160              	delay:
 161              	.LFB55:
 162              		.file 2 "src/Example_Master.c"
   1:src/Example_Master.c **** #include <stdio.h>
   2:src/Example_Master.c **** #include <stdlib.h>
   3:src/Example_Master.c **** #include <string.h>
   4:src/Example_Master.c **** #include "prime_framework.h"
   5:src/Example_Master.c **** #include "CANopen.h"
   6:src/Example_Master.c **** #include "user_board.h"
   7:src/Example_Master.c **** #include "prime_uart0.h"
   8:src/Example_Master.c **** #include "application.h"
   9:src/Example_Master.c **** 
  10:src/Example_Master.c **** #define MAX_NODES 3
  11:src/Example_Master.c **** //#define ULTRA
  12:src/Example_Master.c **** //#define VCNL4000
  13:src/Example_Master.c **** //#define MPU6050 
  14:src/Example_Master.c **** #define CLI_DATA_MAX_LEN        32
  15:src/Example_Master.c **** static PFbyte gs_data[CLI_DATA_MAX_LEN];
  16:src/Example_Master.c **** PFbyte NODE_ID[MAX_NODES] ;
  17:src/Example_Master.c **** PFbyte Ultrasonic_no = 0,vcnl_no=0;
  18:src/Example_Master.c **** #define EXAMSTR_CAN_COMM_TEST   0
  19:src/Example_Master.c **** 
  20:src/Example_Master.c **** #define EXAMSTR_CMD_MAX_LEN  64
  21:src/Example_Master.c **** #define EXAMSTR_DBGMSG_MAX_LEN  128
  22:src/Example_Master.c **** 
  23:src/Example_Master.c **** #define EXAMSTR_DEBUG(...) \
  24:src/Example_Master.c **** { \
  25:src/Example_Master.c ****     snprintf(gs_dbgMsg, sizeof(gs_dbgMsg) - 1, __VA_ARGS__); \
  26:src/Example_Master.c ****     DEBUGS(gs_dbgMsg); \
  27:src/Example_Master.c **** }
  28:src/Example_Master.c **** #define EXAMSTR_ERROR(...)   EXAMSTR_DEBUG("\r\rERROR: " __VA_ARGS__)
  29:src/Example_Master.c **** #define EXAMSTR_PANIC(...)   {EXAMSTR_DEBUG("\r\rPANIC: " __VA_ARGS__); while(1);}
  30:src/Example_Master.c **** 
  31:src/Example_Master.c **** void app_timerIrqHandler(void);
  32:src/Example_Master.c **** void app_canIrqHandler(void);
  33:src/Example_Master.c **** 
  34:src/Example_Master.c **** static volatile PFword CO_timer1ms;
  35:src/Example_Master.c **** static char gs_dbgMsg[EXAMSTR_DBGMSG_MAX_LEN];
  36:src/Example_Master.c **** 
  37:src/Example_Master.c **** static void cli_handleCmd(PFbyte *cmd);
  38:src/Example_Master.c **** static void cli_process(PFword timer1msDiff);
ARM GAS  C:\Users\Akil\AppData\Local\Temp\cc6kIPJ8.s 			page 21


  39:src/Example_Master.c **** 
  40:src/Example_Master.c **** 
  41:src/Example_Master.c **** void delay()
  42:src/Example_Master.c **** {
 163              		.loc 2 42 0
 164              		.cfi_startproc
 165              		@ args = 0, pretend = 0, frame = 8
 166              		@ frame_needed = 0, uses_anonymous_args = 0
 167              		@ link register save eliminated.
 168 0058 82B0     		sub	sp, sp, #8	@,,
 169              	.LCFI2:
 170              		.cfi_def_cfa_offset 8
  43:src/Example_Master.c **** 	volatile int i=0,j=0;
 171              		.loc 2 43 0
 172 005a 0023     		movs	r3, #0	@ tmp116,
 173 005c 0193     		str	r3, [sp, #4]	@ tmp116, i
 174 005e 0023     		movs	r3, #0	@ tmp117,
 175 0060 0093     		str	r3, [sp]	@ tmp117, j
  44:src/Example_Master.c **** 	for(i=0;i<5000;i++)
 176              		.loc 2 44 0
 177 0062 0023     		movs	r3, #0	@ tmp118,
 178 0064 0193     		str	r3, [sp, #4]	@ tmp118, i
 179 0066 0DE0     		b	.L8	@
 180              	.L11:
  45:src/Example_Master.c **** 	{
  46:src/Example_Master.c **** 		for(j=0;j<300;j++)
 181              		.loc 2 46 0
 182 0068 0023     		movs	r3, #0	@ tmp119,
 183 006a 0093     		str	r3, [sp]	@ tmp119, j
 184 006c 03E0     		b	.L9	@
 185              	.L10:
  47:src/Example_Master.c **** 		{
  48:src/Example_Master.c **** 			asm("nop");
 186              		.loc 2 48 0 discriminator 2
 187              	@ 48 "src/Example_Master.c" 1
 188 006e 00BF     		nop
 189              	@ 0 "" 2
  46:src/Example_Master.c **** 		for(j=0;j<300;j++)
 190              		.loc 2 46 0 discriminator 2
 191              		.thumb
 192 0070 009B     		ldr	r3, [sp]	@ j.0, j
 193 0072 0133     		adds	r3, r3, #1	@ j.1, j.0,
 194 0074 0093     		str	r3, [sp]	@ j.1, j
 195              	.L9:
  46:src/Example_Master.c **** 		for(j=0;j<300;j++)
 196              		.loc 2 46 0 is_stmt 0 discriminator 1
 197 0076 009B     		ldr	r3, [sp]	@ j.2, j
 198 0078 B3F5967F 		cmp	r3, #300	@ j.2,
 199 007c F7DB     		blt	.L10	@,
  44:src/Example_Master.c **** 	for(i=0;i<5000;i++)
 200              		.loc 2 44 0 is_stmt 1
 201 007e 019B     		ldr	r3, [sp, #4]	@ i.3, i
 202 0080 0133     		adds	r3, r3, #1	@ i.4, i.3,
 203 0082 0193     		str	r3, [sp, #4]	@ i.4, i
 204              	.L8:
  44:src/Example_Master.c **** 	for(i=0;i<5000;i++)
 205              		.loc 2 44 0 is_stmt 0 discriminator 1
ARM GAS  C:\Users\Akil\AppData\Local\Temp\cc6kIPJ8.s 			page 22


 206 0084 019A     		ldr	r2, [sp, #4]	@ i.5, i
 207 0086 41F28733 		movw	r3, #4999	@ tmp120,
 208 008a 9A42     		cmp	r2, r3	@ i.5, tmp120
 209 008c ECDD     		ble	.L11	@,
  49:src/Example_Master.c **** 		}
  50:src/Example_Master.c **** 	}
  51:src/Example_Master.c **** }
 210              		.loc 2 51 0 is_stmt 1
 211 008e 02B0     		add	sp, sp, #8	@,,
 212              		@ sp needed	@
 213 0090 7047     		bx	lr	@
 214              		.cfi_endproc
 215              	.LFE55:
 216              		.size	delay, .-delay
 217              		.section	.rodata
 218              		.align	2
 219              	.LC0:
 220 0000 2A2A2A20 		.ascii	"*** PHI Robotics ***\015\000"
 220      50484920 
 220      526F626F 
 220      74696373 
 220      202A2A2A 
 221 0016 0000     		.align	2
 222              	.LC1:
 223 0018 2A2A2A20 		.ascii	"*** CANopen IO Master ***\015>\000"
 223      43414E6F 
 223      70656E20 
 223      494F204D 
 223      61737465 
 224              		.align	2
 225              	.LC2:
 226 0034 0D0D5041 		.ascii	"\015\015PANIC: Invalid CO_OD_RAM alignment!\012\000"
 226      4E49433A 
 226      20496E76 
 226      616C6964 
 226      20434F5F 
 227 005b 00       		.align	2
 228              	.LC3:
 229 005c 0D0D5041 		.ascii	"\015\015PANIC: Invalid CO_OD_EEPROM alignment!\012\000"
 229      4E49433A 
 229      20496E76 
 229      616C6964 
 229      20434F5F 
 230 0086 0000     		.align	2
 231              	.LC4:
 232 0088 0D0D5041 		.ascii	"\015\015PANIC: Invalid CO_OD_ROM alignment!\012\000"
 232      4E49433A 
 232      20496E76 
 232      616C6964 
 232      20434F5F 
 233 00af 00       		.align	2
 234              	.LC5:
 235 00b0 0D0D5041 		.ascii	"\015\015PANIC: Failed to init CANopen stack!\012\000"
 235      4E49433A 
 235      20466169 
 235      6C656420 
 235      746F2069 
ARM GAS  C:\Users\Akil\AppData\Local\Temp\cc6kIPJ8.s 			page 23


 236              		.align	2
 237              	.LC6:
 238 00d8 73646F72 		.ascii	"sdor 01 6000 01\000"
 238      20303120 
 238      36303030 
 238      20303100 
 239              		.align	2
 240              	.LC7:
 241 00e8 73646F72 		.ascii	"sdor 01 6200 01\000"
 241      20303120 
 241      36323030 
 241      20303100 
 242              		.align	2
 243              	.LC8:
 244 00f8 73646F72 		.ascii	"sdor 01 6201 %02X\000"
 244      20303120 
 244      36323031 
 244      20253032 
 244      5800
 245 010a 0000     		.align	2
 246              	.LC9:
 247 010c 73646F72 		.ascii	"sdor %02X 6211 01\000"
 247      20253032 
 247      58203632 
 247      31312030 
 247      3100
 248 011e 0000     		.align	2
 249              	.LC10:
 250 0120 73646F72 		.ascii	"sdor %02X 6212 01\000"
 250      20253032 
 250      58203632 
 250      31322030 
 250      3100
 251 0132 0000     		.align	2
 252              	.LC11:
 253 0134 73646F72 		.ascii	"sdor %02X 6215 %02X\000"
 253      20253032 
 253      58203632 
 253      31352025 
 253      30325800 
 254              		.align	2
 255              	.LC12:
 256 0148 0D0D4E6F 		.ascii	"\015\015Node[%X] Distance = %d mm\000"
 256      64655B25 
 256      585D2044 
 256      69737461 
 256      6E636520 
 257              		.align	2
 258              	.LC13:
 259 0164 73646F72 		.ascii	"sdor %02X 6211 02\000"
 259      20253032 
 259      58203632 
 259      31312030 
 259      3200
 260 0176 0000     		.align	2
 261              	.LC14:
 262 0178 73646F72 		.ascii	"sdor %02X 6212 02\000"
ARM GAS  C:\Users\Akil\AppData\Local\Temp\cc6kIPJ8.s 			page 24


 262      20253032 
 262      58203632 
 262      31322030 
 262      3200
 263 018a 0000     		.align	2
 264              	.LC15:
 265 018c 73646F72 		.ascii	"sdor %02X 6216 %02X\000"
 265      20253032 
 265      58203632 
 265      31362025 
 265      30325800 
 266              		.align	2
 267              	.LC16:
 268 01a0 0D4E6F64 		.ascii	"\015Node[%X] Ambiance = %X%X \000"
 268      655B2558 
 268      5D20416D 
 268      6269616E 
 268      6365203D 
 269 01bb 00       		.align	2
 270              	.LC17:
 271 01bc 0D4E6F64 		.ascii	"\015Node[%X] Proximity = %X%X \000"
 271      655B2558 
 271      5D205072 
 271      6F78696D 
 271      69747920 
 272              		.align	2
 273              	.LC18:
 274 01d8 0D526573 		.ascii	"\015Reset node!\000"
 274      6574206E 
 274      6F646521 
 274      00
 275              		.text
 276 0092 00BF     		.align	2
 277              		.global	main
 278              		.thumb
 279              		.thumb_func
 280              		.type	main, %function
 281              	main:
 282              	.LFB56:
  52:src/Example_Master.c **** 
  53:src/Example_Master.c **** /* main ***********************************************************************/
  54:src/Example_Master.c **** int main (void)
  55:src/Example_Master.c **** {
 283              		.loc 2 55 0
 284              		.cfi_startproc
 285              		@ args = 0, pretend = 0, frame = 208
 286              		@ frame_needed = 0, uses_anonymous_args = 0
 287 0094 30B5     		push	{r4, r5, lr}	@
 288              	.LCFI3:
 289              		.cfi_def_cfa_offset 12
 290              		.cfi_offset 4, -12
 291              		.cfi_offset 5, -8
 292              		.cfi_offset 14, -4
 293 0096 B7B0     		sub	sp, sp, #220	@,,
 294              	.LCFI4:
 295              		.cfi_def_cfa_offset 232
  56:src/Example_Master.c ****     PFEnCoNmtResetCmd reset = enCO_RESET_NOT;
ARM GAS  C:\Users\Akil\AppData\Local\Temp\cc6kIPJ8.s 			page 25


 296              		.loc 2 56 0
 297 0098 0023     		movs	r3, #0	@ tmp203,
 298 009a 8DF8D730 		strb	r3, [sp, #215]	@ tmp204, reset
  57:src/Example_Master.c ****     PFbyte   cmdBuf[EXAMSTR_CMD_MAX_LEN];
  58:src/Example_Master.c ****     PFbyte   cmdIdx = 0,i;
 299              		.loc 2 58 0
 300 009e 0023     		movs	r3, #0	@ tmp205,
 301 00a0 8DF8D130 		strb	r3, [sp, #209]	@ tmp206, cmdIdx
  59:src/Example_Master.c **** 	PFword j;
  60:src/Example_Master.c ****     PFCoCanModuleHwConfig canHwCfg;
  61:src/Example_Master.c **** 	PFdword cnt;
  62:src/Example_Master.c **** 	PFbyte buf[123];
  63:src/Example_Master.c **** 	PFbyte c = 1;
 302              		.loc 2 63 0
 303 00a4 0123     		movs	r3, #1	@ tmp207,
 304 00a6 8DF8D030 		strb	r3, [sp, #208]	@ tmp208, c
  64:src/Example_Master.c **** 	PFbyte number_of_nodes=0;
 305              		.loc 2 64 0
 306 00aa 0023     		movs	r3, #0	@ tmp209,
 307 00ac 8DF8CF30 		strb	r3, [sp, #207]	@ tmp210, number_of_nodes
  65:src/Example_Master.c **** 
  66:src/Example_Master.c ****     if(pfBoardinit(&canHwCfg) != 0)
 308              		.loc 2 66 0
 309 00b0 21AB     		add	r3, sp, #132	@ tmp211,,
 310 00b2 1846     		mov	r0, r3	@, tmp211
 311 00b4 FFF7FEFF 		bl	pfBoardinit	@
 312 00b8 0346     		mov	r3, r0	@ D.8711,
 313 00ba 002B     		cmp	r3, #0	@ D.8711,
 314 00bc 00D0     		beq	.L13	@,
 315              	.L14:
  67:src/Example_Master.c ****         while(1);
 316              		.loc 2 67 0 discriminator 1
 317 00be FEE7     		b	.L14	@
 318              	.L13:
  68:src/Example_Master.c **** 		
  69:src/Example_Master.c **** 	EXAMSTR_DEBUG("*** PHI Robotics ***\r");
 319              		.loc 2 69 0
 320 00c0 944A     		ldr	r2, .L43	@ tmp212,
 321 00c2 954B     		ldr	r3, .L43+4	@ tmp213,
 322 00c4 1446     		mov	r4, r2	@ tmp214, tmp212
 323 00c6 1D46     		mov	r5, r3	@ tmp215, tmp213
 324 00c8 0FCD     		ldmia	r5!, {r0, r1, r2, r3}	@ tmp215,,,,
 325 00ca 0FC4     		stmia	r4!, {r0, r1, r2, r3}	@ tmp214,,,,
 326 00cc 95E80300 		ldmia	r5, {r0, r1}	@ tmp215,,
 327 00d0 2060     		str	r0, [r4]	@, MEM[(void *)&gs_dbgMsg]
 328 00d2 0434     		adds	r4, r4, #4	@ tmp214, tmp214,
 329 00d4 2180     		strh	r1, [r4]	@ movhi	@, MEM[(void *)&gs_dbgMsg]
 330 00d6 8F48     		ldr	r0, .L43	@,
 331 00d8 FFF7FEFF 		bl	pfUart0WriteString	@
  70:src/Example_Master.c ****     EXAMSTR_DEBUG("*** CANopen IO Master ***\r>");
 332              		.loc 2 70 0
 333 00dc 8D4A     		ldr	r2, .L43	@ tmp216,
 334 00de 8F4B     		ldr	r3, .L43+8	@ tmp217,
 335 00e0 1446     		mov	r4, r2	@ tmp218, tmp216
 336 00e2 1D46     		mov	r5, r3	@ tmp219, tmp217
 337 00e4 0FCD     		ldmia	r5!, {r0, r1, r2, r3}	@ tmp219,,,,
 338 00e6 0FC4     		stmia	r4!, {r0, r1, r2, r3}	@ tmp218,,,,
ARM GAS  C:\Users\Akil\AppData\Local\Temp\cc6kIPJ8.s 			page 26


 339 00e8 95E80700 		ldmia	r5, {r0, r1, r2}	@ tmp219,,,
 340 00ec 84E80700 		stmia	r4, {r0, r1, r2}	@ tmp218,,,
 341 00f0 8848     		ldr	r0, .L43	@,
 342 00f2 FFF7FEFF 		bl	pfUart0WriteString	@
  71:src/Example_Master.c **** 	
  72:src/Example_Master.c **** 
  73:src/Example_Master.c **** #if EXAMSTR_CAN_COMM_TEST == 1
  74:src/Example_Master.c ****     CAN_Init(canHwCfg.uBase, 250000);
  75:src/Example_Master.c **** 	#if 1//def __LPC17XX__
  76:src/Example_Master.c ****     CAN_SetAFMode(LPC_CANAF, CAN_AccBP);
  77:src/Example_Master.c **** 	#else
  78:src/Example_Master.c ****     CAN_SetAFMode(CAN_ACC_BP);
  79:src/Example_Master.c **** 	#endif
  80:src/Example_Master.c ****     //CAN_ModeConfig(canHwCfg.uBase, CAN_RESET_MODE, ENABLE);
  81:src/Example_Master.c ****     //CAN_ModeConfig(canHwCfg.uBase, CAN_SELFTEST_MODE, ENABLE);
  82:src/Example_Master.c ****     CAN_IRQCmd(canHwCfg.uBase, CANINT_RIE, ENABLE);
  83:src/Example_Master.c ****     CAN_IRQCmd(canHwCfg.uBase, CANINT_TIE1, ENABLE);
  84:src/Example_Master.c ****     CAN_IRQCmd(canHwCfg.uBase, CANINT_TIE2, ENABLE);
  85:src/Example_Master.c ****     CAN_IRQCmd(canHwCfg.uBase, CANINT_TIE3, ENABLE);
  86:src/Example_Master.c ****     CAN_IRQCmd(canHwCfg.uBase, CANINT_EIE, ENABLE);
  87:src/Example_Master.c ****     CAN_IRQCmd(canHwCfg.uBase, CANINT_DOIE, ENABLE);
  88:src/Example_Master.c ****     CAN_IRQCmd(canHwCfg.uBase, CANINT_EPIE, ENABLE);
  89:src/Example_Master.c ****     CAN_IRQCmd(canHwCfg.uBase, CANINT_ALIE, ENABLE);
  90:src/Example_Master.c ****     CAN_IRQCmd(canHwCfg.uBase, CANINT_BEIE, ENABLE);
  91:src/Example_Master.c ****     NVIC_EnableIRQ(CAN_IRQn);
  92:src/Example_Master.c **** 
  93:src/Example_Master.c ****     while(1)
  94:src/Example_Master.c ****     {
  95:src/Example_Master.c **** #if 1//__LPC17XX__
  96:src/Example_Master.c ****         if(board_get_char() == 's')
  97:src/Example_Master.c ****         {
  98:src/Example_Master.c ****             CAN_MSG_Type msg;
  99:src/Example_Master.c ****             msg.id = 0xc;
 100:src/Example_Master.c ****             msg.len = 8;
 101:src/Example_Master.c ****             msg.type = DATA_FRAME;//REMOTE_FRAME;
 102:src/Example_Master.c ****             msg.format = STD_ID_FORMAT;
 103:src/Example_Master.c ****             EXAMSTR_DEBUG("Send message\n");
 104:src/Example_Master.c ****             if(CAN_SendMsg(canHwCfg.uBase, &msg) != SUCCESS)
 105:src/Example_Master.c ****             {
 106:src/Example_Master.c ****                 EXAMSTR_ERROR("Failed to send message!\n");
 107:src/Example_Master.c ****             }
 108:src/Example_Master.c ****         }
 109:src/Example_Master.c **** #endif
 110:src/Example_Master.c ****     }
 111:src/Example_Master.c **** #endif
 112:src/Example_Master.c **** 
 113:src/Example_Master.c ****     //Verify, if OD structures have proper alignment of initial values
 114:src/Example_Master.c ****     if(CO_OD_RAM.FirstWord != CO_OD_RAM.LastWord)
 343              		.loc 2 114 0
 344 00f6 8A4B     		ldr	r3, .L43+12	@ tmp220,
 345 00f8 1A68     		ldr	r2, [r3]	@ D.8712, CO_OD_RAM.FirstWord
 346 00fa 894B     		ldr	r3, .L43+12	@ tmp221,
 347 00fc D3F80035 		ldr	r3, [r3, #1280]	@ D.8712, CO_OD_RAM.LastWord
 348 0100 9A42     		cmp	r2, r3	@ D.8712, D.8712
 349 0102 13D0     		beq	.L15	@,
 115:src/Example_Master.c ****         EXAMSTR_PANIC("Invalid CO_OD_RAM alignment!\n");
 350              		.loc 2 115 0
ARM GAS  C:\Users\Akil\AppData\Local\Temp\cc6kIPJ8.s 			page 27


 351 0104 834A     		ldr	r2, .L43	@ tmp222,
 352 0106 874B     		ldr	r3, .L43+16	@ tmp223,
 353 0108 1446     		mov	r4, r2	@ tmp224, tmp222
 354 010a 1D46     		mov	r5, r3	@ tmp225, tmp223
 355 010c 0FCD     		ldmia	r5!, {r0, r1, r2, r3}	@ tmp225,,,,
 356 010e 0FC4     		stmia	r4!, {r0, r1, r2, r3}	@ tmp224,,,,
 357 0110 0FCD     		ldmia	r5!, {r0, r1, r2, r3}	@ tmp225,,,,
 358 0112 0FC4     		stmia	r4!, {r0, r1, r2, r3}	@ tmp224,,,,
 359 0114 95E80300 		ldmia	r5, {r0, r1}	@ tmp225,,
 360 0118 2060     		str	r0, [r4]	@, MEM[(void *)&gs_dbgMsg]
 361 011a 0434     		adds	r4, r4, #4	@ tmp224, tmp224,
 362 011c 2180     		strh	r1, [r4]	@ movhi	@, MEM[(void *)&gs_dbgMsg]
 363 011e 0234     		adds	r4, r4, #2	@ tmp224, tmp224,
 364 0120 0B0C     		lsrs	r3, r1, #16	@ tmp226,,
 365 0122 2370     		strb	r3, [r4]	@ tmp227, MEM[(void *)&gs_dbgMsg]
 366 0124 7B48     		ldr	r0, .L43	@,
 367 0126 FFF7FEFF 		bl	pfUart0WriteString	@
 368              	.L16:
 369              		.loc 2 115 0 is_stmt 0 discriminator 1
 370 012a FEE7     		b	.L16	@
 371              	.L15:
 116:src/Example_Master.c ****     if(CO_OD_EEPROM.FirstWord != CO_OD_EEPROM.LastWord)
 372              		.loc 2 116 0 is_stmt 1
 373 012c 7E4B     		ldr	r3, .L43+20	@ tmp228,
 374 012e 1A68     		ldr	r2, [r3]	@ D.8712, CO_OD_EEPROM.FirstWord
 375 0130 7D4B     		ldr	r3, .L43+20	@ tmp229,
 376 0132 9B6C     		ldr	r3, [r3, #72]	@ D.8712, CO_OD_EEPROM.LastWord
 377 0134 9A42     		cmp	r2, r3	@ D.8712, D.8712
 378 0136 0FD0     		beq	.L17	@,
 117:src/Example_Master.c ****         EXAMSTR_PANIC("Invalid CO_OD_EEPROM alignment!\n");
 379              		.loc 2 117 0
 380 0138 764A     		ldr	r2, .L43	@ tmp230,
 381 013a 7C4B     		ldr	r3, .L43+24	@ tmp231,
 382 013c 1446     		mov	r4, r2	@ tmp232, tmp230
 383 013e 1D46     		mov	r5, r3	@ tmp233, tmp231
 384 0140 0FCD     		ldmia	r5!, {r0, r1, r2, r3}	@ tmp233,,,,
 385 0142 0FC4     		stmia	r4!, {r0, r1, r2, r3}	@ tmp232,,,,
 386 0144 0FCD     		ldmia	r5!, {r0, r1, r2, r3}	@ tmp233,,,,
 387 0146 0FC4     		stmia	r4!, {r0, r1, r2, r3}	@ tmp232,,,,
 388 0148 95E80700 		ldmia	r5, {r0, r1, r2}	@ tmp233,,,
 389 014c 03C4     		stmia	r4!, {r0, r1}	@ tmp232,,
 390 014e 2280     		strh	r2, [r4]	@ movhi	@, MEM[(void *)&gs_dbgMsg]
 391 0150 7048     		ldr	r0, .L43	@,
 392 0152 FFF7FEFF 		bl	pfUart0WriteString	@
 393              	.L18:
 394              		.loc 2 117 0 is_stmt 0 discriminator 1
 395 0156 FEE7     		b	.L18	@
 396              	.L17:
 118:src/Example_Master.c ****     if(CO_ROM_READ32(CO_OD_ROM.FirstWord) != CO_ROM_READ32(CO_OD_ROM.LastWord))
 397              		.loc 2 118 0 is_stmt 1
 398 0158 754B     		ldr	r3, .L43+28	@ tmp234,
 399 015a 1A68     		ldr	r2, [r3]	@ D.8712, CO_OD_ROM.FirstWord
 400 015c 744B     		ldr	r3, .L43+28	@ tmp235,
 401 015e D3F84437 		ldr	r3, [r3, #1860]	@ D.8712, CO_OD_ROM.LastWord
 402 0162 9A42     		cmp	r2, r3	@ D.8712, D.8712
 403 0164 13D0     		beq	.L19	@,
 119:src/Example_Master.c ****         EXAMSTR_PANIC("Invalid CO_OD_ROM alignment!\n");
ARM GAS  C:\Users\Akil\AppData\Local\Temp\cc6kIPJ8.s 			page 28


 404              		.loc 2 119 0
 405 0166 6B4A     		ldr	r2, .L43	@ tmp236,
 406 0168 724B     		ldr	r3, .L43+32	@ tmp237,
 407 016a 1446     		mov	r4, r2	@ tmp238, tmp236
 408 016c 1D46     		mov	r5, r3	@ tmp239, tmp237
 409 016e 0FCD     		ldmia	r5!, {r0, r1, r2, r3}	@ tmp239,,,,
 410 0170 0FC4     		stmia	r4!, {r0, r1, r2, r3}	@ tmp238,,,,
 411 0172 0FCD     		ldmia	r5!, {r0, r1, r2, r3}	@ tmp239,,,,
 412 0174 0FC4     		stmia	r4!, {r0, r1, r2, r3}	@ tmp238,,,,
 413 0176 95E80300 		ldmia	r5, {r0, r1}	@ tmp239,,
 414 017a 2060     		str	r0, [r4]	@, MEM[(void *)&gs_dbgMsg]
 415 017c 0434     		adds	r4, r4, #4	@ tmp238, tmp238,
 416 017e 2180     		strh	r1, [r4]	@ movhi	@, MEM[(void *)&gs_dbgMsg]
 417 0180 0234     		adds	r4, r4, #2	@ tmp238, tmp238,
 418 0182 0B0C     		lsrs	r3, r1, #16	@ tmp240,,
 419 0184 2370     		strb	r3, [r4]	@ tmp241, MEM[(void *)&gs_dbgMsg]
 420 0186 6348     		ldr	r0, .L43	@,
 421 0188 FFF7FEFF 		bl	pfUart0WriteString	@
 422              	.L20:
 423              		.loc 2 119 0 is_stmt 0 discriminator 1
 424 018c FEE7     		b	.L20	@
 425              	.L19:
 120:src/Example_Master.c **** 	
 121:src/Example_Master.c ****     /* initialize EEPROM - part 1 */
 122:src/Example_Master.c **** #ifdef BOARD_USE_EEPROM
 123:src/Example_Master.c ****     PFEnCoReturnError eeStatus = CO_EE_init_1(&CO_EEO, (PFbyte*) &CO_OD_EEPROM, sizeof(CO_OD_EEPROM
 124:src/Example_Master.c ****                             (PFbyte*) &CO_OD_ROM, sizeof(CO_OD_ROM));
 125:src/Example_Master.c ****     if(eeStatus != CO_ERROR_NO)
 126:src/Example_Master.c **** 	{
 127:src/Example_Master.c ****         EXAMSTR_ERROR("EEPROM initialization failure!\n");
 128:src/Example_Master.c ****     }
 129:src/Example_Master.c **** #endif
 130:src/Example_Master.c **** 
 131:src/Example_Master.c **** 
 132:src/Example_Master.c ****     programStart();
 426              		.loc 2 132 0 is_stmt 1
 427 018e FFF7FEFF 		bl	programStart	@
 133:src/Example_Master.c **** 
 134:src/Example_Master.c ****     //increase variable each startup. Variable is stored in eeprom.
 135:src/Example_Master.c ****     OD_powerOnCounter++;
 428              		.loc 2 135 0
 429 0192 654B     		ldr	r3, .L43+20	@ tmp242,
 430 0194 5B68     		ldr	r3, [r3, #4]	@ D.8712, CO_OD_EEPROM.powerOnCounter
 431 0196 5A1C     		adds	r2, r3, #1	@ D.8712, D.8712,
 432 0198 634B     		ldr	r3, .L43+20	@ tmp243,
 433 019a 5A60     		str	r2, [r3, #4]	@ D.8712, CO_OD_EEPROM.powerOnCounter
 136:src/Example_Master.c **** 
 137:src/Example_Master.c ****     while(reset != enCO_RESET_APP)
 434              		.loc 2 137 0
 435 019c 52E2     		b	.L21	@
 436              	.L41:
 437              	.LBB2:
 138:src/Example_Master.c ****     {
 139:src/Example_Master.c ****         /* CANopen communication reset - initialize CANopen objects */
 140:src/Example_Master.c ****         PFEnCoReturnError err;
 141:src/Example_Master.c ****         PFword timer1msPrevious;
 142:src/Example_Master.c ****         //PFword TMR_TMR_PREV = 0;
ARM GAS  C:\Users\Akil\AppData\Local\Temp\cc6kIPJ8.s 			page 29


 143:src/Example_Master.c **** 
 144:src/Example_Master.c ****         //disable timer and CAN interrupts
 145:src/Example_Master.c ****         timer_disableIrq();
 438              		.loc 2 145 0
 439 019e 1D20     		movs	r0, #29	@,
 440 01a0 FFF744FF 		bl	NVIC_DisableIRQ	@
 146:src/Example_Master.c ****         can_disableIrq();
 441              		.loc 2 146 0
 442 01a4 1920     		movs	r0, #25	@,
 443 01a6 FFF741FF 		bl	NVIC_DisableIRQ	@
 147:src/Example_Master.c **** 		
 148:src/Example_Master.c ****         //initialize CANopen
 149:src/Example_Master.c ****         err = pfCoInit(/*CO_memPool,*/ &canHwCfg);
 444              		.loc 2 149 0
 445 01aa 21AB     		add	r3, sp, #132	@ tmp244,,
 446 01ac 1846     		mov	r0, r3	@, tmp244
 447 01ae FFF7FEFF 		bl	pfCoInit	@
 448 01b2 0346     		mov	r3, r0	@ tmp245,
 449 01b4 8DF8CE30 		strb	r3, [sp, #206]	@ tmp246, err
 150:src/Example_Master.c **** 		if(err != enCoErrorNo)
 450              		.loc 2 150 0
 451 01b8 9DF9CE30 		ldrsb	r3, [sp, #206]	@ tmp247, err
 452 01bc 002B     		cmp	r3, #0	@ tmp247,
 453 01be 0FD0     		beq	.L22	@,
 151:src/Example_Master.c ****         {
 152:src/Example_Master.c ****             EXAMSTR_PANIC("Failed to init CANopen stack!\n");
 454              		.loc 2 152 0
 455 01c0 544A     		ldr	r2, .L43	@ tmp248,
 456 01c2 5D4B     		ldr	r3, .L43+36	@ tmp249,
 457 01c4 1446     		mov	r4, r2	@ tmp250, tmp248
 458 01c6 1D46     		mov	r5, r3	@ tmp251, tmp249
 459 01c8 0FCD     		ldmia	r5!, {r0, r1, r2, r3}	@ tmp251,,,,
 460 01ca 0FC4     		stmia	r4!, {r0, r1, r2, r3}	@ tmp250,,,,
 461 01cc 0FCD     		ldmia	r5!, {r0, r1, r2, r3}	@ tmp251,,,,
 462 01ce 0FC4     		stmia	r4!, {r0, r1, r2, r3}	@ tmp250,,,,
 463 01d0 95E80300 		ldmia	r5, {r0, r1}	@ tmp251,,
 464 01d4 84E80300 		stmia	r4, {r0, r1}	@ tmp250,,
 465 01d8 4E48     		ldr	r0, .L43	@,
 466 01da FFF7FEFF 		bl	pfUart0WriteString	@
 467              	.L23:
 468              		.loc 2 152 0 is_stmt 0 discriminator 1
 469 01de FEE7     		b	.L23	@
 470              	.L22:
 153:src/Example_Master.c ****             //CO_errorReport(CO->EM, ERROR_MEMORY_ALLOCATION_ERROR, err);
 154:src/Example_Master.c ****         }
 155:src/Example_Master.c **** 
 156:src/Example_Master.c ****         /* initialize eeprom - part 2 */
 157:src/Example_Master.c **** #ifdef BOARD_USE_EEPROM
 158:src/Example_Master.c ****         CO_EE_init_2(&CO_EEO, eeStatus, CO->SDO, CO->em);
 159:src/Example_Master.c **** #endif
 160:src/Example_Master.c **** 
 161:src/Example_Master.c ****         //initialize variables
 162:src/Example_Master.c ****        timer1msPrevious = CO_timer1ms;
 471              		.loc 2 162 0 is_stmt 1
 472 01e0 564B     		ldr	r3, .L43+40	@ tmp252,
 473 01e2 1B88     		ldrh	r3, [r3]	@ movhi	@ tmp253, CO_timer1ms
 474 01e4 ADF8D230 		strh	r3, [sp, #210]	@ movhi	@ tmp253, timer1msPrevious
ARM GAS  C:\Users\Akil\AppData\Local\Temp\cc6kIPJ8.s 			page 30


 163:src/Example_Master.c ****        OD_performance[ODA_performance_mainCycleMaxTime] = 0;
 475              		.loc 2 163 0
 476 01e8 4D4B     		ldr	r3, .L43+12	@ tmp254,
 477 01ea 0022     		movs	r2, #0	@ tmp256,
 478 01ec A3F85A20 		strh	r2, [r3, #90]	@ movhi	@ tmp255, CO_OD_RAM.performance
 164:src/Example_Master.c ****        OD_performance[ODA_performance_timerCycleMaxTime] = 0;
 479              		.loc 2 164 0
 480 01f0 4B4B     		ldr	r3, .L43+12	@ tmp257,
 481 01f2 0022     		movs	r2, #0	@ tmp259,
 482 01f4 A3F85620 		strh	r2, [r3, #86]	@ movhi	@ tmp258, CO_OD_RAM.performance
 165:src/Example_Master.c ****        reset = enCO_RESET_NOT;
 483              		.loc 2 165 0
 484 01f8 0023     		movs	r3, #0	@ tmp260,
 485 01fa 8DF8D730 		strb	r3, [sp, #215]	@ tmp261, reset
 166:src/Example_Master.c **** 
 167:src/Example_Master.c ****        communicationReset();
 486              		.loc 2 167 0
 487 01fe FFF7FEFF 		bl	communicationReset	@
 168:src/Example_Master.c **** 
 169:src/Example_Master.c ****        //start CAN and enable interrupts
 170:src/Example_Master.c ****        //CO_CANsetNormalMode(BOARD_ADDR_CAN);
 171:src/Example_Master.c ****        timer_enableIrq();
 488              		.loc 2 171 0
 489 0202 1D20     		movs	r0, #29	@,
 490 0204 FFF7FCFE 		bl	NVIC_EnableIRQ	@
 172:src/Example_Master.c ****        can_enableIrq();
 491              		.loc 2 172 0
 492 0208 1920     		movs	r0, #25	@,
 493 020a FFF7F9FE 		bl	NVIC_EnableIRQ	@
 173:src/Example_Master.c **** 	 //  pfRitStart();
 174:src/Example_Master.c **** 	   
 175:src/Example_Master.c ****       while(reset == enCO_RESET_NOT)
 494              		.loc 2 175 0
 495 020e 0CE2     		b	.L24	@
 496              	.L40:
 497              	.LBB3:
 176:src/Example_Master.c ****        {
 177:src/Example_Master.c **** 			/* loop for normal program execution */
 178:src/Example_Master.c **** 			PFword timer1msCopy, timer1msDiff;
 179:src/Example_Master.c **** 
 180:src/Example_Master.c **** 			//calculate cycle time for performance measurement
 181:src/Example_Master.c **** 			timer1msCopy = CO_timer1ms;
 498              		.loc 2 181 0
 499 0210 4A4B     		ldr	r3, .L43+40	@ tmp262,
 500 0212 1B88     		ldrh	r3, [r3]	@ movhi	@ tmp263, CO_timer1ms
 501 0214 ADF8CC30 		strh	r3, [sp, #204]	@ movhi	@ tmp263, timer1msCopy
 182:src/Example_Master.c **** 			timer1msDiff = timer1msCopy - timer1msPrevious;
 502              		.loc 2 182 0
 503 0218 BDF8CC20 		ldrh	r2, [sp, #204]	@ movhi	@ tmp264, timer1msCopy
 504 021c BDF8D230 		ldrh	r3, [sp, #210]	@ movhi	@ tmp265, timer1msPrevious
 505 0220 D31A     		subs	r3, r2, r3	@ tmp266, tmp264, tmp265
 506 0222 ADF8CA30 		strh	r3, [sp, #202]	@ movhi	@ tmp267, timer1msDiff
 183:src/Example_Master.c **** 			timer1msPrevious = timer1msCopy;
 507              		.loc 2 183 0
 508 0226 BDF8CC30 		ldrh	r3, [sp, #204]	@ movhi	@ tmp268, timer1msCopy
 509 022a ADF8D230 		strh	r3, [sp, #210]	@ movhi	@ tmp268, timer1msPrevious
 184:src/Example_Master.c **** 
ARM GAS  C:\Users\Akil\AppData\Local\Temp\cc6kIPJ8.s 			page 31


 185:src/Example_Master.c **** 			//Application asynchronous program
 186:src/Example_Master.c **** 			programAsync(timer1msDiff);
 510              		.loc 2 186 0
 511 022e BDF8CA30 		ldrh	r3, [sp, #202]	@ tmp269, timer1msDiff
 512 0232 1846     		mov	r0, r3	@, tmp269
 513 0234 FFF7FEFF 		bl	programAsync	@
 187:src/Example_Master.c **** 			//CANopen process
 188:src/Example_Master.c **** 			reset = pfCoProcess(CO, timer1msDiff);
 514              		.loc 2 188 0
 515 0238 414B     		ldr	r3, .L43+44	@ tmp270,
 516 023a 1A68     		ldr	r2, [r3]	@ CO.6, CO
 517 023c BDF8CA30 		ldrh	r3, [sp, #202]	@ tmp271, timer1msDiff
 518 0240 1046     		mov	r0, r2	@, CO.6
 519 0242 1946     		mov	r1, r3	@, tmp271
 520 0244 FFF7FEFF 		bl	pfCoProcess	@
 521 0248 0346     		mov	r3, r0	@ tmp272,
 522 024a 8DF8D730 		strb	r3, [sp, #215]	@ tmp273, reset
 189:src/Example_Master.c **** 
 190:src/Example_Master.c **** #ifdef BOARD_USE_EEPROM
 191:src/Example_Master.c **** 			CO_EE_process(&CO_EEO);
 192:src/Example_Master.c **** #endif
 193:src/Example_Master.c **** 			
 194:src/Example_Master.c **** 			delay();
 523              		.loc 2 194 0
 524 024e FFF7FEFF 		bl	delay	@
 195:src/Example_Master.c **** 			sprintf(cmdBuf,"sdor 01 6000 01");
 525              		.loc 2 195 0
 526 0252 22AA     		add	r2, sp, #136	@ tmp274,,
 527 0254 3B4B     		ldr	r3, .L43+48	@ tmp275,
 528 0256 1446     		mov	r4, r2	@ tmp276, tmp274
 529 0258 0FCB     		ldmia	r3, {r0, r1, r2, r3}	@ tmp277,,,,
 530 025a 84E80F00 		stmia	r4, {r0, r1, r2, r3}	@ tmp276,,,,
 196:src/Example_Master.c **** 			cli_handleCmd(cmdBuf);
 531              		.loc 2 196 0
 532 025e 22AB     		add	r3, sp, #136	@ tmp278,,
 533 0260 1846     		mov	r0, r3	@, tmp278
 534 0262 00F089FE 		bl	cli_handleCmd	@
 197:src/Example_Master.c **** 			cli_process(timer1msDiff);
 535              		.loc 2 197 0
 536 0266 BDF8CA30 		ldrh	r3, [sp, #202]	@ tmp279, timer1msDiff
 537 026a 1846     		mov	r0, r3	@, tmp279
 538 026c 00F05CFF 		bl	cli_process	@
 198:src/Example_Master.c **** 				
 199:src/Example_Master.c **** 			delay();
 539              		.loc 2 199 0
 540 0270 FFF7FEFF 		bl	delay	@
 200:src/Example_Master.c **** 			
 201:src/Example_Master.c **** 			
 202:src/Example_Master.c **** 			sprintf(buf,"sdor 01 6200 01");	//01 - Number of Nodes
 541              		.loc 2 202 0
 542 0274 02AA     		add	r2, sp, #8	@ tmp280,,
 543 0276 344B     		ldr	r3, .L43+52	@ tmp281,
 544 0278 1446     		mov	r4, r2	@ tmp282, tmp280
 545 027a 0FCB     		ldmia	r3, {r0, r1, r2, r3}	@ tmp283,,,,
 546 027c 84E80F00 		stmia	r4, {r0, r1, r2, r3}	@ tmp282,,,,
 203:src/Example_Master.c **** 			cli_handleCmd(buf);
 547              		.loc 2 203 0
ARM GAS  C:\Users\Akil\AppData\Local\Temp\cc6kIPJ8.s 			page 32


 548 0280 02AB     		add	r3, sp, #8	@ tmp284,,
 549 0282 1846     		mov	r0, r3	@, tmp284
 550 0284 00F078FE 		bl	cli_handleCmd	@
 204:src/Example_Master.c **** 			cli_process(timer1msDiff);
 551              		.loc 2 204 0
 552 0288 BDF8CA30 		ldrh	r3, [sp, #202]	@ tmp285, timer1msDiff
 553 028c 1846     		mov	r0, r3	@, tmp285
 554 028e 00F04BFF 		bl	cli_process	@
 205:src/Example_Master.c **** 			if(gs_data[0] == 0x00)
 555              		.loc 2 205 0
 556 0292 2E4B     		ldr	r3, .L43+56	@ tmp286,
 557 0294 1B78     		ldrb	r3, [r3]	@ zero_extendqisi2	@ D.8713, gs_data
 558 0296 002B     		cmp	r3, #0	@ D.8713,
 559 0298 00D1     		bne	.L25	@,
 206:src/Example_Master.c **** 				continue;
 560              		.loc 2 206 0
 561 029a C6E1     		b	.L24	@
 562              	.L25:
 207:src/Example_Master.c **** 
 208:src/Example_Master.c **** 			number_of_nodes = gs_data[0];
 563              		.loc 2 208 0
 564 029c 2B4B     		ldr	r3, .L43+56	@ tmp287,
 565 029e 1B78     		ldrb	r3, [r3]	@ tmp288, gs_data
 566 02a0 8DF8CF30 		strb	r3, [sp, #207]	@ tmp288, number_of_nodes
 209:src/Example_Master.c **** //========================================================================		
 210:src/Example_Master.c **** 			EXAMSTR_DEBUG("\r");
 567              		.loc 2 210 0
 568 02a4 1B4B     		ldr	r3, .L43	@ tmp289,
 569 02a6 0D22     		movs	r2, #13	@ tmp291,
 570 02a8 1A80     		strh	r2, [r3]	@ movhi	@ tmp290, MEM[(void *)&gs_dbgMsg]
 571 02aa 1A48     		ldr	r0, .L43	@,
 572 02ac FFF7FEFF 		bl	pfUart0WriteString	@
 211:src/Example_Master.c **** 			i=0;
 573              		.loc 2 211 0
 574 02b0 0023     		movs	r3, #0	@ tmp292,
 575 02b2 8DF8D630 		strb	r3, [sp, #214]	@ tmp293, i
 212:src/Example_Master.c **** 			while(i < number_of_nodes)
 576              		.loc 2 212 0
 577 02b6 23E0     		b	.L26	@
 578              	.L28:
 213:src/Example_Master.c **** 			{
 214:src/Example_Master.c **** 				delay();
 579              		.loc 2 214 0
 580 02b8 FFF7FEFF 		bl	delay	@
 215:src/Example_Master.c **** 				sprintf(buf,"sdor 01 6201 %02X",i+2);	//02 - Registered Node ID
 581              		.loc 2 215 0
 582 02bc 9DF8D630 		ldrb	r3, [sp, #214]	@ zero_extendqisi2	@ D.8711, i
 583 02c0 0233     		adds	r3, r3, #2	@ D.8711, D.8711,
 584 02c2 02AA     		add	r2, sp, #8	@ tmp294,,
 585 02c4 1046     		mov	r0, r2	@, tmp294
 586 02c6 2249     		ldr	r1, .L43+60	@,
 587 02c8 1A46     		mov	r2, r3	@, D.8711
 588 02ca FFF7FEFF 		bl	sprintf	@
 216:src/Example_Master.c **** 				cli_handleCmd(buf);
 589              		.loc 2 216 0
 590 02ce 02AB     		add	r3, sp, #8	@ tmp295,,
 591 02d0 1846     		mov	r0, r3	@, tmp295
ARM GAS  C:\Users\Akil\AppData\Local\Temp\cc6kIPJ8.s 			page 33


 592 02d2 00F051FE 		bl	cli_handleCmd	@
 217:src/Example_Master.c **** 				cli_process(timer1msDiff);
 593              		.loc 2 217 0
 594 02d6 BDF8CA30 		ldrh	r3, [sp, #202]	@ tmp296, timer1msDiff
 595 02da 1846     		mov	r0, r3	@, tmp296
 596 02dc 00F024FF 		bl	cli_process	@
 218:src/Example_Master.c **** 				if(gs_data[0] == 0x00)
 597              		.loc 2 218 0
 598 02e0 1A4B     		ldr	r3, .L43+56	@ tmp297,
 599 02e2 1B78     		ldrb	r3, [r3]	@ zero_extendqisi2	@ D.8713, gs_data
 600 02e4 002B     		cmp	r3, #0	@ D.8713,
 601 02e6 00D1     		bne	.L27	@,
 219:src/Example_Master.c **** 					continue;
 602              		.loc 2 219 0
 603 02e8 0AE0     		b	.L26	@
 604              	.L27:
 220:src/Example_Master.c **** 				NODE_ID[i] = gs_data[0];
 605              		.loc 2 220 0
 606 02ea 9DF8D630 		ldrb	r3, [sp, #214]	@ zero_extendqisi2	@ D.8711, i
 607 02ee 174A     		ldr	r2, .L43+56	@ tmp298,
 608 02f0 1178     		ldrb	r1, [r2]	@ zero_extendqisi2	@ D.8713, gs_data
 609 02f2 184A     		ldr	r2, .L43+64	@ tmp299,
 610 02f4 D154     		strb	r1, [r2, r3]	@ tmp300, NODE_ID
 221:src/Example_Master.c **** 				i++;					
 611              		.loc 2 221 0
 612 02f6 9DF8D630 		ldrb	r3, [sp, #214]	@ zero_extendqisi2	@ i.7, i
 613 02fa 0133     		adds	r3, r3, #1	@ tmp301, i.7,
 614 02fc 8DF8D630 		strb	r3, [sp, #214]	@ tmp302, i
 615              	.L26:
 212:src/Example_Master.c **** 			while(i < number_of_nodes)
 616              		.loc 2 212 0 discriminator 1
 617 0300 9DF8D620 		ldrb	r2, [sp, #214]	@ zero_extendqisi2	@ tmp303, i
 618 0304 9DF8CF30 		ldrb	r3, [sp, #207]	@ zero_extendqisi2	@ tmp304, number_of_nodes
 619 0308 9A42     		cmp	r2, r3	@ tmp303, tmp304
 620 030a D5D3     		bcc	.L28	@,
 222:src/Example_Master.c **** 			}
 223:src/Example_Master.c **** 		
 224:src/Example_Master.c **** //========================================================================		
 225:src/Example_Master.c **** 			for(j=0;j<number_of_nodes;j++)
 621              		.loc 2 225 0
 622 030c 0023     		movs	r3, #0	@ tmp306,
 623 030e ADF8D430 		strh	r3, [sp, #212]	@ movhi	@ tmp305, j
 624 0312 82E1     		b	.L29	@
 625              	.L44:
 626              		.align	2
 627              	.L43:
 628 0314 24000000 		.word	gs_dbgMsg
 629 0318 00000000 		.word	.LC0
 630 031c 18000000 		.word	.LC1
 631 0320 00000000 		.word	CO_OD_RAM
 632 0324 34000000 		.word	.LC2
 633 0328 00000000 		.word	CO_OD_EEPROM
 634 032c 5C000000 		.word	.LC3
 635 0330 00000000 		.word	CO_OD_ROM
 636 0334 88000000 		.word	.LC4
 637 0338 B0000000 		.word	.LC5
 638 033c 22000000 		.word	CO_timer1ms
ARM GAS  C:\Users\Akil\AppData\Local\Temp\cc6kIPJ8.s 			page 34


 639 0340 00000000 		.word	CO
 640 0344 D8000000 		.word	.LC6
 641 0348 E8000000 		.word	.LC7
 642 034c 00000000 		.word	gs_data
 643 0350 F8000000 		.word	.LC8
 644 0354 00000000 		.word	NODE_ID
 645              	.L39:
 226:src/Example_Master.c **** 			{
 227:src/Example_Master.c **** 				sprintf(buf,"sdor %02X 6211 01",NODE_ID[j]);
 646              		.loc 2 227 0
 647 0358 BDF8D430 		ldrh	r3, [sp, #212]	@ D.8711, j
 648 035c 5A4A     		ldr	r2, .L45	@ tmp307,
 649 035e D35C     		ldrb	r3, [r2, r3]	@ zero_extendqisi2	@ D.8713, NODE_ID
 650 0360 02AA     		add	r2, sp, #8	@ tmp308,,
 651 0362 1046     		mov	r0, r2	@, tmp308
 652 0364 5949     		ldr	r1, .L45+4	@,
 653 0366 1A46     		mov	r2, r3	@, D.8711
 654 0368 FFF7FEFF 		bl	sprintf	@
 228:src/Example_Master.c **** 				cli_handleCmd(buf);
 655              		.loc 2 228 0
 656 036c 02AB     		add	r3, sp, #8	@ tmp309,,
 657 036e 1846     		mov	r0, r3	@, tmp309
 658 0370 00F002FE 		bl	cli_handleCmd	@
 229:src/Example_Master.c **** 				cli_process(timer1msDiff);
 659              		.loc 2 229 0
 660 0374 BDF8CA30 		ldrh	r3, [sp, #202]	@ tmp310, timer1msDiff
 661 0378 1846     		mov	r0, r3	@, tmp310
 662 037a 00F0D5FE 		bl	cli_process	@
 230:src/Example_Master.c **** 				if(gs_data[0] == 0x01)
 663              		.loc 2 230 0
 664 037e 544B     		ldr	r3, .L45+8	@ tmp311,
 665 0380 1B78     		ldrb	r3, [r3]	@ zero_extendqisi2	@ D.8713, gs_data
 666 0382 012B     		cmp	r3, #1	@ D.8713,
 667 0384 6AD1     		bne	.L30	@,
 231:src/Example_Master.c **** 				{
 232:src/Example_Master.c **** 					delay();
 668              		.loc 2 232 0
 669 0386 FFF7FEFF 		bl	delay	@
 233:src/Example_Master.c **** 					sprintf(buf,"sdor %02X 6212 01",NODE_ID[j]);
 670              		.loc 2 233 0
 671 038a BDF8D430 		ldrh	r3, [sp, #212]	@ D.8711, j
 672 038e 4E4A     		ldr	r2, .L45	@ tmp312,
 673 0390 D35C     		ldrb	r3, [r2, r3]	@ zero_extendqisi2	@ D.8713, NODE_ID
 674 0392 02AA     		add	r2, sp, #8	@ tmp313,,
 675 0394 1046     		mov	r0, r2	@, tmp313
 676 0396 4F49     		ldr	r1, .L45+12	@,
 677 0398 1A46     		mov	r2, r3	@, D.8711
 678 039a FFF7FEFF 		bl	sprintf	@
 234:src/Example_Master.c **** 					cli_handleCmd(buf);
 679              		.loc 2 234 0
 680 039e 02AB     		add	r3, sp, #8	@ tmp314,,
 681 03a0 1846     		mov	r0, r3	@, tmp314
 682 03a2 00F0E9FD 		bl	cli_handleCmd	@
 235:src/Example_Master.c **** 					cli_process(timer1msDiff);
 683              		.loc 2 235 0
 684 03a6 BDF8CA30 		ldrh	r3, [sp, #202]	@ tmp315, timer1msDiff
 685 03aa 1846     		mov	r0, r3	@, tmp315
ARM GAS  C:\Users\Akil\AppData\Local\Temp\cc6kIPJ8.s 			page 35


 686 03ac 00F0BCFE 		bl	cli_process	@
 236:src/Example_Master.c **** 					Ultrasonic_no = gs_data[0];
 687              		.loc 2 236 0
 688 03b0 474B     		ldr	r3, .L45+8	@ tmp316,
 689 03b2 1A78     		ldrb	r2, [r3]	@ zero_extendqisi2	@ Ultrasonic_no.8, gs_data
 690 03b4 484B     		ldr	r3, .L45+16	@ tmp317,
 691 03b6 1A70     		strb	r2, [r3]	@ tmp318, Ultrasonic_no
 237:src/Example_Master.c **** 					for(i=1; i <= Ultrasonic_no; i++)
 692              		.loc 2 237 0
 693 03b8 0123     		movs	r3, #1	@ tmp319,
 694 03ba 8DF8D630 		strb	r3, [sp, #214]	@ tmp320, i
 695 03be 47E0     		b	.L31	@
 696              	.L33:
 238:src/Example_Master.c **** 					{
 239:src/Example_Master.c **** 						delay();
 697              		.loc 2 239 0
 698 03c0 FFF7FEFF 		bl	delay	@
 240:src/Example_Master.c **** 						sprintf(cmdBuf,"sdor %02X 6215 %02X",NODE_ID[j],i);
 699              		.loc 2 240 0
 700 03c4 BDF8D430 		ldrh	r3, [sp, #212]	@ D.8711, j
 701 03c8 3F4A     		ldr	r2, .L45	@ tmp321,
 702 03ca D35C     		ldrb	r3, [r2, r3]	@ zero_extendqisi2	@ D.8713, NODE_ID
 703 03cc 1A46     		mov	r2, r3	@ D.8711, D.8713
 704 03ce 9DF8D630 		ldrb	r3, [sp, #214]	@ zero_extendqisi2	@ D.8711, i
 705 03d2 22A9     		add	r1, sp, #136	@ tmp322,,
 706 03d4 0846     		mov	r0, r1	@, tmp322
 707 03d6 4149     		ldr	r1, .L45+20	@,
 708 03d8 FFF7FEFF 		bl	sprintf	@
 241:src/Example_Master.c **** 						cli_handleCmd(cmdBuf);
 709              		.loc 2 241 0
 710 03dc 22AB     		add	r3, sp, #136	@ tmp323,,
 711 03de 1846     		mov	r0, r3	@, tmp323
 712 03e0 00F0CAFD 		bl	cli_handleCmd	@
 242:src/Example_Master.c **** 						cli_process(timer1msDiff);
 713              		.loc 2 242 0
 714 03e4 BDF8CA30 		ldrh	r3, [sp, #202]	@ tmp324, timer1msDiff
 715 03e8 1846     		mov	r0, r3	@, tmp324
 716 03ea 00F09DFE 		bl	cli_process	@
 243:src/Example_Master.c **** 						if((gs_data[1] != 0x00) | (gs_data[0] != 0x00))
 717              		.loc 2 243 0
 718 03ee 384B     		ldr	r3, .L45+8	@ tmp325,
 719 03f0 5B78     		ldrb	r3, [r3, #1]	@ zero_extendqisi2	@ D.8713, gs_data
 720 03f2 002B     		cmp	r3, #0	@ D.8713,
 721 03f4 0CBF     		ite	eq	@
 722 03f6 0023     		moveq	r3, #0	@, tmp327
 723 03f8 0123     		movne	r3, #1	@, tmp327
 724 03fa DAB2     		uxtb	r2, r3	@ D.8715, tmp326
 725 03fc 344B     		ldr	r3, .L45+8	@ tmp328,
 726 03fe 1B78     		ldrb	r3, [r3]	@ zero_extendqisi2	@ D.8713, gs_data
 727 0400 002B     		cmp	r3, #0	@ D.8713,
 728 0402 0CBF     		ite	eq	@
 729 0404 0023     		moveq	r3, #0	@, tmp330
 730 0406 0123     		movne	r3, #1	@, tmp330
 731 0408 DBB2     		uxtb	r3, r3	@ D.8715, tmp329
 732 040a 1343     		orrs	r3, r3, r2	@, tmp331, D.8715, D.8715
 733 040c DBB2     		uxtb	r3, r3	@ D.8715, tmp331
 734 040e 002B     		cmp	r3, #0	@ D.8715,
ARM GAS  C:\Users\Akil\AppData\Local\Temp\cc6kIPJ8.s 			page 36


 735 0410 19D0     		beq	.L32	@,
 244:src/Example_Master.c **** 						{
 245:src/Example_Master.c **** 							sprintf(buf,"\r\rNode[%X] Distance = %d mm" ,NODE_ID[j],(gs_data[1] + gs_data[0]*256));
 736              		.loc 2 245 0
 737 0412 BDF8D430 		ldrh	r3, [sp, #212]	@ D.8711, j
 738 0416 2C4A     		ldr	r2, .L45	@ tmp332,
 739 0418 D35C     		ldrb	r3, [r2, r3]	@ zero_extendqisi2	@ D.8713, NODE_ID
 740 041a 1A46     		mov	r2, r3	@ D.8711, D.8713
 741 041c 2C4B     		ldr	r3, .L45+8	@ tmp333,
 742 041e 5B78     		ldrb	r3, [r3, #1]	@ zero_extendqisi2	@ D.8713, gs_data
 743 0420 1946     		mov	r1, r3	@ D.8711, D.8713
 744 0422 2B4B     		ldr	r3, .L45+8	@ tmp334,
 745 0424 1B78     		ldrb	r3, [r3]	@ zero_extendqisi2	@ D.8713, gs_data
 746 0426 1B02     		lsls	r3, r3, #8	@ D.8711, D.8711,
 747 0428 0B44     		add	r3, r3, r1	@ D.8711, D.8711
 748 042a 02A9     		add	r1, sp, #8	@ tmp335,,
 749 042c 0846     		mov	r0, r1	@, tmp335
 750 042e 2C49     		ldr	r1, .L45+24	@,
 751 0430 FFF7FEFF 		bl	sprintf	@
 246:src/Example_Master.c **** 							EXAMSTR_DEBUG(buf);
 752              		.loc 2 246 0
 753 0434 02AB     		add	r3, sp, #8	@ tmp336,,
 754 0436 2B48     		ldr	r0, .L45+28	@,
 755 0438 7F21     		movs	r1, #127	@,
 756 043a 1A46     		mov	r2, r3	@, tmp336
 757 043c FFF7FEFF 		bl	snprintf	@
 758 0440 2848     		ldr	r0, .L45+28	@,
 759 0442 FFF7FEFF 		bl	pfUart0WriteString	@
 760              	.L32:
 237:src/Example_Master.c **** 					for(i=1; i <= Ultrasonic_no; i++)
 761              		.loc 2 237 0
 762 0446 9DF8D630 		ldrb	r3, [sp, #214]	@ zero_extendqisi2	@ i.9, i
 763 044a 0133     		adds	r3, r3, #1	@ tmp337, i.9,
 764 044c 8DF8D630 		strb	r3, [sp, #214]	@ tmp338, i
 765              	.L31:
 237:src/Example_Master.c **** 					for(i=1; i <= Ultrasonic_no; i++)
 766              		.loc 2 237 0 is_stmt 0 discriminator 1
 767 0450 214B     		ldr	r3, .L45+16	@ tmp339,
 768 0452 1B78     		ldrb	r3, [r3]	@ zero_extendqisi2	@ Ultrasonic_no.10, Ultrasonic_no
 769 0454 9DF8D620 		ldrb	r2, [sp, #214]	@ zero_extendqisi2	@ tmp340, i
 770 0458 9A42     		cmp	r2, r3	@ tmp340, Ultrasonic_no.10
 771 045a B1D9     		bls	.L33	@,
 772              	.L30:
 247:src/Example_Master.c **** 						}
 248:src/Example_Master.c **** 					}
 249:src/Example_Master.c **** 				}
 250:src/Example_Master.c **** //========================================================================		
 251:src/Example_Master.c **** 				sprintf(buf,"sdor %02X 6211 02",NODE_ID[j]);
 773              		.loc 2 251 0 is_stmt 1
 774 045c BDF8D430 		ldrh	r3, [sp, #212]	@ D.8711, j
 775 0460 194A     		ldr	r2, .L45	@ tmp341,
 776 0462 D35C     		ldrb	r3, [r2, r3]	@ zero_extendqisi2	@ D.8713, NODE_ID
 777 0464 02AA     		add	r2, sp, #8	@ tmp342,,
 778 0466 1046     		mov	r0, r2	@, tmp342
 779 0468 1F49     		ldr	r1, .L45+32	@,
 780 046a 1A46     		mov	r2, r3	@, D.8711
 781 046c FFF7FEFF 		bl	sprintf	@
ARM GAS  C:\Users\Akil\AppData\Local\Temp\cc6kIPJ8.s 			page 37


 252:src/Example_Master.c **** 				cli_handleCmd(buf);
 782              		.loc 2 252 0
 783 0470 02AB     		add	r3, sp, #8	@ tmp343,,
 784 0472 1846     		mov	r0, r3	@, tmp343
 785 0474 00F080FD 		bl	cli_handleCmd	@
 253:src/Example_Master.c **** 				cli_process(timer1msDiff);
 786              		.loc 2 253 0
 787 0478 BDF8CA30 		ldrh	r3, [sp, #202]	@ tmp344, timer1msDiff
 788 047c 1846     		mov	r0, r3	@, tmp344
 789 047e 00F053FE 		bl	cli_process	@
 254:src/Example_Master.c **** 				if(gs_data[0] == 0x01)
 790              		.loc 2 254 0
 791 0482 134B     		ldr	r3, .L45+8	@ tmp345,
 792 0484 1B78     		ldrb	r3, [r3]	@ zero_extendqisi2	@ D.8713, gs_data
 793 0486 012B     		cmp	r3, #1	@ D.8713,
 794 0488 40F0C280 		bne	.L34	@,
 255:src/Example_Master.c **** 				{
 256:src/Example_Master.c **** 					delay();
 795              		.loc 2 256 0
 796 048c FFF7FEFF 		bl	delay	@
 257:src/Example_Master.c **** 					sprintf(buf,"sdor %02X 6212 02",NODE_ID[j]);
 797              		.loc 2 257 0
 798 0490 BDF8D430 		ldrh	r3, [sp, #212]	@ D.8711, j
 799 0494 0C4A     		ldr	r2, .L45	@ tmp346,
 800 0496 D35C     		ldrb	r3, [r2, r3]	@ zero_extendqisi2	@ D.8713, NODE_ID
 801 0498 02AA     		add	r2, sp, #8	@ tmp347,,
 802 049a 1046     		mov	r0, r2	@, tmp347
 803 049c 1349     		ldr	r1, .L45+36	@,
 804 049e 1A46     		mov	r2, r3	@, D.8711
 805 04a0 FFF7FEFF 		bl	sprintf	@
 258:src/Example_Master.c **** 					cli_handleCmd(buf);
 806              		.loc 2 258 0
 807 04a4 02AB     		add	r3, sp, #8	@ tmp348,,
 808 04a6 1846     		mov	r0, r3	@, tmp348
 809 04a8 00F066FD 		bl	cli_handleCmd	@
 259:src/Example_Master.c **** 					cli_process(timer1msDiff);
 810              		.loc 2 259 0
 811 04ac BDF8CA30 		ldrh	r3, [sp, #202]	@ tmp349, timer1msDiff
 812 04b0 1846     		mov	r0, r3	@, tmp349
 813 04b2 00F039FE 		bl	cli_process	@
 260:src/Example_Master.c **** 					vcnl_no = gs_data[0];
 814              		.loc 2 260 0
 815 04b6 064B     		ldr	r3, .L45+8	@ tmp350,
 816 04b8 1A78     		ldrb	r2, [r3]	@ zero_extendqisi2	@ vcnl_no.11, gs_data
 817 04ba 0D4B     		ldr	r3, .L45+40	@ tmp351,
 818 04bc 1A70     		strb	r2, [r3]	@ tmp352, vcnl_no
 261:src/Example_Master.c **** 					for(i=1; i <= vcnl_no*2; i=i+2)
 819              		.loc 2 261 0
 820 04be 0123     		movs	r3, #1	@ tmp353,
 821 04c0 8DF8D630 		strb	r3, [sp, #214]	@ tmp354, i
 822 04c4 9CE0     		b	.L35	@
 823              	.L46:
 824 04c6 00BF     		.align	2
 825              	.L45:
 826 04c8 00000000 		.word	NODE_ID
 827 04cc 0C010000 		.word	.LC9
 828 04d0 00000000 		.word	gs_data
ARM GAS  C:\Users\Akil\AppData\Local\Temp\cc6kIPJ8.s 			page 38


 829 04d4 20010000 		.word	.LC10
 830 04d8 00000000 		.word	Ultrasonic_no
 831 04dc 34010000 		.word	.LC11
 832 04e0 48010000 		.word	.LC12
 833 04e4 24000000 		.word	gs_dbgMsg
 834 04e8 64010000 		.word	.LC13
 835 04ec 78010000 		.word	.LC14
 836 04f0 00000000 		.word	vcnl_no
 837              	.L38:
 262:src/Example_Master.c **** 					{
 263:src/Example_Master.c **** 						sprintf(cmdBuf,"sdor %02X 6216 %02X",NODE_ID[j],i);
 838              		.loc 2 263 0
 839 04f4 BDF8D430 		ldrh	r3, [sp, #212]	@ D.8711, j
 840 04f8 5B4A     		ldr	r2, .L47	@ tmp355,
 841 04fa D35C     		ldrb	r3, [r2, r3]	@ zero_extendqisi2	@ D.8713, NODE_ID
 842 04fc 1A46     		mov	r2, r3	@ D.8711, D.8713
 843 04fe 9DF8D630 		ldrb	r3, [sp, #214]	@ zero_extendqisi2	@ D.8711, i
 844 0502 22A9     		add	r1, sp, #136	@ tmp356,,
 845 0504 0846     		mov	r0, r1	@, tmp356
 846 0506 5949     		ldr	r1, .L47+4	@,
 847 0508 FFF7FEFF 		bl	sprintf	@
 264:src/Example_Master.c **** 						cli_handleCmd(cmdBuf);
 848              		.loc 2 264 0
 849 050c 22AB     		add	r3, sp, #136	@ tmp357,,
 850 050e 1846     		mov	r0, r3	@, tmp357
 851 0510 00F032FD 		bl	cli_handleCmd	@
 265:src/Example_Master.c **** 						cli_process(timer1msDiff);
 852              		.loc 2 265 0
 853 0514 BDF8CA30 		ldrh	r3, [sp, #202]	@ tmp358, timer1msDiff
 854 0518 1846     		mov	r0, r3	@, tmp358
 855 051a 00F005FE 		bl	cli_process	@
 266:src/Example_Master.c **** 						if((gs_data[1] != 0x00) | (gs_data[0] != 0x00))
 856              		.loc 2 266 0
 857 051e 544B     		ldr	r3, .L47+8	@ tmp359,
 858 0520 5B78     		ldrb	r3, [r3, #1]	@ zero_extendqisi2	@ D.8713, gs_data
 859 0522 002B     		cmp	r3, #0	@ D.8713,
 860 0524 0CBF     		ite	eq	@
 861 0526 0023     		moveq	r3, #0	@, tmp361
 862 0528 0123     		movne	r3, #1	@, tmp361
 863 052a DAB2     		uxtb	r2, r3	@ D.8715, tmp360
 864 052c 504B     		ldr	r3, .L47+8	@ tmp362,
 865 052e 1B78     		ldrb	r3, [r3]	@ zero_extendqisi2	@ D.8713, gs_data
 866 0530 002B     		cmp	r3, #0	@ D.8713,
 867 0532 0CBF     		ite	eq	@
 868 0534 0023     		moveq	r3, #0	@, tmp364
 869 0536 0123     		movne	r3, #1	@, tmp364
 870 0538 DBB2     		uxtb	r3, r3	@ D.8715, tmp363
 871 053a 1343     		orrs	r3, r3, r2	@, tmp365, D.8715, D.8715
 872 053c DBB2     		uxtb	r3, r3	@ D.8715, tmp365
 873 053e 002B     		cmp	r3, #0	@ D.8715,
 874 0540 18D0     		beq	.L36	@,
 267:src/Example_Master.c **** 						{
 268:src/Example_Master.c **** 							sprintf(buf,"\rNode[%X] Ambiance = %X%X " ,NODE_ID[j],gs_data[1],gs_data[0]);
 875              		.loc 2 268 0
 876 0542 BDF8D430 		ldrh	r3, [sp, #212]	@ D.8711, j
 877 0546 484A     		ldr	r2, .L47	@ tmp366,
 878 0548 D35C     		ldrb	r3, [r2, r3]	@ zero_extendqisi2	@ D.8713, NODE_ID
ARM GAS  C:\Users\Akil\AppData\Local\Temp\cc6kIPJ8.s 			page 39


 879 054a 1A46     		mov	r2, r3	@ D.8711, D.8713
 880 054c 484B     		ldr	r3, .L47+8	@ tmp367,
 881 054e 5B78     		ldrb	r3, [r3, #1]	@ zero_extendqisi2	@ D.8713, gs_data
 882 0550 4749     		ldr	r1, .L47+8	@ tmp368,
 883 0552 0978     		ldrb	r1, [r1]	@ zero_extendqisi2	@ D.8713, gs_data
 884 0554 0846     		mov	r0, r1	@ D.8711, D.8713
 885 0556 02A9     		add	r1, sp, #8	@ tmp369,,
 886 0558 0090     		str	r0, [sp]	@ D.8711,
 887 055a 0846     		mov	r0, r1	@, tmp369
 888 055c 4549     		ldr	r1, .L47+12	@,
 889 055e FFF7FEFF 		bl	sprintf	@
 269:src/Example_Master.c **** 							EXAMSTR_DEBUG(buf);
 890              		.loc 2 269 0
 891 0562 02AB     		add	r3, sp, #8	@ tmp370,,
 892 0564 4448     		ldr	r0, .L47+16	@,
 893 0566 7F21     		movs	r1, #127	@,
 894 0568 1A46     		mov	r2, r3	@, tmp370
 895 056a FFF7FEFF 		bl	snprintf	@
 896 056e 4248     		ldr	r0, .L47+16	@,
 897 0570 FFF7FEFF 		bl	pfUart0WriteString	@
 898              	.L36:
 270:src/Example_Master.c **** 						}
 271:src/Example_Master.c **** 						sprintf(cmdBuf,"sdor %02X 6216 %02X",NODE_ID[j],i*2);
 899              		.loc 2 271 0
 900 0574 BDF8D430 		ldrh	r3, [sp, #212]	@ D.8711, j
 901 0578 3B4A     		ldr	r2, .L47	@ tmp371,
 902 057a D35C     		ldrb	r3, [r2, r3]	@ zero_extendqisi2	@ D.8713, NODE_ID
 903 057c 1A46     		mov	r2, r3	@ D.8711, D.8713
 904 057e 9DF8D630 		ldrb	r3, [sp, #214]	@ zero_extendqisi2	@ D.8711, i
 905 0582 5B00     		lsls	r3, r3, #1	@ D.8711, D.8711,
 906 0584 22A9     		add	r1, sp, #136	@ tmp372,,
 907 0586 0846     		mov	r0, r1	@, tmp372
 908 0588 3849     		ldr	r1, .L47+4	@,
 909 058a FFF7FEFF 		bl	sprintf	@
 272:src/Example_Master.c **** 						cli_handleCmd(cmdBuf);
 910              		.loc 2 272 0
 911 058e 22AB     		add	r3, sp, #136	@ tmp373,,
 912 0590 1846     		mov	r0, r3	@, tmp373
 913 0592 00F0F1FC 		bl	cli_handleCmd	@
 273:src/Example_Master.c **** 						cli_process(timer1msDiff);
 914              		.loc 2 273 0
 915 0596 BDF8CA30 		ldrh	r3, [sp, #202]	@ tmp374, timer1msDiff
 916 059a 1846     		mov	r0, r3	@, tmp374
 917 059c 00F0C4FD 		bl	cli_process	@
 274:src/Example_Master.c **** 						if((gs_data[1] != 0x00) | (gs_data[0] != 0x00))
 918              		.loc 2 274 0
 919 05a0 334B     		ldr	r3, .L47+8	@ tmp375,
 920 05a2 5B78     		ldrb	r3, [r3, #1]	@ zero_extendqisi2	@ D.8713, gs_data
 921 05a4 002B     		cmp	r3, #0	@ D.8713,
 922 05a6 0CBF     		ite	eq	@
 923 05a8 0023     		moveq	r3, #0	@, tmp377
 924 05aa 0123     		movne	r3, #1	@, tmp377
 925 05ac DAB2     		uxtb	r2, r3	@ D.8715, tmp376
 926 05ae 304B     		ldr	r3, .L47+8	@ tmp378,
 927 05b0 1B78     		ldrb	r3, [r3]	@ zero_extendqisi2	@ D.8713, gs_data
 928 05b2 002B     		cmp	r3, #0	@ D.8713,
 929 05b4 0CBF     		ite	eq	@
ARM GAS  C:\Users\Akil\AppData\Local\Temp\cc6kIPJ8.s 			page 40


 930 05b6 0023     		moveq	r3, #0	@, tmp380
 931 05b8 0123     		movne	r3, #1	@, tmp380
 932 05ba DBB2     		uxtb	r3, r3	@ D.8715, tmp379
 933 05bc 1343     		orrs	r3, r3, r2	@, tmp381, D.8715, D.8715
 934 05be DBB2     		uxtb	r3, r3	@ D.8715, tmp381
 935 05c0 002B     		cmp	r3, #0	@ D.8715,
 936 05c2 18D0     		beq	.L37	@,
 275:src/Example_Master.c **** 						{
 276:src/Example_Master.c **** 							sprintf(buf,"\rNode[%X] Proximity = %X%X " ,NODE_ID[j],gs_data[1],gs_data[0]);
 937              		.loc 2 276 0
 938 05c4 BDF8D430 		ldrh	r3, [sp, #212]	@ D.8711, j
 939 05c8 274A     		ldr	r2, .L47	@ tmp382,
 940 05ca D35C     		ldrb	r3, [r2, r3]	@ zero_extendqisi2	@ D.8713, NODE_ID
 941 05cc 1A46     		mov	r2, r3	@ D.8711, D.8713
 942 05ce 284B     		ldr	r3, .L47+8	@ tmp383,
 943 05d0 5B78     		ldrb	r3, [r3, #1]	@ zero_extendqisi2	@ D.8713, gs_data
 944 05d2 2749     		ldr	r1, .L47+8	@ tmp384,
 945 05d4 0978     		ldrb	r1, [r1]	@ zero_extendqisi2	@ D.8713, gs_data
 946 05d6 0846     		mov	r0, r1	@ D.8711, D.8713
 947 05d8 02A9     		add	r1, sp, #8	@ tmp385,,
 948 05da 0090     		str	r0, [sp]	@ D.8711,
 949 05dc 0846     		mov	r0, r1	@, tmp385
 950 05de 2749     		ldr	r1, .L47+20	@,
 951 05e0 FFF7FEFF 		bl	sprintf	@
 277:src/Example_Master.c **** 							EXAMSTR_DEBUG(buf);
 952              		.loc 2 277 0
 953 05e4 02AB     		add	r3, sp, #8	@ tmp386,,
 954 05e6 2448     		ldr	r0, .L47+16	@,
 955 05e8 7F21     		movs	r1, #127	@,
 956 05ea 1A46     		mov	r2, r3	@, tmp386
 957 05ec FFF7FEFF 		bl	snprintf	@
 958 05f0 2148     		ldr	r0, .L47+16	@,
 959 05f2 FFF7FEFF 		bl	pfUart0WriteString	@
 960              	.L37:
 261:src/Example_Master.c **** 					for(i=1; i <= vcnl_no*2; i=i+2)
 961              		.loc 2 261 0
 962 05f6 9DF8D630 		ldrb	r3, [sp, #214]	@ tmp387, i
 963 05fa 0233     		adds	r3, r3, #2	@ tmp388, tmp387,
 964 05fc 8DF8D630 		strb	r3, [sp, #214]	@ tmp389, i
 965              	.L35:
 261:src/Example_Master.c **** 					for(i=1; i <= vcnl_no*2; i=i+2)
 966              		.loc 2 261 0 is_stmt 0 discriminator 1
 967 0600 9DF8D620 		ldrb	r2, [sp, #214]	@ zero_extendqisi2	@ D.8711, i
 968 0604 1E4B     		ldr	r3, .L47+24	@ tmp390,
 969 0606 1B78     		ldrb	r3, [r3]	@ zero_extendqisi2	@ vcnl_no.12, vcnl_no
 970 0608 5B00     		lsls	r3, r3, #1	@ D.8711, D.8711,
 971 060a 9A42     		cmp	r2, r3	@ D.8711, D.8711
 972 060c 7FF772AF 		ble	.L38	@,
 973              	.L34:
 225:src/Example_Master.c **** 			for(j=0;j<number_of_nodes;j++)
 974              		.loc 2 225 0 is_stmt 1
 975 0610 BDF8D430 		ldrh	r3, [sp, #212]	@ j.13, j
 976 0614 0133     		adds	r3, r3, #1	@ tmp391, j.13,
 977 0616 ADF8D430 		strh	r3, [sp, #212]	@ movhi	@ tmp392, j
 978              	.L29:
 225:src/Example_Master.c **** 			for(j=0;j<number_of_nodes;j++)
 979              		.loc 2 225 0 is_stmt 0 discriminator 1
ARM GAS  C:\Users\Akil\AppData\Local\Temp\cc6kIPJ8.s 			page 41


 980 061a 9DF8CF30 		ldrb	r3, [sp, #207]	@ zero_extendqisi2	@ tmp394, number_of_nodes
 981 061e 9BB2     		uxth	r3, r3	@ D.8714, tmp393
 982 0620 BDF8D420 		ldrh	r2, [sp, #212]	@ tmp395, j
 983 0624 9A42     		cmp	r2, r3	@ tmp395, D.8714
 984 0626 FFF497AE 		bcc	.L39	@,
 985              	.L24:
 986              	.LBE3:
 175:src/Example_Master.c ****       while(reset == enCO_RESET_NOT)
 987              		.loc 2 175 0 is_stmt 1 discriminator 1
 988 062a 9DF8D730 		ldrb	r3, [sp, #215]	@ zero_extendqisi2	@ tmp396, reset
 989 062e 002B     		cmp	r3, #0	@ tmp396,
 990 0630 3FF4EEAD 		beq	.L40	@,
 278:src/Example_Master.c **** 						}
 279:src/Example_Master.c **** 						
 280:src/Example_Master.c **** 					}
 281:src/Example_Master.c **** 				}
 282:src/Example_Master.c **** 			} 
 283:src/Example_Master.c **** 				
 284:src/Example_Master.c **** 
 285:src/Example_Master.c **** 				/*				
 286:src/Example_Master.c **** 				sprintf(cmdBuf,"sdor 20 6200 01");
 287:src/Example_Master.c **** 				cli_handleCmd(cmdBuf);
 288:src/Example_Master.c **** 				cli_process(timer1msDiff);
 289:src/Example_Master.c **** 				*/
 290:src/Example_Master.c **** 				
 291:src/Example_Master.c **** 		
 292:src/Example_Master.c ****        }
 293:src/Example_Master.c **** 
 294:src/Example_Master.c ****        //disable timer and CAN interrupts
 295:src/Example_Master.c ****        timer_disableIrq();
 991              		.loc 2 295 0
 992 0634 1D20     		movs	r0, #29	@,
 993 0636 FFF7F9FC 		bl	NVIC_DisableIRQ	@
 296:src/Example_Master.c ****        can_disableIrq();
 994              		.loc 2 296 0
 995 063a 1920     		movs	r0, #25	@,
 996 063c FFF7F6FC 		bl	NVIC_DisableIRQ	@
 297:src/Example_Master.c **** 	   
 298:src/Example_Master.c ****        pfCoDelete();
 997              		.loc 2 298 0
 998 0640 FFF7FEFF 		bl	pfCoDelete	@
 999              	.L21:
 1000              	.LBE2:
 137:src/Example_Master.c ****     while(reset != enCO_RESET_APP)
 1001              		.loc 2 137 0 discriminator 1
 1002 0644 9DF8D730 		ldrb	r3, [sp, #215]	@ zero_extendqisi2	@ tmp397, reset
 1003 0648 022B     		cmp	r3, #2	@ tmp397,
 1004 064a 7FF4A8AD 		bne	.L41	@,
 299:src/Example_Master.c ****     }
 300:src/Example_Master.c **** 	
 301:src/Example_Master.c ****     /* program exit */
 302:src/Example_Master.c ****     programEnd();
 1005              		.loc 2 302 0
 1006 064e FFF7FEFF 		bl	programEnd	@
 303:src/Example_Master.c **** 
 304:src/Example_Master.c ****     EXAMSTR_DEBUG("\rReset node!");
 1007              		.loc 2 304 0
ARM GAS  C:\Users\Akil\AppData\Local\Temp\cc6kIPJ8.s 			page 42


 1008 0652 094A     		ldr	r2, .L47+16	@ tmp398,
 1009 0654 0B4B     		ldr	r3, .L47+28	@ tmp399,
 1010 0656 1446     		mov	r4, r2	@ tmp400, tmp398
 1011 0658 0FCB     		ldmia	r3, {r0, r1, r2, r3}	@ tmp401,,,,
 1012 065a 07C4     		stmia	r4!, {r0, r1, r2}	@ tmp400,,,
 1013 065c 2370     		strb	r3, [r4]	@, MEM[(void *)&gs_dbgMsg]
 1014 065e 0648     		ldr	r0, .L47+16	@,
 1015 0660 FFF7FEFF 		bl	pfUart0WriteString	@
 1016              	.L42:
 305:src/Example_Master.c ****     board_reset();
 1017              		.loc 2 305 0 discriminator 1
 1018 0664 FEE7     		b	.L42	@
 1019              	.L48:
 1020 0666 00BF     		.align	2
 1021              	.L47:
 1022 0668 00000000 		.word	NODE_ID
 1023 066c 8C010000 		.word	.LC15
 1024 0670 00000000 		.word	gs_data
 1025 0674 A0010000 		.word	.LC16
 1026 0678 24000000 		.word	gs_dbgMsg
 1027 067c BC010000 		.word	.LC17
 1028 0680 00000000 		.word	vcnl_no
 1029 0684 D8010000 		.word	.LC18
 1030              		.cfi_endproc
 1031              	.LFE56:
 1032              		.size	main, .-main
 1033              		.bss
 1034              	gs_nodeId:
 1035 00a4 00       		.space	1
 1036              	gs_objSubIdx:
 1037 00a5 00       		.space	1
 1038              		.align	1
 1039              	gs_objIdx:
 1040 00a6 0000     		.space	2
 1041              		.align	2
 1042              	gs_SDO_C:
 1043 00a8 00000000 		.space	4
 1044              		.align	2
 1045              	gs_bSDORead:
 1046 00ac 00000000 		.space	4
 1047              		.section	.rodata
 1048 01e5 000000   		.align	2
 1049              	.LC19:
 1050 01e8 0D53656E 		.ascii	"\015Send NMT command.\000"
 1050      64204E4D 
 1050      5420636F 
 1050      6D6D616E 
 1050      642E00
 1051 01fb 00       		.align	2
 1052              	.LC20:
 1053 01fc 0D557361 		.ascii	"\015Usage:\000"
 1053      67653A00 
 1054              		.align	2
 1055              	.LC21:
 1056 0204 0D20206E 		.ascii	"\015  nmt <nodeId> (op | preop | stop | rst | comrs"
 1056      6D74203C 
 1056      6E6F6465 
ARM GAS  C:\Users\Akil\AppData\Local\Temp\cc6kIPJ8.s 			page 43


 1056      49643E20 
 1056      286F7020 
 1057 0234 742900   		.ascii	"t)\000"
 1058 0237 00       		.align	2
 1059              	.LC22:
 1060 0238 0D20206E 		.ascii	"\015  nodeId - node ID in hex format.\000"
 1060      6F646549 
 1060      64202D20 
 1060      6E6F6465 
 1060      20494420 
 1061 025b 00       		.align	2
 1062              	.LC23:
 1063 025c 0D20206F 		.ascii	"\015  op     - Enter operational state.\000"
 1063      70202020 
 1063      20202D20 
 1063      456E7465 
 1063      72206F70 
 1064 0281 000000   		.align	2
 1065              	.LC24:
 1066 0284 0D202070 		.ascii	"\015  preop  - Enter pre-operational state.\000"
 1066      72656F70 
 1066      20202D20 
 1066      456E7465 
 1066      72207072 
 1067 02ad 000000   		.align	2
 1068              	.LC25:
 1069 02b0 0D202073 		.ascii	"\015  stop   - Enter stopped state.\000"
 1069      746F7020 
 1069      20202D20 
 1069      456E7465 
 1069      72207374 
 1070 02d1 000000   		.align	2
 1071              	.LC26:
 1072 02d4 0D202072 		.ascii	"\015  rst    - Reset node.\000"
 1072      73742020 
 1072      20202D20 
 1072      52657365 
 1072      74206E6F 
 1073              		.align	2
 1074              	.LC27:
 1075 02ec 0D202063 		.ascii	"\015  comrst - Reset communication.\000"
 1075      6F6D7273 
 1075      74202D20 
 1075      52657365 
 1075      7420636F 
 1076              		.text
 1077              		.align	2
 1078              		.thumb
 1079              		.thumb_func
 1080              		.type	cli_nmtCmdPrintHelp, %function
 1081              	cli_nmtCmdPrintHelp:
 1082              	.LFB57:
 306:src/Example_Master.c **** 
 307:src/Example_Master.c ****    return 0;
 308:src/Example_Master.c **** }
 309:src/Example_Master.c **** 
 310:src/Example_Master.c **** #define CLI_DATA_MAX_LEN        32
ARM GAS  C:\Users\Akil\AppData\Local\Temp\cc6kIPJ8.s 			page 44


 311:src/Example_Master.c **** #define CLI_MAX_ARG_NUM         16
 312:src/Example_Master.c **** 
 313:src/Example_Master.c **** #define CLI_NMT_ARG_NODE_POS    0
 314:src/Example_Master.c **** #define CLI_NMT_ARG_CMD_POS     1
 315:src/Example_Master.c **** #define CLI_NMT_ARG_NUM         2
 316:src/Example_Master.c **** #define CLI_SDOR_ARG_NODE_POS   0
 317:src/Example_Master.c **** #define CLI_SDOR_ARG_IDX_POS    1
 318:src/Example_Master.c **** #define CLI_SDOR_ARG_SIDX_POS   2
 319:src/Example_Master.c **** #define CLI_SDOR_ARG_NUM        3
 320:src/Example_Master.c **** #define CLI_SDOW_ARG_NODE_POS   0
 321:src/Example_Master.c **** #define CLI_SDOW_ARG_IDX_POS    1
 322:src/Example_Master.c **** #define CLI_SDOW_ARG_SIDX_POS   2
 323:src/Example_Master.c **** #define CLI_SDOW_ARG_LEN_POS    3
 324:src/Example_Master.c **** #define CLI_SDOW_ARG_VAL_POS    4
 325:src/Example_Master.c **** #define CLI_SDOW_ARG_NUM        5
 326:src/Example_Master.c **** 
 327:src/Example_Master.c **** 
 328:src/Example_Master.c **** static PFbyte gs_nodeId, gs_objSubIdx;
 329:src/Example_Master.c **** static PFword gs_objIdx;
 330:src/Example_Master.c **** static PFCoSdoClient *gs_SDO_C = NULL;
 331:src/Example_Master.c **** static int gs_bSDORead;
 332:src/Example_Master.c **** 
 333:src/Example_Master.c **** static void cli_nmtCmdPrintHelp(void)
 334:src/Example_Master.c **** {
 1083              		.loc 2 334 0
 1084              		.cfi_startproc
 1085              		@ args = 0, pretend = 0, frame = 0
 1086              		@ frame_needed = 0, uses_anonymous_args = 0
 1087 0688 38B5     		push	{r3, r4, r5, lr}	@
 1088              	.LCFI5:
 1089              		.cfi_def_cfa_offset 16
 1090              		.cfi_offset 3, -16
 1091              		.cfi_offset 4, -12
 1092              		.cfi_offset 5, -8
 1093              		.cfi_offset 14, -4
 335:src/Example_Master.c ****     EXAMSTR_DEBUG("\rSend NMT command.");
 1094              		.loc 2 335 0
 1095 068a 414A     		ldr	r2, .L50	@ tmp110,
 1096 068c 414B     		ldr	r3, .L50+4	@ tmp111,
 1097 068e 1446     		mov	r4, r2	@ tmp112, tmp110
 1098 0690 1D46     		mov	r5, r3	@ tmp113, tmp111
 1099 0692 0FCD     		ldmia	r5!, {r0, r1, r2, r3}	@ tmp113,,,,
 1100 0694 0FC4     		stmia	r4!, {r0, r1, r2, r3}	@ tmp112,,,,
 1101 0696 2B68     		ldr	r3, [r5]	@ tmp114, MEM[(void *)"\rSend NMT command."]
 1102 0698 1A46     		mov	r2, r3	@ movhi	@ tmp115, tmp114
 1103 069a 2280     		strh	r2, [r4]	@ movhi	@ tmp115, MEM[(void *)&gs_dbgMsg]
 1104 069c 0234     		adds	r4, r4, #2	@ tmp112, tmp112,
 1105 069e 1B0C     		lsrs	r3, r3, #16	@ tmp116, tmp114,
 1106 06a0 2370     		strb	r3, [r4]	@ tmp117, MEM[(void *)&gs_dbgMsg]
 1107 06a2 3B48     		ldr	r0, .L50	@,
 1108 06a4 FFF7FEFF 		bl	pfUart0WriteString	@
 336:src/Example_Master.c ****     EXAMSTR_DEBUG("\rUsage:");
 1109              		.loc 2 336 0
 1110 06a8 394B     		ldr	r3, .L50	@ tmp118,
 1111 06aa 3B4A     		ldr	r2, .L50+8	@ tmp119,
 1112 06ac 92E80300 		ldmia	r2, {r0, r1}	@ tmp121,,
 1113 06b0 83E80300 		stmia	r3, {r0, r1}	@ tmp120,,
ARM GAS  C:\Users\Akil\AppData\Local\Temp\cc6kIPJ8.s 			page 45


 1114 06b4 3648     		ldr	r0, .L50	@,
 1115 06b6 FFF7FEFF 		bl	pfUart0WriteString	@
 337:src/Example_Master.c ****     EXAMSTR_DEBUG("\r  nmt <nodeId> (op | preop | stop | rst | comrst)");
 1116              		.loc 2 337 0
 1117 06ba 354A     		ldr	r2, .L50	@ tmp122,
 1118 06bc 374B     		ldr	r3, .L50+12	@ tmp123,
 1119 06be 1446     		mov	r4, r2	@ tmp124, tmp122
 1120 06c0 1D46     		mov	r5, r3	@ tmp125, tmp123
 1121 06c2 0FCD     		ldmia	r5!, {r0, r1, r2, r3}	@ tmp125,,,,
 1122 06c4 0FC4     		stmia	r4!, {r0, r1, r2, r3}	@ tmp124,,,,
 1123 06c6 0FCD     		ldmia	r5!, {r0, r1, r2, r3}	@ tmp125,,,,
 1124 06c8 0FC4     		stmia	r4!, {r0, r1, r2, r3}	@ tmp124,,,,
 1125 06ca 0FCD     		ldmia	r5!, {r0, r1, r2, r3}	@ tmp125,,,,
 1126 06cc 0FC4     		stmia	r4!, {r0, r1, r2, r3}	@ tmp124,,,,
 1127 06ce 2B68     		ldr	r3, [r5]	@ tmp126, MEM[(void *)"\r  nmt <nodeId> (op | preop | stop | rst | comrst)"]
 1128 06d0 1A46     		mov	r2, r3	@ movhi	@ tmp127, tmp126
 1129 06d2 2280     		strh	r2, [r4]	@ movhi	@ tmp127, MEM[(void *)&gs_dbgMsg]
 1130 06d4 0234     		adds	r4, r4, #2	@ tmp124, tmp124,
 1131 06d6 1B0C     		lsrs	r3, r3, #16	@ tmp128, tmp126,
 1132 06d8 2370     		strb	r3, [r4]	@ tmp129, MEM[(void *)&gs_dbgMsg]
 1133 06da 2D48     		ldr	r0, .L50	@,
 1134 06dc FFF7FEFF 		bl	pfUart0WriteString	@
 338:src/Example_Master.c ****     EXAMSTR_DEBUG("\r  nodeId - node ID in hex format.");
 1135              		.loc 2 338 0
 1136 06e0 2B4A     		ldr	r2, .L50	@ tmp130,
 1137 06e2 2F4B     		ldr	r3, .L50+16	@ tmp131,
 1138 06e4 1446     		mov	r4, r2	@ tmp132, tmp130
 1139 06e6 1D46     		mov	r5, r3	@ tmp133, tmp131
 1140 06e8 0FCD     		ldmia	r5!, {r0, r1, r2, r3}	@ tmp133,,,,
 1141 06ea 0FC4     		stmia	r4!, {r0, r1, r2, r3}	@ tmp132,,,,
 1142 06ec 0FCD     		ldmia	r5!, {r0, r1, r2, r3}	@ tmp133,,,,
 1143 06ee 0FC4     		stmia	r4!, {r0, r1, r2, r3}	@ tmp132,,,,
 1144 06f0 2B68     		ldr	r3, [r5]	@ tmp134, MEM[(void *)"\r  nodeId - node ID in hex format."]
 1145 06f2 1A46     		mov	r2, r3	@ movhi	@ tmp135, tmp134
 1146 06f4 2280     		strh	r2, [r4]	@ movhi	@ tmp135, MEM[(void *)&gs_dbgMsg]
 1147 06f6 0234     		adds	r4, r4, #2	@ tmp132, tmp132,
 1148 06f8 1B0C     		lsrs	r3, r3, #16	@ tmp136, tmp134,
 1149 06fa 2370     		strb	r3, [r4]	@ tmp137, MEM[(void *)&gs_dbgMsg]
 1150 06fc 2448     		ldr	r0, .L50	@,
 1151 06fe FFF7FEFF 		bl	pfUart0WriteString	@
 339:src/Example_Master.c ****     EXAMSTR_DEBUG("\r  op     - Enter operational state.");
 1152              		.loc 2 339 0
 1153 0702 234A     		ldr	r2, .L50	@ tmp138,
 1154 0704 274B     		ldr	r3, .L50+20	@ tmp139,
 1155 0706 1446     		mov	r4, r2	@ tmp140, tmp138
 1156 0708 1D46     		mov	r5, r3	@ tmp141, tmp139
 1157 070a 0FCD     		ldmia	r5!, {r0, r1, r2, r3}	@ tmp141,,,,
 1158 070c 0FC4     		stmia	r4!, {r0, r1, r2, r3}	@ tmp140,,,,
 1159 070e 0FCD     		ldmia	r5!, {r0, r1, r2, r3}	@ tmp141,,,,
 1160 0710 0FC4     		stmia	r4!, {r0, r1, r2, r3}	@ tmp140,,,,
 1161 0712 95E80300 		ldmia	r5, {r0, r1}	@ tmp141,,
 1162 0716 2060     		str	r0, [r4]	@, MEM[(void *)&gs_dbgMsg]
 1163 0718 0434     		adds	r4, r4, #4	@ tmp140, tmp140,
 1164 071a 2170     		strb	r1, [r4]	@, MEM[(void *)&gs_dbgMsg]
 1165 071c 1C48     		ldr	r0, .L50	@,
 1166 071e FFF7FEFF 		bl	pfUart0WriteString	@
 340:src/Example_Master.c ****     EXAMSTR_DEBUG("\r  preop  - Enter pre-operational state.");
ARM GAS  C:\Users\Akil\AppData\Local\Temp\cc6kIPJ8.s 			page 46


 1167              		.loc 2 340 0
 1168 0722 1B4A     		ldr	r2, .L50	@ tmp142,
 1169 0724 204B     		ldr	r3, .L50+24	@ tmp143,
 1170 0726 1446     		mov	r4, r2	@ tmp144, tmp142
 1171 0728 1D46     		mov	r5, r3	@ tmp145, tmp143
 1172 072a 0FCD     		ldmia	r5!, {r0, r1, r2, r3}	@ tmp145,,,,
 1173 072c 0FC4     		stmia	r4!, {r0, r1, r2, r3}	@ tmp144,,,,
 1174 072e 0FCD     		ldmia	r5!, {r0, r1, r2, r3}	@ tmp145,,,,
 1175 0730 0FC4     		stmia	r4!, {r0, r1, r2, r3}	@ tmp144,,,,
 1176 0732 95E80700 		ldmia	r5, {r0, r1, r2}	@ tmp145,,,
 1177 0736 03C4     		stmia	r4!, {r0, r1}	@ tmp144,,
 1178 0738 2270     		strb	r2, [r4]	@, MEM[(void *)&gs_dbgMsg]
 1179 073a 1548     		ldr	r0, .L50	@,
 1180 073c FFF7FEFF 		bl	pfUart0WriteString	@
 341:src/Example_Master.c ****     EXAMSTR_DEBUG("\r  stop   - Enter stopped state.");
 1181              		.loc 2 341 0
 1182 0740 134A     		ldr	r2, .L50	@ tmp146,
 1183 0742 1A4B     		ldr	r3, .L50+28	@ tmp147,
 1184 0744 1446     		mov	r4, r2	@ tmp148, tmp146
 1185 0746 1D46     		mov	r5, r3	@ tmp149, tmp147
 1186 0748 0FCD     		ldmia	r5!, {r0, r1, r2, r3}	@ tmp149,,,,
