ARM GAS  C:\Users\Akil\AppData\Local\Temp\cck4RU2M.s 			page 1


   1              		.syntax unified
   2              		.cpu cortex-m3
   3              		.fpu softvfp
   4              		.eabi_attribute 20, 1	@ Tag_ABI_FP_denormal
   5              		.eabi_attribute 21, 1	@ Tag_ABI_FP_exceptions
   6              		.eabi_attribute 23, 3	@ Tag_ABI_FP_number_model
   7              		.eabi_attribute 24, 1	@ Tag_ABI_align8_needed
   8              		.eabi_attribute 25, 1	@ Tag_ABI_align8_preserved
   9              		.eabi_attribute 26, 1	@ Tag_ABI_enum_size
  10              		.eabi_attribute 30, 6	@ Tag_ABI_optimization_goals
  11              		.eabi_attribute 34, 1	@ Tag_CPU_unaligned_access
  12              		.eabi_attribute 18, 4	@ Tag_ABI_PCS_wchar_t
  13              		.file	"prime_CO_OD.c"
  14              	@ GNU C (GNU Tools for ARM Embedded Processors) version 4.8.4 20140526 (release) [ARM/embedded-4_8-
  15              	@	compiled by GNU C version 4.6.4, GMP version 4.3.2, MPFR version 2.4.2, MPC version 0.8.1
  16              	@ GGC heuristics: --param ggc-min-expand=100 --param ggc-min-heapsize=131072
  17              	@ options passed:  -I . -I ./include -I ./cmsis/core -I ./cmsis/device
  18              	@ -I ./prime-framework -I ./prime-framework/include
  19              	@ -I ./prime-framework/arch/arm/cortex-m3/lpc1768/include
  20              	@ -I ./prime-framework/common/include -I ./prime-framework/utils/include
  21              	@ -I ./prime-framework/nativehardware/lpc1768/include
  22              	@ -I ./prime-framework/device/include
  23              	@ -I ./prime-framework/extensions/canopen/common/include
  24              	@ -I ./prime-framework/extensions/canopen/lpc1768/include
  25              	@ -imultilib armv7-m
  26              	@ -iprefix c:\program files\gnu tools arm embedded\4.8 2014q2\bin\../lib/gcc/arm-none-eabi/4.8.4/
  27              	@ -isysroot c:\program files\gnu tools arm embedded\4.8 2014q2\bin\../arm-none-eabi
  28              	@ -MD src/prime_CO_OD.d -MF .dep/prime_CO_OD.o.d -MP -MQ src/prime_CO_OD.o
  29              	@ -D__USES_INITFINI__ -D CORE_FAMILY_arm -D MCU_CHIP_lpc1768 -D PRIME_DEBUG
  30              	@ -D RUN_FROM_FLASH=1 src/prime_CO_OD.c -mcpu=cortex-m3 -mthumb
  31              	@ -auxbase-strip src/prime_CO_OD.o -gdwarf-2 -O0 -Wall -Wstrict-prototypes
  32              	@ -fomit-frame-pointer -fverbose-asm
  33              	@ options enabled:  -faggressive-loop-optimizations -fauto-inc-dec
  34              	@ -fbranch-count-reg -fcommon -fdelete-null-pointer-checks -fdwarf2-cfi-asm
  35              	@ -fearly-inlining -feliminate-unused-debug-types -ffunction-cse -fgcse-lm
  36              	@ -fgnu-runtime -fident -finline-atomics -fira-hoist-pressure
  37              	@ -fira-share-save-slots -fira-share-spill-slots -fivopts
  38              	@ -fkeep-static-consts -fleading-underscore -fmath-errno
  39              	@ -fmerge-debug-strings -fmove-loop-invariants -fomit-frame-pointer
  40              	@ -fpeephole -fprefetch-loop-arrays -freg-struct-return
  41              	@ -fsched-critical-path-heuristic -fsched-dep-count-heuristic
  42              	@ -fsched-group-heuristic -fsched-interblock -fsched-last-insn-heuristic
  43              	@ -fsched-rank-heuristic -fsched-spec -fsched-spec-insn-heuristic
  44              	@ -fsched-stalled-insns-dep -fshow-column -fsigned-zeros
  45              	@ -fsplit-ivs-in-unroller -fstrict-volatile-bitfields -fsync-libcalls
  46              	@ -ftrapping-math -ftree-coalesce-vars -ftree-cselim -ftree-forwprop
  47              	@ -ftree-loop-if-convert -ftree-loop-im -ftree-loop-ivcanon
  48              	@ -ftree-loop-optimize -ftree-parallelize-loops= -ftree-phiprop -ftree-pta
  49              	@ -ftree-reassoc -ftree-scev-cprop -ftree-slp-vectorize
  50              	@ -ftree-vect-loop-version -funit-at-a-time -fverbose-asm
  51              	@ -fzero-initialized-in-bss -mfix-cortex-m3-ldrd -mlittle-endian
  52              	@ -mpic-data-is-text-relative -msched-prolog -mthumb -munaligned-access
  53              	@ -mvectorize-with-neon-quad
  54              	
  55              		.text
  56              	.Ltext0:
  57              		.cfi_sections	.debug_frame
ARM GAS  C:\Users\Akil\AppData\Local\Temp\cck4RU2M.s 			page 2


  58              		.global	CO_OD_RAM
  59              		.data
  60              		.align	3
  61              		.type	CO_OD_RAM, %object
  62              		.size	CO_OD_RAM, 1288
  63              	CO_OD_RAM:
  64              	@ FirstWord:
  65 0000 55000000 		.word	85
  66              	@ errorRegister:
  67 0004 00       		.byte	0
  68              	@ manufacturerStatusRegister:
  69 0005 000000   		.space	3
  70 0008 00000000 		.word	0
  71              	@ preDefinedErrorField:
  72 000c 00000000 		.word	0
  73 0010 00000000 		.word	0
  74 0014 00000000 		.word	0
  75 0018 00000000 		.word	0
  76 001c 00000000 		.word	0
  77 0020 00000000 		.word	0
  78 0024 00000000 		.word	0
  79 0028 00000000 		.word	0
  80              	@ storeParameters:
  81 002c 03000000 		.word	3
  82              	@ restoreDefaultParameters:
  83 0030 01000000 		.word	1
  84              	@ SDOClientParameter:
  85              	@ maxSubIndex:
  86 0034 03       		.byte	3
  87              	@ COB_IDClientToServer:
  88 0035 000000   		.space	3
  89 0038 00000000 		.word	0
  90              	@ COB_IDServerToClient:
  91 003c 00000000 		.word	0
  92              	@ nodeIDOfTheSDOServer:
  93 0040 00       		.byte	0
  94 0041 000000   		.space	3
  95              	@ errorStatusBits:
  96 0044 00       		.byte	0
  97 0045 00       		.byte	0
  98 0046 00       		.byte	0
  99 0047 00       		.byte	0
 100 0048 00       		.byte	0
 101 0049 00       		.byte	0
 102 004a 00       		.byte	0
 103 004b 00       		.byte	0
 104 004c 00       		.byte	0
 105 004d 00       		.byte	0
 106              	@ SYNCCounter:
 107 004e 0000     		.short	0
 108              	@ SYNCTime:
 109 0050 0000     		.short	0
 110              	@ performance:
 111 0052 E803     		.short	1000
 112 0054 0000     		.short	0
 113 0056 0000     		.short	0
 114 0058 0000     		.short	0
ARM GAS  C:\Users\Akil\AppData\Local\Temp\cck4RU2M.s 			page 3


 115 005a 0000     		.short	0
 116              	@ temperature:
 117 005c 0000     		.short	0
 118              	@ voltage:
 119 005e 0000     		.short	0
 120              	@ variableInt32:
 121 0060 00000000 		.word	0
 122 0064 00000000 		.word	0
 123 0068 00000000 		.word	0
 124 006c 00000000 		.word	0
 125 0070 00000000 		.word	0
 126 0074 00000000 		.word	0
 127 0078 00000000 		.word	0
 128 007c 00000000 		.word	0
 129 0080 00000000 		.word	0
 130 0084 00000000 		.word	0
 131 0088 00000000 		.word	0
 132 008c 00000000 		.word	0
 133 0090 00000000 		.word	0
 134 0094 00000000 		.word	0
 135 0098 00000000 		.word	0
 136 009c 00000000 		.word	0
 137              	@ testVar:
 138              	@ maxSubIndex:
 139 00a0 05       		.byte	5
 140              	@ I64:
 141 00a1 00000000 		.space	7
 141      000000
 142 00a8 EFCDAB90 		.word	-1867788817
 143 00ac 78563412 		.word	305419896
 144              	@ U64:
 145 00b0 F1DEBC0A 		.word	180150001
 146 00b4 89674523 		.word	591751049
 147              	@ R32:
 148 00b8 1F854541 		.word	1095075103
 149              	@ R64:
 150 00bc 00000000 		.space	4
 151 00c0 B4C876BE 		.word	-1099511628
 152 00c4 9F8C7C40 		.word	1081904287
 153              	@ domain:
 154 00c8 00       		.byte	0
 155 00c9 00000000 		.space	7
 155      000000
 156              	@ readInput8Bit:
 157 00d0 00       		.byte	0
 158 00d1 00       		.byte	0
 159 00d2 00       		.byte	0
 160 00d3 00       		.byte	0
 161 00d4 00       		.byte	0
 162 00d5 00       		.byte	0
 163 00d6 00       		.byte	0
 164 00d7 00       		.byte	0
 165              	@ writeOutput8Bit0:
 166 00d8 00       		.byte	0
 167 00d9 00       		.byte	0
 168 00da 00       		.byte	0
 169 00db 00       		.byte	0
ARM GAS  C:\Users\Akil\AppData\Local\Temp\cck4RU2M.s 			page 4


 170 00dc 00       		.byte	0
 171 00dd 00       		.byte	0
 172 00de 00       		.byte	0
 173 00df 00       		.byte	0
 174 00e0 00       		.byte	0
 175 00e1 00       		.byte	0
 176 00e2 00       		.byte	0
 177 00e3 00       		.byte	0
 178 00e4 00       		.byte	0
 179 00e5 00       		.byte	0
 180 00e6 00       		.byte	0
 181 00e7 00       		.byte	0
 182 00e8 00       		.byte	0
 183 00e9 00       		.byte	0
 184 00ea 00       		.byte	0
 185 00eb 00       		.byte	0
 186 00ec 00       		.byte	0
 187 00ed 00       		.byte	0
 188 00ee 00       		.byte	0
 189 00ef 00       		.byte	0
 190 00f0 00       		.byte	0
 191 00f1 00       		.byte	0
 192 00f2 00       		.byte	0
 193 00f3 00       		.byte	0
 194 00f4 00       		.byte	0
 195 00f5 00       		.byte	0
 196 00f6 00       		.byte	0
 197 00f7 00       		.byte	0
 198              	@ writeOutput8Bit1:
 199 00f8 00       		.byte	0
 200 00f9 00       		.byte	0
 201 00fa 00       		.byte	0
 202 00fb 00       		.byte	0
 203 00fc 00       		.byte	0
 204 00fd 00       		.byte	0
 205 00fe 00       		.byte	0
 206 00ff 00       		.byte	0
 207 0100 00       		.byte	0
 208 0101 00       		.byte	0
 209 0102 00       		.byte	0
 210 0103 00       		.byte	0
 211 0104 00       		.byte	0
 212 0105 00       		.byte	0
 213 0106 00       		.byte	0
 214 0107 00       		.byte	0
 215 0108 00       		.byte	0
 216 0109 00       		.byte	0
 217 010a 00       		.byte	0
 218 010b 00       		.byte	0
 219 010c 00       		.byte	0
 220 010d 00       		.byte	0
 221 010e 00       		.byte	0
 222 010f 00       		.byte	0
 223 0110 00       		.byte	0
 224 0111 00       		.byte	0
 225 0112 00       		.byte	0
 226 0113 00       		.byte	0
ARM GAS  C:\Users\Akil\AppData\Local\Temp\cck4RU2M.s 			page 5


 227 0114 00       		.byte	0
 228 0115 00       		.byte	0
 229 0116 00       		.byte	0
 230 0117 00       		.byte	0
 231              	@ writeOutput8Bit2:
 232 0118 00       		.byte	0
 233 0119 00       		.byte	0
 234 011a 00       		.byte	0
 235 011b 00       		.byte	0
 236 011c 00       		.byte	0
 237 011d 00       		.byte	0
 238 011e 00       		.byte	0
 239 011f 00       		.byte	0
 240 0120 00       		.byte	0
 241 0121 00       		.byte	0
 242 0122 00       		.byte	0
 243 0123 00       		.byte	0
 244 0124 00       		.byte	0
 245 0125 00       		.byte	0
 246 0126 00       		.byte	0
 247 0127 00       		.byte	0
 248 0128 00       		.byte	0
 249 0129 00       		.byte	0
 250 012a 00       		.byte	0
 251 012b 00       		.byte	0
 252 012c 00       		.byte	0
 253 012d 00       		.byte	0
 254 012e 00       		.byte	0
 255 012f 00       		.byte	0
 256 0130 00       		.byte	0
 257 0131 00       		.byte	0
 258 0132 00       		.byte	0
 259 0133 00       		.byte	0
 260 0134 00       		.byte	0
 261 0135 00       		.byte	0
 262 0136 00       		.byte	0
 263 0137 00       		.byte	0
 264              	@ writeOutput8Bit3:
 265 0138 00       		.byte	0
 266 0139 00       		.byte	0
 267 013a 00       		.byte	0
 268 013b 00       		.byte	0
 269 013c 00       		.byte	0
 270 013d 00       		.byte	0
 271 013e 00       		.byte	0
 272 013f 00       		.byte	0
 273 0140 00       		.byte	0
 274 0141 00       		.byte	0
 275 0142 00       		.byte	0
 276 0143 00       		.byte	0
 277 0144 00       		.byte	0
 278 0145 00       		.byte	0
 279 0146 00       		.byte	0
 280 0147 00       		.byte	0
 281 0148 00       		.byte	0
 282 0149 00       		.byte	0
 283 014a 00       		.byte	0
ARM GAS  C:\Users\Akil\AppData\Local\Temp\cck4RU2M.s 			page 6


 284 014b 00       		.byte	0
 285 014c 00       		.byte	0
 286 014d 00       		.byte	0
 287 014e 00       		.byte	0
 288 014f 00       		.byte	0
 289 0150 00       		.byte	0
 290 0151 00       		.byte	0
 291 0152 00       		.byte	0
 292 0153 00       		.byte	0
 293 0154 00       		.byte	0
 294 0155 00       		.byte	0
 295 0156 00       		.byte	0
 296 0157 00       		.byte	0
 297              	@ writeOutput8Bit4:
 298 0158 00       		.byte	0
 299 0159 00       		.byte	0
 300 015a 00       		.byte	0
 301 015b 00       		.byte	0
 302 015c 00       		.byte	0
 303 015d 00       		.byte	0
 304 015e 00       		.byte	0
 305 015f 00       		.byte	0
 306 0160 00       		.byte	0
 307 0161 00       		.byte	0
 308 0162 00       		.byte	0
 309 0163 00       		.byte	0
 310 0164 00       		.byte	0
 311 0165 00       		.byte	0
 312 0166 00       		.byte	0
 313 0167 00       		.byte	0
 314 0168 00       		.byte	0
 315 0169 00       		.byte	0
 316 016a 00       		.byte	0
 317 016b 00       		.byte	0
 318 016c 00       		.byte	0
 319 016d 00       		.byte	0
 320 016e 00       		.byte	0
 321 016f 00       		.byte	0
 322 0170 00       		.byte	0
 323 0171 00       		.byte	0
 324 0172 00       		.byte	0
 325 0173 00       		.byte	0
 326 0174 00       		.byte	0
 327 0175 00       		.byte	0
 328 0176 00       		.byte	0
 329 0177 00       		.byte	0
 330              	@ writeOutput8Bit5:
 331 0178 00       		.byte	0
 332 0179 00       		.byte	0
 333 017a 00       		.byte	0
 334 017b 00       		.byte	0
 335 017c 00       		.byte	0
 336 017d 00       		.byte	0
 337 017e 00       		.byte	0
 338 017f 00       		.byte	0
 339 0180 00       		.byte	0
 340 0181 00       		.byte	0
ARM GAS  C:\Users\Akil\AppData\Local\Temp\cck4RU2M.s 			page 7


 341 0182 00       		.byte	0
 342 0183 00       		.byte	0
 343 0184 00       		.byte	0
 344 0185 00       		.byte	0
 345 0186 00       		.byte	0
 346 0187 00       		.byte	0
 347 0188 00       		.byte	0
 348 0189 00       		.byte	0
 349 018a 00       		.byte	0
 350 018b 00       		.byte	0
 351 018c 00       		.byte	0
 352 018d 00       		.byte	0
 353 018e 00       		.byte	0
 354 018f 00       		.byte	0
 355 0190 00       		.byte	0
 356 0191 00       		.byte	0
 357 0192 00       		.byte	0
 358 0193 00       		.byte	0
 359 0194 00       		.byte	0
 360 0195 00       		.byte	0
 361 0196 00       		.byte	0
 362 0197 00       		.byte	0
 363              	@ writeOutput8Bit6:
 364 0198 00       		.byte	0
 365 0199 00       		.byte	0
 366 019a 00       		.byte	0
 367 019b 00       		.byte	0
 368 019c 00       		.byte	0
 369 019d 00       		.byte	0
 370 019e 00       		.byte	0
 371 019f 00       		.byte	0
 372 01a0 00       		.byte	0
 373 01a1 00       		.byte	0
 374 01a2 00       		.byte	0
 375 01a3 00       		.byte	0
 376 01a4 00       		.byte	0
 377 01a5 00       		.byte	0
 378 01a6 00       		.byte	0
 379 01a7 00       		.byte	0
 380 01a8 00       		.byte	0
 381 01a9 00       		.byte	0
 382 01aa 00       		.byte	0
 383 01ab 00       		.byte	0
 384 01ac 00       		.byte	0
 385 01ad 00       		.byte	0
 386 01ae 00       		.byte	0
 387 01af 00       		.byte	0
 388 01b0 00       		.byte	0
 389 01b1 00       		.byte	0
 390 01b2 00       		.byte	0
 391 01b3 00       		.byte	0
 392 01b4 00       		.byte	0
 393 01b5 00       		.byte	0
 394 01b6 00       		.byte	0
 395 01b7 00       		.byte	0
 396              	@ writeOutput8Bit7:
 397 01b8 00       		.byte	0
ARM GAS  C:\Users\Akil\AppData\Local\Temp\cck4RU2M.s 			page 8


 398 01b9 00       		.byte	0
 399 01ba 00       		.byte	0
 400 01bb 00       		.byte	0
 401 01bc 00       		.byte	0
 402 01bd 00       		.byte	0
 403 01be 00       		.byte	0
 404 01bf 00       		.byte	0
 405 01c0 00       		.byte	0
 406 01c1 00       		.byte	0
 407 01c2 00       		.byte	0
 408 01c3 00       		.byte	0
 409 01c4 00       		.byte	0
 410 01c5 00       		.byte	0
 411 01c6 00       		.byte	0
 412 01c7 00       		.byte	0
 413 01c8 00       		.byte	0
 414 01c9 00       		.byte	0
 415 01ca 00       		.byte	0
 416 01cb 00       		.byte	0
 417 01cc 00       		.byte	0
 418 01cd 00       		.byte	0
 419 01ce 00       		.byte	0
 420 01cf 00       		.byte	0
 421 01d0 00       		.byte	0
 422 01d1 00       		.byte	0
 423 01d2 00       		.byte	0
 424 01d3 00       		.byte	0
 425 01d4 00       		.byte	0
 426 01d5 00       		.byte	0
 427 01d6 00       		.byte	0
 428 01d7 00       		.byte	0
 429              	@ writeOutput8Bit8:
 430 01d8 00       		.byte	0
 431 01d9 00       		.byte	0
 432 01da 00       		.byte	0
 433 01db 00       		.byte	0
 434 01dc 00       		.byte	0
 435 01dd 00       		.byte	0
 436 01de 00       		.byte	0
 437 01df 00       		.byte	0
 438 01e0 00       		.byte	0
 439 01e1 00       		.byte	0
 440 01e2 00       		.byte	0
 441 01e3 00       		.byte	0
 442 01e4 00       		.byte	0
 443 01e5 00       		.byte	0
 444 01e6 00       		.byte	0
 445 01e7 00       		.byte	0
 446 01e8 00       		.byte	0
 447 01e9 00       		.byte	0
 448 01ea 00       		.byte	0
 449 01eb 00       		.byte	0
 450 01ec 00       		.byte	0
 451 01ed 00       		.byte	0
 452 01ee 00       		.byte	0
 453 01ef 00       		.byte	0
 454 01f0 00       		.byte	0
ARM GAS  C:\Users\Akil\AppData\Local\Temp\cck4RU2M.s 			page 9


 455 01f1 00       		.byte	0
 456 01f2 00       		.byte	0
 457 01f3 00       		.byte	0
 458 01f4 00       		.byte	0
 459 01f5 00       		.byte	0
 460 01f6 00       		.byte	0
 461 01f7 00       		.byte	0
 462              	@ writeOutput8Bit9:
 463 01f8 00       		.byte	0
 464 01f9 00       		.byte	0
 465 01fa 00       		.byte	0
 466 01fb 00       		.byte	0
 467 01fc 00       		.byte	0
 468 01fd 00       		.byte	0
 469 01fe 00       		.byte	0
 470 01ff 00       		.byte	0
 471 0200 00       		.byte	0
 472 0201 00       		.byte	0
 473 0202 00       		.byte	0
 474 0203 00       		.byte	0
 475 0204 00       		.byte	0
 476 0205 00       		.byte	0
 477 0206 00       		.byte	0
 478 0207 00       		.byte	0
 479 0208 00       		.byte	0
 480 0209 00       		.byte	0
 481 020a 00       		.byte	0
 482 020b 00       		.byte	0
 483 020c 00       		.byte	0
 484 020d 00       		.byte	0
 485 020e 00       		.byte	0
 486 020f 00       		.byte	0
 487 0210 00       		.byte	0
 488 0211 00       		.byte	0
 489 0212 00       		.byte	0
 490 0213 00       		.byte	0
 491 0214 00       		.byte	0
 492 0215 00       		.byte	0
 493 0216 00       		.byte	0
 494 0217 00       		.byte	0
 495              	@ writeOutput8Bit10:
 496 0218 00       		.byte	0
 497 0219 00       		.byte	0
 498 021a 00       		.byte	0
 499 021b 00       		.byte	0
 500 021c 00       		.byte	0
 501 021d 00       		.byte	0
 502 021e 00       		.byte	0
 503 021f 00       		.byte	0
 504 0220 00       		.byte	0
 505 0221 00       		.byte	0
 506 0222 00       		.byte	0
 507 0223 00       		.byte	0
 508 0224 00       		.byte	0
 509 0225 00       		.byte	0
 510 0226 00       		.byte	0
 511 0227 00       		.byte	0
ARM GAS  C:\Users\Akil\AppData\Local\Temp\cck4RU2M.s 			page 10


 512 0228 00       		.byte	0
 513 0229 00       		.byte	0
 514 022a 00       		.byte	0
 515 022b 00       		.byte	0
 516 022c 00       		.byte	0
 517 022d 00       		.byte	0
 518 022e 00       		.byte	0
 519 022f 00       		.byte	0
 520 0230 00       		.byte	0
 521 0231 00       		.byte	0
 522 0232 00       		.byte	0
 523 0233 00       		.byte	0
 524 0234 00       		.byte	0
 525 0235 00       		.byte	0
 526 0236 00       		.byte	0
 527 0237 00       		.byte	0
 528              	@ writeOutput8Bit11:
 529 0238 00       		.byte	0
 530 0239 00       		.byte	0
 531 023a 00       		.byte	0
 532 023b 00       		.byte	0
 533 023c 00       		.byte	0
 534 023d 00       		.byte	0
 535 023e 00       		.byte	0
 536 023f 00       		.byte	0
 537 0240 00       		.byte	0
 538 0241 00       		.byte	0
 539 0242 00       		.byte	0
 540 0243 00       		.byte	0
 541 0244 00       		.byte	0
 542 0245 00       		.byte	0
 543 0246 00       		.byte	0
 544 0247 00       		.byte	0
 545 0248 00       		.byte	0
 546 0249 00       		.byte	0
 547 024a 00       		.byte	0
 548 024b 00       		.byte	0
 549 024c 00       		.byte	0
 550 024d 00       		.byte	0
 551 024e 00       		.byte	0
 552 024f 00       		.byte	0
 553 0250 00       		.byte	0
 554 0251 00       		.byte	0
 555 0252 00       		.byte	0
 556 0253 00       		.byte	0
 557 0254 00       		.byte	0
 558 0255 00       		.byte	0
 559 0256 00       		.byte	0
 560 0257 00       		.byte	0
 561              	@ writeOutput8Bit12:
 562 0258 00       		.byte	0
 563 0259 00       		.byte	0
 564 025a 00       		.byte	0
 565 025b 00       		.byte	0
 566 025c 00       		.byte	0
 567 025d 00       		.byte	0
 568 025e 00       		.byte	0
ARM GAS  C:\Users\Akil\AppData\Local\Temp\cck4RU2M.s 			page 11


 569 025f 00       		.byte	0
 570 0260 00       		.byte	0
 571 0261 00       		.byte	0
 572 0262 00       		.byte	0
 573 0263 00       		.byte	0
 574 0264 00       		.byte	0
 575 0265 00       		.byte	0
 576 0266 00       		.byte	0
 577 0267 00       		.byte	0
 578 0268 00       		.byte	0
 579 0269 00       		.byte	0
 580 026a 00       		.byte	0
 581 026b 00       		.byte	0
 582 026c 00       		.byte	0
 583 026d 00       		.byte	0
 584 026e 00       		.byte	0
 585 026f 00       		.byte	0
 586 0270 00       		.byte	0
 587 0271 00       		.byte	0
 588 0272 00       		.byte	0
 589 0273 00       		.byte	0
 590 0274 00       		.byte	0
 591 0275 00       		.byte	0
 592 0276 00       		.byte	0
 593 0277 00       		.byte	0
 594              	@ writeOutput8Bit13:
 595 0278 00       		.byte	0
 596 0279 00       		.byte	0
 597 027a 00       		.byte	0
 598 027b 00       		.byte	0
 599 027c 00       		.byte	0
 600 027d 00       		.byte	0
 601 027e 00       		.byte	0
 602 027f 00       		.byte	0
 603 0280 00       		.byte	0
 604 0281 00       		.byte	0
 605 0282 00       		.byte	0
 606 0283 00       		.byte	0
 607 0284 00       		.byte	0
 608 0285 00       		.byte	0
 609 0286 00       		.byte	0
 610 0287 00       		.byte	0
 611 0288 00       		.byte	0
 612 0289 00       		.byte	0
 613 028a 00       		.byte	0
 614 028b 00       		.byte	0
 615 028c 00       		.byte	0
 616 028d 00       		.byte	0
 617 028e 00       		.byte	0
 618 028f 00       		.byte	0
 619 0290 00       		.byte	0
 620 0291 00       		.byte	0
 621 0292 00       		.byte	0
 622 0293 00       		.byte	0
 623 0294 00       		.byte	0
 624 0295 00       		.byte	0
 625 0296 00       		.byte	0
ARM GAS  C:\Users\Akil\AppData\Local\Temp\cck4RU2M.s 			page 12


 626 0297 00       		.byte	0
 627              	@ writeOutput8Bit14:
 628 0298 00       		.byte	0
 629 0299 00       		.byte	0
 630 029a 00       		.byte	0
 631 029b 00       		.byte	0
 632 029c 00       		.byte	0
 633 029d 00       		.byte	0
 634 029e 00       		.byte	0
 635 029f 00       		.byte	0
 636 02a0 00       		.byte	0
 637 02a1 00       		.byte	0
 638 02a2 00       		.byte	0
 639 02a3 00       		.byte	0
 640 02a4 00       		.byte	0
 641 02a5 00       		.byte	0
 642 02a6 00       		.byte	0
 643 02a7 00       		.byte	0
 644 02a8 00       		.byte	0
 645 02a9 00       		.byte	0
 646 02aa 00       		.byte	0
 647 02ab 00       		.byte	0
 648 02ac 00       		.byte	0
 649 02ad 00       		.byte	0
 650 02ae 00       		.byte	0
 651 02af 00       		.byte	0
 652 02b0 00       		.byte	0
 653 02b1 00       		.byte	0
 654 02b2 00       		.byte	0
 655 02b3 00       		.byte	0
 656 02b4 00       		.byte	0
 657 02b5 00       		.byte	0
 658 02b6 00       		.byte	0
 659 02b7 00       		.byte	0
 660              	@ writeOutput8Bit15:
 661 02b8 00       		.byte	0
 662 02b9 00       		.byte	0
 663 02ba 00       		.byte	0
 664 02bb 00       		.byte	0
 665 02bc 00       		.byte	0
 666 02bd 00       		.byte	0
 667 02be 00       		.byte	0
 668 02bf 00       		.byte	0
 669 02c0 00       		.byte	0
 670 02c1 00       		.byte	0
 671 02c2 00       		.byte	0
 672 02c3 00       		.byte	0
 673 02c4 00       		.byte	0
 674 02c5 00       		.byte	0
 675 02c6 00       		.byte	0
 676 02c7 00       		.byte	0
 677 02c8 00       		.byte	0
 678 02c9 00       		.byte	0
 679 02ca 00       		.byte	0
 680 02cb 00       		.byte	0
 681 02cc 00       		.byte	0
 682 02cd 00       		.byte	0
ARM GAS  C:\Users\Akil\AppData\Local\Temp\cck4RU2M.s 			page 13


 683 02ce 00       		.byte	0
 684 02cf 00       		.byte	0
 685 02d0 00       		.byte	0
 686 02d1 00       		.byte	0
 687 02d2 00       		.byte	0
 688 02d3 00       		.byte	0
 689 02d4 00       		.byte	0
 690 02d5 00       		.byte	0
 691 02d6 00       		.byte	0
 692 02d7 00       		.byte	0
 693              	@ writeOutput8Bit16:
 694 02d8 00       		.byte	0
 695 02d9 00       		.byte	0
 696 02da 00       		.byte	0
 697 02db 00       		.byte	0
 698 02dc 00       		.byte	0
 699 02dd 00       		.byte	0
 700 02de 00       		.byte	0
 701 02df 00       		.byte	0
 702 02e0 00       		.byte	0
 703 02e1 00       		.byte	0
 704 02e2 00       		.byte	0
 705 02e3 00       		.byte	0
 706 02e4 00       		.byte	0
 707 02e5 00       		.byte	0
 708 02e6 00       		.byte	0
 709 02e7 00       		.byte	0
 710 02e8 00       		.byte	0
 711 02e9 00       		.byte	0
 712 02ea 00       		.byte	0
 713 02eb 00       		.byte	0
 714 02ec 00       		.byte	0
 715 02ed 00       		.byte	0
 716 02ee 00       		.byte	0
 717 02ef 00       		.byte	0
 718 02f0 00       		.byte	0
 719 02f1 00       		.byte	0
 720 02f2 00       		.byte	0
 721 02f3 00       		.byte	0
 722 02f4 00       		.byte	0
 723 02f5 00       		.byte	0
 724 02f6 00       		.byte	0
 725 02f7 00       		.byte	0
 726              	@ writeOutput8Bit17:
 727 02f8 00       		.byte	0
 728 02f9 00       		.byte	0
 729 02fa 00       		.byte	0
 730 02fb 00       		.byte	0
 731 02fc 00       		.byte	0
 732 02fd 00       		.byte	0
 733 02fe 00       		.byte	0
 734 02ff 00       		.byte	0
 735 0300 00       		.byte	0
 736 0301 00       		.byte	0
 737 0302 00       		.byte	0
 738 0303 00       		.byte	0
 739 0304 00       		.byte	0
ARM GAS  C:\Users\Akil\AppData\Local\Temp\cck4RU2M.s 			page 14


 740 0305 00       		.byte	0
 741 0306 00       		.byte	0
 742 0307 00       		.byte	0
 743 0308 00       		.byte	0
 744 0309 00       		.byte	0
 745 030a 00       		.byte	0
 746 030b 00       		.byte	0
 747 030c 00       		.byte	0
 748 030d 00       		.byte	0
 749 030e 00       		.byte	0
 750 030f 00       		.byte	0
 751 0310 00       		.byte	0
 752 0311 00       		.byte	0
 753 0312 00       		.byte	0
 754 0313 00       		.byte	0
 755 0314 00       		.byte	0
 756 0315 00       		.byte	0
 757 0316 00       		.byte	0
 758 0317 00       		.byte	0
 759              	@ writeOutput8Bit18:
 760 0318 00       		.byte	0
 761 0319 00       		.byte	0
 762 031a 00       		.byte	0
 763 031b 00       		.byte	0
 764 031c 00       		.byte	0
 765 031d 00       		.byte	0
 766 031e 00       		.byte	0
 767 031f 00       		.byte	0
 768 0320 00       		.byte	0
 769 0321 00       		.byte	0
 770 0322 00       		.byte	0
 771 0323 00       		.byte	0
 772 0324 00       		.byte	0
 773 0325 00       		.byte	0
 774 0326 00       		.byte	0
 775 0327 00       		.byte	0
 776 0328 00       		.byte	0
 777 0329 00       		.byte	0
 778 032a 00       		.byte	0
 779 032b 00       		.byte	0
 780 032c 00       		.byte	0
 781 032d 00       		.byte	0
 782 032e 00       		.byte	0
 783 032f 00       		.byte	0
 784 0330 00       		.byte	0
 785 0331 00       		.byte	0
 786 0332 00       		.byte	0
 787 0333 00       		.byte	0
 788 0334 00       		.byte	0
 789 0335 00       		.byte	0
 790 0336 00       		.byte	0
 791 0337 00       		.byte	0
 792              	@ writeOutput8Bit19:
 793 0338 00       		.byte	0
 794 0339 00       		.byte	0
 795 033a 00       		.byte	0
 796 033b 00       		.byte	0
ARM GAS  C:\Users\Akil\AppData\Local\Temp\cck4RU2M.s 			page 15


 797 033c 00       		.byte	0
 798 033d 00       		.byte	0
 799 033e 00       		.byte	0
 800 033f 00       		.byte	0
 801 0340 00       		.byte	0
 802 0341 00       		.byte	0
 803 0342 00       		.byte	0
 804 0343 00       		.byte	0
 805 0344 00       		.byte	0
 806 0345 00       		.byte	0
 807 0346 00       		.byte	0
 808 0347 00       		.byte	0
 809 0348 00       		.byte	0
 810 0349 00       		.byte	0
 811 034a 00       		.byte	0
 812 034b 00       		.byte	0
 813 034c 00       		.byte	0
 814 034d 00       		.byte	0
 815 034e 00       		.byte	0
 816 034f 00       		.byte	0
 817 0350 00       		.byte	0
 818 0351 00       		.byte	0
 819 0352 00       		.byte	0
 820 0353 00       		.byte	0
 821 0354 00       		.byte	0
 822 0355 00       		.byte	0
 823 0356 00       		.byte	0
 824 0357 00       		.byte	0
 825              	@ writeOutput8Bit20:
 826 0358 00       		.byte	0
 827 0359 00       		.byte	0
 828 035a 00       		.byte	0
 829 035b 00       		.byte	0
 830 035c 00       		.byte	0
 831 035d 00       		.byte	0
 832 035e 00       		.byte	0
 833 035f 00       		.byte	0
 834 0360 00       		.byte	0
 835 0361 00       		.byte	0
 836 0362 00       		.byte	0
 837 0363 00       		.byte	0
 838 0364 00       		.byte	0
 839 0365 00       		.byte	0
 840 0366 00       		.byte	0
 841 0367 00       		.byte	0
 842 0368 00       		.byte	0
 843 0369 00       		.byte	0
 844 036a 00       		.byte	0
 845 036b 00       		.byte	0
 846 036c 00       		.byte	0
 847 036d 00       		.byte	0
 848 036e 00       		.byte	0
 849 036f 00       		.byte	0
 850 0370 00       		.byte	0
 851 0371 00       		.byte	0
 852 0372 00       		.byte	0
 853 0373 00       		.byte	0
ARM GAS  C:\Users\Akil\AppData\Local\Temp\cck4RU2M.s 			page 16


 854 0374 00       		.byte	0
 855 0375 00       		.byte	0
 856 0376 00       		.byte	0
 857 0377 00       		.byte	0
 858              	@ writeOutput8Bit21:
 859 0378 00       		.byte	0
 860 0379 00       		.byte	0
 861 037a 00       		.byte	0
 862 037b 00       		.byte	0
 863 037c 00       		.byte	0
 864 037d 00       		.byte	0
 865 037e 00       		.byte	0
 866 037f 00       		.byte	0
 867 0380 00       		.byte	0
 868 0381 00       		.byte	0
 869 0382 00       		.byte	0
 870 0383 00       		.byte	0
 871 0384 00       		.byte	0
 872 0385 00       		.byte	0
 873 0386 00       		.byte	0
 874 0387 00       		.byte	0
 875 0388 00       		.byte	0
 876 0389 00       		.byte	0
 877 038a 00       		.byte	0
 878 038b 00       		.byte	0
 879 038c 00       		.byte	0
 880 038d 00       		.byte	0
 881 038e 00       		.byte	0
 882 038f 00       		.byte	0
 883 0390 00       		.byte	0
 884 0391 00       		.byte	0
 885 0392 00       		.byte	0
 886 0393 00       		.byte	0
 887 0394 00       		.byte	0
 888 0395 00       		.byte	0
 889 0396 00       		.byte	0
 890 0397 00       		.byte	0
 891              	@ writeOutput8Bit22:
 892 0398 00       		.byte	0
 893 0399 00       		.byte	0
 894 039a 00       		.byte	0
 895 039b 00       		.byte	0
 896 039c 00       		.byte	0
 897 039d 00       		.byte	0
 898 039e 00       		.byte	0
 899 039f 00       		.byte	0
 900 03a0 00       		.byte	0
 901 03a1 00       		.byte	0
 902 03a2 00       		.byte	0
 903 03a3 00       		.byte	0
 904 03a4 00       		.byte	0
 905 03a5 00       		.byte	0
 906 03a6 00       		.byte	0
 907 03a7 00       		.byte	0
 908 03a8 00       		.byte	0
 909 03a9 00       		.byte	0
 910 03aa 00       		.byte	0
ARM GAS  C:\Users\Akil\AppData\Local\Temp\cck4RU2M.s 			page 17


 911 03ab 00       		.byte	0
 912 03ac 00       		.byte	0
 913 03ad 00       		.byte	0
 914 03ae 00       		.byte	0
 915 03af 00       		.byte	0
 916 03b0 00       		.byte	0
 917 03b1 00       		.byte	0
 918 03b2 00       		.byte	0
 919 03b3 00       		.byte	0
 920 03b4 00       		.byte	0
 921 03b5 00       		.byte	0
 922 03b6 00       		.byte	0
 923 03b7 00       		.byte	0
 924              	@ writeOutput8Bit23:
 925 03b8 00       		.byte	0
 926 03b9 00       		.byte	0
 927 03ba 00       		.byte	0
 928 03bb 00       		.byte	0
 929 03bc 00       		.byte	0
 930 03bd 00       		.byte	0
 931 03be 00       		.byte	0
 932 03bf 00       		.byte	0
 933 03c0 00       		.byte	0
 934 03c1 00       		.byte	0
 935 03c2 00       		.byte	0
 936 03c3 00       		.byte	0
 937 03c4 00       		.byte	0
 938 03c5 00       		.byte	0
 939 03c6 00       		.byte	0
 940 03c7 00       		.byte	0
 941 03c8 00       		.byte	0
 942 03c9 00       		.byte	0
 943 03ca 00       		.byte	0
 944 03cb 00       		.byte	0
 945 03cc 00       		.byte	0
 946 03cd 00       		.byte	0
 947 03ce 00       		.byte	0
 948 03cf 00       		.byte	0
 949 03d0 00       		.byte	0
 950 03d1 00       		.byte	0
 951 03d2 00       		.byte	0
 952 03d3 00       		.byte	0
 953 03d4 00       		.byte	0
 954 03d5 00       		.byte	0
 955 03d6 00       		.byte	0
 956 03d7 00       		.byte	0
 957              	@ writeOutput8Bit24:
 958 03d8 00       		.byte	0
 959 03d9 00       		.byte	0
 960 03da 00       		.byte	0
 961 03db 00       		.byte	0
 962 03dc 00       		.byte	0
 963 03dd 00       		.byte	0
 964 03de 00       		.byte	0
 965 03df 00       		.byte	0
 966 03e0 00       		.byte	0
 967 03e1 00       		.byte	0
ARM GAS  C:\Users\Akil\AppData\Local\Temp\cck4RU2M.s 			page 18


 968 03e2 00       		.byte	0
 969 03e3 00       		.byte	0
 970 03e4 00       		.byte	0
 971 03e5 00       		.byte	0
 972 03e6 00       		.byte	0
 973 03e7 00       		.byte	0
 974 03e8 00       		.byte	0
 975 03e9 00       		.byte	0
 976 03ea 00       		.byte	0
 977 03eb 00       		.byte	0
 978 03ec 00       		.byte	0
 979 03ed 00       		.byte	0
 980 03ee 00       		.byte	0
 981 03ef 00       		.byte	0
 982 03f0 00       		.byte	0
 983 03f1 00       		.byte	0
 984 03f2 00       		.byte	0
 985 03f3 00       		.byte	0
 986 03f4 00       		.byte	0
 987 03f5 00       		.byte	0
 988 03f6 00       		.byte	0
 989 03f7 00       		.byte	0
 990              	@ writeOutput8Bit25:
 991 03f8 00       		.byte	0
 992 03f9 00       		.byte	0
 993 03fa 00       		.byte	0
 994 03fb 00       		.byte	0
 995 03fc 00       		.byte	0
 996 03fd 00       		.byte	0
 997 03fe 00       		.byte	0
 998 03ff 00       		.byte	0
 999 0400 00       		.byte	0
 1000 0401 00       		.byte	0
 1001 0402 00       		.byte	0
 1002 0403 00       		.byte	0
 1003 0404 00       		.byte	0
 1004 0405 00       		.byte	0
 1005 0406 00       		.byte	0
 1006 0407 00       		.byte	0
 1007 0408 00       		.byte	0
 1008 0409 00       		.byte	0
 1009 040a 00       		.byte	0
 1010 040b 00       		.byte	0
 1011 040c 00       		.byte	0
 1012 040d 00       		.byte	0
 1013 040e 00       		.byte	0
 1014 040f 00       		.byte	0
 1015 0410 00       		.byte	0
 1016 0411 00       		.byte	0
 1017 0412 00       		.byte	0
 1018 0413 00       		.byte	0
 1019 0414 00       		.byte	0
 1020 0415 00       		.byte	0
 1021 0416 00       		.byte	0
 1022 0417 00       		.byte	0
 1023              	@ writeOutput8Bit26:
 1024 0418 00       		.byte	0
ARM GAS  C:\Users\Akil\AppData\Local\Temp\cck4RU2M.s 			page 19


 1025 0419 00       		.byte	0
 1026 041a 00       		.byte	0
 1027 041b 00       		.byte	0
 1028 041c 00       		.byte	0
 1029 041d 00       		.byte	0
 1030 041e 00       		.byte	0
 1031 041f 00       		.byte	0
 1032 0420 00       		.byte	0
 1033 0421 00       		.byte	0
 1034 0422 00       		.byte	0
 1035 0423 00       		.byte	0
 1036 0424 00       		.byte	0
 1037 0425 00       		.byte	0
 1038 0426 00       		.byte	0
 1039 0427 00       		.byte	0
 1040 0428 00       		.byte	0
 1041 0429 00       		.byte	0
 1042 042a 00       		.byte	0
 1043 042b 00       		.byte	0
 1044 042c 00       		.byte	0
 1045 042d 00       		.byte	0
 1046 042e 00       		.byte	0
 1047 042f 00       		.byte	0
 1048 0430 00       		.byte	0
 1049 0431 00       		.byte	0
 1050 0432 00       		.byte	0
 1051 0433 00       		.byte	0
 1052 0434 00       		.byte	0
 1053 0435 00       		.byte	0
 1054 0436 00       		.byte	0
 1055 0437 00       		.byte	0
 1056              	@ writeOutput8Bit27:
 1057 0438 00       		.byte	0
 1058 0439 00       		.byte	0
 1059 043a 00       		.byte	0
 1060 043b 00       		.byte	0
 1061 043c 00       		.byte	0
 1062 043d 00       		.byte	0
 1063 043e 00       		.byte	0
 1064 043f 00       		.byte	0
 1065 0440 00       		.byte	0
 1066 0441 00       		.byte	0
 1067 0442 00       		.byte	0
 1068 0443 00       		.byte	0
 1069 0444 00       		.byte	0
 1070 0445 00       		.byte	0
 1071 0446 00       		.byte	0
 1072 0447 00       		.byte	0
 1073 0448 00       		.byte	0
 1074 0449 00       		.byte	0
 1075 044a 00       		.byte	0
 1076 044b 00       		.byte	0
 1077 044c 00       		.byte	0
 1078 044d 00       		.byte	0
 1079 044e 00       		.byte	0
 1080 044f 00       		.byte	0
 1081 0450 00       		.byte	0
ARM GAS  C:\Users\Akil\AppData\Local\Temp\cck4RU2M.s 			page 20


 1082 0451 00       		.byte	0
 1083 0452 00       		.byte	0
 1084 0453 00       		.byte	0
 1085 0454 00       		.byte	0
 1086 0455 00       		.byte	0
 1087 0456 00       		.byte	0
 1088 0457 00       		.byte	0
 1089              	@ writeOutput8Bit28:
 1090 0458 00       		.byte	0
 1091 0459 00       		.byte	0
 1092 045a 00       		.byte	0
 1093 045b 00       		.byte	0
 1094 045c 00       		.byte	0
 1095 045d 00       		.byte	0
 1096 045e 00       		.byte	0
 1097 045f 00       		.byte	0
 1098 0460 00       		.byte	0
 1099 0461 00       		.byte	0
 1100 0462 00       		.byte	0
 1101 0463 00       		.byte	0
 1102 0464 00       		.byte	0
 1103 0465 00       		.byte	0
 1104 0466 00       		.byte	0
 1105 0467 00       		.byte	0
 1106 0468 00       		.byte	0
 1107 0469 00       		.byte	0
 1108 046a 00       		.byte	0
 1109 046b 00       		.byte	0
 1110 046c 00       		.byte	0
 1111 046d 00       		.byte	0
 1112 046e 00       		.byte	0
 1113 046f 00       		.byte	0
 1114 0470 00       		.byte	0
 1115 0471 00       		.byte	0
 1116 0472 00       		.byte	0
 1117 0473 00       		.byte	0
 1118 0474 00       		.byte	0
 1119 0475 00       		.byte	0
 1120 0476 00       		.byte	0
 1121 0477 00       		.byte	0
 1122              	@ writeOutput8Bit29:
 1123 0478 00       		.byte	0
 1124 0479 00       		.byte	0
 1125 047a 00       		.byte	0
 1126 047b 00       		.byte	0
 1127 047c 00       		.byte	0
 1128 047d 00       		.byte	0
 1129 047e 00       		.byte	0
 1130 047f 00       		.byte	0
 1131 0480 00       		.byte	0
 1132 0481 00       		.byte	0
 1133 0482 00       		.byte	0
 1134 0483 00       		.byte	0
 1135 0484 00       		.byte	0
 1136 0485 00       		.byte	0
 1137 0486 00       		.byte	0
 1138 0487 00       		.byte	0
ARM GAS  C:\Users\Akil\AppData\Local\Temp\cck4RU2M.s 			page 21


 1139 0488 00       		.byte	0
 1140 0489 00       		.byte	0
 1141 048a 00       		.byte	0
 1142 048b 00       		.byte	0
 1143 048c 00       		.byte	0
 1144 048d 00       		.byte	0
 1145 048e 00       		.byte	0
 1146 048f 00       		.byte	0
 1147 0490 00       		.byte	0
 1148 0491 00       		.byte	0
 1149 0492 00       		.byte	0
 1150 0493 00       		.byte	0
 1151 0494 00       		.byte	0
 1152 0495 00       		.byte	0
 1153 0496 00       		.byte	0
 1154 0497 00       		.byte	0
 1155              	@ writeOutput8Bit30:
 1156 0498 00       		.byte	0
 1157 0499 00       		.byte	0
 1158 049a 00       		.byte	0
 1159 049b 00       		.byte	0
 1160 049c 00       		.byte	0
 1161 049d 00       		.byte	0
 1162 049e 00       		.byte	0
 1163 049f 00       		.byte	0
 1164 04a0 00       		.byte	0
 1165 04a1 00       		.byte	0
 1166 04a2 00       		.byte	0
 1167 04a3 00       		.byte	0
 1168 04a4 00       		.byte	0
 1169 04a5 00       		.byte	0
 1170 04a6 00       		.byte	0
 1171 04a7 00       		.byte	0
 1172 04a8 00       		.byte	0
 1173 04a9 00       		.byte	0
 1174 04aa 00       		.byte	0
 1175 04ab 00       		.byte	0
 1176 04ac 00       		.byte	0
 1177 04ad 00       		.byte	0
 1178 04ae 00       		.byte	0
 1179 04af 00       		.byte	0
 1180 04b0 00       		.byte	0
 1181 04b1 00       		.byte	0
 1182 04b2 00       		.byte	0
 1183 04b3 00       		.byte	0
 1184 04b4 00       		.byte	0
 1185 04b5 00       		.byte	0
 1186 04b6 00       		.byte	0
 1187 04b7 00       		.byte	0
 1188              	@ writeOutput8Bit31:
 1189 04b8 00       		.byte	0
 1190 04b9 00       		.byte	0
 1191 04ba 00       		.byte	0
 1192 04bb 00       		.byte	0
 1193 04bc 00       		.byte	0
 1194 04bd 00       		.byte	0
 1195 04be 00       		.byte	0
ARM GAS  C:\Users\Akil\AppData\Local\Temp\cck4RU2M.s 			page 22


 1196 04bf 00       		.byte	0
 1197 04c0 00       		.byte	0
 1198 04c1 00       		.byte	0
 1199 04c2 00       		.byte	0
 1200 04c3 00       		.byte	0
 1201 04c4 00       		.byte	0
 1202 04c5 00       		.byte	0
 1203 04c6 00       		.byte	0
 1204 04c7 00       		.byte	0
 1205 04c8 00       		.byte	0
 1206 04c9 00       		.byte	0
 1207 04ca 00       		.byte	0
 1208 04cb 00       		.byte	0
 1209 04cc 00       		.byte	0
 1210 04cd 00       		.byte	0
 1211 04ce 00       		.byte	0
 1212 04cf 00       		.byte	0
 1213 04d0 00       		.byte	0
 1214 04d1 00       		.byte	0
 1215 04d2 00       		.byte	0
 1216 04d3 00       		.byte	0
 1217 04d4 00       		.byte	0
 1218 04d5 00       		.byte	0
 1219 04d6 00       		.byte	0
 1220 04d7 00       		.byte	0
 1221              	@ readAnalogueInput16Bit:
 1222 04d8 0000     		.short	0
 1223 04da 0000     		.short	0
 1224 04dc 0000     		.short	0
 1225 04de 0000     		.short	0
 1226 04e0 0000     		.short	0
 1227 04e2 0000     		.short	0
 1228 04e4 0000     		.short	0
 1229 04e6 0000     		.short	0
 1230 04e8 0000     		.short	0
 1231 04ea 0000     		.short	0
 1232 04ec 0000     		.short	0
 1233 04ee 0000     		.short	0
 1234              	@ writeAnalogueOutput16Bit:
 1235 04f0 0000     		.short	0
 1236 04f2 0000     		.short	0
 1237 04f4 0000     		.short	0
 1238 04f6 0000     		.short	0
 1239 04f8 0000     		.short	0
 1240 04fa 0000     		.short	0
 1241 04fc 0000     		.short	0
 1242 04fe 0000     		.short	0
 1243              	@ LastWord:
 1244 0500 55000000 		.word	85
 1245 0504 00000000 		.space	4
 1246              		.global	CO_OD_EEPROM
 1247              		.align	2
 1248              		.type	CO_OD_EEPROM, %object
 1249              		.size	CO_OD_EEPROM, 76
 1250              	CO_OD_EEPROM:
 1251              	@ FirstWord:
 1252 0508 55000000 		.word	85
ARM GAS  C:\Users\Akil\AppData\Local\Temp\cck4RU2M.s 			page 23


 1253              	@ powerOnCounter:
 1254 050c 00000000 		.word	0
 1255              	@ variableNVInt32:
 1256 0510 01000000 		.word	1
 1257 0514 00000000 		.word	0
 1258 0518 00000000 		.word	0
 1259 051c 00000000 		.word	0
 1260 0520 00000000 		.word	0
 1261 0524 00000000 		.word	0
 1262 0528 00000000 		.word	0
 1263 052c 00000000 		.word	0
 1264 0530 00000000 		.word	0
 1265 0534 00000000 		.word	0
 1266 0538 00000000 		.word	0
 1267 053c 00000000 		.word	0
 1268 0540 00000000 		.word	0
 1269 0544 00000000 		.word	0
 1270 0548 00000000 		.word	0
 1271 054c 00000000 		.word	0
 1272              	@ LastWord:
 1273 0550 55000000 		.word	85
 1274              		.global	CO_OD_ROM
 1275              		.align	2
 1276              		.type	CO_OD_ROM, %object
 1277              		.size	CO_OD_ROM, 1864
 1278              	CO_OD_ROM:
 1279              	@ FirstWord:
 1280 0554 55000000 		.word	85
 1281              	@ deviceType:
 1282 0558 00000000 		.word	0
 1283              	@ COB_ID_SYNCMessage:
 1284 055c 80000000 		.word	128
 1285              	@ communicationCyclePeriod:
 1286 0560 00000000 		.word	0
 1287              	@ synchronousWindowLength:
 1288 0564 00000000 		.word	0
 1289              	@ manufacturerDeviceName:
 1290 0568 43       		.byte	67
 1291 0569 41       		.byte	65
 1292 056a 4E       		.byte	78
 1293 056b 6F       		.byte	111
 1294 056c 70       		.byte	112
 1295 056d 65       		.byte	101
 1296 056e 6E       		.byte	110
 1297 056f 4E       		.byte	78
 1298 0570 6F       		.byte	111
 1299 0571 64       		.byte	100
 1300 0572 65       		.byte	101
 1301              	@ manufacturerHardwareVersion:
 1302 0573 33       		.byte	51
 1303 0574 2E       		.byte	46
 1304 0575 30       		.byte	48
 1305 0576 30       		.byte	48
 1306              	@ manufacturerSoftwareVersion:
 1307 0577 33       		.byte	51
 1308 0578 2E       		.byte	46
 1309 0579 30       		.byte	48
ARM GAS  C:\Users\Akil\AppData\Local\Temp\cck4RU2M.s 			page 24


 1310 057a 30       		.byte	48
 1311              	@ COB_ID_EMCY:
 1312 057b 00       		.space	1
 1313 057c 80000000 		.word	128
 1314              	@ inhibitTimeEMCY:
 1315 0580 6400     		.short	100
 1316              	@ consumerHeartbeatTime:
 1317 0582 0000     		.space	2
 1318 0584 00000000 		.word	0
 1319 0588 00000000 		.word	0
 1320 058c 00000000 		.word	0
 1321 0590 00000000 		.word	0
 1322              	@ producerHeartbeatTime:
 1323 0594 E803     		.short	1000
 1324              	@ identity:
 1325 0596 0000     		.space	2
 1326              	@ maxSubIndex:
 1327 0598 04       		.byte	4
 1328              	@ vendorID:
 1329 0599 000000   		.space	3
 1330 059c 00000000 		.word	0
 1331              	@ productCode:
 1332 05a0 00000000 		.word	0
 1333              	@ revisionNumber:
 1334 05a4 00000000 		.word	0
 1335              	@ serialNumber:
 1336 05a8 00000000 		.word	0
 1337              	@ synchronousCounterOverflowValue:
 1338 05ac 00       		.byte	0
 1339              	@ errorBehavior:
 1340 05ad 00       		.byte	0
 1341 05ae 00       		.byte	0
 1342 05af 01       		.byte	1
 1343 05b0 00       		.byte	0
 1344 05b1 00       		.byte	0
 1345 05b2 00       		.byte	0
 1346              	@ SDOServerParameter:
 1347 05b3 00       		.space	1
 1348              	@ maxSubIndex:
 1349 05b4 02       		.byte	2
 1350              	@ COB_IDClientToServer:
 1351 05b5 000000   		.space	3
 1352 05b8 00060000 		.word	1536
 1353              	@ COB_IDServerToClient:
 1354 05bc 80050000 		.word	1408
 1355              	@ RPDOCommunicationParameter:
 1356              	@ maxSubIndex:
 1357 05c0 02       		.byte	2
 1358              	@ COB_IDUsedByRPDO:
 1359 05c1 000000   		.space	3
 1360 05c4 B0010000 		.word	432
 1361              	@ transmissionType:
 1362 05c8 FF       		.byte	-1
 1363 05c9 000000   		.space	3
 1364              	@ maxSubIndex:
 1365 05cc 02       		.byte	2
 1366              	@ COB_IDUsedByRPDO:
ARM GAS  C:\Users\Akil\AppData\Local\Temp\cck4RU2M.s 			page 25


 1367 05cd 000000   		.space	3
 1368 05d0 00030000 		.word	768
 1369              	@ transmissionType:
 1370 05d4 FE       		.byte	-2
 1371 05d5 000000   		.space	3
 1372              	@ maxSubIndex:
 1373 05d8 02       		.byte	2
 1374              	@ COB_IDUsedByRPDO:
 1375 05d9 000000   		.space	3
 1376 05dc 00040000 		.word	1024
 1377              	@ transmissionType:
 1378 05e0 FE       		.byte	-2
 1379 05e1 000000   		.space	3
 1380              	@ maxSubIndex:
 1381 05e4 02       		.byte	2
 1382              	@ COB_IDUsedByRPDO:
 1383 05e5 000000   		.space	3
 1384 05e8 00050000 		.word	1280
 1385              	@ transmissionType:
 1386 05ec FE       		.byte	-2
 1387 05ed 000000   		.space	3
 1388              	@ maxSubIndex:
 1389 05f0 02       		.byte	2
 1390              	@ COB_IDUsedByRPDO:
 1391 05f1 000000   		.space	3
 1392 05f4 01000000 		.word	1
 1393              	@ transmissionType:
 1394 05f8 FE       		.byte	-2
 1395 05f9 000000   		.space	3
 1396              	@ maxSubIndex:
 1397 05fc 02       		.byte	2
 1398              	@ COB_IDUsedByRPDO:
 1399 05fd 000000   		.space	3
 1400 0600 01000000 		.word	1
 1401              	@ transmissionType:
 1402 0604 FE       		.byte	-2
 1403 0605 000000   		.space	3
 1404              	@ maxSubIndex:
 1405 0608 02       		.byte	2
 1406              	@ COB_IDUsedByRPDO:
 1407 0609 000000   		.space	3
 1408 060c 01000000 		.word	1
 1409              	@ transmissionType:
 1410 0610 FE       		.byte	-2
 1411 0611 000000   		.space	3
 1412              	@ maxSubIndex:
 1413 0614 02       		.byte	2
 1414              	@ COB_IDUsedByRPDO:
 1415 0615 000000   		.space	3
 1416 0618 01000000 		.word	1
 1417              	@ transmissionType:
 1418 061c FE       		.byte	-2
 1419 061d 000000   		.space	3
 1420              	@ maxSubIndex:
 1421 0620 02       		.byte	2
 1422              	@ COB_IDUsedByRPDO:
 1423 0621 000000   		.space	3
ARM GAS  C:\Users\Akil\AppData\Local\Temp\cck4RU2M.s 			page 26


 1424 0624 01000000 		.word	1
 1425              	@ transmissionType:
 1426 0628 FE       		.byte	-2
 1427 0629 000000   		.space	3
 1428              	@ maxSubIndex:
 1429 062c 02       		.byte	2
 1430              	@ COB_IDUsedByRPDO:
 1431 062d 000000   		.space	3
 1432 0630 01000000 		.word	1
 1433              	@ transmissionType:
 1434 0634 FE       		.byte	-2
 1435 0635 000000   		.space	3
 1436              	@ maxSubIndex:
 1437 0638 02       		.byte	2
 1438              	@ COB_IDUsedByRPDO:
 1439 0639 000000   		.space	3
 1440 063c 01000000 		.word	1
 1441              	@ transmissionType:
 1442 0640 FE       		.byte	-2
 1443 0641 000000   		.space	3
 1444              	@ maxSubIndex:
 1445 0644 02       		.byte	2
 1446              	@ COB_IDUsedByRPDO:
 1447 0645 000000   		.space	3
 1448 0648 01000000 		.word	1
 1449              	@ transmissionType:
 1450 064c FE       		.byte	-2
 1451 064d 000000   		.space	3
 1452              	@ maxSubIndex:
 1453 0650 02       		.byte	2
 1454              	@ COB_IDUsedByRPDO:
 1455 0651 000000   		.space	3
 1456 0654 01000000 		.word	1
 1457              	@ transmissionType:
 1458 0658 FE       		.byte	-2
 1459 0659 000000   		.space	3
 1460              	@ maxSubIndex:
 1461 065c 02       		.byte	2
 1462              	@ COB_IDUsedByRPDO:
 1463 065d 000000   		.space	3
 1464 0660 01000000 		.word	1
 1465              	@ transmissionType:
 1466 0664 FE       		.byte	-2
 1467 0665 000000   		.space	3
 1468              	@ maxSubIndex:
 1469 0668 02       		.byte	2
 1470              	@ COB_IDUsedByRPDO:
 1471 0669 000000   		.space	3
 1472 066c 01000000 		.word	1
 1473              	@ transmissionType:
 1474 0670 FE       		.byte	-2
 1475 0671 000000   		.space	3
 1476              	@ maxSubIndex:
 1477 0674 02       		.byte	2
 1478              	@ COB_IDUsedByRPDO:
 1479 0675 000000   		.space	3
 1480 0678 01000000 		.word	1
ARM GAS  C:\Users\Akil\AppData\Local\Temp\cck4RU2M.s 			page 27


 1481              	@ transmissionType:
 1482 067c FE       		.byte	-2
 1483 067d 000000   		.space	3
 1484              	@ RPDOMappingParameter:
 1485              	@ numberOfMappedObjects:
 1486 0680 02       		.byte	2
 1487              	@ mappedObject1:
 1488 0681 000000   		.space	3
 1489 0684 08010062 		.word	1644167432
 1490              	@ mappedObject2:
 1491 0688 08020062 		.word	1644167688
 1492              	@ mappedObject3:
 1493 068c 00000000 		.word	0
 1494              	@ mappedObject4:
 1495 0690 00000000 		.word	0
 1496              	@ mappedObject5:
 1497 0694 00000000 		.word	0
 1498              	@ mappedObject6:
 1499 0698 00000000 		.word	0
 1500              	@ mappedObject7:
 1501 069c 00000000 		.word	0
 1502              	@ mappedObject8:
 1503 06a0 00000000 		.word	0
 1504              	@ numberOfMappedObjects:
 1505 06a4 00       		.byte	0
 1506              	@ mappedObject1:
 1507 06a5 000000   		.space	3
 1508 06a8 00000000 		.word	0
 1509              	@ mappedObject2:
 1510 06ac 00000000 		.word	0
 1511              	@ mappedObject3:
 1512 06b0 00000000 		.word	0
 1513              	@ mappedObject4:
 1514 06b4 00000000 		.word	0
 1515              	@ mappedObject5:
 1516 06b8 00000000 		.word	0
 1517              	@ mappedObject6:
 1518 06bc 00000000 		.word	0
 1519              	@ mappedObject7:
 1520 06c0 00000000 		.word	0
 1521              	@ mappedObject8:
 1522 06c4 00000000 		.word	0
 1523              	@ numberOfMappedObjects:
 1524 06c8 00       		.byte	0
 1525              	@ mappedObject1:
 1526 06c9 000000   		.space	3
 1527 06cc 00000000 		.word	0
 1528              	@ mappedObject2:
 1529 06d0 00000000 		.word	0
 1530              	@ mappedObject3:
 1531 06d4 00000000 		.word	0
 1532              	@ mappedObject4:
 1533 06d8 00000000 		.word	0
 1534              	@ mappedObject5:
 1535 06dc 00000000 		.word	0
 1536              	@ mappedObject6:
 1537 06e0 00000000 		.word	0
ARM GAS  C:\Users\Akil\AppData\Local\Temp\cck4RU2M.s 			page 28


 1538              	@ mappedObject7:
 1539 06e4 00000000 		.word	0
 1540              	@ mappedObject8:
 1541 06e8 00000000 		.word	0
 1542              	@ numberOfMappedObjects:
 1543 06ec 00       		.byte	0
 1544              	@ mappedObject1:
 1545 06ed 000000   		.space	3
 1546 06f0 00000000 		.word	0
 1547              	@ mappedObject2:
 1548 06f4 00000000 		.word	0
 1549              	@ mappedObject3:
 1550 06f8 00000000 		.word	0
 1551              	@ mappedObject4:
 1552 06fc 00000000 		.word	0
 1553              	@ mappedObject5:
 1554 0700 00000000 		.word	0
 1555              	@ mappedObject6:
 1556 0704 00000000 		.word	0
 1557              	@ mappedObject7:
 1558 0708 00000000 		.word	0
 1559              	@ mappedObject8:
 1560 070c 00000000 		.word	0
 1561              	@ numberOfMappedObjects:
 1562 0710 00       		.byte	0
 1563              	@ mappedObject1:
 1564 0711 000000   		.space	3
 1565 0714 00000000 		.word	0
 1566              	@ mappedObject2:
 1567 0718 00000000 		.word	0
 1568              	@ mappedObject3:
 1569 071c 00000000 		.word	0
 1570              	@ mappedObject4:
 1571 0720 00000000 		.word	0
 1572              	@ mappedObject5:
 1573 0724 00000000 		.word	0
 1574              	@ mappedObject6:
 1575 0728 00000000 		.word	0
 1576              	@ mappedObject7:
 1577 072c 00000000 		.word	0
 1578              	@ mappedObject8:
 1579 0730 00000000 		.word	0
 1580              	@ numberOfMappedObjects:
 1581 0734 00       		.byte	0
 1582              	@ mappedObject1:
 1583 0735 000000   		.space	3
 1584 0738 00000000 		.word	0
 1585              	@ mappedObject2:
 1586 073c 00000000 		.word	0
 1587              	@ mappedObject3:
 1588 0740 00000000 		.word	0
 1589              	@ mappedObject4:
 1590 0744 00000000 		.word	0
 1591              	@ mappedObject5:
 1592 0748 00000000 		.word	0
 1593              	@ mappedObject6:
 1594 074c 00000000 		.word	0
ARM GAS  C:\Users\Akil\AppData\Local\Temp\cck4RU2M.s 			page 29


 1595              	@ mappedObject7:
 1596 0750 00000000 		.word	0
 1597              	@ mappedObject8:
 1598 0754 00000000 		.word	0
 1599              	@ numberOfMappedObjects:
 1600 0758 00       		.byte	0
 1601              	@ mappedObject1:
 1602 0759 000000   		.space	3
 1603 075c 00000000 		.word	0
 1604              	@ mappedObject2:
 1605 0760 00000000 		.word	0
 1606              	@ mappedObject3:
 1607 0764 00000000 		.word	0
 1608              	@ mappedObject4:
 1609 0768 00000000 		.word	0
 1610              	@ mappedObject5:
 1611 076c 00000000 		.word	0
 1612              	@ mappedObject6:
 1613 0770 00000000 		.word	0
 1614              	@ mappedObject7:
 1615 0774 00000000 		.word	0
 1616              	@ mappedObject8:
 1617 0778 00000000 		.word	0
 1618              	@ numberOfMappedObjects:
 1619 077c 00       		.byte	0
 1620              	@ mappedObject1:
 1621 077d 000000   		.space	3
 1622 0780 00000000 		.word	0
 1623              	@ mappedObject2:
 1624 0784 00000000 		.word	0
 1625              	@ mappedObject3:
 1626 0788 00000000 		.word	0
 1627              	@ mappedObject4:
 1628 078c 00000000 		.word	0
 1629              	@ mappedObject5:
 1630 0790 00000000 		.word	0
 1631              	@ mappedObject6:
 1632 0794 00000000 		.word	0
 1633              	@ mappedObject7:
 1634 0798 00000000 		.word	0
 1635              	@ mappedObject8:
 1636 079c 00000000 		.word	0
 1637              	@ numberOfMappedObjects:
 1638 07a0 00       		.byte	0
 1639              	@ mappedObject1:
 1640 07a1 000000   		.space	3
 1641 07a4 00000000 		.word	0
 1642              	@ mappedObject2:
 1643 07a8 00000000 		.word	0
 1644              	@ mappedObject3:
 1645 07ac 00000000 		.word	0
 1646              	@ mappedObject4:
 1647 07b0 00000000 		.word	0
 1648              	@ mappedObject5:
 1649 07b4 00000000 		.word	0
 1650              	@ mappedObject6:
 1651 07b8 00000000 		.word	0
ARM GAS  C:\Users\Akil\AppData\Local\Temp\cck4RU2M.s 			page 30


 1652              	@ mappedObject7:
 1653 07bc 00000000 		.word	0
 1654              	@ mappedObject8:
 1655 07c0 00000000 		.word	0
 1656              	@ numberOfMappedObjects:
 1657 07c4 00       		.byte	0
 1658              	@ mappedObject1:
 1659 07c5 000000   		.space	3
 1660 07c8 00000000 		.word	0
 1661              	@ mappedObject2:
 1662 07cc 00000000 		.word	0
 1663              	@ mappedObject3:
 1664 07d0 00000000 		.word	0
 1665              	@ mappedObject4:
 1666 07d4 00000000 		.word	0
 1667              	@ mappedObject5:
 1668 07d8 00000000 		.word	0
 1669              	@ mappedObject6:
 1670 07dc 00000000 		.word	0
 1671              	@ mappedObject7:
 1672 07e0 00000000 		.word	0
 1673              	@ mappedObject8:
 1674 07e4 00000000 		.word	0
 1675              	@ numberOfMappedObjects:
 1676 07e8 00       		.byte	0
 1677              	@ mappedObject1:
 1678 07e9 000000   		.space	3
 1679 07ec 00000000 		.word	0
 1680              	@ mappedObject2:
 1681 07f0 00000000 		.word	0
 1682              	@ mappedObject3:
 1683 07f4 00000000 		.word	0
 1684              	@ mappedObject4:
 1685 07f8 00000000 		.word	0
 1686              	@ mappedObject5:
 1687 07fc 00000000 		.word	0
 1688              	@ mappedObject6:
 1689 0800 00000000 		.word	0
 1690              	@ mappedObject7:
 1691 0804 00000000 		.word	0
 1692              	@ mappedObject8:
 1693 0808 00000000 		.word	0
 1694              	@ numberOfMappedObjects:
 1695 080c 00       		.byte	0
 1696              	@ mappedObject1:
 1697 080d 000000   		.space	3
 1698 0810 00000000 		.word	0
 1699              	@ mappedObject2:
 1700 0814 00000000 		.word	0
 1701              	@ mappedObject3:
 1702 0818 00000000 		.word	0
 1703              	@ mappedObject4:
 1704 081c 00000000 		.word	0
 1705              	@ mappedObject5:
 1706 0820 00000000 		.word	0
 1707              	@ mappedObject6:
 1708 0824 00000000 		.word	0
ARM GAS  C:\Users\Akil\AppData\Local\Temp\cck4RU2M.s 			page 31


 1709              	@ mappedObject7:
 1710 0828 00000000 		.word	0
 1711              	@ mappedObject8:
 1712 082c 00000000 		.word	0
 1713              	@ numberOfMappedObjects:
 1714 0830 00       		.byte	0
 1715              	@ mappedObject1:
 1716 0831 000000   		.space	3
 1717 0834 00000000 		.word	0
 1718              	@ mappedObject2:
 1719 0838 00000000 		.word	0
 1720              	@ mappedObject3:
 1721 083c 00000000 		.word	0
 1722              	@ mappedObject4:
 1723 0840 00000000 		.word	0
 1724              	@ mappedObject5:
 1725 0844 00000000 		.word	0
 1726              	@ mappedObject6:
 1727 0848 00000000 		.word	0
 1728              	@ mappedObject7:
 1729 084c 00000000 		.word	0
 1730              	@ mappedObject8:
 1731 0850 00000000 		.word	0
 1732              	@ numberOfMappedObjects:
 1733 0854 00       		.byte	0
 1734              	@ mappedObject1:
 1735 0855 000000   		.space	3
 1736 0858 00000000 		.word	0
 1737              	@ mappedObject2:
 1738 085c 00000000 		.word	0
 1739              	@ mappedObject3:
 1740 0860 00000000 		.word	0
 1741              	@ mappedObject4:
 1742 0864 00000000 		.word	0
 1743              	@ mappedObject5:
 1744 0868 00000000 		.word	0
 1745              	@ mappedObject6:
 1746 086c 00000000 		.word	0
 1747              	@ mappedObject7:
 1748 0870 00000000 		.word	0
 1749              	@ mappedObject8:
 1750 0874 00000000 		.word	0
 1751              	@ numberOfMappedObjects:
 1752 0878 00       		.byte	0
 1753              	@ mappedObject1:
 1754 0879 000000   		.space	3
 1755 087c 00000000 		.word	0
 1756              	@ mappedObject2:
 1757 0880 00000000 		.word	0
 1758              	@ mappedObject3:
 1759 0884 00000000 		.word	0
 1760              	@ mappedObject4:
 1761 0888 00000000 		.word	0
 1762              	@ mappedObject5:
 1763 088c 00000000 		.word	0
 1764              	@ mappedObject6:
 1765 0890 00000000 		.word	0
ARM GAS  C:\Users\Akil\AppData\Local\Temp\cck4RU2M.s 			page 32


 1766              	@ mappedObject7:
 1767 0894 00000000 		.word	0
 1768              	@ mappedObject8:
 1769 0898 00000000 		.word	0
 1770              	@ numberOfMappedObjects:
 1771 089c 00       		.byte	0
 1772              	@ mappedObject1:
 1773 089d 000000   		.space	3
 1774 08a0 00000000 		.word	0
 1775              	@ mappedObject2:
 1776 08a4 00000000 		.word	0
 1777              	@ mappedObject3:
 1778 08a8 00000000 		.word	0
 1779              	@ mappedObject4:
 1780 08ac 00000000 		.word	0
 1781              	@ mappedObject5:
 1782 08b0 00000000 		.word	0
 1783              	@ mappedObject6:
 1784 08b4 00000000 		.word	0
 1785              	@ mappedObject7:
 1786 08b8 00000000 		.word	0
 1787              	@ mappedObject8:
 1788 08bc 00000000 		.word	0
 1789              	@ TPDOCommunicationParameter:
 1790              	@ maxSubIndex:
 1791 08c0 06       		.byte	6
 1792              	@ COB_IDUsedByTPDO:
 1793 08c1 000000   		.space	3
 1794 08c4 80010000 		.word	384
 1795              	@ transmissionType:
 1796 08c8 FF       		.byte	-1
 1797              	@ inhibitTime:
 1798 08c9 00       		.space	1
 1799 08ca 6400     		.short	100
 1800              	@ compatibilityEntry:
 1801 08cc 00       		.byte	0
 1802              	@ eventTimer:
 1803 08cd 00       		.space	1
 1804 08ce 0000     		.short	0
 1805              	@ SYNCStartValue:
 1806 08d0 00       		.byte	0
 1807 08d1 000000   		.space	3
 1808              	@ maxSubIndex:
 1809 08d4 06       		.byte	6
 1810              	@ COB_IDUsedByTPDO:
 1811 08d5 000000   		.space	3
 1812 08d8 80020000 		.word	640
 1813              	@ transmissionType:
 1814 08dc FE       		.byte	-2
 1815              	@ inhibitTime:
 1816 08dd 00       		.space	1
 1817 08de 0000     		.short	0
 1818              	@ compatibilityEntry:
 1819 08e0 00       		.byte	0
 1820              	@ eventTimer:
 1821 08e1 00       		.space	1
 1822 08e2 0000     		.short	0
ARM GAS  C:\Users\Akil\AppData\Local\Temp\cck4RU2M.s 			page 33


 1823              	@ SYNCStartValue:
 1824 08e4 00       		.byte	0
 1825 08e5 000000   		.space	3
 1826              	@ maxSubIndex:
 1827 08e8 06       		.byte	6
 1828              	@ COB_IDUsedByTPDO:
 1829 08e9 000000   		.space	3
 1830 08ec 80030000 		.word	896
 1831              	@ transmissionType:
 1832 08f0 FE       		.byte	-2
 1833              	@ inhibitTime:
 1834 08f1 00       		.space	1
 1835 08f2 0000     		.short	0
 1836              	@ compatibilityEntry:
 1837 08f4 00       		.byte	0
 1838              	@ eventTimer:
 1839 08f5 00       		.space	1
 1840 08f6 0000     		.short	0
 1841              	@ SYNCStartValue:
 1842 08f8 00       		.byte	0
 1843 08f9 000000   		.space	3
 1844              	@ maxSubIndex:
 1845 08fc 06       		.byte	6
 1846              	@ COB_IDUsedByTPDO:
 1847 08fd 000000   		.space	3
 1848 0900 80040000 		.word	1152
 1849              	@ transmissionType:
 1850 0904 FE       		.byte	-2
 1851              	@ inhibitTime:
 1852 0905 00       		.space	1
 1853 0906 0000     		.short	0
 1854              	@ compatibilityEntry:
 1855 0908 00       		.byte	0
 1856              	@ eventTimer:
 1857 0909 00       		.space	1
 1858 090a 0000     		.short	0
 1859              	@ SYNCStartValue:
 1860 090c 00       		.byte	0
 1861 090d 000000   		.space	3
 1862              	@ maxSubIndex:
 1863 0910 06       		.byte	6
 1864              	@ COB_IDUsedByTPDO:
 1865 0911 000000   		.space	3
 1866 0914 01000000 		.word	1
 1867              	@ transmissionType:
 1868 0918 FE       		.byte	-2
 1869              	@ inhibitTime:
 1870 0919 00       		.space	1
 1871 091a 0000     		.short	0
 1872              	@ compatibilityEntry:
 1873 091c 00       		.byte	0
 1874              	@ eventTimer:
 1875 091d 00       		.space	1
 1876 091e 0000     		.short	0
 1877              	@ SYNCStartValue:
 1878 0920 00       		.byte	0
 1879 0921 000000   		.space	3
ARM GAS  C:\Users\Akil\AppData\Local\Temp\cck4RU2M.s 			page 34


 1880              	@ maxSubIndex:
 1881 0924 06       		.byte	6
 1882              	@ COB_IDUsedByTPDO:
 1883 0925 000000   		.space	3
 1884 0928 01000000 		.word	1
 1885              	@ transmissionType:
 1886 092c FE       		.byte	-2
 1887              	@ inhibitTime:
 1888 092d 00       		.space	1
 1889 092e 0000     		.short	0
 1890              	@ compatibilityEntry:
 1891 0930 00       		.byte	0
 1892              	@ eventTimer:
 1893 0931 00       		.space	1
 1894 0932 0000     		.short	0
 1895              	@ SYNCStartValue:
 1896 0934 00       		.byte	0
 1897 0935 000000   		.space	3
 1898              	@ maxSubIndex:
 1899 0938 06       		.byte	6
 1900              	@ COB_IDUsedByTPDO:
 1901 0939 000000   		.space	3
 1902 093c 01000000 		.word	1
 1903              	@ transmissionType:
 1904 0940 FE       		.byte	-2
 1905              	@ inhibitTime:
 1906 0941 00       		.space	1
 1907 0942 0000     		.short	0
 1908              	@ compatibilityEntry:
 1909 0944 00       		.byte	0
 1910              	@ eventTimer:
 1911 0945 00       		.space	1
 1912 0946 0000     		.short	0
 1913              	@ SYNCStartValue:
 1914 0948 00       		.byte	0
 1915 0949 000000   		.space	3
 1916              	@ maxSubIndex:
 1917 094c 06       		.byte	6
 1918              	@ COB_IDUsedByTPDO:
 1919 094d 000000   		.space	3
 1920 0950 01000000 		.word	1
 1921              	@ transmissionType:
 1922 0954 FE       		.byte	-2
 1923              	@ inhibitTime:
 1924 0955 00       		.space	1
 1925 0956 0000     		.short	0
 1926              	@ compatibilityEntry:
 1927 0958 00       		.byte	0
 1928              	@ eventTimer:
 1929 0959 00       		.space	1
 1930 095a 0000     		.short	0
 1931              	@ SYNCStartValue:
 1932 095c 00       		.byte	0
 1933 095d 000000   		.space	3
 1934              	@ maxSubIndex:
 1935 0960 06       		.byte	6
 1936              	@ COB_IDUsedByTPDO:
ARM GAS  C:\Users\Akil\AppData\Local\Temp\cck4RU2M.s 			page 35


 1937 0961 000000   		.space	3
 1938 0964 01000000 		.word	1
 1939              	@ transmissionType:
 1940 0968 FE       		.byte	-2
 1941              	@ inhibitTime:
 1942 0969 00       		.space	1
 1943 096a 0000     		.short	0
 1944              	@ compatibilityEntry:
 1945 096c 00       		.byte	0
 1946              	@ eventTimer:
 1947 096d 00       		.space	1
 1948 096e 0000     		.short	0
 1949              	@ SYNCStartValue:
 1950 0970 00       		.byte	0
 1951 0971 000000   		.space	3
 1952              	@ maxSubIndex:
 1953 0974 06       		.byte	6
 1954              	@ COB_IDUsedByTPDO:
 1955 0975 000000   		.space	3
 1956 0978 01000000 		.word	1
 1957              	@ transmissionType:
 1958 097c FE       		.byte	-2
 1959              	@ inhibitTime:
 1960 097d 00       		.space	1
 1961 097e 0000     		.short	0
 1962              	@ compatibilityEntry:
 1963 0980 00       		.byte	0
 1964              	@ eventTimer:
 1965 0981 00       		.space	1
 1966 0982 0000     		.short	0
 1967              	@ SYNCStartValue:
 1968 0984 00       		.byte	0
 1969 0985 000000   		.space	3
 1970              	@ maxSubIndex:
 1971 0988 06       		.byte	6
 1972              	@ COB_IDUsedByTPDO:
 1973 0989 000000   		.space	3
 1974 098c 01000000 		.word	1
 1975              	@ transmissionType:
 1976 0990 FE       		.byte	-2
 1977              	@ inhibitTime:
 1978 0991 00       		.space	1
 1979 0992 0000     		.short	0
 1980              	@ compatibilityEntry:
 1981 0994 00       		.byte	0
 1982              	@ eventTimer:
 1983 0995 00       		.space	1
 1984 0996 0000     		.short	0
 1985              	@ SYNCStartValue:
 1986 0998 00       		.byte	0
 1987 0999 000000   		.space	3
 1988              	@ maxSubIndex:
 1989 099c 06       		.byte	6
 1990              	@ COB_IDUsedByTPDO:
 1991 099d 000000   		.space	3
 1992 09a0 01000000 		.word	1
 1993              	@ transmissionType:
ARM GAS  C:\Users\Akil\AppData\Local\Temp\cck4RU2M.s 			page 36


 1994 09a4 FE       		.byte	-2
 1995              	@ inhibitTime:
 1996 09a5 00       		.space	1
 1997 09a6 0000     		.short	0
 1998              	@ compatibilityEntry:
 1999 09a8 00       		.byte	0
 2000              	@ eventTimer:
 2001 09a9 00       		.space	1
 2002 09aa 0000     		.short	0
 2003              	@ SYNCStartValue:
 2004 09ac 00       		.byte	0
 2005 09ad 000000   		.space	3
 2006              	@ maxSubIndex:
 2007 09b0 06       		.byte	6
 2008              	@ COB_IDUsedByTPDO:
 2009 09b1 000000   		.space	3
 2010 09b4 01000000 		.word	1
 2011              	@ transmissionType:
 2012 09b8 FE       		.byte	-2
 2013              	@ inhibitTime:
 2014 09b9 00       		.space	1
 2015 09ba 0000     		.short	0
 2016              	@ compatibilityEntry:
 2017 09bc 00       		.byte	0
 2018              	@ eventTimer:
 2019 09bd 00       		.space	1
 2020 09be 0000     		.short	0
 2021              	@ SYNCStartValue:
 2022 09c0 00       		.byte	0
 2023 09c1 000000   		.space	3
 2024              	@ maxSubIndex:
 2025 09c4 06       		.byte	6
 2026              	@ COB_IDUsedByTPDO:
 2027 09c5 000000   		.space	3
 2028 09c8 01000000 		.word	1
 2029              	@ transmissionType:
 2030 09cc FE       		.byte	-2
 2031              	@ inhibitTime:
 2032 09cd 00       		.space	1
 2033 09ce 0000     		.short	0
 2034              	@ compatibilityEntry:
 2035 09d0 00       		.byte	0
 2036              	@ eventTimer:
 2037 09d1 00       		.space	1
 2038 09d2 0000     		.short	0
 2039              	@ SYNCStartValue:
 2040 09d4 00       		.byte	0
 2041 09d5 000000   		.space	3
 2042              	@ maxSubIndex:
 2043 09d8 06       		.byte	6
 2044              	@ COB_IDUsedByTPDO:
 2045 09d9 000000   		.space	3
 2046 09dc 01000000 		.word	1
 2047              	@ transmissionType:
 2048 09e0 FE       		.byte	-2
 2049              	@ inhibitTime:
 2050 09e1 00       		.space	1
ARM GAS  C:\Users\Akil\AppData\Local\Temp\cck4RU2M.s 			page 37


 2051 09e2 0000     		.short	0
 2052              	@ compatibilityEntry:
 2053 09e4 00       		.byte	0
 2054              	@ eventTimer:
 2055 09e5 00       		.space	1
 2056 09e6 0000     		.short	0
 2057              	@ SYNCStartValue:
 2058 09e8 00       		.byte	0
 2059 09e9 000000   		.space	3
 2060              	@ maxSubIndex:
 2061 09ec 06       		.byte	6
 2062              	@ COB_IDUsedByTPDO:
 2063 09ed 000000   		.space	3
 2064 09f0 01000000 		.word	1
 2065              	@ transmissionType:
 2066 09f4 FE       		.byte	-2
 2067              	@ inhibitTime:
 2068 09f5 00       		.space	1
 2069 09f6 0000     		.short	0
 2070              	@ compatibilityEntry:
 2071 09f8 00       		.byte	0
 2072              	@ eventTimer:
 2073 09f9 00       		.space	1
 2074 09fa 0000     		.short	0
 2075              	@ SYNCStartValue:
 2076 09fc 00       		.byte	0
 2077 09fd 000000   		.space	3
 2078              	@ TPDOMappingParameter:
 2079              	@ numberOfMappedObjects:
 2080 0a00 02       		.byte	2
 2081              	@ mappedObject1:
 2082 0a01 000000   		.space	3
 2083 0a04 08010060 		.word	1610613000
 2084              	@ mappedObject2:
 2085 0a08 08020060 		.word	1610613256
 2086              	@ mappedObject3:
 2087 0a0c 00000000 		.word	0
 2088              	@ mappedObject4:
 2089 0a10 00000000 		.word	0
 2090              	@ mappedObject5:
 2091 0a14 00000000 		.word	0
 2092              	@ mappedObject6:
 2093 0a18 00000000 		.word	0
 2094              	@ mappedObject7:
 2095 0a1c 00000000 		.word	0
 2096              	@ mappedObject8:
 2097 0a20 00000000 		.word	0
 2098              	@ numberOfMappedObjects:
 2099 0a24 00       		.byte	0
 2100              	@ mappedObject1:
 2101 0a25 000000   		.space	3
 2102 0a28 00000000 		.word	0
 2103              	@ mappedObject2:
 2104 0a2c 00000000 		.word	0
 2105              	@ mappedObject3:
 2106 0a30 00000000 		.word	0
 2107              	@ mappedObject4:
ARM GAS  C:\Users\Akil\AppData\Local\Temp\cck4RU2M.s 			page 38


 2108 0a34 00000000 		.word	0
 2109              	@ mappedObject5:
 2110 0a38 00000000 		.word	0
 2111              	@ mappedObject6:
 2112 0a3c 00000000 		.word	0
 2113              	@ mappedObject7:
 2114 0a40 00000000 		.word	0
 2115              	@ mappedObject8:
 2116 0a44 00000000 		.word	0
 2117              	@ numberOfMappedObjects:
 2118 0a48 00       		.byte	0
 2119              	@ mappedObject1:
 2120 0a49 000000   		.space	3
 2121 0a4c 00000000 		.word	0
 2122              	@ mappedObject2:
 2123 0a50 00000000 		.word	0
 2124              	@ mappedObject3:
 2125 0a54 00000000 		.word	0
 2126              	@ mappedObject4:
 2127 0a58 00000000 		.word	0
 2128              	@ mappedObject5:
 2129 0a5c 00000000 		.word	0
 2130              	@ mappedObject6:
 2131 0a60 00000000 		.word	0
 2132              	@ mappedObject7:
 2133 0a64 00000000 		.word	0
 2134              	@ mappedObject8:
 2135 0a68 00000000 		.word	0
 2136              	@ numberOfMappedObjects:
 2137 0a6c 00       		.byte	0
 2138              	@ mappedObject1:
 2139 0a6d 000000   		.space	3
 2140 0a70 00000000 		.word	0
 2141              	@ mappedObject2:
 2142 0a74 00000000 		.word	0
 2143              	@ mappedObject3:
 2144 0a78 00000000 		.word	0
 2145              	@ mappedObject4:
 2146 0a7c 00000000 		.word	0
 2147              	@ mappedObject5:
 2148 0a80 00000000 		.word	0
 2149              	@ mappedObject6:
 2150 0a84 00000000 		.word	0
 2151              	@ mappedObject7:
 2152 0a88 00000000 		.word	0
 2153              	@ mappedObject8:
 2154 0a8c 00000000 		.word	0
 2155              	@ numberOfMappedObjects:
 2156 0a90 00       		.byte	0
 2157              	@ mappedObject1:
 2158 0a91 000000   		.space	3
 2159 0a94 00000000 		.word	0
 2160              	@ mappedObject2:
 2161 0a98 00000000 		.word	0
 2162              	@ mappedObject3:
 2163 0a9c 00000000 		.word	0
 2164              	@ mappedObject4:
ARM GAS  C:\Users\Akil\AppData\Local\Temp\cck4RU2M.s 			page 39


 2165 0aa0 00000000 		.word	0
 2166              	@ mappedObject5:
 2167 0aa4 00000000 		.word	0
 2168              	@ mappedObject6:
 2169 0aa8 00000000 		.word	0
 2170              	@ mappedObject7:
 2171 0aac 00000000 		.word	0
 2172              	@ mappedObject8:
 2173 0ab0 00000000 		.word	0
 2174              	@ numberOfMappedObjects:
 2175 0ab4 00       		.byte	0
 2176              	@ mappedObject1:
 2177 0ab5 000000   		.space	3
 2178 0ab8 00000000 		.word	0
 2179              	@ mappedObject2:
 2180 0abc 00000000 		.word	0
 2181              	@ mappedObject3:
 2182 0ac0 00000000 		.word	0
 2183              	@ mappedObject4:
 2184 0ac4 00000000 		.word	0
 2185              	@ mappedObject5:
 2186 0ac8 00000000 		.word	0
 2187              	@ mappedObject6:
 2188 0acc 00000000 		.word	0
 2189              	@ mappedObject7:
 2190 0ad0 00000000 		.word	0
 2191              	@ mappedObject8:
 2192 0ad4 00000000 		.word	0
 2193              	@ numberOfMappedObjects:
 2194 0ad8 00       		.byte	0
 2195              	@ mappedObject1:
 2196 0ad9 000000   		.space	3
 2197 0adc 00000000 		.word	0
 2198              	@ mappedObject2:
 2199 0ae0 00000000 		.word	0
 2200              	@ mappedObject3:
 2201 0ae4 00000000 		.word	0
 2202              	@ mappedObject4:
 2203 0ae8 00000000 		.word	0
 2204              	@ mappedObject5:
 2205 0aec 00000000 		.word	0
 2206              	@ mappedObject6:
 2207 0af0 00000000 		.word	0
 2208              	@ mappedObject7:
 2209 0af4 00000000 		.word	0
 2210              	@ mappedObject8:
 2211 0af8 00000000 		.word	0
 2212              	@ numberOfMappedObjects:
 2213 0afc 00       		.byte	0
 2214              	@ mappedObject1:
 2215 0afd 000000   		.space	3
 2216 0b00 00000000 		.word	0
 2217              	@ mappedObject2:
 2218 0b04 00000000 		.word	0
 2219              	@ mappedObject3:
 2220 0b08 00000000 		.word	0
 2221              	@ mappedObject4:
ARM GAS  C:\Users\Akil\AppData\Local\Temp\cck4RU2M.s 			page 40


 2222 0b0c 00000000 		.word	0
 2223              	@ mappedObject5:
 2224 0b10 00000000 		.word	0
 2225              	@ mappedObject6:
 2226 0b14 00000000 		.word	0
 2227              	@ mappedObject7:
 2228 0b18 00000000 		.word	0
 2229              	@ mappedObject8:
 2230 0b1c 00000000 		.word	0
 2231              	@ numberOfMappedObjects:
 2232 0b20 00       		.byte	0
 2233              	@ mappedObject1:
 2234 0b21 000000   		.space	3
 2235 0b24 00000000 		.word	0
 2236              	@ mappedObject2:
 2237 0b28 00000000 		.word	0
 2238              	@ mappedObject3:
 2239 0b2c 00000000 		.word	0
 2240              	@ mappedObject4:
 2241 0b30 00000000 		.word	0
 2242              	@ mappedObject5:
 2243 0b34 00000000 		.word	0
 2244              	@ mappedObject6:
 2245 0b38 00000000 		.word	0
 2246              	@ mappedObject7:
 2247 0b3c 00000000 		.word	0
 2248              	@ mappedObject8:
 2249 0b40 00000000 		.word	0
 2250              	@ numberOfMappedObjects:
 2251 0b44 00       		.byte	0
 2252              	@ mappedObject1:
 2253 0b45 000000   		.space	3
 2254 0b48 00000000 		.word	0
 2255              	@ mappedObject2:
 2256 0b4c 00000000 		.word	0
 2257              	@ mappedObject3:
 2258 0b50 00000000 		.word	0
 2259              	@ mappedObject4:
 2260 0b54 00000000 		.word	0
 2261              	@ mappedObject5:
 2262 0b58 00000000 		.word	0
 2263              	@ mappedObject6:
 2264 0b5c 00000000 		.word	0
 2265              	@ mappedObject7:
 2266 0b60 00000000 		.word	0
 2267              	@ mappedObject8:
 2268 0b64 00000000 		.word	0
 2269              	@ numberOfMappedObjects:
 2270 0b68 00       		.byte	0
 2271              	@ mappedObject1:
 2272 0b69 000000   		.space	3
 2273 0b6c 00000000 		.word	0
 2274              	@ mappedObject2:
 2275 0b70 00000000 		.word	0
 2276              	@ mappedObject3:
 2277 0b74 00000000 		.word	0
 2278              	@ mappedObject4:
ARM GAS  C:\Users\Akil\AppData\Local\Temp\cck4RU2M.s 			page 41


 2279 0b78 00000000 		.word	0
 2280              	@ mappedObject5:
 2281 0b7c 00000000 		.word	0
 2282              	@ mappedObject6:
 2283 0b80 00000000 		.word	0
 2284              	@ mappedObject7:
 2285 0b84 00000000 		.word	0
 2286              	@ mappedObject8:
 2287 0b88 00000000 		.word	0
 2288              	@ numberOfMappedObjects:
 2289 0b8c 00       		.byte	0
 2290              	@ mappedObject1:
 2291 0b8d 000000   		.space	3
 2292 0b90 00000000 		.word	0
 2293              	@ mappedObject2:
 2294 0b94 00000000 		.word	0
 2295              	@ mappedObject3:
 2296 0b98 00000000 		.word	0
 2297              	@ mappedObject4:
 2298 0b9c 00000000 		.word	0
 2299              	@ mappedObject5:
 2300 0ba0 00000000 		.word	0
 2301              	@ mappedObject6:
 2302 0ba4 00000000 		.word	0
 2303              	@ mappedObject7:
 2304 0ba8 00000000 		.word	0
 2305              	@ mappedObject8:
 2306 0bac 00000000 		.word	0
 2307              	@ numberOfMappedObjects:
 2308 0bb0 00       		.byte	0
 2309              	@ mappedObject1:
 2310 0bb1 000000   		.space	3
 2311 0bb4 00000000 		.word	0
 2312              	@ mappedObject2:
 2313 0bb8 00000000 		.word	0
 2314              	@ mappedObject3:
 2315 0bbc 00000000 		.word	0
 2316              	@ mappedObject4:
 2317 0bc0 00000000 		.word	0
 2318              	@ mappedObject5:
 2319 0bc4 00000000 		.word	0
 2320              	@ mappedObject6:
 2321 0bc8 00000000 		.word	0
 2322              	@ mappedObject7:
 2323 0bcc 00000000 		.word	0
 2324              	@ mappedObject8:
 2325 0bd0 00000000 		.word	0
 2326              	@ numberOfMappedObjects:
 2327 0bd4 00       		.byte	0
 2328              	@ mappedObject1:
 2329 0bd5 000000   		.space	3
 2330 0bd8 00000000 		.word	0
 2331              	@ mappedObject2:
 2332 0bdc 00000000 		.word	0
 2333              	@ mappedObject3:
 2334 0be0 00000000 		.word	0
 2335              	@ mappedObject4:
ARM GAS  C:\Users\Akil\AppData\Local\Temp\cck4RU2M.s 			page 42


 2336 0be4 00000000 		.word	0
 2337              	@ mappedObject5:
 2338 0be8 00000000 		.word	0
 2339              	@ mappedObject6:
 2340 0bec 00000000 		.word	0
 2341              	@ mappedObject7:
 2342 0bf0 00000000 		.word	0
 2343              	@ mappedObject8:
 2344 0bf4 00000000 		.word	0
 2345              	@ numberOfMappedObjects:
 2346 0bf8 00       		.byte	0
 2347              	@ mappedObject1:
 2348 0bf9 000000   		.space	3
 2349 0bfc 00000000 		.word	0
 2350              	@ mappedObject2:
 2351 0c00 00000000 		.word	0
 2352              	@ mappedObject3:
 2353 0c04 00000000 		.word	0
 2354              	@ mappedObject4:
 2355 0c08 00000000 		.word	0
 2356              	@ mappedObject5:
 2357 0c0c 00000000 		.word	0
 2358              	@ mappedObject6:
 2359 0c10 00000000 		.word	0
 2360              	@ mappedObject7:
 2361 0c14 00000000 		.word	0
 2362              	@ mappedObject8:
 2363 0c18 00000000 		.word	0
 2364              	@ numberOfMappedObjects:
 2365 0c1c 00       		.byte	0
 2366              	@ mappedObject1:
 2367 0c1d 000000   		.space	3
 2368 0c20 00000000 		.word	0
 2369              	@ mappedObject2:
 2370 0c24 00000000 		.word	0
 2371              	@ mappedObject3:
 2372 0c28 00000000 		.word	0
 2373              	@ mappedObject4:
 2374 0c2c 00000000 		.word	0
 2375              	@ mappedObject5:
 2376 0c30 00000000 		.word	0
 2377              	@ mappedObject6:
 2378 0c34 00000000 		.word	0
 2379              	@ mappedObject7:
 2380 0c38 00000000 		.word	0
 2381              	@ mappedObject8:
 2382 0c3c 00000000 		.word	0
 2383              	@ NMTStartup:
 2384 0c40 00000000 		.word	0
 2385              	@ CANNodeID:
 2386 0c44 01       		.byte	1
 2387              	@ CANBitRate:
 2388 0c45 00       		.space	1
 2389 0c46 FA00     		.short	250
 2390              	@ variableROMInt32:
 2391 0c48 01000000 		.word	1
 2392 0c4c 00000000 		.word	0
ARM GAS  C:\Users\Akil\AppData\Local\Temp\cck4RU2M.s 			page 43


 2393 0c50 00000000 		.word	0
 2394 0c54 00000000 		.word	0
 2395 0c58 00000000 		.word	0
 2396 0c5c 00000000 		.word	0
 2397 0c60 00000000 		.word	0
 2398 0c64 00000000 		.word	0
 2399 0c68 00000000 		.word	0
 2400 0c6c 00000000 		.word	0
 2401 0c70 00000000 		.word	0
 2402 0c74 00000000 		.word	0
 2403 0c78 00000000 		.word	0
 2404 0c7c 00000000 		.word	0
 2405 0c80 00000000 		.word	0
 2406 0c84 00000000 		.word	0
 2407              	@ CANopenLog:
 2408              	@ maxSubIndex:
 2409 0c88 03       		.byte	3
 2410              	@ emcySRAMSize:
 2411 0c89 000000   		.space	3
 2412 0c8c 00100000 		.word	4096
 2413              	@ CANLogSize:
 2414 0c90 00000800 		.word	524288
 2415              	@ maxDumpFiles:
 2416 0c94 0A000000 		.word	10
 2417              	@ LastWord:
 2418 0c98 55000000 		.word	85
 2419              		.global	OD_record1018
 2420 0c9c 00000000 		.section	.rodata
 2421              		.align	2
 2422              		.type	OD_record1018, %object
 2423              		.size	OD_record1018, 40
 2424              	OD_record1018:
 2425              	@ pData:
 2426 0000 44000000 		.word	CO_OD_ROM+68
 2427              	@ attribute:
 2428 0004 0500     		.short	5
 2429              	@ length:
 2430 0006 0100     		.short	1
 2431              	@ pData:
 2432 0008 48000000 		.word	CO_OD_ROM+72
 2433              	@ attribute:
 2434 000c 8500     		.short	133
 2435              	@ length:
 2436 000e 0400     		.short	4
 2437              	@ pData:
 2438 0010 4C000000 		.word	CO_OD_ROM+76
 2439              	@ attribute:
 2440 0014 8500     		.short	133
 2441              	@ length:
 2442 0016 0400     		.short	4
 2443              	@ pData:
 2444 0018 50000000 		.word	CO_OD_ROM+80
 2445              	@ attribute:
 2446 001c 8500     		.short	133
 2447              	@ length:
 2448 001e 0400     		.short	4
 2449              	@ pData:
ARM GAS  C:\Users\Akil\AppData\Local\Temp\cck4RU2M.s 			page 44


 2450 0020 54000000 		.word	CO_OD_ROM+84
 2451              	@ attribute:
 2452 0024 8500     		.short	133
 2453              	@ length:
 2454 0026 0400     		.short	4
 2455              		.global	OD_record1200
 2456              		.align	2
 2457              		.type	OD_record1200, %object
 2458              		.size	OD_record1200, 24
 2459              	OD_record1200:
 2460              	@ pData:
 2461 0028 60000000 		.word	CO_OD_ROM+96
 2462              	@ attribute:
 2463 002c 0500     		.short	5
 2464              	@ length:
 2465 002e 0100     		.short	1
 2466              	@ pData:
 2467 0030 64000000 		.word	CO_OD_ROM+100
 2468              	@ attribute:
 2469 0034 8500     		.short	133
 2470              	@ length:
 2471 0036 0400     		.short	4
 2472              	@ pData:
 2473 0038 68000000 		.word	CO_OD_ROM+104
 2474              	@ attribute:
 2475 003c 8500     		.short	133
 2476              	@ length:
 2477 003e 0400     		.short	4
 2478              		.global	OD_record1280
 2479              		.align	2
 2480              		.type	OD_record1280, %object
 2481              		.size	OD_record1280, 32
 2482              	OD_record1280:
 2483              	@ pData:
 2484 0040 34000000 		.word	CO_OD_RAM+52
 2485              	@ attribute:
 2486 0044 0600     		.short	6
 2487              	@ length:
 2488 0046 0100     		.short	1
 2489              	@ pData:
 2490 0048 38000000 		.word	CO_OD_RAM+56
 2491              	@ attribute:
 2492 004c BE00     		.short	190
 2493              	@ length:
 2494 004e 0400     		.short	4
 2495              	@ pData:
 2496 0050 3C000000 		.word	CO_OD_RAM+60
 2497              	@ attribute:
 2498 0054 BE00     		.short	190
 2499              	@ length:
 2500 0056 0400     		.short	4
 2501              	@ pData:
 2502 0058 40000000 		.word	CO_OD_RAM+64
 2503              	@ attribute:
 2504 005c 0E00     		.short	14
 2505              	@ length:
 2506 005e 0100     		.short	1
ARM GAS  C:\Users\Akil\AppData\Local\Temp\cck4RU2M.s 			page 45


 2507              		.global	OD_record1400
 2508              		.align	2
 2509              		.type	OD_record1400, %object
 2510              		.size	OD_record1400, 24
 2511              	OD_record1400:
 2512              	@ pData:
 2513 0060 6C000000 		.word	CO_OD_ROM+108
 2514              	@ attribute:
 2515 0064 0500     		.short	5
 2516              	@ length:
 2517 0066 0100     		.short	1
 2518              	@ pData:
 2519 0068 70000000 		.word	CO_OD_ROM+112
 2520              	@ attribute:
 2521 006c 8D00     		.short	141
 2522              	@ length:
 2523 006e 0400     		.short	4
 2524              	@ pData:
 2525 0070 74000000 		.word	CO_OD_ROM+116
 2526              	@ attribute:
 2527 0074 0D00     		.short	13
 2528              	@ length:
 2529 0076 0100     		.short	1
 2530              		.global	OD_record1401
 2531              		.align	2
 2532              		.type	OD_record1401, %object
 2533              		.size	OD_record1401, 24
 2534              	OD_record1401:
 2535              	@ pData:
 2536 0078 78000000 		.word	CO_OD_ROM+120
 2537              	@ attribute:
 2538 007c 0500     		.short	5
 2539              	@ length:
 2540 007e 0100     		.short	1
 2541              	@ pData:
 2542 0080 7C000000 		.word	CO_OD_ROM+124
 2543              	@ attribute:
 2544 0084 8D00     		.short	141
 2545              	@ length:
 2546 0086 0400     		.short	4
 2547              	@ pData:
 2548 0088 80000000 		.word	CO_OD_ROM+128
 2549              	@ attribute:
 2550 008c 0D00     		.short	13
 2551              	@ length:
 2552 008e 0100     		.short	1
 2553              		.global	OD_record1402
 2554              		.align	2
 2555              		.type	OD_record1402, %object
 2556              		.size	OD_record1402, 24
 2557              	OD_record1402:
 2558              	@ pData:
 2559 0090 84000000 		.word	CO_OD_ROM+132
 2560              	@ attribute:
 2561 0094 0500     		.short	5
 2562              	@ length:
 2563 0096 0100     		.short	1
ARM GAS  C:\Users\Akil\AppData\Local\Temp\cck4RU2M.s 			page 46


 2564              	@ pData:
 2565 0098 88000000 		.word	CO_OD_ROM+136
 2566              	@ attribute:
 2567 009c 8D00     		.short	141
 2568              	@ length:
 2569 009e 0400     		.short	4
 2570              	@ pData:
 2571 00a0 8C000000 		.word	CO_OD_ROM+140
 2572              	@ attribute:
 2573 00a4 0D00     		.short	13
 2574              	@ length:
 2575 00a6 0100     		.short	1
 2576              		.global	OD_record1403
 2577              		.align	2
 2578              		.type	OD_record1403, %object
 2579              		.size	OD_record1403, 24
 2580              	OD_record1403:
 2581              	@ pData:
 2582 00a8 90000000 		.word	CO_OD_ROM+144
 2583              	@ attribute:
 2584 00ac 0500     		.short	5
 2585              	@ length:
 2586 00ae 0100     		.short	1
 2587              	@ pData:
 2588 00b0 94000000 		.word	CO_OD_ROM+148
 2589              	@ attribute:
 2590 00b4 8D00     		.short	141
 2591              	@ length:
 2592 00b6 0400     		.short	4
 2593              	@ pData:
 2594 00b8 98000000 		.word	CO_OD_ROM+152
 2595              	@ attribute:
 2596 00bc 0D00     		.short	13
 2597              	@ length:
 2598 00be 0100     		.short	1
 2599              		.global	OD_record1404
 2600              		.align	2
 2601              		.type	OD_record1404, %object
 2602              		.size	OD_record1404, 24
 2603              	OD_record1404:
 2604              	@ pData:
 2605 00c0 9C000000 		.word	CO_OD_ROM+156
 2606              	@ attribute:
 2607 00c4 0500     		.short	5
 2608              	@ length:
 2609 00c6 0100     		.short	1
 2610              	@ pData:
 2611 00c8 A0000000 		.word	CO_OD_ROM+160
 2612              	@ attribute:
 2613 00cc 8D00     		.short	141
 2614              	@ length:
 2615 00ce 0400     		.short	4
 2616              	@ pData:
 2617 00d0 A4000000 		.word	CO_OD_ROM+164
 2618              	@ attribute:
 2619 00d4 0D00     		.short	13
 2620              	@ length:
ARM GAS  C:\Users\Akil\AppData\Local\Temp\cck4RU2M.s 			page 47


 2621 00d6 0100     		.short	1
 2622              		.global	OD_record1405
 2623              		.align	2
 2624              		.type	OD_record1405, %object
 2625              		.size	OD_record1405, 24
 2626              	OD_record1405:
 2627              	@ pData:
 2628 00d8 A8000000 		.word	CO_OD_ROM+168
 2629              	@ attribute:
 2630 00dc 0500     		.short	5
 2631              	@ length:
 2632 00de 0100     		.short	1
 2633              	@ pData:
 2634 00e0 AC000000 		.word	CO_OD_ROM+172
 2635              	@ attribute:
 2636 00e4 8D00     		.short	141
 2637              	@ length:
 2638 00e6 0400     		.short	4
 2639              	@ pData:
 2640 00e8 B0000000 		.word	CO_OD_ROM+176
 2641              	@ attribute:
 2642 00ec 0D00     		.short	13
 2643              	@ length:
 2644 00ee 0100     		.short	1
 2645              		.global	OD_record1406
 2646              		.align	2
 2647              		.type	OD_record1406, %object
 2648              		.size	OD_record1406, 24
 2649              	OD_record1406:
 2650              	@ pData:
 2651 00f0 B4000000 		.word	CO_OD_ROM+180
 2652              	@ attribute:
 2653 00f4 0500     		.short	5
 2654              	@ length:
 2655 00f6 0100     		.short	1
 2656              	@ pData:
 2657 00f8 B8000000 		.word	CO_OD_ROM+184
 2658              	@ attribute:
 2659 00fc 8D00     		.short	141
 2660              	@ length:
 2661 00fe 0400     		.short	4
 2662              	@ pData:
 2663 0100 BC000000 		.word	CO_OD_ROM+188
 2664              	@ attribute:
 2665 0104 0D00     		.short	13
 2666              	@ length:
 2667 0106 0100     		.short	1
 2668              		.global	OD_record1407
 2669              		.align	2
 2670              		.type	OD_record1407, %object
 2671              		.size	OD_record1407, 24
 2672              	OD_record1407:
 2673              	@ pData:
 2674 0108 C0000000 		.word	CO_OD_ROM+192
 2675              	@ attribute:
 2676 010c 0500     		.short	5
 2677              	@ length:
ARM GAS  C:\Users\Akil\AppData\Local\Temp\cck4RU2M.s 			page 48


 2678 010e 0100     		.short	1
 2679              	@ pData:
 2680 0110 C4000000 		.word	CO_OD_ROM+196
 2681              	@ attribute:
 2682 0114 8D00     		.short	141
 2683              	@ length:
 2684 0116 0400     		.short	4
 2685              	@ pData:
 2686 0118 C8000000 		.word	CO_OD_ROM+200
 2687              	@ attribute:
 2688 011c 0D00     		.short	13
 2689              	@ length:
 2690 011e 0100     		.short	1
 2691              		.global	OD_record1408
 2692              		.align	2
 2693              		.type	OD_record1408, %object
 2694              		.size	OD_record1408, 24
 2695              	OD_record1408:
 2696              	@ pData:
 2697 0120 CC000000 		.word	CO_OD_ROM+204
 2698              	@ attribute:
 2699 0124 0500     		.short	5
 2700              	@ length:
 2701 0126 0100     		.short	1
 2702              	@ pData:
 2703 0128 D0000000 		.word	CO_OD_ROM+208
 2704              	@ attribute:
 2705 012c 8D00     		.short	141
 2706              	@ length:
 2707 012e 0400     		.short	4
 2708              	@ pData:
 2709 0130 D4000000 		.word	CO_OD_ROM+212
 2710              	@ attribute:
 2711 0134 0D00     		.short	13
 2712              	@ length:
 2713 0136 0100     		.short	1
 2714              		.global	OD_record1409
 2715              		.align	2
 2716              		.type	OD_record1409, %object
 2717              		.size	OD_record1409, 24
 2718              	OD_record1409:
 2719              	@ pData:
 2720 0138 D8000000 		.word	CO_OD_ROM+216
 2721              	@ attribute:
 2722 013c 0500     		.short	5
 2723              	@ length:
 2724 013e 0100     		.short	1
 2725              	@ pData:
 2726 0140 DC000000 		.word	CO_OD_ROM+220
 2727              	@ attribute:
 2728 0144 8D00     		.short	141
 2729              	@ length:
 2730 0146 0400     		.short	4
 2731              	@ pData:
 2732 0148 E0000000 		.word	CO_OD_ROM+224
 2733              	@ attribute:
 2734 014c 0D00     		.short	13
ARM GAS  C:\Users\Akil\AppData\Local\Temp\cck4RU2M.s 			page 49


 2735              	@ length:
 2736 014e 0100     		.short	1
 2737              		.global	OD_record140A
 2738              		.align	2
 2739              		.type	OD_record140A, %object
 2740              		.size	OD_record140A, 24
 2741              	OD_record140A:
 2742              	@ pData:
 2743 0150 E4000000 		.word	CO_OD_ROM+228
 2744              	@ attribute:
 2745 0154 0500     		.short	5
 2746              	@ length:
 2747 0156 0100     		.short	1
 2748              	@ pData:
 2749 0158 E8000000 		.word	CO_OD_ROM+232
 2750              	@ attribute:
 2751 015c 8D00     		.short	141
 2752              	@ length:
 2753 015e 0400     		.short	4
 2754              	@ pData:
 2755 0160 EC000000 		.word	CO_OD_ROM+236
 2756              	@ attribute:
 2757 0164 0D00     		.short	13
 2758              	@ length:
 2759 0166 0100     		.short	1
 2760              		.global	OD_record140B
 2761              		.align	2
 2762              		.type	OD_record140B, %object
 2763              		.size	OD_record140B, 24
 2764              	OD_record140B:
 2765              	@ pData:
 2766 0168 F0000000 		.word	CO_OD_ROM+240
 2767              	@ attribute:
 2768 016c 0500     		.short	5
 2769              	@ length:
 2770 016e 0100     		.short	1
 2771              	@ pData:
 2772 0170 F4000000 		.word	CO_OD_ROM+244
 2773              	@ attribute:
 2774 0174 8D00     		.short	141
 2775              	@ length:
 2776 0176 0400     		.short	4
 2777              	@ pData:
 2778 0178 F8000000 		.word	CO_OD_ROM+248
 2779              	@ attribute:
 2780 017c 0D00     		.short	13
 2781              	@ length:
 2782 017e 0100     		.short	1
 2783              		.global	OD_record140C
 2784              		.align	2
 2785              		.type	OD_record140C, %object
 2786              		.size	OD_record140C, 24
 2787              	OD_record140C:
 2788              	@ pData:
 2789 0180 FC000000 		.word	CO_OD_ROM+252
 2790              	@ attribute:
 2791 0184 0500     		.short	5
ARM GAS  C:\Users\Akil\AppData\Local\Temp\cck4RU2M.s 			page 50


 2792              	@ length:
 2793 0186 0100     		.short	1
 2794              	@ pData:
 2795 0188 00010000 		.word	CO_OD_ROM+256
 2796              	@ attribute:
 2797 018c 8D00     		.short	141
 2798              	@ length:
 2799 018e 0400     		.short	4
 2800              	@ pData:
 2801 0190 04010000 		.word	CO_OD_ROM+260
 2802              	@ attribute:
 2803 0194 0D00     		.short	13
 2804              	@ length:
 2805 0196 0100     		.short	1
 2806              		.global	OD_record140D
 2807              		.align	2
 2808              		.type	OD_record140D, %object
 2809              		.size	OD_record140D, 24
 2810              	OD_record140D:
 2811              	@ pData:
 2812 0198 08010000 		.word	CO_OD_ROM+264
 2813              	@ attribute:
 2814 019c 0500     		.short	5
 2815              	@ length:
 2816 019e 0100     		.short	1
 2817              	@ pData:
 2818 01a0 0C010000 		.word	CO_OD_ROM+268
 2819              	@ attribute:
 2820 01a4 8D00     		.short	141
 2821              	@ length:
 2822 01a6 0400     		.short	4
 2823              	@ pData:
 2824 01a8 10010000 		.word	CO_OD_ROM+272
 2825              	@ attribute:
 2826 01ac 0D00     		.short	13
 2827              	@ length:
 2828 01ae 0100     		.short	1
 2829              		.global	OD_record140E
 2830              		.align	2
 2831              		.type	OD_record140E, %object
 2832              		.size	OD_record140E, 24
 2833              	OD_record140E:
 2834              	@ pData:
 2835 01b0 14010000 		.word	CO_OD_ROM+276
 2836              	@ attribute:
 2837 01b4 0500     		.short	5
 2838              	@ length:
 2839 01b6 0100     		.short	1
 2840              	@ pData:
 2841 01b8 18010000 		.word	CO_OD_ROM+280
 2842              	@ attribute:
 2843 01bc 8D00     		.short	141
 2844              	@ length:
 2845 01be 0400     		.short	4
 2846              	@ pData:
 2847 01c0 1C010000 		.word	CO_OD_ROM+284
 2848              	@ attribute:
ARM GAS  C:\Users\Akil\AppData\Local\Temp\cck4RU2M.s 			page 51


 2849 01c4 0D00     		.short	13
 2850              	@ length:
 2851 01c6 0100     		.short	1
 2852              		.global	OD_record140F
 2853              		.align	2
 2854              		.type	OD_record140F, %object
 2855              		.size	OD_record140F, 24
 2856              	OD_record140F:
 2857              	@ pData:
 2858 01c8 20010000 		.word	CO_OD_ROM+288
 2859              	@ attribute:
 2860 01cc 0500     		.short	5
 2861              	@ length:
 2862 01ce 0100     		.short	1
 2863              	@ pData:
 2864 01d0 24010000 		.word	CO_OD_ROM+292
 2865              	@ attribute:
 2866 01d4 8D00     		.short	141
 2867              	@ length:
 2868 01d6 0400     		.short	4
 2869              	@ pData:
 2870 01d8 28010000 		.word	CO_OD_ROM+296
 2871              	@ attribute:
 2872 01dc 0D00     		.short	13
 2873              	@ length:
 2874 01de 0100     		.short	1
 2875              		.global	OD_record1600
 2876              		.align	2
 2877              		.type	OD_record1600, %object
 2878              		.size	OD_record1600, 72
 2879              	OD_record1600:
 2880              	@ pData:
 2881 01e0 2C010000 		.word	CO_OD_ROM+300
 2882              	@ attribute:
 2883 01e4 0D00     		.short	13
 2884              	@ length:
 2885 01e6 0100     		.short	1
 2886              	@ pData:
 2887 01e8 30010000 		.word	CO_OD_ROM+304
 2888              	@ attribute:
 2889 01ec 8D00     		.short	141
 2890              	@ length:
 2891 01ee 0400     		.short	4
 2892              	@ pData:
 2893 01f0 34010000 		.word	CO_OD_ROM+308
 2894              	@ attribute:
 2895 01f4 8D00     		.short	141
 2896              	@ length:
 2897 01f6 0400     		.short	4
 2898              	@ pData:
 2899 01f8 38010000 		.word	CO_OD_ROM+312
 2900              	@ attribute:
 2901 01fc 8D00     		.short	141
 2902              	@ length:
 2903 01fe 0400     		.short	4
 2904              	@ pData:
 2905 0200 3C010000 		.word	CO_OD_ROM+316
ARM GAS  C:\Users\Akil\AppData\Local\Temp\cck4RU2M.s 			page 52


 2906              	@ attribute:
 2907 0204 8D00     		.short	141
 2908              	@ length:
 2909 0206 0400     		.short	4
 2910              	@ pData:
 2911 0208 40010000 		.word	CO_OD_ROM+320
 2912              	@ attribute:
 2913 020c 8D00     		.short	141
 2914              	@ length:
 2915 020e 0400     		.short	4
 2916              	@ pData:
 2917 0210 44010000 		.word	CO_OD_ROM+324
 2918              	@ attribute:
 2919 0214 8D00     		.short	141
 2920              	@ length:
 2921 0216 0400     		.short	4
 2922              	@ pData:
 2923 0218 48010000 		.word	CO_OD_ROM+328
 2924              	@ attribute:
 2925 021c 8D00     		.short	141
 2926              	@ length:
 2927 021e 0400     		.short	4
 2928              	@ pData:
 2929 0220 4C010000 		.word	CO_OD_ROM+332
 2930              	@ attribute:
 2931 0224 8D00     		.short	141
 2932              	@ length:
 2933 0226 0400     		.short	4
 2934              		.global	OD_record1601
 2935              		.align	2
 2936              		.type	OD_record1601, %object
 2937              		.size	OD_record1601, 72
 2938              	OD_record1601:
 2939              	@ pData:
 2940 0228 50010000 		.word	CO_OD_ROM+336
 2941              	@ attribute:
 2942 022c 0D00     		.short	13
 2943              	@ length:
 2944 022e 0100     		.short	1
 2945              	@ pData:
 2946 0230 54010000 		.word	CO_OD_ROM+340
 2947              	@ attribute:
 2948 0234 8D00     		.short	141
 2949              	@ length:
 2950 0236 0400     		.short	4
 2951              	@ pData:
 2952 0238 58010000 		.word	CO_OD_ROM+344
 2953              	@ attribute:
 2954 023c 8D00     		.short	141
 2955              	@ length:
 2956 023e 0400     		.short	4
 2957              	@ pData:
 2958 0240 5C010000 		.word	CO_OD_ROM+348
 2959              	@ attribute:
 2960 0244 8D00     		.short	141
 2961              	@ length:
 2962 0246 0400     		.short	4
ARM GAS  C:\Users\Akil\AppData\Local\Temp\cck4RU2M.s 			page 53


 2963              	@ pData:
 2964 0248 60010000 		.word	CO_OD_ROM+352
 2965              	@ attribute:
 2966 024c 8D00     		.short	141
 2967              	@ length:
 2968 024e 0400     		.short	4
 2969              	@ pData:
 2970 0250 64010000 		.word	CO_OD_ROM+356
 2971              	@ attribute:
 2972 0254 8D00     		.short	141
 2973              	@ length:
 2974 0256 0400     		.short	4
 2975              	@ pData:
 2976 0258 68010000 		.word	CO_OD_ROM+360
 2977              	@ attribute:
 2978 025c 8D00     		.short	141
 2979              	@ length:
 2980 025e 0400     		.short	4
 2981              	@ pData:
 2982 0260 6C010000 		.word	CO_OD_ROM+364
 2983              	@ attribute:
 2984 0264 8D00     		.short	141
 2985              	@ length:
 2986 0266 0400     		.short	4
 2987              	@ pData:
 2988 0268 70010000 		.word	CO_OD_ROM+368
 2989              	@ attribute:
 2990 026c 8D00     		.short	141
 2991              	@ length:
 2992 026e 0400     		.short	4
 2993              		.global	OD_record1602
 2994              		.align	2
 2995              		.type	OD_record1602, %object
 2996              		.size	OD_record1602, 72
 2997              	OD_record1602:
 2998              	@ pData:
 2999 0270 74010000 		.word	CO_OD_ROM+372
 3000              	@ attribute:
 3001 0274 0D00     		.short	13
 3002              	@ length:
 3003 0276 0100     		.short	1
 3004              	@ pData:
 3005 0278 78010000 		.word	CO_OD_ROM+376
 3006              	@ attribute:
 3007 027c 8D00     		.short	141
 3008              	@ length:
 3009 027e 0400     		.short	4
 3010              	@ pData:
 3011 0280 7C010000 		.word	CO_OD_ROM+380
 3012              	@ attribute:
 3013 0284 8D00     		.short	141
 3014              	@ length:
 3015 0286 0400     		.short	4
 3016              	@ pData:
 3017 0288 80010000 		.word	CO_OD_ROM+384
 3018              	@ attribute:
 3019 028c 8D00     		.short	141
ARM GAS  C:\Users\Akil\AppData\Local\Temp\cck4RU2M.s 			page 54


 3020              	@ length:
 3021 028e 0400     		.short	4
 3022              	@ pData:
 3023 0290 84010000 		.word	CO_OD_ROM+388
 3024              	@ attribute:
 3025 0294 8D00     		.short	141
 3026              	@ length:
 3027 0296 0400     		.short	4
 3028              	@ pData:
 3029 0298 88010000 		.word	CO_OD_ROM+392
 3030              	@ attribute:
 3031 029c 8D00     		.short	141
 3032              	@ length:
 3033 029e 0400     		.short	4
 3034              	@ pData:
 3035 02a0 8C010000 		.word	CO_OD_ROM+396
 3036              	@ attribute:
 3037 02a4 8D00     		.short	141
 3038              	@ length:
 3039 02a6 0400     		.short	4
 3040              	@ pData:
 3041 02a8 90010000 		.word	CO_OD_ROM+400
 3042              	@ attribute:
 3043 02ac 8D00     		.short	141
 3044              	@ length:
 3045 02ae 0400     		.short	4
 3046              	@ pData:
 3047 02b0 94010000 		.word	CO_OD_ROM+404
 3048              	@ attribute:
 3049 02b4 8D00     		.short	141
 3050              	@ length:
 3051 02b6 0400     		.short	4
 3052              		.global	OD_record1603
 3053              		.align	2
 3054              		.type	OD_record1603, %object
 3055              		.size	OD_record1603, 72
 3056              	OD_record1603:
 3057              	@ pData:
 3058 02b8 98010000 		.word	CO_OD_ROM+408
 3059              	@ attribute:
 3060 02bc 0D00     		.short	13
 3061              	@ length:
 3062 02be 0100     		.short	1
 3063              	@ pData:
 3064 02c0 9C010000 		.word	CO_OD_ROM+412
 3065              	@ attribute:
 3066 02c4 8D00     		.short	141
 3067              	@ length:
 3068 02c6 0400     		.short	4
 3069              	@ pData:
 3070 02c8 A0010000 		.word	CO_OD_ROM+416
 3071              	@ attribute:
 3072 02cc 8D00     		.short	141
 3073              	@ length:
 3074 02ce 0400     		.short	4
 3075              	@ pData:
 3076 02d0 A4010000 		.word	CO_OD_ROM+420
ARM GAS  C:\Users\Akil\AppData\Local\Temp\cck4RU2M.s 			page 55


 3077              	@ attribute:
 3078 02d4 8D00     		.short	141
 3079              	@ length:
 3080 02d6 0400     		.short	4
 3081              	@ pData:
 3082 02d8 A8010000 		.word	CO_OD_ROM+424
 3083              	@ attribute:
 3084 02dc 8D00     		.short	141
 3085              	@ length:
 3086 02de 0400     		.short	4
 3087              	@ pData:
 3088 02e0 AC010000 		.word	CO_OD_ROM+428
 3089              	@ attribute:
 3090 02e4 8D00     		.short	141
 3091              	@ length:
 3092 02e6 0400     		.short	4
 3093              	@ pData:
 3094 02e8 B0010000 		.word	CO_OD_ROM+432
 3095              	@ attribute:
 3096 02ec 8D00     		.short	141
 3097              	@ length:
 3098 02ee 0400     		.short	4
 3099              	@ pData:
 3100 02f0 B4010000 		.word	CO_OD_ROM+436
 3101              	@ attribute:
 3102 02f4 8D00     		.short	141
 3103              	@ length:
 3104 02f6 0400     		.short	4
 3105              	@ pData:
 3106 02f8 B8010000 		.word	CO_OD_ROM+440
 3107              	@ attribute:
 3108 02fc 8D00     		.short	141
 3109              	@ length:
 3110 02fe 0400     		.short	4
 3111              		.global	OD_record1604
 3112              		.align	2
 3113              		.type	OD_record1604, %object
 3114              		.size	OD_record1604, 72
 3115              	OD_record1604:
 3116              	@ pData:
 3117 0300 BC010000 		.word	CO_OD_ROM+444
 3118              	@ attribute:
 3119 0304 0D00     		.short	13
 3120              	@ length:
 3121 0306 0100     		.short	1
 3122              	@ pData:
 3123 0308 C0010000 		.word	CO_OD_ROM+448
 3124              	@ attribute:
 3125 030c 8D00     		.short	141
 3126              	@ length:
 3127 030e 0400     		.short	4
 3128              	@ pData:
 3129 0310 C4010000 		.word	CO_OD_ROM+452
 3130              	@ attribute:
 3131 0314 8D00     		.short	141
 3132              	@ length:
 3133 0316 0400     		.short	4
ARM GAS  C:\Users\Akil\AppData\Local\Temp\cck4RU2M.s 			page 56


 3134              	@ pData:
 3135 0318 C8010000 		.word	CO_OD_ROM+456
 3136              	@ attribute:
 3137 031c 8D00     		.short	141
 3138              	@ length:
 3139 031e 0400     		.short	4
 3140              	@ pData:
 3141 0320 CC010000 		.word	CO_OD_ROM+460
 3142              	@ attribute:
 3143 0324 8D00     		.short	141
 3144              	@ length:
 3145 0326 0400     		.short	4
 3146              	@ pData:
 3147 0328 D0010000 		.word	CO_OD_ROM+464
 3148              	@ attribute:
 3149 032c 8D00     		.short	141
 3150              	@ length:
 3151 032e 0400     		.short	4
 3152              	@ pData:
 3153 0330 D4010000 		.word	CO_OD_ROM+468
 3154              	@ attribute:
 3155 0334 8D00     		.short	141
 3156              	@ length:
 3157 0336 0400     		.short	4
 3158              	@ pData:
 3159 0338 D8010000 		.word	CO_OD_ROM+472
 3160              	@ attribute:
 3161 033c 8D00     		.short	141
 3162              	@ length:
 3163 033e 0400     		.short	4
 3164              	@ pData:
 3165 0340 DC010000 		.word	CO_OD_ROM+476
 3166              	@ attribute:
 3167 0344 8D00     		.short	141
 3168              	@ length:
 3169 0346 0400     		.short	4
 3170              		.global	OD_record1605
 3171              		.align	2
 3172              		.type	OD_record1605, %object
 3173              		.size	OD_record1605, 72
 3174              	OD_record1605:
 3175              	@ pData:
 3176 0348 E0010000 		.word	CO_OD_ROM+480
 3177              	@ attribute:
 3178 034c 0D00     		.short	13
 3179              	@ length:
 3180 034e 0100     		.short	1
 3181              	@ pData:
 3182 0350 E4010000 		.word	CO_OD_ROM+484
 3183              	@ attribute:
 3184 0354 8D00     		.short	141
 3185              	@ length:
 3186 0356 0400     		.short	4
 3187              	@ pData:
 3188 0358 E8010000 		.word	CO_OD_ROM+488
 3189              	@ attribute:
 3190 035c 8D00     		.short	141
ARM GAS  C:\Users\Akil\AppData\Local\Temp\cck4RU2M.s 			page 57


 3191              	@ length:
 3192 035e 0400     		.short	4
 3193              	@ pData:
 3194 0360 EC010000 		.word	CO_OD_ROM+492
 3195              	@ attribute:
 3196 0364 8D00     		.short	141
 3197              	@ length:
 3198 0366 0400     		.short	4
 3199              	@ pData:
 3200 0368 F0010000 		.word	CO_OD_ROM+496
 3201              	@ attribute:
 3202 036c 8D00     		.short	141
 3203              	@ length:
 3204 036e 0400     		.short	4
 3205              	@ pData:
 3206 0370 F4010000 		.word	CO_OD_ROM+500
 3207              	@ attribute:
 3208 0374 8D00     		.short	141
 3209              	@ length:
 3210 0376 0400     		.short	4
 3211              	@ pData:
 3212 0378 F8010000 		.word	CO_OD_ROM+504
 3213              	@ attribute:
 3214 037c 8D00     		.short	141
 3215              	@ length:
 3216 037e 0400     		.short	4
 3217              	@ pData:
 3218 0380 FC010000 		.word	CO_OD_ROM+508
 3219              	@ attribute:
 3220 0384 8D00     		.short	141
 3221              	@ length:
 3222 0386 0400     		.short	4
 3223              	@ pData:
 3224 0388 00020000 		.word	CO_OD_ROM+512
 3225              	@ attribute:
 3226 038c 8D00     		.short	141
 3227              	@ length:
 3228 038e 0400     		.short	4
 3229              		.global	OD_record1606
 3230              		.align	2
 3231              		.type	OD_record1606, %object
 3232              		.size	OD_record1606, 72
 3233              	OD_record1606:
 3234              	@ pData:
 3235 0390 04020000 		.word	CO_OD_ROM+516
 3236              	@ attribute:
 3237 0394 0D00     		.short	13
 3238              	@ length:
 3239 0396 0100     		.short	1
 3240              	@ pData:
 3241 0398 08020000 		.word	CO_OD_ROM+520
 3242              	@ attribute:
 3243 039c 8D00     		.short	141
 3244              	@ length:
 3245 039e 0400     		.short	4
 3246              	@ pData:
 3247 03a0 0C020000 		.word	CO_OD_ROM+524
ARM GAS  C:\Users\Akil\AppData\Local\Temp\cck4RU2M.s 			page 58


 3248              	@ attribute:
 3249 03a4 8D00     		.short	141
 3250              	@ length:
 3251 03a6 0400     		.short	4
 3252              	@ pData:
 3253 03a8 10020000 		.word	CO_OD_ROM+528
 3254              	@ attribute:
 3255 03ac 8D00     		.short	141
 3256              	@ length:
 3257 03ae 0400     		.short	4
 3258              	@ pData:
 3259 03b0 14020000 		.word	CO_OD_ROM+532
 3260              	@ attribute:
 3261 03b4 8D00     		.short	141
 3262              	@ length:
 3263 03b6 0400     		.short	4
 3264              	@ pData:
 3265 03b8 18020000 		.word	CO_OD_ROM+536
 3266              	@ attribute:
 3267 03bc 8D00     		.short	141
 3268              	@ length:
 3269 03be 0400     		.short	4
 3270              	@ pData:
 3271 03c0 1C020000 		.word	CO_OD_ROM+540
 3272              	@ attribute:
 3273 03c4 8D00     		.short	141
 3274              	@ length:
 3275 03c6 0400     		.short	4
 3276              	@ pData:
 3277 03c8 20020000 		.word	CO_OD_ROM+544
 3278              	@ attribute:
 3279 03cc 8D00     		.short	141
 3280              	@ length:
 3281 03ce 0400     		.short	4
 3282              	@ pData:
 3283 03d0 24020000 		.word	CO_OD_ROM+548
 3284              	@ attribute:
 3285 03d4 8D00     		.short	141
 3286              	@ length:
 3287 03d6 0400     		.short	4
 3288              		.global	OD_record1607
 3289              		.align	2
 3290              		.type	OD_record1607, %object
 3291              		.size	OD_record1607, 72
 3292              	OD_record1607:
 3293              	@ pData:
 3294 03d8 28020000 		.word	CO_OD_ROM+552
 3295              	@ attribute:
 3296 03dc 0D00     		.short	13
 3297              	@ length:
 3298 03de 0100     		.short	1
 3299              	@ pData:
 3300 03e0 2C020000 		.word	CO_OD_ROM+556
 3301              	@ attribute:
 3302 03e4 8D00     		.short	141
 3303              	@ length:
 3304 03e6 0400     		.short	4
ARM GAS  C:\Users\Akil\AppData\Local\Temp\cck4RU2M.s 			page 59


 3305              	@ pData:
 3306 03e8 30020000 		.word	CO_OD_ROM+560
 3307              	@ attribute:
 3308 03ec 8D00     		.short	141
 3309              	@ length:
 3310 03ee 0400     		.short	4
 3311              	@ pData:
 3312 03f0 34020000 		.word	CO_OD_ROM+564
 3313              	@ attribute:
 3314 03f4 8D00     		.short	141
 3315              	@ length:
 3316 03f6 0400     		.short	4
 3317              	@ pData:
 3318 03f8 38020000 		.word	CO_OD_ROM+568
 3319              	@ attribute:
 3320 03fc 8D00     		.short	141
 3321              	@ length:
 3322 03fe 0400     		.short	4
 3323              	@ pData:
 3324 0400 3C020000 		.word	CO_OD_ROM+572
 3325              	@ attribute:
 3326 0404 8D00     		.short	141
 3327              	@ length:
 3328 0406 0400     		.short	4
 3329              	@ pData:
 3330 0408 40020000 		.word	CO_OD_ROM+576
 3331              	@ attribute:
 3332 040c 8D00     		.short	141
 3333              	@ length:
 3334 040e 0400     		.short	4
 3335              	@ pData:
 3336 0410 44020000 		.word	CO_OD_ROM+580
 3337              	@ attribute:
 3338 0414 8D00     		.short	141
 3339              	@ length:
 3340 0416 0400     		.short	4
 3341              	@ pData:
 3342 0418 48020000 		.word	CO_OD_ROM+584
 3343              	@ attribute:
 3344 041c 8D00     		.short	141
 3345              	@ length:
 3346 041e 0400     		.short	4
 3347              		.global	OD_record1608
 3348              		.align	2
 3349              		.type	OD_record1608, %object
 3350              		.size	OD_record1608, 72
 3351              	OD_record1608:
 3352              	@ pData:
 3353 0420 4C020000 		.word	CO_OD_ROM+588
 3354              	@ attribute:
 3355 0424 0D00     		.short	13
 3356              	@ length:
 3357 0426 0100     		.short	1
 3358              	@ pData:
 3359 0428 50020000 		.word	CO_OD_ROM+592
 3360              	@ attribute:
 3361 042c 8D00     		.short	141
ARM GAS  C:\Users\Akil\AppData\Local\Temp\cck4RU2M.s 			page 60


 3362              	@ length:
 3363 042e 0400     		.short	4
 3364              	@ pData:
 3365 0430 54020000 		.word	CO_OD_ROM+596
 3366              	@ attribute:
 3367 0434 8D00     		.short	141
 3368              	@ length:
 3369 0436 0400     		.short	4
 3370              	@ pData:
 3371 0438 58020000 		.word	CO_OD_ROM+600
 3372              	@ attribute:
 3373 043c 8D00     		.short	141
 3374              	@ length:
 3375 043e 0400     		.short	4
 3376              	@ pData:
 3377 0440 5C020000 		.word	CO_OD_ROM+604
 3378              	@ attribute:
 3379 0444 8D00     		.short	141
 3380              	@ length:
 3381 0446 0400     		.short	4
 3382              	@ pData:
 3383 0448 60020000 		.word	CO_OD_ROM+608
 3384              	@ attribute:
 3385 044c 8D00     		.short	141
 3386              	@ length:
 3387 044e 0400     		.short	4
 3388              	@ pData:
 3389 0450 64020000 		.word	CO_OD_ROM+612
 3390              	@ attribute:
 3391 0454 8D00     		.short	141
 3392              	@ length:
 3393 0456 0400     		.short	4
 3394              	@ pData:
 3395 0458 68020000 		.word	CO_OD_ROM+616
 3396              	@ attribute:
 3397 045c 8D00     		.short	141
 3398              	@ length:
 3399 045e 0400     		.short	4
 3400              	@ pData:
 3401 0460 6C020000 		.word	CO_OD_ROM+620
 3402              	@ attribute:
 3403 0464 8D00     		.short	141
 3404              	@ length:
 3405 0466 0400     		.short	4
 3406              		.global	OD_record1609
 3407              		.align	2
 3408              		.type	OD_record1609, %object
 3409              		.size	OD_record1609, 72
 3410              	OD_record1609:
 3411              	@ pData:
 3412 0468 70020000 		.word	CO_OD_ROM+624
 3413              	@ attribute:
 3414 046c 0D00     		.short	13
 3415              	@ length:
 3416 046e 0100     		.short	1
 3417              	@ pData:
 3418 0470 74020000 		.word	CO_OD_ROM+628
ARM GAS  C:\Users\Akil\AppData\Local\Temp\cck4RU2M.s 			page 61


 3419              	@ attribute:
 3420 0474 8D00     		.short	141
 3421              	@ length:
 3422 0476 0400     		.short	4
 3423              	@ pData:
 3424 0478 78020000 		.word	CO_OD_ROM+632
 3425              	@ attribute:
 3426 047c 8D00     		.short	141
 3427              	@ length:
 3428 047e 0400     		.short	4
 3429              	@ pData:
 3430 0480 7C020000 		.word	CO_OD_ROM+636
 3431              	@ attribute:
 3432 0484 8D00     		.short	141
 3433              	@ length:
 3434 0486 0400     		.short	4
 3435              	@ pData:
 3436 0488 80020000 		.word	CO_OD_ROM+640
 3437              	@ attribute:
 3438 048c 8D00     		.short	141
 3439              	@ length:
 3440 048e 0400     		.short	4
 3441              	@ pData:
 3442 0490 84020000 		.word	CO_OD_ROM+644
 3443              	@ attribute:
 3444 0494 8D00     		.short	141
 3445              	@ length:
 3446 0496 0400     		.short	4
 3447              	@ pData:
 3448 0498 88020000 		.word	CO_OD_ROM+648
 3449              	@ attribute:
 3450 049c 8D00     		.short	141
 3451              	@ length:
 3452 049e 0400     		.short	4
 3453              	@ pData:
 3454 04a0 8C020000 		.word	CO_OD_ROM+652
 3455              	@ attribute:
 3456 04a4 8D00     		.short	141
 3457              	@ length:
 3458 04a6 0400     		.short	4
 3459              	@ pData:
 3460 04a8 90020000 		.word	CO_OD_ROM+656
 3461              	@ attribute:
 3462 04ac 8D00     		.short	141
 3463              	@ length:
 3464 04ae 0400     		.short	4
 3465              		.global	OD_record160A
 3466              		.align	2
 3467              		.type	OD_record160A, %object
 3468              		.size	OD_record160A, 72
 3469              	OD_record160A:
 3470              	@ pData:
 3471 04b0 94020000 		.word	CO_OD_ROM+660
 3472              	@ attribute:
 3473 04b4 0D00     		.short	13
 3474              	@ length:
 3475 04b6 0100     		.short	1
ARM GAS  C:\Users\Akil\AppData\Local\Temp\cck4RU2M.s 			page 62


 3476              	@ pData:
 3477 04b8 98020000 		.word	CO_OD_ROM+664
 3478              	@ attribute:
 3479 04bc 8D00     		.short	141
 3480              	@ length:
 3481 04be 0400     		.short	4
 3482              	@ pData:
 3483 04c0 9C020000 		.word	CO_OD_ROM+668
 3484              	@ attribute:
 3485 04c4 8D00     		.short	141
 3486              	@ length:
 3487 04c6 0400     		.short	4
 3488              	@ pData:
 3489 04c8 A0020000 		.word	CO_OD_ROM+672
 3490              	@ attribute:
 3491 04cc 8D00     		.short	141
 3492              	@ length:
 3493 04ce 0400     		.short	4
 3494              	@ pData:
 3495 04d0 A4020000 		.word	CO_OD_ROM+676
 3496              	@ attribute:
 3497 04d4 8D00     		.short	141
 3498              	@ length:
 3499 04d6 0400     		.short	4
 3500              	@ pData:
 3501 04d8 A8020000 		.word	CO_OD_ROM+680
 3502              	@ attribute:
 3503 04dc 8D00     		.short	141
 3504              	@ length:
 3505 04de 0400     		.short	4
 3506              	@ pData:
 3507 04e0 AC020000 		.word	CO_OD_ROM+684
 3508              	@ attribute:
 3509 04e4 8D00     		.short	141
 3510              	@ length:
 3511 04e6 0400     		.short	4
 3512              	@ pData:
 3513 04e8 B0020000 		.word	CO_OD_ROM+688
 3514              	@ attribute:
 3515 04ec 8D00     		.short	141
 3516              	@ length:
 3517 04ee 0400     		.short	4
 3518              	@ pData:
 3519 04f0 B4020000 		.word	CO_OD_ROM+692
 3520              	@ attribute:
 3521 04f4 8D00     		.short	141
 3522              	@ length:
 3523 04f6 0400     		.short	4
 3524              		.global	OD_record160B
 3525              		.align	2
 3526              		.type	OD_record160B, %object
 3527              		.size	OD_record160B, 72
 3528              	OD_record160B:
 3529              	@ pData:
 3530 04f8 B8020000 		.word	CO_OD_ROM+696
 3531              	@ attribute:
 3532 04fc 0D00     		.short	13
ARM GAS  C:\Users\Akil\AppData\Local\Temp\cck4RU2M.s 			page 63


 3533              	@ length:
 3534 04fe 0100     		.short	1
 3535              	@ pData:
 3536 0500 BC020000 		.word	CO_OD_ROM+700
 3537              	@ attribute:
 3538 0504 8D00     		.short	141
 3539              	@ length:
 3540 0506 0400     		.short	4
 3541              	@ pData:
 3542 0508 C0020000 		.word	CO_OD_ROM+704
 3543              	@ attribute:
 3544 050c 8D00     		.short	141
 3545              	@ length:
 3546 050e 0400     		.short	4
 3547              	@ pData:
 3548 0510 C4020000 		.word	CO_OD_ROM+708
 3549              	@ attribute:
 3550 0514 8D00     		.short	141
 3551              	@ length:
 3552 0516 0400     		.short	4
 3553              	@ pData:
 3554 0518 C8020000 		.word	CO_OD_ROM+712
 3555              	@ attribute:
 3556 051c 8D00     		.short	141
 3557              	@ length:
 3558 051e 0400     		.short	4
 3559              	@ pData:
 3560 0520 CC020000 		.word	CO_OD_ROM+716
 3561              	@ attribute:
 3562 0524 8D00     		.short	141
 3563              	@ length:
 3564 0526 0400     		.short	4
 3565              	@ pData:
 3566 0528 D0020000 		.word	CO_OD_ROM+720
 3567              	@ attribute:
 3568 052c 8D00     		.short	141
 3569              	@ length:
 3570 052e 0400     		.short	4
 3571              	@ pData:
 3572 0530 D4020000 		.word	CO_OD_ROM+724
 3573              	@ attribute:
 3574 0534 8D00     		.short	141
 3575              	@ length:
 3576 0536 0400     		.short	4
 3577              	@ pData:
 3578 0538 D8020000 		.word	CO_OD_ROM+728
 3579              	@ attribute:
 3580 053c 8D00     		.short	141
 3581              	@ length:
 3582 053e 0400     		.short	4
 3583              		.global	OD_record160C
 3584              		.align	2
 3585              		.type	OD_record160C, %object
 3586              		.size	OD_record160C, 72
 3587              	OD_record160C:
 3588              	@ pData:
 3589 0540 DC020000 		.word	CO_OD_ROM+732
ARM GAS  C:\Users\Akil\AppData\Local\Temp\cck4RU2M.s 			page 64


 3590              	@ attribute:
 3591 0544 0D00     		.short	13
 3592              	@ length:
 3593 0546 0100     		.short	1
 3594              	@ pData:
 3595 0548 E0020000 		.word	CO_OD_ROM+736
 3596              	@ attribute:
 3597 054c 8D00     		.short	141
 3598              	@ length:
 3599 054e 0400     		.short	4
 3600              	@ pData:
 3601 0550 E4020000 		.word	CO_OD_ROM+740
 3602              	@ attribute:
 3603 0554 8D00     		.short	141
 3604              	@ length:
 3605 0556 0400     		.short	4
 3606              	@ pData:
 3607 0558 E8020000 		.word	CO_OD_ROM+744
 3608              	@ attribute:
 3609 055c 8D00     		.short	141
 3610              	@ length:
 3611 055e 0400     		.short	4
 3612              	@ pData:
 3613 0560 EC020000 		.word	CO_OD_ROM+748
 3614              	@ attribute:
 3615 0564 8D00     		.short	141
 3616              	@ length:
 3617 0566 0400     		.short	4
 3618              	@ pData:
 3619 0568 F0020000 		.word	CO_OD_ROM+752
 3620              	@ attribute:
 3621 056c 8D00     		.short	141
 3622              	@ length:
 3623 056e 0400     		.short	4
 3624              	@ pData:
 3625 0570 F4020000 		.word	CO_OD_ROM+756
 3626              	@ attribute:
 3627 0574 8D00     		.short	141
 3628              	@ length:
 3629 0576 0400     		.short	4
 3630              	@ pData:
 3631 0578 F8020000 		.word	CO_OD_ROM+760
 3632              	@ attribute:
 3633 057c 8D00     		.short	141
 3634              	@ length:
 3635 057e 0400     		.short	4
 3636              	@ pData:
 3637 0580 FC020000 		.word	CO_OD_ROM+764
 3638              	@ attribute:
 3639 0584 8D00     		.short	141
 3640              	@ length:
 3641 0586 0400     		.short	4
 3642              		.global	OD_record160D
 3643              		.align	2
 3644              		.type	OD_record160D, %object
 3645              		.size	OD_record160D, 72
 3646              	OD_record160D:
ARM GAS  C:\Users\Akil\AppData\Local\Temp\cck4RU2M.s 			page 65


 3647              	@ pData:
 3648 0588 00030000 		.word	CO_OD_ROM+768
 3649              	@ attribute:
 3650 058c 0D00     		.short	13
 3651              	@ length:
 3652 058e 0100     		.short	1
 3653              	@ pData:
 3654 0590 04030000 		.word	CO_OD_ROM+772
 3655              	@ attribute:
 3656 0594 8D00     		.short	141
 3657              	@ length:
 3658 0596 0400     		.short	4
 3659              	@ pData:
 3660 0598 08030000 		.word	CO_OD_ROM+776
 3661              	@ attribute:
 3662 059c 8D00     		.short	141
 3663              	@ length:
 3664 059e 0400     		.short	4
 3665              	@ pData:
 3666 05a0 0C030000 		.word	CO_OD_ROM+780
 3667              	@ attribute:
 3668 05a4 8D00     		.short	141
 3669              	@ length:
 3670 05a6 0400     		.short	4
 3671              	@ pData:
 3672 05a8 10030000 		.word	CO_OD_ROM+784
 3673              	@ attribute:
 3674 05ac 8D00     		.short	141
 3675              	@ length:
 3676 05ae 0400     		.short	4
 3677              	@ pData:
 3678 05b0 14030000 		.word	CO_OD_ROM+788
 3679              	@ attribute:
 3680 05b4 8D00     		.short	141
 3681              	@ length:
 3682 05b6 0400     		.short	4
 3683              	@ pData:
 3684 05b8 18030000 		.word	CO_OD_ROM+792
 3685              	@ attribute:
 3686 05bc 8D00     		.short	141
 3687              	@ length:
 3688 05be 0400     		.short	4
 3689              	@ pData:
 3690 05c0 1C030000 		.word	CO_OD_ROM+796
 3691              	@ attribute:
 3692 05c4 8D00     		.short	141
 3693              	@ length:
 3694 05c6 0400     		.short	4
 3695              	@ pData:
 3696 05c8 20030000 		.word	CO_OD_ROM+800
 3697              	@ attribute:
 3698 05cc 8D00     		.short	141
 3699              	@ length:
 3700 05ce 0400     		.short	4
 3701              		.global	OD_record160E
 3702              		.align	2
 3703              		.type	OD_record160E, %object
ARM GAS  C:\Users\Akil\AppData\Local\Temp\cck4RU2M.s 			page 66


 3704              		.size	OD_record160E, 72
 3705              	OD_record160E:
 3706              	@ pData:
 3707 05d0 24030000 		.word	CO_OD_ROM+804
 3708              	@ attribute:
 3709 05d4 0D00     		.short	13
 3710              	@ length:
 3711 05d6 0100     		.short	1
 3712              	@ pData:
 3713 05d8 28030000 		.word	CO_OD_ROM+808
 3714              	@ attribute:
 3715 05dc 8D00     		.short	141
 3716              	@ length:
 3717 05de 0400     		.short	4
 3718              	@ pData:
 3719 05e0 2C030000 		.word	CO_OD_ROM+812
 3720              	@ attribute:
 3721 05e4 8D00     		.short	141
 3722              	@ length:
 3723 05e6 0400     		.short	4
 3724              	@ pData:
 3725 05e8 30030000 		.word	CO_OD_ROM+816
 3726              	@ attribute:
 3727 05ec 8D00     		.short	141
 3728              	@ length:
 3729 05ee 0400     		.short	4
 3730              	@ pData:
 3731 05f0 34030000 		.word	CO_OD_ROM+820
 3732              	@ attribute:
 3733 05f4 8D00     		.short	141
 3734              	@ length:
 3735 05f6 0400     		.short	4
 3736              	@ pData:
 3737 05f8 38030000 		.word	CO_OD_ROM+824
 3738              	@ attribute:
 3739 05fc 8D00     		.short	141
 3740              	@ length:
 3741 05fe 0400     		.short	4
 3742              	@ pData:
 3743 0600 3C030000 		.word	CO_OD_ROM+828
 3744              	@ attribute:
 3745 0604 8D00     		.short	141
 3746              	@ length:
 3747 0606 0400     		.short	4
 3748              	@ pData:
 3749 0608 40030000 		.word	CO_OD_ROM+832
 3750              	@ attribute:
 3751 060c 8D00     		.short	141
 3752              	@ length:
 3753 060e 0400     		.short	4
 3754              	@ pData:
 3755 0610 44030000 		.word	CO_OD_ROM+836
 3756              	@ attribute:
 3757 0614 8D00     		.short	141
 3758              	@ length:
 3759 0616 0400     		.short	4
 3760              		.global	OD_record160F
ARM GAS  C:\Users\Akil\AppData\Local\Temp\cck4RU2M.s 			page 67


 3761              		.align	2
 3762              		.type	OD_record160F, %object
 3763              		.size	OD_record160F, 72
 3764              	OD_record160F:
 3765              	@ pData:
 3766 0618 48030000 		.word	CO_OD_ROM+840
 3767              	@ attribute:
 3768 061c 0D00     		.short	13
 3769              	@ length:
 3770 061e 0100     		.short	1
 3771              	@ pData:
 3772 0620 4C030000 		.word	CO_OD_ROM+844
 3773              	@ attribute:
 3774 0624 8D00     		.short	141
 3775              	@ length:
 3776 0626 0400     		.short	4
 3777              	@ pData:
 3778 0628 50030000 		.word	CO_OD_ROM+848
 3779              	@ attribute:
 3780 062c 8D00     		.short	141
 3781              	@ length:
 3782 062e 0400     		.short	4
 3783              	@ pData:
 3784 0630 54030000 		.word	CO_OD_ROM+852
 3785              	@ attribute:
 3786 0634 8D00     		.short	141
 3787              	@ length:
 3788 0636 0400     		.short	4
 3789              	@ pData:
 3790 0638 58030000 		.word	CO_OD_ROM+856
 3791              	@ attribute:
 3792 063c 8D00     		.short	141
 3793              	@ length:
 3794 063e 0400     		.short	4
 3795              	@ pData:
 3796 0640 5C030000 		.word	CO_OD_ROM+860
 3797              	@ attribute:
 3798 0644 8D00     		.short	141
 3799              	@ length:
 3800 0646 0400     		.short	4
 3801              	@ pData:
 3802 0648 60030000 		.word	CO_OD_ROM+864
 3803              	@ attribute:
 3804 064c 8D00     		.short	141
 3805              	@ length:
 3806 064e 0400     		.short	4
 3807              	@ pData:
 3808 0650 64030000 		.word	CO_OD_ROM+868
 3809              	@ attribute:
 3810 0654 8D00     		.short	141
 3811              	@ length:
 3812 0656 0400     		.short	4
 3813              	@ pData:
 3814 0658 68030000 		.word	CO_OD_ROM+872
 3815              	@ attribute:
 3816 065c 8D00     		.short	141
 3817              	@ length:
ARM GAS  C:\Users\Akil\AppData\Local\Temp\cck4RU2M.s 			page 68


 3818 065e 0400     		.short	4
 3819              		.global	OD_record1800
 3820              		.align	2
 3821              		.type	OD_record1800, %object
 3822              		.size	OD_record1800, 56
 3823              	OD_record1800:
 3824              	@ pData:
 3825 0660 6C030000 		.word	CO_OD_ROM+876
 3826              	@ attribute:
 3827 0664 0500     		.short	5
 3828              	@ length:
 3829 0666 0100     		.short	1
 3830              	@ pData:
 3831 0668 70030000 		.word	CO_OD_ROM+880
 3832              	@ attribute:
 3833 066c 8D00     		.short	141
 3834              	@ length:
 3835 066e 0400     		.short	4
 3836              	@ pData:
 3837 0670 74030000 		.word	CO_OD_ROM+884
 3838              	@ attribute:
 3839 0674 0D00     		.short	13
 3840              	@ length:
 3841 0676 0100     		.short	1
 3842              	@ pData:
 3843 0678 76030000 		.word	CO_OD_ROM+886
 3844              	@ attribute:
 3845 067c 8D00     		.short	141
 3846              	@ length:
 3847 067e 0200     		.short	2
 3848              	@ pData:
 3849 0680 78030000 		.word	CO_OD_ROM+888
 3850              	@ attribute:
 3851 0684 0D00     		.short	13
 3852              	@ length:
 3853 0686 0100     		.short	1
 3854              	@ pData:
 3855 0688 7A030000 		.word	CO_OD_ROM+890
 3856              	@ attribute:
 3857 068c 8D00     		.short	141
 3858              	@ length:
 3859 068e 0200     		.short	2
 3860              	@ pData:
 3861 0690 7C030000 		.word	CO_OD_ROM+892
 3862              	@ attribute:
 3863 0694 0D00     		.short	13
 3864              	@ length:
 3865 0696 0100     		.short	1
 3866              		.global	OD_record1801
 3867              		.align	2
 3868              		.type	OD_record1801, %object
 3869              		.size	OD_record1801, 56
 3870              	OD_record1801:
 3871              	@ pData:
 3872 0698 80030000 		.word	CO_OD_ROM+896
 3873              	@ attribute:
 3874 069c 0500     		.short	5
ARM GAS  C:\Users\Akil\AppData\Local\Temp\cck4RU2M.s 			page 69


 3875              	@ length:
 3876 069e 0100     		.short	1
 3877              	@ pData:
 3878 06a0 84030000 		.word	CO_OD_ROM+900
 3879              	@ attribute:
 3880 06a4 8D00     		.short	141
 3881              	@ length:
 3882 06a6 0400     		.short	4
 3883              	@ pData:
 3884 06a8 88030000 		.word	CO_OD_ROM+904
 3885              	@ attribute:
 3886 06ac 0D00     		.short	13
 3887              	@ length:
 3888 06ae 0100     		.short	1
 3889              	@ pData:
 3890 06b0 8A030000 		.word	CO_OD_ROM+906
 3891              	@ attribute:
 3892 06b4 8D00     		.short	141
 3893              	@ length:
 3894 06b6 0200     		.short	2
 3895              	@ pData:
 3896 06b8 8C030000 		.word	CO_OD_ROM+908
 3897              	@ attribute:
 3898 06bc 0D00     		.short	13
 3899              	@ length:
 3900 06be 0100     		.short	1
 3901              	@ pData:
 3902 06c0 8E030000 		.word	CO_OD_ROM+910
 3903              	@ attribute:
 3904 06c4 8D00     		.short	141
 3905              	@ length:
 3906 06c6 0200     		.short	2
 3907              	@ pData:
 3908 06c8 90030000 		.word	CO_OD_ROM+912
 3909              	@ attribute:
 3910 06cc 0D00     		.short	13
 3911              	@ length:
 3912 06ce 0100     		.short	1
 3913              		.global	OD_record1802
 3914              		.align	2
 3915              		.type	OD_record1802, %object
 3916              		.size	OD_record1802, 56
 3917              	OD_record1802:
 3918              	@ pData:
 3919 06d0 94030000 		.word	CO_OD_ROM+916
 3920              	@ attribute:
 3921 06d4 0500     		.short	5
 3922              	@ length:
 3923 06d6 0100     		.short	1
 3924              	@ pData:
 3925 06d8 98030000 		.word	CO_OD_ROM+920
 3926              	@ attribute:
 3927 06dc 8D00     		.short	141
 3928              	@ length:
 3929 06de 0400     		.short	4
 3930              	@ pData:
 3931 06e0 9C030000 		.word	CO_OD_ROM+924
ARM GAS  C:\Users\Akil\AppData\Local\Temp\cck4RU2M.s 			page 70


 3932              	@ attribute:
 3933 06e4 0D00     		.short	13
 3934              	@ length:
 3935 06e6 0100     		.short	1
 3936              	@ pData:
 3937 06e8 9E030000 		.word	CO_OD_ROM+926
 3938              	@ attribute:
 3939 06ec 8D00     		.short	141
 3940              	@ length:
 3941 06ee 0200     		.short	2
 3942              	@ pData:
 3943 06f0 A0030000 		.word	CO_OD_ROM+928
 3944              	@ attribute:
 3945 06f4 0D00     		.short	13
 3946              	@ length:
 3947 06f6 0100     		.short	1
 3948              	@ pData:
 3949 06f8 A2030000 		.word	CO_OD_ROM+930
 3950              	@ attribute:
 3951 06fc 8D00     		.short	141
 3952              	@ length:
 3953 06fe 0200     		.short	2
 3954              	@ pData:
 3955 0700 A4030000 		.word	CO_OD_ROM+932
 3956              	@ attribute:
 3957 0704 0D00     		.short	13
 3958              	@ length:
 3959 0706 0100     		.short	1
 3960              		.global	OD_record1803
 3961              		.align	2
 3962              		.type	OD_record1803, %object
 3963              		.size	OD_record1803, 56
 3964              	OD_record1803:
 3965              	@ pData:
 3966 0708 A8030000 		.word	CO_OD_ROM+936
 3967              	@ attribute:
 3968 070c 0500     		.short	5
 3969              	@ length:
 3970 070e 0100     		.short	1
 3971              	@ pData:
 3972 0710 AC030000 		.word	CO_OD_ROM+940
 3973              	@ attribute:
 3974 0714 8D00     		.short	141
 3975              	@ length:
 3976 0716 0400     		.short	4
 3977              	@ pData:
 3978 0718 B0030000 		.word	CO_OD_ROM+944
 3979              	@ attribute:
 3980 071c 0D00     		.short	13
 3981              	@ length:
 3982 071e 0100     		.short	1
 3983              	@ pData:
 3984 0720 B2030000 		.word	CO_OD_ROM+946
 3985              	@ attribute:
 3986 0724 8D00     		.short	141
 3987              	@ length:
 3988 0726 0200     		.short	2
ARM GAS  C:\Users\Akil\AppData\Local\Temp\cck4RU2M.s 			page 71


 3989              	@ pData:
 3990 0728 B4030000 		.word	CO_OD_ROM+948
 3991              	@ attribute:
 3992 072c 0D00     		.short	13
 3993              	@ length:
 3994 072e 0100     		.short	1
 3995              	@ pData:
 3996 0730 B6030000 		.word	CO_OD_ROM+950
 3997              	@ attribute:
 3998 0734 8D00     		.short	141
 3999              	@ length:
 4000 0736 0200     		.short	2
 4001              	@ pData:
 4002 0738 B8030000 		.word	CO_OD_ROM+952
 4003              	@ attribute:
 4004 073c 0D00     		.short	13
 4005              	@ length:
 4006 073e 0100     		.short	1
 4007              		.global	OD_record1804
 4008              		.align	2
 4009              		.type	OD_record1804, %object
 4010              		.size	OD_record1804, 56
 4011              	OD_record1804:
 4012              	@ pData:
 4013 0740 BC030000 		.word	CO_OD_ROM+956
 4014              	@ attribute:
 4015 0744 0500     		.short	5
 4016              	@ length:
 4017 0746 0100     		.short	1
 4018              	@ pData:
 4019 0748 C0030000 		.word	CO_OD_ROM+960
 4020              	@ attribute:
 4021 074c 8D00     		.short	141
 4022              	@ length:
 4023 074e 0400     		.short	4
 4024              	@ pData:
 4025 0750 C4030000 		.word	CO_OD_ROM+964
 4026              	@ attribute:
 4027 0754 0D00     		.short	13
 4028              	@ length:
 4029 0756 0100     		.short	1
 4030              	@ pData:
 4031 0758 C6030000 		.word	CO_OD_ROM+966
 4032              	@ attribute:
 4033 075c 8D00     		.short	141
 4034              	@ length:
 4035 075e 0200     		.short	2
 4036              	@ pData:
 4037 0760 C8030000 		.word	CO_OD_ROM+968
 4038              	@ attribute:
 4039 0764 0D00     		.short	13
 4040              	@ length:
 4041 0766 0100     		.short	1
 4042              	@ pData:
 4043 0768 CA030000 		.word	CO_OD_ROM+970
 4044              	@ attribute:
 4045 076c 8D00     		.short	141
ARM GAS  C:\Users\Akil\AppData\Local\Temp\cck4RU2M.s 			page 72


 4046              	@ length:
 4047 076e 0200     		.short	2
 4048              	@ pData:
 4049 0770 CC030000 		.word	CO_OD_ROM+972
 4050              	@ attribute:
 4051 0774 0D00     		.short	13
 4052              	@ length:
 4053 0776 0100     		.short	1
 4054              		.global	OD_record1805
 4055              		.align	2
 4056              		.type	OD_record1805, %object
 4057              		.size	OD_record1805, 56
 4058              	OD_record1805:
 4059              	@ pData:
 4060 0778 D0030000 		.word	CO_OD_ROM+976
 4061              	@ attribute:
 4062 077c 0500     		.short	5
 4063              	@ length:
 4064 077e 0100     		.short	1
 4065              	@ pData:
 4066 0780 D4030000 		.word	CO_OD_ROM+980
 4067              	@ attribute:
 4068 0784 8D00     		.short	141
 4069              	@ length:
 4070 0786 0400     		.short	4
 4071              	@ pData:
 4072 0788 D8030000 		.word	CO_OD_ROM+984
 4073              	@ attribute:
 4074 078c 0D00     		.short	13
 4075              	@ length:
 4076 078e 0100     		.short	1
 4077              	@ pData:
 4078 0790 DA030000 		.word	CO_OD_ROM+986
 4079              	@ attribute:
 4080 0794 8D00     		.short	141
 4081              	@ length:
 4082 0796 0200     		.short	2
 4083              	@ pData:
 4084 0798 DC030000 		.word	CO_OD_ROM+988
 4085              	@ attribute:
 4086 079c 0D00     		.short	13
 4087              	@ length:
 4088 079e 0100     		.short	1
 4089              	@ pData:
 4090 07a0 DE030000 		.word	CO_OD_ROM+990
 4091              	@ attribute:
 4092 07a4 8D00     		.short	141
 4093              	@ length:
 4094 07a6 0200     		.short	2
 4095              	@ pData:
 4096 07a8 E0030000 		.word	CO_OD_ROM+992
 4097              	@ attribute:
 4098 07ac 0D00     		.short	13
 4099              	@ length:
 4100 07ae 0100     		.short	1
 4101              		.global	OD_record1806
 4102              		.align	2
ARM GAS  C:\Users\Akil\AppData\Local\Temp\cck4RU2M.s 			page 73


 4103              		.type	OD_record1806, %object
 4104              		.size	OD_record1806, 56
 4105              	OD_record1806:
 4106              	@ pData:
 4107 07b0 E4030000 		.word	CO_OD_ROM+996
 4108              	@ attribute:
 4109 07b4 0500     		.short	5
 4110              	@ length:
 4111 07b6 0100     		.short	1
 4112              	@ pData:
 4113 07b8 E8030000 		.word	CO_OD_ROM+1000
 4114              	@ attribute:
 4115 07bc 8D00     		.short	141
 4116              	@ length:
 4117 07be 0400     		.short	4
 4118              	@ pData:
 4119 07c0 EC030000 		.word	CO_OD_ROM+1004
 4120              	@ attribute:
 4121 07c4 0D00     		.short	13
 4122              	@ length:
 4123 07c6 0100     		.short	1
 4124              	@ pData:
 4125 07c8 EE030000 		.word	CO_OD_ROM+1006
 4126              	@ attribute:
 4127 07cc 8D00     		.short	141
 4128              	@ length:
 4129 07ce 0200     		.short	2
 4130              	@ pData:
 4131 07d0 F0030000 		.word	CO_OD_ROM+1008
 4132              	@ attribute:
 4133 07d4 0D00     		.short	13
 4134              	@ length:
 4135 07d6 0100     		.short	1
 4136              	@ pData:
 4137 07d8 F2030000 		.word	CO_OD_ROM+1010
 4138              	@ attribute:
 4139 07dc 8D00     		.short	141
 4140              	@ length:
 4141 07de 0200     		.short	2
 4142              	@ pData:
 4143 07e0 F4030000 		.word	CO_OD_ROM+1012
 4144              	@ attribute:
 4145 07e4 0D00     		.short	13
 4146              	@ length:
 4147 07e6 0100     		.short	1
 4148              		.global	OD_record1807
 4149              		.align	2
 4150              		.type	OD_record1807, %object
 4151              		.size	OD_record1807, 56
 4152              	OD_record1807:
 4153              	@ pData:
 4154 07e8 F8030000 		.word	CO_OD_ROM+1016
 4155              	@ attribute:
 4156 07ec 0500     		.short	5
 4157              	@ length:
 4158 07ee 0100     		.short	1
 4159              	@ pData:
ARM GAS  C:\Users\Akil\AppData\Local\Temp\cck4RU2M.s 			page 74


 4160 07f0 FC030000 		.word	CO_OD_ROM+1020
 4161              	@ attribute:
 4162 07f4 8D00     		.short	141
 4163              	@ length:
 4164 07f6 0400     		.short	4
 4165              	@ pData:
 4166 07f8 00040000 		.word	CO_OD_ROM+1024
 4167              	@ attribute:
 4168 07fc 0D00     		.short	13
 4169              	@ length:
 4170 07fe 0100     		.short	1
 4171              	@ pData:
 4172 0800 02040000 		.word	CO_OD_ROM+1026
 4173              	@ attribute:
 4174 0804 8D00     		.short	141
 4175              	@ length:
 4176 0806 0200     		.short	2
 4177              	@ pData:
 4178 0808 04040000 		.word	CO_OD_ROM+1028
 4179              	@ attribute:
 4180 080c 0D00     		.short	13
 4181              	@ length:
 4182 080e 0100     		.short	1
 4183              	@ pData:
 4184 0810 06040000 		.word	CO_OD_ROM+1030
 4185              	@ attribute:
 4186 0814 8D00     		.short	141
 4187              	@ length:
 4188 0816 0200     		.short	2
 4189              	@ pData:
 4190 0818 08040000 		.word	CO_OD_ROM+1032
 4191              	@ attribute:
 4192 081c 0D00     		.short	13
 4193              	@ length:
 4194 081e 0100     		.short	1
 4195              		.global	OD_record1808
 4196              		.align	2
 4197              		.type	OD_record1808, %object
 4198              		.size	OD_record1808, 56
 4199              	OD_record1808:
 4200              	@ pData:
 4201 0820 0C040000 		.word	CO_OD_ROM+1036
 4202              	@ attribute:
 4203 0824 0500     		.short	5
 4204              	@ length:
 4205 0826 0100     		.short	1
 4206              	@ pData:
 4207 0828 10040000 		.word	CO_OD_ROM+1040
 4208              	@ attribute:
 4209 082c 8D00     		.short	141
 4210              	@ length:
 4211 082e 0400     		.short	4
 4212              	@ pData:
 4213 0830 14040000 		.word	CO_OD_ROM+1044
 4214              	@ attribute:
 4215 0834 0D00     		.short	13
 4216              	@ length:
ARM GAS  C:\Users\Akil\AppData\Local\Temp\cck4RU2M.s 			page 75


 4217 0836 0100     		.short	1
 4218              	@ pData:
 4219 0838 16040000 		.word	CO_OD_ROM+1046
 4220              	@ attribute:
 4221 083c 8D00     		.short	141
 4222              	@ length:
 4223 083e 0200     		.short	2
 4224              	@ pData:
 4225 0840 18040000 		.word	CO_OD_ROM+1048
 4226              	@ attribute:
 4227 0844 0D00     		.short	13
 4228              	@ length:
 4229 0846 0100     		.short	1
 4230              	@ pData:
 4231 0848 1A040000 		.word	CO_OD_ROM+1050
 4232              	@ attribute:
 4233 084c 8D00     		.short	141
 4234              	@ length:
 4235 084e 0200     		.short	2
 4236              	@ pData:
 4237 0850 1C040000 		.word	CO_OD_ROM+1052
 4238              	@ attribute:
 4239 0854 0D00     		.short	13
 4240              	@ length:
 4241 0856 0100     		.short	1
 4242              		.global	OD_record1809
 4243              		.align	2
 4244              		.type	OD_record1809, %object
 4245              		.size	OD_record1809, 56
 4246              	OD_record1809:
 4247              	@ pData:
 4248 0858 20040000 		.word	CO_OD_ROM+1056
 4249              	@ attribute:
 4250 085c 0500     		.short	5
 4251              	@ length:
 4252 085e 0100     		.short	1
 4253              	@ pData:
 4254 0860 24040000 		.word	CO_OD_ROM+1060
 4255              	@ attribute:
 4256 0864 8D00     		.short	141
 4257              	@ length:
 4258 0866 0400     		.short	4
 4259              	@ pData:
 4260 0868 28040000 		.word	CO_OD_ROM+1064
 4261              	@ attribute:
 4262 086c 0D00     		.short	13
 4263              	@ length:
 4264 086e 0100     		.short	1
 4265              	@ pData:
 4266 0870 2A040000 		.word	CO_OD_ROM+1066
 4267              	@ attribute:
 4268 0874 8D00     		.short	141
 4269              	@ length:
 4270 0876 0200     		.short	2
 4271              	@ pData:
 4272 0878 2C040000 		.word	CO_OD_ROM+1068
 4273              	@ attribute:
ARM GAS  C:\Users\Akil\AppData\Local\Temp\cck4RU2M.s 			page 76


 4274 087c 0D00     		.short	13
 4275              	@ length:
 4276 087e 0100     		.short	1
 4277              	@ pData:
 4278 0880 2E040000 		.word	CO_OD_ROM+1070
 4279              	@ attribute:
 4280 0884 8D00     		.short	141
 4281              	@ length:
 4282 0886 0200     		.short	2
 4283              	@ pData:
 4284 0888 30040000 		.word	CO_OD_ROM+1072
 4285              	@ attribute:
 4286 088c 0D00     		.short	13
 4287              	@ length:
 4288 088e 0100     		.short	1
 4289              		.global	OD_record180A
 4290              		.align	2
 4291              		.type	OD_record180A, %object
 4292              		.size	OD_record180A, 56
 4293              	OD_record180A:
 4294              	@ pData:
 4295 0890 34040000 		.word	CO_OD_ROM+1076
 4296              	@ attribute:
 4297 0894 0500     		.short	5
 4298              	@ length:
 4299 0896 0100     		.short	1
 4300              	@ pData:
 4301 0898 38040000 		.word	CO_OD_ROM+1080
 4302              	@ attribute:
 4303 089c 8D00     		.short	141
 4304              	@ length:
 4305 089e 0400     		.short	4
 4306              	@ pData:
 4307 08a0 3C040000 		.word	CO_OD_ROM+1084
 4308              	@ attribute:
 4309 08a4 0D00     		.short	13
 4310              	@ length:
 4311 08a6 0100     		.short	1
 4312              	@ pData:
 4313 08a8 3E040000 		.word	CO_OD_ROM+1086
 4314              	@ attribute:
 4315 08ac 8D00     		.short	141
 4316              	@ length:
 4317 08ae 0200     		.short	2
 4318              	@ pData:
 4319 08b0 40040000 		.word	CO_OD_ROM+1088
 4320              	@ attribute:
 4321 08b4 0D00     		.short	13
 4322              	@ length:
 4323 08b6 0100     		.short	1
 4324              	@ pData:
 4325 08b8 42040000 		.word	CO_OD_ROM+1090
 4326              	@ attribute:
 4327 08bc 8D00     		.short	141
 4328              	@ length:
 4329 08be 0200     		.short	2
 4330              	@ pData:
ARM GAS  C:\Users\Akil\AppData\Local\Temp\cck4RU2M.s 			page 77


 4331 08c0 44040000 		.word	CO_OD_ROM+1092
 4332              	@ attribute:
 4333 08c4 0D00     		.short	13
 4334              	@ length:
 4335 08c6 0100     		.short	1
 4336              		.global	OD_record180B
 4337              		.align	2
 4338              		.type	OD_record180B, %object
 4339              		.size	OD_record180B, 56
 4340              	OD_record180B:
 4341              	@ pData:
 4342 08c8 48040000 		.word	CO_OD_ROM+1096
 4343              	@ attribute:
 4344 08cc 0500     		.short	5
 4345              	@ length:
 4346 08ce 0100     		.short	1
 4347              	@ pData:
 4348 08d0 4C040000 		.word	CO_OD_ROM+1100
 4349              	@ attribute:
 4350 08d4 8D00     		.short	141
 4351              	@ length:
 4352 08d6 0400     		.short	4
 4353              	@ pData:
 4354 08d8 50040000 		.word	CO_OD_ROM+1104
 4355              	@ attribute:
 4356 08dc 0D00     		.short	13
 4357              	@ length:
 4358 08de 0100     		.short	1
 4359              	@ pData:
 4360 08e0 52040000 		.word	CO_OD_ROM+1106
 4361              	@ attribute:
 4362 08e4 8D00     		.short	141
 4363              	@ length:
 4364 08e6 0200     		.short	2
 4365              	@ pData:
 4366 08e8 54040000 		.word	CO_OD_ROM+1108
 4367              	@ attribute:
 4368 08ec 0D00     		.short	13
 4369              	@ length:
 4370 08ee 0100     		.short	1
 4371              	@ pData:
 4372 08f0 56040000 		.word	CO_OD_ROM+1110
 4373              	@ attribute:
 4374 08f4 8D00     		.short	141
 4375              	@ length:
 4376 08f6 0200     		.short	2
 4377              	@ pData:
 4378 08f8 58040000 		.word	CO_OD_ROM+1112
 4379              	@ attribute:
 4380 08fc 0D00     		.short	13
 4381              	@ length:
 4382 08fe 0100     		.short	1
 4383              		.global	OD_record180C
 4384              		.align	2
 4385              		.type	OD_record180C, %object
 4386              		.size	OD_record180C, 56
 4387              	OD_record180C:
ARM GAS  C:\Users\Akil\AppData\Local\Temp\cck4RU2M.s 			page 78


 4388              	@ pData:
 4389 0900 5C040000 		.word	CO_OD_ROM+1116
 4390              	@ attribute:
 4391 0904 0500     		.short	5
 4392              	@ length:
 4393 0906 0100     		.short	1
 4394              	@ pData:
 4395 0908 60040000 		.word	CO_OD_ROM+1120
 4396              	@ attribute:
 4397 090c 8D00     		.short	141
 4398              	@ length:
 4399 090e 0400     		.short	4
 4400              	@ pData:
 4401 0910 64040000 		.word	CO_OD_ROM+1124
 4402              	@ attribute:
 4403 0914 0D00     		.short	13
 4404              	@ length:
 4405 0916 0100     		.short	1
 4406              	@ pData:
 4407 0918 66040000 		.word	CO_OD_ROM+1126
 4408              	@ attribute:
 4409 091c 8D00     		.short	141
 4410              	@ length:
 4411 091e 0200     		.short	2
 4412              	@ pData:
 4413 0920 68040000 		.word	CO_OD_ROM+1128
 4414              	@ attribute:
 4415 0924 0D00     		.short	13
 4416              	@ length:
 4417 0926 0100     		.short	1
 4418              	@ pData:
 4419 0928 6A040000 		.word	CO_OD_ROM+1130
 4420              	@ attribute:
 4421 092c 8D00     		.short	141
 4422              	@ length:
 4423 092e 0200     		.short	2
 4424              	@ pData:
 4425 0930 6C040000 		.word	CO_OD_ROM+1132
 4426              	@ attribute:
 4427 0934 0D00     		.short	13
 4428              	@ length:
 4429 0936 0100     		.short	1
 4430              		.global	OD_record180D
 4431              		.align	2
 4432              		.type	OD_record180D, %object
 4433              		.size	OD_record180D, 56
 4434              	OD_record180D:
 4435              	@ pData:
 4436 0938 70040000 		.word	CO_OD_ROM+1136
 4437              	@ attribute:
 4438 093c 0500     		.short	5
 4439              	@ length:
 4440 093e 0100     		.short	1
 4441              	@ pData:
 4442 0940 74040000 		.word	CO_OD_ROM+1140
 4443              	@ attribute:
 4444 0944 8D00     		.short	141
ARM GAS  C:\Users\Akil\AppData\Local\Temp\cck4RU2M.s 			page 79


 4445              	@ length:
 4446 0946 0400     		.short	4
 4447              	@ pData:
 4448 0948 78040000 		.word	CO_OD_ROM+1144
 4449              	@ attribute:
 4450 094c 0D00     		.short	13
 4451              	@ length:
 4452 094e 0100     		.short	1
 4453              	@ pData:
 4454 0950 7A040000 		.word	CO_OD_ROM+1146
 4455              	@ attribute:
 4456 0954 8D00     		.short	141
 4457              	@ length:
 4458 0956 0200     		.short	2
 4459              	@ pData:
 4460 0958 7C040000 		.word	CO_OD_ROM+1148
 4461              	@ attribute:
 4462 095c 0D00     		.short	13
 4463              	@ length:
 4464 095e 0100     		.short	1
 4465              	@ pData:
 4466 0960 7E040000 		.word	CO_OD_ROM+1150
 4467              	@ attribute:
 4468 0964 8D00     		.short	141
 4469              	@ length:
 4470 0966 0200     		.short	2
 4471              	@ pData:
 4472 0968 80040000 		.word	CO_OD_ROM+1152
 4473              	@ attribute:
 4474 096c 0D00     		.short	13
 4475              	@ length:
 4476 096e 0100     		.short	1
 4477              		.global	OD_record180E
 4478              		.align	2
 4479              		.type	OD_record180E, %object
 4480              		.size	OD_record180E, 56
 4481              	OD_record180E:
 4482              	@ pData:
 4483 0970 84040000 		.word	CO_OD_ROM+1156
 4484              	@ attribute:
 4485 0974 0500     		.short	5
 4486              	@ length:
 4487 0976 0100     		.short	1
 4488              	@ pData:
 4489 0978 88040000 		.word	CO_OD_ROM+1160
 4490              	@ attribute:
 4491 097c 8D00     		.short	141
 4492              	@ length:
 4493 097e 0400     		.short	4
 4494              	@ pData:
 4495 0980 8C040000 		.word	CO_OD_ROM+1164
 4496              	@ attribute:
 4497 0984 0D00     		.short	13
 4498              	@ length:
 4499 0986 0100     		.short	1
 4500              	@ pData:
 4501 0988 8E040000 		.word	CO_OD_ROM+1166
ARM GAS  C:\Users\Akil\AppData\Local\Temp\cck4RU2M.s 			page 80


 4502              	@ attribute:
 4503 098c 8D00     		.short	141
 4504              	@ length:
 4505 098e 0200     		.short	2
 4506              	@ pData:
 4507 0990 90040000 		.word	CO_OD_ROM+1168
 4508              	@ attribute:
 4509 0994 0D00     		.short	13
 4510              	@ length:
 4511 0996 0100     		.short	1
 4512              	@ pData:
 4513 0998 92040000 		.word	CO_OD_ROM+1170
 4514              	@ attribute:
 4515 099c 8D00     		.short	141
 4516              	@ length:
 4517 099e 0200     		.short	2
 4518              	@ pData:
 4519 09a0 94040000 		.word	CO_OD_ROM+1172
 4520              	@ attribute:
 4521 09a4 0D00     		.short	13
 4522              	@ length:
 4523 09a6 0100     		.short	1
 4524              		.global	OD_record180F
 4525              		.align	2
 4526              		.type	OD_record180F, %object
 4527              		.size	OD_record180F, 56
 4528              	OD_record180F:
 4529              	@ pData:
 4530 09a8 98040000 		.word	CO_OD_ROM+1176
 4531              	@ attribute:
 4532 09ac 0500     		.short	5
 4533              	@ length:
 4534 09ae 0100     		.short	1
 4535              	@ pData:
 4536 09b0 9C040000 		.word	CO_OD_ROM+1180
 4537              	@ attribute:
 4538 09b4 8D00     		.short	141
 4539              	@ length:
 4540 09b6 0400     		.short	4
 4541              	@ pData:
 4542 09b8 A0040000 		.word	CO_OD_ROM+1184
 4543              	@ attribute:
 4544 09bc 0D00     		.short	13
 4545              	@ length:
 4546 09be 0100     		.short	1
 4547              	@ pData:
 4548 09c0 A2040000 		.word	CO_OD_ROM+1186
 4549              	@ attribute:
 4550 09c4 8D00     		.short	141
 4551              	@ length:
 4552 09c6 0200     		.short	2
 4553              	@ pData:
 4554 09c8 A4040000 		.word	CO_OD_ROM+1188
 4555              	@ attribute:
 4556 09cc 0D00     		.short	13
 4557              	@ length:
 4558 09ce 0100     		.short	1
ARM GAS  C:\Users\Akil\AppData\Local\Temp\cck4RU2M.s 			page 81


 4559              	@ pData:
 4560 09d0 A6040000 		.word	CO_OD_ROM+1190
 4561              	@ attribute:
 4562 09d4 8D00     		.short	141
 4563              	@ length:
 4564 09d6 0200     		.short	2
 4565              	@ pData:
 4566 09d8 A8040000 		.word	CO_OD_ROM+1192
 4567              	@ attribute:
 4568 09dc 0D00     		.short	13
 4569              	@ length:
 4570 09de 0100     		.short	1
 4571              		.global	OD_record1A00
 4572              		.align	2
 4573              		.type	OD_record1A00, %object
 4574              		.size	OD_record1A00, 72
 4575              	OD_record1A00:
 4576              	@ pData:
 4577 09e0 AC040000 		.word	CO_OD_ROM+1196
 4578              	@ attribute:
 4579 09e4 0D00     		.short	13
 4580              	@ length:
 4581 09e6 0100     		.short	1
 4582              	@ pData:
 4583 09e8 B0040000 		.word	CO_OD_ROM+1200
 4584              	@ attribute:
 4585 09ec 8D00     		.short	141
 4586              	@ length:
 4587 09ee 0400     		.short	4
 4588              	@ pData:
 4589 09f0 B4040000 		.word	CO_OD_ROM+1204
 4590              	@ attribute:
 4591 09f4 8D00     		.short	141
 4592              	@ length:
 4593 09f6 0400     		.short	4
 4594              	@ pData:
 4595 09f8 B8040000 		.word	CO_OD_ROM+1208
 4596              	@ attribute:
 4597 09fc 8D00     		.short	141
 4598              	@ length:
 4599 09fe 0400     		.short	4
 4600              	@ pData:
 4601 0a00 BC040000 		.word	CO_OD_ROM+1212
 4602              	@ attribute:
 4603 0a04 8D00     		.short	141
 4604              	@ length:
 4605 0a06 0400     		.short	4
 4606              	@ pData:
 4607 0a08 C0040000 		.word	CO_OD_ROM+1216
 4608              	@ attribute:
 4609 0a0c 8D00     		.short	141
 4610              	@ length:
 4611 0a0e 0400     		.short	4
 4612              	@ pData:
 4613 0a10 C4040000 		.word	CO_OD_ROM+1220
 4614              	@ attribute:
 4615 0a14 8D00     		.short	141
ARM GAS  C:\Users\Akil\AppData\Local\Temp\cck4RU2M.s 			page 82


 4616              	@ length:
 4617 0a16 0400     		.short	4
 4618              	@ pData:
 4619 0a18 C8040000 		.word	CO_OD_ROM+1224
 4620              	@ attribute:
 4621 0a1c 8D00     		.short	141
 4622              	@ length:
 4623 0a1e 0400     		.short	4
 4624              	@ pData:
 4625 0a20 CC040000 		.word	CO_OD_ROM+1228
 4626              	@ attribute:
 4627 0a24 8D00     		.short	141
 4628              	@ length:
 4629 0a26 0400     		.short	4
 4630              		.global	OD_record1A01
 4631              		.align	2
 4632              		.type	OD_record1A01, %object
 4633              		.size	OD_record1A01, 72
 4634              	OD_record1A01:
 4635              	@ pData:
 4636 0a28 D0040000 		.word	CO_OD_ROM+1232
 4637              	@ attribute:
 4638 0a2c 0D00     		.short	13
 4639              	@ length:
 4640 0a2e 0100     		.short	1
 4641              	@ pData:
 4642 0a30 D4040000 		.word	CO_OD_ROM+1236
 4643              	@ attribute:
 4644 0a34 8D00     		.short	141
 4645              	@ length:
 4646 0a36 0400     		.short	4
 4647              	@ pData:
 4648 0a38 D8040000 		.word	CO_OD_ROM+1240
 4649              	@ attribute:
 4650 0a3c 8D00     		.short	141
 4651              	@ length:
 4652 0a3e 0400     		.short	4
 4653              	@ pData:
 4654 0a40 DC040000 		.word	CO_OD_ROM+1244
 4655              	@ attribute:
 4656 0a44 8D00     		.short	141
 4657              	@ length:
 4658 0a46 0400     		.short	4
 4659              	@ pData:
 4660 0a48 E0040000 		.word	CO_OD_ROM+1248
 4661              	@ attribute:
 4662 0a4c 8D00     		.short	141
 4663              	@ length:
 4664 0a4e 0400     		.short	4
 4665              	@ pData:
 4666 0a50 E4040000 		.word	CO_OD_ROM+1252
 4667              	@ attribute:
 4668 0a54 8D00     		.short	141
 4669              	@ length:
 4670 0a56 0400     		.short	4
 4671              	@ pData:
 4672 0a58 E8040000 		.word	CO_OD_ROM+1256
ARM GAS  C:\Users\Akil\AppData\Local\Temp\cck4RU2M.s 			page 83


 4673              	@ attribute:
 4674 0a5c 8D00     		.short	141
 4675              	@ length:
 4676 0a5e 0400     		.short	4
 4677              	@ pData:
 4678 0a60 EC040000 		.word	CO_OD_ROM+1260
 4679              	@ attribute:
 4680 0a64 8D00     		.short	141
 4681              	@ length:
 4682 0a66 0400     		.short	4
 4683              	@ pData:
 4684 0a68 F0040000 		.word	CO_OD_ROM+1264
 4685              	@ attribute:
 4686 0a6c 8D00     		.short	141
 4687              	@ length:
 4688 0a6e 0400     		.short	4
 4689              		.global	OD_record1A02
 4690              		.align	2
 4691              		.type	OD_record1A02, %object
 4692              		.size	OD_record1A02, 72
 4693              	OD_record1A02:
 4694              	@ pData:
 4695 0a70 F4040000 		.word	CO_OD_ROM+1268
 4696              	@ attribute:
 4697 0a74 0D00     		.short	13
 4698              	@ length:
 4699 0a76 0100     		.short	1
 4700              	@ pData:
 4701 0a78 F8040000 		.word	CO_OD_ROM+1272
 4702              	@ attribute:
 4703 0a7c 8D00     		.short	141
 4704              	@ length:
 4705 0a7e 0400     		.short	4
 4706              	@ pData:
 4707 0a80 FC040000 		.word	CO_OD_ROM+1276
 4708              	@ attribute:
 4709 0a84 8D00     		.short	141
 4710              	@ length:
 4711 0a86 0400     		.short	4
 4712              	@ pData:
 4713 0a88 00050000 		.word	CO_OD_ROM+1280
 4714              	@ attribute:
 4715 0a8c 8D00     		.short	141
 4716              	@ length:
 4717 0a8e 0400     		.short	4
 4718              	@ pData:
 4719 0a90 04050000 		.word	CO_OD_ROM+1284
 4720              	@ attribute:
 4721 0a94 8D00     		.short	141
 4722              	@ length:
 4723 0a96 0400     		.short	4
 4724              	@ pData:
 4725 0a98 08050000 		.word	CO_OD_ROM+1288
 4726              	@ attribute:
 4727 0a9c 8D00     		.short	141
 4728              	@ length:
 4729 0a9e 0400     		.short	4
ARM GAS  C:\Users\Akil\AppData\Local\Temp\cck4RU2M.s 			page 84


 4730              	@ pData:
 4731 0aa0 0C050000 		.word	CO_OD_ROM+1292
 4732              	@ attribute:
 4733 0aa4 8D00     		.short	141
 4734              	@ length:
 4735 0aa6 0400     		.short	4
 4736              	@ pData:
 4737 0aa8 10050000 		.word	CO_OD_ROM+1296
 4738              	@ attribute:
 4739 0aac 8D00     		.short	141
 4740              	@ length:
 4741 0aae 0400     		.short	4
 4742              	@ pData:
 4743 0ab0 14050000 		.word	CO_OD_ROM+1300
 4744              	@ attribute:
 4745 0ab4 8D00     		.short	141
 4746              	@ length:
 4747 0ab6 0400     		.short	4
 4748              		.global	OD_record1A03
 4749              		.align	2
 4750              		.type	OD_record1A03, %object
 4751              		.size	OD_record1A03, 72
 4752              	OD_record1A03:
 4753              	@ pData:
 4754 0ab8 18050000 		.word	CO_OD_ROM+1304
 4755              	@ attribute:
 4756 0abc 0D00     		.short	13
 4757              	@ length:
 4758 0abe 0100     		.short	1
 4759              	@ pData:
 4760 0ac0 1C050000 		.word	CO_OD_ROM+1308
 4761              	@ attribute:
 4762 0ac4 8D00     		.short	141
 4763              	@ length:
 4764 0ac6 0400     		.short	4
 4765              	@ pData:
 4766 0ac8 20050000 		.word	CO_OD_ROM+1312
 4767              	@ attribute:
 4768 0acc 8D00     		.short	141
 4769              	@ length:
 4770 0ace 0400     		.short	4
 4771              	@ pData:
 4772 0ad0 24050000 		.word	CO_OD_ROM+1316
 4773              	@ attribute:
 4774 0ad4 8D00     		.short	141
 4775              	@ length:
 4776 0ad6 0400     		.short	4
 4777              	@ pData:
 4778 0ad8 28050000 		.word	CO_OD_ROM+1320
 4779              	@ attribute:
 4780 0adc 8D00     		.short	141
 4781              	@ length:
 4782 0ade 0400     		.short	4
 4783              	@ pData:
 4784 0ae0 2C050000 		.word	CO_OD_ROM+1324
 4785              	@ attribute:
 4786 0ae4 8D00     		.short	141
ARM GAS  C:\Users\Akil\AppData\Local\Temp\cck4RU2M.s 			page 85


 4787              	@ length:
 4788 0ae6 0400     		.short	4
 4789              	@ pData:
 4790 0ae8 30050000 		.word	CO_OD_ROM+1328
 4791              	@ attribute:
 4792 0aec 8D00     		.short	141
 4793              	@ length:
 4794 0aee 0400     		.short	4
 4795              	@ pData:
 4796 0af0 34050000 		.word	CO_OD_ROM+1332
 4797              	@ attribute:
 4798 0af4 8D00     		.short	141
 4799              	@ length:
 4800 0af6 0400     		.short	4
 4801              	@ pData:
 4802 0af8 38050000 		.word	CO_OD_ROM+1336
 4803              	@ attribute:
 4804 0afc 8D00     		.short	141
 4805              	@ length:
 4806 0afe 0400     		.short	4
 4807              		.global	OD_record1A04
 4808              		.align	2
 4809              		.type	OD_record1A04, %object
 4810              		.size	OD_record1A04, 72
 4811              	OD_record1A04:
 4812              	@ pData:
 4813 0b00 3C050000 		.word	CO_OD_ROM+1340
 4814              	@ attribute:
 4815 0b04 0D00     		.short	13
 4816              	@ length:
 4817 0b06 0100     		.short	1
 4818              	@ pData:
 4819 0b08 40050000 		.word	CO_OD_ROM+1344
 4820              	@ attribute:
 4821 0b0c 8D00     		.short	141
 4822              	@ length:
 4823 0b0e 0400     		.short	4
 4824              	@ pData:
 4825 0b10 44050000 		.word	CO_OD_ROM+1348
 4826              	@ attribute:
 4827 0b14 8D00     		.short	141
 4828              	@ length:
 4829 0b16 0400     		.short	4
 4830              	@ pData:
 4831 0b18 48050000 		.word	CO_OD_ROM+1352
 4832              	@ attribute:
 4833 0b1c 8D00     		.short	141
 4834              	@ length:
 4835 0b1e 0400     		.short	4
 4836              	@ pData:
 4837 0b20 4C050000 		.word	CO_OD_ROM+1356
 4838              	@ attribute:
 4839 0b24 8D00     		.short	141
 4840              	@ length:
 4841 0b26 0400     		.short	4
 4842              	@ pData:
 4843 0b28 50050000 		.word	CO_OD_ROM+1360
ARM GAS  C:\Users\Akil\AppData\Local\Temp\cck4RU2M.s 			page 86


 4844              	@ attribute:
 4845 0b2c 8D00     		.short	141
 4846              	@ length:
 4847 0b2e 0400     		.short	4
 4848              	@ pData:
 4849 0b30 54050000 		.word	CO_OD_ROM+1364
 4850              	@ attribute:
 4851 0b34 8D00     		.short	141
 4852              	@ length:
 4853 0b36 0400     		.short	4
 4854              	@ pData:
 4855 0b38 58050000 		.word	CO_OD_ROM+1368
 4856              	@ attribute:
 4857 0b3c 8D00     		.short	141
 4858              	@ length:
 4859 0b3e 0400     		.short	4
 4860              	@ pData:
 4861 0b40 5C050000 		.word	CO_OD_ROM+1372
 4862              	@ attribute:
 4863 0b44 8D00     		.short	141
 4864              	@ length:
 4865 0b46 0400     		.short	4
 4866              		.global	OD_record1A05
 4867              		.align	2
 4868              		.type	OD_record1A05, %object
 4869              		.size	OD_record1A05, 72
 4870              	OD_record1A05:
 4871              	@ pData:
 4872 0b48 60050000 		.word	CO_OD_ROM+1376
 4873              	@ attribute:
 4874 0b4c 0D00     		.short	13
 4875              	@ length:
 4876 0b4e 0100     		.short	1
 4877              	@ pData:
 4878 0b50 64050000 		.word	CO_OD_ROM+1380
 4879              	@ attribute:
 4880 0b54 8D00     		.short	141
 4881              	@ length:
 4882 0b56 0400     		.short	4
 4883              	@ pData:
 4884 0b58 68050000 		.word	CO_OD_ROM+1384
 4885              	@ attribute:
 4886 0b5c 8D00     		.short	141
 4887              	@ length:
 4888 0b5e 0400     		.short	4
 4889              	@ pData:
 4890 0b60 6C050000 		.word	CO_OD_ROM+1388
 4891              	@ attribute:
 4892 0b64 8D00     		.short	141
 4893              	@ length:
 4894 0b66 0400     		.short	4
 4895              	@ pData:
 4896 0b68 70050000 		.word	CO_OD_ROM+1392
 4897              	@ attribute:
 4898 0b6c 8D00     		.short	141
 4899              	@ length:
 4900 0b6e 0400     		.short	4
ARM GAS  C:\Users\Akil\AppData\Local\Temp\cck4RU2M.s 			page 87


 4901              	@ pData:
 4902 0b70 74050000 		.word	CO_OD_ROM+1396
 4903              	@ attribute:
 4904 0b74 8D00     		.short	141
 4905              	@ length:
 4906 0b76 0400     		.short	4
 4907              	@ pData:
 4908 0b78 78050000 		.word	CO_OD_ROM+1400
 4909              	@ attribute:
 4910 0b7c 8D00     		.short	141
 4911              	@ length:
 4912 0b7e 0400     		.short	4
 4913              	@ pData:
 4914 0b80 7C050000 		.word	CO_OD_ROM+1404
 4915              	@ attribute:
 4916 0b84 8D00     		.short	141
 4917              	@ length:
 4918 0b86 0400     		.short	4
 4919              	@ pData:
 4920 0b88 80050000 		.word	CO_OD_ROM+1408
 4921              	@ attribute:
 4922 0b8c 8D00     		.short	141
 4923              	@ length:
 4924 0b8e 0400     		.short	4
 4925              		.global	OD_record1A06
 4926              		.align	2
 4927              		.type	OD_record1A06, %object
 4928              		.size	OD_record1A06, 72
 4929              	OD_record1A06:
 4930              	@ pData:
 4931 0b90 84050000 		.word	CO_OD_ROM+1412
 4932              	@ attribute:
 4933 0b94 0D00     		.short	13
 4934              	@ length:
 4935 0b96 0100     		.short	1
 4936              	@ pData:
 4937 0b98 88050000 		.word	CO_OD_ROM+1416
 4938              	@ attribute:
 4939 0b9c 8D00     		.short	141
 4940              	@ length:
 4941 0b9e 0400     		.short	4
 4942              	@ pData:
 4943 0ba0 8C050000 		.word	CO_OD_ROM+1420
 4944              	@ attribute:
 4945 0ba4 8D00     		.short	141
 4946              	@ length:
 4947 0ba6 0400     		.short	4
 4948              	@ pData:
 4949 0ba8 90050000 		.word	CO_OD_ROM+1424
 4950              	@ attribute:
 4951 0bac 8D00     		.short	141
 4952              	@ length:
 4953 0bae 0400     		.short	4
 4954              	@ pData:
 4955 0bb0 94050000 		.word	CO_OD_ROM+1428
 4956              	@ attribute:
 4957 0bb4 8D00     		.short	141
ARM GAS  C:\Users\Akil\AppData\Local\Temp\cck4RU2M.s 			page 88


 4958              	@ length:
 4959 0bb6 0400     		.short	4
 4960              	@ pData:
 4961 0bb8 98050000 		.word	CO_OD_ROM+1432
 4962              	@ attribute:
 4963 0bbc 8D00     		.short	141
 4964              	@ length:
 4965 0bbe 0400     		.short	4
 4966              	@ pData:
 4967 0bc0 9C050000 		.word	CO_OD_ROM+1436
 4968              	@ attribute:
 4969 0bc4 8D00     		.short	141
 4970              	@ length:
 4971 0bc6 0400     		.short	4
 4972              	@ pData:
 4973 0bc8 A0050000 		.word	CO_OD_ROM+1440
 4974              	@ attribute:
 4975 0bcc 8D00     		.short	141
 4976              	@ length:
 4977 0bce 0400     		.short	4
 4978              	@ pData:
 4979 0bd0 A4050000 		.word	CO_OD_ROM+1444
 4980              	@ attribute:
 4981 0bd4 8D00     		.short	141
 4982              	@ length:
 4983 0bd6 0400     		.short	4
 4984              		.global	OD_record1A07
 4985              		.align	2
 4986              		.type	OD_record1A07, %object
 4987              		.size	OD_record1A07, 72
 4988              	OD_record1A07:
 4989              	@ pData:
 4990 0bd8 A8050000 		.word	CO_OD_ROM+1448
 4991              	@ attribute:
 4992 0bdc 0D00     		.short	13
 4993              	@ length:
 4994 0bde 0100     		.short	1
 4995              	@ pData:
 4996 0be0 AC050000 		.word	CO_OD_ROM+1452
 4997              	@ attribute:
 4998 0be4 8D00     		.short	141
 4999              	@ length:
 5000 0be6 0400     		.short	4
 5001              	@ pData:
 5002 0be8 B0050000 		.word	CO_OD_ROM+1456
 5003              	@ attribute:
 5004 0bec 8D00     		.short	141
 5005              	@ length:
 5006 0bee 0400     		.short	4
 5007              	@ pData:
 5008 0bf0 B4050000 		.word	CO_OD_ROM+1460
 5009              	@ attribute:
 5010 0bf4 8D00     		.short	141
 5011              	@ length:
 5012 0bf6 0400     		.short	4
 5013              	@ pData:
 5014 0bf8 B8050000 		.word	CO_OD_ROM+1464
ARM GAS  C:\Users\Akil\AppData\Local\Temp\cck4RU2M.s 			page 89


 5015              	@ attribute:
 5016 0bfc 8D00     		.short	141
 5017              	@ length:
 5018 0bfe 0400     		.short	4
 5019              	@ pData:
 5020 0c00 BC050000 		.word	CO_OD_ROM+1468
 5021              	@ attribute:
 5022 0c04 8D00     		.short	141
 5023              	@ length:
 5024 0c06 0400     		.short	4
 5025              	@ pData:
 5026 0c08 C0050000 		.word	CO_OD_ROM+1472
 5027              	@ attribute:
 5028 0c0c 8D00     		.short	141
 5029              	@ length:
 5030 0c0e 0400     		.short	4
 5031              	@ pData:
 5032 0c10 C4050000 		.word	CO_OD_ROM+1476
 5033              	@ attribute:
 5034 0c14 8D00     		.short	141
 5035              	@ length:
 5036 0c16 0400     		.short	4
 5037              	@ pData:
 5038 0c18 C8050000 		.word	CO_OD_ROM+1480
 5039              	@ attribute:
 5040 0c1c 8D00     		.short	141
 5041              	@ length:
 5042 0c1e 0400     		.short	4
 5043              		.global	OD_record1A08
 5044              		.align	2
 5045              		.type	OD_record1A08, %object
 5046              		.size	OD_record1A08, 72
 5047              	OD_record1A08:
 5048              	@ pData:
 5049 0c20 CC050000 		.word	CO_OD_ROM+1484
 5050              	@ attribute:
 5051 0c24 0D00     		.short	13
 5052              	@ length:
 5053 0c26 0100     		.short	1
 5054              	@ pData:
 5055 0c28 D0050000 		.word	CO_OD_ROM+1488
 5056              	@ attribute:
 5057 0c2c 8D00     		.short	141
 5058              	@ length:
 5059 0c2e 0400     		.short	4
 5060              	@ pData:
 5061 0c30 D4050000 		.word	CO_OD_ROM+1492
 5062              	@ attribute:
 5063 0c34 8D00     		.short	141
 5064              	@ length:
 5065 0c36 0400     		.short	4
 5066              	@ pData:
 5067 0c38 D8050000 		.word	CO_OD_ROM+1496
 5068              	@ attribute:
 5069 0c3c 8D00     		.short	141
 5070              	@ length:
 5071 0c3e 0400     		.short	4
ARM GAS  C:\Users\Akil\AppData\Local\Temp\cck4RU2M.s 			page 90


 5072              	@ pData:
 5073 0c40 DC050000 		.word	CO_OD_ROM+1500
 5074              	@ attribute:
 5075 0c44 8D00     		.short	141
 5076              	@ length:
 5077 0c46 0400     		.short	4
 5078              	@ pData:
 5079 0c48 E0050000 		.word	CO_OD_ROM+1504
 5080              	@ attribute:
 5081 0c4c 8D00     		.short	141
 5082              	@ length:
 5083 0c4e 0400     		.short	4
 5084              	@ pData:
 5085 0c50 E4050000 		.word	CO_OD_ROM+1508
 5086              	@ attribute:
 5087 0c54 8D00     		.short	141
 5088              	@ length:
 5089 0c56 0400     		.short	4
 5090              	@ pData:
 5091 0c58 E8050000 		.word	CO_OD_ROM+1512
 5092              	@ attribute:
 5093 0c5c 8D00     		.short	141
 5094              	@ length:
 5095 0c5e 0400     		.short	4
 5096              	@ pData:
 5097 0c60 EC050000 		.word	CO_OD_ROM+1516
 5098              	@ attribute:
 5099 0c64 8D00     		.short	141
 5100              	@ length:
 5101 0c66 0400     		.short	4
 5102              		.global	OD_record1A09
 5103              		.align	2
 5104              		.type	OD_record1A09, %object
 5105              		.size	OD_record1A09, 72
 5106              	OD_record1A09:
 5107              	@ pData:
 5108 0c68 F0050000 		.word	CO_OD_ROM+1520
 5109              	@ attribute:
 5110 0c6c 0D00     		.short	13
 5111              	@ length:
 5112 0c6e 0100     		.short	1
 5113              	@ pData:
 5114 0c70 F4050000 		.word	CO_OD_ROM+1524
 5115              	@ attribute:
 5116 0c74 8D00     		.short	141
 5117              	@ length:
 5118 0c76 0400     		.short	4
 5119              	@ pData:
 5120 0c78 F8050000 		.word	CO_OD_ROM+1528
 5121              	@ attribute:
 5122 0c7c 8D00     		.short	141
 5123              	@ length:
 5124 0c7e 0400     		.short	4
 5125              	@ pData:
 5126 0c80 FC050000 		.word	CO_OD_ROM+1532
 5127              	@ attribute:
 5128 0c84 8D00     		.short	141
ARM GAS  C:\Users\Akil\AppData\Local\Temp\cck4RU2M.s 			page 91


 5129              	@ length:
 5130 0c86 0400     		.short	4
 5131              	@ pData:
 5132 0c88 00060000 		.word	CO_OD_ROM+1536
 5133              	@ attribute:
 5134 0c8c 8D00     		.short	141
 5135              	@ length:
 5136 0c8e 0400     		.short	4
 5137              	@ pData:
 5138 0c90 04060000 		.word	CO_OD_ROM+1540
 5139              	@ attribute:
 5140 0c94 8D00     		.short	141
 5141              	@ length:
 5142 0c96 0400     		.short	4
 5143              	@ pData:
 5144 0c98 08060000 		.word	CO_OD_ROM+1544
 5145              	@ attribute:
 5146 0c9c 8D00     		.short	141
 5147              	@ length:
 5148 0c9e 0400     		.short	4
 5149              	@ pData:
 5150 0ca0 0C060000 		.word	CO_OD_ROM+1548
 5151              	@ attribute:
 5152 0ca4 8D00     		.short	141
 5153              	@ length:
 5154 0ca6 0400     		.short	4
 5155              	@ pData:
 5156 0ca8 10060000 		.word	CO_OD_ROM+1552
 5157              	@ attribute:
 5158 0cac 8D00     		.short	141
 5159              	@ length:
 5160 0cae 0400     		.short	4
 5161              		.global	OD_record1A0A
 5162              		.align	2
 5163              		.type	OD_record1A0A, %object
 5164              		.size	OD_record1A0A, 72
 5165              	OD_record1A0A:
 5166              	@ pData:
 5167 0cb0 14060000 		.word	CO_OD_ROM+1556
 5168              	@ attribute:
 5169 0cb4 0D00     		.short	13
 5170              	@ length:
 5171 0cb6 0100     		.short	1
 5172              	@ pData:
 5173 0cb8 18060000 		.word	CO_OD_ROM+1560
 5174              	@ attribute:
 5175 0cbc 8D00     		.short	141
 5176              	@ length:
 5177 0cbe 0400     		.short	4
 5178              	@ pData:
 5179 0cc0 1C060000 		.word	CO_OD_ROM+1564
 5180              	@ attribute:
 5181 0cc4 8D00     		.short	141
 5182              	@ length:
 5183 0cc6 0400     		.short	4
 5184              	@ pData:
 5185 0cc8 20060000 		.word	CO_OD_ROM+1568
ARM GAS  C:\Users\Akil\AppData\Local\Temp\cck4RU2M.s 			page 92


 5186              	@ attribute:
 5187 0ccc 8D00     		.short	141
 5188              	@ length:
 5189 0cce 0400     		.short	4
 5190              	@ pData:
 5191 0cd0 24060000 		.word	CO_OD_ROM+1572
 5192              	@ attribute:
 5193 0cd4 8D00     		.short	141
 5194              	@ length:
 5195 0cd6 0400     		.short	4
 5196              	@ pData:
 5197 0cd8 28060000 		.word	CO_OD_ROM+1576
 5198              	@ attribute:
 5199 0cdc 8D00     		.short	141
 5200              	@ length:
 5201 0cde 0400     		.short	4
 5202              	@ pData:
 5203 0ce0 2C060000 		.word	CO_OD_ROM+1580
 5204              	@ attribute:
 5205 0ce4 8D00     		.short	141
 5206              	@ length:
 5207 0ce6 0400     		.short	4
 5208              	@ pData:
 5209 0ce8 30060000 		.word	CO_OD_ROM+1584
 5210              	@ attribute:
 5211 0cec 8D00     		.short	141
 5212              	@ length:
 5213 0cee 0400     		.short	4
 5214              	@ pData:
 5215 0cf0 34060000 		.word	CO_OD_ROM+1588
 5216              	@ attribute:
 5217 0cf4 8D00     		.short	141
 5218              	@ length:
 5219 0cf6 0400     		.short	4
 5220              		.global	OD_record1A0B
 5221              		.align	2
 5222              		.type	OD_record1A0B, %object
 5223              		.size	OD_record1A0B, 72
 5224              	OD_record1A0B:
 5225              	@ pData:
 5226 0cf8 38060000 		.word	CO_OD_ROM+1592
 5227              	@ attribute:
 5228 0cfc 0D00     		.short	13
 5229              	@ length:
 5230 0cfe 0100     		.short	1
 5231              	@ pData:
 5232 0d00 3C060000 		.word	CO_OD_ROM+1596
 5233              	@ attribute:
 5234 0d04 8D00     		.short	141
 5235              	@ length:
 5236 0d06 0400     		.short	4
 5237              	@ pData:
 5238 0d08 40060000 		.word	CO_OD_ROM+1600
 5239              	@ attribute:
 5240 0d0c 8D00     		.short	141
 5241              	@ length:
 5242 0d0e 0400     		.short	4
ARM GAS  C:\Users\Akil\AppData\Local\Temp\cck4RU2M.s 			page 93


 5243              	@ pData:
 5244 0d10 44060000 		.word	CO_OD_ROM+1604
 5245              	@ attribute:
 5246 0d14 8D00     		.short	141
 5247              	@ length:
 5248 0d16 0400     		.short	4
 5249              	@ pData:
 5250 0d18 48060000 		.word	CO_OD_ROM+1608
 5251              	@ attribute:
 5252 0d1c 8D00     		.short	141
 5253              	@ length:
 5254 0d1e 0400     		.short	4
 5255              	@ pData:
 5256 0d20 4C060000 		.word	CO_OD_ROM+1612
 5257              	@ attribute:
 5258 0d24 8D00     		.short	141
 5259              	@ length:
 5260 0d26 0400     		.short	4
 5261              	@ pData:
 5262 0d28 50060000 		.word	CO_OD_ROM+1616
 5263              	@ attribute:
 5264 0d2c 8D00     		.short	141
 5265              	@ length:
 5266 0d2e 0400     		.short	4
 5267              	@ pData:
 5268 0d30 54060000 		.word	CO_OD_ROM+1620
 5269              	@ attribute:
 5270 0d34 8D00     		.short	141
 5271              	@ length:
 5272 0d36 0400     		.short	4
 5273              	@ pData:
 5274 0d38 58060000 		.word	CO_OD_ROM+1624
 5275              	@ attribute:
 5276 0d3c 8D00     		.short	141
 5277              	@ length:
 5278 0d3e 0400     		.short	4
 5279              		.global	OD_record1A0C
 5280              		.align	2
 5281              		.type	OD_record1A0C, %object
 5282              		.size	OD_record1A0C, 72
 5283              	OD_record1A0C:
 5284              	@ pData:
 5285 0d40 5C060000 		.word	CO_OD_ROM+1628
 5286              	@ attribute:
 5287 0d44 0D00     		.short	13
 5288              	@ length:
 5289 0d46 0100     		.short	1
 5290              	@ pData:
 5291 0d48 60060000 		.word	CO_OD_ROM+1632
 5292              	@ attribute:
 5293 0d4c 8D00     		.short	141
 5294              	@ length:
 5295 0d4e 0400     		.short	4
 5296              	@ pData:
 5297 0d50 64060000 		.word	CO_OD_ROM+1636
 5298              	@ attribute:
 5299 0d54 8D00     		.short	141
ARM GAS  C:\Users\Akil\AppData\Local\Temp\cck4RU2M.s 			page 94


 5300              	@ length:
 5301 0d56 0400     		.short	4
 5302              	@ pData:
 5303 0d58 68060000 		.word	CO_OD_ROM+1640
 5304              	@ attribute:
 5305 0d5c 8D00     		.short	141
 5306              	@ length:
 5307 0d5e 0400     		.short	4
 5308              	@ pData:
 5309 0d60 6C060000 		.word	CO_OD_ROM+1644
 5310              	@ attribute:
 5311 0d64 8D00     		.short	141
 5312              	@ length:
 5313 0d66 0400     		.short	4
 5314              	@ pData:
 5315 0d68 70060000 		.word	CO_OD_ROM+1648
 5316              	@ attribute:
 5317 0d6c 8D00     		.short	141
 5318              	@ length:
 5319 0d6e 0400     		.short	4
 5320              	@ pData:
 5321 0d70 74060000 		.word	CO_OD_ROM+1652
 5322              	@ attribute:
 5323 0d74 8D00     		.short	141
 5324              	@ length:
 5325 0d76 0400     		.short	4
 5326              	@ pData:
 5327 0d78 78060000 		.word	CO_OD_ROM+1656
 5328              	@ attribute:
 5329 0d7c 8D00     		.short	141
 5330              	@ length:
 5331 0d7e 0400     		.short	4
 5332              	@ pData:
 5333 0d80 7C060000 		.word	CO_OD_ROM+1660
 5334              	@ attribute:
 5335 0d84 8D00     		.short	141
 5336              	@ length:
 5337 0d86 0400     		.short	4
 5338              		.global	OD_record1A0D
 5339              		.align	2
 5340              		.type	OD_record1A0D, %object
 5341              		.size	OD_record1A0D, 72
 5342              	OD_record1A0D:
 5343              	@ pData:
 5344 0d88 80060000 		.word	CO_OD_ROM+1664
 5345              	@ attribute:
 5346 0d8c 0D00     		.short	13
 5347              	@ length:
 5348 0d8e 0100     		.short	1
 5349              	@ pData:
 5350 0d90 84060000 		.word	CO_OD_ROM+1668
 5351              	@ attribute:
 5352 0d94 8D00     		.short	141
 5353              	@ length:
 5354 0d96 0400     		.short	4
 5355              	@ pData:
 5356 0d98 88060000 		.word	CO_OD_ROM+1672
ARM GAS  C:\Users\Akil\AppData\Local\Temp\cck4RU2M.s 			page 95


 5357              	@ attribute:
 5358 0d9c 8D00     		.short	141
 5359              	@ length:
 5360 0d9e 0400     		.short	4
 5361              	@ pData:
 5362 0da0 8C060000 		.word	CO_OD_ROM+1676
 5363              	@ attribute:
 5364 0da4 8D00     		.short	141
 5365              	@ length:
 5366 0da6 0400     		.short	4
 5367              	@ pData:
 5368 0da8 90060000 		.word	CO_OD_ROM+1680
 5369              	@ attribute:
 5370 0dac 8D00     		.short	141
 5371              	@ length:
 5372 0dae 0400     		.short	4
 5373              	@ pData:
 5374 0db0 94060000 		.word	CO_OD_ROM+1684
 5375              	@ attribute:
 5376 0db4 8D00     		.short	141
 5377              	@ length:
 5378 0db6 0400     		.short	4
 5379              	@ pData:
 5380 0db8 98060000 		.word	CO_OD_ROM+1688
 5381              	@ attribute:
 5382 0dbc 8D00     		.short	141
 5383              	@ length:
 5384 0dbe 0400     		.short	4
 5385              	@ pData:
 5386 0dc0 9C060000 		.word	CO_OD_ROM+1692
 5387              	@ attribute:
 5388 0dc4 8D00     		.short	141
 5389              	@ length:
 5390 0dc6 0400     		.short	4
 5391              	@ pData:
 5392 0dc8 A0060000 		.word	CO_OD_ROM+1696
 5393              	@ attribute:
 5394 0dcc 8D00     		.short	141
 5395              	@ length:
 5396 0dce 0400     		.short	4
 5397              		.global	OD_record1A0E
 5398              		.align	2
 5399              		.type	OD_record1A0E, %object
 5400              		.size	OD_record1A0E, 72
 5401              	OD_record1A0E:
 5402              	@ pData:
 5403 0dd0 A4060000 		.word	CO_OD_ROM+1700
 5404              	@ attribute:
 5405 0dd4 0D00     		.short	13
 5406              	@ length:
 5407 0dd6 0100     		.short	1
 5408              	@ pData:
 5409 0dd8 A8060000 		.word	CO_OD_ROM+1704
 5410              	@ attribute:
 5411 0ddc 8D00     		.short	141
 5412              	@ length:
 5413 0dde 0400     		.short	4
ARM GAS  C:\Users\Akil\AppData\Local\Temp\cck4RU2M.s 			page 96


 5414              	@ pData:
 5415 0de0 AC060000 		.word	CO_OD_ROM+1708
 5416              	@ attribute:
 5417 0de4 8D00     		.short	141
 5418              	@ length:
 5419 0de6 0400     		.short	4
 5420              	@ pData:
 5421 0de8 B0060000 		.word	CO_OD_ROM+1712
 5422              	@ attribute:
 5423 0dec 8D00     		.short	141
 5424              	@ length:
 5425 0dee 0400     		.short	4
 5426              	@ pData:
 5427 0df0 B4060000 		.word	CO_OD_ROM+1716
 5428              	@ attribute:
 5429 0df4 8D00     		.short	141
 5430              	@ length:
 5431 0df6 0400     		.short	4
 5432              	@ pData:
 5433 0df8 B8060000 		.word	CO_OD_ROM+1720
 5434              	@ attribute:
 5435 0dfc 8D00     		.short	141
 5436              	@ length:
 5437 0dfe 0400     		.short	4
 5438              	@ pData:
 5439 0e00 BC060000 		.word	CO_OD_ROM+1724
 5440              	@ attribute:
 5441 0e04 8D00     		.short	141
 5442              	@ length:
 5443 0e06 0400     		.short	4
 5444              	@ pData:
 5445 0e08 C0060000 		.word	CO_OD_ROM+1728
 5446              	@ attribute:
 5447 0e0c 8D00     		.short	141
 5448              	@ length:
 5449 0e0e 0400     		.short	4
 5450              	@ pData:
 5451 0e10 C4060000 		.word	CO_OD_ROM+1732
 5452              	@ attribute:
 5453 0e14 8D00     		.short	141
 5454              	@ length:
 5455 0e16 0400     		.short	4
 5456              		.global	OD_record1A0F
 5457              		.align	2
 5458              		.type	OD_record1A0F, %object
 5459              		.size	OD_record1A0F, 72
 5460              	OD_record1A0F:
 5461              	@ pData:
 5462 0e18 C8060000 		.word	CO_OD_ROM+1736
 5463              	@ attribute:
 5464 0e1c 0D00     		.short	13
 5465              	@ length:
 5466 0e1e 0100     		.short	1
 5467              	@ pData:
 5468 0e20 CC060000 		.word	CO_OD_ROM+1740
 5469              	@ attribute:
 5470 0e24 8D00     		.short	141
ARM GAS  C:\Users\Akil\AppData\Local\Temp\cck4RU2M.s 			page 97


 5471              	@ length:
 5472 0e26 0400     		.short	4
 5473              	@ pData:
 5474 0e28 D0060000 		.word	CO_OD_ROM+1744
 5475              	@ attribute:
 5476 0e2c 8D00     		.short	141
 5477              	@ length:
 5478 0e2e 0400     		.short	4
 5479              	@ pData:
 5480 0e30 D4060000 		.word	CO_OD_ROM+1748
 5481              	@ attribute:
 5482 0e34 8D00     		.short	141
 5483              	@ length:
 5484 0e36 0400     		.short	4
 5485              	@ pData:
 5486 0e38 D8060000 		.word	CO_OD_ROM+1752
 5487              	@ attribute:
 5488 0e3c 8D00     		.short	141
 5489              	@ length:
 5490 0e3e 0400     		.short	4
 5491              	@ pData:
 5492 0e40 DC060000 		.word	CO_OD_ROM+1756
 5493              	@ attribute:
 5494 0e44 8D00     		.short	141
 5495              	@ length:
 5496 0e46 0400     		.short	4
 5497              	@ pData:
 5498 0e48 E0060000 		.word	CO_OD_ROM+1760
 5499              	@ attribute:
 5500 0e4c 8D00     		.short	141
 5501              	@ length:
 5502 0e4e 0400     		.short	4
 5503              	@ pData:
 5504 0e50 E4060000 		.word	CO_OD_ROM+1764
 5505              	@ attribute:
 5506 0e54 8D00     		.short	141
 5507              	@ length:
 5508 0e56 0400     		.short	4
 5509              	@ pData:
 5510 0e58 E8060000 		.word	CO_OD_ROM+1768
 5511              	@ attribute:
 5512 0e5c 8D00     		.short	141
 5513              	@ length:
 5514 0e5e 0400     		.short	4
 5515              		.global	OD_record2120
 5516              		.align	2
 5517              		.type	OD_record2120, %object
 5518              		.size	OD_record2120, 48
 5519              	OD_record2120:
 5520              	@ pData:
 5521 0e60 A0000000 		.word	CO_OD_RAM+160
 5522              	@ attribute:
 5523 0e64 0600     		.short	6
 5524              	@ length:
 5525 0e66 0100     		.short	1
 5526              	@ pData:
 5527 0e68 A8000000 		.word	CO_OD_RAM+168
ARM GAS  C:\Users\Akil\AppData\Local\Temp\cck4RU2M.s 			page 98


 5528              	@ attribute:
 5529 0e6c BE00     		.short	190
 5530              	@ length:
 5531 0e6e 0800     		.short	8
 5532              	@ pData:
 5533 0e70 B0000000 		.word	CO_OD_RAM+176
 5534              	@ attribute:
 5535 0e74 BE00     		.short	190
 5536              	@ length:
 5537 0e76 0800     		.short	8
 5538              	@ pData:
 5539 0e78 B8000000 		.word	CO_OD_RAM+184
 5540              	@ attribute:
 5541 0e7c BE00     		.short	190
 5542              	@ length:
 5543 0e7e 0400     		.short	4
 5544              	@ pData:
 5545 0e80 C0000000 		.word	CO_OD_RAM+192
 5546              	@ attribute:
 5547 0e84 BE00     		.short	190
 5548              	@ length:
 5549 0e86 0800     		.short	8
 5550              	@ pData:
 5551 0e88 00000000 		.word	0
 5552              	@ attribute:
 5553 0e8c 0E00     		.short	14
 5554              	@ length:
 5555 0e8e 0000     		.short	0
 5556              		.global	OD_record2200
 5557              		.align	2
 5558              		.type	OD_record2200, %object
 5559              		.size	OD_record2200, 32
 5560              	OD_record2200:
 5561              	@ pData:
 5562 0e90 34070000 		.word	CO_OD_ROM+1844
 5563              	@ attribute:
 5564 0e94 0500     		.short	5
 5565              	@ length:
 5566 0e96 0100     		.short	1
 5567              	@ pData:
 5568 0e98 38070000 		.word	CO_OD_ROM+1848
 5569              	@ attribute:
 5570 0e9c 8500     		.short	133
 5571              	@ length:
 5572 0e9e 0400     		.short	4
 5573              	@ pData:
 5574 0ea0 3C070000 		.word	CO_OD_ROM+1852
 5575              	@ attribute:
 5576 0ea4 8D00     		.short	141
 5577              	@ length:
 5578 0ea6 0400     		.short	4
 5579              	@ pData:
 5580 0ea8 40070000 		.word	CO_OD_ROM+1856
 5581              	@ attribute:
 5582 0eac 8D00     		.short	141
 5583              	@ length:
 5584 0eae 0400     		.short	4
ARM GAS  C:\Users\Akil\AppData\Local\Temp\cck4RU2M.s 			page 99


 5585              		.global	CO_OD
 5586              		.align	2
 5587              		.type	CO_OD, %object
 5588              		.size	CO_OD, 1608
 5589              	CO_OD:
 5590              	@ index:
 5591 0eb0 0010     		.short	4096
 5592              	@ maxSubIndex:
 5593 0eb2 00       		.byte	0
 5594              	@ attribute:
 5595 0eb3 00       		.space	1
 5596 0eb4 8500     		.short	133
 5597              	@ length:
 5598 0eb6 0400     		.short	4
 5599              	@ pData:
 5600 0eb8 04000000 		.word	CO_OD_ROM+4
 5601              	@ index:
 5602 0ebc 0110     		.short	4097
 5603              	@ maxSubIndex:
 5604 0ebe 00       		.byte	0
 5605              	@ attribute:
 5606 0ebf 00       		.space	1
 5607 0ec0 3600     		.short	54
 5608              	@ length:
 5609 0ec2 0100     		.short	1
 5610              	@ pData:
 5611 0ec4 04000000 		.word	CO_OD_RAM+4
 5612              	@ index:
 5613 0ec8 0210     		.short	4098
 5614              	@ maxSubIndex:
 5615 0eca 00       		.byte	0
 5616              	@ attribute:
 5617 0ecb 00       		.space	1
 5618 0ecc B600     		.short	182
 5619              	@ length:
 5620 0ece 0400     		.short	4
 5621              	@ pData:
 5622 0ed0 08000000 		.word	CO_OD_RAM+8
 5623              	@ index:
 5624 0ed4 0310     		.short	4099
 5625              	@ maxSubIndex:
 5626 0ed6 08       		.byte	8
 5627              	@ attribute:
 5628 0ed7 00       		.space	1
 5629 0ed8 8E00     		.short	142
 5630              	@ length:
 5631 0eda 0400     		.short	4
 5632              	@ pData:
 5633 0edc 0C000000 		.word	CO_OD_RAM+12
 5634              	@ index:
 5635 0ee0 0510     		.short	4101
 5636              	@ maxSubIndex:
 5637 0ee2 00       		.byte	0
 5638              	@ attribute:
 5639 0ee3 00       		.space	1
 5640 0ee4 8D00     		.short	141
 5641              	@ length:
ARM GAS  C:\Users\Akil\AppData\Local\Temp\cck4RU2M.s 			page 100


 5642 0ee6 0400     		.short	4
 5643              	@ pData:
 5644 0ee8 08000000 		.word	CO_OD_ROM+8
 5645              	@ index:
 5646 0eec 0610     		.short	4102
 5647              	@ maxSubIndex:
 5648 0eee 00       		.byte	0
 5649              	@ attribute:
 5650 0eef 00       		.space	1
 5651 0ef0 8D00     		.short	141
 5652              	@ length:
 5653 0ef2 0400     		.short	4
 5654              	@ pData:
 5655 0ef4 0C000000 		.word	CO_OD_ROM+12
 5656              	@ index:
 5657 0ef8 0710     		.short	4103
 5658              	@ maxSubIndex:
 5659 0efa 00       		.byte	0
 5660              	@ attribute:
 5661 0efb 00       		.space	1
 5662 0efc 8D00     		.short	141
 5663              	@ length:
 5664 0efe 0400     		.short	4
 5665              	@ pData:
 5666 0f00 10000000 		.word	CO_OD_ROM+16
 5667              	@ index:
 5668 0f04 0810     		.short	4104
 5669              	@ maxSubIndex:
 5670 0f06 00       		.byte	0
 5671              	@ attribute:
 5672 0f07 00       		.space	1
 5673 0f08 0500     		.short	5
 5674              	@ length:
 5675 0f0a 0B00     		.short	11
 5676              	@ pData:
 5677 0f0c 14000000 		.word	CO_OD_ROM+20
 5678              	@ index:
 5679 0f10 0910     		.short	4105
 5680              	@ maxSubIndex:
 5681 0f12 00       		.byte	0
 5682              	@ attribute:
 5683 0f13 00       		.space	1
 5684 0f14 0500     		.short	5
 5685              	@ length:
 5686 0f16 0400     		.short	4
 5687              	@ pData:
 5688 0f18 1F000000 		.word	CO_OD_ROM+31
 5689              	@ index:
 5690 0f1c 0A10     		.short	4106
 5691              	@ maxSubIndex:
 5692 0f1e 00       		.byte	0
 5693              	@ attribute:
 5694 0f1f 00       		.space	1
 5695 0f20 0500     		.short	5
 5696              	@ length:
 5697 0f22 0400     		.short	4
 5698              	@ pData:
ARM GAS  C:\Users\Akil\AppData\Local\Temp\cck4RU2M.s 			page 101


 5699 0f24 23000000 		.word	CO_OD_ROM+35
 5700              	@ index:
 5701 0f28 1010     		.short	4112
 5702              	@ maxSubIndex:
 5703 0f2a 01       		.byte	1
 5704              	@ attribute:
 5705 0f2b 00       		.space	1
 5706 0f2c 8E00     		.short	142
 5707              	@ length:
 5708 0f2e 0400     		.short	4
 5709              	@ pData:
 5710 0f30 2C000000 		.word	CO_OD_RAM+44
 5711              	@ index:
 5712 0f34 1110     		.short	4113
 5713              	@ maxSubIndex:
 5714 0f36 01       		.byte	1
 5715              	@ attribute:
 5716 0f37 00       		.space	1
 5717 0f38 8E00     		.short	142
 5718              	@ length:
 5719 0f3a 0400     		.short	4
 5720              	@ pData:
 5721 0f3c 30000000 		.word	CO_OD_RAM+48
 5722              	@ index:
 5723 0f40 1410     		.short	4116
 5724              	@ maxSubIndex:
 5725 0f42 00       		.byte	0
 5726              	@ attribute:
 5727 0f43 00       		.space	1
 5728 0f44 8500     		.short	133
 5729              	@ length:
 5730 0f46 0400     		.short	4
 5731              	@ pData:
 5732 0f48 28000000 		.word	CO_OD_ROM+40
 5733              	@ index:
 5734 0f4c 1510     		.short	4117
 5735              	@ maxSubIndex:
 5736 0f4e 00       		.byte	0
 5737              	@ attribute:
 5738 0f4f 00       		.space	1
 5739 0f50 8D00     		.short	141
 5740              	@ length:
 5741 0f52 0200     		.short	2
 5742              	@ pData:
 5743 0f54 2C000000 		.word	CO_OD_ROM+44
 5744              	@ index:
 5745 0f58 1610     		.short	4118
 5746              	@ maxSubIndex:
 5747 0f5a 04       		.byte	4
 5748              	@ attribute:
 5749 0f5b 00       		.space	1
 5750 0f5c 8D00     		.short	141
 5751              	@ length:
 5752 0f5e 0400     		.short	4
 5753              	@ pData:
 5754 0f60 30000000 		.word	CO_OD_ROM+48
 5755              	@ index:
ARM GAS  C:\Users\Akil\AppData\Local\Temp\cck4RU2M.s 			page 102


 5756 0f64 1710     		.short	4119
 5757              	@ maxSubIndex:
 5758 0f66 00       		.byte	0
 5759              	@ attribute:
 5760 0f67 00       		.space	1
 5761 0f68 8D00     		.short	141
 5762              	@ length:
 5763 0f6a 0200     		.short	2
 5764              	@ pData:
 5765 0f6c 40000000 		.word	CO_OD_ROM+64
 5766              	@ index:
 5767 0f70 1810     		.short	4120
 5768              	@ maxSubIndex:
 5769 0f72 04       		.byte	4
 5770              	@ attribute:
 5771 0f73 00       		.space	1
 5772 0f74 0000     		.short	0
 5773              	@ length:
 5774 0f76 0000     		.short	0
 5775              	@ pData:
 5776 0f78 00000000 		.word	OD_record1018
 5777              	@ index:
 5778 0f7c 1910     		.short	4121
 5779              	@ maxSubIndex:
 5780 0f7e 00       		.byte	0
 5781              	@ attribute:
 5782 0f7f 00       		.space	1
 5783 0f80 0D00     		.short	13
 5784              	@ length:
 5785 0f82 0100     		.short	1
 5786              	@ pData:
 5787 0f84 58000000 		.word	CO_OD_ROM+88
 5788              	@ index:
 5789 0f88 2910     		.short	4137
 5790              	@ maxSubIndex:
 5791 0f8a 06       		.byte	6
 5792              	@ attribute:
 5793 0f8b 00       		.space	1
 5794 0f8c 0D00     		.short	13
 5795              	@ length:
 5796 0f8e 0100     		.short	1
 5797              	@ pData:
